{
  "_format": "hh-sol-artifact-1",
  "contractName": "AMBModule",
  "sourceName": "contracts/test/AMBModule.sol",
  "abi": [
    {
      "inputs": [
        {
          "internalType": "address",
          "name": "_owner",
          "type": "address"
        },
        {
          "internalType": "address",
          "name": "_avatar",
          "type": "address"
        },
        {
          "internalType": "address",
          "name": "_target",
          "type": "address"
        },
        {
          "internalType": "contract IAMB",
          "name": "_amb",
          "type": "address"
        },
        {
          "internalType": "address",
          "name": "_controller",
          "type": "address"
        },
        {
          "internalType": "bytes32",
          "name": "_chainId",
          "type": "bytes32"
        }
      ],
      "stateMutability": "nonpayable",
      "type": "constructor"
    },
    {
      "anonymous": false,
      "inputs": [
        {
          "indexed": true,
          "internalType": "address",
          "name": "initiator",
          "type": "address"
        },
        {
          "indexed": true,
          "internalType": "address",
          "name": "owner",
          "type": "address"
        },
        {
          "indexed": true,
          "internalType": "address",
          "name": "avatar",
          "type": "address"
        },
        {
          "indexed": false,
          "internalType": "address",
          "name": "target",
          "type": "address"
        }
      ],
      "name": "AmbModuleSetup",
      "type": "event"
    },
    {
      "anonymous": false,
      "inputs": [
        {
          "indexed": true,
          "internalType": "address",
          "name": "previousAvatar",
          "type": "address"
        },
        {
          "indexed": true,
          "internalType": "address",
          "name": "newAvatar",
          "type": "address"
        }
      ],
      "name": "AvatarSet",
      "type": "event"
    },
    {
      "anonymous": false,
      "inputs": [
        {
          "indexed": false,
          "internalType": "address",
          "name": "guard",
          "type": "address"
        }
      ],
      "name": "ChangedGuard",
      "type": "event"
    },
    {
      "anonymous": false,
      "inputs": [
        {
          "indexed": true,
          "internalType": "address",
          "name": "previousOwner",
          "type": "address"
        },
        {
          "indexed": true,
          "internalType": "address",
          "name": "newOwner",
          "type": "address"
        }
      ],
      "name": "OwnershipTransferred",
      "type": "event"
    },
    {
      "anonymous": false,
      "inputs": [
        {
          "indexed": true,
          "internalType": "address",
          "name": "previousTarget",
          "type": "address"
        },
        {
          "indexed": true,
          "internalType": "address",
          "name": "newTarget",
          "type": "address"
        }
      ],
      "name": "TargetSet",
      "type": "event"
    },
    {
      "inputs": [],
      "name": "amb",
      "outputs": [
        {
          "internalType": "contract IAMB",
          "name": "",
          "type": "address"
        }
      ],
      "stateMutability": "view",
      "type": "function"
    },
    {
      "inputs": [],
      "name": "avatar",
      "outputs": [
        {
          "internalType": "address",
          "name": "",
          "type": "address"
        }
      ],
      "stateMutability": "view",
      "type": "function"
    },
    {
      "inputs": [],
      "name": "chainId",
      "outputs": [
        {
          "internalType": "bytes32",
          "name": "",
          "type": "bytes32"
        }
      ],
      "stateMutability": "view",
      "type": "function"
    },
    {
      "inputs": [],
      "name": "controller",
      "outputs": [
        {
          "internalType": "address",
          "name": "",
          "type": "address"
        }
      ],
      "stateMutability": "view",
      "type": "function"
    },
    {
      "inputs": [
        {
          "internalType": "address",
          "name": "to",
          "type": "address"
        },
        {
          "internalType": "uint256",
          "name": "value",
          "type": "uint256"
        },
        {
          "internalType": "bytes",
          "name": "data",
          "type": "bytes"
        },
        {
          "internalType": "enum Enum.Operation",
          "name": "operation",
          "type": "uint8"
        }
      ],
      "name": "executeTransaction",
      "outputs": [],
      "stateMutability": "nonpayable",
      "type": "function"
    },
    {
      "inputs": [],
      "name": "getGuard",
      "outputs": [
        {
          "internalType": "address",
          "name": "_guard",
          "type": "address"
        }
      ],
      "stateMutability": "view",
      "type": "function"
    },
    {
      "inputs": [],
      "name": "guard",
      "outputs": [
        {
          "internalType": "address",
          "name": "",
          "type": "address"
        }
      ],
      "stateMutability": "view",
      "type": "function"
    },
    {
      "inputs": [],
      "name": "owner",
      "outputs": [
        {
          "internalType": "address",
          "name": "",
          "type": "address"
        }
      ],
      "stateMutability": "view",
      "type": "function"
    },
    {
      "inputs": [],
      "name": "renounceOwnership",
      "outputs": [],
      "stateMutability": "nonpayable",
      "type": "function"
    },
    {
      "inputs": [
        {
          "internalType": "address",
          "name": "_contract",
          "type": "address"
        },
        {
          "internalType": "bytes",
          "name": "_data",
          "type": "bytes"
        },
        {
          "internalType": "uint256",
          "name": "_gas",
          "type": "uint256"
        }
      ],
      "name": "requireToPassMessage",
      "outputs": [
        {
          "internalType": "bytes32",
          "name": "",
          "type": "bytes32"
        }
      ],
      "stateMutability": "nonpayable",
      "type": "function"
    },
    {
      "inputs": [
        {
          "internalType": "address",
          "name": "_amb",
          "type": "address"
        }
      ],
      "name": "setAmb",
      "outputs": [],
      "stateMutability": "nonpayable",
      "type": "function"
    },
    {
      "inputs": [
        {
          "internalType": "address",
          "name": "_avatar",
          "type": "address"
        }
      ],
      "name": "setAvatar",
      "outputs": [],
      "stateMutability": "nonpayable",
      "type": "function"
    },
    {
      "inputs": [
        {
          "internalType": "bytes32",
          "name": "_chainId",
          "type": "bytes32"
        }
      ],
      "name": "setChainId",
      "outputs": [],
      "stateMutability": "nonpayable",
      "type": "function"
    },
    {
      "inputs": [
        {
          "internalType": "address",
          "name": "_controller",
          "type": "address"
        }
      ],
      "name": "setController",
      "outputs": [],
      "stateMutability": "nonpayable",
      "type": "function"
    },
    {
      "inputs": [
        {
          "internalType": "address",
          "name": "_guard",
          "type": "address"
        }
      ],
      "name": "setGuard",
      "outputs": [],
      "stateMutability": "nonpayable",
      "type": "function"
    },
    {
      "inputs": [
        {
          "internalType": "address",
          "name": "_target",
          "type": "address"
        }
      ],
      "name": "setTarget",
      "outputs": [],
      "stateMutability": "nonpayable",
      "type": "function"
    },
    {
      "inputs": [
        {
          "internalType": "bytes",
          "name": "initParams",
          "type": "bytes"
        }
      ],
      "name": "setUp",
      "outputs": [],
      "stateMutability": "nonpayable",
      "type": "function"
    },
    {
      "inputs": [],
      "name": "target",
      "outputs": [
        {
          "internalType": "address",
          "name": "",
          "type": "address"
        }
      ],
      "stateMutability": "view",
      "type": "function"
    },
    {
      "inputs": [
        {
          "internalType": "address",
          "name": "newOwner",
          "type": "address"
        }
      ],
      "name": "transferOwnership",
      "outputs": [],
      "stateMutability": "nonpayable",
      "type": "function"
    }
  ],
  "bytecode": "0x60806040523480156200001157600080fd5b506040516200199838038062001998833981016040819052620000349162000548565b604080516001600160a01b0388811660208301528781168284015286811660608301528581166080830152841660a082015260c08082018490528251808303909101815260e09091019091526200008b8162000098565b50505050505050620005e6565b60008060008060008086806020019051810190620000b7919062000548565b955095509550955095509550620000d36200023160201b60201c565b6001600160a01b0385166200012f5760405162461bcd60e51b815260206004820152601e60248201527f4176617461722063616e206e6f74206265207a65726f2061646472657373000060448201526064015b60405180910390fd5b6001600160a01b038416620001875760405162461bcd60e51b815260206004820152601e60248201527f5461726765742063616e206e6f74206265207a65726f20616464726573730000604482015260640162000126565b606680546001600160a01b038088166001600160a01b03199283161790925560678054878416908316179055606880548684169083161790556069805492851692909116919091179055606a819055620001e186620002ec565b6040516001600160a01b038581168252808716919088169033907f523e377a4bf6c92e5fc7d99462b1d7f983014116ff0c646eba7267d11aba842c9060200160405180910390a450505050505050565b600054610100900460ff16806200024b575060005460ff16155b6200029f5760405162461bcd60e51b815260206004820152602e60248201526000805160206200197883398151915260448201526d191e481a5b9a5d1a585b1a5e995960921b606482015260840162000126565b600054610100900460ff16158015620002c2576000805461ffff19166101011790555b620002cc620003ba565b620002d66200045f565b8015620002e9576000805461ff00191690555b50565b6033546001600160a01b03163314620003485760405162461bcd60e51b815260206004820181905260248201527f4f776e61626c653a2063616c6c6572206973206e6f7420746865206f776e6572604482015260640162000126565b6001600160a01b038116620003af5760405162461bcd60e51b815260206004820152602660248201527f4f776e61626c653a206e6577206f776e657220697320746865207a65726f206160448201526564647265737360d01b606482015260840162000126565b620002e981620004f6565b600054610100900460ff1680620003d4575060005460ff16155b620004285760405162461bcd60e51b815260206004820152602e60248201526000805160206200197883398151915260448201526d191e481a5b9a5d1a585b1a5e995960921b606482015260840162000126565b600054610100900460ff16158015620002d6576000805461ffff19166101011790558015620002e9576000805461ff001916905550565b600054610100900460ff168062000479575060005460ff16155b620004cd5760405162461bcd60e51b815260206004820152602e60248201526000805160206200197883398151915260448201526d191e481a5b9a5d1a585b1a5e995960921b606482015260840162000126565b600054610100900460ff16158015620004f0576000805461ffff19166101011790555b620002d6335b603380546001600160a01b038381166001600160a01b0319831681179093556040519116919082907f8be0079c531659141344cd1fd0a4f28419497f9722a3daafe3b4186f6b6457e090600090a35050565b60008060008060008060c087890312156200056257600080fd5b86516200056f81620005d0565b60208801519096506200058281620005d0565b60408801519095506200059581620005d0565b6060880151909450620005a881620005d0565b6080880151909350620005bb81620005d0565b8092505060a087015190509295509295509295565b6001600160a01b0381168114620002e957600080fd5b61138280620005f66000396000f3fe608060405234801561001057600080fd5b50600436106101215760003560e01c806392eefe9b116100ad578063dc8601b311610071578063dc8601b314610244578063e19a9dd91461025b578063e69aa7711461026e578063f2fde38b14610281578063f77c47911461029457600080fd5b806392eefe9b146101e35780639a8a0592146101f6578063a4f9edbf1461020d578063c910638914610220578063d4b839921461023157600080fd5b80635aef7de6116100f45780635aef7de614610191578063715018a6146101a4578063776d1a01146101ac5780637ceab3b1146101bf5780638da5cb5b146101d257600080fd5b8063086cfca8146101265780631062b39a1461013b5780634164139f1461016b57806356f0cb011461017e575b600080fd5b610139610134366004610f51565b6102a7565b005b60685461014e906001600160a01b031681565b6040516001600160a01b0390911681526020015b60405180910390f35b610139610179366004611068565b61032c565b61013961018c366004610f51565b61057e565b60665461014e906001600160a01b031681565b610139610628565b6101396101ba366004610f51565b61065e565b60655461014e906001600160a01b031681565b6033546001600160a01b031661014e565b6101396101f1366004610f51565b6106da565b6101ff606a5481565b604051908152602001610162565b61013961021b36600461112c565b610784565b6065546001600160a01b031661014e565b60675461014e906001600160a01b031681565b6101ff61025236600461100f565b60009392505050565b610139610269366004610f51565b610909565b61013961027c3660046110fa565b610a60565b61013961028f366004610f51565b610ae1565b60695461014e906001600160a01b031681565b6033546001600160a01b031633146102da5760405162461bcd60e51b81526004016102d1906112ec565b60405180910390fd5b606680546001600160a01b038381166001600160a01b0319831681179093556040519116919082907f52ae88b092de36f87fb43fe794eb1381023b9c1bce563a871154022c63dce34290600090a35050565b6068546001600160a01b031633146103795760405162461bcd60e51b815260206004820152601060248201526f2ab730baba3437b934bd32b21030b6b160811b60448201526064016102d1565b606a54606860009054906101000a90046001600160a01b03166001600160a01b0316639e307dff6040518163ffffffff1660e01b815260040160206040518083038186803b1580156103ca57600080fd5b505afa1580156103de573d6000803e3d6000fd5b505050506040513d601f19601f820116820180604052508101906104029190611113565b146104465760405162461bcd60e51b8152602060048201526014602482015273155b985d5d1a1bdc9a5e99590818da185a5b925960621b60448201526064016102d1565b6069546068546040805163d67bdd2560e01b815290516001600160a01b03938416939092169163d67bdd2591600480820192602092909190829003018186803b15801561049257600080fd5b505afa1580156104a6573d6000803e3d6000fd5b505050506040513d601f19601f820116820180604052508101906104ca9190610f75565b6001600160a01b0316146105205760405162461bcd60e51b815260206004820152601760248201527f556e617574686f72697a656420636f6e74726f6c6c657200000000000000000060448201526064016102d1565b61052c84848484610b7c565b6105785760405162461bcd60e51b815260206004820152601960248201527f4d6f64756c65207472616e73616374696f6e206661696c65640000000000000060448201526064016102d1565b50505050565b6033546001600160a01b031633146105a85760405162461bcd60e51b81526004016102d1906112ec565b6068546001600160a01b03828116911614156106065760405162461bcd60e51b815260206004820152601f60248201527f414d42206164647265737320616c72656164792073657420746f20746869730060448201526064016102d1565b606880546001600160a01b0319166001600160a01b0392909216919091179055565b6033546001600160a01b031633146106525760405162461bcd60e51b81526004016102d1906112ec565b61065c6000610d2d565b565b6033546001600160a01b031633146106885760405162461bcd60e51b81526004016102d1906112ec565b606780546001600160a01b038381166001600160a01b0319831681179093556040519116919082907f90cc2f570a6eb594b1580ea3e41247d2d73a55281889e86bd4ec2fc29c7e62d690600090a35050565b6033546001600160a01b031633146107045760405162461bcd60e51b81526004016102d1906112ec565b6069546001600160a01b03828116911614156107625760405162461bcd60e51b815260206004820152601e60248201527f636f6e74726f6c6c657220616c72656164792073657420746f2074686973000060448201526064016102d1565b606980546001600160a01b0319166001600160a01b0392909216919091179055565b600080600080600080868060200190518101906107a19190610f92565b9550955095509550955095506107b5610d7f565b6001600160a01b03851661080b5760405162461bcd60e51b815260206004820152601e60248201527f4176617461722063616e206e6f74206265207a65726f2061646472657373000060448201526064016102d1565b6001600160a01b0384166108615760405162461bcd60e51b815260206004820152601e60248201527f5461726765742063616e206e6f74206265207a65726f2061646472657373000060448201526064016102d1565b606680546001600160a01b038088166001600160a01b03199283161790925560678054878416908316179055606880548684169083161790556069805492851692909116919091179055606a8190556108b986610ae1565b6040516001600160a01b038581168252808716919088169033907f523e377a4bf6c92e5fc7d99462b1d7f983014116ff0c646eba7267d11aba842c9060200160405180910390a450505050505050565b6033546001600160a01b031633146109335760405162461bcd60e51b81526004016102d1906112ec565b6001600160a01b03811615610a0c576040516301ffc9a760e01b815263736bd41d60e11b60048201526001600160a01b038216906301ffc9a79060240160206040518083038186803b15801561098857600080fd5b505afa15801561099c573d6000803e3d6000fd5b505050506040513d601f19601f820116820180604052508101906109c091906110d8565b610a0c5760405162461bcd60e51b815260206004820181905260248201527f477561726420646f6573206e6f7420696d706c656d656e74204945524331363560448201526064016102d1565b606580546001600160a01b0319166001600160a01b0383169081179091556040519081527f1151116914515bc0891ff9047a6cb32cf902546f83066499bcf8ba33d2353fa29060200160405180910390a150565b6033546001600160a01b03163314610a8a5760405162461bcd60e51b81526004016102d1906112ec565b80606a541415610adc5760405162461bcd60e51b815260206004820152601b60248201527f636861696e496420616c72656164792073657420746f2074686973000000000060448201526064016102d1565b606a55565b6033546001600160a01b03163314610b0b5760405162461bcd60e51b81526004016102d1906112ec565b6001600160a01b038116610b705760405162461bcd60e51b815260206004820152602660248201527f4f776e61626c653a206e6577206f776e657220697320746865207a65726f206160448201526564647265737360d01b60648201526084016102d1565b610b7981610d2d565b50565b6065546000906001600160a01b031615610c1e576065546040805180820182526002815261060f60f31b60208201529051633af85da960e11b81526001600160a01b03909216916375f0bb5291610beb918991899189918991600091829182918291829190829060040161120f565b600060405180830381600087803b158015610c0557600080fd5b505af1158015610c19573d6000803e3d6000fd5b505050505b60675460405163468721a760e01b81526001600160a01b039091169063468721a790610c549088908890889088906004016111d0565b602060405180830381600087803b158015610c6e57600080fd5b505af1158015610c82573d6000803e3d6000fd5b505050506040513d601f19601f82011682018060405250810190610ca691906110d8565b6065549091506001600160a01b031615610d2557606554604051631264e26d60e31b815261060f60f31b600482015282151560248201526001600160a01b0390911690639327136890604401600060405180830381600087803b158015610d0c57600080fd5b505af1158015610d20573d6000803e3d6000fd5b505050505b949350505050565b603380546001600160a01b038381166001600160a01b0319831681179093556040519116919082907f8be0079c531659141344cd1fd0a4f28419497f9722a3daafe3b4186f6b6457e090600090a35050565b600054610100900460ff1680610d98575060005460ff16155b610db45760405162461bcd60e51b81526004016102d19061129e565b600054610100900460ff16158015610dd6576000805461ffff19166101011790555b610dde610dfa565b610de6610e64565b8015610b79576000805461ff001916905550565b600054610100900460ff1680610e13575060005460ff16155b610e2f5760405162461bcd60e51b81526004016102d19061129e565b600054610100900460ff16158015610de6576000805461ffff19166101011790558015610b79576000805461ff001916905550565b600054610100900460ff1680610e7d575060005460ff16155b610e995760405162461bcd60e51b81526004016102d19061129e565b600054610100900460ff16158015610ebb576000805461ffff19166101011790555b610de633610d2d565b600082601f830112610ed557600080fd5b813567ffffffffffffffff80821115610ef057610ef0611321565b604051601f8301601f19908116603f01168101908282118183101715610f1857610f18611321565b81604052838152866020858801011115610f3157600080fd5b836020870160208301376000602085830101528094505050505092915050565b600060208284031215610f6357600080fd5b8135610f6e81611337565b9392505050565b600060208284031215610f8757600080fd5b8151610f6e81611337565b60008060008060008060c08789031215610fab57600080fd5b8651610fb681611337565b6020880151909650610fc781611337565b6040880151909550610fd881611337565b6060880151909450610fe981611337565b6080880151909350610ffa81611337565b8092505060a087015190509295509295509295565b60008060006060848603121561102457600080fd5b833561102f81611337565b9250602084013567ffffffffffffffff81111561104b57600080fd5b61105786828701610ec4565b925050604084013590509250925092565b6000806000806080858703121561107e57600080fd5b843561108981611337565b935060208501359250604085013567ffffffffffffffff8111156110ac57600080fd5b6110b887828801610ec4565b9250506060850135600281106110cd57600080fd5b939692955090935050565b6000602082840312156110ea57600080fd5b81518015158114610f6e57600080fd5b60006020828403121561110c57600080fd5b5035919050565b60006020828403121561112557600080fd5b5051919050565b60006020828403121561113e57600080fd5b813567ffffffffffffffff81111561115557600080fd5b610d2584828501610ec4565b6000815180845260005b818110156111875760208185018101518683018201520161116b565b81811115611199576000602083870101525b50601f01601f19169290920160200192915050565b600281106111cc57634e487b7160e01b600052602160045260246000fd5b9052565b60018060a01b03851681528360208201526080604082015260006111f76080830185611161565b905061120660608301846111ae565b95945050505050565b6001600160a01b038c81168252602082018c90526101606040830181905260009161123c8483018e611161565b915061124b606085018d6111ae565b8a60808501528960a08501528860c085015280881660e08501528087166101008501528382036101208501526112818287611161565b925080851661014085015250509c9b505050505050505050505050565b6020808252602e908201527f496e697469616c697a61626c653a20636f6e747261637420697320616c72656160408201526d191e481a5b9a5d1a585b1a5e995960921b606082015260800190565b6020808252818101527f4f776e61626c653a2063616c6c6572206973206e6f7420746865206f776e6572604082015260600190565b634e487b7160e01b600052604160045260246000fd5b6001600160a01b0381168114610b7957600080fdfea26469706673582212209b4d4a7a99edbf090a39cb55b83ba7dd5f5a41e8608621e32a05c2093d3a432e64736f6c63430008060033496e697469616c697a61626c653a20636f6e747261637420697320616c726561",
  "linkReferences": {},
  "deployedLinkReferences": {}
}