{
  "_format": "hh-sol-artifact-1",
  "contractName": "MultiArtToken",
  "sourceName": "contracts/MultiArtToken.sol",
  "abi": [
    {
      "inputs": [
        {
          "internalType": "string",
          "name": "_name",
          "type": "string"
        },
        {
          "internalType": "string",
          "name": "_symbol",
          "type": "string"
        }
      ],
      "stateMutability": "nonpayable",
      "type": "constructor"
    },
    {
      "anonymous": false,
      "inputs": [
        {
          "indexed": true,
          "internalType": "address",
          "name": "owner",
          "type": "address"
        },
        {
          "indexed": true,
          "internalType": "address",
          "name": "approved",
          "type": "address"
        },
        {
          "indexed": true,
          "internalType": "uint256",
          "name": "tokenId",
          "type": "uint256"
        }
      ],
      "name": "Approval",
      "type": "event"
    },
    {
      "anonymous": false,
      "inputs": [
        {
          "indexed": true,
          "internalType": "address",
          "name": "owner",
          "type": "address"
        },
        {
          "indexed": true,
          "internalType": "address",
          "name": "operator",
          "type": "address"
        },
        {
          "indexed": false,
          "internalType": "bool",
          "name": "approved",
          "type": "bool"
        }
      ],
      "name": "ApprovalForAll",
      "type": "event"
    },
    {
      "anonymous": false,
      "inputs": [
        {
          "indexed": true,
          "internalType": "address",
          "name": "from",
          "type": "address"
        },
        {
          "indexed": true,
          "internalType": "uint256",
          "name": "tokenId",
          "type": "uint256"
        }
      ],
      "name": "Signed",
      "type": "event"
    },
    {
      "anonymous": false,
      "inputs": [
        {
          "indexed": true,
          "internalType": "address",
          "name": "from",
          "type": "address"
        },
        {
          "indexed": true,
          "internalType": "address",
          "name": "to",
          "type": "address"
        },
        {
          "indexed": true,
          "internalType": "uint256",
          "name": "tokenId",
          "type": "uint256"
        }
      ],
      "name": "Transfer",
      "type": "event"
    },
    {
      "inputs": [],
      "name": "DOMAIN_SEPARATOR",
      "outputs": [
        {
          "internalType": "bytes32",
          "name": "",
          "type": "bytes32"
        }
      ],
      "stateMutability": "view",
      "type": "function"
    },
    {
      "inputs": [
        {
          "internalType": "address",
          "name": "to",
          "type": "address"
        },
        {
          "internalType": "uint256",
          "name": "tokenId",
          "type": "uint256"
        }
      ],
      "name": "approve",
      "outputs": [],
      "stateMutability": "nonpayable",
      "type": "function"
    },
    {
      "inputs": [],
      "name": "artist",
      "outputs": [
        {
          "internalType": "address",
          "name": "",
          "type": "address"
        }
      ],
      "stateMutability": "view",
      "type": "function"
    },
    {
      "inputs": [
        {
          "internalType": "address",
          "name": "owner",
          "type": "address"
        }
      ],
      "name": "balanceOf",
      "outputs": [
        {
          "internalType": "uint256",
          "name": "",
          "type": "uint256"
        }
      ],
      "stateMutability": "view",
      "type": "function"
    },
    {
      "inputs": [
        {
          "internalType": "uint256",
          "name": "tokenId",
          "type": "uint256"
        }
      ],
      "name": "getApproved",
      "outputs": [
        {
          "internalType": "address",
          "name": "",
          "type": "address"
        }
      ],
      "stateMutability": "view",
      "type": "function"
    },
    {
      "inputs": [
        {
          "internalType": "uint256",
          "name": "_tokenId",
          "type": "uint256"
        }
      ],
      "name": "getSignature",
      "outputs": [
        {
          "internalType": "bytes",
          "name": "",
          "type": "bytes"
        }
      ],
      "stateMutability": "view",
      "type": "function"
    },
    {
      "inputs": [
        {
          "internalType": "address",
          "name": "owner",
          "type": "address"
        },
        {
          "internalType": "address",
          "name": "operator",
          "type": "address"
        }
      ],
      "name": "isApprovedForAll",
      "outputs": [
        {
          "internalType": "bool",
          "name": "",
          "type": "bool"
        }
      ],
      "stateMutability": "view",
      "type": "function"
    },
    {
      "inputs": [
        {
          "components": [
            {
              "internalType": "address",
              "name": "verificationAddress",
              "type": "address"
            },
            {
              "internalType": "string",
              "name": "artist",
              "type": "string"
            },
            {
              "internalType": "address",
              "name": "wallet",
              "type": "address"
            },
            {
              "internalType": "string",
              "name": "contents",
              "type": "string"
            }
          ],
          "internalType": "struct EditionsExtension.Signature",
          "name": "_message",
          "type": "tuple"
        },
        {
          "internalType": "bytes",
          "name": "_signature",
          "type": "bytes"
        },
        {
          "internalType": "uint256",
          "name": "_tokenId",
          "type": "uint256"
        }
      ],
      "name": "isSigned",
      "outputs": [
        {
          "internalType": "bool",
          "name": "",
          "type": "bool"
        }
      ],
      "stateMutability": "view",
      "type": "function"
    },
    {
      "inputs": [
        {
          "internalType": "string",
          "name": "_tokenURI",
          "type": "string"
        },
        {
          "internalType": "uint256",
          "name": "_editionNumbers",
          "type": "uint256"
        }
      ],
      "name": "mintEdition",
      "outputs": [],
      "stateMutability": "nonpayable",
      "type": "function"
    },
    {
      "inputs": [],
      "name": "name",
      "outputs": [
        {
          "internalType": "string",
          "name": "",
          "type": "string"
        }
      ],
      "stateMutability": "view",
      "type": "function"
    },
    {
      "inputs": [
        {
          "internalType": "uint256",
          "name": "tokenId",
          "type": "uint256"
        }
      ],
      "name": "ownerOf",
      "outputs": [
        {
          "internalType": "address",
          "name": "",
          "type": "address"
        }
      ],
      "stateMutability": "view",
      "type": "function"
    },
    {
      "inputs": [
        {
          "internalType": "address",
          "name": "from",
          "type": "address"
        },
        {
          "internalType": "address",
          "name": "to",
          "type": "address"
        },
        {
          "internalType": "uint256",
          "name": "tokenId",
          "type": "uint256"
        }
      ],
      "name": "safeTransferFrom",
      "outputs": [],
      "stateMutability": "nonpayable",
      "type": "function"
    },
    {
      "inputs": [
        {
          "internalType": "address",
          "name": "from",
          "type": "address"
        },
        {
          "internalType": "address",
          "name": "to",
          "type": "address"
        },
        {
          "internalType": "uint256",
          "name": "tokenId",
          "type": "uint256"
        },
        {
          "internalType": "bytes",
          "name": "_data",
          "type": "bytes"
        }
      ],
      "name": "safeTransferFrom",
      "outputs": [],
      "stateMutability": "nonpayable",
      "type": "function"
    },
    {
      "inputs": [
        {
          "internalType": "address",
          "name": "operator",
          "type": "address"
        },
        {
          "internalType": "bool",
          "name": "approved",
          "type": "bool"
        }
      ],
      "name": "setApprovalForAll",
      "outputs": [],
      "stateMutability": "nonpayable",
      "type": "function"
    },
    {
      "inputs": [
        {
          "internalType": "uint256",
          "name": "tokenId",
          "type": "uint256"
        },
        {
          "components": [
            {
              "internalType": "address",
              "name": "verificationAddress",
              "type": "address"
            },
            {
              "internalType": "string",
              "name": "artist",
              "type": "string"
            },
            {
              "internalType": "address",
              "name": "wallet",
              "type": "address"
            },
            {
              "internalType": "string",
              "name": "contents",
              "type": "string"
            }
          ],
          "internalType": "struct EditionsExtension.Signature",
          "name": "message",
          "type": "tuple"
        },
        {
          "internalType": "bytes",
          "name": "signature",
          "type": "bytes"
        }
      ],
      "name": "sign",
      "outputs": [],
      "stateMutability": "nonpayable",
      "type": "function"
    },
    {
      "inputs": [
        {
          "internalType": "bytes4",
          "name": "interfaceId",
          "type": "bytes4"
        }
      ],
      "name": "supportsInterface",
      "outputs": [
        {
          "internalType": "bool",
          "name": "",
          "type": "bool"
        }
      ],
      "stateMutability": "view",
      "type": "function"
    },
    {
      "inputs": [],
      "name": "symbol",
      "outputs": [
        {
          "internalType": "string",
          "name": "",
          "type": "string"
        }
      ],
      "stateMutability": "view",
      "type": "function"
    },
    {
      "inputs": [
        {
          "internalType": "uint256",
          "name": "tokenId",
          "type": "uint256"
        }
      ],
      "name": "tokenURI",
      "outputs": [
        {
          "internalType": "string",
          "name": "",
          "type": "string"
        }
      ],
      "stateMutability": "view",
      "type": "function"
    },
    {
      "inputs": [],
      "name": "topId",
      "outputs": [
        {
          "internalType": "uint256",
          "name": "",
          "type": "uint256"
        }
      ],
      "stateMutability": "view",
      "type": "function"
    },
    {
      "inputs": [
        {
          "internalType": "address",
          "name": "from",
          "type": "address"
        },
        {
          "internalType": "address",
          "name": "to",
          "type": "address"
        },
        {
          "internalType": "uint256",
          "name": "tokenId",
          "type": "uint256"
        }
      ],
      "name": "transferFrom",
      "outputs": [],
      "stateMutability": "nonpayable",
      "type": "function"
    }
  ],
  "bytecode": "0x608060405260016009553480156200001657600080fd5b50604051620042b0380380620042b083398181016040528101906200003c919062000355565b818181600090805190602001906200005692919062000233565b5080600190805190602001906200006f92919062000233565b50505062000083336200015b60201b60201c565b7f8b73c3c69bb8fe3d512ecc4cf759cc79239f7b179b0ffacaa9a75d522b39400f6040518060400160405280600f81526020017f417274697374277320446f6d61696e0000000000000000000000000000000000815250805190602001206040518060400160405280600181526020017f3100000000000000000000000000000000000000000000000000000000000000815250805190602001206001306040516020016200013795949392919062000463565b60405160208183030381529060405280519060200120600781905550505062000683565b600073ffffffffffffffffffffffffffffffffffffffff16600a60009054906101000a900473ffffffffffffffffffffffffffffffffffffffff1673ffffffffffffffffffffffffffffffffffffffff1614620001ef576040517f08c379a0000000000000000000000000000000000000000000000000000000008152600401620001e690620004c0565b60405180910390fd5b80600a60006101000a81548173ffffffffffffffffffffffffffffffffffffffff021916908373ffffffffffffffffffffffffffffffffffffffff16021790555050565b8280546200024190620005ef565b90600052602060002090601f016020900481019282620002655760008555620002b1565b82601f106200028057805160ff1916838001178555620002b1565b82800160010185558215620002b1579182015b82811115620002b057825182559160200191906001019062000293565b5b509050620002c09190620002c4565b5090565b5b80821115620002df576000816000905550600101620002c5565b5090565b6000620002fa620002f48462000516565b620004e2565b9050828152602081018484840111156200031357600080fd5b62000320848285620005b9565b509392505050565b600082601f8301126200033a57600080fd5b81516200034c848260208601620002e3565b91505092915050565b600080604083850312156200036957600080fd5b600083015167ffffffffffffffff8111156200038457600080fd5b620003928582860162000328565b925050602083015167ffffffffffffffff811115620003b057600080fd5b620003be8582860162000328565b9150509250929050565b620003d3816200055a565b82525050565b620003e4816200056e565b82525050565b620003f581620005a5565b82525050565b60006200040a60318362000549565b91507f455243373231457874656e73696f6e733a20746865206172746973742068617360008301527f20616c7265616479206265656e207365740000000000000000000000000000006020830152604082019050919050565b600060a0820190506200047a6000830188620003d9565b620004896020830187620003d9565b620004986040830186620003d9565b620004a76060830185620003ea565b620004b66080830184620003c8565b9695505050505050565b60006020820190508181036000830152620004db81620003fb565b9050919050565b6000604051905081810181811067ffffffffffffffff821117156200050c576200050b62000654565b5b8060405250919050565b600067ffffffffffffffff82111562000534576200053362000654565b5b601f19601f8301169050602081019050919050565b600082825260208201905092915050565b6000620005678262000578565b9050919050565b6000819050919050565b600073ffffffffffffffffffffffffffffffffffffffff82169050919050565b600060ff82169050919050565b6000620005b28262000598565b9050919050565b60005b83811015620005d9578082015181840152602081019050620005bc565b83811115620005e9576000848401525b50505050565b600060028204905060018216806200060857607f821691505b602082108114156200061f576200061e62000625565b5b50919050565b7f4e487b7100000000000000000000000000000000000000000000000000000000600052602260045260246000fd5b7f4e487b7100000000000000000000000000000000000000000000000000000000600052604160045260246000fd5b613c1d80620006936000396000f3fe608060405234801561001057600080fd5b506004361061012c5760003560e01c806343bc1612116100ad578063a22cb46511610071578063a22cb46514610343578063b88d4fde1461035f578063c87b56dd1461037b578063ddb29c70146103ab578063e985e9c5146103db5761012c565b806343bc16121461028b5780636352211e146102a9578063686b209e146102d957806370a08231146102f557806395d89b41146103255761012c565b806323b872dd116100f457806323b872dd146101fb5780633242d76314610217578063331f5f8c146102335780633644e5151461025157806342842e0e1461026f5761012c565b806301ffc9a71461013157806302a569e61461016157806306fdde0314610191578063081812fc146101af578063095ea7b3146101df575b600080fd5b61014b600480360381019061014691906125d6565b61040b565b6040516101589190613351565b60405180910390f35b61017b600480360381019061017691906126fb565b6104ed565b604051610188919061342d565b60405180910390f35b6101996105f5565b6040516101a6919061344f565b60405180910390f35b6101c960048036038101906101c491906126fb565b610687565b6040516101d691906132ea565b60405180910390f35b6101f960048036038101906101f4919061259a565b61070c565b005b61021560048036038101906102109190612494565b610824565b005b610231600480360381019061022c9190612724565b610884565b005b61023b610894565b6040516102489190613791565b60405180910390f35b61025961089a565b604051610266919061336c565b60405180910390f35b61028960048036038101906102849190612494565b6108a0565b005b6102936108c0565b6040516102a091906132ea565b60405180910390f35b6102c360048036038101906102be91906126fb565b6108e6565b6040516102d091906132ea565b60405180910390f35b6102f360048036038101906102ee9190612628565b610998565b005b61030f600480360381019061030a919061242f565b6109a6565b60405161031c9190613791565b60405180910390f35b61032d610a5e565b60405161033a919061344f565b60405180910390f35b61035d6004803603810190610358919061255e565b610af0565b005b610379600480360381019061037491906124e3565b610c71565b005b610395600480360381019061039091906126fb565b610cd3565b6040516103a2919061344f565b60405180910390f35b6103c560048036038101906103c0919061267c565b610e25565b6040516103d29190613351565b60405180910390f35b6103f560048036038101906103f09190612458565b610f4a565b6040516104029190613351565b60405180910390f35b60007f80ac58cd000000000000000000000000000000000000000000000000000000007bffffffffffffffffffffffffffffffffffffffffffffffffffffffff1916827bffffffffffffffffffffffffffffffffffffffffffffffffffffffff191614806104d657507f5b5e139f000000000000000000000000000000000000000000000000000000007bffffffffffffffffffffffffffffffffffffffffffffffffffffffff1916827bffffffffffffffffffffffffffffffffffffffffffffffffffffffff1916145b806104e657506104e582610fde565b5b9050919050565b6060600060086000848152602001908152602001600020805461050f90613a08565b90501415610552576040517f08c379a0000000000000000000000000000000000000000000000000000000008152600401610549906136d1565b60405180910390fd5b60086000838152602001908152602001600020805461057090613a08565b80601f016020809104026020016040519081016040528092919081815260200182805461059c90613a08565b80156105e95780601f106105be576101008083540402835291602001916105e9565b820191906000526020600020905b8154815290600101906020018083116105cc57829003601f168201915b50505050509050919050565b60606000805461060490613a08565b80601f016020809104026020016040519081016040528092919081815260200182805461063090613a08565b801561067d5780601f106106525761010080835404028352916020019161067d565b820191906000526020600020905b81548152906001019060200180831161066057829003601f168201915b5050505050905090565b600061069282611048565b6106d1576040517f08c379a00000000000000000000000000000000000000000000000000000000081526004016106c8906136b1565b60405180910390fd5b6004600083815260200190815260200160002060009054906101000a900473ffffffffffffffffffffffffffffffffffffffff169050919050565b6000610717826108e6565b90508073ffffffffffffffffffffffffffffffffffffffff168373ffffffffffffffffffffffffffffffffffffffff161415610788576040517f08c379a000000000000000000000000000000000000000000000000000000000815260040161077f90613731565b60405180910390fd5b8073ffffffffffffffffffffffffffffffffffffffff166107a76110b4565b73ffffffffffffffffffffffffffffffffffffffff1614806107d657506107d5816107d06110b4565b610f4a565b5b610815576040517f08c379a000000000000000000000000000000000000000000000000000000000815260040161080c906135b1565b60405180910390fd5b61081f83836110bc565b505050565b61083561082f6110b4565b82611175565b610874576040517f08c379a000000000000000000000000000000000000000000000000000000000815260040161086b90613751565b60405180910390fd5b61087f838383611253565b505050565b61088f8383836114af565b505050565b60095481565b60075481565b6108bb83838360405180602001604052806000815250610c71565b505050565b600a60009054906101000a900473ffffffffffffffffffffffffffffffffffffffff1681565b6000806002600084815260200190815260200160002060009054906101000a900473ffffffffffffffffffffffffffffffffffffffff169050600073ffffffffffffffffffffffffffffffffffffffff168173ffffffffffffffffffffffffffffffffffffffff16141561098f576040517f08c379a0000000000000000000000000000000000000000000000000000000008152600401610986906135f1565b60405180910390fd5b80915050919050565b6109a282826116e1565b5050565b60008073ffffffffffffffffffffffffffffffffffffffff168273ffffffffffffffffffffffffffffffffffffffff161415610a17576040517f08c379a0000000000000000000000000000000000000000000000000000000008152600401610a0e906135d1565b60405180910390fd5b600360008373ffffffffffffffffffffffffffffffffffffffff1673ffffffffffffffffffffffffffffffffffffffff168152602001908152602001600020549050919050565b606060018054610a6d90613a08565b80601f0160208091040260200160405190810160405280929190818152602001828054610a9990613a08565b8015610ae65780601f10610abb57610100808354040283529160200191610ae6565b820191906000526020600020905b815481529060010190602001808311610ac957829003601f168201915b5050505050905090565b610af86110b4565b73ffffffffffffffffffffffffffffffffffffffff168273ffffffffffffffffffffffffffffffffffffffff161415610b66576040517f08c379a0000000000000000000000000000000000000000000000000000000008152600401610b5d90613551565b60405180910390fd5b8060056000610b736110b4565b73ffffffffffffffffffffffffffffffffffffffff1673ffffffffffffffffffffffffffffffffffffffff16815260200190815260200160002060008473ffffffffffffffffffffffffffffffffffffffff1673ffffffffffffffffffffffffffffffffffffffff16815260200190815260200160002060006101000a81548160ff0219169083151502179055508173ffffffffffffffffffffffffffffffffffffffff16610c206110b4565b73ffffffffffffffffffffffffffffffffffffffff167f17307eab39ab6107e8899845ad3d59bd9653f200f220920489ca2b5937696c3183604051610c659190613351565b60405180910390a35050565b610c82610c7c6110b4565b83611175565b610cc1576040517f08c379a0000000000000000000000000000000000000000000000000000000008152600401610cb890613751565b60405180910390fd5b610ccd848484846117a2565b50505050565b6060610cde82611048565b610d1d576040517f08c379a0000000000000000000000000000000000000000000000000000000008152600401610d1490613691565b60405180910390fd5b6000600660008481526020019081526020016000208054610d3d90613a08565b80601f0160208091040260200160405190810160405280929190818152602001828054610d6990613a08565b8015610db65780601f10610d8b57610100808354040283529160200191610db6565b820191906000526020600020905b815481529060010190602001808311610d9957829003601f168201915b505050505090506000610dc76117fe565b9050600081511415610ddd578192505050610e20565b600082511115610e12578082604051602001610dfa929190613260565b60405160208183030381529060405292505050610e20565b610e1b84611815565b925050505b919050565b600080610e31856118bc565b90506000610e3f828661194a565b9050600a60009054906101000a900473ffffffffffffffffffffffffffffffffffffffff1673ffffffffffffffffffffffffffffffffffffffff168173ffffffffffffffffffffffffffffffffffffffff16148015610f3f5750610f3e600860008681526020019081526020016000208054610eba90613a08565b80601f0160208091040260200160405190810160405280929190818152602001828054610ee690613a08565b8015610f335780601f10610f0857610100808354040283529160200191610f33565b820191906000526020600020905b815481529060010190602001808311610f1657829003601f168201915b5050505050866119c4565b5b925050509392505050565b6000600560008473ffffffffffffffffffffffffffffffffffffffff1673ffffffffffffffffffffffffffffffffffffffff16815260200190815260200160002060008373ffffffffffffffffffffffffffffffffffffffff1673ffffffffffffffffffffffffffffffffffffffff16815260200190815260200160002060009054906101000a900460ff16905092915050565b60007f01ffc9a7000000000000000000000000000000000000000000000000000000007bffffffffffffffffffffffffffffffffffffffffffffffffffffffff1916827bffffffffffffffffffffffffffffffffffffffffffffffffffffffff1916149050919050565b60008073ffffffffffffffffffffffffffffffffffffffff166002600084815260200190815260200160002060009054906101000a900473ffffffffffffffffffffffffffffffffffffffff1673ffffffffffffffffffffffffffffffffffffffff1614159050919050565b600033905090565b816004600083815260200190815260200160002060006101000a81548173ffffffffffffffffffffffffffffffffffffffff021916908373ffffffffffffffffffffffffffffffffffffffff160217905550808273ffffffffffffffffffffffffffffffffffffffff1661112f836108e6565b73ffffffffffffffffffffffffffffffffffffffff167f8c5be1e5ebec7d5bd14f71427d1e84f3dd0314c0f7b2291e5b200ac8c7c3b92560405160405180910390a45050565b600061118082611048565b6111bf576040517f08c379a00000000000000000000000000000000000000000000000000000000081526004016111b690613591565b60405180910390fd5b60006111ca836108e6565b90508073ffffffffffffffffffffffffffffffffffffffff168473ffffffffffffffffffffffffffffffffffffffff16148061123957508373ffffffffffffffffffffffffffffffffffffffff1661122184610687565b73ffffffffffffffffffffffffffffffffffffffff16145b8061124a57506112498185610f4a565b5b91505092915050565b8273ffffffffffffffffffffffffffffffffffffffff16611273826108e6565b73ffffffffffffffffffffffffffffffffffffffff16146112c9576040517f08c379a00000000000000000000000000000000000000000000000000000000081526004016112c0906136f1565b60405180910390fd5b600073ffffffffffffffffffffffffffffffffffffffff168273ffffffffffffffffffffffffffffffffffffffff161415611339576040517f08c379a000000000000000000000000000000000000000000000000000000000815260040161133090613531565b60405180910390fd5b611344838383611a00565b61134f6000826110bc565b6001600360008573ffffffffffffffffffffffffffffffffffffffff1673ffffffffffffffffffffffffffffffffffffffff168152602001908152602001600020600082825461139f9190613907565b925050819055506001600360008473ffffffffffffffffffffffffffffffffffffffff1673ffffffffffffffffffffffffffffffffffffffff16815260200190815260200160002060008282546113f69190613880565b92505081905550816002600083815260200190815260200160002060006101000a81548173ffffffffffffffffffffffffffffffffffffffff021916908373ffffffffffffffffffffffffffffffffffffffff160217905550808273ffffffffffffffffffffffffffffffffffffffff168473ffffffffffffffffffffffffffffffffffffffff167fddf252ad1be2c89b69c2b068fc378daa952ba7f163c4a11628f55a4df523b3ef60405160405180910390a4505050565b600a60009054906101000a900473ffffffffffffffffffffffffffffffffffffffff1673ffffffffffffffffffffffffffffffffffffffff163373ffffffffffffffffffffffffffffffffffffffff161461153f576040517f08c379a000000000000000000000000000000000000000000000000000000000815260040161153690613671565b60405180910390fd5b600060086000858152602001908152602001600020805461155f90613a08565b9050146115a1576040517f08c379a0000000000000000000000000000000000000000000000000000000008152600401611598906134f1565b60405180910390fd5b60006115ac836118bc565b905060006115ba828461194a565b9050600a60009054906101000a900473ffffffffffffffffffffffffffffffffffffffff1673ffffffffffffffffffffffffffffffffffffffff168173ffffffffffffffffffffffffffffffffffffffff161461164c576040517f08c379a000000000000000000000000000000000000000000000000000000000815260040161164390613491565b60405180910390fd5b82600860008781526020019081526020016000209080519060200190611673929190612129565b5084600a60009054906101000a900473ffffffffffffffffffffffffffffffffffffffff1673ffffffffffffffffffffffffffffffffffffffff167ff4b7ab5b8fc49d6d35d323cae6a96e1441b461f862dfc5aff92e806e2839b5b060405160405180910390a35050505050565b60008111611724576040517f08c379a000000000000000000000000000000000000000000000000000000000815260040161171b90613771565b60405180910390fd5b60005b8181101561179d5761173b33600954611a05565b6117726009548461174d600954611bd3565b60405160200161175e929190613284565b604051602081830303815290604052611d80565b6009600081548092919061178590613a3a565b9190505550808061179590613a3a565b915050611727565b505050565b6117ad848484611253565b6117b984848484611df4565b6117f8576040517f08c379a00000000000000000000000000000000000000000000000000000000081526004016117ef906134d1565b60405180910390fd5b50505050565b606060405180602001604052806000815250905090565b606061182082611048565b61185f576040517f08c379a000000000000000000000000000000000000000000000000000000000815260040161185690613711565b60405180910390fd5b60006118696117fe565b9050600081511161188957604051806020016040528060008152506118b4565b8061189384611bd3565b6040516020016118a4929190613260565b6040516020818303038152906040525b915050919050565b60006007547f1e42c447b01f5573e84d49a0ca5625af0baaf3c2e093f2bd448e06d657f3582e30846020015185604001518660600151604051602001611906959493929190613387565b6040516020818303038152906040528051906020012060405160200161192d9291906132b3565b604051602081830303815290604052805190602001209050919050565b60006041825114611990576040517f08c379a0000000000000000000000000000000000000000000000000000000008152600401611987906134b1565b60405180910390fd5b60008060006020850151925060408501519150606085015160001a90506119b986828585611f8b565b935050505092915050565b600081518351146119d857600090506119fa565b6000806000855190506020860192506020850191508082208184201493505050505b92915050565b505050565b600073ffffffffffffffffffffffffffffffffffffffff168273ffffffffffffffffffffffffffffffffffffffff161415611a75576040517f08c379a0000000000000000000000000000000000000000000000000000000008152600401611a6c90613651565b60405180910390fd5b611a7e81611048565b15611abe576040517f08c379a0000000000000000000000000000000000000000000000000000000008152600401611ab590613511565b60405180910390fd5b611aca60008383611a00565b6001600360008473ffffffffffffffffffffffffffffffffffffffff1673ffffffffffffffffffffffffffffffffffffffff1681526020019081526020016000206000828254611b1a9190613880565b92505081905550816002600083815260200190815260200160002060006101000a81548173ffffffffffffffffffffffffffffffffffffffff021916908373ffffffffffffffffffffffffffffffffffffffff160217905550808273ffffffffffffffffffffffffffffffffffffffff16600073ffffffffffffffffffffffffffffffffffffffff167fddf252ad1be2c89b69c2b068fc378daa952ba7f163c4a11628f55a4df523b3ef60405160405180910390a45050565b60606000821415611c1b576040518060400160405280600181526020017f30000000000000000000000000000000000000000000000000000000000000008152509050611d7b565b600082905060005b60008214611c4d578080611c3690613a3a565b915050600a82611c4691906138d6565b9150611c23565b60008167ffffffffffffffff811115611c8f577f4e487b7100000000000000000000000000000000000000000000000000000000600052604160045260246000fd5b6040519080825280601f01601f191660200182016040528015611cc15781602001600182028036833780820191505090505b5090505b60008514611d7457600182611cda9190613907565b9150600a85611ce99190613a8d565b6030611cf59190613880565b60f81b818381518110611d31577f4e487b7100000000000000000000000000000000000000000000000000000000600052603260045260246000fd5b60200101907effffffffffffffffffffffffffffffffffffffffffffffffffffffffffffff1916908160001a905350600a85611d6d91906138d6565b9450611cc5565b8093505050505b919050565b611d8982611048565b611dc8576040517f08c379a0000000000000000000000000000000000000000000000000000000008152600401611dbf90613611565b60405180910390fd5b80600660008481526020019081526020016000209080519060200190611def9291906121af565b505050565b6000611e158473ffffffffffffffffffffffffffffffffffffffff16612116565b15611f7e578373ffffffffffffffffffffffffffffffffffffffff1663150b7a02611e3e6110b4565b8786866040518563ffffffff1660e01b8152600401611e609493929190613305565b602060405180830381600087803b158015611e7a57600080fd5b505af1925050508015611eab57506040513d601f19601f82011682018060405250810190611ea891906125ff565b60015b611f2e573d8060008114611edb576040519150601f19603f3d011682016040523d82523d6000602084013e611ee0565b606091505b50600081511415611f26576040517f08c379a0000000000000000000000000000000000000000000000000000000008152600401611f1d906134d1565b60405180910390fd5b805181602001fd5b63150b7a0260e01b7bffffffffffffffffffffffffffffffffffffffffffffffffffffffff1916817bffffffffffffffffffffffffffffffffffffffffffffffffffffffff191614915050611f83565b600190505b949350505050565b60007f7fffffffffffffffffffffffffffffff5d576e7357a4501ddfe92f46681b20a08260001c1115611ff3576040517f08c379a0000000000000000000000000000000000000000000000000000000008152600401611fea90613571565b60405180910390fd5b601b8460ff1614806120085750601c8460ff16145b612047576040517f08c379a000000000000000000000000000000000000000000000000000000000815260040161203e90613631565b60405180910390fd5b60006001868686866040516000815260200160405260405161206c94939291906133e8565b6020604051602081039080840390855afa15801561208e573d6000803e3d6000fd5b505050602060405103519050600073ffffffffffffffffffffffffffffffffffffffff168173ffffffffffffffffffffffffffffffffffffffff16141561210a576040517f08c379a000000000000000000000000000000000000000000000000000000000815260040161210190613471565b60405180910390fd5b80915050949350505050565b600080823b905060008111915050919050565b82805461213590613a08565b90600052602060002090601f016020900481019282612157576000855561219e565b82601f1061217057805160ff191683800117855561219e565b8280016001018555821561219e579182015b8281111561219d578251825591602001919060010190612182565b5b5090506121ab9190612235565b5090565b8280546121bb90613a08565b90600052602060002090601f0160209004810192826121dd5760008555612224565b82601f106121f657805160ff1916838001178555612224565b82800160010185558215612224579182015b82811115612223578251825591602001919060010190612208565b5b5090506122319190612235565b5090565b5b8082111561224e576000816000905550600101612236565b5090565b6000612265612260846137dd565b6137ac565b90508281526020810184848401111561227d57600080fd5b6122888482856139c6565b509392505050565b60006122a361229e8461380d565b6137ac565b9050828152602081018484840111156122bb57600080fd5b6122c68482856139c6565b509392505050565b6000813590506122dd81613b8b565b92915050565b6000813590506122f281613ba2565b92915050565b60008135905061230781613bb9565b92915050565b60008151905061231c81613bb9565b92915050565b600082601f83011261233357600080fd5b8135612343848260208601612252565b91505092915050565b600082601f83011261235d57600080fd5b813561236d848260208601612290565b91505092915050565b60006080828403121561238857600080fd5b61239260806137ac565b905060006123a2848285016122ce565b600083015250602082013567ffffffffffffffff8111156123c257600080fd5b6123ce8482850161234c565b60208301525060406123e2848285016122ce565b604083015250606082013567ffffffffffffffff81111561240257600080fd5b61240e8482850161234c565b60608301525092915050565b60008135905061242981613bd0565b92915050565b60006020828403121561244157600080fd5b600061244f848285016122ce565b91505092915050565b6000806040838503121561246b57600080fd5b6000612479858286016122ce565b925050602061248a858286016122ce565b9150509250929050565b6000806000606084860312156124a957600080fd5b60006124b7868287016122ce565b93505060206124c8868287016122ce565b92505060406124d98682870161241a565b9150509250925092565b600080600080608085870312156124f957600080fd5b6000612507878288016122ce565b9450506020612518878288016122ce565b93505060406125298782880161241a565b925050606085013567ffffffffffffffff81111561254657600080fd5b61255287828801612322565b91505092959194509250565b6000806040838503121561257157600080fd5b600061257f858286016122ce565b9250506020612590858286016122e3565b9150509250929050565b600080604083850312156125ad57600080fd5b60006125bb858286016122ce565b92505060206125cc8582860161241a565b9150509250929050565b6000602082840312156125e857600080fd5b60006125f6848285016122f8565b91505092915050565b60006020828403121561261157600080fd5b600061261f8482850161230d565b91505092915050565b6000806040838503121561263b57600080fd5b600083013567ffffffffffffffff81111561265557600080fd5b6126618582860161234c565b92505060206126728582860161241a565b9150509250929050565b60008060006060848603121561269157600080fd5b600084013567ffffffffffffffff8111156126ab57600080fd5b6126b786828701612376565b935050602084013567ffffffffffffffff8111156126d457600080fd5b6126e086828701612322565b92505060406126f18682870161241a565b9150509250925092565b60006020828403121561270d57600080fd5b600061271b8482850161241a565b91505092915050565b60008060006060848603121561273957600080fd5b60006127478682870161241a565b935050602084013567ffffffffffffffff81111561276457600080fd5b61277086828701612376565b925050604084013567ffffffffffffffff81111561278d57600080fd5b61279986828701612322565b9150509250925092565b6127ac8161393b565b82525050565b6127bb8161394d565b82525050565b6127ca81613959565b82525050565b6127e16127dc82613959565b613a83565b82525050565b60006127f28261383d565b6127fc8185613853565b935061280c8185602086016139d5565b61281581613b7a565b840191505092915050565b600061282b82613848565b6128358185613864565b93506128458185602086016139d5565b61284e81613b7a565b840191505092915050565b600061286482613848565b61286e8185613875565b935061287e8185602086016139d5565b80840191505092915050565b6000612897601883613864565b91507f45434453413a20696e76616c6964207369676e617475726500000000000000006000830152602082019050919050565b60006128d7602b83613864565b91507f455243373231457874656e73696f6e733a20617274697374207369676e61747560008301527f7265206d69736d617463680000000000000000000000000000000000000000006020830152604082019050919050565b600061293d601f83613864565b91507f45434453413a20696e76616c6964207369676e6174757265206c656e677468006000830152602082019050919050565b600061297d603283613864565b91507f4552433732313a207472616e7366657220746f206e6f6e20455243373231526560008301527f63656976657220696d706c656d656e74657200000000000000000000000000006020830152604082019050919050565b60006129e3602e83613864565b91507f455243373231457874656e73696f6e733a207468697320746f6b656e2069732060008301527f616c7265616479207369676e65640000000000000000000000000000000000006020830152604082019050919050565b6000612a49601c83613864565b91507f4552433732313a20746f6b656e20616c7265616479206d696e746564000000006000830152602082019050919050565b6000612a89600283613875565b91507f19010000000000000000000000000000000000000000000000000000000000006000830152600282019050919050565b6000612ac9602483613864565b91507f4552433732313a207472616e7366657220746f20746865207a65726f2061646460008301527f72657373000000000000000000000000000000000000000000000000000000006020830152604082019050919050565b6000612b2f601983613864565b91507f4552433732313a20617070726f766520746f2063616c6c6572000000000000006000830152602082019050919050565b6000612b6f602283613864565b91507f45434453413a20696e76616c6964207369676e6174757265202773272076616c60008301527f75650000000000000000000000000000000000000000000000000000000000006020830152604082019050919050565b6000612bd5602c83613864565b91507f4552433732313a206f70657261746f7220717565727920666f72206e6f6e657860008301527f697374656e7420746f6b656e00000000000000000000000000000000000000006020830152604082019050919050565b6000612c3b603883613864565b91507f4552433732313a20617070726f76652063616c6c6572206973206e6f74206f7760008301527f6e6572206e6f7220617070726f76656420666f7220616c6c00000000000000006020830152604082019050919050565b6000612ca1602a83613864565b91507f4552433732313a2062616c616e636520717565727920666f7220746865207a6560008301527f726f2061646472657373000000000000000000000000000000000000000000006020830152604082019050919050565b6000612d07602983613864565b91507f4552433732313a206f776e657220717565727920666f72206e6f6e657869737460008301527f656e7420746f6b656e00000000000000000000000000000000000000000000006020830152604082019050919050565b6000612d6d602e83613864565b91507f45524337323155524953746f726167653a2055524920736574206f66206e6f6e60008301527f6578697374656e7420746f6b656e0000000000000000000000000000000000006020830152604082019050919050565b6000612dd3602283613864565b91507f45434453413a20696e76616c6964207369676e6174757265202776272076616c60008301527f75650000000000000000000000000000000000000000000000000000000000006020830152604082019050919050565b6000612e39602083613864565b91507f4552433732313a206d696e7420746f20746865207a65726f20616464726573736000830152602082019050919050565b6000612e79603583613864565b91507f455243373231457874656e73696f6e733a206f6e6c792074686520617274697360008301527f74206d6179207369676e20746865697220776f726b00000000000000000000006020830152604082019050919050565b6000612edf603183613864565b91507f45524337323155524953746f726167653a2055524920717565727920666f722060008301527f6e6f6e6578697374656e7420746f6b656e0000000000000000000000000000006020830152604082019050919050565b6000612f45602c83613864565b91507f4552433732313a20617070726f76656420717565727920666f72206e6f6e657860008301527f697374656e7420746f6b656e00000000000000000000000000000000000000006020830152604082019050919050565b6000612fab600583613875565b91507f2e6a736f6e0000000000000000000000000000000000000000000000000000006000830152600582019050919050565b6000612feb603183613864565b91507f455243373231457874656e73696f6e733a206e6f207369676e6174757265206560008301527f786973747320666f7220746869732049640000000000000000000000000000006020830152604082019050919050565b6000613051602983613864565b91507f4552433732313a207472616e73666572206f6620746f6b656e2074686174206960008301527f73206e6f74206f776e00000000000000000000000000000000000000000000006020830152604082019050919050565b60006130b7602f83613864565b91507f4552433732314d657461646174613a2055524920717565727920666f72206e6f60008301527f6e6578697374656e7420746f6b656e00000000000000000000000000000000006020830152604082019050919050565b600061311d602183613864565b91507f4552433732313a20617070726f76616c20746f2063757272656e74206f776e6560008301527f72000000000000000000000000000000000000000000000000000000000000006020830152604082019050919050565b6000613183603183613864565b91507f4552433732313a207472616e736665722063616c6c6572206973206e6f74206f60008301527f776e6572206e6f7220617070726f7665640000000000000000000000000000006020830152604082019050919050565b60006131e9603e83613864565b91507f455243373231457874656e73696f6e733a207468652065646974696f6e20737560008301527f70706c79206973206e6f742073657420746f206d6f7265207468616e203000006020830152604082019050919050565b61324b816139af565b82525050565b61325a816139b9565b82525050565b600061326c8285612859565b91506132788284612859565b91508190509392505050565b60006132908285612859565b915061329c8284612859565b91506132a782612f9e565b91508190509392505050565b60006132be82612a7c565b91506132ca82856127d0565b6020820191506132da82846127d0565b6020820191508190509392505050565b60006020820190506132ff60008301846127a3565b92915050565b600060808201905061331a60008301876127a3565b61332760208301866127a3565b6133346040830185613242565b818103606083015261334681846127e7565b905095945050505050565b600060208201905061336660008301846127b2565b92915050565b600060208201905061338160008301846127c1565b92915050565b600060a08201905061339c60008301886127c1565b6133a960208301876127a3565b81810360408301526133bb8186612820565b90506133ca60608301856127a3565b81810360808301526133dc8184612820565b90509695505050505050565b60006080820190506133fd60008301876127c1565b61340a6020830186613251565b61341760408301856127c1565b61342460608301846127c1565b95945050505050565b6000602082019050818103600083015261344781846127e7565b905092915050565b600060208201905081810360008301526134698184612820565b905092915050565b6000602082019050818103600083015261348a8161288a565b9050919050565b600060208201905081810360008301526134aa816128ca565b9050919050565b600060208201905081810360008301526134ca81612930565b9050919050565b600060208201905081810360008301526134ea81612970565b9050919050565b6000602082019050818103600083015261350a816129d6565b9050919050565b6000602082019050818103600083015261352a81612a3c565b9050919050565b6000602082019050818103600083015261354a81612abc565b9050919050565b6000602082019050818103600083015261356a81612b22565b9050919050565b6000602082019050818103600083015261358a81612b62565b9050919050565b600060208201905081810360008301526135aa81612bc8565b9050919050565b600060208201905081810360008301526135ca81612c2e565b9050919050565b600060208201905081810360008301526135ea81612c94565b9050919050565b6000602082019050818103600083015261360a81612cfa565b9050919050565b6000602082019050818103600083015261362a81612d60565b9050919050565b6000602082019050818103600083015261364a81612dc6565b9050919050565b6000602082019050818103600083015261366a81612e2c565b9050919050565b6000602082019050818103600083015261368a81612e6c565b9050919050565b600060208201905081810360008301526136aa81612ed2565b9050919050565b600060208201905081810360008301526136ca81612f38565b9050919050565b600060208201905081810360008301526136ea81612fde565b9050919050565b6000602082019050818103600083015261370a81613044565b9050919050565b6000602082019050818103600083015261372a816130aa565b9050919050565b6000602082019050818103600083015261374a81613110565b9050919050565b6000602082019050818103600083015261376a81613176565b9050919050565b6000602082019050818103600083015261378a816131dc565b9050919050565b60006020820190506137a66000830184613242565b92915050565b6000604051905081810181811067ffffffffffffffff821117156137d3576137d2613b4b565b5b8060405250919050565b600067ffffffffffffffff8211156137f8576137f7613b4b565b5b601f19601f8301169050602081019050919050565b600067ffffffffffffffff82111561382857613827613b4b565b5b601f19601f8301169050602081019050919050565b600081519050919050565b600081519050919050565b600082825260208201905092915050565b600082825260208201905092915050565b600081905092915050565b600061388b826139af565b9150613896836139af565b9250827fffffffffffffffffffffffffffffffffffffffffffffffffffffffffffffffff038211156138cb576138ca613abe565b5b828201905092915050565b60006138e1826139af565b91506138ec836139af565b9250826138fc576138fb613aed565b5b828204905092915050565b6000613912826139af565b915061391d836139af565b9250828210156139305761392f613abe565b5b828203905092915050565b60006139468261398f565b9050919050565b60008115159050919050565b6000819050919050565b60007fffffffff0000000000000000000000000000000000000000000000000000000082169050919050565b600073ffffffffffffffffffffffffffffffffffffffff82169050919050565b6000819050919050565b600060ff82169050919050565b82818337600083830152505050565b60005b838110156139f35780820151818401526020810190506139d8565b83811115613a02576000848401525b50505050565b60006002820490506001821680613a2057607f821691505b60208210811415613a3457613a33613b1c565b5b50919050565b6000613a45826139af565b91507fffffffffffffffffffffffffffffffffffffffffffffffffffffffffffffffff821415613a7857613a77613abe565b5b600182019050919050565b6000819050919050565b6000613a98826139af565b9150613aa3836139af565b925082613ab357613ab2613aed565b5b828206905092915050565b7f4e487b7100000000000000000000000000000000000000000000000000000000600052601160045260246000fd5b7f4e487b7100000000000000000000000000000000000000000000000000000000600052601260045260246000fd5b7f4e487b7100000000000000000000000000000000000000000000000000000000600052602260045260246000fd5b7f4e487b7100000000000000000000000000000000000000000000000000000000600052604160045260246000fd5b6000601f19601f8301169050919050565b613b948161393b565b8114613b9f57600080fd5b50565b613bab8161394d565b8114613bb657600080fd5b50565b613bc281613963565b8114613bcd57600080fd5b50565b613bd9816139af565b8114613be457600080fd5b5056fea264697066735822122049777116d159857287e4f4aaa72eb94cee983c44027b587c1e2f50d4fc97fd4564736f6c63430008000033",
  "linkReferences": {},
  "deployedLinkReferences": {}
}