{
  "_format": "hh-sol-artifact-1",
  "contractName": "AuctionHouse",
  "sourceName": "contracts/AuctionHouse.sol",
  "abi": [
    {
      "inputs": [
        {
          "internalType": "address",
          "name": "_zora",
          "type": "address"
        },
        {
          "internalType": "address",
          "name": "_weth",
          "type": "address"
        }
      ],
      "stateMutability": "nonpayable",
      "type": "constructor"
    },
    {
      "anonymous": false,
      "inputs": [
        {
          "indexed": true,
          "internalType": "uint256",
          "name": "auctionId",
          "type": "uint256"
        },
        {
          "indexed": true,
          "internalType": "uint256",
          "name": "tokenId",
          "type": "uint256"
        },
        {
          "indexed": true,
          "internalType": "address",
          "name": "tokenContract",
          "type": "address"
        },
        {
          "indexed": false,
          "internalType": "address",
          "name": "sender",
          "type": "address"
        },
        {
          "indexed": false,
          "internalType": "uint256",
          "name": "value",
          "type": "uint256"
        },
        {
          "indexed": false,
          "internalType": "bool",
          "name": "firstBid",
          "type": "bool"
        },
        {
          "indexed": false,
          "internalType": "bool",
          "name": "extended",
          "type": "bool"
        }
      ],
      "name": "AuctionBid",
      "type": "event"
    },
    {
      "anonymous": false,
      "inputs": [
        {
          "indexed": true,
          "internalType": "uint256",
          "name": "auctionId",
          "type": "uint256"
        },
        {
          "indexed": true,
          "internalType": "uint256",
          "name": "tokenId",
          "type": "uint256"
        },
        {
          "indexed": true,
          "internalType": "address",
          "name": "tokenContract",
          "type": "address"
        },
        {
          "indexed": false,
          "internalType": "address",
          "name": "tokenOwner",
          "type": "address"
        }
      ],
      "name": "AuctionCanceled",
      "type": "event"
    },
    {
      "anonymous": false,
      "inputs": [
        {
          "indexed": true,
          "internalType": "uint256",
          "name": "auctionId",
          "type": "uint256"
        },
        {
          "indexed": true,
          "internalType": "uint256",
          "name": "tokenId",
          "type": "uint256"
        },
        {
          "indexed": true,
          "internalType": "address",
          "name": "tokenContract",
          "type": "address"
        },
        {
          "indexed": false,
          "internalType": "uint256",
          "name": "duration",
          "type": "uint256"
        },
        {
          "indexed": false,
          "internalType": "uint256",
          "name": "reservePrice",
          "type": "uint256"
        },
        {
          "indexed": false,
          "internalType": "address",
          "name": "tokenOwner",
          "type": "address"
        },
        {
          "indexed": false,
          "internalType": "address",
          "name": "auctionCurrency",
          "type": "address"
        }
      ],
      "name": "AuctionCreated",
      "type": "event"
    },
    {
      "anonymous": false,
      "inputs": [
        {
          "indexed": true,
          "internalType": "uint256",
          "name": "auctionId",
          "type": "uint256"
        },
        {
          "indexed": true,
          "internalType": "uint256",
          "name": "tokenId",
          "type": "uint256"
        },
        {
          "indexed": true,
          "internalType": "address",
          "name": "tokenContract",
          "type": "address"
        },
        {
          "indexed": false,
          "internalType": "uint256",
          "name": "duration",
          "type": "uint256"
        }
      ],
      "name": "AuctionDurationExtended",
      "type": "event"
    },
    {
      "anonymous": false,
      "inputs": [
        {
          "indexed": true,
          "internalType": "uint256",
          "name": "auctionId",
          "type": "uint256"
        },
        {
          "indexed": true,
          "internalType": "uint256",
          "name": "tokenId",
          "type": "uint256"
        },
        {
          "indexed": true,
          "internalType": "address",
          "name": "tokenContract",
          "type": "address"
        },
        {
          "indexed": false,
          "internalType": "address",
          "name": "tokenOwner",
          "type": "address"
        },
        {
          "indexed": false,
          "internalType": "address",
          "name": "winner",
          "type": "address"
        },
        {
          "indexed": false,
          "internalType": "uint256",
          "name": "amount",
          "type": "uint256"
        },
        {
          "indexed": false,
          "internalType": "address",
          "name": "auctionCurrency",
          "type": "address"
        }
      ],
      "name": "AuctionEnded",
      "type": "event"
    },
    {
      "anonymous": false,
      "inputs": [
        {
          "indexed": true,
          "internalType": "uint256",
          "name": "auctionId",
          "type": "uint256"
        },
        {
          "indexed": true,
          "internalType": "uint256",
          "name": "tokenId",
          "type": "uint256"
        },
        {
          "indexed": true,
          "internalType": "address",
          "name": "tokenContract",
          "type": "address"
        },
        {
          "indexed": false,
          "internalType": "uint256",
          "name": "reservePrice",
          "type": "uint256"
        }
      ],
      "name": "AuctionReservePriceUpdated",
      "type": "event"
    },
    {
      "stateMutability": "payable",
      "type": "fallback"
    },
    {
      "inputs": [
        {
          "internalType": "uint256",
          "name": "",
          "type": "uint256"
        }
      ],
      "name": "auctions",
      "outputs": [
        {
          "internalType": "uint256",
          "name": "tokenId",
          "type": "uint256"
        },
        {
          "internalType": "address",
          "name": "tokenContract",
          "type": "address"
        },
        {
          "internalType": "uint256",
          "name": "amount",
          "type": "uint256"
        },
        {
          "internalType": "uint256",
          "name": "duration",
          "type": "uint256"
        },
        {
          "internalType": "uint256",
          "name": "firstBidTime",
          "type": "uint256"
        },
        {
          "internalType": "uint256",
          "name": "reservePrice",
          "type": "uint256"
        },
        {
          "internalType": "address",
          "name": "tokenOwner",
          "type": "address"
        },
        {
          "internalType": "address payable",
          "name": "bidder",
          "type": "address"
        },
        {
          "internalType": "address",
          "name": "auctionCurrency",
          "type": "address"
        }
      ],
      "stateMutability": "view",
      "type": "function"
    },
    {
      "inputs": [
        {
          "internalType": "uint256",
          "name": "auctionId",
          "type": "uint256"
        }
      ],
      "name": "cancelAuction",
      "outputs": [],
      "stateMutability": "nonpayable",
      "type": "function"
    },
    {
      "inputs": [
        {
          "internalType": "uint256",
          "name": "tokenId",
          "type": "uint256"
        },
        {
          "internalType": "address",
          "name": "tokenContract",
          "type": "address"
        },
        {
          "internalType": "uint256",
          "name": "duration",
          "type": "uint256"
        },
        {
          "internalType": "uint256",
          "name": "reservePrice",
          "type": "uint256"
        },
        {
          "internalType": "address",
          "name": "auctionCurrency",
          "type": "address"
        }
      ],
      "name": "createAuction",
      "outputs": [
        {
          "internalType": "uint256",
          "name": "",
          "type": "uint256"
        }
      ],
      "stateMutability": "nonpayable",
      "type": "function"
    },
    {
      "inputs": [
        {
          "internalType": "uint256",
          "name": "auctionId",
          "type": "uint256"
        },
        {
          "internalType": "uint256",
          "name": "amount",
          "type": "uint256"
        }
      ],
      "name": "createBid",
      "outputs": [],
      "stateMutability": "payable",
      "type": "function"
    },
    {
      "inputs": [
        {
          "internalType": "uint256",
          "name": "auctionId",
          "type": "uint256"
        }
      ],
      "name": "endAuction",
      "outputs": [],
      "stateMutability": "nonpayable",
      "type": "function"
    },
    {
      "inputs": [],
      "name": "minBidIncrementPercentage",
      "outputs": [
        {
          "internalType": "uint8",
          "name": "",
          "type": "uint8"
        }
      ],
      "stateMutability": "view",
      "type": "function"
    },
    {
      "inputs": [
        {
          "internalType": "uint256",
          "name": "auctionId",
          "type": "uint256"
        },
        {
          "internalType": "uint256",
          "name": "reservePrice",
          "type": "uint256"
        }
      ],
      "name": "setAuctionReservePrice",
      "outputs": [],
      "stateMutability": "nonpayable",
      "type": "function"
    },
    {
      "inputs": [],
      "name": "timeBuffer",
      "outputs": [
        {
          "internalType": "uint256",
          "name": "",
          "type": "uint256"
        }
      ],
      "stateMutability": "view",
      "type": "function"
    },
    {
      "inputs": [],
      "name": "wethAddress",
      "outputs": [
        {
          "internalType": "address",
          "name": "",
          "type": "address"
        }
      ],
      "stateMutability": "view",
      "type": "function"
    },
    {
      "inputs": [],
      "name": "zora",
      "outputs": [
        {
          "internalType": "address",
          "name": "",
          "type": "address"
        }
      ],
      "stateMutability": "view",
      "type": "function"
    },
    {
      "stateMutability": "payable",
      "type": "receive"
    }
  ],
  "bytecode": "0x60806040523480156200001157600080fd5b5060405162004746380380620047468339818101604052810190620000379190620001f4565b60016000819055508173ffffffffffffffffffffffffffffffffffffffff166301ffc9a76380ac58cd60e01b6040518263ffffffff1660e01b8152600401620000819190620002b4565b60206040518083038186803b1580156200009a57600080fd5b505afa158015620000af573d6000803e3d6000fd5b505050506040513d601f19601f82011682018060405250810190620000d5919062000235565b62000117576040517f08c379a00000000000000000000000000000000000000000000000000000000081526004016200010e90620002d1565b60405180910390fd5b81600260016101000a81548173ffffffffffffffffffffffffffffffffffffffff021916908373ffffffffffffffffffffffffffffffffffffffff16021790555080600360006101000a81548173ffffffffffffffffffffffffffffffffffffffff021916908373ffffffffffffffffffffffffffffffffffffffff1602179055506103846001819055506005600260006101000a81548160ff021916908360ff1602179055505050620003a4565b600081519050620001d78162000370565b92915050565b600081519050620001ee816200038a565b92915050565b600080604083850312156200020857600080fd5b60006200021885828601620001c6565b92505060206200022b85828601620001c6565b9150509250929050565b6000602082840312156200024857600080fd5b60006200025884828501620001dd565b91505092915050565b6200026c8162000324565b82525050565b600062000281601d83620002f3565b91507f446f65736e277420737570706f7274204e465420696e746572666163650000006000830152602082019050919050565b6000602082019050620002cb600083018462000261565b92915050565b60006020820190508181036000830152620002ec8162000272565b9050919050565b600082825260208201905092915050565b6000620003118262000350565b9050919050565b60008115159050919050565b60007fffffffff0000000000000000000000000000000000000000000000000000000082169050919050565b600073ffffffffffffffffffffffffffffffffffffffff82169050919050565b6200037b8162000304565b81146200038757600080fd5b50565b620003958162000318565b8114620003a157600080fd5b50565b61439280620003b46000396000f3fe6080604052600436106100955760003560e01c806396b5a7551161005957806396b5a7551461019f578063b296024d146101c8578063b7751c71146101f3578063b9a2de3a1461020f578063ec91f2a4146102385761009c565b8063166f46a71461009e57806336bfb6be146100c95780634f0e0ef314610106578063571a26a0146101315780636f8a41e1146101765761009c565b3661009c57005b005b3480156100aa57600080fd5b506100b3610263565b6040516100c09190613b9c565b60405180910390f35b3480156100d557600080fd5b506100f060048036038101906100eb9190613221565b610289565b6040516100fd919061407e565b60405180910390f35b34801561011257600080fd5b5061011b610854565b6040516101289190613b9c565b60405180910390f35b34801561013d57600080fd5b50610158600480360381019061015391906131cf565b61087a565b60405161016d99989796959493929190614099565b60405180910390f35b34801561018257600080fd5b5061019d60048036038101906101989190613298565b610948565b005b3480156101ab57600080fd5b506101c660048036038101906101c191906131cf565b610b4a565b005b3480156101d457600080fd5b506101dd610cf3565b6040516101ea91906141bd565b60405180910390f35b61020d60048036038101906102089190613298565b610d06565b005b34801561021b57600080fd5b50610236600480360381019061023191906131cf565b6115a8565b005b34801561024457600080fd5b5061024d611d4d565b60405161025a919061407e565b60405180910390f35b600260019054906101000a900473ffffffffffffffffffffffffffffffffffffffff1681565b6000600260005414156102d1576040517f08c379a00000000000000000000000000000000000000000000000000000000081526004016102c890613ffe565b60405180910390fd5b60026000819055508473ffffffffffffffffffffffffffffffffffffffff166301ffc9a76380ac58cd60e01b6040518263ffffffff1660e01b81526004016103199190613d61565b60206040518083038186803b15801561033157600080fd5b505afa158015610345573d6000803e3d6000fd5b505050506040513d601f19601f8201168201806040525081019061036991906131a6565b6103a8576040517f08c379a000000000000000000000000000000000000000000000000000000000815260040161039f9061403e565b60405180910390fd5b60008573ffffffffffffffffffffffffffffffffffffffff16636352211e886040518263ffffffff1660e01b81526004016103e3919061407e565b60206040518083038186803b1580156103fb57600080fd5b505afa15801561040f573d6000803e3d6000fd5b505050506040513d601f19601f82011682018060405250810190610433919061317d565b90508573ffffffffffffffffffffffffffffffffffffffff1663081812fc886040518263ffffffff1660e01b815260040161046e919061407e565b60206040518083038186803b15801561048657600080fd5b505afa15801561049a573d6000803e3d6000fd5b505050506040513d601f19601f820116820180604052508101906104be919061317d565b73ffffffffffffffffffffffffffffffffffffffff163373ffffffffffffffffffffffffffffffffffffffff16148061052257508073ffffffffffffffffffffffffffffffffffffffff163373ffffffffffffffffffffffffffffffffffffffff16145b610561576040517f08c379a000000000000000000000000000000000000000000000000000000000815260040161055890613fde565b60405180910390fd5b600061056d6005611d53565b90506040518061012001604052808981526020018873ffffffffffffffffffffffffffffffffffffffff16815260200160008152602001878152602001600081526020018681526020018373ffffffffffffffffffffffffffffffffffffffff168152602001600073ffffffffffffffffffffffffffffffffffffffff1681526020018573ffffffffffffffffffffffffffffffffffffffff16815250600460008381526020019081526020016000206000820151816000015560208201518160010160006101000a81548173ffffffffffffffffffffffffffffffffffffffff021916908373ffffffffffffffffffffffffffffffffffffffff16021790555060408201518160020155606082015181600301556080820151816004015560a0820151816005015560c08201518160060160006101000a81548173ffffffffffffffffffffffffffffffffffffffff021916908373ffffffffffffffffffffffffffffffffffffffff16021790555060e08201518160070160006101000a81548173ffffffffffffffffffffffffffffffffffffffff021916908373ffffffffffffffffffffffffffffffffffffffff1602179055506101008201518160080160006101000a81548173ffffffffffffffffffffffffffffffffffffffff021916908373ffffffffffffffffffffffffffffffffffffffff1602179055509050508673ffffffffffffffffffffffffffffffffffffffff166323b872dd83308b6040518463ffffffff1660e01b81526004016107ac93929190613c85565b600060405180830381600087803b1580156107c657600080fd5b505af11580156107da573d6000803e3d6000fd5b505050506107e86005611d61565b8673ffffffffffffffffffffffffffffffffffffffff1688827f4077285700d637595ba695e31bc3daf68d974df3c847fc23daba2185e98695218989878a6040516108369493929190614178565b60405180910390a48092505050600160008190555095945050505050565b600360009054906101000a900473ffffffffffffffffffffffffffffffffffffffff1681565b60046020528060005260406000206000915090508060000154908060010160009054906101000a900473ffffffffffffffffffffffffffffffffffffffff16908060020154908060030154908060040154908060050154908060060160009054906101000a900473ffffffffffffffffffffffffffffffffffffffff16908060070160009054906101000a900473ffffffffffffffffffffffffffffffffffffffff16908060080160009054906101000a900473ffffffffffffffffffffffffffffffffffffffff16905089565b8161095281611d77565b610991576040517f08c379a000000000000000000000000000000000000000000000000000000000815260040161098890613f3e565b60405180910390fd5b6004600084815260200190815260200160002060060160009054906101000a900473ffffffffffffffffffffffffffffffffffffffff1673ffffffffffffffffffffffffffffffffffffffff163373ffffffffffffffffffffffffffffffffffffffff1614610a35576040517f08c379a0000000000000000000000000000000000000000000000000000000008152600401610a2c90613d9e565b60405180910390fd5b6000600460008581526020019081526020016000206004015414610a8e576040517f08c379a0000000000000000000000000000000000000000000000000000000008152600401610a8590613ede565b60405180910390fd5b8160046000858152602001908152602001600020600501819055506004600084815260200190815260200160002060010160009054906101000a900473ffffffffffffffffffffffffffffffffffffffff1673ffffffffffffffffffffffffffffffffffffffff166004600085815260200190815260200160002060000154847f01e6a465ec1edd582d333147c7b7edf5998164f2cf2269dcb9c93d46c67bd31785604051610b3d919061407e565b60405180910390a4505050565b60026000541415610b90576040517f08c379a0000000000000000000000000000000000000000000000000000000008152600401610b8790613ffe565b60405180910390fd5b600260008190555080610ba281611d77565b610be1576040517f08c379a0000000000000000000000000000000000000000000000000000000008152600401610bd890613f3e565b60405180910390fd5b3373ffffffffffffffffffffffffffffffffffffffff166004600084815260200190815260200160002060060160009054906101000a900473ffffffffffffffffffffffffffffffffffffffff1673ffffffffffffffffffffffffffffffffffffffff1614610c85576040517f08c379a0000000000000000000000000000000000000000000000000000000008152600401610c7c90613e1e565b60405180910390fd5b6000600460008481526020019081526020016000206004015414610cde576040517f08c379a0000000000000000000000000000000000000000000000000000000008152600401610cd590613dde565b60405180910390fd5b610ce782611de6565b50600160008190555050565b600260009054906101000a900460ff1681565b81610d1081611d77565b610d4f576040517f08c379a0000000000000000000000000000000000000000000000000000000008152600401610d4690613f3e565b60405180910390fd5b60026000541415610d95576040517f08c379a0000000000000000000000000000000000000000000000000000000008152600401610d8c90613ffe565b60405180910390fd5b600260008190555060006004600085815260200190815260200160002060070160009054906101000a900473ffffffffffffffffffffffffffffffffffffffff169050600060046000868152602001908152602001600020600401541480610e3a5750610e376004600086815260200190815260200160002060030154600460008781526020019081526020016000206004015461205690919063ffffffff16565b42105b610e79576040517f08c379a0000000000000000000000000000000000000000000000000000000008152600401610e709061401e565b60405180910390fd5b6004600085815260200190815260200160002060050154831015610ed2576040517f08c379a0000000000000000000000000000000000000000000000000000000008152600401610ec990613ebe565b60405180910390fd5b610f48610f236064610f15600260009054906101000a900460ff1660ff16600460008a8152602001908152602001600020600201546120ab90919063ffffffff16565b61211b90919063ffffffff16565b600460008781526020019081526020016000206002015461205690919063ffffffff16565b831015610f8a576040517f08c379a0000000000000000000000000000000000000000000000000000000008152600401610f8190613efe565b60405180910390fd5b600260019054906101000a900473ffffffffffffffffffffffffffffffffffffffff1673ffffffffffffffffffffffffffffffffffffffff166004600086815260200190815260200160002060010160009054906101000a900473ffffffffffffffffffffffffffffffffffffffff1673ffffffffffffffffffffffffffffffffffffffff16141561119857600260019054906101000a900473ffffffffffffffffffffffffffffffffffffffff1673ffffffffffffffffffffffffffffffffffffffff1663a1794bcd6040518163ffffffff1660e01b8152600401602060405180830381600087803b15801561108057600080fd5b505af1158015611094573d6000803e3d6000fd5b505050506040513d601f19601f820116820180604052508101906110b8919061317d565b73ffffffffffffffffffffffffffffffffffffffff166302e8fe136004600087815260200190815260200160002060000154856040518363ffffffff1660e01b815260040161110892919061414f565b60206040518083038186803b15801561112057600080fd5b505afa158015611134573d6000803e3d6000fd5b505050506040513d601f19601f8201168201806040525081019061115891906131a6565b611197576040517f08c379a000000000000000000000000000000000000000000000000000000000815260040161118e90613dbe565b60405180910390fd5b5b6000600460008681526020019081526020016000206004015414156111d757426004600086815260200190815260200160002060040181905550611264565b600073ffffffffffffffffffffffffffffffffffffffff168173ffffffffffffffffffffffffffffffffffffffff1614611263576112628160046000878152602001908152602001600020600201546004600088815260200190815260200160002060080160009054906101000a900473ffffffffffffffffffffffffffffffffffffffff16612171565b5b5b6112a4836004600087815260200190815260200160002060080160009054906101000a900473ffffffffffffffffffffffffffffffffffffffff16612348565b826004600086815260200190815260200160002060020181905550336004600086815260200190815260200160002060070160006101000a81548173ffffffffffffffffffffffffffffffffffffffff021916908373ffffffffffffffffffffffffffffffffffffffff160217905550600080905060015461136d4261135f600460008a815260200190815260200160002060030154600460008b81526020019081526020016000206004015461205690919063ffffffff16565b6125ef90919063ffffffff16565b101561140f576000600460008781526020019081526020016000206003015490506113ef6113e06113cf426113c185600460008d81526020019081526020016000206004015461205690919063ffffffff16565b6125ef90919063ffffffff16565b6001546125ef90919063ffffffff16565b8261205690919063ffffffff16565b600460008881526020019081526020016000206003018190555060019150505b6004600086815260200190815260200160002060010160009054906101000a900473ffffffffffffffffffffffffffffffffffffffff1673ffffffffffffffffffffffffffffffffffffffff166004600087815260200190815260200160002060000154867fda6b779568630ce5e5658b317174df474d5b335541ed9471bd8424a017f3be6d3388600073ffffffffffffffffffffffffffffffffffffffff168873ffffffffffffffffffffffffffffffffffffffff1614876040516114d89493929190613c40565b60405180910390a48015611599576004600086815260200190815260200160002060010160009054906101000a900473ffffffffffffffffffffffffffffffffffffffff1673ffffffffffffffffffffffffffffffffffffffff166004600087815260200190815260200160002060000154867f55cf2b31608fbe49fa31cd0285b6b6cce46f56d26c8c59980a2af5a0ffbdd5db600460008a815260200190815260200160002060030154604051611590919061407e565b60405180910390a45b50506001600081905550505050565b806115b281611d77565b6115f1576040517f08c379a00000000000000000000000000000000000000000000000000000000081526004016115e890613f3e565b60405180910390fd5b60026000541415611637576040517f08c379a000000000000000000000000000000000000000000000000000000000815260040161162e90613ffe565b60405180910390fd5b6002600081905550600060046000848152602001908152602001600020600401541415611699576040517f08c379a000000000000000000000000000000000000000000000000000000000815260040161169090613e7e565b60405180910390fd5b6116d86004600084815260200190815260200160002060030154600460008581526020019081526020016000206004015461205690919063ffffffff16565b42101561171a576040517f08c379a000000000000000000000000000000000000000000000000000000000815260040161171190613fbe565b60405180910390fd5b60008073ffffffffffffffffffffffffffffffffffffffff166004600085815260200190815260200160002060080160009054906101000a900473ffffffffffffffffffffffffffffffffffffffff1673ffffffffffffffffffffffffffffffffffffffff16146117c1576004600084815260200190815260200160002060080160009054906101000a900473ffffffffffffffffffffffffffffffffffffffff166117e5565b600360009054906101000a900473ffffffffffffffffffffffffffffffffffffffff165b9050600060046000858152602001908152602001600020600201549050600260019054906101000a900473ffffffffffffffffffffffffffffffffffffffff1673ffffffffffffffffffffffffffffffffffffffff166004600086815260200190815260200160002060010160009054906101000a900473ffffffffffffffffffffffffffffffffffffffff1673ffffffffffffffffffffffffffffffffffffffff1614156119535760008061189a8661263f565b91509150809250600115158215151461194c5761193a6004600088815260200190815260200160002060070160009054906101000a900473ffffffffffffffffffffffffffffffffffffffff166004600089815260200190815260200160002060020154600460008a815260200190815260200160002060080160009054906101000a900473ffffffffffffffffffffffffffffffffffffffff16612171565b61194386611de6565b50505050611d41565b5050611adf565b6004600085815260200190815260200160002060010160009054906101000a900473ffffffffffffffffffffffffffffffffffffffff1673ffffffffffffffffffffffffffffffffffffffff166342842e0e306004600088815260200190815260200160002060070160009054906101000a900473ffffffffffffffffffffffffffffffffffffffff1660046000898152602001908152602001600020600001546040518463ffffffff1660e01b8152600401611a1293929190613bd2565b600060405180830381600087803b158015611a2c57600080fd5b505af1925050508015611a3d575060015b611ade57611ace6004600086815260200190815260200160002060070160009054906101000a900473ffffffffffffffffffffffffffffffffffffffff1660046000878152602001908152602001600020600201546004600088815260200190815260200160002060080160009054906101000a900473ffffffffffffffffffffffffffffffffffffffff16612171565b611ad784611de6565b5050611d41565b5b611b566004600086815260200190815260200160002060060160009054906101000a900473ffffffffffffffffffffffffffffffffffffffff16826004600088815260200190815260200160002060080160009054906101000a900473ffffffffffffffffffffffffffffffffffffffff16612171565b6004600085815260200190815260200160002060010160009054906101000a900473ffffffffffffffffffffffffffffffffffffffff1673ffffffffffffffffffffffffffffffffffffffff166004600086815260200190815260200160002060000154857f9f89fdd302ad43f9c5634afb812057a043e0200d592f7c951aa053e5ca314ab36004600089815260200190815260200160002060060160009054906101000a900473ffffffffffffffffffffffffffffffffffffffff16600460008a815260200190815260200160002060070160009054906101000a900473ffffffffffffffffffffffffffffffffffffffff168688604051611c5c9493929190613cbc565b60405180910390a4600460008581526020019081526020016000206000808201600090556001820160006101000a81549073ffffffffffffffffffffffffffffffffffffffff021916905560028201600090556003820160009055600482016000905560058201600090556006820160006101000a81549073ffffffffffffffffffffffffffffffffffffffff02191690556007820160006101000a81549073ffffffffffffffffffffffffffffffffffffffff02191690556008820160006101000a81549073ffffffffffffffffffffffffffffffffffffffff0219169055505050505b60016000819055505050565b60015481565b600081600001549050919050565b6001816000016000828254019250508190555050565b60008073ffffffffffffffffffffffffffffffffffffffff166004600084815260200190815260200160002060060160009054906101000a900473ffffffffffffffffffffffffffffffffffffffff1673ffffffffffffffffffffffffffffffffffffffff1614159050919050565b60006004600083815260200190815260200160002060060160009054906101000a900473ffffffffffffffffffffffffffffffffffffffff1690506004600083815260200190815260200160002060010160009054906101000a900473ffffffffffffffffffffffffffffffffffffffff1673ffffffffffffffffffffffffffffffffffffffff166342842e0e308360046000878152602001908152602001600020600001546040518463ffffffff1660e01b8152600401611eaa93929190613c09565b600060405180830381600087803b158015611ec457600080fd5b505af1158015611ed8573d6000803e3d6000fd5b505050506004600083815260200190815260200160002060010160009054906101000a900473ffffffffffffffffffffffffffffffffffffffff1673ffffffffffffffffffffffffffffffffffffffff166004600084815260200190815260200160002060000154837f6091afcbe8514686c43b167ca4f1b03e24446d29d8490d496e438f8a2c76343984604051611f709190613b9c565b60405180910390a4600460008381526020019081526020016000206000808201600090556001820160006101000a81549073ffffffffffffffffffffffffffffffffffffffff021916905560028201600090556003820160009055600482016000905560058201600090556006820160006101000a81549073ffffffffffffffffffffffffffffffffffffffff02191690556007820160006101000a81549073ffffffffffffffffffffffffffffffffffffffff02191690556008820160006101000a81549073ffffffffffffffffffffffffffffffffffffffff021916905550505050565b6000808284019050838110156120a1576040517f08c379a000000000000000000000000000000000000000000000000000000000815260040161209890613dfe565b60405180910390fd5b8091505092915050565b6000808314156120be5760009050612115565b60008284029050828482816120cf57fe5b0414612110576040517f08c379a000000000000000000000000000000000000000000000000000000000815260040161210790613f1e565b60405180910390fd5b809150505b92915050565b600080821161215f576040517f08c379a000000000000000000000000000000000000000000000000000000000815260040161215690613e9e565b60405180910390fd5b81838161216857fe5b04905092915050565b600073ffffffffffffffffffffffffffffffffffffffff168173ffffffffffffffffffffffffffffffffffffffff16141561231757600360009054906101000a900473ffffffffffffffffffffffffffffffffffffffff1673ffffffffffffffffffffffffffffffffffffffff16632e1a7d4d836040518263ffffffff1660e01b8152600401612201919061407e565b600060405180830381600087803b15801561221b57600080fd5b505af115801561222f573d6000803e3d6000fd5b5050505061223d8383612c49565b61231257600360009054906101000a900473ffffffffffffffffffffffffffffffffffffffff1673ffffffffffffffffffffffffffffffffffffffff1663d0e30db0836040518263ffffffff1660e01b81526004016000604051808303818588803b1580156122ab57600080fd5b505af11580156122bf573d6000803e3d6000fd5b50505050506123118383600360009054906101000a900473ffffffffffffffffffffffffffffffffffffffff1673ffffffffffffffffffffffffffffffffffffffff16612d0d9092919063ffffffff16565b5b612343565b61234283838373ffffffffffffffffffffffffffffffffffffffff16612d0d9092919063ffffffff16565b5b505050565b600073ffffffffffffffffffffffffffffffffffffffff168173ffffffffffffffffffffffffffffffffffffffff161415612447578134146123bf576040517f08c379a00000000000000000000000000000000000000000000000000000000081526004016123b690613f5e565b60405180910390fd5b600360009054906101000a900473ffffffffffffffffffffffffffffffffffffffff1673ffffffffffffffffffffffffffffffffffffffff1663d0e30db0836040518263ffffffff1660e01b81526004016000604051808303818588803b15801561242957600080fd5b505af115801561243d573d6000803e3d6000fd5b50505050506125eb565b600081905060008173ffffffffffffffffffffffffffffffffffffffff166370a08231306040518263ffffffff1660e01b81526004016124879190613bb7565b60206040518083038186803b15801561249f57600080fd5b505afa1580156124b3573d6000803e3d6000fd5b505050506040513d601f19601f820116820180604052508101906124d791906131f8565b90506125063330868573ffffffffffffffffffffffffffffffffffffffff16612d93909392919063ffffffff16565b60008273ffffffffffffffffffffffffffffffffffffffff166370a08231306040518263ffffffff1660e01b81526004016125419190613bb7565b60206040518083038186803b15801561255957600080fd5b505afa15801561256d573d6000803e3d6000fd5b505050506040513d601f19601f8201168201806040525081019061259191906131f8565b9050806125a7868461205690919063ffffffff16565b146125e7576040517f08c379a00000000000000000000000000000000000000000000000000000000081526004016125de9061405e565b60405180910390fd5b5050505b5050565b600082821115612634576040517f08c379a000000000000000000000000000000000000000000000000000000000815260040161262b90613e3e565b60405180910390fd5b818303905092915050565b60008060008073ffffffffffffffffffffffffffffffffffffffff166004600086815260200190815260200160002060080160009054906101000a900473ffffffffffffffffffffffffffffffffffffffff1673ffffffffffffffffffffffffffffffffffffffff16146126e9576004600085815260200190815260200160002060080160009054906101000a900473ffffffffffffffffffffffffffffffffffffffff1661270d565b600360009054906101000a900473ffffffffffffffffffffffffffffffffffffffff165b905061271761308a565b6040518060a00160405280600460008881526020019081526020016000206002015481526020018373ffffffffffffffffffffffffffffffffffffffff1681526020013073ffffffffffffffffffffffffffffffffffffffff1681526020016004600088815260200190815260200160002060070160009054906101000a900473ffffffffffffffffffffffffffffffffffffffff1673ffffffffffffffffffffffffffffffffffffffff1681526020016040518060200160405280600081525081525090508173ffffffffffffffffffffffffffffffffffffffff1663095ea7b3600260019054906101000a900473ffffffffffffffffffffffffffffffffffffffff1673ffffffffffffffffffffffffffffffffffffffff1663a1794bcd6040518163ffffffff1660e01b8152600401602060405180830381600087803b15801561286357600080fd5b505af1158015612877573d6000803e3d6000fd5b505050506040513d601f19601f8201168201806040525081019061289b919061317d565b83600001516040518363ffffffff1660e01b81526004016128bd929190613d38565b602060405180830381600087803b1580156128d757600080fd5b505af11580156128eb573d6000803e3d6000fd5b505050506040513d601f19601f8201168201806040525081019061290f91906131a6565b50600260019054906101000a900473ffffffffffffffffffffffffffffffffffffffff1673ffffffffffffffffffffffffffffffffffffffff16635bf624226004600088815260200190815260200160002060000154836040518363ffffffff1660e01b8152600401612983929190614126565b600060405180830381600087803b15801561299d57600080fd5b505af11580156129b1573d6000803e3d6000fd5b5050505060008273ffffffffffffffffffffffffffffffffffffffff166370a08231306040518263ffffffff1660e01b81526004016129f09190613bb7565b60206040518083038186803b158015612a0857600080fd5b505afa158015612a1c573d6000803e3d6000fd5b505050506040513d601f19601f82011682018060405250810190612a4091906131f8565b9050600260019054906101000a900473ffffffffffffffffffffffffffffffffffffffff1673ffffffffffffffffffffffffffffffffffffffff1663ba3393996004600089815260200190815260200160002060000154846040518363ffffffff1660e01b8152600401612ab5929190614126565b600060405180830381600087803b158015612acf57600080fd5b505af1925050508015612ae0575060015b612b9957600260019054906101000a900473ffffffffffffffffffffffffffffffffffffffff1673ffffffffffffffffffffffffffffffffffffffff1663b320f45960046000898152602001908152602001600020600001546040518263ffffffff1660e01b8152600401612b55919061407e565b600060405180830381600087803b158015612b6f57600080fd5b505af1158015612b83573d6000803e3d6000fd5b5050505060008080905094509450505050612c44565b60008373ffffffffffffffffffffffffffffffffffffffff166370a08231306040518263ffffffff1660e01b8152600401612bd49190613bb7565b60206040518083038186803b158015612bec57600080fd5b505afa158015612c00573d6000803e3d6000fd5b505050506040513d601f19601f82011682018060405250810190612c2491906131f8565b90506001612c3b83836125ef90919063ffffffff16565b95509550505050505b915091565b6000808373ffffffffffffffffffffffffffffffffffffffff1683600067ffffffffffffffff81118015612c7c57600080fd5b506040519080825280601f01601f191660200182016040528015612caf5781602001600182028036833780820191505090505b50604051612cbd9190613b85565b60006040518083038185875af1925050503d8060008114612cfa576040519150601f19603f3d011682016040523d82523d6000602084013e612cff565b606091505b505090508091505092915050565b612d8e8363a9059cbb60e01b8484604051602401612d2c929190613d38565b604051602081830303815290604052907bffffffffffffffffffffffffffffffffffffffffffffffffffffffff19166020820180517bffffffffffffffffffffffffffffffffffffffffffffffffffffffff8381831617835250505050612e1c565b505050565b612e16846323b872dd60e01b858585604051602401612db493929190613d01565b604051602081830303815290604052907bffffffffffffffffffffffffffffffffffffffffffffffffffffffff19166020820180517bffffffffffffffffffffffffffffffffffffffffffffffffffffffff8381831617835250505050612e1c565b50505050565b6060612e7e826040518060400160405280602081526020017f5361666545524332303a206c6f772d6c6576656c2063616c6c206661696c65648152508573ffffffffffffffffffffffffffffffffffffffff16612ee39092919063ffffffff16565b9050600081511115612ede5780806020019051810190612e9e91906131a6565b612edd576040517f08c379a0000000000000000000000000000000000000000000000000000000008152600401612ed490613f9e565b60405180910390fd5b5b505050565b6060612ef28484600085612efb565b90509392505050565b606082471015612f40576040517f08c379a0000000000000000000000000000000000000000000000000000000008152600401612f3790613e5e565b60405180910390fd5b612f4985613010565b612f88576040517f08c379a0000000000000000000000000000000000000000000000000000000008152600401612f7f90613f7e565b60405180910390fd5b600060608673ffffffffffffffffffffffffffffffffffffffff168587604051612fb29190613b85565b60006040518083038185875af1925050503d8060008114612fef576040519150601f19603f3d011682016040523d82523d6000602084013e612ff4565b606091505b5091509150613004828286613023565b92505050949350505050565b600080823b905060008111915050919050565b6060831561303357829050613083565b6000835111156130465782518084602001fd5b816040517f08c379a000000000000000000000000000000000000000000000000000000000815260040161307a9190613d7c565b60405180910390fd5b9392505050565b6040518060a0016040528060008152602001600073ffffffffffffffffffffffffffffffffffffffff168152602001600073ffffffffffffffffffffffffffffffffffffffff168152602001600073ffffffffffffffffffffffffffffffffffffffff1681526020016130fb613101565b81525090565b6040518060200160405280600081525090565b60008135905061312381614317565b92915050565b60008151905061313881614317565b92915050565b60008151905061314d8161432e565b92915050565b60008135905061316281614345565b92915050565b60008151905061317781614345565b92915050565b60006020828403121561318f57600080fd5b600061319d84828501613129565b91505092915050565b6000602082840312156131b857600080fd5b60006131c68482850161313e565b91505092915050565b6000602082840312156131e157600080fd5b60006131ef84828501613153565b91505092915050565b60006020828403121561320a57600080fd5b600061321884828501613168565b91505092915050565b600080600080600060a0868803121561323957600080fd5b600061324788828901613153565b955050602061325888828901613114565b945050604061326988828901613153565b935050606061327a88828901613153565b925050608061328b88828901613114565b9150509295509295909350565b600080604083850312156132ab57600080fd5b60006132b985828601613153565b92505060206132ca85828601613153565b9150509250929050565b6132dd8161429d565b82525050565b6132ec8161421c565b82525050565b6132fb8161420a565b82525050565b61330a8161420a565b82525050565b6133198161422e565b82525050565b6133288161423a565b82525050565b6000613339826141d8565b61334381856141ee565b93506133538185602086016142d3565b80840191505092915050565b600061336a826141e3565b61337481856141f9565b93506133848185602086016142d3565b61338d81614306565b840191505092915050565b60006133a56013836141f9565b91507f4d75737420626520746f6b656e206f776e6572000000000000000000000000006000830152602082019050919050565b60006133e5601f836141f9565b91507f42696420696e76616c696420666f722073686172652073706c697474696e67006000830152602082019050919050565b60006134256027836141f9565b91507f43616e27742063616e63656c20616e2061756374696f6e206f6e63652069742760008301527f7320626567756e000000000000000000000000000000000000000000000000006020830152604082019050919050565b600061348b601b836141f9565b91507f536166654d6174683a206164646974696f6e206f766572666c6f7700000000006000830152602082019050919050565b60006134cb6025836141f9565b91507f43616e206f6e6c792062652063616c6c65642062792061756374696f6e20637260008301527f6561746f720000000000000000000000000000000000000000000000000000006020830152604082019050919050565b6000613531601e836141f9565b91507f536166654d6174683a207375627472616374696f6e206f766572666c6f7700006000830152602082019050919050565b60006135716026836141f9565b91507f416464726573733a20696e73756666696369656e742062616c616e636520666f60008301527f722063616c6c00000000000000000000000000000000000000000000000000006020830152604082019050919050565b60006135d76014836141f9565b91507f41756374696f6e206861736e277420626567756e0000000000000000000000006000830152602082019050919050565b6000613617601a836141f9565b91507f536166654d6174683a206469766973696f6e206279207a65726f0000000000006000830152602082019050919050565b6000613657601f836141f9565b91507f4d7573742073656e64206174206c6561737420726573657276655072696365006000830152602082019050919050565b6000613697601b836141f9565b91507f41756374696f6e2068617320616c7265616479207374617274656400000000006000830152602082019050919050565b60006136d76040836141f9565b91507f4d7573742073656e64206d6f7265207468616e206c617374206269642062792060008301527f6d696e426964496e6372656d656e7450657263656e7461676520616d6f756e746020830152604082019050919050565b600061373d6021836141f9565b91507f536166654d6174683a206d756c7469706c69636174696f6e206f766572666c6f60008301527f77000000000000000000000000000000000000000000000000000000000000006020830152604082019050919050565b60006137a36015836141f9565b91507f41756374696f6e20646f65736e277420657869737400000000000000000000006000830152602082019050919050565b60006137e36032836141f9565b91507f53656e74204554482056616c756520646f6573206e6f74206d6174636820737060008301527f656369666965642062696420616d6f756e7400000000000000000000000000006020830152604082019050919050565b6000613849601d836141f9565b91507f416464726573733a2063616c6c20746f206e6f6e2d636f6e74726163740000006000830152602082019050919050565b6000613889602a836141f9565b91507f5361666545524332303a204552433230206f7065726174696f6e20646964206e60008301527f6f742073756363656564000000000000000000000000000000000000000000006020830152604082019050919050565b60006138ef6018836141f9565b91507f41756374696f6e206861736e277420636f6d706c6574656400000000000000006000830152602082019050919050565b600061392f602d836141f9565b91507f43616c6c6572206d75737420626520617070726f766564206f72206f776e657260008301527f20666f7220746f6b656e206964000000000000000000000000000000000000006020830152604082019050919050565b6000613995601f836141f9565b91507f5265656e7472616e637947756172643a207265656e7472616e742063616c6c006000830152602082019050919050565b60006139d5600f836141f9565b91507f41756374696f6e206578706972656400000000000000000000000000000000006000830152602082019050919050565b6000613a15602f836141f9565b91507f746f6b656e436f6e747261637420646f6573206e6f7420737570706f7274204560008301527f524337323120696e7465726661636500000000000000000000000000000000006020830152604082019050919050565b6000613a7b6034836141f9565b91507f546f6b656e207472616e736665722063616c6c20646964206e6f74207472616e60008301527f7366657220657870656374656420616d6f756e740000000000000000000000006020830152604082019050919050565b60a082016000820151613aea6000850182613b58565b506020820151613afd60208501826132f2565b506040820151613b1060408501826132f2565b506060820151613b2360608501826132f2565b506080820151613b366080850182613b3c565b50505050565b602082016000820151613b526000850182613b58565b50505050565b613b6181614286565b82525050565b613b7081614286565b82525050565b613b7f81614290565b82525050565b6000613b91828461332e565b915081905092915050565b6000602082019050613bb16000830184613301565b92915050565b6000602082019050613bcc60008301846132d4565b92915050565b6000606082019050613be760008301866132d4565b613bf460208301856132d4565b613c016040830184613b67565b949350505050565b6000606082019050613c1e60008301866132d4565b613c2b6020830185613301565b613c386040830184613b67565b949350505050565b6000608082019050613c5560008301876132d4565b613c626020830186613b67565b613c6f6040830185613310565b613c7c6060830184613310565b95945050505050565b6000606082019050613c9a6000830186613301565b613ca760208301856132d4565b613cb46040830184613b67565b949350505050565b6000608082019050613cd16000830187613301565b613cde60208301866132d4565b613ceb6040830185613b67565b613cf86060830184613301565b95945050505050565b6000606082019050613d166000830186613301565b613d236020830185613301565b613d306040830184613b67565b949350505050565b6000604082019050613d4d6000830185613301565b613d5a6020830184613b67565b9392505050565b6000602082019050613d76600083018461331f565b92915050565b60006020820190508181036000830152613d96818461335f565b905092915050565b60006020820190508181036000830152613db781613398565b9050919050565b60006020820190508181036000830152613dd7816133d8565b9050919050565b60006020820190508181036000830152613df781613418565b9050919050565b60006020820190508181036000830152613e178161347e565b9050919050565b60006020820190508181036000830152613e37816134be565b9050919050565b60006020820190508181036000830152613e5781613524565b9050919050565b60006020820190508181036000830152613e7781613564565b9050919050565b60006020820190508181036000830152613e97816135ca565b9050919050565b60006020820190508181036000830152613eb78161360a565b9050919050565b60006020820190508181036000830152613ed78161364a565b9050919050565b60006020820190508181036000830152613ef78161368a565b9050919050565b60006020820190508181036000830152613f17816136ca565b9050919050565b60006020820190508181036000830152613f3781613730565b9050919050565b60006020820190508181036000830152613f5781613796565b9050919050565b60006020820190508181036000830152613f77816137d6565b9050919050565b60006020820190508181036000830152613f978161383c565b9050919050565b60006020820190508181036000830152613fb78161387c565b9050919050565b60006020820190508181036000830152613fd7816138e2565b9050919050565b60006020820190508181036000830152613ff781613922565b9050919050565b6000602082019050818103600083015261401781613988565b9050919050565b60006020820190508181036000830152614037816139c8565b9050919050565b6000602082019050818103600083015261405781613a08565b9050919050565b6000602082019050818103600083015261407781613a6e565b9050919050565b60006020820190506140936000830184613b67565b92915050565b6000610120820190506140af600083018c613b67565b6140bc602083018b613301565b6140c9604083018a613b67565b6140d66060830189613b67565b6140e36080830188613b67565b6140f060a0830187613b67565b6140fd60c0830186613301565b61410a60e08301856132e3565b614118610100830184613301565b9a9950505050505050505050565b600060c08201905061413b6000830185613b67565b6141486020830184613ad4565b9392505050565b60006040820190506141646000830185613b67565b6141716020830184613b67565b9392505050565b600060808201905061418d6000830187613b67565b61419a6020830186613b67565b6141a76040830185613301565b6141b46060830184613301565b95945050505050565b60006020820190506141d26000830184613b76565b92915050565b600081519050919050565b600081519050919050565b600081905092915050565b600082825260208201905092915050565b600061421582614266565b9050919050565b600061422782614266565b9050919050565b60008115159050919050565b60007fffffffff0000000000000000000000000000000000000000000000000000000082169050919050565b600073ffffffffffffffffffffffffffffffffffffffff82169050919050565b6000819050919050565b600060ff82169050919050565b60006142a8826142af565b9050919050565b60006142ba826142c1565b9050919050565b60006142cc82614266565b9050919050565b60005b838110156142f15780820151818401526020810190506142d6565b83811115614300576000848401525b50505050565b6000601f19601f8301169050919050565b6143208161420a565b811461432b57600080fd5b50565b6143378161422e565b811461434257600080fd5b50565b61434e81614286565b811461435957600080fd5b5056fea264697066735822122078828e36a5fe1519c4b48bfe6f0ae1bb5296a890ea865fc6414a6353eb3531be64736f6c63430006080033",
  "linkReferences": {},
  "deployedLinkReferences": {}
}