{
  "_format": "hh-sol-artifact-1",
  "contractName": "HouseDAOGovernance",
  "sourceName": "contracts/HouseDAOGovernance.sol",
  "abi": [
    {
      "inputs": [
        {
          "internalType": "address[]",
          "name": "heads",
          "type": "address[]"
        },
        {
          "internalType": "address",
          "name": "_governanceToken",
          "type": "address"
        },
        {
          "internalType": "uint256",
          "name": "_entryAmount",
          "type": "uint256"
        },
        {
          "internalType": "uint256",
          "name": "_proposalTime",
          "type": "uint256"
        },
        {
          "internalType": "uint256",
          "name": "_totalGovernanceSupply",
          "type": "uint256"
        },
        {
          "internalType": "uint256",
          "name": "_threshold",
          "type": "uint256"
        },
        {
          "internalType": "uint256",
          "name": "_minimumProposalAmount",
          "type": "uint256"
        },
        {
          "internalType": "uint256",
          "name": "_entryReward",
          "type": "uint256"
        },
        {
          "internalType": "address",
          "name": "_weth",
          "type": "address"
        }
      ],
      "stateMutability": "nonpayable",
      "type": "constructor"
    },
    {
      "anonymous": false,
      "inputs": [
        {
          "indexed": false,
          "internalType": "uint256",
          "name": "number",
          "type": "uint256"
        }
      ],
      "name": "ProposalCreated",
      "type": "event"
    },
    {
      "inputs": [],
      "name": "WETH",
      "outputs": [
        {
          "internalType": "address",
          "name": "",
          "type": "address"
        }
      ],
      "stateMutability": "view",
      "type": "function"
    },
    {
      "inputs": [
        {
          "internalType": "uint256",
          "name": "_contribution",
          "type": "uint256"
        }
      ],
      "name": "addMoreContribution",
      "outputs": [],
      "stateMutability": "nonpayable",
      "type": "function"
    },
    {
      "inputs": [
        {
          "internalType": "uint256",
          "name": "_threshold",
          "type": "uint256"
        }
      ],
      "name": "adminUpdateThreshold",
      "outputs": [],
      "stateMutability": "nonpayable",
      "type": "function"
    },
    {
      "inputs": [],
      "name": "balance",
      "outputs": [
        {
          "internalType": "uint256",
          "name": "",
          "type": "uint256"
        }
      ],
      "stateMutability": "view",
      "type": "function"
    },
    {
      "inputs": [
        {
          "internalType": "uint256",
          "name": "_proposalId",
          "type": "uint256"
        }
      ],
      "name": "cancelEnterDAO",
      "outputs": [],
      "stateMutability": "nonpayable",
      "type": "function"
    },
    {
      "inputs": [
        {
          "internalType": "uint256",
          "name": "_proposalId",
          "type": "uint256"
        }
      ],
      "name": "cancelProposal",
      "outputs": [],
      "stateMutability": "nonpayable",
      "type": "function"
    },
    {
      "inputs": [],
      "name": "entryAmount",
      "outputs": [
        {
          "internalType": "uint256",
          "name": "",
          "type": "uint256"
        }
      ],
      "stateMutability": "view",
      "type": "function"
    },
    {
      "inputs": [],
      "name": "entryReward",
      "outputs": [
        {
          "internalType": "uint256",
          "name": "",
          "type": "uint256"
        }
      ],
      "stateMutability": "view",
      "type": "function"
    },
    {
      "inputs": [
        {
          "internalType": "uint256",
          "name": "_proposalId",
          "type": "uint256"
        }
      ],
      "name": "executeChangeRoleProposal",
      "outputs": [],
      "stateMutability": "nonpayable",
      "type": "function"
    },
    {
      "inputs": [
        {
          "internalType": "uint256",
          "name": "_proposalId",
          "type": "uint256"
        }
      ],
      "name": "executeEnterDAOProposal",
      "outputs": [],
      "stateMutability": "nonpayable",
      "type": "function"
    },
    {
      "inputs": [
        {
          "internalType": "uint256",
          "name": "_proposalId",
          "type": "uint256"
        }
      ],
      "name": "executeFundingProposal",
      "outputs": [],
      "stateMutability": "nonpayable",
      "type": "function"
    },
    {
      "inputs": [],
      "name": "fundedProjects",
      "outputs": [
        {
          "internalType": "uint256",
          "name": "",
          "type": "uint256"
        }
      ],
      "stateMutability": "view",
      "type": "function"
    },
    {
      "inputs": [],
      "name": "governanceToken",
      "outputs": [
        {
          "internalType": "address",
          "name": "",
          "type": "address"
        }
      ],
      "stateMutability": "view",
      "type": "function"
    },
    {
      "inputs": [],
      "name": "gracePeriod",
      "outputs": [
        {
          "internalType": "uint256",
          "name": "",
          "type": "uint256"
        }
      ],
      "stateMutability": "view",
      "type": "function"
    },
    {
      "inputs": [
        {
          "internalType": "address",
          "name": "_member",
          "type": "address"
        },
        {
          "internalType": "uint256",
          "name": "_contribution",
          "type": "uint256"
        }
      ],
      "name": "headOfHouseEnterMember",
      "outputs": [],
      "stateMutability": "nonpayable",
      "type": "function"
    },
    {
      "inputs": [],
      "name": "init",
      "outputs": [],
      "stateMutability": "nonpayable",
      "type": "function"
    },
    {
      "inputs": [],
      "name": "initialized",
      "outputs": [
        {
          "internalType": "bool",
          "name": "",
          "type": "bool"
        }
      ],
      "stateMutability": "view",
      "type": "function"
    },
    {
      "inputs": [
        {
          "internalType": "uint256",
          "name": "_contribution",
          "type": "uint256"
        },
        {
          "components": [
            {
              "internalType": "bool",
              "name": "headOfHouse",
              "type": "bool"
            },
            {
              "internalType": "bool",
              "name": "member",
              "type": "bool"
            }
          ],
          "internalType": "struct IHouseDAO.Role",
          "name": "_role",
          "type": "tuple"
        }
      ],
      "name": "joinDAOProposal",
      "outputs": [],
      "stateMutability": "nonpayable",
      "type": "function"
    },
    {
      "inputs": [],
      "name": "memberCount",
      "outputs": [
        {
          "internalType": "uint256",
          "name": "",
          "type": "uint256"
        }
      ],
      "stateMutability": "view",
      "type": "function"
    },
    {
      "inputs": [
        {
          "internalType": "address",
          "name": "",
          "type": "address"
        }
      ],
      "name": "members",
      "outputs": [
        {
          "internalType": "uint256",
          "name": "shares",
          "type": "uint256"
        },
        {
          "components": [
            {
              "internalType": "bool",
              "name": "headOfHouse",
              "type": "bool"
            },
            {
              "internalType": "bool",
              "name": "member",
              "type": "bool"
            }
          ],
          "internalType": "struct IHouseDAO.Role",
          "name": "roles",
          "type": "tuple"
        },
        {
          "internalType": "bool",
          "name": "activeProposal",
          "type": "bool"
        }
      ],
      "stateMutability": "view",
      "type": "function"
    },
    {
      "inputs": [],
      "name": "minimumProposalAmount",
      "outputs": [
        {
          "internalType": "uint256",
          "name": "",
          "type": "uint256"
        }
      ],
      "stateMutability": "view",
      "type": "function"
    },
    {
      "inputs": [],
      "name": "name",
      "outputs": [
        {
          "internalType": "string",
          "name": "",
          "type": "string"
        }
      ],
      "stateMutability": "view",
      "type": "function"
    },
    {
      "inputs": [],
      "name": "proposalTime",
      "outputs": [
        {
          "internalType": "uint256",
          "name": "",
          "type": "uint256"
        }
      ],
      "stateMutability": "view",
      "type": "function"
    },
    {
      "inputs": [
        {
          "internalType": "uint256",
          "name": "",
          "type": "uint256"
        }
      ],
      "name": "proposals",
      "outputs": [
        {
          "internalType": "uint256",
          "name": "fundsRequested",
          "type": "uint256"
        },
        {
          "internalType": "uint8",
          "name": "proposalType",
          "type": "uint8"
        },
        {
          "internalType": "address",
          "name": "targetAddress",
          "type": "address"
        },
        {
          "components": [
            {
              "internalType": "bool",
              "name": "headOfHouse",
              "type": "bool"
            },
            {
              "internalType": "bool",
              "name": "member",
              "type": "bool"
            }
          ],
          "internalType": "struct IHouseDAO.Role",
          "name": "role",
          "type": "tuple"
        },
        {
          "internalType": "uint256",
          "name": "yesVotes",
          "type": "uint256"
        },
        {
          "internalType": "uint256",
          "name": "noVotes",
          "type": "uint256"
        },
        {
          "internalType": "bool",
          "name": "executed",
          "type": "bool"
        },
        {
          "internalType": "uint256",
          "name": "deadline",
          "type": "uint256"
        },
        {
          "internalType": "address",
          "name": "proposer",
          "type": "address"
        },
        {
          "internalType": "bool",
          "name": "canceled",
          "type": "bool"
        },
        {
          "internalType": "uint256",
          "name": "gracePeriod",
          "type": "uint256"
        }
      ],
      "stateMutability": "view",
      "type": "function"
    },
    {
      "inputs": [],
      "name": "remainingSupply",
      "outputs": [
        {
          "internalType": "uint256",
          "name": "",
          "type": "uint256"
        }
      ],
      "stateMutability": "view",
      "type": "function"
    },
    {
      "inputs": [
        {
          "internalType": "address",
          "name": "_nftAddress",
          "type": "address"
        },
        {
          "internalType": "uint256",
          "name": "_nftId",
          "type": "uint256"
        },
        {
          "internalType": "address",
          "name": "_recipient",
          "type": "address"
        }
      ],
      "name": "sendNFT",
      "outputs": [],
      "stateMutability": "nonpayable",
      "type": "function"
    },
    {
      "inputs": [
        {
          "internalType": "uint256",
          "name": "_proposalId",
          "type": "uint256"
        }
      ],
      "name": "startFundingProposalGracePeriod",
      "outputs": [],
      "stateMutability": "nonpayable",
      "type": "function"
    },
    {
      "inputs": [],
      "name": "submitModularProposal",
      "outputs": [],
      "stateMutability": "nonpayable",
      "type": "function"
    },
    {
      "inputs": [
        {
          "components": [
            {
              "internalType": "bool",
              "name": "headOfHouse",
              "type": "bool"
            },
            {
              "internalType": "bool",
              "name": "member",
              "type": "bool"
            }
          ],
          "internalType": "struct IHouseDAO.Role",
          "name": "_role",
          "type": "tuple"
        },
        {
          "internalType": "address",
          "name": "_recipient",
          "type": "address"
        },
        {
          "internalType": "uint256",
          "name": "_funding",
          "type": "uint256"
        },
        {
          "internalType": "uint8",
          "name": "_proposalType",
          "type": "uint8"
        }
      ],
      "name": "submitProposal",
      "outputs": [],
      "stateMutability": "nonpayable",
      "type": "function"
    },
    {
      "inputs": [],
      "name": "threshold",
      "outputs": [
        {
          "internalType": "uint256",
          "name": "",
          "type": "uint256"
        }
      ],
      "stateMutability": "view",
      "type": "function"
    },
    {
      "inputs": [],
      "name": "totalContribution",
      "outputs": [
        {
          "internalType": "uint256",
          "name": "",
          "type": "uint256"
        }
      ],
      "stateMutability": "view",
      "type": "function"
    },
    {
      "inputs": [],
      "name": "totalGovernanceSupply",
      "outputs": [
        {
          "internalType": "uint256",
          "name": "",
          "type": "uint256"
        }
      ],
      "stateMutability": "view",
      "type": "function"
    },
    {
      "inputs": [],
      "name": "totalProposalCount",
      "outputs": [
        {
          "internalType": "uint256",
          "name": "",
          "type": "uint256"
        }
      ],
      "stateMutability": "view",
      "type": "function"
    },
    {
      "inputs": [
        {
          "internalType": "uint256",
          "name": "_proposalId",
          "type": "uint256"
        },
        {
          "internalType": "bool",
          "name": "_vote",
          "type": "bool"
        }
      ],
      "name": "vote",
      "outputs": [],
      "stateMutability": "nonpayable",
      "type": "function"
    },
    {
      "inputs": [],
      "name": "withdraw",
      "outputs": [],
      "stateMutability": "nonpayable",
      "type": "function"
    }
  ],
  "bytecode": "0x60806040526203f4806007556000601260006101000a81548173ffffffffffffffffffffffffffffffffffffffff021916908373ffffffffffffffffffffffffffffffffffffffff1602179055503480156200005a57600080fd5b5060405162005ea138038062005ea183398181016040528101906200008091906200041a565b60005b89518110156200027757600073ffffffffffffffffffffffffffffffffffffffff168a8281518110620000df577f4e487b7100000000000000000000000000000000000000000000000000000000600052603260045260246000fd5b602002602001015173ffffffffffffffffffffffffffffffffffffffff1614156200010957600080fd5b6001600260008c848151811062000149577f4e487b7100000000000000000000000000000000000000000000000000000000600052603260045260246000fd5b602002602001015173ffffffffffffffffffffffffffffffffffffffff1673ffffffffffffffffffffffffffffffffffffffff16815260200190815260200160002060010160000160006101000a81548160ff0219169083151502179055506001600260008c8481518110620001e8577f4e487b7100000000000000000000000000000000000000000000000000000000600052603260045260246000fd5b602002602001015173ffffffffffffffffffffffffffffffffffffffff1673ffffffffffffffffffffffffffffffffffffffff16815260200190815260200160002060010160000160016101000a81548160ff021916908315150217905550600560008154809291906200025c906200060e565b919050555080806200026e906200060e565b91505062000083565b5087601160006101000a81548173ffffffffffffffffffffffffffffffffffffffff021916908373ffffffffffffffffffffffffffffffffffffffff16021790555086600b819055506201518086620002d191906200056f565b60068190555083600a8190555084600d8190555084600e8190555082600c8190555081600f8190555080601260006101000a81548173ffffffffffffffffffffffffffffffffffffffff021916908373ffffffffffffffffffffffffffffffffffffffff160217905550505050505050505050620006ee565b6000620003616200035b8462000540565b6200050c565b905080838252602082019050828560208602820111156200038157600080fd5b60005b85811015620003b557816200039a8882620003bf565b84526020840193506020830192505060018101905062000384565b5050509392505050565b600081519050620003d081620006ba565b92915050565b600082601f830112620003e857600080fd5b8151620003fa8482602086016200034a565b91505092915050565b6000815190506200041481620006d4565b92915050565b60008060008060008060008060006101208a8c0312156200043a57600080fd5b60008a015167ffffffffffffffff8111156200045557600080fd5b620004638c828d01620003d6565b9950506020620004768c828d01620003bf565b9850506040620004898c828d0162000403565b97505060606200049c8c828d0162000403565b9650506080620004af8c828d0162000403565b95505060a0620004c28c828d0162000403565b94505060c0620004d58c828d0162000403565b93505060e0620004e88c828d0162000403565b925050610100620004fc8c828d01620003bf565b9150509295985092959850929598565b6000604051905081810181811067ffffffffffffffff821117156200053657620005356200068b565b5b8060405250919050565b600067ffffffffffffffff8211156200055e576200055d6200068b565b5b602082029050602081019050919050565b60006200057c8262000604565b9150620005898362000604565b9250817fffffffffffffffffffffffffffffffffffffffffffffffffffffffffffffffff0483118215151615620005c557620005c46200065c565b5b828202905092915050565b6000620005dd82620005e4565b9050919050565b600073ffffffffffffffffffffffffffffffffffffffff82169050919050565b6000819050919050565b60006200061b8262000604565b91507fffffffffffffffffffffffffffffffffffffffffffffffffffffffffffffffff8214156200065157620006506200065c565b5b600182019050919050565b7f4e487b7100000000000000000000000000000000000000000000000000000000600052601160045260246000fd5b7f4e487b7100000000000000000000000000000000000000000000000000000000600052604160045260246000fd5b620006c581620005d0565b8114620006d157600080fd5b50565b620006df8162000604565b8114620006eb57600080fd5b50565b6157a380620006fe6000396000f3fe608060405234801561001057600080fd5b50600436106102115760003560e01c80637e44d78811610125578063b69ef8a8116100ad578063e0a8f6f51161007c578063e0a8f6f51461058a578063e1c7392a146105a6578063ead0eedf146105b0578063f96dae0a146105ce578063f99931f0146105ec57610211565b8063b69ef8a814610514578063c9d27afe14610532578063cd38b7721461054e578063da0239a61461056c57610211565b80639f23da67116100f45780639f23da6714610482578063a06db7dc1461049e578063a860bd4f146104bc578063ad15140c146104da578063ad5c4648146104f657610211565b80637e44d78814610410578063844ccf7d1461042c5780638c9f6bc314610448578063991def3c1461046457610211565b8063184a0ae9116101a857806342cde4e81161017757806342cde4e81461038257806349774ae2146103a057806354c37def146103bc5780635d3a8363146103d85780637aee47cf146103f457610211565b8063184a0ae914610334578063243a86af146103525780632947eac51461035c5780633ccfd60b1461037857610211565b80630dc30c7b116101e45780630dc30c7b146102be5780630dcf4b8f146102da57806311aee380146102f8578063158ef93e1461031657610211565b8063013cf08b1461021657806303d0f7201461025057806306fdde031461026e57806308ae4b0c1461028c575b600080fd5b610230600480360381019061022b91906141fe565b61060a565b6040516102479b9a99989796959493929190615333565b60405180910390f35b61025861070b565b60405161026591906152e1565b60405180910390f35b610276610711565b6040516102839190614e7f565b60405180910390f35b6102a660048036038101906102a191906140be565b61079f565b6040516102b5939291906152fc565b60405180910390f35b6102d860048036038101906102d391906141fe565b610816565b005b6102e2610aa3565b6040516102ef91906152e1565b60405180910390f35b610300610aa9565b60405161030d91906152e1565b60405180910390f35b61031e610aaf565b60405161032b9190614e64565b60405180910390f35b61033c610ac0565b60405161034991906152e1565b60405180910390f35b61035a610ac6565b005b6103766004803603810190610371919061428c565b610ac8565b005b6103806110fe565b005b61038a611451565b60405161039791906152e1565b60405180910390f35b6103ba60048036038101906103b591906141fe565b611457565b005b6103d660048036038101906103d191906141fe565b611a8d565b005b6103f260048036038101906103ed919061419b565b611ef3565b005b61040e600480360381019061040991906141fe565b6124cb565b005b61042a600480360381019061042591906141fe565b61256e565b005b61044660048036038101906104419190614123565b61280f565b005b610462600480360381019061045d91906140e7565b6129fc565b005b61046c613006565b60405161047991906152e1565b60405180910390f35b61049c600480360381019061049791906141fe565b61300c565b005b6104a6613320565b6040516104b391906152e1565b60405180910390f35b6104c4613326565b6040516104d191906152e1565b60405180910390f35b6104f460048036038101906104ef91906141fe565b61332c565b005b6104fe6136e3565b60405161050b9190614de9565b60405180910390f35b61051c613709565b60405161052991906152e1565b60405180910390f35b61054c60048036038101906105479190614250565b61370f565b005b610556613bd9565b60405161056391906152e1565b60405180910390f35b610574613bdf565b60405161058191906152e1565b60405180910390f35b6105a4600480360381019061059f91906141fe565b613be5565b005b6105ae613da1565b005b6105b8613f6a565b6040516105c591906152e1565b60405180910390f35b6105d6613f70565b6040516105e39190614de9565b60405180910390f35b6105f4613f96565b60405161060191906152e1565b60405180910390f35b60036020528060005260406000206000915090508060000154908060010160009054906101000a900460ff16908060010160019054906101000a900473ffffffffffffffffffffffffffffffffffffffff1690806002016040518060400160405290816000820160009054906101000a900460ff161515151581526020016000820160019054906101000a900460ff161515151581525050908060030154908060040154908060050160009054906101000a900460ff16908060060154908060070160009054906101000a900473ffffffffffffffffffffffffffffffffffffffff16908060070160149054906101000a900460ff1690806008015490508b565b60105481565b6001805461071e906155c9565b80601f016020809104026020016040519081016040528092919081815260200182805461074a906155c9565b80156107975780601f1061076c57610100808354040283529160200191610797565b820191906000526020600020905b81548152906001019060200180831161077a57829003601f168201915b505050505081565b6002602052806000526040600020600091509050806000015490806001016040518060400160405290816000820160009054906101000a900460ff161515151581526020016000820160019054906101000a900460ff161515151581525050908060020160009054906101000a900460ff16905083565b80600015156003600083815260200190815260200160002060070160149054906101000a900460ff16151514610881576040517f08c379a000000000000000000000000000000000000000000000000000000000815260040161087890615261565b60405180910390fd5b600015156003600083815260200190815260200160002060050160009054906101000a900460ff161515146108eb576040517f08c379a00000000000000000000000000000000000000000000000000000000081526004016108e2906152c1565b60405180910390fd5b600a5460036000838152602001908152602001600020600301541015610946576040517f08c379a000000000000000000000000000000000000000000000000000000000815260040161093d90614ea1565b60405180910390fd5b6003600082815260200190815260200160002060040154600360008381526020019081526020016000206003015410156109b5576040517f08c379a00000000000000000000000000000000000000000000000000000000081526004016109ac90615281565b60405180910390fd5b60006003600084815260200190815260200160002060010160009054906101000a900460ff1660ff1614610a1e576040517f08c379a0000000000000000000000000000000000000000000000000000000008152600401610a1590615221565b60405180910390fd5b6000600360008481526020019081526020016000206008015414610a77576040517f08c379a0000000000000000000000000000000000000000000000000000000008152600401610a6e90614f01565b60405180910390fd5b60075442610a85919061542c565b60036000848152602001908152602001600020600801819055505050565b60085481565b60055481565b60008054906101000a900460ff1681565b60065481565b565b60001515600260003373ffffffffffffffffffffffffffffffffffffffff1673ffffffffffffffffffffffffffffffffffffffff16815260200190815260200160002060010160000160019054906101000a900460ff16151514610b61576040517f08c379a0000000000000000000000000000000000000000000000000000000008152600401610b5890615201565b60405180910390fd5b600b54821015610ba6576040517f08c379a0000000000000000000000000000000000000000000000000000000008152600401610b9d90615161565b60405180910390fd5b81601260009054906101000a900473ffffffffffffffffffffffffffffffffffffffff1673ffffffffffffffffffffffffffffffffffffffff166370a08231336040518263ffffffff1660e01b8152600401610c029190614de9565b60206040518083038186803b158015610c1a57600080fd5b505afa158015610c2e573d6000803e3d6000fd5b505050506040513d601f19601f82011682018060405250810190610c529190614227565b1015610c93576040517f08c379a0000000000000000000000000000000000000000000000000000000008152600401610c8a90614ec1565b60405180910390fd5b600c54601160009054906101000a900473ffffffffffffffffffffffffffffffffffffffff1673ffffffffffffffffffffffffffffffffffffffff166370a08231336040518263ffffffff1660e01b8152600401610cf19190614de9565b60206040518083038186803b158015610d0957600080fd5b505afa158015610d1d573d6000803e3d6000fd5b505050506040513d601f19601f82011682018060405250810190610d419190614227565b1015610d82576040517f08c379a0000000000000000000000000000000000000000000000000000000008152600401610d7990615181565b60405180910390fd5b81600360006004548152602001908152602001600020600001819055508060036000600454815260200190815260200160002060020160008201518160000160006101000a81548160ff02191690831515021790555060208201518160000160016101000a81548160ff021916908315150217905550905050600260036000600454815260200190815260200160002060010160006101000a81548160ff021916908360ff160217905550601160009054906101000a900473ffffffffffffffffffffffffffffffffffffffff1673ffffffffffffffffffffffffffffffffffffffff166370a08231336040518263ffffffff1660e01b8152600401610e889190614de9565b60206040518083038186803b158015610ea057600080fd5b505afa158015610eb4573d6000803e3d6000fd5b505050506040513d601f19601f82011682018060405250810190610ed89190614227565b6003600060045481526020019081526020016000206003018190555060065442610f02919061542c565b600360006004548152602001908152602001600020600601819055503360036000600454815260200190815260200160002060070160006101000a81548173ffffffffffffffffffffffffffffffffffffffff021916908373ffffffffffffffffffffffffffffffffffffffff160217905550600160036000600454815260200190815260200160002060090160003373ffffffffffffffffffffffffffffffffffffffff1673ffffffffffffffffffffffffffffffffffffffff16815260200190815260200160002060006101000a81548160ff02191690831515021790555060046000815480929190610ff6906155fb565b9190505550601260009054906101000a900473ffffffffffffffffffffffffffffffffffffffff1673ffffffffffffffffffffffffffffffffffffffff166323b872dd3330856040518463ffffffff1660e01b815260040161105a93929190614e04565b602060405180830381600087803b15801561107457600080fd5b505af1158015611088573d6000803e3d6000fd5b505050506040513d601f19601f820116820180604052508101906110ac9190614172565b6110b557600080fd5b7fc2c021f5d73c63c481d336fbbafec58f694fc45095f00b02d2deb8cca59afe0760016004546110e5919061550d565b6040516110f291906152e1565b60405180910390a15050565b60011515600260003373ffffffffffffffffffffffffffffffffffffffff1673ffffffffffffffffffffffffffffffffffffffff16815260200190815260200160002060010160000160019054906101000a900460ff16151514611197576040517f08c379a000000000000000000000000000000000000000000000000000000000815260040161118e906150c1565b60405180910390fd5b6000600260003373ffffffffffffffffffffffffffffffffffffffff1673ffffffffffffffffffffffffffffffffffffffff168152602001908152602001600020600001541161121c576040517f08c379a000000000000000000000000000000000000000000000000000000000815260040161121390615121565b60405180910390fd5b600060095411611261576040517f08c379a0000000000000000000000000000000000000000000000000000000008152600401611258906151c1565b60405180910390fd5b60006112ba600954600260003373ffffffffffffffffffffffffffffffffffffffff1673ffffffffffffffffffffffffffffffffffffffff16815260200190815260200160002060000154613f9c90919063ffffffff16565b905060006112d360085483613fb290919063ffffffff16565b905061132c600260003373ffffffffffffffffffffffffffffffffffffffff1673ffffffffffffffffffffffffffffffffffffffff16815260200190815260200160002060000154600854613fc890919063ffffffff16565b6008819055506000600260003373ffffffffffffffffffffffffffffffffffffffff1673ffffffffffffffffffffffffffffffffffffffff1681526020019081526020016000206000018190555061138f81600954613fc890919063ffffffff16565b600981905550601260009054906101000a900473ffffffffffffffffffffffffffffffffffffffff1673ffffffffffffffffffffffffffffffffffffffff1663a9059cbb33836040518363ffffffff1660e01b81526004016113f2929190614e3b565b602060405180830381600087803b15801561140c57600080fd5b505af1158015611420573d6000803e3d6000fd5b505050506040513d601f19601f820116820180604052508101906114449190614172565b61144d57600080fd5b5050565b600a5481565b80600015156003600083815260200190815260200160002060070160149054906101000a900460ff161515146114c2576040517f08c379a00000000000000000000000000000000000000000000000000000000081526004016114b990615261565b60405180910390fd5b600015156003600083815260200190815260200160002060050160009054906101000a900460ff1615151461152c576040517f08c379a0000000000000000000000000000000000000000000000000000000008152600401611523906152c1565b60405180910390fd5b600a5460036000838152602001908152602001600020600301541015611587576040517f08c379a000000000000000000000000000000000000000000000000000000000815260040161157e90614ea1565b60405180910390fd5b6003600082815260200190815260200160002060040154600360008381526020019081526020016000206003015410156115f6576040517f08c379a00000000000000000000000000000000000000000000000000000000081526004016115ed90615281565b60405180910390fd5b60026003600084815260200190815260200160002060010160009054906101000a900460ff1660ff161461165f576040517f08c379a000000000000000000000000000000000000000000000000000000000815260040161165690614f21565b60405180910390fd5b6001600260006003600086815260200190815260200160002060070160009054906101000a900473ffffffffffffffffffffffffffffffffffffffff1673ffffffffffffffffffffffffffffffffffffffff1673ffffffffffffffffffffffffffffffffffffffff16815260200190815260200160002060010160000160016101000a81548160ff0219169083151502179055506003600083815260200190815260200160002060000154600260006003600086815260200190815260200160002060070160009054906101000a900473ffffffffffffffffffffffffffffffffffffffff1673ffffffffffffffffffffffffffffffffffffffff1673ffffffffffffffffffffffffffffffffffffffff1681526020019081526020016000206000018190555060016003600084815260200190815260200160002060050160006101000a81548160ff0219169083151502179055506000600260006003600086815260200190815260200160002060070160009054906101000a900473ffffffffffffffffffffffffffffffffffffffff1673ffffffffffffffffffffffffffffffffffffffff1673ffffffffffffffffffffffffffffffffffffffff16815260200190815260200160002060020160006101000a81548160ff0219169083151502179055506118716003600084815260200190815260200160002060000154600854613fde90919063ffffffff16565b6008819055506118a26003600084815260200190815260200160002060000154600954613fde90919063ffffffff16565b600981905550600560008154809291906118bb906155fb565b91905055506000600f5411801561197e5750601160009054906101000a900473ffffffffffffffffffffffffffffffffffffffff1673ffffffffffffffffffffffffffffffffffffffff166370a08231306040518263ffffffff1660e01b81526004016119289190614de9565b60206040518083038186803b15801561194057600080fd5b505afa158015611954573d6000803e3d6000fd5b505050506040513d601f19601f820116820180604052508101906119789190614227565b600f5411155b15611a895761199a600f54600e54613fc890919063ffffffff16565b600e81905550601160009054906101000a900473ffffffffffffffffffffffffffffffffffffffff1673ffffffffffffffffffffffffffffffffffffffff1663a9059cbb6003600085815260200190815260200160002060070160009054906101000a900473ffffffffffffffffffffffffffffffffffffffff16600f546040518363ffffffff1660e01b8152600401611a35929190614e3b565b602060405180830381600087803b158015611a4f57600080fd5b505af1158015611a63573d6000803e3d6000fd5b505050506040513d601f19601f82011682018060405250810190611a879190614172565b505b5050565b80600015156003600083815260200190815260200160002060070160149054906101000a900460ff16151514611af8576040517f08c379a0000000000000000000000000000000000000000000000000000000008152600401611aef90615261565b60405180910390fd5b600015156003600083815260200190815260200160002060050160009054906101000a900460ff16151514611b62576040517f08c379a0000000000000000000000000000000000000000000000000000000008152600401611b59906152c1565b60405180910390fd5b600a5460036000838152602001908152602001600020600301541015611bbd576040517f08c379a0000000000000000000000000000000000000000000000000000000008152600401611bb490614ea1565b60405180910390fd5b600360008281526020019081526020016000206004015460036000838152602001908152602001600020600301541015611c2c576040517f08c379a0000000000000000000000000000000000000000000000000000000008152600401611c2390615281565b60405180910390fd5b60036000838152602001908152602001600020600001546009541015611c87576040517f08c379a0000000000000000000000000000000000000000000000000000000008152600401611c7e90614fe1565b60405180910390fd5b6003600083815260200190815260200160002060080154421015611ce0576040517f08c379a0000000000000000000000000000000000000000000000000000000008152600401611cd7906151e1565b60405180910390fd5b611d0b6003600084815260200190815260200160002060000154600954613fc890919063ffffffff16565b6009819055506000600260006003600086815260200190815260200160002060070160009054906101000a900473ffffffffffffffffffffffffffffffffffffffff1673ffffffffffffffffffffffffffffffffffffffff1673ffffffffffffffffffffffffffffffffffffffff16815260200190815260200160002060020160006101000a81548160ff02191690831515021790555060016003600084815260200190815260200160002060050160006101000a81548160ff02191690831515021790555060106000815480929190611de4906155fb565b9190505550601260009054906101000a900473ffffffffffffffffffffffffffffffffffffffff1673ffffffffffffffffffffffffffffffffffffffff166323b872dd306003600086815260200190815260200160002060010160019054906101000a900473ffffffffffffffffffffffffffffffffffffffff1660036000878152602001908152602001600020600001546040518463ffffffff1660e01b8152600401611e9493929190614e04565b602060405180830381600087803b158015611eae57600080fd5b505af1158015611ec2573d6000803e3d6000fd5b505050506040513d601f19601f82011682018060405250810190611ee69190614172565b611eef57600080fd5b5050565b60011515600260003373ffffffffffffffffffffffffffffffffffffffff1673ffffffffffffffffffffffffffffffffffffffff16815260200190815260200160002060010160000160019054906101000a900460ff16151514611f8c576040517f08c379a0000000000000000000000000000000000000000000000000000000008152600401611f83906150c1565b60405180910390fd5b816009541015611fd1576040517f08c379a0000000000000000000000000000000000000000000000000000000008152600401611fc8906150e1565b60405180910390fd5b60001515600260003373ffffffffffffffffffffffffffffffffffffffff1673ffffffffffffffffffffffffffffffffffffffff16815260200190815260200160002060020160009054906101000a900460ff16151514612067576040517f08c379a000000000000000000000000000000000000000000000000000000000815260040161205e90615021565b60405180910390fd5b600c54601160009054906101000a900473ffffffffffffffffffffffffffffffffffffffff1673ffffffffffffffffffffffffffffffffffffffff166370a08231336040518263ffffffff1660e01b81526004016120c59190614de9565b60206040518083038186803b1580156120dd57600080fd5b505afa1580156120f1573d6000803e3d6000fd5b505050506040513d601f19601f820116820180604052508101906121159190614227565b1015612156576040517f08c379a000000000000000000000000000000000000000000000000000000000815260040161214d90615241565b60405180910390fd5b6001600260003373ffffffffffffffffffffffffffffffffffffffff1673ffffffffffffffffffffffffffffffffffffffff16815260200190815260200160002060020160006101000a81548160ff02191690831515021790555081600360006004548152602001908152602001600020600001819055508360036000600454815260200190815260200160002060020160008201518160000160006101000a81548160ff02191690831515021790555060208201518160000160016101000a81548160ff0219169083151502179055509050508060036000600454815260200190815260200160002060010160006101000a81548160ff021916908360ff160217905550601160009054906101000a900473ffffffffffffffffffffffffffffffffffffffff1673ffffffffffffffffffffffffffffffffffffffff166370a08231336040518263ffffffff1660e01b81526004016122b69190614de9565b60206040518083038186803b1580156122ce57600080fd5b505afa1580156122e2573d6000803e3d6000fd5b505050506040513d601f19601f820116820180604052508101906123069190614227565b6003600060045481526020019081526020016000206003018190555060065442612330919061542c565b600360006004548152602001908152602001600020600601819055503360036000600454815260200190815260200160002060070160006101000a81548173ffffffffffffffffffffffffffffffffffffffff021916908373ffffffffffffffffffffffffffffffffffffffff1602179055508260036000600454815260200190815260200160002060010160016101000a81548173ffffffffffffffffffffffffffffffffffffffff021916908373ffffffffffffffffffffffffffffffffffffffff160217905550600160036000600454815260200190815260200160002060090160003373ffffffffffffffffffffffffffffffffffffffff1673ffffffffffffffffffffffffffffffffffffffff16815260200190815260200160002060006101000a81548160ff0219169083151502179055506004600081548092919061247b906155fb565b91905055507fc2c021f5d73c63c481d336fbbafec58f694fc45095f00b02d2deb8cca59afe0760016004546124b0919061550d565b6040516124bd91906152e1565b60405180910390a150505050565b60011515600260003373ffffffffffffffffffffffffffffffffffffffff1673ffffffffffffffffffffffffffffffffffffffff16815260200190815260200160002060010160000160009054906101000a900460ff16151514612564576040517f08c379a000000000000000000000000000000000000000000000000000000000815260040161255b90615141565b60405180910390fd5b80600a8190555050565b600015156003600083815260200190815260200160002060070160149054906101000a900460ff161515146125d8576040517f08c379a00000000000000000000000000000000000000000000000000000000081526004016125cf90614fa1565b60405180910390fd5b600015156003600083815260200190815260200160002060050160009054906101000a900460ff16151514612642576040517f08c379a000000000000000000000000000000000000000000000000000000000815260040161263990615041565b60405180910390fd5b60016003600083815260200190815260200160002060070160146101000a81548160ff0219169083151502179055506000600260006003600085815260200190815260200160002060070160009054906101000a900473ffffffffffffffffffffffffffffffffffffffff1673ffffffffffffffffffffffffffffffffffffffff1673ffffffffffffffffffffffffffffffffffffffff16815260200190815260200160002060020160006101000a81548160ff021916908315150217905550601260009054906101000a900473ffffffffffffffffffffffffffffffffffffffff1673ffffffffffffffffffffffffffffffffffffffff166323b872dd3060036000600454815260200190815260200160002060010160019054906101000a900473ffffffffffffffffffffffffffffffffffffffff16600360006004548152602001908152602001600020600001546040518463ffffffff1660e01b81526004016127b193929190614e04565b602060405180830381600087803b1580156127cb57600080fd5b505af11580156127df573d6000803e3d6000fd5b505050506040513d601f19601f820116820180604052508101906128039190614172565b61280c57600080fd5b50565b60011515600260003373ffffffffffffffffffffffffffffffffffffffff1673ffffffffffffffffffffffffffffffffffffffff16815260200190815260200160002060010160000160009054906101000a900460ff161515146128a8576040517f08c379a000000000000000000000000000000000000000000000000000000000815260040161289f90615141565b60405180910390fd5b600073ffffffffffffffffffffffffffffffffffffffff168373ffffffffffffffffffffffffffffffffffffffff161415612918576040517f08c379a000000000000000000000000000000000000000000000000000000000815260040161290f90615101565b60405180910390fd5b600073ffffffffffffffffffffffffffffffffffffffff168173ffffffffffffffffffffffffffffffffffffffff161415612988576040517f08c379a000000000000000000000000000000000000000000000000000000000815260040161297f90614ee1565b60405180910390fd5b8273ffffffffffffffffffffffffffffffffffffffff166342842e0e3083856040518463ffffffff1660e01b81526004016129c593929190614e04565b600060405180830381600087803b1580156129df57600080fd5b505af11580156129f3573d6000803e3d6000fd5b50505050505050565b60011515600260003373ffffffffffffffffffffffffffffffffffffffff1673ffffffffffffffffffffffffffffffffffffffff16815260200190815260200160002060010160000160009054906101000a900460ff16151514612a95576040517f08c379a0000000000000000000000000000000000000000000000000000000008152600401612a8c90615141565b60405180910390fd5b600b54811015612ada576040517f08c379a0000000000000000000000000000000000000000000000000000000008152600401612ad1906152a1565b60405180910390fd5b80601260009054906101000a900473ffffffffffffffffffffffffffffffffffffffff1673ffffffffffffffffffffffffffffffffffffffff166370a08231336040518263ffffffff1660e01b8152600401612b369190614de9565b60206040518083038186803b158015612b4e57600080fd5b505afa158015612b62573d6000803e3d6000fd5b505050506040513d601f19601f82011682018060405250810190612b869190614227565b1015612bc7576040517f08c379a0000000000000000000000000000000000000000000000000000000008152600401612bbe90614f41565b60405180910390fd5b600c54601160009054906101000a900473ffffffffffffffffffffffffffffffffffffffff1673ffffffffffffffffffffffffffffffffffffffff166370a08231336040518263ffffffff1660e01b8152600401612c259190614de9565b60206040518083038186803b158015612c3d57600080fd5b505afa158015612c51573d6000803e3d6000fd5b505050506040513d601f19601f82011682018060405250810190612c759190614227565b1015612cb6576040517f08c379a0000000000000000000000000000000000000000000000000000000008152600401612cad906150a1565b60405180910390fd5b6001600260008473ffffffffffffffffffffffffffffffffffffffff1673ffffffffffffffffffffffffffffffffffffffff16815260200190815260200160002060010160000160016101000a81548160ff02191690831515021790555060056000815480929190612d27906155fb565b91905055506000600b541115612e395780600260008473ffffffffffffffffffffffffffffffffffffffff1673ffffffffffffffffffffffffffffffffffffffff16815260200190815260200160002060000181905550601260009054906101000a900473ffffffffffffffffffffffffffffffffffffffff1673ffffffffffffffffffffffffffffffffffffffff166323b872dd3330846040518463ffffffff1660e01b8152600401612ddd93929190614e04565b602060405180830381600087803b158015612df757600080fd5b505af1158015612e0b573d6000803e3d6000fd5b505050506040513d601f19601f82011682018060405250810190612e2f9190614172565b612e3857600080fd5b5b6000600f54118015612ef75750601160009054906101000a900473ffffffffffffffffffffffffffffffffffffffff1673ffffffffffffffffffffffffffffffffffffffff166370a08231306040518263ffffffff1660e01b8152600401612ea19190614de9565b60206040518083038186803b158015612eb957600080fd5b505afa158015612ecd573d6000803e3d6000fd5b505050506040513d601f19601f82011682018060405250810190612ef19190614227565b600f5411155b1561300257612f13600f54600e54613fc890919063ffffffff16565b600e81905550612f2e81600854613fde90919063ffffffff16565b600881905550612f4981600954613fde90919063ffffffff16565b600981905550601160009054906101000a900473ffffffffffffffffffffffffffffffffffffffff1673ffffffffffffffffffffffffffffffffffffffff1663a9059cbb83600f546040518363ffffffff1660e01b8152600401612fae929190614e3b565b602060405180830381600087803b158015612fc857600080fd5b505af1158015612fdc573d6000803e3d6000fd5b505050506040513d601f19601f820116820180604052508101906130009190614172565b505b5050565b600b5481565b60011515600260003373ffffffffffffffffffffffffffffffffffffffff1673ffffffffffffffffffffffffffffffffffffffff16815260200190815260200160002060010160000160019054906101000a900460ff161515146130a5576040517f08c379a000000000000000000000000000000000000000000000000000000000815260040161309c906150c1565b60405180910390fd5b80601260009054906101000a900473ffffffffffffffffffffffffffffffffffffffff1673ffffffffffffffffffffffffffffffffffffffff166370a08231336040518263ffffffff1660e01b81526004016131019190614de9565b60206040518083038186803b15801561311957600080fd5b505afa15801561312d573d6000803e3d6000fd5b505050506040513d601f19601f820116820180604052508101906131519190614227565b1015613192576040517f08c379a000000000000000000000000000000000000000000000000000000000815260040161318990614fc1565b60405180910390fd5b6131e781600260003373ffffffffffffffffffffffffffffffffffffffff1673ffffffffffffffffffffffffffffffffffffffff16815260200190815260200160002060000154613fde90919063ffffffff16565b600260003373ffffffffffffffffffffffffffffffffffffffff1673ffffffffffffffffffffffffffffffffffffffff1681526020019081526020016000206000018190555061324281600854613fde90919063ffffffff16565b60088190555061325d81600954613fde90919063ffffffff16565b600981905550601260009054906101000a900473ffffffffffffffffffffffffffffffffffffffff1673ffffffffffffffffffffffffffffffffffffffff166323b872dd3330846040518463ffffffff1660e01b81526004016132c293929190614e04565b602060405180830381600087803b1580156132dc57600080fd5b505af11580156132f0573d6000803e3d6000fd5b505050506040513d601f19601f820116820180604052508101906133149190614172565b61331d57600080fd5b50565b60075481565b600c5481565b80600015156003600083815260200190815260200160002060070160149054906101000a900460ff16151514613397576040517f08c379a000000000000000000000000000000000000000000000000000000000815260040161338e90615261565b60405180910390fd5b600015156003600083815260200190815260200160002060050160009054906101000a900460ff16151514613401576040517f08c379a00000000000000000000000000000000000000000000000000000000081526004016133f8906152c1565b60405180910390fd5b600a546003600083815260200190815260200160002060030154101561345c576040517f08c379a000000000000000000000000000000000000000000000000000000000815260040161345390614ea1565b60405180910390fd5b6003600082815260200190815260200160002060040154600360008381526020019081526020016000206003015410156134cb576040517f08c379a00000000000000000000000000000000000000000000000000000000081526004016134c290615281565b60405180910390fd5b60016003600084815260200190815260200160002060010160009054906101000a900460ff1660ff1614613534576040517f08c379a000000000000000000000000000000000000000000000000000000000815260040161352b90614f81565b60405180910390fd5b60036000838152602001908152602001600020600201600260006003600086815260200190815260200160002060010160019054906101000a900473ffffffffffffffffffffffffffffffffffffffff1673ffffffffffffffffffffffffffffffffffffffff1673ffffffffffffffffffffffffffffffffffffffff1681526020019081526020016000206001016000820160009054906101000a900460ff168160000160006101000a81548160ff0219169083151502179055506000820160019054906101000a900460ff168160000160016101000a81548160ff0219169083151502179055509050506000600260006003600086815260200190815260200160002060070160009054906101000a900473ffffffffffffffffffffffffffffffffffffffff1673ffffffffffffffffffffffffffffffffffffffff1673ffffffffffffffffffffffffffffffffffffffff16815260200190815260200160002060020160006101000a81548160ff02191690831515021790555060016003600084815260200190815260200160002060050160006101000a81548160ff0219169083151502179055505050565b601260009054906101000a900473ffffffffffffffffffffffffffffffffffffffff1681565b60095481565b60011515600260003373ffffffffffffffffffffffffffffffffffffffff1673ffffffffffffffffffffffffffffffffffffffff16815260200190815260200160002060010160000160019054906101000a900460ff161515146137a8576040517f08c379a000000000000000000000000000000000000000000000000000000000815260040161379f906150c1565b60405180910390fd5b600015156003600084815260200190815260200160002060090160003373ffffffffffffffffffffffffffffffffffffffff1673ffffffffffffffffffffffffffffffffffffffff16815260200190815260200160002060009054906101000a900460ff1615151461384f576040517f08c379a000000000000000000000000000000000000000000000000000000000815260040161384690614f61565b60405180910390fd5b600015156003600084815260200190815260200160002060070160149054906101000a900460ff161515146138b9576040517f08c379a00000000000000000000000000000000000000000000000000000000081526004016138b090615001565b60405180910390fd5b600015156003600084815260200190815260200160002060050160009054906101000a900460ff16151514613923576040517f08c379a000000000000000000000000000000000000000000000000000000000815260040161391a90615081565b60405180910390fd5b426003600084815260200190815260200160002060060154101561397c576040517f08c379a0000000000000000000000000000000000000000000000000000000008152600401613973906151a1565b60405180910390fd5b60016003600084815260200190815260200160002060090160003373ffffffffffffffffffffffffffffffffffffffff1673ffffffffffffffffffffffffffffffffffffffff16815260200190815260200160002060006101000a81548160ff021916908315150217905550600015158115151415613ae757613ac8601160009054906101000a900473ffffffffffffffffffffffffffffffffffffffff1673ffffffffffffffffffffffffffffffffffffffff166370a08231336040518263ffffffff1660e01b8152600401613a539190614de9565b60206040518083038186803b158015613a6b57600080fd5b505afa158015613a7f573d6000803e3d6000fd5b505050506040513d601f19601f82011682018060405250810190613aa39190614227565b6003600085815260200190815260200160002060040154613fde90919063ffffffff16565b6003600084815260200190815260200160002060040181905550613bd5565b613bba601160009054906101000a900473ffffffffffffffffffffffffffffffffffffffff1673ffffffffffffffffffffffffffffffffffffffff166370a08231336040518263ffffffff1660e01b8152600401613b459190614de9565b60206040518083038186803b158015613b5d57600080fd5b505afa158015613b71573d6000803e3d6000fd5b505050506040513d601f19601f82011682018060405250810190613b959190614227565b6003600085815260200190815260200160002060030154613fde90919063ffffffff16565b60036000848152602001908152602001600020600301819055505b5050565b600d5481565b600e5481565b600015156003600083815260200190815260200160002060070160149054906101000a900460ff16151514613c1957600080fd5b600015156003600083815260200190815260200160002060050160009054906101000a900460ff16151514613c4d57600080fd5b4260036000838152602001908152602001600020600601541015613c7057600080fd5b3373ffffffffffffffffffffffffffffffffffffffff166003600083815260200190815260200160002060070160009054906101000a900473ffffffffffffffffffffffffffffffffffffffff1673ffffffffffffffffffffffffffffffffffffffff1614613cde57600080fd5b60016003600083815260200190815260200160002060070160146101000a81548160ff0219169083151502179055506000600260006003600085815260200190815260200160002060070160009054906101000a900473ffffffffffffffffffffffffffffffffffffffff1673ffffffffffffffffffffffffffffffffffffffff1673ffffffffffffffffffffffffffffffffffffffff16815260200190815260200160002060020160006101000a81548160ff02191690831515021790555050565b60011515600260003373ffffffffffffffffffffffffffffffffffffffff1673ffffffffffffffffffffffffffffffffffffffff16815260200190815260200160002060010160000160009054906101000a900460ff16151514613e3a576040517f08c379a0000000000000000000000000000000000000000000000000000000008152600401613e3190615141565b60405180910390fd5b6000151560008054906101000a900460ff16151514613e8e576040517f08c379a0000000000000000000000000000000000000000000000000000000008152600401613e8590615061565b60405180910390fd5b60016000806101000a81548160ff0219169083151502179055506000600d541115613f6857601160009054906101000a900473ffffffffffffffffffffffffffffffffffffffff1673ffffffffffffffffffffffffffffffffffffffff166323b872dd3330600d546040518463ffffffff1660e01b8152600401613f1493929190614e04565b602060405180830381600087803b158015613f2e57600080fd5b505af1158015613f42573d6000803e3d6000fd5b505050506040513d601f19601f82011682018060405250810190613f669190614172565b505b565b60045481565b601160009054906101000a900473ffffffffffffffffffffffffffffffffffffffff1681565b600f5481565b60008183613faa91906154b3565b905092915050565b60008183613fc09190615482565b905092915050565b60008183613fd6919061550d565b905092915050565b60008183613fec919061542c565b905092915050565b60008135905061400381615711565b92915050565b60008135905061401881615728565b92915050565b60008151905061402d81615728565b92915050565b60006040828403121561404557600080fd5b61404f60406153df565b9050600061405f84828501614009565b600083015250602061407384828501614009565b60208301525092915050565b60008135905061408e8161573f565b92915050565b6000815190506140a38161573f565b92915050565b6000813590506140b881615756565b92915050565b6000602082840312156140d057600080fd5b60006140de84828501613ff4565b91505092915050565b600080604083850312156140fa57600080fd5b600061410885828601613ff4565b92505060206141198582860161407f565b9150509250929050565b60008060006060848603121561413857600080fd5b600061414686828701613ff4565b93505060206141578682870161407f565b925050604061416886828701613ff4565b9150509250925092565b60006020828403121561418457600080fd5b60006141928482850161401e565b91505092915050565b60008060008060a085870312156141b157600080fd5b60006141bf87828801614033565b94505060406141d087828801613ff4565b93505060606141e18782880161407f565b92505060806141f2878288016140a9565b91505092959194509250565b60006020828403121561421057600080fd5b600061421e8482850161407f565b91505092915050565b60006020828403121561423957600080fd5b600061424784828501614094565b91505092915050565b6000806040838503121561426357600080fd5b60006142718582860161407f565b925050602061428285828601614009565b9150509250929050565b6000806060838503121561429f57600080fd5b60006142ad8582860161407f565b92505060206142be85828601614033565b9150509250929050565b6142d181615541565b82525050565b6142e081615553565b82525050565b6142ef81615553565b82525050565b600061430082615410565b61430a818561541b565b935061431a818560208601615596565b61432381615700565b840191505092915050565b600061433b60288361541b565b91507f6368616e676520726f6c6520646f6573206e6f74206d65657420766f7465207460008301527f68726573686f6c640000000000000000000000000000000000000000000000006020830152604082019050919050565b60006143a160228361541b565b91507f70726f706f73657220646f6573206e6f74206861766520656e6f75676820776560008301527f74680000000000000000000000000000000000000000000000000000000000006020830152604082019050919050565b6000614407601a8361541b565b91507f5f726563697069656e742069732061646472657373207a65726f0000000000006000830152602082019050919050565b600061444760258361541b565b91507f70726f706f73616c20616c726561647920656e7465726564206772616365207060008301527f6572696f640000000000000000000000000000000000000000000000000000006020830152604082019050919050565b60006144ad601e8361541b565b91507f70726f706f73616c206973206e6f7420656e7465722064616f207479706500006000830152602082019050919050565b60006144ed60228361541b565b91507f73706f6e736f7220646f6573206e6f74206861766520636f6e7472696275746960008301527f6f6e0000000000000000000000000000000000000000000000000000000000006020830152604082019050919050565b6000614553600d8361541b565b91507f616c726561647920766f746564000000000000000000000000000000000000006000830152602082019050919050565b600061459360208361541b565b91507f70726f706f73616c206973206e6f74206368616e676520726f6c6520747970656000830152602082019050919050565b60006145d3601c8361541b565b91507f6a6f696e2064616f20697320616c72656164792063616e63656c6564000000006000830152602082019050919050565b600061461360208361541b565b91507f6d656d62657220646f6573206e6f74206861766520656e6f75676820776574686000830152602082019050919050565b600061465360278361541b565b91507f6e6f7420656e6f7567682066756e6473206f6e207468652044414f20746f206660008301527f696e616c697a65000000000000000000000000000000000000000000000000006020830152604082019050919050565b60006146b9601a8361541b565b91507f70726f706f73616c20686173206265656e2063616e63656c65640000000000006000830152602082019050919050565b60006146f960268361541b565b91507f6d656d656265722068617320616e206163746976652070726f706f73616c206160008301527f6c726561647900000000000000000000000000000000000000000000000000006020830152604082019050919050565b600061475f60228361541b565b91507f63616e6e6f742063616e63656c20616e206578656374757265206a6f696e206460008301527f616f0000000000000000000000000000000000000000000000000000000000006020830152604082019050919050565b60006147c560138361541b565b91507f616c726561647920696e697469616c697a6564000000000000000000000000006000830152602082019050919050565b6000614805601c8361541b565b91507f70726f706f73616c20697320616c7265616479206578656375746564000000006000830152602082019050919050565b600061484560278361541b565b91507f73706f6e736f7220646f6573206e6f74206861766520656e6f75676820676f7660008301527f20746f6b656e73000000000000000000000000000000000000000000000000006020830152604082019050919050565b60006148ab600c8361541b565b91507f6e6f742061206d656d62657200000000000000000000000000000000000000006000830152602082019050919050565b60006148eb60318361541b565b91507f6d6f72652066756e6473206172652072657175657374207468616e207468652060008301527f44414f2063757272656e746c79206861730000000000000000000000000000006020830152604082019050919050565b600061495160138361541b565b91507f6e66742061646472657373206973207a65726f000000000000000000000000006000830152602082019050919050565b600061499160228361541b565b91507f6e6f206d656d62657220636f6e747269627574696f6e20746f2077697468647260008301527f61770000000000000000000000000000000000000000000000000000000000006020830152604082019050919050565b60006149f760138361541b565b91507f6e6f7420612068656164206f6620686f757365000000000000000000000000006000830152602082019050919050565b6000614a3760278361541b565b91507f636f6e747269627574696f6e206973206e6f7420686967686572207468616e2060008301527f6d696e696d756d000000000000000000000000000000000000000000000000006020830152604082019050919050565b6000614a9d60288361541b565b91507f6a6f696e2064616f20646f6573206e6f74206861766520656e6f75676820676f60008301527f7620746f6b656e730000000000000000000000000000000000000000000000006020830152604082019050919050565b6000614b03601d8361541b565b91507f70726f706f73616c20697320706173742074686520646561646c696e650000006000830152602082019050919050565b6000614b4360138361541b565b91507f6e6f7468696e6720746f207769746864726177000000000000000000000000006000830152602082019050919050565b6000614b83601c8361541b565b91507f677261636520706572696f6420686173206e6f7420656c6170736564000000006000830152602082019050919050565b6000614bc360108361541b565b91507f616c72656164792061206d656d626572000000000000000000000000000000006000830152602082019050919050565b6000614c03601e8361541b565b91507f70726f706f73616c206973206e6f7420612066756e64696e67207479706500006000830152602082019050919050565b6000614c43602f8361541b565b91507f7375626d69742070726f706f73616c20646f6573206e6f74206861766520656e60008301527f6f75676820676f7620746f6b656e7300000000000000000000000000000000006020830152604082019050919050565b6000614ca960158361541b565b91507f70726f706f73616c207761732063616e63656c656400000000000000000000006000830152602082019050919050565b6000614ce960158361541b565b91507f6e6f20766f746573206f757477656967682079657300000000000000000000006000830152602082019050919050565b6000614d29601b8361541b565b91507f4865616420646964206e6f742073706f6e736f7220656e6f75676800000000006000830152602082019050919050565b6000614d6960198361541b565b91507f70726f706f73616c20616c7265616479206578656375746564000000000000006000830152602082019050919050565b604082016000820151614db260008501826142d7565b506020820151614dc560208501826142d7565b50505050565b614dd48161557f565b82525050565b614de381615589565b82525050565b6000602082019050614dfe60008301846142c8565b92915050565b6000606082019050614e1960008301866142c8565b614e2660208301856142c8565b614e336040830184614dcb565b949350505050565b6000604082019050614e5060008301856142c8565b614e5d6020830184614dcb565b9392505050565b6000602082019050614e7960008301846142e6565b92915050565b60006020820190508181036000830152614e9981846142f5565b905092915050565b60006020820190508181036000830152614eba8161432e565b9050919050565b60006020820190508181036000830152614eda81614394565b9050919050565b60006020820190508181036000830152614efa816143fa565b9050919050565b60006020820190508181036000830152614f1a8161443a565b9050919050565b60006020820190508181036000830152614f3a816144a0565b9050919050565b60006020820190508181036000830152614f5a816144e0565b9050919050565b60006020820190508181036000830152614f7a81614546565b9050919050565b60006020820190508181036000830152614f9a81614586565b9050919050565b60006020820190508181036000830152614fba816145c6565b9050919050565b60006020820190508181036000830152614fda81614606565b9050919050565b60006020820190508181036000830152614ffa81614646565b9050919050565b6000602082019050818103600083015261501a816146ac565b9050919050565b6000602082019050818103600083015261503a816146ec565b9050919050565b6000602082019050818103600083015261505a81614752565b9050919050565b6000602082019050818103600083015261507a816147b8565b9050919050565b6000602082019050818103600083015261509a816147f8565b9050919050565b600060208201905081810360008301526150ba81614838565b9050919050565b600060208201905081810360008301526150da8161489e565b9050919050565b600060208201905081810360008301526150fa816148de565b9050919050565b6000602082019050818103600083015261511a81614944565b9050919050565b6000602082019050818103600083015261513a81614984565b9050919050565b6000602082019050818103600083015261515a816149ea565b9050919050565b6000602082019050818103600083015261517a81614a2a565b9050919050565b6000602082019050818103600083015261519a81614a90565b9050919050565b600060208201905081810360008301526151ba81614af6565b9050919050565b600060208201905081810360008301526151da81614b36565b9050919050565b600060208201905081810360008301526151fa81614b76565b9050919050565b6000602082019050818103600083015261521a81614bb6565b9050919050565b6000602082019050818103600083015261523a81614bf6565b9050919050565b6000602082019050818103600083015261525a81614c36565b9050919050565b6000602082019050818103600083015261527a81614c9c565b9050919050565b6000602082019050818103600083015261529a81614cdc565b9050919050565b600060208201905081810360008301526152ba81614d1c565b9050919050565b600060208201905081810360008301526152da81614d5c565b9050919050565b60006020820190506152f66000830184614dcb565b92915050565b60006080820190506153116000830186614dcb565b61531e6020830185614d9c565b61532b60608301846142e6565b949350505050565b600061018082019050615349600083018e614dcb565b615356602083018d614dda565b615363604083018c6142c8565b615370606083018b614d9c565b61537d60a083018a614dcb565b61538a60c0830189614dcb565b61539760e08301886142e6565b6153a5610100830187614dcb565b6153b36101208301866142c8565b6153c16101408301856142e6565b6153cf610160830184614dcb565b9c9b505050505050505050505050565b6000604051905081810181811067ffffffffffffffff82111715615406576154056156d1565b5b8060405250919050565b600081519050919050565b600082825260208201905092915050565b60006154378261557f565b91506154428361557f565b9250827fffffffffffffffffffffffffffffffffffffffffffffffffffffffffffffffff0382111561547757615476615644565b5b828201905092915050565b600061548d8261557f565b91506154988361557f565b9250826154a8576154a7615673565b5b828204905092915050565b60006154be8261557f565b91506154c98361557f565b9250817fffffffffffffffffffffffffffffffffffffffffffffffffffffffffffffffff048311821515161561550257615501615644565b5b828202905092915050565b60006155188261557f565b91506155238361557f565b92508282101561553657615535615644565b5b828203905092915050565b600061554c8261555f565b9050919050565b60008115159050919050565b600073ffffffffffffffffffffffffffffffffffffffff82169050919050565b6000819050919050565b600060ff82169050919050565b60005b838110156155b4578082015181840152602081019050615599565b838111156155c3576000848401525b50505050565b600060028204905060018216806155e157607f821691505b602082108114156155f5576155f46156a2565b5b50919050565b60006156068261557f565b91507fffffffffffffffffffffffffffffffffffffffffffffffffffffffffffffffff82141561563957615638615644565b5b600182019050919050565b7f4e487b7100000000000000000000000000000000000000000000000000000000600052601160045260246000fd5b7f4e487b7100000000000000000000000000000000000000000000000000000000600052601260045260246000fd5b7f4e487b7100000000000000000000000000000000000000000000000000000000600052602260045260246000fd5b7f4e487b7100000000000000000000000000000000000000000000000000000000600052604160045260246000fd5b6000601f19601f8301169050919050565b61571a81615541565b811461572557600080fd5b50565b61573181615553565b811461573c57600080fd5b50565b6157488161557f565b811461575357600080fd5b50565b61575f81615589565b811461576a57600080fd5b5056fea264697066735822122039df82d6a0ab203506243040c22816dcacffc21cd7176a75397afd11a1c3d55f64736f6c63430008000033",
  "linkReferences": {},
  "deployedLinkReferences": {}
}