{
  "_format": "hh-sol-artifact-1",
  "contractName": "HouseDAOGovernance",
  "sourceName": "contracts/HouseDAOGovernance.sol",
  "abi": [
    {
      "inputs": [
        {
          "internalType": "address[]",
          "name": "heads",
          "type": "address[]"
        },
        {
          "internalType": "address",
          "name": "_governanceToken",
          "type": "address"
        },
        {
          "internalType": "uint256",
          "name": "_proposalTime",
          "type": "uint256"
        },
        {
          "internalType": "uint256",
          "name": "_daoGovernanceSupply",
          "type": "uint256"
        },
        {
          "internalType": "uint256",
          "name": "_threshold",
          "type": "uint256"
        },
        {
          "internalType": "uint256",
          "name": "_minimumProposalAmount",
          "type": "uint256"
        },
        {
          "internalType": "address",
          "name": "_weth",
          "type": "address"
        }
      ],
      "stateMutability": "nonpayable",
      "type": "constructor"
    },
    {
      "anonymous": false,
      "inputs": [
        {
          "indexed": false,
          "internalType": "uint256",
          "name": "endDate",
          "type": "uint256"
        }
      ],
      "name": "GracePeriodStarted",
      "type": "event"
    },
    {
      "anonymous": false,
      "inputs": [
        {
          "indexed": false,
          "internalType": "uint256",
          "name": "number",
          "type": "uint256"
        }
      ],
      "name": "ProposalCreated",
      "type": "event"
    },
    {
      "inputs": [],
      "name": "WETH",
      "outputs": [
        {
          "internalType": "address",
          "name": "",
          "type": "address"
        }
      ],
      "stateMutability": "view",
      "type": "function"
    },
    {
      "inputs": [
        {
          "internalType": "uint256",
          "name": "_amount",
          "type": "uint256"
        }
      ],
      "name": "addGovernanceTokens",
      "outputs": [],
      "stateMutability": "nonpayable",
      "type": "function"
    },
    {
      "inputs": [
        {
          "internalType": "address",
          "name": "_currency",
          "type": "address"
        },
        {
          "internalType": "uint256",
          "name": "_amount",
          "type": "uint256"
        }
      ],
      "name": "adminSendFunds",
      "outputs": [],
      "stateMutability": "nonpayable",
      "type": "function"
    },
    {
      "inputs": [
        {
          "internalType": "uint256",
          "name": "_minimumProposalAmount",
          "type": "uint256"
        }
      ],
      "name": "adminUpdateMinimumProposalAmount",
      "outputs": [],
      "stateMutability": "nonpayable",
      "type": "function"
    },
    {
      "inputs": [
        {
          "internalType": "uint256",
          "name": "_threshold",
          "type": "uint256"
        }
      ],
      "name": "adminUpdateThreshold",
      "outputs": [],
      "stateMutability": "nonpayable",
      "type": "function"
    },
    {
      "inputs": [],
      "name": "balance",
      "outputs": [
        {
          "internalType": "uint256",
          "name": "",
          "type": "uint256"
        }
      ],
      "stateMutability": "view",
      "type": "function"
    },
    {
      "inputs": [
        {
          "internalType": "uint256",
          "name": "_proposalId",
          "type": "uint256"
        }
      ],
      "name": "cancelEnterDAO",
      "outputs": [],
      "stateMutability": "nonpayable",
      "type": "function"
    },
    {
      "inputs": [
        {
          "internalType": "uint256",
          "name": "_proposalId",
          "type": "uint256"
        }
      ],
      "name": "cancelProposal",
      "outputs": [],
      "stateMutability": "nonpayable",
      "type": "function"
    },
    {
      "inputs": [
        {
          "internalType": "uint256",
          "name": "_contribution",
          "type": "uint256"
        }
      ],
      "name": "contribute",
      "outputs": [],
      "stateMutability": "nonpayable",
      "type": "function"
    },
    {
      "inputs": [],
      "name": "daoGovernanceSupply",
      "outputs": [
        {
          "internalType": "uint256",
          "name": "",
          "type": "uint256"
        }
      ],
      "stateMutability": "view",
      "type": "function"
    },
    {
      "inputs": [
        {
          "internalType": "uint256",
          "name": "_proposalId",
          "type": "uint256"
        }
      ],
      "name": "executeChangeRoleProposal",
      "outputs": [],
      "stateMutability": "nonpayable",
      "type": "function"
    },
    {
      "inputs": [
        {
          "internalType": "uint256",
          "name": "_proposalId",
          "type": "uint256"
        }
      ],
      "name": "executeEnterDAOProposal",
      "outputs": [],
      "stateMutability": "nonpayable",
      "type": "function"
    },
    {
      "inputs": [
        {
          "internalType": "uint256",
          "name": "_proposalId",
          "type": "uint256"
        }
      ],
      "name": "executeFundingProposal",
      "outputs": [],
      "stateMutability": "nonpayable",
      "type": "function"
    },
    {
      "inputs": [],
      "name": "fundedProjects",
      "outputs": [
        {
          "internalType": "uint256",
          "name": "",
          "type": "uint256"
        }
      ],
      "stateMutability": "view",
      "type": "function"
    },
    {
      "inputs": [],
      "name": "governanceToken",
      "outputs": [
        {
          "internalType": "address",
          "name": "",
          "type": "address"
        }
      ],
      "stateMutability": "view",
      "type": "function"
    },
    {
      "inputs": [],
      "name": "gracePeriod",
      "outputs": [
        {
          "internalType": "uint256",
          "name": "",
          "type": "uint256"
        }
      ],
      "stateMutability": "view",
      "type": "function"
    },
    {
      "inputs": [
        {
          "internalType": "address",
          "name": "_member",
          "type": "address"
        }
      ],
      "name": "headOfHouseEnterMember",
      "outputs": [],
      "stateMutability": "nonpayable",
      "type": "function"
    },
    {
      "inputs": [],
      "name": "init",
      "outputs": [],
      "stateMutability": "nonpayable",
      "type": "function"
    },
    {
      "inputs": [],
      "name": "initialized",
      "outputs": [
        {
          "internalType": "bool",
          "name": "",
          "type": "bool"
        }
      ],
      "stateMutability": "view",
      "type": "function"
    },
    {
      "inputs": [
        {
          "components": [
            {
              "internalType": "bool",
              "name": "headOfHouse",
              "type": "bool"
            },
            {
              "internalType": "bool",
              "name": "member",
              "type": "bool"
            }
          ],
          "internalType": "struct IHouseDAO.Role",
          "name": "_role",
          "type": "tuple"
        }
      ],
      "name": "joinDAOProposal",
      "outputs": [],
      "stateMutability": "nonpayable",
      "type": "function"
    },
    {
      "inputs": [],
      "name": "memberCount",
      "outputs": [
        {
          "internalType": "uint256",
          "name": "",
          "type": "uint256"
        }
      ],
      "stateMutability": "view",
      "type": "function"
    },
    {
      "inputs": [
        {
          "internalType": "address",
          "name": "",
          "type": "address"
        }
      ],
      "name": "members",
      "outputs": [
        {
          "internalType": "uint256",
          "name": "shares",
          "type": "uint256"
        },
        {
          "components": [
            {
              "internalType": "bool",
              "name": "headOfHouse",
              "type": "bool"
            },
            {
              "internalType": "bool",
              "name": "member",
              "type": "bool"
            }
          ],
          "internalType": "struct IHouseDAO.Role",
          "name": "roles",
          "type": "tuple"
        },
        {
          "internalType": "bool",
          "name": "activeProposal",
          "type": "bool"
        }
      ],
      "stateMutability": "view",
      "type": "function"
    },
    {
      "inputs": [],
      "name": "minimumProposalAmount",
      "outputs": [
        {
          "internalType": "uint256",
          "name": "",
          "type": "uint256"
        }
      ],
      "stateMutability": "view",
      "type": "function"
    },
    {
      "inputs": [],
      "name": "name",
      "outputs": [
        {
          "internalType": "string",
          "name": "",
          "type": "string"
        }
      ],
      "stateMutability": "view",
      "type": "function"
    },
    {
      "inputs": [],
      "name": "proposalTime",
      "outputs": [
        {
          "internalType": "uint256",
          "name": "",
          "type": "uint256"
        }
      ],
      "stateMutability": "view",
      "type": "function"
    },
    {
      "inputs": [
        {
          "internalType": "uint256",
          "name": "",
          "type": "uint256"
        }
      ],
      "name": "proposals",
      "outputs": [
        {
          "internalType": "uint256",
          "name": "fundsRequested",
          "type": "uint256"
        },
        {
          "internalType": "uint8",
          "name": "proposalType",
          "type": "uint8"
        },
        {
          "internalType": "address",
          "name": "targetAddress",
          "type": "address"
        },
        {
          "components": [
            {
              "internalType": "bool",
              "name": "headOfHouse",
              "type": "bool"
            },
            {
              "internalType": "bool",
              "name": "member",
              "type": "bool"
            }
          ],
          "internalType": "struct IHouseDAO.Role",
          "name": "role",
          "type": "tuple"
        },
        {
          "internalType": "uint256",
          "name": "yesVotes",
          "type": "uint256"
        },
        {
          "internalType": "uint256",
          "name": "noVotes",
          "type": "uint256"
        },
        {
          "internalType": "bool",
          "name": "executed",
          "type": "bool"
        },
        {
          "internalType": "uint256",
          "name": "deadline",
          "type": "uint256"
        },
        {
          "internalType": "address",
          "name": "proposer",
          "type": "address"
        },
        {
          "internalType": "bool",
          "name": "canceled",
          "type": "bool"
        },
        {
          "internalType": "uint256",
          "name": "gracePeriod",
          "type": "uint256"
        }
      ],
      "stateMutability": "view",
      "type": "function"
    },
    {
      "inputs": [
        {
          "internalType": "address",
          "name": "_nftAddress",
          "type": "address"
        },
        {
          "internalType": "uint256",
          "name": "_nftId",
          "type": "uint256"
        },
        {
          "internalType": "address",
          "name": "_recipient",
          "type": "address"
        }
      ],
      "name": "sendNFT",
      "outputs": [],
      "stateMutability": "nonpayable",
      "type": "function"
    },
    {
      "inputs": [
        {
          "internalType": "uint256",
          "name": "_proposalId",
          "type": "uint256"
        }
      ],
      "name": "startFundingProposalGracePeriod",
      "outputs": [],
      "stateMutability": "nonpayable",
      "type": "function"
    },
    {
      "inputs": [
        {
          "internalType": "uint256",
          "name": "_proposalId",
          "type": "uint256"
        }
      ],
      "name": "startRoleProposalGracePeriod",
      "outputs": [],
      "stateMutability": "nonpayable",
      "type": "function"
    },
    {
      "inputs": [],
      "name": "submitModularProposal",
      "outputs": [],
      "stateMutability": "nonpayable",
      "type": "function"
    },
    {
      "inputs": [
        {
          "components": [
            {
              "internalType": "bool",
              "name": "headOfHouse",
              "type": "bool"
            },
            {
              "internalType": "bool",
              "name": "member",
              "type": "bool"
            }
          ],
          "internalType": "struct IHouseDAO.Role",
          "name": "_role",
          "type": "tuple"
        },
        {
          "internalType": "address",
          "name": "_recipient",
          "type": "address"
        },
        {
          "internalType": "uint256",
          "name": "_funding",
          "type": "uint256"
        },
        {
          "internalType": "uint8",
          "name": "_proposalType",
          "type": "uint8"
        }
      ],
      "name": "submitProposal",
      "outputs": [],
      "stateMutability": "nonpayable",
      "type": "function"
    },
    {
      "inputs": [],
      "name": "threshold",
      "outputs": [
        {
          "internalType": "uint256",
          "name": "",
          "type": "uint256"
        }
      ],
      "stateMutability": "view",
      "type": "function"
    },
    {
      "inputs": [],
      "name": "totalContribution",
      "outputs": [
        {
          "internalType": "uint256",
          "name": "",
          "type": "uint256"
        }
      ],
      "stateMutability": "view",
      "type": "function"
    },
    {
      "inputs": [],
      "name": "totalProposalCount",
      "outputs": [
        {
          "internalType": "uint256",
          "name": "",
          "type": "uint256"
        }
      ],
      "stateMutability": "view",
      "type": "function"
    },
    {
      "inputs": [
        {
          "internalType": "uint256",
          "name": "_proposalId",
          "type": "uint256"
        },
        {
          "internalType": "bool",
          "name": "_vote",
          "type": "bool"
        }
      ],
      "name": "vote",
      "outputs": [],
      "stateMutability": "nonpayable",
      "type": "function"
    },
    {
      "inputs": [],
      "name": "withdraw",
      "outputs": [],
      "stateMutability": "nonpayable",
      "type": "function"
    }
  ],
  "bytecode": "0x608060405260b46007556000600f60006101000a81548173ffffffffffffffffffffffffffffffffffffffff021916908373ffffffffffffffffffffffffffffffffffffffff1602179055503480156200005857600080fd5b5060405162005d4838038062005d4883398181016040528101906200007e9190620003ff565b60005b87518110156200027557600073ffffffffffffffffffffffffffffffffffffffff16888281518110620000dd577f4e487b7100000000000000000000000000000000000000000000000000000000600052603260045260246000fd5b602002602001015173ffffffffffffffffffffffffffffffffffffffff1614156200010757600080fd5b6001600260008a848151811062000147577f4e487b7100000000000000000000000000000000000000000000000000000000600052603260045260246000fd5b602002602001015173ffffffffffffffffffffffffffffffffffffffff1673ffffffffffffffffffffffffffffffffffffffff16815260200190815260200160002060010160000160006101000a81548160ff0219169083151502179055506001600260008a8481518110620001e6577f4e487b7100000000000000000000000000000000000000000000000000000000600052603260045260246000fd5b602002602001015173ffffffffffffffffffffffffffffffffffffffff1673ffffffffffffffffffffffffffffffffffffffff16815260200190815260200160002060010160000160016101000a81548160ff021916908315150217905550600560008154809291906200025a90620005c7565b919050555080806200026c90620005c7565b91505062000081565b5085600e60006101000a81548173ffffffffffffffffffffffffffffffffffffffff021916908373ffffffffffffffffffffffffffffffffffffffff160217905550603c85620002c6919062000528565b60068190555082600a8190555083600c8190555081600b8190555080600f60006101000a81548173ffffffffffffffffffffffffffffffffffffffff021916908373ffffffffffffffffffffffffffffffffffffffff16021790555050505050505050620006a7565b6000620003466200034084620004f9565b620004c5565b905080838252602082019050828560208602820111156200036657600080fd5b60005b858110156200039a57816200037f8882620003a4565b84526020840193506020830192505060018101905062000369565b5050509392505050565b600081519050620003b58162000673565b92915050565b600082601f830112620003cd57600080fd5b8151620003df8482602086016200032f565b91505092915050565b600081519050620003f9816200068d565b92915050565b600080600080600080600060e0888a0312156200041b57600080fd5b600088015167ffffffffffffffff8111156200043657600080fd5b620004448a828b01620003bb565b9750506020620004578a828b01620003a4565b96505060406200046a8a828b01620003e8565b95505060606200047d8a828b01620003e8565b9450506080620004908a828b01620003e8565b93505060a0620004a38a828b01620003e8565b92505060c0620004b68a828b01620003a4565b91505092959891949750929550565b6000604051905081810181811067ffffffffffffffff82111715620004ef57620004ee62000644565b5b8060405250919050565b600067ffffffffffffffff82111562000517576200051662000644565b5b602082029050602081019050919050565b60006200053582620005bd565b91506200054283620005bd565b9250817fffffffffffffffffffffffffffffffffffffffffffffffffffffffffffffffff04831182151516156200057e576200057d62000615565b5b828202905092915050565b600062000596826200059d565b9050919050565b600073ffffffffffffffffffffffffffffffffffffffff82169050919050565b6000819050919050565b6000620005d482620005bd565b91507fffffffffffffffffffffffffffffffffffffffffffffffffffffffffffffffff8214156200060a576200060962000615565b5b600182019050919050565b7f4e487b7100000000000000000000000000000000000000000000000000000000600052601160045260246000fd5b7f4e487b7100000000000000000000000000000000000000000000000000000000600052604160045260246000fd5b6200067e8162000589565b81146200068a57600080fd5b50565b6200069881620005bd565b8114620006a457600080fd5b50565b61569180620006b76000396000f3fe608060405234801561001057600080fd5b506004361061021c5760003560e01c80637e44d78811610125578063b0537630116100ad578063e0a8f6f51161007c578063e0a8f6f5146105ad578063e1c7392a146105c9578063ead0eedf146105d3578063ee6a2a65146105f1578063f96dae0a1461060d5761021c565b8063b05376301461053b578063b69ef8a814610557578063c1cbbca714610575578063c9d27afe146105915761021c565b8063a06db7dc116100f4578063a06db7dc146104a7578063a25c1559146104c5578063a860bd4f146104e3578063ad15140c14610501578063ad5c46481461051d5761021c565b80637e44d78814610437578063827322ea14610453578063844ccf7d1461046f57806387e06c481461048b5761021c565b80631924ac51116101a857806349774ae21161017757806349774ae2146103ab57806354c37def146103c75780635ca7cac3146103e35780635d3a8363146103ff5780637aee47cf1461041b5761021c565b80631924ac511461035d578063243a86af146103795780633ccfd60b1461038357806342cde4e81461038d5761021c565b80630dc30c7b116101ef5780630dc30c7b146102c95780630dcf4b8f146102e557806311aee38014610303578063158ef93e14610321578063184a0ae91461033f5761021c565b8063013cf08b1461022157806303d0f7201461025b57806306fdde031461027957806308ae4b0c14610297575b600080fd5b61023b600480360381019061023691906141ae565b61062b565b6040516102529b9a99989796959493929190615221565b60405180910390f35b61026361072c565b60405161027091906151cf565b60405180910390f35b610281610732565b60405161028e9190614d8d565b60405180910390f35b6102b160048036038101906102ac9190614045565b6107c0565b6040516102c0939291906151ea565b60405180910390f35b6102e360048036038101906102de91906141ae565b610837565b005b6102ed610b6a565b6040516102fa91906151cf565b60405180910390f35b61030b610b70565b60405161031891906151cf565b60405180910390f35b610329610b76565b6040516103369190614d72565b60405180910390f35b610347610b87565b60405161035491906151cf565b60405180910390f35b610377600480360381019061037291906141ae565b610b8d565b005b610381610d52565b005b61038b610d54565b005b610395611163565b6040516103a291906151cf565b60405180910390f35b6103c560048036038101906103c091906141ae565b611169565b005b6103e160048036038101906103dc91906141ae565b61153a565b005b6103fd60048036038101906103f891906141ae565b6119c3565b005b6104196004803603810190610414919061414b565b611a66565b005b610435600480360381019061043091906141ae565b61203e565b005b610451600480360381019061044c91906141ae565b6120e1565b005b61046d600480360381019061046891906141ae565b612278565b005b610489600480360381019061048491906140aa565b6125dc565b005b6104a560048036038101906104a09190614045565b6127c9565b005b6104af6129ca565b6040516104bc91906151cf565b60405180910390f35b6104cd6129d0565b6040516104da91906151cf565b60405180910390f35b6104eb6129d6565b6040516104f891906151cf565b60405180910390f35b61051b600480360381019061051691906141ae565b6129dc565b005b610525612e0f565b6040516105329190614cf7565b60405180910390f35b6105556004803603810190610550919061406e565b612e35565b005b61055f612f62565b60405161056c91906151cf565b60405180910390f35b61058f600480360381019061058a91906141ae565b612f68565b005b6105ab60048036038101906105a69190614200565b61327c565b005b6105c760048036038101906105c291906141ae565b613746565b005b6105d1613902565b005b6105db613acb565b6040516105e891906151cf565b60405180910390f35b61060b60048036038101906106069190614122565b613ad1565b005b610615613efd565b6040516106229190614cf7565b60405180910390f35b60036020528060005260406000206000915090508060000154908060010160009054906101000a900460ff16908060010160019054906101000a900473ffffffffffffffffffffffffffffffffffffffff1690806002016040518060400160405290816000820160009054906101000a900460ff161515151581526020016000820160019054906101000a900460ff161515151581525050908060030154908060040154908060050160009054906101000a900460ff16908060060154908060070160009054906101000a900473ffffffffffffffffffffffffffffffffffffffff16908060070160149054906101000a900460ff1690806008015490508b565b600d5481565b6001805461073f906154b7565b80601f016020809104026020016040519081016040528092919081815260200182805461076b906154b7565b80156107b85780601f1061078d576101008083540402835291602001916107b8565b820191906000526020600020905b81548152906001019060200180831161079b57829003601f168201915b505050505081565b6002602052806000526040600020600091509050806000015490806001016040518060400160405290816000820160009054906101000a900460ff161515151581526020016000820160019054906101000a900460ff161515151581525050908060020160009054906101000a900460ff16905083565b80600015156003600083815260200190815260200160002060070160149054906101000a900460ff161515146108a2576040517f08c379a00000000000000000000000000000000000000000000000000000000081526004016108999061516f565b60405180910390fd5b600015156003600083815260200190815260200160002060050160009054906101000a900460ff1615151461090c576040517f08c379a0000000000000000000000000000000000000000000000000000000008152600401610903906151af565b60405180910390fd5b600a5460036000838152602001908152602001600020600301541015610967576040517f08c379a000000000000000000000000000000000000000000000000000000000815260040161095e906150af565b60405180910390fd5b6003600082815260200190815260200160002060040154600360008381526020019081526020016000206003015410156109d6576040517f08c379a00000000000000000000000000000000000000000000000000000000081526004016109cd9061518f565b60405180910390fd5b60006003600084815260200190815260200160002060010160009054906101000a900460ff1660ff1614610a3f576040517f08c379a0000000000000000000000000000000000000000000000000000000008152600401610a369061512f565b60405180910390fd5b6000600360008481526020019081526020016000206008015414610a98576040517f08c379a0000000000000000000000000000000000000000000000000000000008152600401610a8f90614def565b60405180910390fd5b4260036000848152602001908152602001600020600601541115610af1576040517f08c379a0000000000000000000000000000000000000000000000000000000008152600401610ae890614dcf565b60405180910390fd5b60075442610aff919061531a565b60036000848152602001908152602001600020600801819055507f8f8e13a8081be398c5032b04ccda337e916cf2d86c3708db9a734e6db8eb54906003600084815260200190815260200160002060080154604051610b5e91906151cf565b60405180910390a15050565b60085481565b60055481565b60008054906101000a900460ff1681565b60065481565b80600e60009054906101000a900473ffffffffffffffffffffffffffffffffffffffff1673ffffffffffffffffffffffffffffffffffffffff166370a08231336040518263ffffffff1660e01b8152600401610be99190614cf7565b60206040518083038186803b158015610c0157600080fd5b505afa158015610c15573d6000803e3d6000fd5b505050506040513d601f19601f82011682018060405250810190610c3991906141d7565b1015610c7a576040517f08c379a0000000000000000000000000000000000000000000000000000000008152600401610c7190614eaf565b60405180910390fd5b610c8f81600c54613f2390919063ffffffff16565b600c81905550600e60009054906101000a900473ffffffffffffffffffffffffffffffffffffffff1673ffffffffffffffffffffffffffffffffffffffff166323b872dd3330846040518463ffffffff1660e01b8152600401610cf493929190614d12565b602060405180830381600087803b158015610d0e57600080fd5b505af1158015610d22573d6000803e3d6000fd5b505050506040513d601f19601f82011682018060405250810190610d4691906140f9565b610d4f57600080fd5b50565b565b60011515600260003373ffffffffffffffffffffffffffffffffffffffff1673ffffffffffffffffffffffffffffffffffffffff16815260200190815260200160002060010160000160019054906101000a900460ff16151514610ded576040517f08c379a0000000000000000000000000000000000000000000000000000000008152600401610de490614fcf565b60405180910390fd5b6000600260003373ffffffffffffffffffffffffffffffffffffffff1673ffffffffffffffffffffffffffffffffffffffff1681526020019081526020016000206000015411610e72576040517f08c379a0000000000000000000000000000000000000000000000000000000008152600401610e699061502f565b60405180910390fd5b600060095411610eb7576040517f08c379a0000000000000000000000000000000000000000000000000000000008152600401610eae906150cf565b60405180910390fd5b6000610f10600954600260003373ffffffffffffffffffffffffffffffffffffffff1673ffffffffffffffffffffffffffffffffffffffff16815260200190815260200160002060000154613f3990919063ffffffff16565b90506000610f2960085483613f4f90919063ffffffff16565b9050610f82600260003373ffffffffffffffffffffffffffffffffffffffff1673ffffffffffffffffffffffffffffffffffffffff16815260200190815260200160002060000154600854613f6590919063ffffffff16565b6008819055506000600260003373ffffffffffffffffffffffffffffffffffffffff1673ffffffffffffffffffffffffffffffffffffffff168152602001908152602001600020600001819055506000600260003373ffffffffffffffffffffffffffffffffffffffff1673ffffffffffffffffffffffffffffffffffffffff16815260200190815260200160002060010160000160016101000a81548160ff0219169083151502179055506000600260003373ffffffffffffffffffffffffffffffffffffffff1673ffffffffffffffffffffffffffffffffffffffff16815260200190815260200160002060010160000160006101000a81548160ff0219169083151502179055506110a181600954613f6590919063ffffffff16565b600981905550600f60009054906101000a900473ffffffffffffffffffffffffffffffffffffffff1673ffffffffffffffffffffffffffffffffffffffff1663a9059cbb33836040518363ffffffff1660e01b8152600401611104929190614d49565b602060405180830381600087803b15801561111e57600080fd5b505af1158015611132573d6000803e3d6000fd5b505050506040513d601f19601f8201168201806040525081019061115691906140f9565b61115f57600080fd5b5050565b600a5481565b80600015156003600083815260200190815260200160002060070160149054906101000a900460ff161515146111d4576040517f08c379a00000000000000000000000000000000000000000000000000000000081526004016111cb9061516f565b60405180910390fd5b600015156003600083815260200190815260200160002060050160009054906101000a900460ff1615151461123e576040517f08c379a0000000000000000000000000000000000000000000000000000000008152600401611235906151af565b60405180910390fd5b600a5460036000838152602001908152602001600020600301541015611299576040517f08c379a0000000000000000000000000000000000000000000000000000000008152600401611290906150af565b60405180910390fd5b600360008281526020019081526020016000206004015460036000838152602001908152602001600020600301541015611308576040517f08c379a00000000000000000000000000000000000000000000000000000000081526004016112ff9061518f565b60405180910390fd5b60026003600084815260200190815260200160002060010160009054906101000a900460ff1660ff1614611371576040517f08c379a000000000000000000000000000000000000000000000000000000000815260040161136890614e0f565b60405180910390fd5b60036000838152602001908152602001600020600801544210156113ca576040517f08c379a00000000000000000000000000000000000000000000000000000000081526004016113c1906150ef565b60405180910390fd5b6001600260006003600086815260200190815260200160002060070160009054906101000a900473ffffffffffffffffffffffffffffffffffffffff1673ffffffffffffffffffffffffffffffffffffffff1673ffffffffffffffffffffffffffffffffffffffff16815260200190815260200160002060010160000160016101000a81548160ff02191690831515021790555060016003600084815260200190815260200160002060050160006101000a81548160ff0219169083151502179055506000600260006003600086815260200190815260200160002060070160009054906101000a900473ffffffffffffffffffffffffffffffffffffffff1673ffffffffffffffffffffffffffffffffffffffff1673ffffffffffffffffffffffffffffffffffffffff16815260200190815260200160002060020160006101000a81548160ff02191690831515021790555060056000815480929190611531906154e9565b91905055505050565b80600015156003600083815260200190815260200160002060070160149054906101000a900460ff161515146115a5576040517f08c379a000000000000000000000000000000000000000000000000000000000815260040161159c9061516f565b60405180910390fd5b600015156003600083815260200190815260200160002060050160009054906101000a900460ff1615151461160f576040517f08c379a0000000000000000000000000000000000000000000000000000000008152600401611606906151af565b60405180910390fd5b600a546003600083815260200190815260200160002060030154101561166a576040517f08c379a0000000000000000000000000000000000000000000000000000000008152600401611661906150af565b60405180910390fd5b6003600082815260200190815260200160002060040154600360008381526020019081526020016000206003015410156116d9576040517f08c379a00000000000000000000000000000000000000000000000000000000081526004016116d09061518f565b60405180910390fd5b60036000838152602001908152602001600020600001546009541015611734576040517f08c379a000000000000000000000000000000000000000000000000000000000815260040161172b90614ecf565b60405180910390fd5b6003600083815260200190815260200160002060080154421015801561177157506000600360008481526020019081526020016000206008015414155b6117b0576040517f08c379a00000000000000000000000000000000000000000000000000000000081526004016117a7906150ef565b60405180910390fd5b6117db6003600084815260200190815260200160002060000154600954613f6590919063ffffffff16565b6009819055506000600260006003600086815260200190815260200160002060070160009054906101000a900473ffffffffffffffffffffffffffffffffffffffff1673ffffffffffffffffffffffffffffffffffffffff1673ffffffffffffffffffffffffffffffffffffffff16815260200190815260200160002060020160006101000a81548160ff02191690831515021790555060016003600084815260200190815260200160002060050160006101000a81548160ff021916908315150217905550600d60008154809291906118b4906154e9565b9190505550600f60009054906101000a900473ffffffffffffffffffffffffffffffffffffffff1673ffffffffffffffffffffffffffffffffffffffff166323b872dd306003600086815260200190815260200160002060010160019054906101000a900473ffffffffffffffffffffffffffffffffffffffff1660036000878152602001908152602001600020600001546040518463ffffffff1660e01b815260040161196493929190614d12565b602060405180830381600087803b15801561197e57600080fd5b505af1158015611992573d6000803e3d6000fd5b505050506040513d601f19601f820116820180604052508101906119b691906140f9565b6119bf57600080fd5b5050565b60011515600260003373ffffffffffffffffffffffffffffffffffffffff1673ffffffffffffffffffffffffffffffffffffffff16815260200190815260200160002060010160000160009054906101000a900460ff16151514611a5c576040517f08c379a0000000000000000000000000000000000000000000000000000000008152600401611a539061504f565b60405180910390fd5b80600b8190555050565b60011515600260003373ffffffffffffffffffffffffffffffffffffffff1673ffffffffffffffffffffffffffffffffffffffff16815260200190815260200160002060010160000160019054906101000a900460ff16151514611aff576040517f08c379a0000000000000000000000000000000000000000000000000000000008152600401611af690614fcf565b60405180910390fd5b816009541015611b44576040517f08c379a0000000000000000000000000000000000000000000000000000000008152600401611b3b90614fef565b60405180910390fd5b60001515600260003373ffffffffffffffffffffffffffffffffffffffff1673ffffffffffffffffffffffffffffffffffffffff16815260200190815260200160002060020160009054906101000a900460ff16151514611bda576040517f08c379a0000000000000000000000000000000000000000000000000000000008152600401611bd190614f0f565b60405180910390fd5b600b54600e60009054906101000a900473ffffffffffffffffffffffffffffffffffffffff1673ffffffffffffffffffffffffffffffffffffffff166370a08231336040518263ffffffff1660e01b8152600401611c389190614cf7565b60206040518083038186803b158015611c5057600080fd5b505afa158015611c64573d6000803e3d6000fd5b505050506040513d601f19601f82011682018060405250810190611c8891906141d7565b1015611cc9576040517f08c379a0000000000000000000000000000000000000000000000000000000008152600401611cc09061514f565b60405180910390fd5b6001600260003373ffffffffffffffffffffffffffffffffffffffff1673ffffffffffffffffffffffffffffffffffffffff16815260200190815260200160002060020160006101000a81548160ff02191690831515021790555081600360006004548152602001908152602001600020600001819055508360036000600454815260200190815260200160002060020160008201518160000160006101000a81548160ff02191690831515021790555060208201518160000160016101000a81548160ff0219169083151502179055509050508060036000600454815260200190815260200160002060010160006101000a81548160ff021916908360ff160217905550600e60009054906101000a900473ffffffffffffffffffffffffffffffffffffffff1673ffffffffffffffffffffffffffffffffffffffff166370a08231336040518263ffffffff1660e01b8152600401611e299190614cf7565b60206040518083038186803b158015611e4157600080fd5b505afa158015611e55573d6000803e3d6000fd5b505050506040513d601f19601f82011682018060405250810190611e7991906141d7565b6003600060045481526020019081526020016000206003018190555060065442611ea3919061531a565b600360006004548152602001908152602001600020600601819055503360036000600454815260200190815260200160002060070160006101000a81548173ffffffffffffffffffffffffffffffffffffffff021916908373ffffffffffffffffffffffffffffffffffffffff1602179055508260036000600454815260200190815260200160002060010160016101000a81548173ffffffffffffffffffffffffffffffffffffffff021916908373ffffffffffffffffffffffffffffffffffffffff160217905550600160036000600454815260200190815260200160002060090160003373ffffffffffffffffffffffffffffffffffffffff1673ffffffffffffffffffffffffffffffffffffffff16815260200190815260200160002060006101000a81548160ff02191690831515021790555060046000815480929190611fee906154e9565b91905055507fc2c021f5d73c63c481d336fbbafec58f694fc45095f00b02d2deb8cca59afe07600160045461202391906153fb565b60405161203091906151cf565b60405180910390a150505050565b60011515600260003373ffffffffffffffffffffffffffffffffffffffff1673ffffffffffffffffffffffffffffffffffffffff16815260200190815260200160002060010160000160009054906101000a900460ff161515146120d7576040517f08c379a00000000000000000000000000000000000000000000000000000000081526004016120ce9061504f565b60405180910390fd5b80600a8190555050565b600015156003600083815260200190815260200160002060070160149054906101000a900460ff1615151461214b576040517f08c379a000000000000000000000000000000000000000000000000000000000815260040161214290614e6f565b60405180910390fd5b600015156003600083815260200190815260200160002060050160009054906101000a900460ff161515146121b5576040517f08c379a00000000000000000000000000000000000000000000000000000000081526004016121ac90614f2f565b60405180910390fd5b60016003600083815260200190815260200160002060070160146101000a81548160ff0219169083151502179055506000600260006003600085815260200190815260200160002060070160009054906101000a900473ffffffffffffffffffffffffffffffffffffffff1673ffffffffffffffffffffffffffffffffffffffff1673ffffffffffffffffffffffffffffffffffffffff16815260200190815260200160002060020160006101000a81548160ff02191690831515021790555050565b80600015156003600083815260200190815260200160002060070160149054906101000a900460ff161515146122e3576040517f08c379a00000000000000000000000000000000000000000000000000000000081526004016122da9061516f565b60405180910390fd5b600015156003600083815260200190815260200160002060050160009054906101000a900460ff1615151461234d576040517f08c379a0000000000000000000000000000000000000000000000000000000008152600401612344906151af565b60405180910390fd5b600a54600360008381526020019081526020016000206003015410156123a8576040517f08c379a000000000000000000000000000000000000000000000000000000000815260040161239f906150af565b60405180910390fd5b600360008281526020019081526020016000206004015460036000838152602001908152602001600020600301541015612417576040517f08c379a000000000000000000000000000000000000000000000000000000000815260040161240e9061518f565b60405180910390fd5b60016003600084815260200190815260200160002060010160009054906101000a900460ff1660ff161480612472575060026003600084815260200190815260200160002060010160009054906101000a900460ff1660ff16145b6124b1576040517f08c379a00000000000000000000000000000000000000000000000000000000081526004016124a890614f4f565b60405180910390fd5b600060036000848152602001908152602001600020600801541461250a576040517f08c379a000000000000000000000000000000000000000000000000000000000815260040161250190614def565b60405180910390fd5b4260036000848152602001908152602001600020600601541115612563576040517f08c379a000000000000000000000000000000000000000000000000000000000815260040161255a90614dcf565b60405180910390fd5b60075442612571919061531a565b60036000848152602001908152602001600020600801819055507f8f8e13a8081be398c5032b04ccda337e916cf2d86c3708db9a734e6db8eb549060036000848152602001908152602001600020600801546040516125d091906151cf565b60405180910390a15050565b60011515600260003373ffffffffffffffffffffffffffffffffffffffff1673ffffffffffffffffffffffffffffffffffffffff16815260200190815260200160002060010160000160009054906101000a900460ff16151514612675576040517f08c379a000000000000000000000000000000000000000000000000000000000815260040161266c9061504f565b60405180910390fd5b600073ffffffffffffffffffffffffffffffffffffffff168373ffffffffffffffffffffffffffffffffffffffff1614156126e5576040517f08c379a00000000000000000000000000000000000000000000000000000000081526004016126dc9061500f565b60405180910390fd5b600073ffffffffffffffffffffffffffffffffffffffff168173ffffffffffffffffffffffffffffffffffffffff161415612755576040517f08c379a000000000000000000000000000000000000000000000000000000000815260040161274c90614daf565b60405180910390fd5b8273ffffffffffffffffffffffffffffffffffffffff166342842e0e3083856040518463ffffffff1660e01b815260040161279293929190614d12565b600060405180830381600087803b1580156127ac57600080fd5b505af11580156127c0573d6000803e3d6000fd5b50505050505050565b60011515600260003373ffffffffffffffffffffffffffffffffffffffff1673ffffffffffffffffffffffffffffffffffffffff16815260200190815260200160002060010160000160009054906101000a900460ff16151514612862576040517f08c379a00000000000000000000000000000000000000000000000000000000081526004016128599061504f565b60405180910390fd5b600b54600e60009054906101000a900473ffffffffffffffffffffffffffffffffffffffff1673ffffffffffffffffffffffffffffffffffffffff166370a08231836040518263ffffffff1660e01b81526004016128c09190614cf7565b60206040518083038186803b1580156128d857600080fd5b505afa1580156128ec573d6000803e3d6000fd5b505050506040513d601f19601f8201168201806040525081019061291091906141d7565b1015612951576040517f08c379a000000000000000000000000000000000000000000000000000000000815260040161294890614faf565b60405180910390fd5b6001600260008373ffffffffffffffffffffffffffffffffffffffff1673ffffffffffffffffffffffffffffffffffffffff16815260200190815260200160002060010160000160016101000a81548160ff021916908315150217905550600560008154809291906129c2906154e9565b919050555050565b60075481565b600c5481565b600b5481565b80600015156003600083815260200190815260200160002060070160149054906101000a900460ff16151514612a47576040517f08c379a0000000000000000000000000000000000000000000000000000000008152600401612a3e9061516f565b60405180910390fd5b600015156003600083815260200190815260200160002060050160009054906101000a900460ff16151514612ab1576040517f08c379a0000000000000000000000000000000000000000000000000000000008152600401612aa8906151af565b60405180910390fd5b600a5460036000838152602001908152602001600020600301541015612b0c576040517f08c379a0000000000000000000000000000000000000000000000000000000008152600401612b03906150af565b60405180910390fd5b600360008281526020019081526020016000206004015460036000838152602001908152602001600020600301541015612b7b576040517f08c379a0000000000000000000000000000000000000000000000000000000008152600401612b729061518f565b60405180910390fd5b60016003600084815260200190815260200160002060010160009054906101000a900460ff1660ff1614612be4576040517f08c379a0000000000000000000000000000000000000000000000000000000008152600401612bdb90614e4f565b60405180910390fd5b60036000838152602001908152602001600020600801544210158015612c2157506000600360008481526020019081526020016000206008015414155b612c60576040517f08c379a0000000000000000000000000000000000000000000000000000000008152600401612c57906150ef565b60405180910390fd5b60036000838152602001908152602001600020600201600260006003600086815260200190815260200160002060010160019054906101000a900473ffffffffffffffffffffffffffffffffffffffff1673ffffffffffffffffffffffffffffffffffffffff1673ffffffffffffffffffffffffffffffffffffffff1681526020019081526020016000206001016000820160009054906101000a900460ff168160000160006101000a81548160ff0219169083151502179055506000820160019054906101000a900460ff168160000160016101000a81548160ff0219169083151502179055509050506000600260006003600086815260200190815260200160002060070160009054906101000a900473ffffffffffffffffffffffffffffffffffffffff1673ffffffffffffffffffffffffffffffffffffffff1673ffffffffffffffffffffffffffffffffffffffff16815260200190815260200160002060020160006101000a81548160ff02191690831515021790555060016003600084815260200190815260200160002060050160006101000a81548160ff0219169083151502179055505050565b600f60009054906101000a900473ffffffffffffffffffffffffffffffffffffffff1681565b60011515600260003373ffffffffffffffffffffffffffffffffffffffff1673ffffffffffffffffffffffffffffffffffffffff16815260200190815260200160002060010160000160009054906101000a900460ff16151514612ece576040517f08c379a0000000000000000000000000000000000000000000000000000000008152600401612ec59061504f565b60405180910390fd5b8173ffffffffffffffffffffffffffffffffffffffff166323b872dd3033846040518463ffffffff1660e01b8152600401612f0b93929190614d12565b602060405180830381600087803b158015612f2557600080fd5b505af1158015612f39573d6000803e3d6000fd5b505050506040513d601f19601f82011682018060405250810190612f5d91906140f9565b505050565b60095481565b60011515600260003373ffffffffffffffffffffffffffffffffffffffff1673ffffffffffffffffffffffffffffffffffffffff16815260200190815260200160002060010160000160019054906101000a900460ff16151514613001576040517f08c379a0000000000000000000000000000000000000000000000000000000008152600401612ff890614fcf565b60405180910390fd5b80600f60009054906101000a900473ffffffffffffffffffffffffffffffffffffffff1673ffffffffffffffffffffffffffffffffffffffff166370a08231336040518263ffffffff1660e01b815260040161305d9190614cf7565b60206040518083038186803b15801561307557600080fd5b505afa158015613089573d6000803e3d6000fd5b505050506040513d601f19601f820116820180604052508101906130ad91906141d7565b10156130ee576040517f08c379a00000000000000000000000000000000000000000000000000000000081526004016130e590614e8f565b60405180910390fd5b61314381600260003373ffffffffffffffffffffffffffffffffffffffff1673ffffffffffffffffffffffffffffffffffffffff16815260200190815260200160002060000154613f2390919063ffffffff16565b600260003373ffffffffffffffffffffffffffffffffffffffff1673ffffffffffffffffffffffffffffffffffffffff1681526020019081526020016000206000018190555061319e81600854613f2390919063ffffffff16565b6008819055506131b981600954613f2390919063ffffffff16565b600981905550600f60009054906101000a900473ffffffffffffffffffffffffffffffffffffffff1673ffffffffffffffffffffffffffffffffffffffff166323b872dd3330846040518463ffffffff1660e01b815260040161321e93929190614d12565b602060405180830381600087803b15801561323857600080fd5b505af115801561324c573d6000803e3d6000fd5b505050506040513d601f19601f8201168201806040525081019061327091906140f9565b61327957600080fd5b50565b60011515600260003373ffffffffffffffffffffffffffffffffffffffff1673ffffffffffffffffffffffffffffffffffffffff16815260200190815260200160002060010160000160019054906101000a900460ff16151514613315576040517f08c379a000000000000000000000000000000000000000000000000000000000815260040161330c90614fcf565b60405180910390fd5b600015156003600084815260200190815260200160002060090160003373ffffffffffffffffffffffffffffffffffffffff1673ffffffffffffffffffffffffffffffffffffffff16815260200190815260200160002060009054906101000a900460ff161515146133bc576040517f08c379a00000000000000000000000000000000000000000000000000000000081526004016133b390614e2f565b60405180910390fd5b600015156003600084815260200190815260200160002060070160149054906101000a900460ff16151514613426576040517f08c379a000000000000000000000000000000000000000000000000000000000815260040161341d90614eef565b60405180910390fd5b600015156003600084815260200190815260200160002060050160009054906101000a900460ff16151514613490576040517f08c379a000000000000000000000000000000000000000000000000000000000815260040161348790614f8f565b60405180910390fd5b42600360008481526020019081526020016000206006015410156134e9576040517f08c379a00000000000000000000000000000000000000000000000000000000081526004016134e09061508f565b60405180910390fd5b60016003600084815260200190815260200160002060090160003373ffffffffffffffffffffffffffffffffffffffff1673ffffffffffffffffffffffffffffffffffffffff16815260200190815260200160002060006101000a81548160ff02191690831515021790555060001515811515141561365457613635600e60009054906101000a900473ffffffffffffffffffffffffffffffffffffffff1673ffffffffffffffffffffffffffffffffffffffff166370a08231336040518263ffffffff1660e01b81526004016135c09190614cf7565b60206040518083038186803b1580156135d857600080fd5b505afa1580156135ec573d6000803e3d6000fd5b505050506040513d601f19601f8201168201806040525081019061361091906141d7565b6003600085815260200190815260200160002060040154613f2390919063ffffffff16565b6003600084815260200190815260200160002060040181905550613742565b613727600e60009054906101000a900473ffffffffffffffffffffffffffffffffffffffff1673ffffffffffffffffffffffffffffffffffffffff166370a08231336040518263ffffffff1660e01b81526004016136b29190614cf7565b60206040518083038186803b1580156136ca57600080fd5b505afa1580156136de573d6000803e3d6000fd5b505050506040513d601f19601f8201168201806040525081019061370291906141d7565b6003600085815260200190815260200160002060030154613f2390919063ffffffff16565b60036000848152602001908152602001600020600301819055505b5050565b600015156003600083815260200190815260200160002060070160149054906101000a900460ff1615151461377a57600080fd5b600015156003600083815260200190815260200160002060050160009054906101000a900460ff161515146137ae57600080fd5b42600360008381526020019081526020016000206006015410156137d157600080fd5b3373ffffffffffffffffffffffffffffffffffffffff166003600083815260200190815260200160002060070160009054906101000a900473ffffffffffffffffffffffffffffffffffffffff1673ffffffffffffffffffffffffffffffffffffffff161461383f57600080fd5b60016003600083815260200190815260200160002060070160146101000a81548160ff0219169083151502179055506000600260006003600085815260200190815260200160002060070160009054906101000a900473ffffffffffffffffffffffffffffffffffffffff1673ffffffffffffffffffffffffffffffffffffffff1673ffffffffffffffffffffffffffffffffffffffff16815260200190815260200160002060020160006101000a81548160ff02191690831515021790555050565b60011515600260003373ffffffffffffffffffffffffffffffffffffffff1673ffffffffffffffffffffffffffffffffffffffff16815260200190815260200160002060010160000160009054906101000a900460ff1615151461399b576040517f08c379a00000000000000000000000000000000000000000000000000000000081526004016139929061504f565b60405180910390fd5b6000151560008054906101000a900460ff161515146139ef576040517f08c379a00000000000000000000000000000000000000000000000000000000081526004016139e690614f6f565b60405180910390fd5b60016000806101000a81548160ff0219169083151502179055506000600c541115613ac957600e60009054906101000a900473ffffffffffffffffffffffffffffffffffffffff1673ffffffffffffffffffffffffffffffffffffffff166323b872dd3330600c546040518463ffffffff1660e01b8152600401613a7593929190614d12565b602060405180830381600087803b158015613a8f57600080fd5b505af1158015613aa3573d6000803e3d6000fd5b505050506040513d601f19601f82011682018060405250810190613ac791906140f9565b505b565b60045481565b60001515600260003373ffffffffffffffffffffffffffffffffffffffff1673ffffffffffffffffffffffffffffffffffffffff16815260200190815260200160002060010160000160019054906101000a900460ff16151514613b6a576040517f08c379a0000000000000000000000000000000000000000000000000000000008152600401613b619061510f565b60405180910390fd5b600b54600e60009054906101000a900473ffffffffffffffffffffffffffffffffffffffff1673ffffffffffffffffffffffffffffffffffffffff166370a08231336040518263ffffffff1660e01b8152600401613bc89190614cf7565b60206040518083038186803b158015613be057600080fd5b505afa158015613bf4573d6000803e3d6000fd5b505050506040513d601f19601f82011682018060405250810190613c1891906141d7565b1015613c59576040517f08c379a0000000000000000000000000000000000000000000000000000000008152600401613c509061506f565b60405180910390fd5b8060036000600454815260200190815260200160002060020160008201518160000160006101000a81548160ff02191690831515021790555060208201518160000160016101000a81548160ff021916908315150217905550905050600260036000600454815260200190815260200160002060010160006101000a81548160ff021916908360ff160217905550600e60009054906101000a900473ffffffffffffffffffffffffffffffffffffffff1673ffffffffffffffffffffffffffffffffffffffff166370a08231336040518263ffffffff1660e01b8152600401613d429190614cf7565b60206040518083038186803b158015613d5a57600080fd5b505afa158015613d6e573d6000803e3d6000fd5b505050506040513d601f19601f82011682018060405250810190613d9291906141d7565b6003600060045481526020019081526020016000206003018190555060065442613dbc919061531a565b600360006004548152602001908152602001600020600601819055503360036000600454815260200190815260200160002060070160006101000a81548173ffffffffffffffffffffffffffffffffffffffff021916908373ffffffffffffffffffffffffffffffffffffffff160217905550600160036000600454815260200190815260200160002060090160003373ffffffffffffffffffffffffffffffffffffffff1673ffffffffffffffffffffffffffffffffffffffff16815260200190815260200160002060006101000a81548160ff02191690831515021790555060046000815480929190613eb0906154e9565b91905055507fc2c021f5d73c63c481d336fbbafec58f694fc45095f00b02d2deb8cca59afe076001600454613ee591906153fb565b604051613ef291906151cf565b60405180910390a150565b600e60009054906101000a900473ffffffffffffffffffffffffffffffffffffffff1681565b60008183613f31919061531a565b905092915050565b60008183613f4791906153a1565b905092915050565b60008183613f5d9190615370565b905092915050565b60008183613f7391906153fb565b905092915050565b600081359050613f8a816155ff565b92915050565b600081359050613f9f81615616565b92915050565b600081519050613fb481615616565b92915050565b600060408284031215613fcc57600080fd5b613fd660406152cd565b90506000613fe684828501613f90565b6000830152506020613ffa84828501613f90565b60208301525092915050565b6000813590506140158161562d565b92915050565b60008151905061402a8161562d565b92915050565b60008135905061403f81615644565b92915050565b60006020828403121561405757600080fd5b600061406584828501613f7b565b91505092915050565b6000806040838503121561408157600080fd5b600061408f85828601613f7b565b92505060206140a085828601614006565b9150509250929050565b6000806000606084860312156140bf57600080fd5b60006140cd86828701613f7b565b93505060206140de86828701614006565b92505060406140ef86828701613f7b565b9150509250925092565b60006020828403121561410b57600080fd5b600061411984828501613fa5565b91505092915050565b60006040828403121561413457600080fd5b600061414284828501613fba565b91505092915050565b60008060008060a0858703121561416157600080fd5b600061416f87828801613fba565b945050604061418087828801613f7b565b935050606061419187828801614006565b92505060806141a287828801614030565b91505092959194509250565b6000602082840312156141c057600080fd5b60006141ce84828501614006565b91505092915050565b6000602082840312156141e957600080fd5b60006141f78482850161401b565b91505092915050565b6000806040838503121561421357600080fd5b600061422185828601614006565b925050602061423285828601613f90565b9150509250929050565b6142458161542f565b82525050565b61425481615441565b82525050565b61426381615441565b82525050565b6000614274826152fe565b61427e8185615309565b935061428e818560208601615484565b614297816155ee565b840191505092915050565b60006142af601a83615309565b91507f5f726563697069656e742069732061646472657373207a65726f0000000000006000830152602082019050919050565b60006142ef602483615309565b91507f70726f706f73616c20646561646c696e6520686173206e6f742070617373656460008301527f20796574000000000000000000000000000000000000000000000000000000006020830152604082019050919050565b6000614355602583615309565b91507f70726f706f73616c20616c726561647920656e7465726564206772616365207060008301527f6572696f640000000000000000000000000000000000000000000000000000006020830152604082019050919050565b60006143bb601e83615309565b91507f70726f706f73616c206973206e6f7420656e7465722064616f207479706500006000830152602082019050919050565b60006143fb600d83615309565b91507f616c726561647920766f746564000000000000000000000000000000000000006000830152602082019050919050565b600061443b602083615309565b91507f70726f706f73616c206973206e6f74206368616e676520726f6c6520747970656000830152602082019050919050565b600061447b601c83615309565b91507f6a6f696e2064616f20697320616c72656164792063616e63656c6564000000006000830152602082019050919050565b60006144bb602083615309565b91507f6d656d62657220646f6573206e6f74206861766520656e6f75676820776574686000830152602082019050919050565b60006144fb602683615309565b91507f6d656d62657220646f6573206e6f74206861766520656e6f75676820676f762060008301527f746f6b656e7300000000000000000000000000000000000000000000000000006020830152604082019050919050565b6000614561602783615309565b91507f6e6f7420656e6f7567682066756e6473206f6e207468652044414f20746f206660008301527f696e616c697a65000000000000000000000000000000000000000000000000006020830152604082019050919050565b60006145c7601a83615309565b91507f70726f706f73616c20686173206265656e2063616e63656c65640000000000006000830152602082019050919050565b6000614607602683615309565b91507f6d656d656265722068617320616e206163746976652070726f706f73616c206160008301527f6c726561647900000000000000000000000000000000000000000000000000006020830152604082019050919050565b600061466d602283615309565b91507f63616e6e6f742063616e63656c20616e206578656374757265206a6f696e206460008301527f616f0000000000000000000000000000000000000000000000000000000000006020830152604082019050919050565b60006146d3601b83615309565b91507f70726f706f73616c206973206e6f74206120726f6c65207479706500000000006000830152602082019050919050565b6000614713601383615309565b91507f616c726561647920696e697469616c697a6564000000000000000000000000006000830152602082019050919050565b6000614753601c83615309565b91507f70726f706f73616c20697320616c7265616479206578656375746564000000006000830152602082019050919050565b6000614793602783615309565b91507f73706f6e736f7220646f6573206e6f74206861766520656e6f75676820676f7660008301527f20746f6b656e73000000000000000000000000000000000000000000000000006020830152604082019050919050565b60006147f9600c83615309565b91507f6e6f742061206d656d62657200000000000000000000000000000000000000006000830152602082019050919050565b6000614839603183615309565b91507f6d6f72652066756e6473206172652072657175657374207468616e207468652060008301527f44414f2063757272656e746c79206861730000000000000000000000000000006020830152604082019050919050565b600061489f601383615309565b91507f6e66742061646472657373206973207a65726f000000000000000000000000006000830152602082019050919050565b60006148df602283615309565b91507f6e6f206d656d62657220636f6e747269627574696f6e20746f2077697468647260008301527f61770000000000000000000000000000000000000000000000000000000000006020830152604082019050919050565b6000614945601383615309565b91507f6e6f7420612068656164206f6620686f757365000000000000000000000000006000830152602082019050919050565b6000614985602883615309565b91507f6a6f696e2064616f20646f6573206e6f74206861766520656e6f75676820676f60008301527f7620746f6b656e730000000000000000000000000000000000000000000000006020830152604082019050919050565b60006149eb601d83615309565b91507f70726f706f73616c20697320706173742074686520646561646c696e650000006000830152602082019050919050565b6000614a2b602583615309565b91507f70726f706f73616c20646f6573206e6f74206d65657420766f7465207468726560008301527f73686f6c640000000000000000000000000000000000000000000000000000006020830152604082019050919050565b6000614a91601383615309565b91507f6e6f7468696e6720746f207769746864726177000000000000000000000000006000830152602082019050919050565b6000614ad1601c83615309565b91507f677261636520706572696f6420686173206e6f7420656c6170736564000000006000830152602082019050919050565b6000614b11601083615309565b91507f616c72656164792061206d656d626572000000000000000000000000000000006000830152602082019050919050565b6000614b51601e83615309565b91507f70726f706f73616c206973206e6f7420612066756e64696e67207479706500006000830152602082019050919050565b6000614b91602f83615309565b91507f7375626d69742070726f706f73616c20646f6573206e6f74206861766520656e60008301527f6f75676820676f7620746f6b656e7300000000000000000000000000000000006020830152604082019050919050565b6000614bf7601583615309565b91507f70726f706f73616c207761732063616e63656c656400000000000000000000006000830152602082019050919050565b6000614c37601583615309565b91507f6e6f20766f746573206f757477656967682079657300000000000000000000006000830152602082019050919050565b6000614c77601983615309565b91507f70726f706f73616c20616c7265616479206578656375746564000000000000006000830152602082019050919050565b604082016000820151614cc0600085018261424b565b506020820151614cd3602085018261424b565b50505050565b614ce28161546d565b82525050565b614cf181615477565b82525050565b6000602082019050614d0c600083018461423c565b92915050565b6000606082019050614d27600083018661423c565b614d34602083018561423c565b614d416040830184614cd9565b949350505050565b6000604082019050614d5e600083018561423c565b614d6b6020830184614cd9565b9392505050565b6000602082019050614d87600083018461425a565b92915050565b60006020820190508181036000830152614da78184614269565b905092915050565b60006020820190508181036000830152614dc8816142a2565b9050919050565b60006020820190508181036000830152614de8816142e2565b9050919050565b60006020820190508181036000830152614e0881614348565b9050919050565b60006020820190508181036000830152614e28816143ae565b9050919050565b60006020820190508181036000830152614e48816143ee565b9050919050565b60006020820190508181036000830152614e688161442e565b9050919050565b60006020820190508181036000830152614e888161446e565b9050919050565b60006020820190508181036000830152614ea8816144ae565b9050919050565b60006020820190508181036000830152614ec8816144ee565b9050919050565b60006020820190508181036000830152614ee881614554565b9050919050565b60006020820190508181036000830152614f08816145ba565b9050919050565b60006020820190508181036000830152614f28816145fa565b9050919050565b60006020820190508181036000830152614f4881614660565b9050919050565b60006020820190508181036000830152614f68816146c6565b9050919050565b60006020820190508181036000830152614f8881614706565b9050919050565b60006020820190508181036000830152614fa881614746565b9050919050565b60006020820190508181036000830152614fc881614786565b9050919050565b60006020820190508181036000830152614fe8816147ec565b9050919050565b600060208201905081810360008301526150088161482c565b9050919050565b6000602082019050818103600083015261502881614892565b9050919050565b60006020820190508181036000830152615048816148d2565b9050919050565b6000602082019050818103600083015261506881614938565b9050919050565b6000602082019050818103600083015261508881614978565b9050919050565b600060208201905081810360008301526150a8816149de565b9050919050565b600060208201905081810360008301526150c881614a1e565b9050919050565b600060208201905081810360008301526150e881614a84565b9050919050565b6000602082019050818103600083015261510881614ac4565b9050919050565b6000602082019050818103600083015261512881614b04565b9050919050565b6000602082019050818103600083015261514881614b44565b9050919050565b6000602082019050818103600083015261516881614b84565b9050919050565b6000602082019050818103600083015261518881614bea565b9050919050565b600060208201905081810360008301526151a881614c2a565b9050919050565b600060208201905081810360008301526151c881614c6a565b9050919050565b60006020820190506151e46000830184614cd9565b92915050565b60006080820190506151ff6000830186614cd9565b61520c6020830185614caa565b615219606083018461425a565b949350505050565b600061018082019050615237600083018e614cd9565b615244602083018d614ce8565b615251604083018c61423c565b61525e606083018b614caa565b61526b60a083018a614cd9565b61527860c0830189614cd9565b61528560e083018861425a565b615293610100830187614cd9565b6152a161012083018661423c565b6152af61014083018561425a565b6152bd610160830184614cd9565b9c9b505050505050505050505050565b6000604051905081810181811067ffffffffffffffff821117156152f4576152f36155bf565b5b8060405250919050565b600081519050919050565b600082825260208201905092915050565b60006153258261546d565b91506153308361546d565b9250827fffffffffffffffffffffffffffffffffffffffffffffffffffffffffffffffff0382111561536557615364615532565b5b828201905092915050565b600061537b8261546d565b91506153868361546d565b92508261539657615395615561565b5b828204905092915050565b60006153ac8261546d565b91506153b78361546d565b9250817fffffffffffffffffffffffffffffffffffffffffffffffffffffffffffffffff04831182151516156153f0576153ef615532565b5b828202905092915050565b60006154068261546d565b91506154118361546d565b92508282101561542457615423615532565b5b828203905092915050565b600061543a8261544d565b9050919050565b60008115159050919050565b600073ffffffffffffffffffffffffffffffffffffffff82169050919050565b6000819050919050565b600060ff82169050919050565b60005b838110156154a2578082015181840152602081019050615487565b838111156154b1576000848401525b50505050565b600060028204905060018216806154cf57607f821691505b602082108114156154e3576154e2615590565b5b50919050565b60006154f48261546d565b91507fffffffffffffffffffffffffffffffffffffffffffffffffffffffffffffffff82141561552757615526615532565b5b600182019050919050565b7f4e487b7100000000000000000000000000000000000000000000000000000000600052601160045260246000fd5b7f4e487b7100000000000000000000000000000000000000000000000000000000600052601260045260246000fd5b7f4e487b7100000000000000000000000000000000000000000000000000000000600052602260045260246000fd5b7f4e487b7100000000000000000000000000000000000000000000000000000000600052604160045260246000fd5b6000601f19601f8301169050919050565b6156088161542f565b811461561357600080fd5b50565b61561f81615441565b811461562a57600080fd5b50565b6156368161546d565b811461564157600080fd5b50565b61564d81615477565b811461565857600080fd5b5056fea26469706673582212209fcaef591fb04adf2f94b0a388f6e1f042499d2b3c7ee70d3ad2114f7de4c7eb64736f6c63430008000033",
  "linkReferences": {},
  "deployedLinkReferences": {}
}