{
  "_format": "hh-sol-artifact-1",
  "contractName": "HouseDAOGovernance",
  "sourceName": "contracts/HouseDAOGovernance.sol",
  "abi": [
    {
      "inputs": [
        {
          "internalType": "address[]",
          "name": "heads",
          "type": "address[]"
        },
        {
          "internalType": "address",
          "name": "_governanceToken",
          "type": "address"
        },
        {
          "internalType": "uint256",
          "name": "_proposalTime",
          "type": "uint256"
        },
        {
          "internalType": "uint256",
          "name": "_daoGovernanceSupply",
          "type": "uint256"
        },
        {
          "internalType": "uint256",
          "name": "_threshold",
          "type": "uint256"
        },
        {
          "internalType": "uint256",
          "name": "_minimumProposalAmount",
          "type": "uint256"
        },
        {
          "internalType": "address",
          "name": "_weth",
          "type": "address"
        }
      ],
      "stateMutability": "nonpayable",
      "type": "constructor"
    },
    {
      "anonymous": false,
      "inputs": [
        {
          "indexed": false,
          "internalType": "uint256",
          "name": "number",
          "type": "uint256"
        }
      ],
      "name": "ProposalCreated",
      "type": "event"
    },
    {
      "inputs": [],
      "name": "WETH",
      "outputs": [
        {
          "internalType": "address",
          "name": "",
          "type": "address"
        }
      ],
      "stateMutability": "view",
      "type": "function"
    },
    {
      "inputs": [
        {
          "internalType": "uint256",
          "name": "_amount",
          "type": "uint256"
        }
      ],
      "name": "addGovernanceTokens",
      "outputs": [],
      "stateMutability": "nonpayable",
      "type": "function"
    },
    {
      "inputs": [
        {
          "internalType": "address",
          "name": "_currency",
          "type": "address"
        },
        {
          "internalType": "uint256",
          "name": "_amount",
          "type": "uint256"
        }
      ],
      "name": "adminSendFunds",
      "outputs": [],
      "stateMutability": "nonpayable",
      "type": "function"
    },
    {
      "inputs": [
        {
          "internalType": "uint256",
          "name": "_minimumProposalAmount",
          "type": "uint256"
        }
      ],
      "name": "adminUpdateMinimumProposalAmount",
      "outputs": [],
      "stateMutability": "nonpayable",
      "type": "function"
    },
    {
      "inputs": [
        {
          "internalType": "uint256",
          "name": "_threshold",
          "type": "uint256"
        }
      ],
      "name": "adminUpdateThreshold",
      "outputs": [],
      "stateMutability": "nonpayable",
      "type": "function"
    },
    {
      "inputs": [],
      "name": "balance",
      "outputs": [
        {
          "internalType": "uint256",
          "name": "",
          "type": "uint256"
        }
      ],
      "stateMutability": "view",
      "type": "function"
    },
    {
      "inputs": [
        {
          "internalType": "uint256",
          "name": "_proposalId",
          "type": "uint256"
        }
      ],
      "name": "cancelEnterDAO",
      "outputs": [],
      "stateMutability": "nonpayable",
      "type": "function"
    },
    {
      "inputs": [
        {
          "internalType": "uint256",
          "name": "_proposalId",
          "type": "uint256"
        }
      ],
      "name": "cancelProposal",
      "outputs": [],
      "stateMutability": "nonpayable",
      "type": "function"
    },
    {
      "inputs": [
        {
          "internalType": "uint256",
          "name": "_contribution",
          "type": "uint256"
        }
      ],
      "name": "contribute",
      "outputs": [],
      "stateMutability": "nonpayable",
      "type": "function"
    },
    {
      "inputs": [],
      "name": "daoGovernanceSupply",
      "outputs": [
        {
          "internalType": "uint256",
          "name": "",
          "type": "uint256"
        }
      ],
      "stateMutability": "view",
      "type": "function"
    },
    {
      "inputs": [
        {
          "internalType": "uint256",
          "name": "_proposalId",
          "type": "uint256"
        }
      ],
      "name": "executeChangeRoleProposal",
      "outputs": [],
      "stateMutability": "nonpayable",
      "type": "function"
    },
    {
      "inputs": [
        {
          "internalType": "uint256",
          "name": "_proposalId",
          "type": "uint256"
        }
      ],
      "name": "executeEnterDAOProposal",
      "outputs": [],
      "stateMutability": "nonpayable",
      "type": "function"
    },
    {
      "inputs": [
        {
          "internalType": "uint256",
          "name": "_proposalId",
          "type": "uint256"
        }
      ],
      "name": "executeFundingProposal",
      "outputs": [],
      "stateMutability": "nonpayable",
      "type": "function"
    },
    {
      "inputs": [],
      "name": "fundedProjects",
      "outputs": [
        {
          "internalType": "uint256",
          "name": "",
          "type": "uint256"
        }
      ],
      "stateMutability": "view",
      "type": "function"
    },
    {
      "inputs": [],
      "name": "governanceToken",
      "outputs": [
        {
          "internalType": "address",
          "name": "",
          "type": "address"
        }
      ],
      "stateMutability": "view",
      "type": "function"
    },
    {
      "inputs": [],
      "name": "gracePeriod",
      "outputs": [
        {
          "internalType": "uint256",
          "name": "",
          "type": "uint256"
        }
      ],
      "stateMutability": "view",
      "type": "function"
    },
    {
      "inputs": [
        {
          "internalType": "address",
          "name": "_member",
          "type": "address"
        }
      ],
      "name": "headOfHouseEnterMember",
      "outputs": [],
      "stateMutability": "nonpayable",
      "type": "function"
    },
    {
      "inputs": [],
      "name": "init",
      "outputs": [],
      "stateMutability": "nonpayable",
      "type": "function"
    },
    {
      "inputs": [],
      "name": "initialized",
      "outputs": [
        {
          "internalType": "bool",
          "name": "",
          "type": "bool"
        }
      ],
      "stateMutability": "view",
      "type": "function"
    },
    {
      "inputs": [
        {
          "components": [
            {
              "internalType": "bool",
              "name": "headOfHouse",
              "type": "bool"
            },
            {
              "internalType": "bool",
              "name": "member",
              "type": "bool"
            }
          ],
          "internalType": "struct IHouseDAO.Role",
          "name": "_role",
          "type": "tuple"
        }
      ],
      "name": "joinDAOProposal",
      "outputs": [],
      "stateMutability": "nonpayable",
      "type": "function"
    },
    {
      "inputs": [],
      "name": "memberCount",
      "outputs": [
        {
          "internalType": "uint256",
          "name": "",
          "type": "uint256"
        }
      ],
      "stateMutability": "view",
      "type": "function"
    },
    {
      "inputs": [
        {
          "internalType": "address",
          "name": "",
          "type": "address"
        }
      ],
      "name": "members",
      "outputs": [
        {
          "internalType": "uint256",
          "name": "shares",
          "type": "uint256"
        },
        {
          "components": [
            {
              "internalType": "bool",
              "name": "headOfHouse",
              "type": "bool"
            },
            {
              "internalType": "bool",
              "name": "member",
              "type": "bool"
            }
          ],
          "internalType": "struct IHouseDAO.Role",
          "name": "roles",
          "type": "tuple"
        },
        {
          "internalType": "bool",
          "name": "activeProposal",
          "type": "bool"
        }
      ],
      "stateMutability": "view",
      "type": "function"
    },
    {
      "inputs": [],
      "name": "minimumProposalAmount",
      "outputs": [
        {
          "internalType": "uint256",
          "name": "",
          "type": "uint256"
        }
      ],
      "stateMutability": "view",
      "type": "function"
    },
    {
      "inputs": [],
      "name": "name",
      "outputs": [
        {
          "internalType": "string",
          "name": "",
          "type": "string"
        }
      ],
      "stateMutability": "view",
      "type": "function"
    },
    {
      "inputs": [],
      "name": "proposalTime",
      "outputs": [
        {
          "internalType": "uint256",
          "name": "",
          "type": "uint256"
        }
      ],
      "stateMutability": "view",
      "type": "function"
    },
    {
      "inputs": [
        {
          "internalType": "uint256",
          "name": "",
          "type": "uint256"
        }
      ],
      "name": "proposals",
      "outputs": [
        {
          "internalType": "uint256",
          "name": "fundsRequested",
          "type": "uint256"
        },
        {
          "internalType": "uint8",
          "name": "proposalType",
          "type": "uint8"
        },
        {
          "internalType": "address",
          "name": "targetAddress",
          "type": "address"
        },
        {
          "components": [
            {
              "internalType": "bool",
              "name": "headOfHouse",
              "type": "bool"
            },
            {
              "internalType": "bool",
              "name": "member",
              "type": "bool"
            }
          ],
          "internalType": "struct IHouseDAO.Role",
          "name": "role",
          "type": "tuple"
        },
        {
          "internalType": "uint256",
          "name": "yesVotes",
          "type": "uint256"
        },
        {
          "internalType": "uint256",
          "name": "noVotes",
          "type": "uint256"
        },
        {
          "internalType": "bool",
          "name": "executed",
          "type": "bool"
        },
        {
          "internalType": "uint256",
          "name": "deadline",
          "type": "uint256"
        },
        {
          "internalType": "address",
          "name": "proposer",
          "type": "address"
        },
        {
          "internalType": "bool",
          "name": "canceled",
          "type": "bool"
        },
        {
          "internalType": "uint256",
          "name": "gracePeriod",
          "type": "uint256"
        }
      ],
      "stateMutability": "view",
      "type": "function"
    },
    {
      "inputs": [
        {
          "internalType": "address",
          "name": "_nftAddress",
          "type": "address"
        },
        {
          "internalType": "uint256",
          "name": "_nftId",
          "type": "uint256"
        },
        {
          "internalType": "address",
          "name": "_recipient",
          "type": "address"
        }
      ],
      "name": "sendNFT",
      "outputs": [],
      "stateMutability": "nonpayable",
      "type": "function"
    },
    {
      "inputs": [
        {
          "internalType": "uint256",
          "name": "_proposalId",
          "type": "uint256"
        }
      ],
      "name": "startFundingProposalGracePeriod",
      "outputs": [],
      "stateMutability": "nonpayable",
      "type": "function"
    },
    {
      "inputs": [],
      "name": "submitModularProposal",
      "outputs": [],
      "stateMutability": "nonpayable",
      "type": "function"
    },
    {
      "inputs": [
        {
          "components": [
            {
              "internalType": "bool",
              "name": "headOfHouse",
              "type": "bool"
            },
            {
              "internalType": "bool",
              "name": "member",
              "type": "bool"
            }
          ],
          "internalType": "struct IHouseDAO.Role",
          "name": "_role",
          "type": "tuple"
        },
        {
          "internalType": "address",
          "name": "_recipient",
          "type": "address"
        },
        {
          "internalType": "uint256",
          "name": "_funding",
          "type": "uint256"
        },
        {
          "internalType": "uint8",
          "name": "_proposalType",
          "type": "uint8"
        }
      ],
      "name": "submitProposal",
      "outputs": [],
      "stateMutability": "nonpayable",
      "type": "function"
    },
    {
      "inputs": [],
      "name": "threshold",
      "outputs": [
        {
          "internalType": "uint256",
          "name": "",
          "type": "uint256"
        }
      ],
      "stateMutability": "view",
      "type": "function"
    },
    {
      "inputs": [],
      "name": "totalContribution",
      "outputs": [
        {
          "internalType": "uint256",
          "name": "",
          "type": "uint256"
        }
      ],
      "stateMutability": "view",
      "type": "function"
    },
    {
      "inputs": [],
      "name": "totalProposalCount",
      "outputs": [
        {
          "internalType": "uint256",
          "name": "",
          "type": "uint256"
        }
      ],
      "stateMutability": "view",
      "type": "function"
    },
    {
      "inputs": [
        {
          "internalType": "uint256",
          "name": "_proposalId",
          "type": "uint256"
        },
        {
          "internalType": "bool",
          "name": "_vote",
          "type": "bool"
        }
      ],
      "name": "vote",
      "outputs": [],
      "stateMutability": "nonpayable",
      "type": "function"
    },
    {
      "inputs": [],
      "name": "withdraw",
      "outputs": [],
      "stateMutability": "nonpayable",
      "type": "function"
    }
  ],
  "bytecode": "0x60806040526203f4806007556000600f60006101000a81548173ffffffffffffffffffffffffffffffffffffffff021916908373ffffffffffffffffffffffffffffffffffffffff1602179055503480156200005a57600080fd5b50604051620058ce380380620058ce833981810160405281019062000080919062000403565b60005b87518110156200027757600073ffffffffffffffffffffffffffffffffffffffff16888281518110620000df577f4e487b7100000000000000000000000000000000000000000000000000000000600052603260045260246000fd5b602002602001015173ffffffffffffffffffffffffffffffffffffffff1614156200010957600080fd5b6001600260008a848151811062000149577f4e487b7100000000000000000000000000000000000000000000000000000000600052603260045260246000fd5b602002602001015173ffffffffffffffffffffffffffffffffffffffff1673ffffffffffffffffffffffffffffffffffffffff16815260200190815260200160002060010160000160006101000a81548160ff0219169083151502179055506001600260008a8481518110620001e8577f4e487b7100000000000000000000000000000000000000000000000000000000600052603260045260246000fd5b602002602001015173ffffffffffffffffffffffffffffffffffffffff1673ffffffffffffffffffffffffffffffffffffffff16815260200190815260200160002060010160000160016101000a81548160ff021916908315150217905550600560008154809291906200025c90620005cb565b919050555080806200026e90620005cb565b91505062000083565b5085600e60006101000a81548173ffffffffffffffffffffffffffffffffffffffff021916908373ffffffffffffffffffffffffffffffffffffffff1602179055506201518085620002ca91906200052c565b60068190555082600a8190555083600c8190555081600b8190555080600f60006101000a81548173ffffffffffffffffffffffffffffffffffffffff021916908373ffffffffffffffffffffffffffffffffffffffff16021790555050505050505050620006ab565b60006200034a6200034484620004fd565b620004c9565b905080838252602082019050828560208602820111156200036a57600080fd5b60005b858110156200039e5781620003838882620003a8565b8452602084019350602083019250506001810190506200036d565b5050509392505050565b600081519050620003b98162000677565b92915050565b600082601f830112620003d157600080fd5b8151620003e384826020860162000333565b91505092915050565b600081519050620003fd8162000691565b92915050565b600080600080600080600060e0888a0312156200041f57600080fd5b600088015167ffffffffffffffff8111156200043a57600080fd5b620004488a828b01620003bf565b97505060206200045b8a828b01620003a8565b96505060406200046e8a828b01620003ec565b9550506060620004818a828b01620003ec565b9450506080620004948a828b01620003ec565b93505060a0620004a78a828b01620003ec565b92505060c0620004ba8a828b01620003a8565b91505092959891949750929550565b6000604051905081810181811067ffffffffffffffff82111715620004f357620004f262000648565b5b8060405250919050565b600067ffffffffffffffff8211156200051b576200051a62000648565b5b602082029050602081019050919050565b60006200053982620005c1565b91506200054683620005c1565b9250817fffffffffffffffffffffffffffffffffffffffffffffffffffffffffffffffff048311821515161562000582576200058162000619565b5b828202905092915050565b60006200059a82620005a1565b9050919050565b600073ffffffffffffffffffffffffffffffffffffffff82169050919050565b6000819050919050565b6000620005d882620005c1565b91507fffffffffffffffffffffffffffffffffffffffffffffffffffffffffffffffff8214156200060e576200060d62000619565b5b600182019050919050565b7f4e487b7100000000000000000000000000000000000000000000000000000000600052601160045260246000fd5b7f4e487b7100000000000000000000000000000000000000000000000000000000600052604160045260246000fd5b62000682816200058d565b81146200068e57600080fd5b50565b6200069c81620005c1565b8114620006a857600080fd5b50565b61521380620006bb6000396000f3fe608060405234801561001057600080fd5b50600436106102115760003560e01c80637aee47cf11610125578063b0537630116100ad578063e0a8f6f51161007c578063e0a8f6f514610586578063e1c7392a146105a2578063ead0eedf146105ac578063ee6a2a65146105ca578063f96dae0a146105e657610211565b8063b053763014610514578063b69ef8a814610530578063c1cbbca71461054e578063c9d27afe1461056a57610211565b8063a06db7dc116100f4578063a06db7dc14610480578063a25c15591461049e578063a860bd4f146104bc578063ad15140c146104da578063ad5c4648146104f657610211565b80637aee47cf146104105780637e44d7881461042c578063844ccf7d1461044857806387e06c481461046457610211565b8063184a0ae9116101a857806342cde4e81161017757806342cde4e81461038257806349774ae2146103a057806354c37def146103bc5780635ca7cac3146103d85780635d3a8363146103f457610211565b8063184a0ae9146103345780631924ac5114610352578063243a86af1461036e5780633ccfd60b1461037857610211565b80630dc30c7b116101e45780630dc30c7b146102be5780630dcf4b8f146102da57806311aee380146102f8578063158ef93e1461031657610211565b8063013cf08b1461021657806303d0f7201461025057806306fdde031461026e57806308ae4b0c1461028c575b600080fd5b610230600480360381019061022b9190613d90565b610604565b6040516102479b9a99989796959493929190614da3565b60405180910390f35b610258610705565b6040516102659190614d51565b60405180910390f35b61027661070b565b604051610283919061492f565b60405180910390f35b6102a660048036038101906102a19190613c27565b610799565b6040516102b593929190614d6c565b60405180910390f35b6102d860048036038101906102d39190613d90565b610810565b005b6102e2610af6565b6040516102ef9190614d51565b60405180910390f35b610300610afc565b60405161030d9190614d51565b60405180910390f35b61031e610b02565b60405161032b9190614914565b60405180910390f35b61033c610b13565b6040516103499190614d51565b60405180910390f35b61036c60048036038101906103679190613d90565b610b19565b005b610376610cde565b005b610380610ce0565b005b61038a6110ef565b6040516103979190614d51565b60405180910390f35b6103ba60048036038101906103b59190613d90565b6110f5565b005b6103d660048036038101906103d19190613d90565b6114c6565b005b6103f260048036038101906103ed9190613d90565b61192c565b005b61040e60048036038101906104099190613d2d565b6119cf565b005b61042a60048036038101906104259190613d90565b611fa7565b005b61044660048036038101906104419190613d90565b61204a565b005b610462600480360381019061045d9190613c8c565b6121e1565b005b61047e60048036038101906104799190613c27565b6123ce565b005b6104886125cf565b6040516104959190614d51565b60405180910390f35b6104a66125d5565b6040516104b39190614d51565b60405180910390f35b6104c46125db565b6040516104d19190614d51565b60405180910390f35b6104f460048036038101906104ef9190613d90565b6125e1565b005b6104fe6129f1565b60405161050b9190614899565b60405180910390f35b61052e60048036038101906105299190613c50565b612a17565b005b610538612b44565b6040516105459190614d51565b60405180910390f35b61056860048036038101906105639190613d90565b612b4a565b005b610584600480360381019061057f9190613de2565b612e5e565b005b6105a0600480360381019061059b9190613d90565b613328565b005b6105aa6134e4565b005b6105b46136ad565b6040516105c19190614d51565b60405180910390f35b6105e460048036038101906105df9190613d04565b6136b3565b005b6105ee613adf565b6040516105fb9190614899565b60405180910390f35b60036020528060005260406000206000915090508060000154908060010160009054906101000a900460ff16908060010160019054906101000a900473ffffffffffffffffffffffffffffffffffffffff1690806002016040518060400160405290816000820160009054906101000a900460ff161515151581526020016000820160019054906101000a900460ff161515151581525050908060030154908060040154908060050160009054906101000a900460ff16908060060154908060070160009054906101000a900473ffffffffffffffffffffffffffffffffffffffff16908060070160149054906101000a900460ff1690806008015490508b565b600d5481565b6001805461071890615039565b80601f016020809104026020016040519081016040528092919081815260200182805461074490615039565b80156107915780601f1061076657610100808354040283529160200191610791565b820191906000526020600020905b81548152906001019060200180831161077457829003601f168201915b505050505081565b6002602052806000526040600020600091509050806000015490806001016040518060400160405290816000820160009054906101000a900460ff161515151581526020016000820160019054906101000a900460ff161515151581525050908060020160009054906101000a900460ff16905083565b80600015156003600083815260200190815260200160002060070160149054906101000a900460ff1615151461087b576040517f08c379a000000000000000000000000000000000000000000000000000000000815260040161087290614cf1565b60405180910390fd5b600015156003600083815260200190815260200160002060050160009054906101000a900460ff161515146108e5576040517f08c379a00000000000000000000000000000000000000000000000000000000081526004016108dc90614d31565b60405180910390fd5b600a5460036000838152602001908152602001600020600301541015610940576040517f08c379a000000000000000000000000000000000000000000000000000000000815260040161093790614c31565b60405180910390fd5b6003600082815260200190815260200160002060040154600360008381526020019081526020016000206003015410156109af576040517f08c379a00000000000000000000000000000000000000000000000000000000081526004016109a690614d11565b60405180910390fd5b60006003600084815260200190815260200160002060010160009054906101000a900460ff1660ff1614610a18576040517f08c379a0000000000000000000000000000000000000000000000000000000008152600401610a0f90614cb1565b60405180910390fd5b6000600360008481526020019081526020016000206008015414610a71576040517f08c379a0000000000000000000000000000000000000000000000000000000008152600401610a6890614991565b60405180910390fd5b4260036000848152602001908152602001600020600601541115610aca576040517f08c379a0000000000000000000000000000000000000000000000000000000008152600401610ac190614971565b60405180910390fd5b60075442610ad89190614e9c565b60036000848152602001908152602001600020600801819055505050565b60085481565b60055481565b60008054906101000a900460ff1681565b60065481565b80600e60009054906101000a900473ffffffffffffffffffffffffffffffffffffffff1673ffffffffffffffffffffffffffffffffffffffff166370a08231336040518263ffffffff1660e01b8152600401610b759190614899565b60206040518083038186803b158015610b8d57600080fd5b505afa158015610ba1573d6000803e3d6000fd5b505050506040513d601f19601f82011682018060405250810190610bc59190613db9565b1015610c06576040517f08c379a0000000000000000000000000000000000000000000000000000000008152600401610bfd90614a51565b60405180910390fd5b610c1b81600c54613b0590919063ffffffff16565b600c81905550600e60009054906101000a900473ffffffffffffffffffffffffffffffffffffffff1673ffffffffffffffffffffffffffffffffffffffff166323b872dd3330846040518463ffffffff1660e01b8152600401610c80939291906148b4565b602060405180830381600087803b158015610c9a57600080fd5b505af1158015610cae573d6000803e3d6000fd5b505050506040513d601f19601f82011682018060405250810190610cd29190613cdb565b610cdb57600080fd5b50565b565b60011515600260003373ffffffffffffffffffffffffffffffffffffffff1673ffffffffffffffffffffffffffffffffffffffff16815260200190815260200160002060010160000160019054906101000a900460ff16151514610d79576040517f08c379a0000000000000000000000000000000000000000000000000000000008152600401610d7090614b51565b60405180910390fd5b6000600260003373ffffffffffffffffffffffffffffffffffffffff1673ffffffffffffffffffffffffffffffffffffffff1681526020019081526020016000206000015411610dfe576040517f08c379a0000000000000000000000000000000000000000000000000000000008152600401610df590614bb1565b60405180910390fd5b600060095411610e43576040517f08c379a0000000000000000000000000000000000000000000000000000000008152600401610e3a90614c51565b60405180910390fd5b6000610e9c600954600260003373ffffffffffffffffffffffffffffffffffffffff1673ffffffffffffffffffffffffffffffffffffffff16815260200190815260200160002060000154613b1b90919063ffffffff16565b90506000610eb560085483613b3190919063ffffffff16565b9050610f0e600260003373ffffffffffffffffffffffffffffffffffffffff1673ffffffffffffffffffffffffffffffffffffffff16815260200190815260200160002060000154600854613b4790919063ffffffff16565b6008819055506000600260003373ffffffffffffffffffffffffffffffffffffffff1673ffffffffffffffffffffffffffffffffffffffff168152602001908152602001600020600001819055506000600260003373ffffffffffffffffffffffffffffffffffffffff1673ffffffffffffffffffffffffffffffffffffffff16815260200190815260200160002060010160000160016101000a81548160ff0219169083151502179055506000600260003373ffffffffffffffffffffffffffffffffffffffff1673ffffffffffffffffffffffffffffffffffffffff16815260200190815260200160002060010160000160006101000a81548160ff02191690831515021790555061102d81600954613b4790919063ffffffff16565b600981905550600f60009054906101000a900473ffffffffffffffffffffffffffffffffffffffff1673ffffffffffffffffffffffffffffffffffffffff1663a9059cbb33836040518363ffffffff1660e01b81526004016110909291906148eb565b602060405180830381600087803b1580156110aa57600080fd5b505af11580156110be573d6000803e3d6000fd5b505050506040513d601f19601f820116820180604052508101906110e29190613cdb565b6110eb57600080fd5b5050565b600a5481565b80600015156003600083815260200190815260200160002060070160149054906101000a900460ff16151514611160576040517f08c379a000000000000000000000000000000000000000000000000000000000815260040161115790614cf1565b60405180910390fd5b600015156003600083815260200190815260200160002060050160009054906101000a900460ff161515146111ca576040517f08c379a00000000000000000000000000000000000000000000000000000000081526004016111c190614d31565b60405180910390fd5b600a5460036000838152602001908152602001600020600301541015611225576040517f08c379a000000000000000000000000000000000000000000000000000000000815260040161121c90614c31565b60405180910390fd5b600360008281526020019081526020016000206004015460036000838152602001908152602001600020600301541015611294576040517f08c379a000000000000000000000000000000000000000000000000000000000815260040161128b90614d11565b60405180910390fd5b60026003600084815260200190815260200160002060010160009054906101000a900460ff1660ff16146112fd576040517f08c379a00000000000000000000000000000000000000000000000000000000081526004016112f4906149b1565b60405180910390fd5b4260036000848152602001908152602001600020600601541115611356576040517f08c379a000000000000000000000000000000000000000000000000000000000815260040161134d90614971565b60405180910390fd5b6001600260006003600086815260200190815260200160002060070160009054906101000a900473ffffffffffffffffffffffffffffffffffffffff1673ffffffffffffffffffffffffffffffffffffffff1673ffffffffffffffffffffffffffffffffffffffff16815260200190815260200160002060010160000160016101000a81548160ff02191690831515021790555060016003600084815260200190815260200160002060050160006101000a81548160ff0219169083151502179055506000600260006003600086815260200190815260200160002060070160009054906101000a900473ffffffffffffffffffffffffffffffffffffffff1673ffffffffffffffffffffffffffffffffffffffff1673ffffffffffffffffffffffffffffffffffffffff16815260200190815260200160002060020160006101000a81548160ff021916908315150217905550600560008154809291906114bd9061506b565b91905055505050565b80600015156003600083815260200190815260200160002060070160149054906101000a900460ff16151514611531576040517f08c379a000000000000000000000000000000000000000000000000000000000815260040161152890614cf1565b60405180910390fd5b600015156003600083815260200190815260200160002060050160009054906101000a900460ff1615151461159b576040517f08c379a000000000000000000000000000000000000000000000000000000000815260040161159290614d31565b60405180910390fd5b600a54600360008381526020019081526020016000206003015410156115f6576040517f08c379a00000000000000000000000000000000000000000000000000000000081526004016115ed90614c31565b60405180910390fd5b600360008281526020019081526020016000206004015460036000838152602001908152602001600020600301541015611665576040517f08c379a000000000000000000000000000000000000000000000000000000000815260040161165c90614d11565b60405180910390fd5b600360008381526020019081526020016000206000015460095410156116c0576040517f08c379a00000000000000000000000000000000000000000000000000000000081526004016116b790614a71565b60405180910390fd5b6003600083815260200190815260200160002060080154421015611719576040517f08c379a000000000000000000000000000000000000000000000000000000000815260040161171090614c71565b60405180910390fd5b6117446003600084815260200190815260200160002060000154600954613b4790919063ffffffff16565b6009819055506000600260006003600086815260200190815260200160002060070160009054906101000a900473ffffffffffffffffffffffffffffffffffffffff1673ffffffffffffffffffffffffffffffffffffffff1673ffffffffffffffffffffffffffffffffffffffff16815260200190815260200160002060020160006101000a81548160ff02191690831515021790555060016003600084815260200190815260200160002060050160006101000a81548160ff021916908315150217905550600d600081548092919061181d9061506b565b9190505550600f60009054906101000a900473ffffffffffffffffffffffffffffffffffffffff1673ffffffffffffffffffffffffffffffffffffffff166323b872dd306003600086815260200190815260200160002060010160019054906101000a900473ffffffffffffffffffffffffffffffffffffffff1660036000878152602001908152602001600020600001546040518463ffffffff1660e01b81526004016118cd939291906148b4565b602060405180830381600087803b1580156118e757600080fd5b505af11580156118fb573d6000803e3d6000fd5b505050506040513d601f19601f8201168201806040525081019061191f9190613cdb565b61192857600080fd5b5050565b60011515600260003373ffffffffffffffffffffffffffffffffffffffff1673ffffffffffffffffffffffffffffffffffffffff16815260200190815260200160002060010160000160009054906101000a900460ff161515146119c5576040517f08c379a00000000000000000000000000000000000000000000000000000000081526004016119bc90614bd1565b60405180910390fd5b80600b8190555050565b60011515600260003373ffffffffffffffffffffffffffffffffffffffff1673ffffffffffffffffffffffffffffffffffffffff16815260200190815260200160002060010160000160019054906101000a900460ff16151514611a68576040517f08c379a0000000000000000000000000000000000000000000000000000000008152600401611a5f90614b51565b60405180910390fd5b816009541015611aad576040517f08c379a0000000000000000000000000000000000000000000000000000000008152600401611aa490614b71565b60405180910390fd5b60001515600260003373ffffffffffffffffffffffffffffffffffffffff1673ffffffffffffffffffffffffffffffffffffffff16815260200190815260200160002060020160009054906101000a900460ff16151514611b43576040517f08c379a0000000000000000000000000000000000000000000000000000000008152600401611b3a90614ab1565b60405180910390fd5b600b54600e60009054906101000a900473ffffffffffffffffffffffffffffffffffffffff1673ffffffffffffffffffffffffffffffffffffffff166370a08231336040518263ffffffff1660e01b8152600401611ba19190614899565b60206040518083038186803b158015611bb957600080fd5b505afa158015611bcd573d6000803e3d6000fd5b505050506040513d601f19601f82011682018060405250810190611bf19190613db9565b1015611c32576040517f08c379a0000000000000000000000000000000000000000000000000000000008152600401611c2990614cd1565b60405180910390fd5b6001600260003373ffffffffffffffffffffffffffffffffffffffff1673ffffffffffffffffffffffffffffffffffffffff16815260200190815260200160002060020160006101000a81548160ff02191690831515021790555081600360006004548152602001908152602001600020600001819055508360036000600454815260200190815260200160002060020160008201518160000160006101000a81548160ff02191690831515021790555060208201518160000160016101000a81548160ff0219169083151502179055509050508060036000600454815260200190815260200160002060010160006101000a81548160ff021916908360ff160217905550600e60009054906101000a900473ffffffffffffffffffffffffffffffffffffffff1673ffffffffffffffffffffffffffffffffffffffff166370a08231336040518263ffffffff1660e01b8152600401611d929190614899565b60206040518083038186803b158015611daa57600080fd5b505afa158015611dbe573d6000803e3d6000fd5b505050506040513d601f19601f82011682018060405250810190611de29190613db9565b6003600060045481526020019081526020016000206003018190555060065442611e0c9190614e9c565b600360006004548152602001908152602001600020600601819055503360036000600454815260200190815260200160002060070160006101000a81548173ffffffffffffffffffffffffffffffffffffffff021916908373ffffffffffffffffffffffffffffffffffffffff1602179055508260036000600454815260200190815260200160002060010160016101000a81548173ffffffffffffffffffffffffffffffffffffffff021916908373ffffffffffffffffffffffffffffffffffffffff160217905550600160036000600454815260200190815260200160002060090160003373ffffffffffffffffffffffffffffffffffffffff1673ffffffffffffffffffffffffffffffffffffffff16815260200190815260200160002060006101000a81548160ff02191690831515021790555060046000815480929190611f579061506b565b91905055507fc2c021f5d73c63c481d336fbbafec58f694fc45095f00b02d2deb8cca59afe076001600454611f8c9190614f7d565b604051611f999190614d51565b60405180910390a150505050565b60011515600260003373ffffffffffffffffffffffffffffffffffffffff1673ffffffffffffffffffffffffffffffffffffffff16815260200190815260200160002060010160000160009054906101000a900460ff16151514612040576040517f08c379a000000000000000000000000000000000000000000000000000000000815260040161203790614bd1565b60405180910390fd5b80600a8190555050565b600015156003600083815260200190815260200160002060070160149054906101000a900460ff161515146120b4576040517f08c379a00000000000000000000000000000000000000000000000000000000081526004016120ab90614a11565b60405180910390fd5b600015156003600083815260200190815260200160002060050160009054906101000a900460ff1615151461211e576040517f08c379a000000000000000000000000000000000000000000000000000000000815260040161211590614ad1565b60405180910390fd5b60016003600083815260200190815260200160002060070160146101000a81548160ff0219169083151502179055506000600260006003600085815260200190815260200160002060070160009054906101000a900473ffffffffffffffffffffffffffffffffffffffff1673ffffffffffffffffffffffffffffffffffffffff1673ffffffffffffffffffffffffffffffffffffffff16815260200190815260200160002060020160006101000a81548160ff02191690831515021790555050565b60011515600260003373ffffffffffffffffffffffffffffffffffffffff1673ffffffffffffffffffffffffffffffffffffffff16815260200190815260200160002060010160000160009054906101000a900460ff1615151461227a576040517f08c379a000000000000000000000000000000000000000000000000000000000815260040161227190614bd1565b60405180910390fd5b600073ffffffffffffffffffffffffffffffffffffffff168373ffffffffffffffffffffffffffffffffffffffff1614156122ea576040517f08c379a00000000000000000000000000000000000000000000000000000000081526004016122e190614b91565b60405180910390fd5b600073ffffffffffffffffffffffffffffffffffffffff168173ffffffffffffffffffffffffffffffffffffffff16141561235a576040517f08c379a000000000000000000000000000000000000000000000000000000000815260040161235190614951565b60405180910390fd5b8273ffffffffffffffffffffffffffffffffffffffff166342842e0e3083856040518463ffffffff1660e01b8152600401612397939291906148b4565b600060405180830381600087803b1580156123b157600080fd5b505af11580156123c5573d6000803e3d6000fd5b50505050505050565b60011515600260003373ffffffffffffffffffffffffffffffffffffffff1673ffffffffffffffffffffffffffffffffffffffff16815260200190815260200160002060010160000160009054906101000a900460ff16151514612467576040517f08c379a000000000000000000000000000000000000000000000000000000000815260040161245e90614bd1565b60405180910390fd5b600b54600e60009054906101000a900473ffffffffffffffffffffffffffffffffffffffff1673ffffffffffffffffffffffffffffffffffffffff166370a08231836040518263ffffffff1660e01b81526004016124c59190614899565b60206040518083038186803b1580156124dd57600080fd5b505afa1580156124f1573d6000803e3d6000fd5b505050506040513d601f19601f820116820180604052508101906125159190613db9565b1015612556576040517f08c379a000000000000000000000000000000000000000000000000000000000815260040161254d90614b31565b60405180910390fd5b6001600260008373ffffffffffffffffffffffffffffffffffffffff1673ffffffffffffffffffffffffffffffffffffffff16815260200190815260200160002060010160000160016101000a81548160ff021916908315150217905550600560008154809291906125c79061506b565b919050555050565b60075481565b600c5481565b600b5481565b80600015156003600083815260200190815260200160002060070160149054906101000a900460ff1615151461264c576040517f08c379a000000000000000000000000000000000000000000000000000000000815260040161264390614cf1565b60405180910390fd5b600015156003600083815260200190815260200160002060050160009054906101000a900460ff161515146126b6576040517f08c379a00000000000000000000000000000000000000000000000000000000081526004016126ad90614d31565b60405180910390fd5b600a5460036000838152602001908152602001600020600301541015612711576040517f08c379a000000000000000000000000000000000000000000000000000000000815260040161270890614c31565b60405180910390fd5b600360008281526020019081526020016000206004015460036000838152602001908152602001600020600301541015612780576040517f08c379a000000000000000000000000000000000000000000000000000000000815260040161277790614d11565b60405180910390fd5b60016003600084815260200190815260200160002060010160009054906101000a900460ff1660ff16146127e9576040517f08c379a00000000000000000000000000000000000000000000000000000000081526004016127e0906149f1565b60405180910390fd5b4260036000848152602001908152602001600020600601541115612842576040517f08c379a000000000000000000000000000000000000000000000000000000000815260040161283990614971565b60405180910390fd5b60036000838152602001908152602001600020600201600260006003600086815260200190815260200160002060010160019054906101000a900473ffffffffffffffffffffffffffffffffffffffff1673ffffffffffffffffffffffffffffffffffffffff1673ffffffffffffffffffffffffffffffffffffffff1681526020019081526020016000206001016000820160009054906101000a900460ff168160000160006101000a81548160ff0219169083151502179055506000820160019054906101000a900460ff168160000160016101000a81548160ff0219169083151502179055509050506000600260006003600086815260200190815260200160002060070160009054906101000a900473ffffffffffffffffffffffffffffffffffffffff1673ffffffffffffffffffffffffffffffffffffffff1673ffffffffffffffffffffffffffffffffffffffff16815260200190815260200160002060020160006101000a81548160ff02191690831515021790555060016003600084815260200190815260200160002060050160006101000a81548160ff0219169083151502179055505050565b600f60009054906101000a900473ffffffffffffffffffffffffffffffffffffffff1681565b60011515600260003373ffffffffffffffffffffffffffffffffffffffff1673ffffffffffffffffffffffffffffffffffffffff16815260200190815260200160002060010160000160009054906101000a900460ff16151514612ab0576040517f08c379a0000000000000000000000000000000000000000000000000000000008152600401612aa790614bd1565b60405180910390fd5b8173ffffffffffffffffffffffffffffffffffffffff166323b872dd3033846040518463ffffffff1660e01b8152600401612aed939291906148b4565b602060405180830381600087803b158015612b0757600080fd5b505af1158015612b1b573d6000803e3d6000fd5b505050506040513d601f19601f82011682018060405250810190612b3f9190613cdb565b505050565b60095481565b60011515600260003373ffffffffffffffffffffffffffffffffffffffff1673ffffffffffffffffffffffffffffffffffffffff16815260200190815260200160002060010160000160019054906101000a900460ff16151514612be3576040517f08c379a0000000000000000000000000000000000000000000000000000000008152600401612bda90614b51565b60405180910390fd5b80600f60009054906101000a900473ffffffffffffffffffffffffffffffffffffffff1673ffffffffffffffffffffffffffffffffffffffff166370a08231336040518263ffffffff1660e01b8152600401612c3f9190614899565b60206040518083038186803b158015612c5757600080fd5b505afa158015612c6b573d6000803e3d6000fd5b505050506040513d601f19601f82011682018060405250810190612c8f9190613db9565b1015612cd0576040517f08c379a0000000000000000000000000000000000000000000000000000000008152600401612cc790614a31565b60405180910390fd5b612d2581600260003373ffffffffffffffffffffffffffffffffffffffff1673ffffffffffffffffffffffffffffffffffffffff16815260200190815260200160002060000154613b0590919063ffffffff16565b600260003373ffffffffffffffffffffffffffffffffffffffff1673ffffffffffffffffffffffffffffffffffffffff16815260200190815260200160002060000181905550612d8081600854613b0590919063ffffffff16565b600881905550612d9b81600954613b0590919063ffffffff16565b600981905550600f60009054906101000a900473ffffffffffffffffffffffffffffffffffffffff1673ffffffffffffffffffffffffffffffffffffffff166323b872dd3330846040518463ffffffff1660e01b8152600401612e00939291906148b4565b602060405180830381600087803b158015612e1a57600080fd5b505af1158015612e2e573d6000803e3d6000fd5b505050506040513d601f19601f82011682018060405250810190612e529190613cdb565b612e5b57600080fd5b50565b60011515600260003373ffffffffffffffffffffffffffffffffffffffff1673ffffffffffffffffffffffffffffffffffffffff16815260200190815260200160002060010160000160019054906101000a900460ff16151514612ef7576040517f08c379a0000000000000000000000000000000000000000000000000000000008152600401612eee90614b51565b60405180910390fd5b600015156003600084815260200190815260200160002060090160003373ffffffffffffffffffffffffffffffffffffffff1673ffffffffffffffffffffffffffffffffffffffff16815260200190815260200160002060009054906101000a900460ff16151514612f9e576040517f08c379a0000000000000000000000000000000000000000000000000000000008152600401612f95906149d1565b60405180910390fd5b600015156003600084815260200190815260200160002060070160149054906101000a900460ff16151514613008576040517f08c379a0000000000000000000000000000000000000000000000000000000008152600401612fff90614a91565b60405180910390fd5b600015156003600084815260200190815260200160002060050160009054906101000a900460ff16151514613072576040517f08c379a000000000000000000000000000000000000000000000000000000000815260040161306990614b11565b60405180910390fd5b42600360008481526020019081526020016000206006015410156130cb576040517f08c379a00000000000000000000000000000000000000000000000000000000081526004016130c290614c11565b60405180910390fd5b60016003600084815260200190815260200160002060090160003373ffffffffffffffffffffffffffffffffffffffff1673ffffffffffffffffffffffffffffffffffffffff16815260200190815260200160002060006101000a81548160ff02191690831515021790555060001515811515141561323657613217600e60009054906101000a900473ffffffffffffffffffffffffffffffffffffffff1673ffffffffffffffffffffffffffffffffffffffff166370a08231336040518263ffffffff1660e01b81526004016131a29190614899565b60206040518083038186803b1580156131ba57600080fd5b505afa1580156131ce573d6000803e3d6000fd5b505050506040513d601f19601f820116820180604052508101906131f29190613db9565b6003600085815260200190815260200160002060040154613b0590919063ffffffff16565b6003600084815260200190815260200160002060040181905550613324565b613309600e60009054906101000a900473ffffffffffffffffffffffffffffffffffffffff1673ffffffffffffffffffffffffffffffffffffffff166370a08231336040518263ffffffff1660e01b81526004016132949190614899565b60206040518083038186803b1580156132ac57600080fd5b505afa1580156132c0573d6000803e3d6000fd5b505050506040513d601f19601f820116820180604052508101906132e49190613db9565b6003600085815260200190815260200160002060030154613b0590919063ffffffff16565b60036000848152602001908152602001600020600301819055505b5050565b600015156003600083815260200190815260200160002060070160149054906101000a900460ff1615151461335c57600080fd5b600015156003600083815260200190815260200160002060050160009054906101000a900460ff1615151461339057600080fd5b42600360008381526020019081526020016000206006015410156133b357600080fd5b3373ffffffffffffffffffffffffffffffffffffffff166003600083815260200190815260200160002060070160009054906101000a900473ffffffffffffffffffffffffffffffffffffffff1673ffffffffffffffffffffffffffffffffffffffff161461342157600080fd5b60016003600083815260200190815260200160002060070160146101000a81548160ff0219169083151502179055506000600260006003600085815260200190815260200160002060070160009054906101000a900473ffffffffffffffffffffffffffffffffffffffff1673ffffffffffffffffffffffffffffffffffffffff1673ffffffffffffffffffffffffffffffffffffffff16815260200190815260200160002060020160006101000a81548160ff02191690831515021790555050565b60011515600260003373ffffffffffffffffffffffffffffffffffffffff1673ffffffffffffffffffffffffffffffffffffffff16815260200190815260200160002060010160000160009054906101000a900460ff1615151461357d576040517f08c379a000000000000000000000000000000000000000000000000000000000815260040161357490614bd1565b60405180910390fd5b6000151560008054906101000a900460ff161515146135d1576040517f08c379a00000000000000000000000000000000000000000000000000000000081526004016135c890614af1565b60405180910390fd5b60016000806101000a81548160ff0219169083151502179055506000600c5411156136ab57600e60009054906101000a900473ffffffffffffffffffffffffffffffffffffffff1673ffffffffffffffffffffffffffffffffffffffff166323b872dd3330600c546040518463ffffffff1660e01b8152600401613657939291906148b4565b602060405180830381600087803b15801561367157600080fd5b505af1158015613685573d6000803e3d6000fd5b505050506040513d601f19601f820116820180604052508101906136a99190613cdb565b505b565b60045481565b60001515600260003373ffffffffffffffffffffffffffffffffffffffff1673ffffffffffffffffffffffffffffffffffffffff16815260200190815260200160002060010160000160019054906101000a900460ff1615151461374c576040517f08c379a000000000000000000000000000000000000000000000000000000000815260040161374390614c91565b60405180910390fd5b600b54600e60009054906101000a900473ffffffffffffffffffffffffffffffffffffffff1673ffffffffffffffffffffffffffffffffffffffff166370a08231336040518263ffffffff1660e01b81526004016137aa9190614899565b60206040518083038186803b1580156137c257600080fd5b505afa1580156137d6573d6000803e3d6000fd5b505050506040513d601f19601f820116820180604052508101906137fa9190613db9565b101561383b576040517f08c379a000000000000000000000000000000000000000000000000000000000815260040161383290614bf1565b60405180910390fd5b8060036000600454815260200190815260200160002060020160008201518160000160006101000a81548160ff02191690831515021790555060208201518160000160016101000a81548160ff021916908315150217905550905050600260036000600454815260200190815260200160002060010160006101000a81548160ff021916908360ff160217905550600e60009054906101000a900473ffffffffffffffffffffffffffffffffffffffff1673ffffffffffffffffffffffffffffffffffffffff166370a08231336040518263ffffffff1660e01b81526004016139249190614899565b60206040518083038186803b15801561393c57600080fd5b505afa158015613950573d6000803e3d6000fd5b505050506040513d601f19601f820116820180604052508101906139749190613db9565b600360006004548152602001908152602001600020600301819055506006544261399e9190614e9c565b600360006004548152602001908152602001600020600601819055503360036000600454815260200190815260200160002060070160006101000a81548173ffffffffffffffffffffffffffffffffffffffff021916908373ffffffffffffffffffffffffffffffffffffffff160217905550600160036000600454815260200190815260200160002060090160003373ffffffffffffffffffffffffffffffffffffffff1673ffffffffffffffffffffffffffffffffffffffff16815260200190815260200160002060006101000a81548160ff02191690831515021790555060046000815480929190613a929061506b565b91905055507fc2c021f5d73c63c481d336fbbafec58f694fc45095f00b02d2deb8cca59afe076001600454613ac79190614f7d565b604051613ad49190614d51565b60405180910390a150565b600e60009054906101000a900473ffffffffffffffffffffffffffffffffffffffff1681565b60008183613b139190614e9c565b905092915050565b60008183613b299190614f23565b905092915050565b60008183613b3f9190614ef2565b905092915050565b60008183613b559190614f7d565b905092915050565b600081359050613b6c81615181565b92915050565b600081359050613b8181615198565b92915050565b600081519050613b9681615198565b92915050565b600060408284031215613bae57600080fd5b613bb86040614e4f565b90506000613bc884828501613b72565b6000830152506020613bdc84828501613b72565b60208301525092915050565b600081359050613bf7816151af565b92915050565b600081519050613c0c816151af565b92915050565b600081359050613c21816151c6565b92915050565b600060208284031215613c3957600080fd5b6000613c4784828501613b5d565b91505092915050565b60008060408385031215613c6357600080fd5b6000613c7185828601613b5d565b9250506020613c8285828601613be8565b9150509250929050565b600080600060608486031215613ca157600080fd5b6000613caf86828701613b5d565b9350506020613cc086828701613be8565b9250506040613cd186828701613b5d565b9150509250925092565b600060208284031215613ced57600080fd5b6000613cfb84828501613b87565b91505092915050565b600060408284031215613d1657600080fd5b6000613d2484828501613b9c565b91505092915050565b60008060008060a08587031215613d4357600080fd5b6000613d5187828801613b9c565b9450506040613d6287828801613b5d565b9350506060613d7387828801613be8565b9250506080613d8487828801613c12565b91505092959194509250565b600060208284031215613da257600080fd5b6000613db084828501613be8565b91505092915050565b600060208284031215613dcb57600080fd5b6000613dd984828501613bfd565b91505092915050565b60008060408385031215613df557600080fd5b6000613e0385828601613be8565b9250506020613e1485828601613b72565b9150509250929050565b613e2781614fb1565b82525050565b613e3681614fc3565b82525050565b613e4581614fc3565b82525050565b6000613e5682614e80565b613e608185614e8b565b9350613e70818560208601615006565b613e7981615170565b840191505092915050565b6000613e91601a83614e8b565b91507f5f726563697069656e742069732061646472657373207a65726f0000000000006000830152602082019050919050565b6000613ed1602483614e8b565b91507f70726f706f73616c20646561646c696e6520686173206e6f742070617373656460008301527f20796574000000000000000000000000000000000000000000000000000000006020830152604082019050919050565b6000613f37602583614e8b565b91507f70726f706f73616c20616c726561647920656e7465726564206772616365207060008301527f6572696f640000000000000000000000000000000000000000000000000000006020830152604082019050919050565b6000613f9d601e83614e8b565b91507f70726f706f73616c206973206e6f7420656e7465722064616f207479706500006000830152602082019050919050565b6000613fdd600d83614e8b565b91507f616c726561647920766f746564000000000000000000000000000000000000006000830152602082019050919050565b600061401d602083614e8b565b91507f70726f706f73616c206973206e6f74206368616e676520726f6c6520747970656000830152602082019050919050565b600061405d601c83614e8b565b91507f6a6f696e2064616f20697320616c72656164792063616e63656c6564000000006000830152602082019050919050565b600061409d602083614e8b565b91507f6d656d62657220646f6573206e6f74206861766520656e6f75676820776574686000830152602082019050919050565b60006140dd602683614e8b565b91507f6d656d62657220646f6573206e6f74206861766520656e6f75676820676f762060008301527f746f6b656e7300000000000000000000000000000000000000000000000000006020830152604082019050919050565b6000614143602783614e8b565b91507f6e6f7420656e6f7567682066756e6473206f6e207468652044414f20746f206660008301527f696e616c697a65000000000000000000000000000000000000000000000000006020830152604082019050919050565b60006141a9601a83614e8b565b91507f70726f706f73616c20686173206265656e2063616e63656c65640000000000006000830152602082019050919050565b60006141e9602683614e8b565b91507f6d656d656265722068617320616e206163746976652070726f706f73616c206160008301527f6c726561647900000000000000000000000000000000000000000000000000006020830152604082019050919050565b600061424f602283614e8b565b91507f63616e6e6f742063616e63656c20616e206578656374757265206a6f696e206460008301527f616f0000000000000000000000000000000000000000000000000000000000006020830152604082019050919050565b60006142b5601383614e8b565b91507f616c726561647920696e697469616c697a6564000000000000000000000000006000830152602082019050919050565b60006142f5601c83614e8b565b91507f70726f706f73616c20697320616c7265616479206578656375746564000000006000830152602082019050919050565b6000614335602783614e8b565b91507f73706f6e736f7220646f6573206e6f74206861766520656e6f75676820676f7660008301527f20746f6b656e73000000000000000000000000000000000000000000000000006020830152604082019050919050565b600061439b600c83614e8b565b91507f6e6f742061206d656d62657200000000000000000000000000000000000000006000830152602082019050919050565b60006143db603183614e8b565b91507f6d6f72652066756e6473206172652072657175657374207468616e207468652060008301527f44414f2063757272656e746c79206861730000000000000000000000000000006020830152604082019050919050565b6000614441601383614e8b565b91507f6e66742061646472657373206973207a65726f000000000000000000000000006000830152602082019050919050565b6000614481602283614e8b565b91507f6e6f206d656d62657220636f6e747269627574696f6e20746f2077697468647260008301527f61770000000000000000000000000000000000000000000000000000000000006020830152604082019050919050565b60006144e7601383614e8b565b91507f6e6f7420612068656164206f6620686f757365000000000000000000000000006000830152602082019050919050565b6000614527602883614e8b565b91507f6a6f696e2064616f20646f6573206e6f74206861766520656e6f75676820676f60008301527f7620746f6b656e730000000000000000000000000000000000000000000000006020830152604082019050919050565b600061458d601d83614e8b565b91507f70726f706f73616c20697320706173742074686520646561646c696e650000006000830152602082019050919050565b60006145cd602583614e8b565b91507f70726f706f73616c20646f6573206e6f74206d65657420766f7465207468726560008301527f73686f6c640000000000000000000000000000000000000000000000000000006020830152604082019050919050565b6000614633601383614e8b565b91507f6e6f7468696e6720746f207769746864726177000000000000000000000000006000830152602082019050919050565b6000614673601c83614e8b565b91507f677261636520706572696f6420686173206e6f7420656c6170736564000000006000830152602082019050919050565b60006146b3601083614e8b565b91507f616c72656164792061206d656d626572000000000000000000000000000000006000830152602082019050919050565b60006146f3601e83614e8b565b91507f70726f706f73616c206973206e6f7420612066756e64696e67207479706500006000830152602082019050919050565b6000614733602f83614e8b565b91507f7375626d69742070726f706f73616c20646f6573206e6f74206861766520656e60008301527f6f75676820676f7620746f6b656e7300000000000000000000000000000000006020830152604082019050919050565b6000614799601583614e8b565b91507f70726f706f73616c207761732063616e63656c656400000000000000000000006000830152602082019050919050565b60006147d9601583614e8b565b91507f6e6f20766f746573206f757477656967682079657300000000000000000000006000830152602082019050919050565b6000614819601983614e8b565b91507f70726f706f73616c20616c7265616479206578656375746564000000000000006000830152602082019050919050565b6040820160008201516148626000850182613e2d565b5060208201516148756020850182613e2d565b50505050565b61488481614fef565b82525050565b61489381614ff9565b82525050565b60006020820190506148ae6000830184613e1e565b92915050565b60006060820190506148c96000830186613e1e565b6148d66020830185613e1e565b6148e3604083018461487b565b949350505050565b60006040820190506149006000830185613e1e565b61490d602083018461487b565b9392505050565b60006020820190506149296000830184613e3c565b92915050565b600060208201905081810360008301526149498184613e4b565b905092915050565b6000602082019050818103600083015261496a81613e84565b9050919050565b6000602082019050818103600083015261498a81613ec4565b9050919050565b600060208201905081810360008301526149aa81613f2a565b9050919050565b600060208201905081810360008301526149ca81613f90565b9050919050565b600060208201905081810360008301526149ea81613fd0565b9050919050565b60006020820190508181036000830152614a0a81614010565b9050919050565b60006020820190508181036000830152614a2a81614050565b9050919050565b60006020820190508181036000830152614a4a81614090565b9050919050565b60006020820190508181036000830152614a6a816140d0565b9050919050565b60006020820190508181036000830152614a8a81614136565b9050919050565b60006020820190508181036000830152614aaa8161419c565b9050919050565b60006020820190508181036000830152614aca816141dc565b9050919050565b60006020820190508181036000830152614aea81614242565b9050919050565b60006020820190508181036000830152614b0a816142a8565b9050919050565b60006020820190508181036000830152614b2a816142e8565b9050919050565b60006020820190508181036000830152614b4a81614328565b9050919050565b60006020820190508181036000830152614b6a8161438e565b9050919050565b60006020820190508181036000830152614b8a816143ce565b9050919050565b60006020820190508181036000830152614baa81614434565b9050919050565b60006020820190508181036000830152614bca81614474565b9050919050565b60006020820190508181036000830152614bea816144da565b9050919050565b60006020820190508181036000830152614c0a8161451a565b9050919050565b60006020820190508181036000830152614c2a81614580565b9050919050565b60006020820190508181036000830152614c4a816145c0565b9050919050565b60006020820190508181036000830152614c6a81614626565b9050919050565b60006020820190508181036000830152614c8a81614666565b9050919050565b60006020820190508181036000830152614caa816146a6565b9050919050565b60006020820190508181036000830152614cca816146e6565b9050919050565b60006020820190508181036000830152614cea81614726565b9050919050565b60006020820190508181036000830152614d0a8161478c565b9050919050565b60006020820190508181036000830152614d2a816147cc565b9050919050565b60006020820190508181036000830152614d4a8161480c565b9050919050565b6000602082019050614d66600083018461487b565b92915050565b6000608082019050614d81600083018661487b565b614d8e602083018561484c565b614d9b6060830184613e3c565b949350505050565b600061018082019050614db9600083018e61487b565b614dc6602083018d61488a565b614dd3604083018c613e1e565b614de0606083018b61484c565b614ded60a083018a61487b565b614dfa60c083018961487b565b614e0760e0830188613e3c565b614e1561010083018761487b565b614e23610120830186613e1e565b614e31610140830185613e3c565b614e3f61016083018461487b565b9c9b505050505050505050505050565b6000604051905081810181811067ffffffffffffffff82111715614e7657614e75615141565b5b8060405250919050565b600081519050919050565b600082825260208201905092915050565b6000614ea782614fef565b9150614eb283614fef565b9250827fffffffffffffffffffffffffffffffffffffffffffffffffffffffffffffffff03821115614ee757614ee66150b4565b5b828201905092915050565b6000614efd82614fef565b9150614f0883614fef565b925082614f1857614f176150e3565b5b828204905092915050565b6000614f2e82614fef565b9150614f3983614fef565b9250817fffffffffffffffffffffffffffffffffffffffffffffffffffffffffffffffff0483118215151615614f7257614f716150b4565b5b828202905092915050565b6000614f8882614fef565b9150614f9383614fef565b925082821015614fa657614fa56150b4565b5b828203905092915050565b6000614fbc82614fcf565b9050919050565b60008115159050919050565b600073ffffffffffffffffffffffffffffffffffffffff82169050919050565b6000819050919050565b600060ff82169050919050565b60005b83811015615024578082015181840152602081019050615009565b83811115615033576000848401525b50505050565b6000600282049050600182168061505157607f821691505b6020821081141561506557615064615112565b5b50919050565b600061507682614fef565b91507fffffffffffffffffffffffffffffffffffffffffffffffffffffffffffffffff8214156150a9576150a86150b4565b5b600182019050919050565b7f4e487b7100000000000000000000000000000000000000000000000000000000600052601160045260246000fd5b7f4e487b7100000000000000000000000000000000000000000000000000000000600052601260045260246000fd5b7f4e487b7100000000000000000000000000000000000000000000000000000000600052602260045260246000fd5b7f4e487b7100000000000000000000000000000000000000000000000000000000600052604160045260246000fd5b6000601f19601f8301169050919050565b61518a81614fb1565b811461519557600080fd5b50565b6151a181614fc3565b81146151ac57600080fd5b50565b6151b881614fef565b81146151c357600080fd5b50565b6151cf81614ff9565b81146151da57600080fd5b5056fea2646970667358221220f1e01f65e10d99f3ec06fbe2e3c22331a2e24f64f897b7da25681a1ca719ba4c64736f6c63430008000033",
  "linkReferences": {},
  "deployedLinkReferences": {}
}