{
  "_format": "hh-sol-artifact-1",
  "contractName": "HouseDAOGovernance",
  "sourceName": "contracts/HouseDAOGovernance.sol",
  "abi": [
    {
      "inputs": [
        {
          "internalType": "address[]",
          "name": "heads",
          "type": "address[]"
        },
        {
          "internalType": "address",
          "name": "_governanceToken",
          "type": "address"
        },
        {
          "internalType": "uint256",
          "name": "_entryAmount",
          "type": "uint256"
        },
        {
          "internalType": "uint256",
          "name": "_proposalTime",
          "type": "uint256"
        },
        {
          "internalType": "uint256",
          "name": "_totalGovernanceSupply",
          "type": "uint256"
        },
        {
          "internalType": "uint256",
          "name": "_threshold",
          "type": "uint256"
        },
        {
          "internalType": "uint256",
          "name": "_minimumProposalAmount",
          "type": "uint256"
        },
        {
          "internalType": "uint256",
          "name": "_entryReward",
          "type": "uint256"
        },
        {
          "internalType": "address",
          "name": "_weth",
          "type": "address"
        }
      ],
      "stateMutability": "nonpayable",
      "type": "constructor"
    },
    {
      "inputs": [],
      "name": "WETH",
      "outputs": [
        {
          "internalType": "address",
          "name": "",
          "type": "address"
        }
      ],
      "stateMutability": "view",
      "type": "function"
    },
    {
      "inputs": [
        {
          "internalType": "uint256",
          "name": "_contribution",
          "type": "uint256"
        }
      ],
      "name": "addMoreContribution",
      "outputs": [],
      "stateMutability": "nonpayable",
      "type": "function"
    },
    {
      "inputs": [
        {
          "internalType": "uint256",
          "name": "_threshold",
          "type": "uint256"
        }
      ],
      "name": "adminUpdateThreshold",
      "outputs": [],
      "stateMutability": "nonpayable",
      "type": "function"
    },
    {
      "inputs": [],
      "name": "balance",
      "outputs": [
        {
          "internalType": "uint256",
          "name": "",
          "type": "uint256"
        }
      ],
      "stateMutability": "view",
      "type": "function"
    },
    {
      "inputs": [
        {
          "internalType": "uint256",
          "name": "_proposalId",
          "type": "uint256"
        }
      ],
      "name": "cancelEnterDAO",
      "outputs": [],
      "stateMutability": "nonpayable",
      "type": "function"
    },
    {
      "inputs": [
        {
          "internalType": "uint256",
          "name": "_proposalId",
          "type": "uint256"
        }
      ],
      "name": "cancelProposal",
      "outputs": [],
      "stateMutability": "nonpayable",
      "type": "function"
    },
    {
      "inputs": [],
      "name": "entryAmount",
      "outputs": [
        {
          "internalType": "uint256",
          "name": "",
          "type": "uint256"
        }
      ],
      "stateMutability": "view",
      "type": "function"
    },
    {
      "inputs": [],
      "name": "entryReward",
      "outputs": [
        {
          "internalType": "uint256",
          "name": "",
          "type": "uint256"
        }
      ],
      "stateMutability": "view",
      "type": "function"
    },
    {
      "inputs": [
        {
          "internalType": "uint256",
          "name": "_proposalId",
          "type": "uint256"
        }
      ],
      "name": "executeChangeRoleProposal",
      "outputs": [],
      "stateMutability": "nonpayable",
      "type": "function"
    },
    {
      "inputs": [
        {
          "internalType": "uint256",
          "name": "_proposalId",
          "type": "uint256"
        }
      ],
      "name": "executeEnterDAOProposal",
      "outputs": [],
      "stateMutability": "nonpayable",
      "type": "function"
    },
    {
      "inputs": [
        {
          "internalType": "uint256",
          "name": "_proposalId",
          "type": "uint256"
        }
      ],
      "name": "executeFundingProposal",
      "outputs": [],
      "stateMutability": "nonpayable",
      "type": "function"
    },
    {
      "inputs": [],
      "name": "governanceToken",
      "outputs": [
        {
          "internalType": "address",
          "name": "",
          "type": "address"
        }
      ],
      "stateMutability": "view",
      "type": "function"
    },
    {
      "inputs": [],
      "name": "gracePeriod",
      "outputs": [
        {
          "internalType": "uint256",
          "name": "",
          "type": "uint256"
        }
      ],
      "stateMutability": "view",
      "type": "function"
    },
    {
      "inputs": [
        {
          "internalType": "address",
          "name": "_member",
          "type": "address"
        },
        {
          "internalType": "uint256",
          "name": "_contribution",
          "type": "uint256"
        }
      ],
      "name": "headOfHouseEnterMember",
      "outputs": [],
      "stateMutability": "nonpayable",
      "type": "function"
    },
    {
      "inputs": [],
      "name": "init",
      "outputs": [],
      "stateMutability": "nonpayable",
      "type": "function"
    },
    {
      "inputs": [],
      "name": "initialized",
      "outputs": [
        {
          "internalType": "bool",
          "name": "",
          "type": "bool"
        }
      ],
      "stateMutability": "view",
      "type": "function"
    },
    {
      "inputs": [
        {
          "internalType": "uint256",
          "name": "_contribution",
          "type": "uint256"
        },
        {
          "components": [
            {
              "internalType": "bool",
              "name": "headOfHouse",
              "type": "bool"
            },
            {
              "internalType": "bool",
              "name": "member",
              "type": "bool"
            }
          ],
          "internalType": "struct IHouseDAO.Role",
          "name": "_role",
          "type": "tuple"
        }
      ],
      "name": "joinDAOProposal",
      "outputs": [],
      "stateMutability": "nonpayable",
      "type": "function"
    },
    {
      "inputs": [],
      "name": "memberCount",
      "outputs": [
        {
          "internalType": "uint256",
          "name": "",
          "type": "uint256"
        }
      ],
      "stateMutability": "view",
      "type": "function"
    },
    {
      "inputs": [
        {
          "internalType": "address",
          "name": "",
          "type": "address"
        }
      ],
      "name": "members",
      "outputs": [
        {
          "internalType": "uint256",
          "name": "shares",
          "type": "uint256"
        },
        {
          "components": [
            {
              "internalType": "bool",
              "name": "headOfHouse",
              "type": "bool"
            },
            {
              "internalType": "bool",
              "name": "member",
              "type": "bool"
            }
          ],
          "internalType": "struct IHouseDAO.Role",
          "name": "roles",
          "type": "tuple"
        }
      ],
      "stateMutability": "view",
      "type": "function"
    },
    {
      "inputs": [],
      "name": "minimumProposalAmount",
      "outputs": [
        {
          "internalType": "uint256",
          "name": "",
          "type": "uint256"
        }
      ],
      "stateMutability": "view",
      "type": "function"
    },
    {
      "inputs": [],
      "name": "name",
      "outputs": [
        {
          "internalType": "string",
          "name": "",
          "type": "string"
        }
      ],
      "stateMutability": "view",
      "type": "function"
    },
    {
      "inputs": [],
      "name": "proposalTime",
      "outputs": [
        {
          "internalType": "uint256",
          "name": "",
          "type": "uint256"
        }
      ],
      "stateMutability": "view",
      "type": "function"
    },
    {
      "inputs": [
        {
          "internalType": "uint256",
          "name": "",
          "type": "uint256"
        }
      ],
      "name": "proposals",
      "outputs": [
        {
          "internalType": "uint256",
          "name": "fundsRequested",
          "type": "uint256"
        },
        {
          "internalType": "uint8",
          "name": "proposalType",
          "type": "uint8"
        },
        {
          "internalType": "address",
          "name": "targetAddress",
          "type": "address"
        },
        {
          "components": [
            {
              "internalType": "bool",
              "name": "headOfHouse",
              "type": "bool"
            },
            {
              "internalType": "bool",
              "name": "member",
              "type": "bool"
            }
          ],
          "internalType": "struct IHouseDAO.Role",
          "name": "role",
          "type": "tuple"
        },
        {
          "internalType": "uint256",
          "name": "yesVotes",
          "type": "uint256"
        },
        {
          "internalType": "uint256",
          "name": "noVotes",
          "type": "uint256"
        },
        {
          "internalType": "bool",
          "name": "executed",
          "type": "bool"
        },
        {
          "internalType": "uint256",
          "name": "deadline",
          "type": "uint256"
        },
        {
          "internalType": "address",
          "name": "proposer",
          "type": "address"
        },
        {
          "internalType": "bool",
          "name": "canceled",
          "type": "bool"
        },
        {
          "internalType": "uint256",
          "name": "gracePeriod",
          "type": "uint256"
        }
      ],
      "stateMutability": "view",
      "type": "function"
    },
    {
      "inputs": [],
      "name": "remainingSupply",
      "outputs": [
        {
          "internalType": "uint256",
          "name": "",
          "type": "uint256"
        }
      ],
      "stateMutability": "view",
      "type": "function"
    },
    {
      "inputs": [
        {
          "internalType": "address",
          "name": "_nftAddress",
          "type": "address"
        },
        {
          "internalType": "uint256",
          "name": "_nftId",
          "type": "uint256"
        },
        {
          "internalType": "address",
          "name": "_recipient",
          "type": "address"
        }
      ],
      "name": "sendNFT",
      "outputs": [],
      "stateMutability": "nonpayable",
      "type": "function"
    },
    {
      "inputs": [
        {
          "internalType": "uint256",
          "name": "_proposalId",
          "type": "uint256"
        }
      ],
      "name": "startFundingProposalGracePeriod",
      "outputs": [],
      "stateMutability": "nonpayable",
      "type": "function"
    },
    {
      "inputs": [],
      "name": "submitModularProposal",
      "outputs": [],
      "stateMutability": "nonpayable",
      "type": "function"
    },
    {
      "inputs": [
        {
          "components": [
            {
              "internalType": "bool",
              "name": "headOfHouse",
              "type": "bool"
            },
            {
              "internalType": "bool",
              "name": "member",
              "type": "bool"
            }
          ],
          "internalType": "struct IHouseDAO.Role",
          "name": "_role",
          "type": "tuple"
        },
        {
          "internalType": "address",
          "name": "_recipient",
          "type": "address"
        },
        {
          "internalType": "uint256",
          "name": "_funding",
          "type": "uint256"
        },
        {
          "internalType": "uint8",
          "name": "_proposalType",
          "type": "uint8"
        }
      ],
      "name": "submitProposal",
      "outputs": [],
      "stateMutability": "nonpayable",
      "type": "function"
    },
    {
      "inputs": [],
      "name": "threshold",
      "outputs": [
        {
          "internalType": "uint256",
          "name": "",
          "type": "uint256"
        }
      ],
      "stateMutability": "view",
      "type": "function"
    },
    {
      "inputs": [],
      "name": "totalContribution",
      "outputs": [
        {
          "internalType": "uint256",
          "name": "",
          "type": "uint256"
        }
      ],
      "stateMutability": "view",
      "type": "function"
    },
    {
      "inputs": [],
      "name": "totalGovernanceSupply",
      "outputs": [
        {
          "internalType": "uint256",
          "name": "",
          "type": "uint256"
        }
      ],
      "stateMutability": "view",
      "type": "function"
    },
    {
      "inputs": [],
      "name": "totalProposalCount",
      "outputs": [
        {
          "internalType": "uint256",
          "name": "",
          "type": "uint256"
        }
      ],
      "stateMutability": "view",
      "type": "function"
    },
    {
      "inputs": [
        {
          "internalType": "uint256",
          "name": "_proposalId",
          "type": "uint256"
        },
        {
          "internalType": "bool",
          "name": "_vote",
          "type": "bool"
        }
      ],
      "name": "vote",
      "outputs": [],
      "stateMutability": "nonpayable",
      "type": "function"
    },
    {
      "inputs": [],
      "name": "withdraw",
      "outputs": [],
      "stateMutability": "nonpayable",
      "type": "function"
    }
  ],
  "bytecode": "0x608060405260008060006101000a81548160ff021916908315150217905550600060045560006005556203f4806007556000601160006101000a81548173ffffffffffffffffffffffffffffffffffffffff021916908373ffffffffffffffffffffffffffffffffffffffff1602179055503480156200007e57600080fd5b5060405162005748380380620057488339818101604052810190620000a491906200043e565b60005b89518110156200029b57600073ffffffffffffffffffffffffffffffffffffffff168a828151811062000103577f4e487b7100000000000000000000000000000000000000000000000000000000600052603260045260246000fd5b602002602001015173ffffffffffffffffffffffffffffffffffffffff1614156200012d57600080fd5b6001600260008c84815181106200016d577f4e487b7100000000000000000000000000000000000000000000000000000000600052603260045260246000fd5b602002602001015173ffffffffffffffffffffffffffffffffffffffff1673ffffffffffffffffffffffffffffffffffffffff16815260200190815260200160002060010160000160006101000a81548160ff0219169083151502179055506001600260008c84815181106200020c577f4e487b7100000000000000000000000000000000000000000000000000000000600052603260045260246000fd5b602002602001015173ffffffffffffffffffffffffffffffffffffffff1673ffffffffffffffffffffffffffffffffffffffff16815260200190815260200160002060010160000160016101000a81548160ff02191690831515021790555060056000815480929190620002809062000632565b91905055508080620002929062000632565b915050620000a7565b5087601060006101000a81548173ffffffffffffffffffffffffffffffffffffffff021916908373ffffffffffffffffffffffffffffffffffffffff16021790555086600b819055506201518086620002f5919062000593565b60068190555083600a8190555084600d8190555084600e8190555082600c8190555081600f8190555080601160006101000a81548173ffffffffffffffffffffffffffffffffffffffff021916908373ffffffffffffffffffffffffffffffffffffffff16021790555050505050505050505062000712565b6000620003856200037f8462000564565b62000530565b90508083825260208201905082856020860282011115620003a557600080fd5b60005b85811015620003d95781620003be8882620003e3565b845260208401935060208301925050600181019050620003a8565b5050509392505050565b600081519050620003f481620006de565b92915050565b600082601f8301126200040c57600080fd5b81516200041e8482602086016200036e565b91505092915050565b6000815190506200043881620006f8565b92915050565b60008060008060008060008060006101208a8c0312156200045e57600080fd5b60008a015167ffffffffffffffff8111156200047957600080fd5b620004878c828d01620003fa565b99505060206200049a8c828d01620003e3565b9850506040620004ad8c828d0162000427565b9750506060620004c08c828d0162000427565b9650506080620004d38c828d0162000427565b95505060a0620004e68c828d0162000427565b94505060c0620004f98c828d0162000427565b93505060e06200050c8c828d0162000427565b925050610100620005208c828d01620003e3565b9150509295985092959850929598565b6000604051905081810181811067ffffffffffffffff821117156200055a5762000559620006af565b5b8060405250919050565b600067ffffffffffffffff821115620005825762000581620006af565b5b602082029050602081019050919050565b6000620005a08262000628565b9150620005ad8362000628565b9250817fffffffffffffffffffffffffffffffffffffffffffffffffffffffffffffffff0483118215151615620005e957620005e862000680565b5b828202905092915050565b6000620006018262000608565b9050919050565b600073ffffffffffffffffffffffffffffffffffffffff82169050919050565b6000819050919050565b60006200063f8262000628565b91507fffffffffffffffffffffffffffffffffffffffffffffffffffffffffffffffff82141562000675576200067462000680565b5b600182019050919050565b7f4e487b7100000000000000000000000000000000000000000000000000000000600052601160045260246000fd5b7f4e487b7100000000000000000000000000000000000000000000000000000000600052604160045260246000fd5b620006e981620005f4565b8114620006f557600080fd5b50565b620007038162000628565b81146200070f57600080fd5b50565b61502680620007226000396000f3fe608060405234801561001057600080fd5b50600436106102065760003560e01c8063844ccf7d1161011a578063b69ef8a8116100ad578063e0a8f6f51161007c578063e0a8f6f514610560578063e1c7392a1461057c578063ead0eedf14610586578063f96dae0a146105a4578063f99931f0146105c257610206565b8063b69ef8a8146104ea578063c9d27afe14610508578063cd38b77214610524578063da0239a61461054257610206565b8063a06db7dc116100e9578063a06db7dc14610474578063a860bd4f14610492578063ad15140c146104b0578063ad5c4648146104cc57610206565b8063844ccf7d146104025780638c9f6bc31461041e578063991def3c1461043a5780639f23da671461045857610206565b8063243a86af1161019d57806349774ae21161016c57806349774ae21461037657806354c37def146103925780635d3a8363146103ae5780637aee47cf146103ca5780637e44d788146103e657610206565b8063243a86af146103285780632947eac5146103325780633ccfd60b1461034e57806342cde4e81461035857610206565b80630dcf4b8f116101d95780630dcf4b8f146102b057806311aee380146102ce578063158ef93e146102ec578063184a0ae91461030a57610206565b8063013cf08b1461020b57806306fdde031461024557806308ae4b0c146102635780630dc30c7b14610294575b600080fd5b61022560048036038101906102209190613b75565b6105e0565b60405161023c9b9a99989796959493929190614bb6565b60405180910390f35b61024d6106e1565b60405161025a9190614750565b60405180910390f35b61027d60048036038101906102789190613a35565b61076f565b60405161028b929190614b8d565b60405180910390f35b6102ae60048036038101906102a99190613b75565b6107d3565b005b6102b8610a60565b6040516102c59190614b72565b60405180910390f35b6102d6610a66565b6040516102e39190614b72565b60405180910390f35b6102f4610a6c565b6040516103019190614735565b60405180910390f35b610312610a7d565b60405161031f9190614b72565b60405180910390f35b610330610a83565b005b61034c60048036038101906103479190613c03565b610a85565b005b610356610fdd565b005b610360611330565b60405161036d9190614b72565b60405180910390f35b610390600480360381019061038b9190613b75565b611336565b005b6103ac60048036038101906103a79190613b75565b611856565b005b6103c860048036038101906103c39190613b12565b611c13565b005b6103e460048036038101906103df9190613b75565b6120b5565b005b61040060048036038101906103fb9190613b75565b612158565b005b61041c60048036038101906104179190613a9a565b612368565b005b61043860048036038101906104339190613a5e565b612555565b005b610442612aab565b60405161044f9190614b72565b60405180910390f35b610472600480360381019061046d9190613b75565b612ab1565b005b61047c612dc5565b6040516104899190614b72565b60405180910390f35b61049a612dcb565b6040516104a79190614b72565b60405180910390f35b6104ca60048036038101906104c59190613b75565b612dd1565b005b6104d46130f7565b6040516104e191906146ba565b60405180910390f35b6104f261311d565b6040516104ff9190614b72565b60405180910390f35b610522600480360381019061051d9190613bc7565b613123565b005b61052c6135ed565b6040516105399190614b72565b60405180910390f35b61054a6135f3565b6040516105579190614b72565b60405180910390f35b61057a60048036038101906105759190613b75565b6135f9565b005b610584613724565b005b61058e6138e1565b60405161059b9190614b72565b60405180910390f35b6105ac6138e7565b6040516105b991906146ba565b60405180910390f35b6105ca61390d565b6040516105d79190614b72565b60405180910390f35b60036020528060005260406000206000915090508060000154908060010160009054906101000a900460ff16908060010160019054906101000a900473ffffffffffffffffffffffffffffffffffffffff1690806002016040518060400160405290816000820160009054906101000a900460ff161515151581526020016000820160019054906101000a900460ff161515151581525050908060030154908060040154908060050160009054906101000a900460ff16908060060154908060070160009054906101000a900473ffffffffffffffffffffffffffffffffffffffff16908060070160149054906101000a900460ff1690806008015490508b565b600180546106ee90614e4c565b80601f016020809104026020016040519081016040528092919081815260200182805461071a90614e4c565b80156107675780601f1061073c57610100808354040283529160200191610767565b820191906000526020600020905b81548152906001019060200180831161074a57829003601f168201915b505050505081565b6002602052806000526040600020600091509050806000015490806001016040518060400160405290816000820160009054906101000a900460ff161515151581526020016000820160019054906101000a900460ff161515151581525050905082565b80600015156003600083815260200190815260200160002060070160149054906101000a900460ff1615151461083e576040517f08c379a000000000000000000000000000000000000000000000000000000000815260040161083590614af2565b60405180910390fd5b600015156003600083815260200190815260200160002060050160009054906101000a900460ff161515146108a8576040517f08c379a000000000000000000000000000000000000000000000000000000000815260040161089f90614b52565b60405180910390fd5b600a5460036000838152602001908152602001600020600301541015610903576040517f08c379a00000000000000000000000000000000000000000000000000000000081526004016108fa90614772565b60405180910390fd5b600360008281526020019081526020016000206004015460036000838152602001908152602001600020600301541015610972576040517f08c379a000000000000000000000000000000000000000000000000000000000815260040161096990614b12565b60405180910390fd5b60006003600084815260200190815260200160002060010160009054906101000a900460ff1660ff16146109db576040517f08c379a00000000000000000000000000000000000000000000000000000000081526004016109d290614ab2565b60405180910390fd5b6000600360008481526020019081526020016000206008015414610a34576040517f08c379a0000000000000000000000000000000000000000000000000000000008152600401610a2b906147d2565b60405180910390fd5b60075442610a429190614caf565b60036000848152602001908152602001600020600801819055505050565b60085481565b60055481565b60008054906101000a900460ff1681565b60065481565b565b600b54821015610aca576040517f08c379a0000000000000000000000000000000000000000000000000000000008152600401610ac190614a12565b60405180910390fd5b81601160009054906101000a900473ffffffffffffffffffffffffffffffffffffffff1673ffffffffffffffffffffffffffffffffffffffff166370a08231336040518263ffffffff1660e01b8152600401610b2691906146ba565b60206040518083038186803b158015610b3e57600080fd5b505afa158015610b52573d6000803e3d6000fd5b505050506040513d601f19601f82011682018060405250810190610b769190613b9e565b1015610bb7576040517f08c379a0000000000000000000000000000000000000000000000000000000008152600401610bae90614792565b60405180910390fd5b600c54601060009054906101000a900473ffffffffffffffffffffffffffffffffffffffff1673ffffffffffffffffffffffffffffffffffffffff166370a08231336040518263ffffffff1660e01b8152600401610c1591906146ba565b60206040518083038186803b158015610c2d57600080fd5b505afa158015610c41573d6000803e3d6000fd5b505050506040513d601f19601f82011682018060405250810190610c659190613b9e565b1015610ca6576040517f08c379a0000000000000000000000000000000000000000000000000000000008152600401610c9d90614a32565b60405180910390fd5b81600360006004548152602001908152602001600020600001819055508060036000600454815260200190815260200160002060020160008201518160000160006101000a81548160ff02191690831515021790555060208201518160000160016101000a81548160ff021916908315150217905550905050600260036000600454815260200190815260200160002060010160006101000a81548160ff021916908360ff160217905550601060009054906101000a900473ffffffffffffffffffffffffffffffffffffffff1673ffffffffffffffffffffffffffffffffffffffff166370a08231336040518263ffffffff1660e01b8152600401610dac91906146ba565b60206040518083038186803b158015610dc457600080fd5b505afa158015610dd8573d6000803e3d6000fd5b505050506040513d601f19601f82011682018060405250810190610dfc9190613b9e565b6003600060045481526020019081526020016000206003018190555060065442610e269190614caf565b600360006004548152602001908152602001600020600601819055503360036000600454815260200190815260200160002060070160006101000a81548173ffffffffffffffffffffffffffffffffffffffff021916908373ffffffffffffffffffffffffffffffffffffffff160217905550600160036000600454815260200190815260200160002060090160003373ffffffffffffffffffffffffffffffffffffffff1673ffffffffffffffffffffffffffffffffffffffff16815260200190815260200160002060006101000a81548160ff02191690831515021790555060046000815480929190610f1a90614e7e565b9190505550601160009054906101000a900473ffffffffffffffffffffffffffffffffffffffff1673ffffffffffffffffffffffffffffffffffffffff166323b872dd3330856040518463ffffffff1660e01b8152600401610f7e939291906146d5565b602060405180830381600087803b158015610f9857600080fd5b505af1158015610fac573d6000803e3d6000fd5b505050506040513d601f19601f82011682018060405250810190610fd09190613ae9565b610fd957600080fd5b5050565b60011515600260003373ffffffffffffffffffffffffffffffffffffffff1673ffffffffffffffffffffffffffffffffffffffff16815260200190815260200160002060010160000160019054906101000a900460ff16151514611076576040517f08c379a000000000000000000000000000000000000000000000000000000000815260040161106d90614972565b60405180910390fd5b6000600260003373ffffffffffffffffffffffffffffffffffffffff1673ffffffffffffffffffffffffffffffffffffffff16815260200190815260200160002060000154116110fb576040517f08c379a00000000000000000000000000000000000000000000000000000000081526004016110f2906149d2565b60405180910390fd5b600060095411611140576040517f08c379a000000000000000000000000000000000000000000000000000000000815260040161113790614a72565b60405180910390fd5b6000611199600954600260003373ffffffffffffffffffffffffffffffffffffffff1673ffffffffffffffffffffffffffffffffffffffff1681526020019081526020016000206000015461391390919063ffffffff16565b905060006111b26008548361392990919063ffffffff16565b905061120b600260003373ffffffffffffffffffffffffffffffffffffffff1673ffffffffffffffffffffffffffffffffffffffff1681526020019081526020016000206000015460085461393f90919063ffffffff16565b6008819055506000600260003373ffffffffffffffffffffffffffffffffffffffff1673ffffffffffffffffffffffffffffffffffffffff1681526020019081526020016000206000018190555061126e8160095461393f90919063ffffffff16565b600981905550601160009054906101000a900473ffffffffffffffffffffffffffffffffffffffff1673ffffffffffffffffffffffffffffffffffffffff1663a9059cbb33836040518363ffffffff1660e01b81526004016112d192919061470c565b602060405180830381600087803b1580156112eb57600080fd5b505af11580156112ff573d6000803e3d6000fd5b505050506040513d601f19601f820116820180604052508101906113239190613ae9565b61132c57600080fd5b5050565b600a5481565b80600015156003600083815260200190815260200160002060070160149054906101000a900460ff161515146113a1576040517f08c379a000000000000000000000000000000000000000000000000000000000815260040161139890614af2565b60405180910390fd5b600015156003600083815260200190815260200160002060050160009054906101000a900460ff1615151461140b576040517f08c379a000000000000000000000000000000000000000000000000000000000815260040161140290614b52565b60405180910390fd5b600a5460036000838152602001908152602001600020600301541015611466576040517f08c379a000000000000000000000000000000000000000000000000000000000815260040161145d90614772565b60405180910390fd5b6003600082815260200190815260200160002060040154600360008381526020019081526020016000206003015410156114d5576040517f08c379a00000000000000000000000000000000000000000000000000000000081526004016114cc90614b12565b60405180910390fd5b60026003600084815260200190815260200160002060010160009054906101000a900460ff1660ff161461153e576040517f08c379a0000000000000000000000000000000000000000000000000000000008152600401611535906147f2565b60405180910390fd5b6001600260003373ffffffffffffffffffffffffffffffffffffffff1673ffffffffffffffffffffffffffffffffffffffff16815260200190815260200160002060010160000160016101000a81548160ff0219169083151502179055506003600083815260200190815260200160002060000154600260003373ffffffffffffffffffffffffffffffffffffffff1673ffffffffffffffffffffffffffffffffffffffff1681526020019081526020016000206000018190555060016003600084815260200190815260200160002060050160006101000a81548160ff021916908315150217905550611653600360008481526020019081526020016000206000015460085461395590919063ffffffff16565b600881905550611684600360008481526020019081526020016000206000015460095461395590919063ffffffff16565b6009819055506005600081548092919061169d90614e7e565b9190505550601060009054906101000a900473ffffffffffffffffffffffffffffffffffffffff1673ffffffffffffffffffffffffffffffffffffffff166370a08231306040518263ffffffff1660e01b81526004016116fd91906146ba565b60206040518083038186803b15801561171557600080fd5b505afa158015611729573d6000803e3d6000fd5b505050506040513d601f19601f8201168201806040525081019061174d9190613b9e565b60036000848152602001908152602001600020600001541161185257601060009054906101000a900473ffffffffffffffffffffffffffffffffffffffff1673ffffffffffffffffffffffffffffffffffffffff1663a9059cbb6003600085815260200190815260200160002060070160009054906101000a900473ffffffffffffffffffffffffffffffffffffffff16600f546040518363ffffffff1660e01b81526004016117fe92919061470c565b602060405180830381600087803b15801561181857600080fd5b505af115801561182c573d6000803e3d6000fd5b505050506040513d601f19601f820116820180604052508101906118509190613ae9565b505b5050565b80600015156003600083815260200190815260200160002060070160149054906101000a900460ff161515146118c1576040517f08c379a00000000000000000000000000000000000000000000000000000000081526004016118b890614af2565b60405180910390fd5b600015156003600083815260200190815260200160002060050160009054906101000a900460ff1615151461192b576040517f08c379a000000000000000000000000000000000000000000000000000000000815260040161192290614b52565b60405180910390fd5b600a5460036000838152602001908152602001600020600301541015611986576040517f08c379a000000000000000000000000000000000000000000000000000000000815260040161197d90614772565b60405180910390fd5b6003600082815260200190815260200160002060040154600360008381526020019081526020016000206003015410156119f5576040517f08c379a00000000000000000000000000000000000000000000000000000000081526004016119ec90614b12565b60405180910390fd5b60036000838152602001908152602001600020600001546009541015611a50576040517f08c379a0000000000000000000000000000000000000000000000000000000008152600401611a47906148b2565b60405180910390fd5b6003600083815260200190815260200160002060080154421015611aa9576040517f08c379a0000000000000000000000000000000000000000000000000000000008152600401611aa090614a92565b60405180910390fd5b611ad4600360008481526020019081526020016000206000015460095461393f90919063ffffffff16565b60098190555060016003600084815260200190815260200160002060050160006101000a81548160ff021916908315150217905550601160009054906101000a900473ffffffffffffffffffffffffffffffffffffffff1673ffffffffffffffffffffffffffffffffffffffff166323b872dd306003600086815260200190815260200160002060010160019054906101000a900473ffffffffffffffffffffffffffffffffffffffff1660036000878152602001908152602001600020600001546040518463ffffffff1660e01b8152600401611bb4939291906146d5565b602060405180830381600087803b158015611bce57600080fd5b505af1158015611be2573d6000803e3d6000fd5b505050506040513d601f19601f82011682018060405250810190611c069190613ae9565b611c0f57600080fd5b5050565b60011515600260003373ffffffffffffffffffffffffffffffffffffffff1673ffffffffffffffffffffffffffffffffffffffff16815260200190815260200160002060010160000160019054906101000a900460ff16151514611cac576040517f08c379a0000000000000000000000000000000000000000000000000000000008152600401611ca390614972565b60405180910390fd5b816009541015611cf1576040517f08c379a0000000000000000000000000000000000000000000000000000000008152600401611ce890614992565b60405180910390fd5b600c54601060009054906101000a900473ffffffffffffffffffffffffffffffffffffffff1673ffffffffffffffffffffffffffffffffffffffff166370a08231336040518263ffffffff1660e01b8152600401611d4f91906146ba565b60206040518083038186803b158015611d6757600080fd5b505afa158015611d7b573d6000803e3d6000fd5b505050506040513d601f19601f82011682018060405250810190611d9f9190613b9e565b1015611de0576040517f08c379a0000000000000000000000000000000000000000000000000000000008152600401611dd790614ad2565b60405180910390fd5b81600360006004548152602001908152602001600020600001819055508360036000600454815260200190815260200160002060020160008201518160000160006101000a81548160ff02191690831515021790555060208201518160000160016101000a81548160ff0219169083151502179055509050508060036000600454815260200190815260200160002060010160006101000a81548160ff021916908360ff160217905550601060009054906101000a900473ffffffffffffffffffffffffffffffffffffffff1673ffffffffffffffffffffffffffffffffffffffff166370a08231336040518263ffffffff1660e01b8152600401611ee591906146ba565b60206040518083038186803b158015611efd57600080fd5b505afa158015611f11573d6000803e3d6000fd5b505050506040513d601f19601f82011682018060405250810190611f359190613b9e565b6003600060045481526020019081526020016000206003018190555060065442611f5f9190614caf565b600360006004548152602001908152602001600020600601819055503360036000600454815260200190815260200160002060070160006101000a81548173ffffffffffffffffffffffffffffffffffffffff021916908373ffffffffffffffffffffffffffffffffffffffff1602179055508260036000600454815260200190815260200160002060010160016101000a81548173ffffffffffffffffffffffffffffffffffffffff021916908373ffffffffffffffffffffffffffffffffffffffff160217905550600160036000600454815260200190815260200160002060090160003373ffffffffffffffffffffffffffffffffffffffff1673ffffffffffffffffffffffffffffffffffffffff16815260200190815260200160002060006101000a81548160ff021916908315150217905550600460008154809291906120aa90614e7e565b919050555050505050565b60011515600260003373ffffffffffffffffffffffffffffffffffffffff1673ffffffffffffffffffffffffffffffffffffffff16815260200190815260200160002060010160000160009054906101000a900460ff1615151461214e576040517f08c379a0000000000000000000000000000000000000000000000000000000008152600401612145906149f2565b60405180910390fd5b80600a8190555050565b600015156003600083815260200190815260200160002060070160149054906101000a900460ff161515146121c2576040517f08c379a00000000000000000000000000000000000000000000000000000000081526004016121b990614872565b60405180910390fd5b600015156003600083815260200190815260200160002060050160009054906101000a900460ff1615151461222c576040517f08c379a0000000000000000000000000000000000000000000000000000000008152600401612223906148f2565b60405180910390fd5b60016003600083815260200190815260200160002060070160146101000a81548160ff021916908315150217905550601160009054906101000a900473ffffffffffffffffffffffffffffffffffffffff1673ffffffffffffffffffffffffffffffffffffffff166323b872dd3060036000600454815260200190815260200160002060010160019054906101000a900473ffffffffffffffffffffffffffffffffffffffff16600360006004548152602001908152602001600020600001546040518463ffffffff1660e01b815260040161230a939291906146d5565b602060405180830381600087803b15801561232457600080fd5b505af1158015612338573d6000803e3d6000fd5b505050506040513d601f19601f8201168201806040525081019061235c9190613ae9565b61236557600080fd5b50565b60011515600260003373ffffffffffffffffffffffffffffffffffffffff1673ffffffffffffffffffffffffffffffffffffffff16815260200190815260200160002060010160000160009054906101000a900460ff16151514612401576040517f08c379a00000000000000000000000000000000000000000000000000000000081526004016123f8906149f2565b60405180910390fd5b600073ffffffffffffffffffffffffffffffffffffffff168373ffffffffffffffffffffffffffffffffffffffff161415612471576040517f08c379a0000000000000000000000000000000000000000000000000000000008152600401612468906149b2565b60405180910390fd5b600073ffffffffffffffffffffffffffffffffffffffff168173ffffffffffffffffffffffffffffffffffffffff1614156124e1576040517f08c379a00000000000000000000000000000000000000000000000000000000081526004016124d8906147b2565b60405180910390fd5b8273ffffffffffffffffffffffffffffffffffffffff166342842e0e3083856040518463ffffffff1660e01b815260040161251e939291906146d5565b600060405180830381600087803b15801561253857600080fd5b505af115801561254c573d6000803e3d6000fd5b50505050505050565b60011515600260003373ffffffffffffffffffffffffffffffffffffffff1673ffffffffffffffffffffffffffffffffffffffff16815260200190815260200160002060010160000160009054906101000a900460ff161515146125ee576040517f08c379a00000000000000000000000000000000000000000000000000000000081526004016125e5906149f2565b60405180910390fd5b600b54811015612633576040517f08c379a000000000000000000000000000000000000000000000000000000000815260040161262a90614b32565b60405180910390fd5b80601160009054906101000a900473ffffffffffffffffffffffffffffffffffffffff1673ffffffffffffffffffffffffffffffffffffffff166370a08231846040518263ffffffff1660e01b815260040161268f91906146ba565b60206040518083038186803b1580156126a757600080fd5b505afa1580156126bb573d6000803e3d6000fd5b505050506040513d601f19601f820116820180604052508101906126df9190613b9e565b1015612720576040517f08c379a000000000000000000000000000000000000000000000000000000000815260040161271790614812565b60405180910390fd5b600c54601060009054906101000a900473ffffffffffffffffffffffffffffffffffffffff1673ffffffffffffffffffffffffffffffffffffffff166370a08231846040518263ffffffff1660e01b815260040161277e91906146ba565b60206040518083038186803b15801561279657600080fd5b505afa1580156127aa573d6000803e3d6000fd5b505050506040513d601f19601f820116820180604052508101906127ce9190613b9e565b101561280f576040517f08c379a000000000000000000000000000000000000000000000000000000000815260040161280690614952565b60405180910390fd5b6001600260008473ffffffffffffffffffffffffffffffffffffffff1673ffffffffffffffffffffffffffffffffffffffff16815260200190815260200160002060010160000160016101000a81548160ff0219169083151502179055506000600b5411156128c05780600260008473ffffffffffffffffffffffffffffffffffffffff1673ffffffffffffffffffffffffffffffffffffffff168152602001908152602001600020600001819055505b600560008154809291906128d390614e7e565b91905055506000600b541180156128ec575080600e5410155b15612aa7576129068160085461395590919063ffffffff16565b6008819055506129218160095461395590919063ffffffff16565b600981905550601160009054906101000a900473ffffffffffffffffffffffffffffffffffffffff1673ffffffffffffffffffffffffffffffffffffffff166323b872dd8330846040518463ffffffff1660e01b8152600401612986939291906146d5565b602060405180830381600087803b1580156129a057600080fd5b505af11580156129b4573d6000803e3d6000fd5b505050506040513d601f19601f820116820180604052508101906129d89190613ae9565b50601060009054906101000a900473ffffffffffffffffffffffffffffffffffffffff1673ffffffffffffffffffffffffffffffffffffffff1663a9059cbb83600f546040518363ffffffff1660e01b8152600401612a3892919061470c565b602060405180830381600087803b158015612a5257600080fd5b505af1158015612a66573d6000803e3d6000fd5b505050506040513d601f19601f82011682018060405250810190612a8a9190613ae9565b50612aa081600e5461393f90919063ffffffff16565b600e819055505b5050565b600b5481565b60011515600260003373ffffffffffffffffffffffffffffffffffffffff1673ffffffffffffffffffffffffffffffffffffffff16815260200190815260200160002060010160000160019054906101000a900460ff16151514612b4a576040517f08c379a0000000000000000000000000000000000000000000000000000000008152600401612b4190614972565b60405180910390fd5b80601160009054906101000a900473ffffffffffffffffffffffffffffffffffffffff1673ffffffffffffffffffffffffffffffffffffffff166370a08231336040518263ffffffff1660e01b8152600401612ba691906146ba565b60206040518083038186803b158015612bbe57600080fd5b505afa158015612bd2573d6000803e3d6000fd5b505050506040513d601f19601f82011682018060405250810190612bf69190613b9e565b1015612c37576040517f08c379a0000000000000000000000000000000000000000000000000000000008152600401612c2e90614892565b60405180910390fd5b612c8c81600260003373ffffffffffffffffffffffffffffffffffffffff1673ffffffffffffffffffffffffffffffffffffffff1681526020019081526020016000206000015461395590919063ffffffff16565b600260003373ffffffffffffffffffffffffffffffffffffffff1673ffffffffffffffffffffffffffffffffffffffff16815260200190815260200160002060000181905550612ce78160085461395590919063ffffffff16565b600881905550612d028160095461395590919063ffffffff16565b600981905550601160009054906101000a900473ffffffffffffffffffffffffffffffffffffffff1673ffffffffffffffffffffffffffffffffffffffff166323b872dd3330846040518463ffffffff1660e01b8152600401612d67939291906146d5565b602060405180830381600087803b158015612d8157600080fd5b505af1158015612d95573d6000803e3d6000fd5b505050506040513d601f19601f82011682018060405250810190612db99190613ae9565b612dc257600080fd5b50565b60075481565b600c5481565b80600015156003600083815260200190815260200160002060070160149054906101000a900460ff16151514612e3c576040517f08c379a0000000000000000000000000000000000000000000000000000000008152600401612e3390614af2565b60405180910390fd5b600015156003600083815260200190815260200160002060050160009054906101000a900460ff16151514612ea6576040517f08c379a0000000000000000000000000000000000000000000000000000000008152600401612e9d90614b52565b60405180910390fd5b600a5460036000838152602001908152602001600020600301541015612f01576040517f08c379a0000000000000000000000000000000000000000000000000000000008152600401612ef890614772565b60405180910390fd5b600360008281526020019081526020016000206004015460036000838152602001908152602001600020600301541015612f70576040517f08c379a0000000000000000000000000000000000000000000000000000000008152600401612f6790614b12565b60405180910390fd5b60016003600084815260200190815260200160002060010160009054906101000a900460ff1660ff1614612fd9576040517f08c379a0000000000000000000000000000000000000000000000000000000008152600401612fd090614852565b60405180910390fd5b60036000838152602001908152602001600020600201600260006003600086815260200190815260200160002060010160019054906101000a900473ffffffffffffffffffffffffffffffffffffffff1673ffffffffffffffffffffffffffffffffffffffff1673ffffffffffffffffffffffffffffffffffffffff1681526020019081526020016000206001016000820160009054906101000a900460ff168160000160006101000a81548160ff0219169083151502179055506000820160019054906101000a900460ff168160000160016101000a81548160ff02191690831515021790555090505060016003600084815260200190815260200160002060050160006101000a81548160ff0219169083151502179055505050565b601160009054906101000a900473ffffffffffffffffffffffffffffffffffffffff1681565b60095481565b60011515600260003373ffffffffffffffffffffffffffffffffffffffff1673ffffffffffffffffffffffffffffffffffffffff16815260200190815260200160002060010160000160019054906101000a900460ff161515146131bc576040517f08c379a00000000000000000000000000000000000000000000000000000000081526004016131b390614972565b60405180910390fd5b600015156003600084815260200190815260200160002060090160003373ffffffffffffffffffffffffffffffffffffffff1673ffffffffffffffffffffffffffffffffffffffff16815260200190815260200160002060009054906101000a900460ff16151514613263576040517f08c379a000000000000000000000000000000000000000000000000000000000815260040161325a90614832565b60405180910390fd5b600015156003600084815260200190815260200160002060070160149054906101000a900460ff161515146132cd576040517f08c379a00000000000000000000000000000000000000000000000000000000081526004016132c4906148d2565b60405180910390fd5b600015156003600084815260200190815260200160002060050160009054906101000a900460ff16151514613337576040517f08c379a000000000000000000000000000000000000000000000000000000000815260040161332e90614932565b60405180910390fd5b4260036000848152602001908152602001600020600601541015613390576040517f08c379a000000000000000000000000000000000000000000000000000000000815260040161338790614a52565b60405180910390fd5b60016003600084815260200190815260200160002060090160003373ffffffffffffffffffffffffffffffffffffffff1673ffffffffffffffffffffffffffffffffffffffff16815260200190815260200160002060006101000a81548160ff0219169083151502179055506000151581151514156134fb576134dc601060009054906101000a900473ffffffffffffffffffffffffffffffffffffffff1673ffffffffffffffffffffffffffffffffffffffff166370a08231336040518263ffffffff1660e01b815260040161346791906146ba565b60206040518083038186803b15801561347f57600080fd5b505afa158015613493573d6000803e3d6000fd5b505050506040513d601f19601f820116820180604052508101906134b79190613b9e565b600360008581526020019081526020016000206004015461395590919063ffffffff16565b60036000848152602001908152602001600020600401819055506135e9565b6135ce601060009054906101000a900473ffffffffffffffffffffffffffffffffffffffff1673ffffffffffffffffffffffffffffffffffffffff166370a08231336040518263ffffffff1660e01b815260040161355991906146ba565b60206040518083038186803b15801561357157600080fd5b505afa158015613585573d6000803e3d6000fd5b505050506040513d601f19601f820116820180604052508101906135a99190613b9e565b600360008581526020019081526020016000206003015461395590919063ffffffff16565b60036000848152602001908152602001600020600301819055505b5050565b600d5481565b600e5481565b600015156003600083815260200190815260200160002060070160149054906101000a900460ff1615151461362d57600080fd5b600015156003600083815260200190815260200160002060050160009054906101000a900460ff1615151461366157600080fd5b426003600083815260200190815260200160002060060154101561368457600080fd5b3373ffffffffffffffffffffffffffffffffffffffff166003600083815260200190815260200160002060070160009054906101000a900473ffffffffffffffffffffffffffffffffffffffff1673ffffffffffffffffffffffffffffffffffffffff16146136f257600080fd5b60016003600083815260200190815260200160002060070160146101000a81548160ff02191690831515021790555050565b60011515600260003373ffffffffffffffffffffffffffffffffffffffff1673ffffffffffffffffffffffffffffffffffffffff16815260200190815260200160002060010160000160009054906101000a900460ff161515146137bd576040517f08c379a00000000000000000000000000000000000000000000000000000000081526004016137b4906149f2565b60405180910390fd5b6000151560008054906101000a900460ff16151514613811576040517f08c379a000000000000000000000000000000000000000000000000000000000815260040161380890614912565b60405180910390fd5b60016000806101000a81548160ff021916908315150217905550601060009054906101000a900473ffffffffffffffffffffffffffffffffffffffff1673ffffffffffffffffffffffffffffffffffffffff166323b872dd3330600d546040518463ffffffff1660e01b815260040161388c939291906146d5565b602060405180830381600087803b1580156138a657600080fd5b505af11580156138ba573d6000803e3d6000fd5b505050506040513d601f19601f820116820180604052508101906138de9190613ae9565b50565b60045481565b601060009054906101000a900473ffffffffffffffffffffffffffffffffffffffff1681565b600f5481565b600081836139219190614d36565b905092915050565b600081836139379190614d05565b905092915050565b6000818361394d9190614d90565b905092915050565b600081836139639190614caf565b905092915050565b60008135905061397a81614f94565b92915050565b60008135905061398f81614fab565b92915050565b6000815190506139a481614fab565b92915050565b6000604082840312156139bc57600080fd5b6139c66040614c62565b905060006139d684828501613980565b60008301525060206139ea84828501613980565b60208301525092915050565b600081359050613a0581614fc2565b92915050565b600081519050613a1a81614fc2565b92915050565b600081359050613a2f81614fd9565b92915050565b600060208284031215613a4757600080fd5b6000613a558482850161396b565b91505092915050565b60008060408385031215613a7157600080fd5b6000613a7f8582860161396b565b9250506020613a90858286016139f6565b9150509250929050565b600080600060608486031215613aaf57600080fd5b6000613abd8682870161396b565b9350506020613ace868287016139f6565b9250506040613adf8682870161396b565b9150509250925092565b600060208284031215613afb57600080fd5b6000613b0984828501613995565b91505092915050565b60008060008060a08587031215613b2857600080fd5b6000613b36878288016139aa565b9450506040613b478782880161396b565b9350506060613b58878288016139f6565b9250506080613b6987828801613a20565b91505092959194509250565b600060208284031215613b8757600080fd5b6000613b95848285016139f6565b91505092915050565b600060208284031215613bb057600080fd5b6000613bbe84828501613a0b565b91505092915050565b60008060408385031215613bda57600080fd5b6000613be8858286016139f6565b9250506020613bf985828601613980565b9150509250929050565b60008060608385031215613c1657600080fd5b6000613c24858286016139f6565b9250506020613c35858286016139aa565b9150509250929050565b613c4881614dc4565b82525050565b613c5781614dd6565b82525050565b613c6681614dd6565b82525050565b6000613c7782614c93565b613c818185614c9e565b9350613c91818560208601614e19565b613c9a81614f83565b840191505092915050565b6000613cb2602883614c9e565b91507f6368616e676520726f6c6520646f6573206e6f74206d65657420766f7465207460008301527f68726573686f6c640000000000000000000000000000000000000000000000006020830152604082019050919050565b6000613d18602283614c9e565b91507f70726f706f73657220646f6573206e6f74206861766520656e6f75676820776560008301527f74680000000000000000000000000000000000000000000000000000000000006020830152604082019050919050565b6000613d7e601a83614c9e565b91507f5f726563697069656e742069732061646472657373207a65726f0000000000006000830152602082019050919050565b6000613dbe602583614c9e565b91507f70726f706f73616c20616c726561647920656e7465726564206772616365207060008301527f6572696f640000000000000000000000000000000000000000000000000000006020830152604082019050919050565b6000613e24601e83614c9e565b91507f70726f706f73616c206973206e6f7420656e7465722064616f207479706500006000830152602082019050919050565b6000613e64602283614c9e565b91507f73706f6e736f7220646f6573206e6f74206861766520636f6e7472696275746960008301527f6f6e0000000000000000000000000000000000000000000000000000000000006020830152604082019050919050565b6000613eca600d83614c9e565b91507f616c726561647920766f746564000000000000000000000000000000000000006000830152602082019050919050565b6000613f0a602083614c9e565b91507f70726f706f73616c206973206e6f74206368616e676520726f6c6520747970656000830152602082019050919050565b6000613f4a601c83614c9e565b91507f6a6f696e2064616f20697320616c72656164792063616e63656c6564000000006000830152602082019050919050565b6000613f8a602083614c9e565b91507f6d656d62657220646f6573206e6f74206861766520656e6f75676820776574686000830152602082019050919050565b6000613fca602783614c9e565b91507f6e6f7420656e6f7567682066756e6473206f6e207468652044414f20746f206660008301527f696e616c697a65000000000000000000000000000000000000000000000000006020830152604082019050919050565b6000614030601a83614c9e565b91507f70726f706f73616c20686173206265656e2063616e63656c65640000000000006000830152602082019050919050565b6000614070602283614c9e565b91507f63616e6e6f742063616e63656c20616e206578656374757265206a6f696e206460008301527f616f0000000000000000000000000000000000000000000000000000000000006020830152604082019050919050565b60006140d6601383614c9e565b91507f616c726561647920696e697469616c697a6564000000000000000000000000006000830152602082019050919050565b6000614116601c83614c9e565b91507f70726f706f73616c20697320616c7265616479206578656375746564000000006000830152602082019050919050565b6000614156602783614c9e565b91507f73706f6e736f7220646f6573206e6f74206861766520656e6f75676820676f7660008301527f20746f6b656e73000000000000000000000000000000000000000000000000006020830152604082019050919050565b60006141bc600c83614c9e565b91507f6e6f742061206d656d62657200000000000000000000000000000000000000006000830152602082019050919050565b60006141fc603183614c9e565b91507f6d6f72652066756e6473206172652072657175657374207468616e207468652060008301527f44414f2063757272656e746c79206861730000000000000000000000000000006020830152604082019050919050565b6000614262601383614c9e565b91507f6e66742061646472657373206973207a65726f000000000000000000000000006000830152602082019050919050565b60006142a2602283614c9e565b91507f6e6f206d656d62657220636f6e747269627574696f6e20746f2077697468647260008301527f61770000000000000000000000000000000000000000000000000000000000006020830152604082019050919050565b6000614308601383614c9e565b91507f6e6f7420612068656164206f6620686f757365000000000000000000000000006000830152602082019050919050565b6000614348602783614c9e565b91507f636f6e747269627574696f6e206973206e6f7420686967686572207468616e2060008301527f6d696e696d756d000000000000000000000000000000000000000000000000006020830152604082019050919050565b60006143ae602883614c9e565b91507f6a6f696e2064616f20646f6573206e6f74206861766520656e6f75676820676f60008301527f7620746f6b656e730000000000000000000000000000000000000000000000006020830152604082019050919050565b6000614414601d83614c9e565b91507f70726f706f73616c20697320706173742074686520646561646c696e650000006000830152602082019050919050565b6000614454601383614c9e565b91507f6e6f7468696e6720746f207769746864726177000000000000000000000000006000830152602082019050919050565b6000614494601c83614c9e565b91507f677261636520706572696f6420686173206e6f7420656c6170736564000000006000830152602082019050919050565b60006144d4601e83614c9e565b91507f70726f706f73616c206973206e6f7420612066756e64696e67207479706500006000830152602082019050919050565b6000614514602f83614c9e565b91507f7375626d69742070726f706f73616c20646f6573206e6f74206861766520656e60008301527f6f75676820676f7620746f6b656e7300000000000000000000000000000000006020830152604082019050919050565b600061457a601583614c9e565b91507f70726f706f73616c207761732063616e63656c656400000000000000000000006000830152602082019050919050565b60006145ba601583614c9e565b91507f6e6f20766f746573206f757477656967682079657300000000000000000000006000830152602082019050919050565b60006145fa601b83614c9e565b91507f4865616420646964206e6f742073706f6e736f7220656e6f75676800000000006000830152602082019050919050565b600061463a601983614c9e565b91507f70726f706f73616c20616c7265616479206578656375746564000000000000006000830152602082019050919050565b6040820160008201516146836000850182613c4e565b5060208201516146966020850182613c4e565b50505050565b6146a581614e02565b82525050565b6146b481614e0c565b82525050565b60006020820190506146cf6000830184613c3f565b92915050565b60006060820190506146ea6000830186613c3f565b6146f76020830185613c3f565b614704604083018461469c565b949350505050565b60006040820190506147216000830185613c3f565b61472e602083018461469c565b9392505050565b600060208201905061474a6000830184613c5d565b92915050565b6000602082019050818103600083015261476a8184613c6c565b905092915050565b6000602082019050818103600083015261478b81613ca5565b9050919050565b600060208201905081810360008301526147ab81613d0b565b9050919050565b600060208201905081810360008301526147cb81613d71565b9050919050565b600060208201905081810360008301526147eb81613db1565b9050919050565b6000602082019050818103600083015261480b81613e17565b9050919050565b6000602082019050818103600083015261482b81613e57565b9050919050565b6000602082019050818103600083015261484b81613ebd565b9050919050565b6000602082019050818103600083015261486b81613efd565b9050919050565b6000602082019050818103600083015261488b81613f3d565b9050919050565b600060208201905081810360008301526148ab81613f7d565b9050919050565b600060208201905081810360008301526148cb81613fbd565b9050919050565b600060208201905081810360008301526148eb81614023565b9050919050565b6000602082019050818103600083015261490b81614063565b9050919050565b6000602082019050818103600083015261492b816140c9565b9050919050565b6000602082019050818103600083015261494b81614109565b9050919050565b6000602082019050818103600083015261496b81614149565b9050919050565b6000602082019050818103600083015261498b816141af565b9050919050565b600060208201905081810360008301526149ab816141ef565b9050919050565b600060208201905081810360008301526149cb81614255565b9050919050565b600060208201905081810360008301526149eb81614295565b9050919050565b60006020820190508181036000830152614a0b816142fb565b9050919050565b60006020820190508181036000830152614a2b8161433b565b9050919050565b60006020820190508181036000830152614a4b816143a1565b9050919050565b60006020820190508181036000830152614a6b81614407565b9050919050565b60006020820190508181036000830152614a8b81614447565b9050919050565b60006020820190508181036000830152614aab81614487565b9050919050565b60006020820190508181036000830152614acb816144c7565b9050919050565b60006020820190508181036000830152614aeb81614507565b9050919050565b60006020820190508181036000830152614b0b8161456d565b9050919050565b60006020820190508181036000830152614b2b816145ad565b9050919050565b60006020820190508181036000830152614b4b816145ed565b9050919050565b60006020820190508181036000830152614b6b8161462d565b9050919050565b6000602082019050614b87600083018461469c565b92915050565b6000606082019050614ba2600083018561469c565b614baf602083018461466d565b9392505050565b600061018082019050614bcc600083018e61469c565b614bd9602083018d6146ab565b614be6604083018c613c3f565b614bf3606083018b61466d565b614c0060a083018a61469c565b614c0d60c083018961469c565b614c1a60e0830188613c5d565b614c2861010083018761469c565b614c36610120830186613c3f565b614c44610140830185613c5d565b614c5261016083018461469c565b9c9b505050505050505050505050565b6000604051905081810181811067ffffffffffffffff82111715614c8957614c88614f54565b5b8060405250919050565b600081519050919050565b600082825260208201905092915050565b6000614cba82614e02565b9150614cc583614e02565b9250827fffffffffffffffffffffffffffffffffffffffffffffffffffffffffffffffff03821115614cfa57614cf9614ec7565b5b828201905092915050565b6000614d1082614e02565b9150614d1b83614e02565b925082614d2b57614d2a614ef6565b5b828204905092915050565b6000614d4182614e02565b9150614d4c83614e02565b9250817fffffffffffffffffffffffffffffffffffffffffffffffffffffffffffffffff0483118215151615614d8557614d84614ec7565b5b828202905092915050565b6000614d9b82614e02565b9150614da683614e02565b925082821015614db957614db8614ec7565b5b828203905092915050565b6000614dcf82614de2565b9050919050565b60008115159050919050565b600073ffffffffffffffffffffffffffffffffffffffff82169050919050565b6000819050919050565b600060ff82169050919050565b60005b83811015614e37578082015181840152602081019050614e1c565b83811115614e46576000848401525b50505050565b60006002820490506001821680614e6457607f821691505b60208210811415614e7857614e77614f25565b5b50919050565b6000614e8982614e02565b91507fffffffffffffffffffffffffffffffffffffffffffffffffffffffffffffffff821415614ebc57614ebb614ec7565b5b600182019050919050565b7f4e487b7100000000000000000000000000000000000000000000000000000000600052601160045260246000fd5b7f4e487b7100000000000000000000000000000000000000000000000000000000600052601260045260246000fd5b7f4e487b7100000000000000000000000000000000000000000000000000000000600052602260045260246000fd5b7f4e487b7100000000000000000000000000000000000000000000000000000000600052604160045260246000fd5b6000601f19601f8301169050919050565b614f9d81614dc4565b8114614fa857600080fd5b50565b614fb481614dd6565b8114614fbf57600080fd5b50565b614fcb81614e02565b8114614fd657600080fd5b50565b614fe281614e0c565b8114614fed57600080fd5b5056fea2646970667358221220259514f110a9941106851d8c14d714a23961bcf298c5c2076e02d0964360f03564736f6c63430008000033",
  "linkReferences": {},
  "deployedLinkReferences": {}
}