{
  "_format": "hh-sol-artifact-1",
  "contractName": "HouseDAOGovernance",
  "sourceName": "contracts/HouseDAOGovernance.sol",
  "abi": [
    {
      "inputs": [
        {
          "internalType": "address[]",
          "name": "heads",
          "type": "address[]"
        },
        {
          "internalType": "address",
          "name": "_governanceToken",
          "type": "address"
        },
        {
          "internalType": "uint256",
          "name": "_proposalTime",
          "type": "uint256"
        },
        {
          "internalType": "uint256",
          "name": "_daoGovernanceSupply",
          "type": "uint256"
        },
        {
          "internalType": "uint256",
          "name": "_threshold",
          "type": "uint256"
        },
        {
          "internalType": "uint256",
          "name": "_minimumProposalAmount",
          "type": "uint256"
        },
        {
          "internalType": "address",
          "name": "_weth",
          "type": "address"
        }
      ],
      "stateMutability": "nonpayable",
      "type": "constructor"
    },
    {
      "anonymous": false,
      "inputs": [
        {
          "indexed": false,
          "internalType": "uint256",
          "name": "number",
          "type": "uint256"
        }
      ],
      "name": "ProposalCreated",
      "type": "event"
    },
    {
      "inputs": [],
      "name": "WETH",
      "outputs": [
        {
          "internalType": "address",
          "name": "",
          "type": "address"
        }
      ],
      "stateMutability": "view",
      "type": "function"
    },
    {
      "inputs": [
        {
          "internalType": "uint256",
          "name": "_amount",
          "type": "uint256"
        }
      ],
      "name": "addGovernanceTokens",
      "outputs": [],
      "stateMutability": "nonpayable",
      "type": "function"
    },
    {
      "inputs": [
        {
          "internalType": "address",
          "name": "_currency",
          "type": "address"
        },
        {
          "internalType": "uint256",
          "name": "_amount",
          "type": "uint256"
        }
      ],
      "name": "adminSendFunds",
      "outputs": [],
      "stateMutability": "nonpayable",
      "type": "function"
    },
    {
      "inputs": [
        {
          "internalType": "uint256",
          "name": "_minimumProposalAmount",
          "type": "uint256"
        }
      ],
      "name": "adminUpdateMinimumProposalAmount",
      "outputs": [],
      "stateMutability": "nonpayable",
      "type": "function"
    },
    {
      "inputs": [
        {
          "internalType": "uint256",
          "name": "_threshold",
          "type": "uint256"
        }
      ],
      "name": "adminUpdateThreshold",
      "outputs": [],
      "stateMutability": "nonpayable",
      "type": "function"
    },
    {
      "inputs": [],
      "name": "balance",
      "outputs": [
        {
          "internalType": "uint256",
          "name": "",
          "type": "uint256"
        }
      ],
      "stateMutability": "view",
      "type": "function"
    },
    {
      "inputs": [
        {
          "internalType": "uint256",
          "name": "_proposalId",
          "type": "uint256"
        }
      ],
      "name": "cancelEnterDAO",
      "outputs": [],
      "stateMutability": "nonpayable",
      "type": "function"
    },
    {
      "inputs": [
        {
          "internalType": "uint256",
          "name": "_proposalId",
          "type": "uint256"
        }
      ],
      "name": "cancelProposal",
      "outputs": [],
      "stateMutability": "nonpayable",
      "type": "function"
    },
    {
      "inputs": [
        {
          "internalType": "uint256",
          "name": "_contribution",
          "type": "uint256"
        }
      ],
      "name": "contribute",
      "outputs": [],
      "stateMutability": "nonpayable",
      "type": "function"
    },
    {
      "inputs": [],
      "name": "daoGovernanceSupply",
      "outputs": [
        {
          "internalType": "uint256",
          "name": "",
          "type": "uint256"
        }
      ],
      "stateMutability": "view",
      "type": "function"
    },
    {
      "inputs": [
        {
          "internalType": "uint256",
          "name": "_proposalId",
          "type": "uint256"
        }
      ],
      "name": "executeChangeRoleProposal",
      "outputs": [],
      "stateMutability": "nonpayable",
      "type": "function"
    },
    {
      "inputs": [
        {
          "internalType": "uint256",
          "name": "_proposalId",
          "type": "uint256"
        }
      ],
      "name": "executeEnterDAOProposal",
      "outputs": [],
      "stateMutability": "nonpayable",
      "type": "function"
    },
    {
      "inputs": [
        {
          "internalType": "uint256",
          "name": "_proposalId",
          "type": "uint256"
        }
      ],
      "name": "executeFundingProposal",
      "outputs": [],
      "stateMutability": "nonpayable",
      "type": "function"
    },
    {
      "inputs": [],
      "name": "fundedProjects",
      "outputs": [
        {
          "internalType": "uint256",
          "name": "",
          "type": "uint256"
        }
      ],
      "stateMutability": "view",
      "type": "function"
    },
    {
      "inputs": [],
      "name": "governanceToken",
      "outputs": [
        {
          "internalType": "address",
          "name": "",
          "type": "address"
        }
      ],
      "stateMutability": "view",
      "type": "function"
    },
    {
      "inputs": [],
      "name": "gracePeriod",
      "outputs": [
        {
          "internalType": "uint256",
          "name": "",
          "type": "uint256"
        }
      ],
      "stateMutability": "view",
      "type": "function"
    },
    {
      "inputs": [
        {
          "internalType": "address",
          "name": "_member",
          "type": "address"
        }
      ],
      "name": "headOfHouseEnterMember",
      "outputs": [],
      "stateMutability": "nonpayable",
      "type": "function"
    },
    {
      "inputs": [],
      "name": "init",
      "outputs": [],
      "stateMutability": "nonpayable",
      "type": "function"
    },
    {
      "inputs": [],
      "name": "initialized",
      "outputs": [
        {
          "internalType": "bool",
          "name": "",
          "type": "bool"
        }
      ],
      "stateMutability": "view",
      "type": "function"
    },
    {
      "inputs": [
        {
          "components": [
            {
              "internalType": "bool",
              "name": "headOfHouse",
              "type": "bool"
            },
            {
              "internalType": "bool",
              "name": "member",
              "type": "bool"
            }
          ],
          "internalType": "struct IHouseDAO.Role",
          "name": "_role",
          "type": "tuple"
        }
      ],
      "name": "joinDAOProposal",
      "outputs": [],
      "stateMutability": "nonpayable",
      "type": "function"
    },
    {
      "inputs": [],
      "name": "memberCount",
      "outputs": [
        {
          "internalType": "uint256",
          "name": "",
          "type": "uint256"
        }
      ],
      "stateMutability": "view",
      "type": "function"
    },
    {
      "inputs": [
        {
          "internalType": "address",
          "name": "",
          "type": "address"
        }
      ],
      "name": "members",
      "outputs": [
        {
          "internalType": "uint256",
          "name": "shares",
          "type": "uint256"
        },
        {
          "components": [
            {
              "internalType": "bool",
              "name": "headOfHouse",
              "type": "bool"
            },
            {
              "internalType": "bool",
              "name": "member",
              "type": "bool"
            }
          ],
          "internalType": "struct IHouseDAO.Role",
          "name": "roles",
          "type": "tuple"
        },
        {
          "internalType": "bool",
          "name": "activeProposal",
          "type": "bool"
        }
      ],
      "stateMutability": "view",
      "type": "function"
    },
    {
      "inputs": [],
      "name": "minimumProposalAmount",
      "outputs": [
        {
          "internalType": "uint256",
          "name": "",
          "type": "uint256"
        }
      ],
      "stateMutability": "view",
      "type": "function"
    },
    {
      "inputs": [],
      "name": "name",
      "outputs": [
        {
          "internalType": "string",
          "name": "",
          "type": "string"
        }
      ],
      "stateMutability": "view",
      "type": "function"
    },
    {
      "inputs": [],
      "name": "proposalTime",
      "outputs": [
        {
          "internalType": "uint256",
          "name": "",
          "type": "uint256"
        }
      ],
      "stateMutability": "view",
      "type": "function"
    },
    {
      "inputs": [
        {
          "internalType": "uint256",
          "name": "",
          "type": "uint256"
        }
      ],
      "name": "proposals",
      "outputs": [
        {
          "internalType": "uint256",
          "name": "fundsRequested",
          "type": "uint256"
        },
        {
          "internalType": "uint8",
          "name": "proposalType",
          "type": "uint8"
        },
        {
          "internalType": "address",
          "name": "targetAddress",
          "type": "address"
        },
        {
          "components": [
            {
              "internalType": "bool",
              "name": "headOfHouse",
              "type": "bool"
            },
            {
              "internalType": "bool",
              "name": "member",
              "type": "bool"
            }
          ],
          "internalType": "struct IHouseDAO.Role",
          "name": "role",
          "type": "tuple"
        },
        {
          "internalType": "uint256",
          "name": "yesVotes",
          "type": "uint256"
        },
        {
          "internalType": "uint256",
          "name": "noVotes",
          "type": "uint256"
        },
        {
          "internalType": "bool",
          "name": "executed",
          "type": "bool"
        },
        {
          "internalType": "bool",
          "name": "queued",
          "type": "bool"
        },
        {
          "internalType": "uint256",
          "name": "deadline",
          "type": "uint256"
        },
        {
          "internalType": "address",
          "name": "proposer",
          "type": "address"
        },
        {
          "internalType": "bool",
          "name": "canceled",
          "type": "bool"
        },
        {
          "internalType": "uint256",
          "name": "gracePeriod",
          "type": "uint256"
        }
      ],
      "stateMutability": "view",
      "type": "function"
    },
    {
      "inputs": [
        {
          "internalType": "address",
          "name": "_nftAddress",
          "type": "address"
        },
        {
          "internalType": "uint256",
          "name": "_nftId",
          "type": "uint256"
        },
        {
          "internalType": "address",
          "name": "_recipient",
          "type": "address"
        }
      ],
      "name": "sendNFT",
      "outputs": [],
      "stateMutability": "nonpayable",
      "type": "function"
    },
    {
      "inputs": [
        {
          "internalType": "uint256",
          "name": "_proposalId",
          "type": "uint256"
        }
      ],
      "name": "startFundingProposalGracePeriod",
      "outputs": [],
      "stateMutability": "nonpayable",
      "type": "function"
    },
    {
      "inputs": [],
      "name": "submitModularProposal",
      "outputs": [],
      "stateMutability": "nonpayable",
      "type": "function"
    },
    {
      "inputs": [
        {
          "components": [
            {
              "internalType": "bool",
              "name": "headOfHouse",
              "type": "bool"
            },
            {
              "internalType": "bool",
              "name": "member",
              "type": "bool"
            }
          ],
          "internalType": "struct IHouseDAO.Role",
          "name": "_role",
          "type": "tuple"
        },
        {
          "internalType": "address",
          "name": "_recipient",
          "type": "address"
        },
        {
          "internalType": "uint256",
          "name": "_funding",
          "type": "uint256"
        },
        {
          "internalType": "uint8",
          "name": "_proposalType",
          "type": "uint8"
        }
      ],
      "name": "submitProposal",
      "outputs": [],
      "stateMutability": "nonpayable",
      "type": "function"
    },
    {
      "inputs": [],
      "name": "threshold",
      "outputs": [
        {
          "internalType": "uint256",
          "name": "",
          "type": "uint256"
        }
      ],
      "stateMutability": "view",
      "type": "function"
    },
    {
      "inputs": [],
      "name": "totalContribution",
      "outputs": [
        {
          "internalType": "uint256",
          "name": "",
          "type": "uint256"
        }
      ],
      "stateMutability": "view",
      "type": "function"
    },
    {
      "inputs": [],
      "name": "totalProposalCount",
      "outputs": [
        {
          "internalType": "uint256",
          "name": "",
          "type": "uint256"
        }
      ],
      "stateMutability": "view",
      "type": "function"
    },
    {
      "inputs": [
        {
          "internalType": "uint256",
          "name": "_proposalId",
          "type": "uint256"
        },
        {
          "internalType": "bool",
          "name": "_vote",
          "type": "bool"
        }
      ],
      "name": "vote",
      "outputs": [],
      "stateMutability": "nonpayable",
      "type": "function"
    },
    {
      "inputs": [],
      "name": "withdraw",
      "outputs": [],
      "stateMutability": "nonpayable",
      "type": "function"
    }
  ],
  "bytecode": "0x6080604052603c6007556000600f60006101000a81548173ffffffffffffffffffffffffffffffffffffffff021916908373ffffffffffffffffffffffffffffffffffffffff1602179055503480156200005857600080fd5b50604051620059833803806200598383398181016040528101906200007e9190620003ff565b60005b87518110156200027557600073ffffffffffffffffffffffffffffffffffffffff16888281518110620000dd577f4e487b7100000000000000000000000000000000000000000000000000000000600052603260045260246000fd5b602002602001015173ffffffffffffffffffffffffffffffffffffffff1614156200010757600080fd5b6001600260008a848151811062000147577f4e487b7100000000000000000000000000000000000000000000000000000000600052603260045260246000fd5b602002602001015173ffffffffffffffffffffffffffffffffffffffff1673ffffffffffffffffffffffffffffffffffffffff16815260200190815260200160002060010160000160006101000a81548160ff0219169083151502179055506001600260008a8481518110620001e6577f4e487b7100000000000000000000000000000000000000000000000000000000600052603260045260246000fd5b602002602001015173ffffffffffffffffffffffffffffffffffffffff1673ffffffffffffffffffffffffffffffffffffffff16815260200190815260200160002060010160000160016101000a81548160ff021916908315150217905550600560008154809291906200025a90620005c7565b919050555080806200026c90620005c7565b91505062000081565b5085600e60006101000a81548173ffffffffffffffffffffffffffffffffffffffff021916908373ffffffffffffffffffffffffffffffffffffffff160217905550603c85620002c6919062000528565b60068190555082600a8190555083600c8190555081600b8190555080600f60006101000a81548173ffffffffffffffffffffffffffffffffffffffff021916908373ffffffffffffffffffffffffffffffffffffffff16021790555050505050505050620006a7565b6000620003466200034084620004f9565b620004c5565b905080838252602082019050828560208602820111156200036657600080fd5b60005b858110156200039a57816200037f8882620003a4565b84526020840193506020830192505060018101905062000369565b5050509392505050565b600081519050620003b58162000673565b92915050565b600082601f830112620003cd57600080fd5b8151620003df8482602086016200032f565b91505092915050565b600081519050620003f9816200068d565b92915050565b600080600080600080600060e0888a0312156200041b57600080fd5b600088015167ffffffffffffffff8111156200043657600080fd5b620004448a828b01620003bb565b9750506020620004578a828b01620003a4565b96505060406200046a8a828b01620003e8565b95505060606200047d8a828b01620003e8565b9450506080620004908a828b01620003e8565b93505060a0620004a38a828b01620003e8565b92505060c0620004b68a828b01620003a4565b91505092959891949750929550565b6000604051905081810181811067ffffffffffffffff82111715620004ef57620004ee62000644565b5b8060405250919050565b600067ffffffffffffffff82111562000517576200051662000644565b5b602082029050602081019050919050565b60006200053582620005bd565b91506200054283620005bd565b9250817fffffffffffffffffffffffffffffffffffffffffffffffffffffffffffffffff04831182151516156200057e576200057d62000615565b5b828202905092915050565b600062000596826200059d565b9050919050565b600073ffffffffffffffffffffffffffffffffffffffff82169050919050565b6000819050919050565b6000620005d482620005bd565b91507fffffffffffffffffffffffffffffffffffffffffffffffffffffffffffffffff8214156200060a576200060962000615565b5b600182019050919050565b7f4e487b7100000000000000000000000000000000000000000000000000000000600052601160045260246000fd5b7f4e487b7100000000000000000000000000000000000000000000000000000000600052604160045260246000fd5b6200067e8162000589565b81146200068a57600080fd5b50565b6200069881620005bd565b8114620006a457600080fd5b50565b6152cc80620006b76000396000f3fe608060405234801561001057600080fd5b50600436106102115760003560e01c80637aee47cf11610125578063b0537630116100ad578063e0a8f6f51161007c578063e0a8f6f514610587578063e1c7392a146105a3578063ead0eedf146105ad578063ee6a2a65146105cb578063f96dae0a146105e757610211565b8063b053763014610515578063b69ef8a814610531578063c1cbbca71461054f578063c9d27afe1461056b57610211565b8063a06db7dc116100f4578063a06db7dc14610481578063a25c15591461049f578063a860bd4f146104bd578063ad15140c146104db578063ad5c4648146104f757610211565b80637aee47cf146104115780637e44d7881461042d578063844ccf7d1461044957806387e06c481461046557610211565b8063184a0ae9116101a857806342cde4e81161017757806342cde4e81461038357806349774ae2146103a157806354c37def146103bd5780635ca7cac3146103d95780635d3a8363146103f557610211565b8063184a0ae9146103355780631924ac5114610353578063243a86af1461036f5780633ccfd60b1461037957610211565b80630dc30c7b116101e45780630dc30c7b146102bf5780630dcf4b8f146102db57806311aee380146102f9578063158ef93e1461031757610211565b8063013cf08b1461021657806303d0f7201461025157806306fdde031461026f57806308ae4b0c1461028d575b600080fd5b610230600480360381019061022b9190613e3a565b610605565b6040516102489c9b9a99989796959493929190614e4d565b60405180910390f35b610259610719565b6040516102669190614dfb565b60405180910390f35b61027761071f565b60405161028491906149d9565b60405180910390f35b6102a760048036038101906102a29190613cd1565b6107ad565b6040516102b693929190614e16565b60405180910390f35b6102d960048036038101906102d49190613e3a565b610824565b005b6102e3610b0a565b6040516102f09190614dfb565b60405180910390f35b610301610b10565b60405161030e9190614dfb565b60405180910390f35b61031f610b16565b60405161032c91906149be565b60405180910390f35b61033d610b27565b60405161034a9190614dfb565b60405180910390f35b61036d60048036038101906103689190613e3a565b610b2d565b005b610377610cf2565b005b610381610cf4565b005b61038b611103565b6040516103989190614dfb565b60405180910390f35b6103bb60048036038101906103b69190613e3a565b611109565b005b6103d760048036038101906103d29190613e3a565b6114da565b005b6103f360048036038101906103ee9190613e3a565b611940565b005b61040f600480360381019061040a9190613dd7565b6119e3565b005b61042b60048036038101906104269190613e3a565b611fbb565b005b61044760048036038101906104429190613e3a565b61205e565b005b610463600480360381019061045e9190613d36565b6121f5565b005b61047f600480360381019061047a9190613cd1565b6123e2565b005b6104896125e3565b6040516104969190614dfb565b60405180910390f35b6104a76125e9565b6040516104b49190614dfb565b60405180910390f35b6104c56125ef565b6040516104d29190614dfb565b60405180910390f35b6104f560048036038101906104f09190613e3a565b6125f5565b005b6104ff612a05565b60405161050c9190614943565b60405180910390f35b61052f600480360381019061052a9190613cfa565b612a2b565b005b610539612b58565b6040516105469190614dfb565b60405180910390f35b61056960048036038101906105649190613e3a565b612b5e565b005b61058560048036038101906105809190613e8c565b612e72565b005b6105a1600480360381019061059c9190613e3a565b61333c565b005b6105ab6134f8565b005b6105b56136c1565b6040516105c29190614dfb565b60405180910390f35b6105e560048036038101906105e09190613dae565b6136c7565b005b6105ef613b89565b6040516105fc9190614943565b60405180910390f35b60036020528060005260406000206000915090508060000154908060010160009054906101000a900460ff16908060010160019054906101000a900473ffffffffffffffffffffffffffffffffffffffff1690806002016040518060400160405290816000820160009054906101000a900460ff161515151581526020016000820160019054906101000a900460ff161515151581525050908060030154908060040154908060050160009054906101000a900460ff16908060050160019054906101000a900460ff16908060060154908060070160009054906101000a900473ffffffffffffffffffffffffffffffffffffffff16908060070160149054906101000a900460ff1690806008015490508c565b600d5481565b6001805461072c906150f2565b80601f0160208091040260200160405190810160405280929190818152602001828054610758906150f2565b80156107a55780601f1061077a576101008083540402835291602001916107a5565b820191906000526020600020905b81548152906001019060200180831161078857829003601f168201915b505050505081565b6002602052806000526040600020600091509050806000015490806001016040518060400160405290816000820160009054906101000a900460ff161515151581526020016000820160019054906101000a900460ff161515151581525050908060020160009054906101000a900460ff16905083565b80600015156003600083815260200190815260200160002060070160149054906101000a900460ff1615151461088f576040517f08c379a000000000000000000000000000000000000000000000000000000000815260040161088690614d9b565b60405180910390fd5b600015156003600083815260200190815260200160002060050160009054906101000a900460ff161515146108f9576040517f08c379a00000000000000000000000000000000000000000000000000000000081526004016108f090614ddb565b60405180910390fd5b600a5460036000838152602001908152602001600020600301541015610954576040517f08c379a000000000000000000000000000000000000000000000000000000000815260040161094b90614cdb565b60405180910390fd5b6003600082815260200190815260200160002060040154600360008381526020019081526020016000206003015410156109c3576040517f08c379a00000000000000000000000000000000000000000000000000000000081526004016109ba90614dbb565b60405180910390fd5b60006003600084815260200190815260200160002060010160009054906101000a900460ff1660ff1614610a2c576040517f08c379a0000000000000000000000000000000000000000000000000000000008152600401610a2390614d5b565b60405180910390fd5b6000600360008481526020019081526020016000206008015414610a85576040517f08c379a0000000000000000000000000000000000000000000000000000000008152600401610a7c90614a3b565b60405180910390fd5b4260036000848152602001908152602001600020600601541115610ade576040517f08c379a0000000000000000000000000000000000000000000000000000000008152600401610ad590614a1b565b60405180910390fd5b60075442610aec9190614f55565b60036000848152602001908152602001600020600801819055505050565b60085481565b60055481565b60008054906101000a900460ff1681565b60065481565b80600e60009054906101000a900473ffffffffffffffffffffffffffffffffffffffff1673ffffffffffffffffffffffffffffffffffffffff166370a08231336040518263ffffffff1660e01b8152600401610b899190614943565b60206040518083038186803b158015610ba157600080fd5b505afa158015610bb5573d6000803e3d6000fd5b505050506040513d601f19601f82011682018060405250810190610bd99190613e63565b1015610c1a576040517f08c379a0000000000000000000000000000000000000000000000000000000008152600401610c1190614afb565b60405180910390fd5b610c2f81600c54613baf90919063ffffffff16565b600c81905550600e60009054906101000a900473ffffffffffffffffffffffffffffffffffffffff1673ffffffffffffffffffffffffffffffffffffffff166323b872dd3330846040518463ffffffff1660e01b8152600401610c949392919061495e565b602060405180830381600087803b158015610cae57600080fd5b505af1158015610cc2573d6000803e3d6000fd5b505050506040513d601f19601f82011682018060405250810190610ce69190613d85565b610cef57600080fd5b50565b565b60011515600260003373ffffffffffffffffffffffffffffffffffffffff1673ffffffffffffffffffffffffffffffffffffffff16815260200190815260200160002060010160000160019054906101000a900460ff16151514610d8d576040517f08c379a0000000000000000000000000000000000000000000000000000000008152600401610d8490614bfb565b60405180910390fd5b6000600260003373ffffffffffffffffffffffffffffffffffffffff1673ffffffffffffffffffffffffffffffffffffffff1681526020019081526020016000206000015411610e12576040517f08c379a0000000000000000000000000000000000000000000000000000000008152600401610e0990614c5b565b60405180910390fd5b600060095411610e57576040517f08c379a0000000000000000000000000000000000000000000000000000000008152600401610e4e90614cfb565b60405180910390fd5b6000610eb0600954600260003373ffffffffffffffffffffffffffffffffffffffff1673ffffffffffffffffffffffffffffffffffffffff16815260200190815260200160002060000154613bc590919063ffffffff16565b90506000610ec960085483613bdb90919063ffffffff16565b9050610f22600260003373ffffffffffffffffffffffffffffffffffffffff1673ffffffffffffffffffffffffffffffffffffffff16815260200190815260200160002060000154600854613bf190919063ffffffff16565b6008819055506000600260003373ffffffffffffffffffffffffffffffffffffffff1673ffffffffffffffffffffffffffffffffffffffff168152602001908152602001600020600001819055506000600260003373ffffffffffffffffffffffffffffffffffffffff1673ffffffffffffffffffffffffffffffffffffffff16815260200190815260200160002060010160000160016101000a81548160ff0219169083151502179055506000600260003373ffffffffffffffffffffffffffffffffffffffff1673ffffffffffffffffffffffffffffffffffffffff16815260200190815260200160002060010160000160006101000a81548160ff02191690831515021790555061104181600954613bf190919063ffffffff16565b600981905550600f60009054906101000a900473ffffffffffffffffffffffffffffffffffffffff1673ffffffffffffffffffffffffffffffffffffffff1663a9059cbb33836040518363ffffffff1660e01b81526004016110a4929190614995565b602060405180830381600087803b1580156110be57600080fd5b505af11580156110d2573d6000803e3d6000fd5b505050506040513d601f19601f820116820180604052508101906110f69190613d85565b6110ff57600080fd5b5050565b600a5481565b80600015156003600083815260200190815260200160002060070160149054906101000a900460ff16151514611174576040517f08c379a000000000000000000000000000000000000000000000000000000000815260040161116b90614d9b565b60405180910390fd5b600015156003600083815260200190815260200160002060050160009054906101000a900460ff161515146111de576040517f08c379a00000000000000000000000000000000000000000000000000000000081526004016111d590614ddb565b60405180910390fd5b600a5460036000838152602001908152602001600020600301541015611239576040517f08c379a000000000000000000000000000000000000000000000000000000000815260040161123090614cdb565b60405180910390fd5b6003600082815260200190815260200160002060040154600360008381526020019081526020016000206003015410156112a8576040517f08c379a000000000000000000000000000000000000000000000000000000000815260040161129f90614dbb565b60405180910390fd5b60026003600084815260200190815260200160002060010160009054906101000a900460ff1660ff1614611311576040517f08c379a000000000000000000000000000000000000000000000000000000000815260040161130890614a5b565b60405180910390fd5b426003600084815260200190815260200160002060060154111561136a576040517f08c379a000000000000000000000000000000000000000000000000000000000815260040161136190614a1b565b60405180910390fd5b6001600260006003600086815260200190815260200160002060070160009054906101000a900473ffffffffffffffffffffffffffffffffffffffff1673ffffffffffffffffffffffffffffffffffffffff1673ffffffffffffffffffffffffffffffffffffffff16815260200190815260200160002060010160000160016101000a81548160ff02191690831515021790555060016003600084815260200190815260200160002060050160006101000a81548160ff0219169083151502179055506000600260006003600086815260200190815260200160002060070160009054906101000a900473ffffffffffffffffffffffffffffffffffffffff1673ffffffffffffffffffffffffffffffffffffffff1673ffffffffffffffffffffffffffffffffffffffff16815260200190815260200160002060020160006101000a81548160ff021916908315150217905550600560008154809291906114d190615124565b91905055505050565b80600015156003600083815260200190815260200160002060070160149054906101000a900460ff16151514611545576040517f08c379a000000000000000000000000000000000000000000000000000000000815260040161153c90614d9b565b60405180910390fd5b600015156003600083815260200190815260200160002060050160009054906101000a900460ff161515146115af576040517f08c379a00000000000000000000000000000000000000000000000000000000081526004016115a690614ddb565b60405180910390fd5b600a546003600083815260200190815260200160002060030154101561160a576040517f08c379a000000000000000000000000000000000000000000000000000000000815260040161160190614cdb565b60405180910390fd5b600360008281526020019081526020016000206004015460036000838152602001908152602001600020600301541015611679576040517f08c379a000000000000000000000000000000000000000000000000000000000815260040161167090614dbb565b60405180910390fd5b600360008381526020019081526020016000206000015460095410156116d4576040517f08c379a00000000000000000000000000000000000000000000000000000000081526004016116cb90614b1b565b60405180910390fd5b600360008381526020019081526020016000206008015442101561172d576040517f08c379a000000000000000000000000000000000000000000000000000000000815260040161172490614d1b565b60405180910390fd5b6117586003600084815260200190815260200160002060000154600954613bf190919063ffffffff16565b6009819055506000600260006003600086815260200190815260200160002060070160009054906101000a900473ffffffffffffffffffffffffffffffffffffffff1673ffffffffffffffffffffffffffffffffffffffff1673ffffffffffffffffffffffffffffffffffffffff16815260200190815260200160002060020160006101000a81548160ff02191690831515021790555060016003600084815260200190815260200160002060050160006101000a81548160ff021916908315150217905550600d600081548092919061183190615124565b9190505550600f60009054906101000a900473ffffffffffffffffffffffffffffffffffffffff1673ffffffffffffffffffffffffffffffffffffffff166323b872dd306003600086815260200190815260200160002060010160019054906101000a900473ffffffffffffffffffffffffffffffffffffffff1660036000878152602001908152602001600020600001546040518463ffffffff1660e01b81526004016118e19392919061495e565b602060405180830381600087803b1580156118fb57600080fd5b505af115801561190f573d6000803e3d6000fd5b505050506040513d601f19601f820116820180604052508101906119339190613d85565b61193c57600080fd5b5050565b60011515600260003373ffffffffffffffffffffffffffffffffffffffff1673ffffffffffffffffffffffffffffffffffffffff16815260200190815260200160002060010160000160009054906101000a900460ff161515146119d9576040517f08c379a00000000000000000000000000000000000000000000000000000000081526004016119d090614c7b565b60405180910390fd5b80600b8190555050565b60011515600260003373ffffffffffffffffffffffffffffffffffffffff1673ffffffffffffffffffffffffffffffffffffffff16815260200190815260200160002060010160000160019054906101000a900460ff16151514611a7c576040517f08c379a0000000000000000000000000000000000000000000000000000000008152600401611a7390614bfb565b60405180910390fd5b816009541015611ac1576040517f08c379a0000000000000000000000000000000000000000000000000000000008152600401611ab890614c1b565b60405180910390fd5b60001515600260003373ffffffffffffffffffffffffffffffffffffffff1673ffffffffffffffffffffffffffffffffffffffff16815260200190815260200160002060020160009054906101000a900460ff16151514611b57576040517f08c379a0000000000000000000000000000000000000000000000000000000008152600401611b4e90614b5b565b60405180910390fd5b600b54600e60009054906101000a900473ffffffffffffffffffffffffffffffffffffffff1673ffffffffffffffffffffffffffffffffffffffff166370a08231336040518263ffffffff1660e01b8152600401611bb59190614943565b60206040518083038186803b158015611bcd57600080fd5b505afa158015611be1573d6000803e3d6000fd5b505050506040513d601f19601f82011682018060405250810190611c059190613e63565b1015611c46576040517f08c379a0000000000000000000000000000000000000000000000000000000008152600401611c3d90614d7b565b60405180910390fd5b6001600260003373ffffffffffffffffffffffffffffffffffffffff1673ffffffffffffffffffffffffffffffffffffffff16815260200190815260200160002060020160006101000a81548160ff02191690831515021790555081600360006004548152602001908152602001600020600001819055508360036000600454815260200190815260200160002060020160008201518160000160006101000a81548160ff02191690831515021790555060208201518160000160016101000a81548160ff0219169083151502179055509050508060036000600454815260200190815260200160002060010160006101000a81548160ff021916908360ff160217905550600e60009054906101000a900473ffffffffffffffffffffffffffffffffffffffff1673ffffffffffffffffffffffffffffffffffffffff166370a08231336040518263ffffffff1660e01b8152600401611da69190614943565b60206040518083038186803b158015611dbe57600080fd5b505afa158015611dd2573d6000803e3d6000fd5b505050506040513d601f19601f82011682018060405250810190611df69190613e63565b6003600060045481526020019081526020016000206003018190555060065442611e209190614f55565b600360006004548152602001908152602001600020600601819055503360036000600454815260200190815260200160002060070160006101000a81548173ffffffffffffffffffffffffffffffffffffffff021916908373ffffffffffffffffffffffffffffffffffffffff1602179055508260036000600454815260200190815260200160002060010160016101000a81548173ffffffffffffffffffffffffffffffffffffffff021916908373ffffffffffffffffffffffffffffffffffffffff160217905550600160036000600454815260200190815260200160002060090160003373ffffffffffffffffffffffffffffffffffffffff1673ffffffffffffffffffffffffffffffffffffffff16815260200190815260200160002060006101000a81548160ff02191690831515021790555060046000815480929190611f6b90615124565b91905055507fc2c021f5d73c63c481d336fbbafec58f694fc45095f00b02d2deb8cca59afe076001600454611fa09190615036565b604051611fad9190614dfb565b60405180910390a150505050565b60011515600260003373ffffffffffffffffffffffffffffffffffffffff1673ffffffffffffffffffffffffffffffffffffffff16815260200190815260200160002060010160000160009054906101000a900460ff16151514612054576040517f08c379a000000000000000000000000000000000000000000000000000000000815260040161204b90614c7b565b60405180910390fd5b80600a8190555050565b600015156003600083815260200190815260200160002060070160149054906101000a900460ff161515146120c8576040517f08c379a00000000000000000000000000000000000000000000000000000000081526004016120bf90614abb565b60405180910390fd5b600015156003600083815260200190815260200160002060050160009054906101000a900460ff16151514612132576040517f08c379a000000000000000000000000000000000000000000000000000000000815260040161212990614b7b565b60405180910390fd5b60016003600083815260200190815260200160002060070160146101000a81548160ff0219169083151502179055506000600260006003600085815260200190815260200160002060070160009054906101000a900473ffffffffffffffffffffffffffffffffffffffff1673ffffffffffffffffffffffffffffffffffffffff1673ffffffffffffffffffffffffffffffffffffffff16815260200190815260200160002060020160006101000a81548160ff02191690831515021790555050565b60011515600260003373ffffffffffffffffffffffffffffffffffffffff1673ffffffffffffffffffffffffffffffffffffffff16815260200190815260200160002060010160000160009054906101000a900460ff1615151461228e576040517f08c379a000000000000000000000000000000000000000000000000000000000815260040161228590614c7b565b60405180910390fd5b600073ffffffffffffffffffffffffffffffffffffffff168373ffffffffffffffffffffffffffffffffffffffff1614156122fe576040517f08c379a00000000000000000000000000000000000000000000000000000000081526004016122f590614c3b565b60405180910390fd5b600073ffffffffffffffffffffffffffffffffffffffff168173ffffffffffffffffffffffffffffffffffffffff16141561236e576040517f08c379a0000000000000000000000000000000000000000000000000000000008152600401612365906149fb565b60405180910390fd5b8273ffffffffffffffffffffffffffffffffffffffff166342842e0e3083856040518463ffffffff1660e01b81526004016123ab9392919061495e565b600060405180830381600087803b1580156123c557600080fd5b505af11580156123d9573d6000803e3d6000fd5b50505050505050565b60011515600260003373ffffffffffffffffffffffffffffffffffffffff1673ffffffffffffffffffffffffffffffffffffffff16815260200190815260200160002060010160000160009054906101000a900460ff1615151461247b576040517f08c379a000000000000000000000000000000000000000000000000000000000815260040161247290614c7b565b60405180910390fd5b600b54600e60009054906101000a900473ffffffffffffffffffffffffffffffffffffffff1673ffffffffffffffffffffffffffffffffffffffff166370a08231836040518263ffffffff1660e01b81526004016124d99190614943565b60206040518083038186803b1580156124f157600080fd5b505afa158015612505573d6000803e3d6000fd5b505050506040513d601f19601f820116820180604052508101906125299190613e63565b101561256a576040517f08c379a000000000000000000000000000000000000000000000000000000000815260040161256190614bdb565b60405180910390fd5b6001600260008373ffffffffffffffffffffffffffffffffffffffff1673ffffffffffffffffffffffffffffffffffffffff16815260200190815260200160002060010160000160016101000a81548160ff021916908315150217905550600560008154809291906125db90615124565b919050555050565b60075481565b600c5481565b600b5481565b80600015156003600083815260200190815260200160002060070160149054906101000a900460ff16151514612660576040517f08c379a000000000000000000000000000000000000000000000000000000000815260040161265790614d9b565b60405180910390fd5b600015156003600083815260200190815260200160002060050160009054906101000a900460ff161515146126ca576040517f08c379a00000000000000000000000000000000000000000000000000000000081526004016126c190614ddb565b60405180910390fd5b600a5460036000838152602001908152602001600020600301541015612725576040517f08c379a000000000000000000000000000000000000000000000000000000000815260040161271c90614cdb565b60405180910390fd5b600360008281526020019081526020016000206004015460036000838152602001908152602001600020600301541015612794576040517f08c379a000000000000000000000000000000000000000000000000000000000815260040161278b90614dbb565b60405180910390fd5b60016003600084815260200190815260200160002060010160009054906101000a900460ff1660ff16146127fd576040517f08c379a00000000000000000000000000000000000000000000000000000000081526004016127f490614a9b565b60405180910390fd5b4260036000848152602001908152602001600020600601541115612856576040517f08c379a000000000000000000000000000000000000000000000000000000000815260040161284d90614a1b565b60405180910390fd5b60036000838152602001908152602001600020600201600260006003600086815260200190815260200160002060010160019054906101000a900473ffffffffffffffffffffffffffffffffffffffff1673ffffffffffffffffffffffffffffffffffffffff1673ffffffffffffffffffffffffffffffffffffffff1681526020019081526020016000206001016000820160009054906101000a900460ff168160000160006101000a81548160ff0219169083151502179055506000820160019054906101000a900460ff168160000160016101000a81548160ff0219169083151502179055509050506000600260006003600086815260200190815260200160002060070160009054906101000a900473ffffffffffffffffffffffffffffffffffffffff1673ffffffffffffffffffffffffffffffffffffffff1673ffffffffffffffffffffffffffffffffffffffff16815260200190815260200160002060020160006101000a81548160ff02191690831515021790555060016003600084815260200190815260200160002060050160006101000a81548160ff0219169083151502179055505050565b600f60009054906101000a900473ffffffffffffffffffffffffffffffffffffffff1681565b60011515600260003373ffffffffffffffffffffffffffffffffffffffff1673ffffffffffffffffffffffffffffffffffffffff16815260200190815260200160002060010160000160009054906101000a900460ff16151514612ac4576040517f08c379a0000000000000000000000000000000000000000000000000000000008152600401612abb90614c7b565b60405180910390fd5b8173ffffffffffffffffffffffffffffffffffffffff166323b872dd3033846040518463ffffffff1660e01b8152600401612b019392919061495e565b602060405180830381600087803b158015612b1b57600080fd5b505af1158015612b2f573d6000803e3d6000fd5b505050506040513d601f19601f82011682018060405250810190612b539190613d85565b505050565b60095481565b60011515600260003373ffffffffffffffffffffffffffffffffffffffff1673ffffffffffffffffffffffffffffffffffffffff16815260200190815260200160002060010160000160019054906101000a900460ff16151514612bf7576040517f08c379a0000000000000000000000000000000000000000000000000000000008152600401612bee90614bfb565b60405180910390fd5b80600f60009054906101000a900473ffffffffffffffffffffffffffffffffffffffff1673ffffffffffffffffffffffffffffffffffffffff166370a08231336040518263ffffffff1660e01b8152600401612c539190614943565b60206040518083038186803b158015612c6b57600080fd5b505afa158015612c7f573d6000803e3d6000fd5b505050506040513d601f19601f82011682018060405250810190612ca39190613e63565b1015612ce4576040517f08c379a0000000000000000000000000000000000000000000000000000000008152600401612cdb90614adb565b60405180910390fd5b612d3981600260003373ffffffffffffffffffffffffffffffffffffffff1673ffffffffffffffffffffffffffffffffffffffff16815260200190815260200160002060000154613baf90919063ffffffff16565b600260003373ffffffffffffffffffffffffffffffffffffffff1673ffffffffffffffffffffffffffffffffffffffff16815260200190815260200160002060000181905550612d9481600854613baf90919063ffffffff16565b600881905550612daf81600954613baf90919063ffffffff16565b600981905550600f60009054906101000a900473ffffffffffffffffffffffffffffffffffffffff1673ffffffffffffffffffffffffffffffffffffffff166323b872dd3330846040518463ffffffff1660e01b8152600401612e149392919061495e565b602060405180830381600087803b158015612e2e57600080fd5b505af1158015612e42573d6000803e3d6000fd5b505050506040513d601f19601f82011682018060405250810190612e669190613d85565b612e6f57600080fd5b50565b60011515600260003373ffffffffffffffffffffffffffffffffffffffff1673ffffffffffffffffffffffffffffffffffffffff16815260200190815260200160002060010160000160019054906101000a900460ff16151514612f0b576040517f08c379a0000000000000000000000000000000000000000000000000000000008152600401612f0290614bfb565b60405180910390fd5b600015156003600084815260200190815260200160002060090160003373ffffffffffffffffffffffffffffffffffffffff1673ffffffffffffffffffffffffffffffffffffffff16815260200190815260200160002060009054906101000a900460ff16151514612fb2576040517f08c379a0000000000000000000000000000000000000000000000000000000008152600401612fa990614a7b565b60405180910390fd5b600015156003600084815260200190815260200160002060070160149054906101000a900460ff1615151461301c576040517f08c379a000000000000000000000000000000000000000000000000000000000815260040161301390614b3b565b60405180910390fd5b600015156003600084815260200190815260200160002060050160009054906101000a900460ff16151514613086576040517f08c379a000000000000000000000000000000000000000000000000000000000815260040161307d90614bbb565b60405180910390fd5b42600360008481526020019081526020016000206006015410156130df576040517f08c379a00000000000000000000000000000000000000000000000000000000081526004016130d690614cbb565b60405180910390fd5b60016003600084815260200190815260200160002060090160003373ffffffffffffffffffffffffffffffffffffffff1673ffffffffffffffffffffffffffffffffffffffff16815260200190815260200160002060006101000a81548160ff02191690831515021790555060001515811515141561324a5761322b600e60009054906101000a900473ffffffffffffffffffffffffffffffffffffffff1673ffffffffffffffffffffffffffffffffffffffff166370a08231336040518263ffffffff1660e01b81526004016131b69190614943565b60206040518083038186803b1580156131ce57600080fd5b505afa1580156131e2573d6000803e3d6000fd5b505050506040513d601f19601f820116820180604052508101906132069190613e63565b6003600085815260200190815260200160002060040154613baf90919063ffffffff16565b6003600084815260200190815260200160002060040181905550613338565b61331d600e60009054906101000a900473ffffffffffffffffffffffffffffffffffffffff1673ffffffffffffffffffffffffffffffffffffffff166370a08231336040518263ffffffff1660e01b81526004016132a89190614943565b60206040518083038186803b1580156132c057600080fd5b505afa1580156132d4573d6000803e3d6000fd5b505050506040513d601f19601f820116820180604052508101906132f89190613e63565b6003600085815260200190815260200160002060030154613baf90919063ffffffff16565b60036000848152602001908152602001600020600301819055505b5050565b600015156003600083815260200190815260200160002060070160149054906101000a900460ff1615151461337057600080fd5b600015156003600083815260200190815260200160002060050160009054906101000a900460ff161515146133a457600080fd5b42600360008381526020019081526020016000206006015410156133c757600080fd5b3373ffffffffffffffffffffffffffffffffffffffff166003600083815260200190815260200160002060070160009054906101000a900473ffffffffffffffffffffffffffffffffffffffff1673ffffffffffffffffffffffffffffffffffffffff161461343557600080fd5b60016003600083815260200190815260200160002060070160146101000a81548160ff0219169083151502179055506000600260006003600085815260200190815260200160002060070160009054906101000a900473ffffffffffffffffffffffffffffffffffffffff1673ffffffffffffffffffffffffffffffffffffffff1673ffffffffffffffffffffffffffffffffffffffff16815260200190815260200160002060020160006101000a81548160ff02191690831515021790555050565b60011515600260003373ffffffffffffffffffffffffffffffffffffffff1673ffffffffffffffffffffffffffffffffffffffff16815260200190815260200160002060010160000160009054906101000a900460ff16151514613591576040517f08c379a000000000000000000000000000000000000000000000000000000000815260040161358890614c7b565b60405180910390fd5b6000151560008054906101000a900460ff161515146135e5576040517f08c379a00000000000000000000000000000000000000000000000000000000081526004016135dc90614b9b565b60405180910390fd5b60016000806101000a81548160ff0219169083151502179055506000600c5411156136bf57600e60009054906101000a900473ffffffffffffffffffffffffffffffffffffffff1673ffffffffffffffffffffffffffffffffffffffff166323b872dd3330600c546040518463ffffffff1660e01b815260040161366b9392919061495e565b602060405180830381600087803b15801561368557600080fd5b505af1158015613699573d6000803e3d6000fd5b505050506040513d601f19601f820116820180604052508101906136bd9190613d85565b505b565b60045481565b60001515600260003373ffffffffffffffffffffffffffffffffffffffff1673ffffffffffffffffffffffffffffffffffffffff16815260200190815260200160002060010160000160019054906101000a900460ff16151514613760576040517f08c379a000000000000000000000000000000000000000000000000000000000815260040161375790614d3b565b60405180910390fd5b60001515600260003373ffffffffffffffffffffffffffffffffffffffff1673ffffffffffffffffffffffffffffffffffffffff16815260200190815260200160002060020160009054906101000a900460ff161515146137f6576040517f08c379a00000000000000000000000000000000000000000000000000000000081526004016137ed90614b5b565b60405180910390fd5b600b54600e60009054906101000a900473ffffffffffffffffffffffffffffffffffffffff1673ffffffffffffffffffffffffffffffffffffffff166370a08231336040518263ffffffff1660e01b81526004016138549190614943565b60206040518083038186803b15801561386c57600080fd5b505afa158015613880573d6000803e3d6000fd5b505050506040513d601f19601f820116820180604052508101906138a49190613e63565b10156138e5576040517f08c379a00000000000000000000000000000000000000000000000000000000081526004016138dc90614c9b565b60405180910390fd5b8060036000600454815260200190815260200160002060020160008201518160000160006101000a81548160ff02191690831515021790555060208201518160000160016101000a81548160ff021916908315150217905550905050600260036000600454815260200190815260200160002060010160006101000a81548160ff021916908360ff160217905550600e60009054906101000a900473ffffffffffffffffffffffffffffffffffffffff1673ffffffffffffffffffffffffffffffffffffffff166370a08231336040518263ffffffff1660e01b81526004016139ce9190614943565b60206040518083038186803b1580156139e657600080fd5b505afa1580156139fa573d6000803e3d6000fd5b505050506040513d601f19601f82011682018060405250810190613a1e9190613e63565b6003600060045481526020019081526020016000206003018190555060065442613a489190614f55565b600360006004548152602001908152602001600020600601819055503360036000600454815260200190815260200160002060070160006101000a81548173ffffffffffffffffffffffffffffffffffffffff021916908373ffffffffffffffffffffffffffffffffffffffff160217905550600160036000600454815260200190815260200160002060090160003373ffffffffffffffffffffffffffffffffffffffff1673ffffffffffffffffffffffffffffffffffffffff16815260200190815260200160002060006101000a81548160ff02191690831515021790555060046000815480929190613b3c90615124565b91905055507fc2c021f5d73c63c481d336fbbafec58f694fc45095f00b02d2deb8cca59afe076001600454613b719190615036565b604051613b7e9190614dfb565b60405180910390a150565b600e60009054906101000a900473ffffffffffffffffffffffffffffffffffffffff1681565b60008183613bbd9190614f55565b905092915050565b60008183613bd39190614fdc565b905092915050565b60008183613be99190614fab565b905092915050565b60008183613bff9190615036565b905092915050565b600081359050613c168161523a565b92915050565b600081359050613c2b81615251565b92915050565b600081519050613c4081615251565b92915050565b600060408284031215613c5857600080fd5b613c626040614f08565b90506000613c7284828501613c1c565b6000830152506020613c8684828501613c1c565b60208301525092915050565b600081359050613ca181615268565b92915050565b600081519050613cb681615268565b92915050565b600081359050613ccb8161527f565b92915050565b600060208284031215613ce357600080fd5b6000613cf184828501613c07565b91505092915050565b60008060408385031215613d0d57600080fd5b6000613d1b85828601613c07565b9250506020613d2c85828601613c92565b9150509250929050565b600080600060608486031215613d4b57600080fd5b6000613d5986828701613c07565b9350506020613d6a86828701613c92565b9250506040613d7b86828701613c07565b9150509250925092565b600060208284031215613d9757600080fd5b6000613da584828501613c31565b91505092915050565b600060408284031215613dc057600080fd5b6000613dce84828501613c46565b91505092915050565b60008060008060a08587031215613ded57600080fd5b6000613dfb87828801613c46565b9450506040613e0c87828801613c07565b9350506060613e1d87828801613c92565b9250506080613e2e87828801613cbc565b91505092959194509250565b600060208284031215613e4c57600080fd5b6000613e5a84828501613c92565b91505092915050565b600060208284031215613e7557600080fd5b6000613e8384828501613ca7565b91505092915050565b60008060408385031215613e9f57600080fd5b6000613ead85828601613c92565b9250506020613ebe85828601613c1c565b9150509250929050565b613ed18161506a565b82525050565b613ee08161507c565b82525050565b613eef8161507c565b82525050565b6000613f0082614f39565b613f0a8185614f44565b9350613f1a8185602086016150bf565b613f2381615229565b840191505092915050565b6000613f3b601a83614f44565b91507f5f726563697069656e742069732061646472657373207a65726f0000000000006000830152602082019050919050565b6000613f7b602483614f44565b91507f70726f706f73616c20646561646c696e6520686173206e6f742070617373656460008301527f20796574000000000000000000000000000000000000000000000000000000006020830152604082019050919050565b6000613fe1602583614f44565b91507f70726f706f73616c20616c726561647920656e7465726564206772616365207060008301527f6572696f640000000000000000000000000000000000000000000000000000006020830152604082019050919050565b6000614047601e83614f44565b91507f70726f706f73616c206973206e6f7420656e7465722064616f207479706500006000830152602082019050919050565b6000614087600d83614f44565b91507f616c726561647920766f746564000000000000000000000000000000000000006000830152602082019050919050565b60006140c7602083614f44565b91507f70726f706f73616c206973206e6f74206368616e676520726f6c6520747970656000830152602082019050919050565b6000614107601c83614f44565b91507f6a6f696e2064616f20697320616c72656164792063616e63656c6564000000006000830152602082019050919050565b6000614147602083614f44565b91507f6d656d62657220646f6573206e6f74206861766520656e6f75676820776574686000830152602082019050919050565b6000614187602683614f44565b91507f6d656d62657220646f6573206e6f74206861766520656e6f75676820676f762060008301527f746f6b656e7300000000000000000000000000000000000000000000000000006020830152604082019050919050565b60006141ed602783614f44565b91507f6e6f7420656e6f7567682066756e6473206f6e207468652044414f20746f206660008301527f696e616c697a65000000000000000000000000000000000000000000000000006020830152604082019050919050565b6000614253601a83614f44565b91507f70726f706f73616c20686173206265656e2063616e63656c65640000000000006000830152602082019050919050565b6000614293602683614f44565b91507f6d656d656265722068617320616e206163746976652070726f706f73616c206160008301527f6c726561647900000000000000000000000000000000000000000000000000006020830152604082019050919050565b60006142f9602283614f44565b91507f63616e6e6f742063616e63656c20616e206578656374757265206a6f696e206460008301527f616f0000000000000000000000000000000000000000000000000000000000006020830152604082019050919050565b600061435f601383614f44565b91507f616c726561647920696e697469616c697a6564000000000000000000000000006000830152602082019050919050565b600061439f601c83614f44565b91507f70726f706f73616c20697320616c7265616479206578656375746564000000006000830152602082019050919050565b60006143df602783614f44565b91507f73706f6e736f7220646f6573206e6f74206861766520656e6f75676820676f7660008301527f20746f6b656e73000000000000000000000000000000000000000000000000006020830152604082019050919050565b6000614445600c83614f44565b91507f6e6f742061206d656d62657200000000000000000000000000000000000000006000830152602082019050919050565b6000614485603183614f44565b91507f6d6f72652066756e6473206172652072657175657374207468616e207468652060008301527f44414f2063757272656e746c79206861730000000000000000000000000000006020830152604082019050919050565b60006144eb601383614f44565b91507f6e66742061646472657373206973207a65726f000000000000000000000000006000830152602082019050919050565b600061452b602283614f44565b91507f6e6f206d656d62657220636f6e747269627574696f6e20746f2077697468647260008301527f61770000000000000000000000000000000000000000000000000000000000006020830152604082019050919050565b6000614591601383614f44565b91507f6e6f7420612068656164206f6620686f757365000000000000000000000000006000830152602082019050919050565b60006145d1602883614f44565b91507f6a6f696e2064616f20646f6573206e6f74206861766520656e6f75676820676f60008301527f7620746f6b656e730000000000000000000000000000000000000000000000006020830152604082019050919050565b6000614637601d83614f44565b91507f70726f706f73616c20697320706173742074686520646561646c696e650000006000830152602082019050919050565b6000614677602583614f44565b91507f70726f706f73616c20646f6573206e6f74206d65657420766f7465207468726560008301527f73686f6c640000000000000000000000000000000000000000000000000000006020830152604082019050919050565b60006146dd601383614f44565b91507f6e6f7468696e6720746f207769746864726177000000000000000000000000006000830152602082019050919050565b600061471d601c83614f44565b91507f677261636520706572696f6420686173206e6f7420656c6170736564000000006000830152602082019050919050565b600061475d601083614f44565b91507f616c72656164792061206d656d626572000000000000000000000000000000006000830152602082019050919050565b600061479d601e83614f44565b91507f70726f706f73616c206973206e6f7420612066756e64696e67207479706500006000830152602082019050919050565b60006147dd602f83614f44565b91507f7375626d69742070726f706f73616c20646f6573206e6f74206861766520656e60008301527f6f75676820676f7620746f6b656e7300000000000000000000000000000000006020830152604082019050919050565b6000614843601583614f44565b91507f70726f706f73616c207761732063616e63656c656400000000000000000000006000830152602082019050919050565b6000614883601583614f44565b91507f6e6f20766f746573206f757477656967682079657300000000000000000000006000830152602082019050919050565b60006148c3601983614f44565b91507f70726f706f73616c20616c7265616479206578656375746564000000000000006000830152602082019050919050565b60408201600082015161490c6000850182613ed7565b50602082015161491f6020850182613ed7565b50505050565b61492e816150a8565b82525050565b61493d816150b2565b82525050565b60006020820190506149586000830184613ec8565b92915050565b60006060820190506149736000830186613ec8565b6149806020830185613ec8565b61498d6040830184614925565b949350505050565b60006040820190506149aa6000830185613ec8565b6149b76020830184614925565b9392505050565b60006020820190506149d36000830184613ee6565b92915050565b600060208201905081810360008301526149f38184613ef5565b905092915050565b60006020820190508181036000830152614a1481613f2e565b9050919050565b60006020820190508181036000830152614a3481613f6e565b9050919050565b60006020820190508181036000830152614a5481613fd4565b9050919050565b60006020820190508181036000830152614a748161403a565b9050919050565b60006020820190508181036000830152614a948161407a565b9050919050565b60006020820190508181036000830152614ab4816140ba565b9050919050565b60006020820190508181036000830152614ad4816140fa565b9050919050565b60006020820190508181036000830152614af48161413a565b9050919050565b60006020820190508181036000830152614b148161417a565b9050919050565b60006020820190508181036000830152614b34816141e0565b9050919050565b60006020820190508181036000830152614b5481614246565b9050919050565b60006020820190508181036000830152614b7481614286565b9050919050565b60006020820190508181036000830152614b94816142ec565b9050919050565b60006020820190508181036000830152614bb481614352565b9050919050565b60006020820190508181036000830152614bd481614392565b9050919050565b60006020820190508181036000830152614bf4816143d2565b9050919050565b60006020820190508181036000830152614c1481614438565b9050919050565b60006020820190508181036000830152614c3481614478565b9050919050565b60006020820190508181036000830152614c54816144de565b9050919050565b60006020820190508181036000830152614c748161451e565b9050919050565b60006020820190508181036000830152614c9481614584565b9050919050565b60006020820190508181036000830152614cb4816145c4565b9050919050565b60006020820190508181036000830152614cd48161462a565b9050919050565b60006020820190508181036000830152614cf48161466a565b9050919050565b60006020820190508181036000830152614d14816146d0565b9050919050565b60006020820190508181036000830152614d3481614710565b9050919050565b60006020820190508181036000830152614d5481614750565b9050919050565b60006020820190508181036000830152614d7481614790565b9050919050565b60006020820190508181036000830152614d94816147d0565b9050919050565b60006020820190508181036000830152614db481614836565b9050919050565b60006020820190508181036000830152614dd481614876565b9050919050565b60006020820190508181036000830152614df4816148b6565b9050919050565b6000602082019050614e106000830184614925565b92915050565b6000608082019050614e2b6000830186614925565b614e3860208301856148f6565b614e456060830184613ee6565b949350505050565b60006101a082019050614e63600083018f614925565b614e70602083018e614934565b614e7d604083018d613ec8565b614e8a606083018c6148f6565b614e9760a083018b614925565b614ea460c083018a614925565b614eb160e0830189613ee6565b614ebf610100830188613ee6565b614ecd610120830187614925565b614edb610140830186613ec8565b614ee9610160830185613ee6565b614ef7610180830184614925565b9d9c50505050505050505050505050565b6000604051905081810181811067ffffffffffffffff82111715614f2f57614f2e6151fa565b5b8060405250919050565b600081519050919050565b600082825260208201905092915050565b6000614f60826150a8565b9150614f6b836150a8565b9250827fffffffffffffffffffffffffffffffffffffffffffffffffffffffffffffffff03821115614fa057614f9f61516d565b5b828201905092915050565b6000614fb6826150a8565b9150614fc1836150a8565b925082614fd157614fd061519c565b5b828204905092915050565b6000614fe7826150a8565b9150614ff2836150a8565b9250817fffffffffffffffffffffffffffffffffffffffffffffffffffffffffffffffff048311821515161561502b5761502a61516d565b5b828202905092915050565b6000615041826150a8565b915061504c836150a8565b92508282101561505f5761505e61516d565b5b828203905092915050565b600061507582615088565b9050919050565b60008115159050919050565b600073ffffffffffffffffffffffffffffffffffffffff82169050919050565b6000819050919050565b600060ff82169050919050565b60005b838110156150dd5780820151818401526020810190506150c2565b838111156150ec576000848401525b50505050565b6000600282049050600182168061510a57607f821691505b6020821081141561511e5761511d6151cb565b5b50919050565b600061512f826150a8565b91507fffffffffffffffffffffffffffffffffffffffffffffffffffffffffffffffff8214156151625761516161516d565b5b600182019050919050565b7f4e487b7100000000000000000000000000000000000000000000000000000000600052601160045260246000fd5b7f4e487b7100000000000000000000000000000000000000000000000000000000600052601260045260246000fd5b7f4e487b7100000000000000000000000000000000000000000000000000000000600052602260045260246000fd5b7f4e487b7100000000000000000000000000000000000000000000000000000000600052604160045260246000fd5b6000601f19601f8301169050919050565b6152438161506a565b811461524e57600080fd5b50565b61525a8161507c565b811461526557600080fd5b50565b615271816150a8565b811461527c57600080fd5b50565b615288816150b2565b811461529357600080fd5b5056fea264697066735822122079740ed37a0cc22b2c96eab228a1d64f0f63e1b912e14c47831a77d06cf1cadc64736f6c63430008000033",
  "linkReferences": {},
  "deployedLinkReferences": {}
}