{
  "_format": "hh-sol-artifact-1",
  "contractName": "OZLinearVoting",
  "sourceName": "contracts/votingStrategies/OZLinearVoting.sol",
  "abi": [
    {
      "inputs": [
        {
          "internalType": "uint256",
          "name": "_votingPeriod",
          "type": "uint256"
        },
        {
          "internalType": "contract ERC20Votes",
          "name": "_governanceToken",
          "type": "address"
        },
        {
          "internalType": "address",
          "name": "_seeleModule",
          "type": "address"
        },
        {
          "internalType": "uint256",
          "name": "_quorumThreshold",
          "type": "uint256"
        },
        {
          "internalType": "uint256",
          "name": "_timeLockPeriod",
          "type": "uint256"
        },
        {
          "internalType": "address",
          "name": "_owner",
          "type": "address"
        },
        {
          "internalType": "string",
          "name": "name_",
          "type": "string"
        }
      ],
      "stateMutability": "nonpayable",
      "type": "constructor"
    },
    {
      "anonymous": false,
      "inputs": [
        {
          "indexed": true,
          "internalType": "address",
          "name": "previousOwner",
          "type": "address"
        },
        {
          "indexed": true,
          "internalType": "address",
          "name": "newOwner",
          "type": "address"
        }
      ],
      "name": "OwnershipTransferred",
      "type": "event"
    },
    {
      "anonymous": false,
      "inputs": [
        {
          "indexed": false,
          "internalType": "uint256",
          "name": "proposalId",
          "type": "uint256"
        },
        {
          "indexed": false,
          "internalType": "uint256",
          "name": "timestamp",
          "type": "uint256"
        }
      ],
      "name": "ProposalReceived",
      "type": "event"
    },
    {
      "anonymous": false,
      "inputs": [
        {
          "indexed": true,
          "internalType": "address",
          "name": "previousSeele",
          "type": "address"
        },
        {
          "indexed": true,
          "internalType": "address",
          "name": "newSeele",
          "type": "address"
        }
      ],
      "name": "SeeleSet",
      "type": "event"
    },
    {
      "anonymous": false,
      "inputs": [
        {
          "indexed": true,
          "internalType": "address",
          "name": "seeleModule",
          "type": "address"
        },
        {
          "indexed": true,
          "internalType": "address",
          "name": "owner",
          "type": "address"
        }
      ],
      "name": "StrategySetup",
      "type": "event"
    },
    {
      "anonymous": false,
      "inputs": [
        {
          "indexed": false,
          "internalType": "uint256",
          "name": "previousThreshold",
          "type": "uint256"
        },
        {
          "indexed": false,
          "internalType": "uint256",
          "name": "newThreshold",
          "type": "uint256"
        }
      ],
      "name": "ThresholdUpdated",
      "type": "event"
    },
    {
      "anonymous": false,
      "inputs": [
        {
          "indexed": false,
          "internalType": "uint256",
          "name": "previousTimeLock",
          "type": "uint256"
        },
        {
          "indexed": false,
          "internalType": "uint256",
          "name": "newTimeLockPeriod",
          "type": "uint256"
        }
      ],
      "name": "TimeLockUpdated",
      "type": "event"
    },
    {
      "anonymous": false,
      "inputs": [
        {
          "indexed": false,
          "internalType": "uint256",
          "name": "proposalId",
          "type": "uint256"
        },
        {
          "indexed": false,
          "internalType": "uint256",
          "name": "timestamp",
          "type": "uint256"
        }
      ],
      "name": "VoteFinalized",
      "type": "event"
    },
    {
      "anonymous": false,
      "inputs": [
        {
          "indexed": false,
          "internalType": "address",
          "name": "voter",
          "type": "address"
        },
        {
          "indexed": false,
          "internalType": "uint256",
          "name": "proposalId",
          "type": "uint256"
        },
        {
          "indexed": false,
          "internalType": "uint8",
          "name": "support",
          "type": "uint8"
        }
      ],
      "name": "Voted",
      "type": "event"
    },
    {
      "anonymous": false,
      "inputs": [
        {
          "indexed": false,
          "internalType": "uint256",
          "name": "previousVotingPeriod",
          "type": "uint256"
        },
        {
          "indexed": false,
          "internalType": "uint256",
          "name": "newVotingPeriod",
          "type": "uint256"
        }
      ],
      "name": "VotingPeriodUpdated",
      "type": "event"
    },
    {
      "inputs": [],
      "name": "VOTE_TYPEHASH",
      "outputs": [
        {
          "internalType": "bytes32",
          "name": "",
          "type": "bytes32"
        }
      ],
      "stateMutability": "view",
      "type": "function"
    },
    {
      "inputs": [
        {
          "internalType": "address",
          "name": "delegatee",
          "type": "address"
        },
        {
          "internalType": "uint256",
          "name": "proposalId",
          "type": "uint256"
        }
      ],
      "name": "calculateWeight",
      "outputs": [
        {
          "internalType": "uint256",
          "name": "",
          "type": "uint256"
        }
      ],
      "stateMutability": "view",
      "type": "function"
    },
    {
      "inputs": [
        {
          "internalType": "uint256",
          "name": "proposalId",
          "type": "uint256"
        }
      ],
      "name": "finalizeVote",
      "outputs": [],
      "stateMutability": "nonpayable",
      "type": "function"
    },
    {
      "inputs": [],
      "name": "getChainId",
      "outputs": [
        {
          "internalType": "uint256",
          "name": "",
          "type": "uint256"
        }
      ],
      "stateMutability": "view",
      "type": "function"
    },
    {
      "inputs": [],
      "name": "governanceToken",
      "outputs": [
        {
          "internalType": "contract ERC20Votes",
          "name": "",
          "type": "address"
        }
      ],
      "stateMutability": "view",
      "type": "function"
    },
    {
      "inputs": [
        {
          "internalType": "uint256",
          "name": "proposalId",
          "type": "uint256"
        },
        {
          "internalType": "address",
          "name": "account",
          "type": "address"
        }
      ],
      "name": "hasVoted",
      "outputs": [
        {
          "internalType": "bool",
          "name": "",
          "type": "bool"
        }
      ],
      "stateMutability": "view",
      "type": "function"
    },
    {
      "inputs": [
        {
          "internalType": "uint256",
          "name": "proposalId",
          "type": "uint256"
        }
      ],
      "name": "isPassed",
      "outputs": [
        {
          "internalType": "bool",
          "name": "",
          "type": "bool"
        }
      ],
      "stateMutability": "view",
      "type": "function"
    },
    {
      "inputs": [],
      "name": "name",
      "outputs": [
        {
          "internalType": "string",
          "name": "",
          "type": "string"
        }
      ],
      "stateMutability": "view",
      "type": "function"
    },
    {
      "inputs": [],
      "name": "owner",
      "outputs": [
        {
          "internalType": "address",
          "name": "",
          "type": "address"
        }
      ],
      "stateMutability": "view",
      "type": "function"
    },
    {
      "inputs": [
        {
          "internalType": "uint256",
          "name": "",
          "type": "uint256"
        }
      ],
      "name": "proposals",
      "outputs": [
        {
          "internalType": "uint256",
          "name": "yesVotes",
          "type": "uint256"
        },
        {
          "internalType": "uint256",
          "name": "noVotes",
          "type": "uint256"
        },
        {
          "internalType": "uint256",
          "name": "abstainVotes",
          "type": "uint256"
        },
        {
          "internalType": "uint256",
          "name": "deadline",
          "type": "uint256"
        },
        {
          "internalType": "uint256",
          "name": "startBlock",
          "type": "uint256"
        }
      ],
      "stateMutability": "view",
      "type": "function"
    },
    {
      "inputs": [],
      "name": "quorumThreshold",
      "outputs": [
        {
          "internalType": "uint256",
          "name": "",
          "type": "uint256"
        }
      ],
      "stateMutability": "view",
      "type": "function"
    },
    {
      "inputs": [
        {
          "internalType": "bytes",
          "name": "data",
          "type": "bytes"
        }
      ],
      "name": "receiveProposal",
      "outputs": [],
      "stateMutability": "nonpayable",
      "type": "function"
    },
    {
      "inputs": [],
      "name": "renounceOwnership",
      "outputs": [],
      "stateMutability": "nonpayable",
      "type": "function"
    },
    {
      "inputs": [],
      "name": "seeleModule",
      "outputs": [
        {
          "internalType": "address",
          "name": "",
          "type": "address"
        }
      ],
      "stateMutability": "view",
      "type": "function"
    },
    {
      "inputs": [
        {
          "internalType": "address",
          "name": "_seele",
          "type": "address"
        }
      ],
      "name": "setSeele",
      "outputs": [],
      "stateMutability": "nonpayable",
      "type": "function"
    },
    {
      "inputs": [],
      "name": "timeLockPeriod",
      "outputs": [
        {
          "internalType": "uint256",
          "name": "",
          "type": "uint256"
        }
      ],
      "stateMutability": "view",
      "type": "function"
    },
    {
      "inputs": [
        {
          "internalType": "address",
          "name": "newOwner",
          "type": "address"
        }
      ],
      "name": "transferOwnership",
      "outputs": [],
      "stateMutability": "nonpayable",
      "type": "function"
    },
    {
      "inputs": [
        {
          "internalType": "uint256",
          "name": "_quorumThreshold",
          "type": "uint256"
        }
      ],
      "name": "updateThreshold",
      "outputs": [],
      "stateMutability": "nonpayable",
      "type": "function"
    },
    {
      "inputs": [
        {
          "internalType": "uint256",
          "name": "newTimeLockPeriod",
          "type": "uint256"
        }
      ],
      "name": "updateTimeLockPeriod",
      "outputs": [],
      "stateMutability": "nonpayable",
      "type": "function"
    },
    {
      "inputs": [
        {
          "internalType": "uint256",
          "name": "newPeriod",
          "type": "uint256"
        }
      ],
      "name": "updateVotingPeriod",
      "outputs": [],
      "stateMutability": "nonpayable",
      "type": "function"
    },
    {
      "inputs": [],
      "name": "version",
      "outputs": [
        {
          "internalType": "string",
          "name": "",
          "type": "string"
        }
      ],
      "stateMutability": "view",
      "type": "function"
    },
    {
      "inputs": [
        {
          "internalType": "uint256",
          "name": "proposalId",
          "type": "uint256"
        },
        {
          "internalType": "uint8",
          "name": "support",
          "type": "uint8"
        }
      ],
      "name": "vote",
      "outputs": [],
      "stateMutability": "nonpayable",
      "type": "function"
    },
    {
      "inputs": [
        {
          "internalType": "uint256",
          "name": "proposalId",
          "type": "uint256"
        },
        {
          "internalType": "uint8",
          "name": "support",
          "type": "uint8"
        },
        {
          "internalType": "bytes",
          "name": "signature",
          "type": "bytes"
        }
      ],
      "name": "voteSignature",
      "outputs": [],
      "stateMutability": "nonpayable",
      "type": "function"
    },
    {
      "inputs": [],
      "name": "votingPeriod",
      "outputs": [
        {
          "internalType": "uint256",
          "name": "",
          "type": "uint256"
        }
      ],
      "stateMutability": "view",
      "type": "function"
    }
  ],
  "bytecode": "0x6101406040523480156200001257600080fd5b5060405162001c1b38038062001c1b83398101604081905262000035916200041e565b818588868685806200005b6040805180820190915260018152603160f81b602082015290565b6200006633620002fd565b815160209283012081519183019190912060c082815260e08290524660a0818152604080517f8b73c3c69bb8fe3d512ecc4cf759cc79239f7b179b0ffacaa9a75d522b39400f8189018190528183019790975260608101959095526080808601939093523085830152805180860390920182529390920190925280519301929092209091526101005260018411620001515760405162461bcd60e51b815260206004820152602360248201527f766f74696e67506572696f64206d7573742062652067726561746572207468616044820152626e203160e81b60648201526084015b60405180910390fd5b6001600160a01b038516620001a95760405162461bcd60e51b815260206004820152601460248201527f696e76616c6964207365656c65206d6f64756c65000000000000000000000000604482015260640162000148565b60008311620001fb5760405162461bcd60e51b815260206004820152601a60248201527f7468726573686f6c64206d757374206e65206e6f6e2d7a65726f000000000000604482015260640162000148565b62000206866200034d565b620002138460016200055b565b600255600180546001600160a01b0319166001600160a01b0387161781556003849055620002439083906200055b565b6004556040516001600160a01b0380881691908716907f61586574b8b0edca97136ad4cb664eec4742d53de53403d531506632e6342a3990600090a350505050506001600160a01b03871615159050620002e05760405162461bcd60e51b815260206004820181905260248201527f696e76616c696420676f7665726e616e636520746f6b656e2061646472657373604482015260640162000148565b505050505060601b6001600160601b0319166101205250620005b5565b600080546001600160a01b038381166001600160a01b0319831681178455604051919092169283917f8be0079c531659141344cd1fd0a4f28419497f9722a3daafe3b4186f6b6457e09190a35050565b6000546001600160a01b03163314620003a95760405162461bcd60e51b815260206004820181905260248201527f4f776e61626c653a2063616c6c6572206973206e6f7420746865206f776e6572604482015260640162000148565b6001600160a01b038116620004105760405162461bcd60e51b815260206004820152602660248201527f4f776e61626c653a206e6577206f776e657220697320746865207a65726f206160448201526564647265737360d01b606482015260840162000148565b6200041b81620002fd565b50565b600080600080600080600060e0888a0312156200043a57600080fd5b875196506020808901516200044f816200059f565b60408a015190975062000462816200059f565b80965050606089015194506080890151935060a089015162000484816200059f565b60c08a01519093506001600160401b0380821115620004a257600080fd5b818b0191508b601f830112620004b757600080fd5b815181811115620004cc57620004cc62000589565b604051601f8201601f19908116603f01168101908382118183101715620004f757620004f762000589565b816040528281528e868487010111156200051057600080fd5b600093505b8284101562000534578484018601518185018701529285019262000515565b82841115620005465760008684830101525b80965050505050505092959891949750929550565b60008160001904831182151516156200058457634e487b7160e01b600052601160045260246000fd5b500290565b634e487b7160e01b600052604160045260246000fd5b6001600160a01b03811681146200041b57600080fd5b60805160a05160c05160e051610100516101205160601c61160c6200060f600039600081816103b4015261093b01526000610ec701526000610f1601526000610ef101526000610e7501526000610e9e015261160c6000f3fe608060405234801561001057600080fd5b50600436106101585760003560e01c80637a3ff4d2116100c3578063c42612061161007c578063c426120614610350578063d69be91c14610363578063d7d7442f14610376578063ef00ef4314610389578063f2fde38b1461039c578063f96dae0a146103af57600080fd5b80637a3ff4d2146102c25780637b7a91dd146102d557806386522973146102de5780638da5cb5b14610305578063943e82161461032a578063c1fa3b2e1461033d57600080fd5b80633408e470116101155780633408e4701461022e5780634385963214610234578063494031831461028157806354fd4d5014610294578063715018a6146102b157806378446bc1146102b957600080fd5b8063013cf08b1461015d57806302a251a3146101c757806306fdde03146101de578063224f3263146101f357806325d975521461020857806328c3443c1461021b575b600080fd5b61019a61016b3660046113e7565b600660205260009081526040902080546001820154600283015460038401546004909401549293919290919085565b604080519586526020860194909452928401919091526060830152608082015260a0015b60405180910390f35b6101d060025481565b6040519081526020016101be565b6101e66103d6565b6040516101be91906114bf565b6102066102013660046113aa565b610468565b005b610206610216366004611365565b610554565b610206610229366004611468565b6105d0565b466101d0565b610271610242366004611419565b60008281526006602090815260408083206001600160a01b038516845260050190915290205460ff1692915050565b60405190151581526020016101be565b61027161028f3660046113e7565b61064b565b6040805180820190915260018152603160f81b60208201526101e6565b6102066107b3565b6101d060045481565b6102066102d03660046113e7565b6107e9565b6101d060035481565b6101d07fb780761e36898d7ec1cc0fb66fdd6a8a42e635ee643709d6b20652c68a3b29f581565b6000546001600160a01b03165b6040516001600160a01b0390911681526020016101be565b610206610338366004611445565b610851565b61020661034b3660046113e7565b610860565b600154610312906001600160a01b031681565b6101d0610371366004611380565b610910565b6102066103843660046113e7565b6109da565b6102066103973660046113e7565b610a42565b6102066103aa366004611365565b610aaa565b6103127f000000000000000000000000000000000000000000000000000000000000000081565b6060600580546103e59061156f565b80601f01602080910402602001604051908101604052809291908181526020018280546104119061156f565b801561045e5780601f106104335761010080835404028352916020019161045e565b820191906000526020600020905b81548152906001019060200180831161044157829003601f168201915b5050505050905090565b6001546001600160a01b031633146104c75760405162461bcd60e51b815260206004820152601b60248201527f6f6e6c79207365656c65206d6f64756c65206d617920656e746572000000000060448201526064015b60405180910390fd5b6000818060200190518101906104dd9190611400565b9050426002546104ed9190611549565b60008281526006602052604090819020600381019290925543600490920191909155517f3aeda78f6230a590817748b94b63d690cec4d1a15d494dfc7006e0a39e77f81a906105489083904290918252602082015260400190565b60405180910390a15050565b6000546001600160a01b0316331461057e5760405162461bcd60e51b81526004016104be90611514565b600180546001600160a01b038381166001600160a01b0319831681179093556040519116919082907f88c841937ebf544fbe1153b24515eacade9472029425e753368b204edbca8e8a90600090a35050565b604080517fb780761e36898d7ec1cc0fb66fdd6a8a42e635ee643709d6b20652c68a3b29f5602082015290810184905260ff83166060820152600090610638906106329060800160405160208183030381529060405280519060200120610b45565b83610b99565b9050610645848285610bbd565b50505050565b600081815260066020526040812060018101549054116106c45760405162461bcd60e51b815260206004820152602e60248201527f74686520796573566f746573206d757374206265207374726963746c79206f7660448201526d657220746865206e6f566f74657360901b60648201526084016104be565b6003546000838152600660205260409020600281015490546106e69190611549565b101561074b5760405162461bcd60e51b815260206004820152602e60248201527f612071756f72756d20686173206e6f74206265656e207265616368656420666f60448201526d1c881d1a19481c1c9bdc1bdcd85b60921b60648201526084016104be565b60008281526006602052604090206003015442116107ab5760405162461bcd60e51b815260206004820181905260248201527f766f74696e6720706572696f6420686173206e6f74207061737365642079657460448201526064016104be565b506001919050565b6000546001600160a01b031633146107dd5760405162461bcd60e51b81526004016104be90611514565b6107e76000610e21565b565b6000546001600160a01b031633146108135760405162461bcd60e51b81526004016104be90611514565b600480549082905560408051828152602081018490527f2a72574d775756e698a258fc07c826b7185131fff8a96b868feacab45fb234329101610548565b61085c823383610bbd565b5050565b6108698161064b565b156108d557600154600480546040516309fac26960e31b815291820184905260248201526001600160a01b0390911690634fd6134890604401600060405180830381600087803b1580156108bc57600080fd5b505af11580156108d0573d6000803e3d6000fd5b505050505b604080518281524260208201527f54ffcee03e8b80c05e4d1c55e3dc60602d9082a899e50337b680c9c4c4d80a3a910160405180910390a150565b6000818152600660205260408082206004908101549151630748d63560e31b81526001600160a01b037f00000000000000000000000000000000000000000000000000000000000000001692633a46b1a89261098392889291016001600160a01b03929092168252602082015260400190565b60206040518083038186803b15801561099b57600080fd5b505afa1580156109af573d6000803e3d6000fd5b505050506040513d601f19601f820116820180604052508101906109d39190611400565b9392505050565b6000546001600160a01b03163314610a045760405162461bcd60e51b81526004016104be90611514565b600380549082905560408051828152602081018490527fb06a54caabe58475c86c2bf9df3f2f06dd1213e9e10659c293117fe4893b274b9101610548565b6000546001600160a01b03163314610a6c5760405162461bcd60e51b81526004016104be90611514565b600280549082905560408051828152602081018490527fffc708f072ca56e3d45ef0cb288b96cb9378f5f63e1646868bfbc9c38f4263a19101610548565b6000546001600160a01b03163314610ad45760405162461bcd60e51b81526004016104be90611514565b6001600160a01b038116610b395760405162461bcd60e51b815260206004820152602660248201527f4f776e61626c653a206e6577206f776e657220697320746865207a65726f206160448201526564647265737360d01b60648201526084016104be565b610b4281610e21565b50565b6000610b93610b52610e71565b8360405161190160f01b6020820152602281018390526042810182905260009060620160405160208183030381529060405280519060200120905092915050565b92915050565b6000806000610ba88585610f64565b91509150610bb581610fd4565b509392505050565b600083815260066020526040902060030154421115610c1e5760405162461bcd60e51b815260206004820152601860248201527f766f74696e6720706572696f642068617320706173736564000000000000000060448201526064016104be565b60008381526006602090815260408083206001600160a01b038616845260050190915290205460ff1615610c945760405162461bcd60e51b815260206004820152601760248201527f766f7465722068617320616c726561647920766f74656400000000000000000060448201526064016104be565b6000610ca08385610910565b60008581526006602090815260408083206001600160a01b03881684526005019091529020805460ff19166001179055905060ff8216610d0e57600084815260066020526040902060010154610cf7908290611549565b600085815260066020526040902060010155610dd0565b60ff821660011415610d4857600084815260066020526040902054610d34908290611549565b600085815260066020526040902055610dd0565b60ff821660021415610d8857600084815260066020526040902060020154610d71908290611549565b600085815260066020526040902060020155610dd0565b60405162461bcd60e51b815260206004820152601f60248201527f696e76616c69642076616c756520666f7220656e756d20566f7465547970650060448201526064016104be565b604080516001600160a01b03851681526020810186905260ff84168183015290517fcc66c27f993ef125e1b985d84a52726edc66dcc64e94d172f80253e37d5263729181900360600190a150505050565b600080546001600160a01b038381166001600160a01b0319831681178455604051919092169283917f8be0079c531659141344cd1fd0a4f28419497f9722a3daafe3b4186f6b6457e09190a35050565b60007f0000000000000000000000000000000000000000000000000000000000000000461415610ec057507f000000000000000000000000000000000000000000000000000000000000000090565b50604080517f00000000000000000000000000000000000000000000000000000000000000006020808301919091527f0000000000000000000000000000000000000000000000000000000000000000828401527f000000000000000000000000000000000000000000000000000000000000000060608301524660808301523060a0808401919091528351808403909101815260c0909201909252805191012090565b600080825160411415610f9b5760208301516040840151606085015160001a610f8f8782858561118f565b94509450505050610fcd565b825160401415610fc55760208301516040840151610fba86838361127c565b935093505050610fcd565b506000905060025b9250929050565b6000816004811115610fe857610fe86115aa565b1415610ff15750565b6001816004811115611005576110056115aa565b14156110535760405162461bcd60e51b815260206004820152601860248201527f45434453413a20696e76616c6964207369676e6174757265000000000000000060448201526064016104be565b6002816004811115611067576110676115aa565b14156110b55760405162461bcd60e51b815260206004820152601f60248201527f45434453413a20696e76616c6964207369676e6174757265206c656e6774680060448201526064016104be565b60038160048111156110c9576110c96115aa565b14156111225760405162461bcd60e51b815260206004820152602260248201527f45434453413a20696e76616c6964207369676e6174757265202773272076616c604482015261756560f01b60648201526084016104be565b6004816004811115611136576111366115aa565b1415610b425760405162461bcd60e51b815260206004820152602260248201527f45434453413a20696e76616c6964207369676e6174757265202776272076616c604482015261756560f01b60648201526084016104be565b6000807f7fffffffffffffffffffffffffffffff5d576e7357a4501ddfe92f46681b20a08311156111c65750600090506003611273565b8460ff16601b141580156111de57508460ff16601c14155b156111ef5750600090506004611273565b6040805160008082526020820180845289905260ff881692820192909252606081018690526080810185905260019060a0016020604051602081039080840390855afa158015611243573d6000803e3d6000fd5b5050604051601f1901519150506001600160a01b03811661126c57600060019250925050611273565b9150600090505b94509492505050565b6000806001600160ff1b03831660ff84901c601b0161129d8782888561118f565b935093505050935093915050565b80356001600160a01b03811681146112c257600080fd5b919050565b600082601f8301126112d857600080fd5b813567ffffffffffffffff808211156112f3576112f36115c0565b604051601f8301601f19908116603f0116810190828211818310171561131b5761131b6115c0565b8160405283815286602085880101111561133457600080fd5b836020870160208301376000602085830101528094505050505092915050565b803560ff811681146112c257600080fd5b60006020828403121561137757600080fd5b6109d3826112ab565b6000806040838503121561139357600080fd5b61139c836112ab565b946020939093013593505050565b6000602082840312156113bc57600080fd5b813567ffffffffffffffff8111156113d357600080fd5b6113df848285016112c7565b949350505050565b6000602082840312156113f957600080fd5b5035919050565b60006020828403121561141257600080fd5b5051919050565b6000806040838503121561142c57600080fd5b8235915061143c602084016112ab565b90509250929050565b6000806040838503121561145857600080fd5b8235915061143c60208401611354565b60008060006060848603121561147d57600080fd5b8335925061148d60208501611354565b9150604084013567ffffffffffffffff8111156114a957600080fd5b6114b5868287016112c7565b9150509250925092565b600060208083528351808285015260005b818110156114ec578581018301518582016040015282016114d0565b818111156114fe576000604083870101525b50601f01601f1916929092016040019392505050565b6020808252818101527f4f776e61626c653a2063616c6c6572206973206e6f7420746865206f776e6572604082015260600190565b6000821982111561156a57634e487b7160e01b600052601160045260246000fd5b500190565b600181811c9082168061158357607f821691505b602082108114156115a457634e487b7160e01b600052602260045260246000fd5b50919050565b634e487b7160e01b600052602160045260246000fd5b634e487b7160e01b600052604160045260246000fdfea26469706673582212204c9eaab2711e980a8a38df6d087bc677be84a6c410f322b8cd3488a97db8eecd64736f6c63430008060033",
  "linkReferences": {},
  "deployedLinkReferences": {}
}