{
  "_format": "hh-sol-artifact-1",
  "contractName": "LinearVoting",
  "sourceName": "contracts/VotingModules/LinearVoting.sol",
  "abi": [
    {
      "inputs": [
        {
          "internalType": "address",
          "name": "governanceToken_",
          "type": "address"
        },
        {
          "internalType": "address",
          "name": "proposalModule_",
          "type": "address"
        },
        {
          "internalType": "uint256",
          "name": "undelgateDelay_",
          "type": "uint256"
        },
        {
          "internalType": "address",
          "name": "executor_",
          "type": "address"
        }
      ],
      "stateMutability": "nonpayable",
      "type": "constructor"
    },
    {
      "anonymous": false,
      "inputs": [
        {
          "indexed": false,
          "internalType": "uint256",
          "name": "number",
          "type": "uint256"
        }
      ],
      "name": "VotesDelegated",
      "type": "event"
    },
    {
      "anonymous": false,
      "inputs": [
        {
          "indexed": false,
          "internalType": "uint256",
          "name": "number",
          "type": "uint256"
        }
      ],
      "name": "VotesUndelegated",
      "type": "event"
    },
    {
      "inputs": [],
      "name": "DOMAIN_SEPARATOR_TYPEHASH",
      "outputs": [
        {
          "internalType": "bytes32",
          "name": "",
          "type": "bytes32"
        }
      ],
      "stateMutability": "view",
      "type": "function"
    },
    {
      "inputs": [],
      "name": "VOTE_TYPEHASH",
      "outputs": [
        {
          "internalType": "bytes32",
          "name": "",
          "type": "bytes32"
        }
      ],
      "stateMutability": "view",
      "type": "function"
    },
    {
      "inputs": [
        {
          "internalType": "address",
          "name": "delegatee",
          "type": "address"
        }
      ],
      "name": "calculateWeight",
      "outputs": [
        {
          "internalType": "uint256",
          "name": "",
          "type": "uint256"
        }
      ],
      "stateMutability": "view",
      "type": "function"
    },
    {
      "inputs": [
        {
          "internalType": "address",
          "name": "delegatee",
          "type": "address"
        }
      ],
      "name": "checkBlock",
      "outputs": [
        {
          "internalType": "bool",
          "name": "",
          "type": "bool"
        }
      ],
      "stateMutability": "view",
      "type": "function"
    },
    {
      "inputs": [
        {
          "internalType": "address",
          "name": "delegatee",
          "type": "address"
        },
        {
          "internalType": "uint256",
          "name": "amount",
          "type": "uint256"
        }
      ],
      "name": "delegateVotes",
      "outputs": [],
      "stateMutability": "nonpayable",
      "type": "function"
    },
    {
      "inputs": [
        {
          "internalType": "address",
          "name": "",
          "type": "address"
        }
      ],
      "name": "delegations",
      "outputs": [
        {
          "internalType": "uint256",
          "name": "undelegateDelay",
          "type": "uint256"
        },
        {
          "internalType": "uint256",
          "name": "lastBlock",
          "type": "uint256"
        },
        {
          "internalType": "uint256",
          "name": "total",
          "type": "uint256"
        }
      ],
      "stateMutability": "view",
      "type": "function"
    },
    {
      "inputs": [],
      "name": "executor",
      "outputs": [
        {
          "internalType": "address",
          "name": "",
          "type": "address"
        }
      ],
      "stateMutability": "view",
      "type": "function"
    },
    {
      "inputs": [
        {
          "internalType": "address",
          "name": "delegatee",
          "type": "address"
        },
        {
          "internalType": "uint256",
          "name": "proposalId",
          "type": "uint256"
        },
        {
          "internalType": "bool",
          "name": "vote",
          "type": "bool"
        },
        {
          "internalType": "uint256",
          "name": "deadline",
          "type": "uint256"
        }
      ],
      "name": "generateVoteHashData",
      "outputs": [
        {
          "internalType": "bytes",
          "name": "",
          "type": "bytes"
        }
      ],
      "stateMutability": "view",
      "type": "function"
    },
    {
      "inputs": [],
      "name": "getChainId",
      "outputs": [
        {
          "internalType": "uint256",
          "name": "",
          "type": "uint256"
        }
      ],
      "stateMutability": "view",
      "type": "function"
    },
    {
      "inputs": [
        {
          "internalType": "address",
          "name": "delegatee",
          "type": "address"
        },
        {
          "internalType": "address",
          "name": "delegator",
          "type": "address"
        }
      ],
      "name": "getDelegatorVotes",
      "outputs": [
        {
          "internalType": "uint256",
          "name": "",
          "type": "uint256"
        }
      ],
      "stateMutability": "view",
      "type": "function"
    },
    {
      "inputs": [
        {
          "internalType": "address",
          "name": "delegatee",
          "type": "address"
        },
        {
          "internalType": "uint256",
          "name": "proposalId",
          "type": "uint256"
        },
        {
          "internalType": "bool",
          "name": "vote",
          "type": "bool"
        },
        {
          "internalType": "uint256",
          "name": "deadline",
          "type": "uint256"
        }
      ],
      "name": "getVoteHash",
      "outputs": [
        {
          "internalType": "bytes32",
          "name": "",
          "type": "bytes32"
        }
      ],
      "stateMutability": "view",
      "type": "function"
    },
    {
      "inputs": [],
      "name": "governanceToken",
      "outputs": [
        {
          "internalType": "address",
          "name": "",
          "type": "address"
        }
      ],
      "stateMutability": "view",
      "type": "function"
    },
    {
      "inputs": [
        {
          "internalType": "address",
          "name": "",
          "type": "address"
        }
      ],
      "name": "nonces",
      "outputs": [
        {
          "internalType": "uint256",
          "name": "",
          "type": "uint256"
        }
      ],
      "stateMutability": "view",
      "type": "function"
    },
    {
      "inputs": [
        {
          "internalType": "address",
          "name": "_executor",
          "type": "address"
        }
      ],
      "name": "setExecutor",
      "outputs": [],
      "stateMutability": "nonpayable",
      "type": "function"
    },
    {
      "inputs": [
        {
          "internalType": "address",
          "name": "delegatee",
          "type": "address"
        },
        {
          "internalType": "uint256",
          "name": "amount",
          "type": "uint256"
        }
      ],
      "name": "undelegateVotes",
      "outputs": [],
      "stateMutability": "nonpayable",
      "type": "function"
    },
    {
      "inputs": [
        {
          "internalType": "uint256",
          "name": "proposalId",
          "type": "uint256"
        },
        {
          "internalType": "bool",
          "name": "vote",
          "type": "bool"
        }
      ],
      "name": "vote",
      "outputs": [],
      "stateMutability": "nonpayable",
      "type": "function"
    },
    {
      "inputs": [
        {
          "internalType": "address",
          "name": "delegatee",
          "type": "address"
        },
        {
          "internalType": "uint256",
          "name": "proposalId",
          "type": "uint256"
        },
        {
          "internalType": "bool",
          "name": "vote",
          "type": "bool"
        },
        {
          "internalType": "uint256",
          "name": "deadline",
          "type": "uint256"
        },
        {
          "internalType": "uint8",
          "name": "v",
          "type": "uint8"
        },
        {
          "internalType": "bytes32",
          "name": "r",
          "type": "bytes32"
        },
        {
          "internalType": "bytes32",
          "name": "s",
          "type": "bytes32"
        }
      ],
      "name": "voteSignature",
      "outputs": [],
      "stateMutability": "nonpayable",
      "type": "function"
    }
  ],
  "bytecode": "0x608060405234801561001057600080fd5b5060405161115e38038061115e83398101604081905261002f91610093565b600080546001600160a01b039586166001600160a01b0319918216179091556001805494861694821694909417909355600291909155600380549190931691161790556100e0565b80516001600160a01b038116811461008e57600080fd5b919050565b600080600080608085870312156100a957600080fd5b6100b285610077565b93506100c060208601610077565b9250604085015191506100d560608601610077565b905092959194509250565b61106f806100ef6000396000f3fe608060405234801561001057600080fd5b506004361061010b5760003560e01c8063746ee6cb116100a2578063bffe348611610071578063bffe348614610264578063c34c08e5146102b1578063c9d27afe146102dc578063cf43fe5c146102ef578063f96dae0a1461032e57600080fd5b8063746ee6cb146101ea5780637ecebe001461020a57806380cdedcb1461022a578063865229731461023d57600080fd5b806337ced411116100de57806337ced41114610178578063476dbc181461018b578063609b2486146101c45780636470c27f146101d757600080fd5b80631c3c0ea8146101105780631db61b54146101255780632c1933931461015f5780633408e47014610172575b600080fd5b61012361011e366004610dc1565b61033f565b005b61014c7f47e79534a245952e8b16893a336b85a3d9ea9fa8c573f3d803afb92a7946921881565b6040519081526020015b60405180910390f35b61014c61016d366004610dc1565b6103a8565b4661014c565b610123610186366004610e7f565b610426565b61014c610199366004610ddc565b6001600160a01b03918216600090815260056020908152604080832093909416825291909152205490565b6101236101d2366004610e0f565b610662565b61014c6101e5366004610e39565b61070d565b6101fd6101f8366004610e39565b61072c565b6040516101569190610f89565b61014c610218366004610dc1565b60046020526000908152604090205481565b610123610238366004610e0f565b61085a565b61014c7f17c0c894efb0e2d2868a370783df75623a0365af090e935de3c5f6f761aaa15381565b610296610272366004610dc1565b60056020526000908152604090206001810154600282015460039092015490919083565b60408051938452602084019290925290820152606001610156565b6003546102c4906001600160a01b031681565b6040516001600160a01b039091168152602001610156565b6101236102ea366004610f11565b610989565b61031e6102fd366004610dc1565b6001600160a01b031660009081526005602052604090206002015443141590565b6040519015158152602001610156565b6000546001600160a01b03166102c4565b6003546001600160a01b031633146103865760405162461bcd60e51b8152602060048201526005602482015264545730303160d81b60448201526064015b60405180910390fd5b600380546001600160a01b0319166001600160a01b0392909216919091179055565b6001600160a01b03811660009081526005602081815260408084208083529084205492909152600301546104065760405162461bcd60e51b8152602060048201526005602482015264545730333560d81b604482015260640161037d565b50506001600160a01b031660009081526005602052604090206003015490565b834211156104695760405162461bcd60e51b815260206004820152601060248201526f111958591b1a5b9948115e1c1a5c995960821b604482015260640161037d565b60006104778888888861070d565b6040805160008082526020820180845284905260ff88169282019290925260608101869052608081018590529192509060019060a0016020604051602081039080840390855afa1580156104cf573d6000803e3d6000fd5b5050604051601f1901519150506001600160a01b038116158015906105055750886001600160a01b0316816001600160a01b0316145b6105515760405162461bcd60e51b815260206004820181905260248201527f7369676e657220646f65736e206e6f74206d617463682064656c656761746565604482015260640161037d565b6001600160a01b038116600090815260046020526040812080549161057583610ff7565b919050555061058381610a6a565b336000908152600560205260409020600201544314156105cd5760405162461bcd60e51b8152602060048201526005602482015264545730323160d81b604482015260640161037d565b6001546001600160a01b031663dcb84914828a8a6105ea836103a8565b6040516001600160e01b031960e087901b1681526001600160a01b0390941660048501526024840192909252151560448301526064820152608401600060405180830381600087803b15801561063f57600080fd5b505af1158015610653573d6000803e3d6000fd5b50505050505050505050505050565b60005461067a906001600160a01b0316333084610a96565b6001600160a01b03821660009081526005602090815260408083203384529091529020546106a89082610b07565b6001600160a01b038316600081815260056020818152604080842033855280835290842095909555929091529052436002820155600301546106ea9082610b07565b6001600160a01b0390921660009081526005602052604090206003019190915550565b600061071b8585858561072c565b805190602001209050949350505050565b604080517f47e79534a245952e8b16893a336b85a3d9ea9fa8c573f3d803afb92a79469218602080830191909152468284015230606083810191909152835180840390910181526080830184528051908201206001600160a01b03979097166000818152600583528481208352848120546004845290859020547f17c0c894efb0e2d2868a370783df75623a0365af090e935de3c5f6f761aaa15360a086015260c085019290925260e084019790975261010083019690965293151561012082015261014081019290925261016080830194909452805180830390940184526101808201815283519390920192909220601960f81b6101a0840152600160f81b6101a18401526101a28301939093526101c280830193909352805180830390930183526101e2909101905290565b6001600160a01b0382166000908152600560205260409020600101544210156108ad5760405162461bcd60e51b81526020600482015260056024820152641515cc0c8d60da1b604482015260640161037d565b6001600160a01b03821660009081526005602090815260408083203384529091529020548111156109085760405162461bcd60e51b8152602060048201526005602482015264054573032360dc1b604482015260640161037d565b60005461091f906001600160a01b03163383610b1a565b6001600160a01b038216600090815260056020908152604080832033845290915290205461094d9082610b4f565b6001600160a01b038316600081815260056020818152604080842033855280835290842095909555929091529052600301546106ea9082610b4f565b61099233610a6a565b336000908152600560205260409020600201544314156109dc5760405162461bcd60e51b8152602060048201526005602482015264545730323160d81b604482015260640161037d565b6001546001600160a01b031663dcb849143384846109f9836103a8565b6040516001600160e01b031960e087901b1681526001600160a01b0390941660048501526024840192909252151560448301526064820152608401600060405180830381600087803b158015610a4e57600080fd5b505af1158015610a62573d6000803e3d6000fd5b505050505050565b600254610a779042610f9c565b6001600160a01b03909116600090815260056020526040902060010155565b6040516001600160a01b0380851660248301528316604482015260648101829052610b019085906323b872dd60e01b906084015b60408051601f198184030181529190526020810180516001600160e01b03166001600160e01b031990931692909217909152610b5b565b50505050565b6000610b138284610f9c565b9392505050565b6040516001600160a01b038316602482015260448101829052610b4a90849063a9059cbb60e01b90606401610aca565b505050565b6000610b138284610fb4565b6000610bb0826040518060400160405280602081526020017f5361666545524332303a206c6f772d6c6576656c2063616c6c206661696c6564815250856001600160a01b0316610c2d9092919063ffffffff16565b805190915015610b4a5780806020019051810190610bce9190610ef4565b610b4a5760405162461bcd60e51b815260206004820152602a60248201527f5361666545524332303a204552433230206f7065726174696f6e20646964206e6044820152691bdd081cdd58d8d9595960b21b606482015260840161037d565b6060610c3c8484600085610c44565b949350505050565b606082471015610ca55760405162461bcd60e51b815260206004820152602660248201527f416464726573733a20696e73756666696369656e742062616c616e636520666f6044820152651c8818d85b1b60d21b606482015260840161037d565b843b610cf35760405162461bcd60e51b815260206004820152601d60248201527f416464726573733a2063616c6c20746f206e6f6e2d636f6e7472616374000000604482015260640161037d565b600080866001600160a01b03168587604051610d0f9190610f6d565b60006040518083038185875af1925050503d8060008114610d4c576040519150601f19603f3d011682016040523d82523d6000602084013e610d51565b606091505b5091509150610d61828286610d6c565b979650505050505050565b60608315610d7b575081610b13565b825115610d8b5782518084602001fd5b8160405162461bcd60e51b815260040161037d9190610f89565b80356001600160a01b0381168114610dbc57600080fd5b919050565b600060208284031215610dd357600080fd5b610b1382610da5565b60008060408385031215610def57600080fd5b610df883610da5565b9150610e0660208401610da5565b90509250929050565b60008060408385031215610e2257600080fd5b610e2b83610da5565b946020939093013593505050565b60008060008060808587031215610e4f57600080fd5b610e5885610da5565b9350602085013592506040850135610e6f81611028565b9396929550929360600135925050565b600080600080600080600060e0888a031215610e9a57600080fd5b610ea388610da5565b9650602088013595506040880135610eba81611028565b945060608801359350608088013560ff81168114610ed757600080fd5b9699959850939692959460a0840135945060c09093013592915050565b600060208284031215610f0657600080fd5b8151610b1381611028565b60008060408385031215610f2457600080fd5b823591506020830135610f3681611028565b809150509250929050565b60008151808452610f59816020860160208601610fcb565b601f01601f19169290920160200192915050565b60008251610f7f818460208701610fcb565b9190910192915050565b602081526000610b136020830184610f41565b60008219821115610faf57610faf611012565b500190565b600082821015610fc657610fc6611012565b500390565b60005b83811015610fe6578181015183820152602001610fce565b83811115610b015750506000910152565b600060001982141561100b5761100b611012565b5060010190565b634e487b7160e01b600052601160045260246000fd5b801515811461103657600080fd5b5056fea2646970667358221220d3ceeb042a34f1d45898ab0115df6c66171edeb76f9610ec92588cf998b752f964736f6c63430008060033",
  "linkReferences": {},
  "deployedLinkReferences": {}
}