{
  "_format": "hh-sol-artifact-1",
  "contractName": "MemberLinearVoting",
  "sourceName": "contracts/votingStrategies/MemberLinearVoting.sol",
  "abi": [
    {
      "inputs": [
        {
          "internalType": "address",
          "name": "_owner",
          "type": "address"
        },
        {
          "internalType": "contract ERC20Votes",
          "name": "_governanceToken",
          "type": "address"
        },
        {
          "internalType": "address",
          "name": "_UsulModule",
          "type": "address"
        },
        {
          "internalType": "uint256",
          "name": "_votingPeriod",
          "type": "uint256"
        },
        {
          "internalType": "uint256",
          "name": "quorumNumerator_",
          "type": "uint256"
        },
        {
          "internalType": "uint256",
          "name": "_timeLockPeriod",
          "type": "uint256"
        },
        {
          "internalType": "string",
          "name": "name_",
          "type": "string"
        },
        {
          "internalType": "address[]",
          "name": "_members",
          "type": "address[]"
        }
      ],
      "stateMutability": "nonpayable",
      "type": "constructor"
    },
    {
      "anonymous": false,
      "inputs": [
        {
          "indexed": false,
          "internalType": "address",
          "name": "member",
          "type": "address"
        }
      ],
      "name": "MemberAdded",
      "type": "event"
    },
    {
      "anonymous": false,
      "inputs": [
        {
          "indexed": false,
          "internalType": "address",
          "name": "member",
          "type": "address"
        }
      ],
      "name": "MemberRemoved",
      "type": "event"
    },
    {
      "anonymous": false,
      "inputs": [
        {
          "indexed": true,
          "internalType": "address",
          "name": "previousOwner",
          "type": "address"
        },
        {
          "indexed": true,
          "internalType": "address",
          "name": "newOwner",
          "type": "address"
        }
      ],
      "name": "OwnershipTransferred",
      "type": "event"
    },
    {
      "anonymous": false,
      "inputs": [
        {
          "indexed": false,
          "internalType": "uint256",
          "name": "proposalId",
          "type": "uint256"
        },
        {
          "indexed": false,
          "internalType": "uint256",
          "name": "timestamp",
          "type": "uint256"
        }
      ],
      "name": "ProposalReceived",
      "type": "event"
    },
    {
      "anonymous": false,
      "inputs": [
        {
          "indexed": false,
          "internalType": "uint256",
          "name": "oldQuorumNumerator",
          "type": "uint256"
        },
        {
          "indexed": false,
          "internalType": "uint256",
          "name": "newQuorumNumerator",
          "type": "uint256"
        }
      ],
      "name": "QuorumNumeratorUpdated",
      "type": "event"
    },
    {
      "anonymous": false,
      "inputs": [
        {
          "indexed": true,
          "internalType": "address",
          "name": "UsulModule",
          "type": "address"
        },
        {
          "indexed": true,
          "internalType": "address",
          "name": "owner",
          "type": "address"
        }
      ],
      "name": "StrategySetup",
      "type": "event"
    },
    {
      "anonymous": false,
      "inputs": [
        {
          "indexed": false,
          "internalType": "uint256",
          "name": "previousTimeLock",
          "type": "uint256"
        },
        {
          "indexed": false,
          "internalType": "uint256",
          "name": "newTimeLockPeriod",
          "type": "uint256"
        }
      ],
      "name": "TimeLockUpdated",
      "type": "event"
    },
    {
      "anonymous": false,
      "inputs": [
        {
          "indexed": true,
          "internalType": "address",
          "name": "previousUsul",
          "type": "address"
        },
        {
          "indexed": true,
          "internalType": "address",
          "name": "newUsul",
          "type": "address"
        }
      ],
      "name": "UsulSet",
      "type": "event"
    },
    {
      "anonymous": false,
      "inputs": [
        {
          "indexed": false,
          "internalType": "uint256",
          "name": "proposalId",
          "type": "uint256"
        },
        {
          "indexed": false,
          "internalType": "uint256",
          "name": "timestamp",
          "type": "uint256"
        }
      ],
      "name": "VoteFinalized",
      "type": "event"
    },
    {
      "anonymous": false,
      "inputs": [
        {
          "indexed": false,
          "internalType": "address",
          "name": "voter",
          "type": "address"
        },
        {
          "indexed": false,
          "internalType": "uint256",
          "name": "proposalId",
          "type": "uint256"
        },
        {
          "indexed": false,
          "internalType": "uint8",
          "name": "support",
          "type": "uint8"
        },
        {
          "indexed": false,
          "internalType": "uint256",
          "name": "weight",
          "type": "uint256"
        }
      ],
      "name": "Voted",
      "type": "event"
    },
    {
      "anonymous": false,
      "inputs": [
        {
          "indexed": false,
          "internalType": "uint256",
          "name": "previousVotingPeriod",
          "type": "uint256"
        },
        {
          "indexed": false,
          "internalType": "uint256",
          "name": "newVotingPeriod",
          "type": "uint256"
        }
      ],
      "name": "VotingPeriodUpdated",
      "type": "event"
    },
    {
      "inputs": [],
      "name": "UsulModule",
      "outputs": [
        {
          "internalType": "address",
          "name": "",
          "type": "address"
        }
      ],
      "stateMutability": "view",
      "type": "function"
    },
    {
      "inputs": [],
      "name": "VOTE_TYPEHASH",
      "outputs": [
        {
          "internalType": "bytes32",
          "name": "",
          "type": "bytes32"
        }
      ],
      "stateMutability": "view",
      "type": "function"
    },
    {
      "inputs": [
        {
          "internalType": "address",
          "name": "member",
          "type": "address"
        }
      ],
      "name": "addMember",
      "outputs": [],
      "stateMutability": "nonpayable",
      "type": "function"
    },
    {
      "inputs": [
        {
          "internalType": "address",
          "name": "voter",
          "type": "address"
        },
        {
          "internalType": "uint256",
          "name": "proposalId",
          "type": "uint256"
        }
      ],
      "name": "calculateWeight",
      "outputs": [
        {
          "internalType": "uint256",
          "name": "",
          "type": "uint256"
        }
      ],
      "stateMutability": "view",
      "type": "function"
    },
    {
      "inputs": [
        {
          "internalType": "uint256",
          "name": "proposalId",
          "type": "uint256"
        }
      ],
      "name": "finalizeStrategy",
      "outputs": [],
      "stateMutability": "nonpayable",
      "type": "function"
    },
    {
      "inputs": [],
      "name": "governanceToken",
      "outputs": [
        {
          "internalType": "contract ERC20Votes",
          "name": "",
          "type": "address"
        }
      ],
      "stateMutability": "view",
      "type": "function"
    },
    {
      "inputs": [
        {
          "internalType": "uint256",
          "name": "proposalId",
          "type": "uint256"
        },
        {
          "internalType": "address",
          "name": "account",
          "type": "address"
        }
      ],
      "name": "hasVoted",
      "outputs": [
        {
          "internalType": "bool",
          "name": "",
          "type": "bool"
        }
      ],
      "stateMutability": "view",
      "type": "function"
    },
    {
      "inputs": [
        {
          "internalType": "uint256",
          "name": "proposalId",
          "type": "uint256"
        }
      ],
      "name": "isPassed",
      "outputs": [
        {
          "internalType": "bool",
          "name": "",
          "type": "bool"
        }
      ],
      "stateMutability": "view",
      "type": "function"
    },
    {
      "inputs": [],
      "name": "memberCount",
      "outputs": [
        {
          "internalType": "uint256",
          "name": "",
          "type": "uint256"
        }
      ],
      "stateMutability": "view",
      "type": "function"
    },
    {
      "inputs": [
        {
          "internalType": "address",
          "name": "",
          "type": "address"
        }
      ],
      "name": "members",
      "outputs": [
        {
          "internalType": "bool",
          "name": "",
          "type": "bool"
        }
      ],
      "stateMutability": "view",
      "type": "function"
    },
    {
      "inputs": [],
      "name": "name",
      "outputs": [
        {
          "internalType": "string",
          "name": "",
          "type": "string"
        }
      ],
      "stateMutability": "view",
      "type": "function"
    },
    {
      "inputs": [],
      "name": "owner",
      "outputs": [
        {
          "internalType": "address",
          "name": "",
          "type": "address"
        }
      ],
      "stateMutability": "view",
      "type": "function"
    },
    {
      "inputs": [
        {
          "internalType": "uint256",
          "name": "",
          "type": "uint256"
        }
      ],
      "name": "proposals",
      "outputs": [
        {
          "internalType": "uint256",
          "name": "yesVotes",
          "type": "uint256"
        },
        {
          "internalType": "uint256",
          "name": "noVotes",
          "type": "uint256"
        },
        {
          "internalType": "uint256",
          "name": "abstainVotes",
          "type": "uint256"
        },
        {
          "internalType": "uint256",
          "name": "deadline",
          "type": "uint256"
        },
        {
          "internalType": "uint256",
          "name": "startBlock",
          "type": "uint256"
        }
      ],
      "stateMutability": "view",
      "type": "function"
    },
    {
      "inputs": [
        {
          "internalType": "uint256",
          "name": "blockNumber",
          "type": "uint256"
        }
      ],
      "name": "quorum",
      "outputs": [
        {
          "internalType": "uint256",
          "name": "",
          "type": "uint256"
        }
      ],
      "stateMutability": "view",
      "type": "function"
    },
    {
      "inputs": [],
      "name": "quorumDenominator",
      "outputs": [
        {
          "internalType": "uint256",
          "name": "",
          "type": "uint256"
        }
      ],
      "stateMutability": "pure",
      "type": "function"
    },
    {
      "inputs": [],
      "name": "quorumNumerator",
      "outputs": [
        {
          "internalType": "uint256",
          "name": "",
          "type": "uint256"
        }
      ],
      "stateMutability": "view",
      "type": "function"
    },
    {
      "inputs": [
        {
          "internalType": "bytes",
          "name": "data",
          "type": "bytes"
        }
      ],
      "name": "receiveProposal",
      "outputs": [],
      "stateMutability": "nonpayable",
      "type": "function"
    },
    {
      "inputs": [
        {
          "internalType": "address",
          "name": "member",
          "type": "address"
        }
      ],
      "name": "removeMember",
      "outputs": [],
      "stateMutability": "nonpayable",
      "type": "function"
    },
    {
      "inputs": [],
      "name": "renounceOwnership",
      "outputs": [],
      "stateMutability": "nonpayable",
      "type": "function"
    },
    {
      "inputs": [
        {
          "internalType": "bytes",
          "name": "initParams",
          "type": "bytes"
        }
      ],
      "name": "setUp",
      "outputs": [],
      "stateMutability": "nonpayable",
      "type": "function"
    },
    {
      "inputs": [
        {
          "internalType": "address",
          "name": "_Usul",
          "type": "address"
        }
      ],
      "name": "setUsul",
      "outputs": [],
      "stateMutability": "nonpayable",
      "type": "function"
    },
    {
      "inputs": [],
      "name": "timeLockPeriod",
      "outputs": [
        {
          "internalType": "uint256",
          "name": "",
          "type": "uint256"
        }
      ],
      "stateMutability": "view",
      "type": "function"
    },
    {
      "inputs": [
        {
          "internalType": "address",
          "name": "newOwner",
          "type": "address"
        }
      ],
      "name": "transferOwnership",
      "outputs": [],
      "stateMutability": "nonpayable",
      "type": "function"
    },
    {
      "inputs": [
        {
          "internalType": "uint256",
          "name": "newQuorumNumerator",
          "type": "uint256"
        }
      ],
      "name": "updateQuorumNumerator",
      "outputs": [],
      "stateMutability": "nonpayable",
      "type": "function"
    },
    {
      "inputs": [
        {
          "internalType": "uint256",
          "name": "newTimeLockPeriod",
          "type": "uint256"
        }
      ],
      "name": "updateTimeLockPeriod",
      "outputs": [],
      "stateMutability": "nonpayable",
      "type": "function"
    },
    {
      "inputs": [
        {
          "internalType": "uint256",
          "name": "newPeriod",
          "type": "uint256"
        }
      ],
      "name": "updateVotingPeriod",
      "outputs": [],
      "stateMutability": "nonpayable",
      "type": "function"
    },
    {
      "inputs": [],
      "name": "version",
      "outputs": [
        {
          "internalType": "string",
          "name": "",
          "type": "string"
        }
      ],
      "stateMutability": "view",
      "type": "function"
    },
    {
      "inputs": [
        {
          "internalType": "uint256",
          "name": "proposalId",
          "type": "uint256"
        },
        {
          "internalType": "uint8",
          "name": "support",
          "type": "uint8"
        },
        {
          "internalType": "bytes",
          "name": "",
          "type": "bytes"
        }
      ],
      "name": "vote",
      "outputs": [],
      "stateMutability": "nonpayable",
      "type": "function"
    },
    {
      "inputs": [
        {
          "internalType": "uint256",
          "name": "proposalId",
          "type": "uint256"
        },
        {
          "internalType": "uint8",
          "name": "support",
          "type": "uint8"
        },
        {
          "internalType": "bytes",
          "name": "signature",
          "type": "bytes"
        },
        {
          "internalType": "bytes",
          "name": "",
          "type": "bytes"
        }
      ],
      "name": "voteSignature",
      "outputs": [],
      "stateMutability": "nonpayable",
      "type": "function"
    },
    {
      "inputs": [],
      "name": "votingPeriod",
      "outputs": [
        {
          "internalType": "uint256",
          "name": "",
          "type": "uint256"
        }
      ],
      "stateMutability": "view",
      "type": "function"
    }
  ],
  "bytecode": "0x60806040523480156200001157600080fd5b5060405162002fac38038062002fac833981016040819052620000349162000b13565b600088888888888888886040516020016200005798979695949392919062000bdc565b60408051601f198184030181529190529050620000748162000083565b50505050505050505062000dce565b600054610100900460ff16806200009d575060005460ff16155b620000f55760405162461bcd60e51b815260206004820152602e602482015260008051602062002f6c83398151915260448201526d191e481a5b9a5d1a585b1a5e995960921b60648201526084015b60405180910390fd5b600054610100900460ff1615801562000118576000805461ffff19166101011790555b600080600080600080600080898060200190518101906200013a919062000b13565b9750975097509750975097509750975060018511620001a85760405162461bcd60e51b815260206004820152602360248201527f766f74696e67506572696f64206d7573742062652067726561746572207468616044820152626e203160e81b6064820152608401620000ec565b6001600160a01b038716620002005760405162461bcd60e51b815260206004820181905260248201527f696e76616c696420676f7665726e616e636520746f6b656e20616464726573736044820152606401620000ec565b6200020a62000365565b60005b815181101562000259576200024482828151811062000230576200023062000d8c565b60200260200101516200042060201b60201c565b80620002508162000d58565b9150506200020d565b5060a180546001600160a01b0319166001600160a01b0389161790556200029f82620002996040805180820190915260018152603160f81b602082015290565b6200054d565b620002aa8462000613565b620002b58862000669565b620002c285600162000cc6565b609a55606580546001600160a01b0319166001600160a01b038816179055620002ed83600162000cc6565b609b5581516200030590609c90602085019062000960565b50876001600160a01b0316866001600160a01b03167f61586574b8b0edca97136ad4cb664eec4742d53de53403d531506632e6342a3960405160405180910390a35050505050505050801562000361576000805461ff00191690555b5050565b600054610100900460ff16806200037f575060005460ff16155b620003d35760405162461bcd60e51b815260206004820152602e602482015260008051602062002f6c83398151915260448201526d191e481a5b9a5d1a585b1a5e995960921b6064820152608401620000ec565b600054610100900460ff16158015620003f6576000805461ffff19166101011790555b6200040062000726565b6200040a620007cb565b80156200041d576000805461ff00191690555b50565b6033546001600160a01b031633146200046b5760405162461bcd60e51b8152602060048201819052602482015260008051602062002f8c8339815191526044820152606401620000ec565b6001600160a01b0381166000908152609f602052604090205460ff1615620004d65760405162461bcd60e51b815260206004820152601c60248201527f6d656d62657220697320616c72656164792072656769737465726564000000006044820152606401620000ec565b6001600160a01b0381166000908152609f60205260408120805460ff19166001179055609e805491620005098362000d58565b90915550506040516001600160a01b03821681527fb251eb052afc73ffd02ffe85ad79990a8b3fed60d76dbc2fa2fdd7123dffd9149060200160405180910390a150565b600054610100900460ff168062000567575060005460ff16155b620005bb5760405162461bcd60e51b815260206004820152602e602482015260008051602062002f6c83398151915260448201526d191e481a5b9a5d1a585b1a5e995960921b6064820152608401620000ec565b600054610100900460ff16158015620005de576000805461ffff19166101011790555b825160208085019190912083519184019190912060669190915560675580156200060e576000805461ff00191690555b505050565b6033546001600160a01b031633146200065e5760405162461bcd60e51b8152602060048201819052602482015260008051602062002f8c8339815191526044820152606401620000ec565b6200041d8162000867565b6033546001600160a01b03163314620006b45760405162461bcd60e51b8152602060048201819052602482015260008051602062002f8c8339815191526044820152606401620000ec565b6001600160a01b0381166200071b5760405162461bcd60e51b815260206004820152602660248201527f4f776e61626c653a206e6577206f776e657220697320746865207a65726f206160448201526564647265737360d01b6064820152608401620000ec565b6200041d816200090e565b600054610100900460ff168062000740575060005460ff16155b620007945760405162461bcd60e51b815260206004820152602e602482015260008051602062002f6c83398151915260448201526d191e481a5b9a5d1a585b1a5e995960921b6064820152608401620000ec565b600054610100900460ff161580156200040a576000805461ffff191661010117905580156200041d576000805461ff001916905550565b600054610100900460ff1680620007e5575060005460ff16155b620008395760405162461bcd60e51b815260206004820152602e602482015260008051602062002f6c83398151915260448201526d191e481a5b9a5d1a585b1a5e995960921b6064820152608401620000ec565b600054610100900460ff161580156200085c576000805461ffff19166101011790555b6200040a336200090e565b6064811115620008c95760405162461bcd60e51b815260206004820152602660248201527f71756f72756d4e756d657261746f72206f7665722071756f72756d44656e6f6d60448201526534b730ba37b960d11b6064820152608401620000ec565b60a080549082905560408051828152602081018490527f0553476bf02ef2726e8ce5ced78d63e26e602e4a2257b1f559418e24b4633997910160405180910390a15050565b603380546001600160a01b038381166001600160a01b0319831681179093556040519116919082907f8be0079c531659141344cd1fd0a4f28419497f9722a3daafe3b4186f6b6457e090600090a35050565b8280546200096e9062000d1b565b90600052602060002090601f016020900481019282620009925760008555620009dd565b82601f10620009ad57805160ff1916838001178555620009dd565b82800160010185558215620009dd579182015b82811115620009dd578251825591602001919060010190620009c0565b50620009eb929150620009ef565b5090565b5b80821115620009eb5760008155600101620009f0565b600082601f83011262000a1857600080fd5b815160206001600160401b0382111562000a365762000a3662000da2565b8160051b62000a4782820162000c93565b83815282810190868401838801850189101562000a6357600080fd5b600093505b8584101562000a9357805162000a7e8162000db8565b83526001939093019291840191840162000a68565b50979650505050505050565b600082601f83011262000ab157600080fd5b81516001600160401b0381111562000acd5762000acd62000da2565b62000ae2601f8201601f191660200162000c93565b81815284602083860101111562000af857600080fd5b62000b0b82602083016020870162000ce8565b949350505050565b600080600080600080600080610100898b03121562000b3157600080fd5b885162000b3e8162000db8565b60208a015190985062000b518162000db8565b60408a015190975062000b648162000db8565b60608a015160808b015160a08c015160c08d0151939950919750955093506001600160401b038082111562000b9857600080fd5b62000ba68c838d0162000a9f565b935060e08b015191508082111562000bbd57600080fd5b5062000bcc8b828c0162000a06565b9150509295985092959890939650565b600061010060018060a01b03808c1684526020818c1681860152818b1660408601528960608601528860808601528760a08601528260c086015286518084870152610120935062000c3381858801848b0162000ce8565b601f01601f19168501858103840160e087015286519381018490526101400192818701906000905b8082101562000c7f5782518516865294830194918301916001919091019062000c5b565b50939e9d5050505050505050505050505050565b604051601f8201601f191681016001600160401b038111828210171562000cbe5762000cbe62000da2565b604052919050565b600081600019048311821515161562000ce35762000ce362000d76565b500290565b60005b8381101562000d0557818101518382015260200162000ceb565b8381111562000d15576000848401525b50505050565b600181811c9082168062000d3057607f821691505b6020821081141562000d5257634e487b7160e01b600052602260045260246000fd5b50919050565b600060001982141562000d6f5762000d6f62000d76565b5060010190565b634e487b7160e01b600052601160045260246000fd5b634e487b7160e01b600052603260045260246000fd5b634e487b7160e01b600052604160045260246000fd5b6001600160a01b03811681146200041d57600080fd5b61218e8062000dde6000396000f3fe608060405234801561001057600080fd5b50600436106101da5760003560e01c806379bfb08911610104578063a8a829c1116100a2578063ef00ef4311610071578063ef00ef4314610474578063f2fde38b14610487578063f8ce560a1461049a578063f96dae0a146104ad57600080fd5b8063a8a829c114610428578063bf1b5efd1461043b578063ca6d56dc1461044e578063d69be91c1461046157600080fd5b80638da5cb5b116100de5780638da5cb5b146103f557806397c3d33414610406578063a4f9edbf1461040d578063a7713a701461042057600080fd5b806379bfb089146103a85780637a3ff4d2146103bb57806386522973146103ce57600080fd5b80631f2c562e1161017c57806354fd4d501161014b57806354fd4d501461034f578063715018a61461036c578063747691df1461037457806378446bc11461039f57600080fd5b80631f2c562e146102d9578063224f3263146102ec57806343859632146102ff578063494031831461033c57600080fd5b806306fdde03116101b857806306fdde031461027557806308ae4b0c1461028a5780630b1ca49a146102bd57806311aee380146102d057600080fd5b8063013cf08b146101df57806302a251a31461024957806306f3f9e614610260575b600080fd5b61021c6101ed366004611daf565b609d60205260009081526040902080546001820154600283015460038401546004909401549293919290919085565b604080519586526020860194909452928401919091526060830152608082015260a0015b60405180910390f35b610252609a5481565b604051908152602001610240565b61027361026e366004611daf565b6104c0565b005b61027d6104ff565b6040516102409190611ee6565b6102ad610298366004611c2f565b609f6020526000908152604090205460ff1681565b6040519015158152602001610240565b6102736102cb366004611c2f565b61058d565b610252609e5481565b6102736102e7366004611e68565b610697565b6102736102fa366004611d7a565b610713565b6102ad61030d366004611de1565b6000828152609d602090815260408083206001600160a01b038516845260050190915290205460ff1692915050565b6102ad61034a366004611daf565b6107fa565b6040805180820190915260018152603160f81b602082015261027d565b610273610963565b606554610387906001600160a01b031681565b6040516001600160a01b039091168152602001610240565b610252609b5481565b6102736103b6366004611daf565b610999565b6102736103c9366004611daf565b610a46565b6102527fb780761e36898d7ec1cc0fb66fdd6a8a42e635ee643709d6b20652c68a3b29f581565b6033546001600160a01b0316610387565b6064610252565b61027361041b366004611d7a565b610aae565b60a054610252565b610273610436366004611c2f565b610d29565b610273610449366004611e11565b610da5565b61027361045c366004611c2f565b610db5565b61025261046f366004611d4e565b610eb7565b610273610482366004611daf565b610fc8565b610273610495366004611c2f565b611030565b6102526104a8366004611daf565b6110c8565b60a154610387906001600160a01b031681565b6033546001600160a01b031633146104f35760405162461bcd60e51b81526004016104ea90611f67565b60405180910390fd5b6104fc81611165565b50565b609c805461050c90612095565b80601f016020809104026020016040519081016040528092919081815260200182805461053890612095565b80156105855780601f1061055a57610100808354040283529160200191610585565b820191906000526020600020905b81548152906001019060200180831161056857829003601f168201915b505050505081565b6033546001600160a01b031633146105b75760405162461bcd60e51b81526004016104ea90611f67565b6001600160a01b0381166000908152609f602052604090205460ff1615156001146106245760405162461bcd60e51b815260206004820152601860248201527f6d656d626572206973206e6f742072656769737465726564000000000000000060448201526064016104ea565b6001600160a01b0381166000908152609f60205260408120805460ff19169055609e8054916106528361207e565b90915550506040516001600160a01b03821681527f6e76fb4c77256006d9c38ec7d82b45a8c8f3c27b1d6766fffc42dfb8de684492906020015b60405180910390a150565b604080517fb780761e36898d7ec1cc0fb66fdd6a8a42e635ee643709d6b20652c68a3b29f5602082015290810185905260ff841660608201526000906106ff906106f99060800160405160208183030381529060405280519060200120611203565b84611251565b905061070c858286611275565b5050505050565b6065546001600160a01b0316331461076d5760405162461bcd60e51b815260206004820152601a60248201527f6f6e6c79205573756c206d6f64756c65206d617920656e74657200000000000060448201526064016104ea565b6000818060200190518101906107839190611dc8565b905042609a546107939190611ff5565b6000828152609d602052604090819020600381019290925543600490920191909155517f3aeda78f6230a590817748b94b63d690cec4d1a15d494dfc7006e0a39e77f81a906107ee9083904290918252602082015260400190565b60405180910390a15050565b6000818152609d60205260408120600181015490541161085c5760405162461bcd60e51b815260206004820152601d60248201527f6d616a6f7269747920796573566f746573206e6f74207265616368656400000060448201526064016104ea565b6000828152609d6020526040902060040154610877906110c8565b6000838152609d60205260409020600281015490546108969190611ff5565b10156108fb5760405162461bcd60e51b815260206004820152602e60248201527f612071756f72756d20686173206e6f74206265656e207265616368656420666f60448201526d1c881d1a19481c1c9bdc1bdcd85b60921b60648201526084016104ea565b6000828152609d6020526040902060030154421161095b5760405162461bcd60e51b815260206004820181905260248201527f766f74696e6720706572696f6420686173206e6f74207061737365642079657460448201526064016104ea565b506001919050565b6033546001600160a01b0316331461098d5760405162461bcd60e51b81526004016104ea90611f67565b61099760006114b3565b565b6109a2816107fa565b15610a1157606554609b546040516309fac26960e31b81526004810184905260248101919091526001600160a01b0390911690634fd6134890604401600060405180830381600087803b1580156109f857600080fd5b505af1158015610a0c573d6000803e3d6000fd5b505050505b604080518281524260208201527f54ffcee03e8b80c05e4d1c55e3dc60602d9082a899e50337b680c9c4c4d80a3a910161068c565b6033546001600160a01b03163314610a705760405162461bcd60e51b81526004016104ea90611f67565b609b80549082905560408051828152602081018490527f2a72574d775756e698a258fc07c826b7185131fff8a96b868feacab45fb2343291016107ee565b600054610100900460ff1680610ac7575060005460ff16155b610ae35760405162461bcd60e51b81526004016104ea90611f19565b600054610100900460ff16158015610b05576000805461ffff19166101011790555b60008060008060008060008089806020019051810190610b259190611c53565b9750975097509750975097509750975060018511610b915760405162461bcd60e51b815260206004820152602360248201527f766f74696e67506572696f64206d7573742062652067726561746572207468616044820152626e203160e81b60648201526084016104ea565b6001600160a01b038716610be75760405162461bcd60e51b815260206004820181905260248201527f696e76616c696420676f7665726e616e636520746f6b656e206164647265737360448201526064016104ea565b610bef611505565b60005b8151811015610c2f57610c1d828281518110610c1057610c10612117565b6020026020010151610db5565b80610c27816120d0565b915050610bf2565b5060a180546001600160a01b0319166001600160a01b0389161790556040805180820190915260018152603160f81b6020820152610c6e908390611580565b610c77846104c0565b610c8088611030565b610c8b85600161202f565b609a55606580546001600160a01b0319166001600160a01b038816179055610cb483600161202f565b609b558151610cca90609c906020850190611a9b565b50876001600160a01b0316866001600160a01b03167f61586574b8b0edca97136ad4cb664eec4742d53de53403d531506632e6342a3960405160405180910390a350505050505050508015610d25576000805461ff00191690555b5050565b6033546001600160a01b03163314610d535760405162461bcd60e51b81526004016104ea90611f67565b606580546001600160a01b038381166001600160a01b0319831681179093556040519116919082907f20c8544544aefaefdf339d996d855f2d4040cf93548344aa7dcb03b19e160cd190600090a35050565b610db0833384611275565b505050565b6033546001600160a01b03163314610ddf5760405162461bcd60e51b81526004016104ea90611f67565b6001600160a01b0381166000908152609f602052604090205460ff1615610e485760405162461bcd60e51b815260206004820152601c60248201527f6d656d62657220697320616c726561647920726567697374657265640000000060448201526064016104ea565b6001600160a01b0381166000908152609f60205260408120805460ff19166001179055609e805491610e79836120d0565b90915550506040516001600160a01b03821681527fb251eb052afc73ffd02ffe85ad79990a8b3fed60d76dbc2fa2fdd7123dffd9149060200161068c565b6001600160a01b0382166000908152609f6020526040812054839060ff16610f195760405162461bcd60e51b81526020600482015260156024820152743b37ba32b91034b9903737ba10309036b2b6b132b960591b60448201526064016104ea565b60a1546000848152609d6020526040908190206004908101549151630748d63560e31b81526001600160a01b0390931692633a46b1a892610f70928992016001600160a01b03929092168252602082015260400190565b60206040518083038186803b158015610f8857600080fd5b505afa158015610f9c573d6000803e3d6000fd5b505050506040513d601f19601f82011682018060405250810190610fc09190611dc8565b949350505050565b6033546001600160a01b03163314610ff25760405162461bcd60e51b81526004016104ea90611f67565b609a80549082905560408051828152602081018490527fffc708f072ca56e3d45ef0cb288b96cb9378f5f63e1646868bfbc9c38f4263a191016107ee565b6033546001600160a01b0316331461105a5760405162461bcd60e51b81526004016104ea90611f67565b6001600160a01b0381166110bf5760405162461bcd60e51b815260206004820152602660248201527f4f776e61626c653a206e6577206f776e657220697320746865207a65726f206160448201526564647265737360d01b60648201526084016104ea565b6104fc816114b3565b6000606460a05460a154604051632394e7a360e21b8152600481018690526001600160a01b0390911690638e539e8c9060240160206040518083038186803b15801561111357600080fd5b505afa158015611127573d6000803e3d6000fd5b505050506040513d601f19601f8201168201806040525081019061114b9190611dc8565b611155919061202f565b61115f919061200d565b92915050565b60648111156111c55760405162461bcd60e51b815260206004820152602660248201527f71756f72756d4e756d657261746f72206f7665722071756f72756d44656e6f6d60448201526534b730ba37b960d11b60648201526084016104ea565b60a080549082905560408051828152602081018490527f0553476bf02ef2726e8ce5ced78d63e26e602e4a2257b1f559418e24b463399791016107ee565b600061115f61121061160a565b8360405161190160f01b6020820152602281018390526042810182905260009060620160405160208183030381529060405280519060200120905092915050565b6000806000611260858561168a565b9150915061126d816116fa565b509392505050565b6000838152609d60205260409020600301544211156112d65760405162461bcd60e51b815260206004820152601860248201527f766f74696e6720706572696f642068617320706173736564000000000000000060448201526064016104ea565b6000838152609d602090815260408083206001600160a01b038616845260050190915290205460ff161561134c5760405162461bcd60e51b815260206004820152601760248201527f766f7465722068617320616c726561647920766f74656400000000000000000060448201526064016104ea565b6000838152609d602090815260408083206001600160a01b03861684526005019091528120805460ff191660011790556113868385610eb7565b905060ff82166113bc576000848152609d6020526040812060010180548392906113b1908490611ff5565b9091555061145b9050565b60ff8216600114156113e6576000848152609d6020526040812080548392906113b1908490611ff5565b60ff821660021415611413576000848152609d6020526040812060020180548392906113b1908490611ff5565b60405162461bcd60e51b815260206004820152601f60248201527f696e76616c69642076616c756520666f7220656e756d20566f7465547970650060448201526064016104ea565b604080516001600160a01b03851681526020810186905260ff8416818301526060810183905290517f27eb20ecadc80d52f641a540b295d208f7c3735545d321b08e505116c60131999181900360800190a150505050565b603380546001600160a01b038381166001600160a01b0319831681179093556040519116919082907f8be0079c531659141344cd1fd0a4f28419497f9722a3daafe3b4186f6b6457e090600090a35050565b600054610100900460ff168061151e575060005460ff16155b61153a5760405162461bcd60e51b81526004016104ea90611f19565b600054610100900460ff1615801561155c576000805461ffff19166101011790555b6115646118b5565b61156c61191f565b80156104fc576000805461ff001916905550565b600054610100900460ff1680611599575060005460ff16155b6115b55760405162461bcd60e51b81526004016104ea90611f19565b600054610100900460ff161580156115d7576000805461ffff19166101011790555b82516020808501919091208351918401919091206066919091556067558015610db0576000805461ff0019169055505050565b60006116857f8b73c3c69bb8fe3d512ecc4cf759cc79239f7b179b0ffacaa9a75d522b39400f61163960665490565b6067546040805160208101859052908101839052606081018290524660808201523060a082015260009060c0016040516020818303038152906040528051906020012090509392505050565b905090565b6000808251604114156116c15760208301516040840151606085015160001a6116b58782858561197f565b945094505050506116f3565b8251604014156116eb57602083015160408401516116e0868383611a6c565b9350935050506116f3565b506000905060025b9250929050565b600081600481111561170e5761170e612101565b14156117175750565b600181600481111561172b5761172b612101565b14156117795760405162461bcd60e51b815260206004820152601860248201527f45434453413a20696e76616c6964207369676e6174757265000000000000000060448201526064016104ea565b600281600481111561178d5761178d612101565b14156117db5760405162461bcd60e51b815260206004820152601f60248201527f45434453413a20696e76616c6964207369676e6174757265206c656e6774680060448201526064016104ea565b60038160048111156117ef576117ef612101565b14156118485760405162461bcd60e51b815260206004820152602260248201527f45434453413a20696e76616c6964207369676e6174757265202773272076616c604482015261756560f01b60648201526084016104ea565b600481600481111561185c5761185c612101565b14156104fc5760405162461bcd60e51b815260206004820152602260248201527f45434453413a20696e76616c6964207369676e6174757265202776272076616c604482015261756560f01b60648201526084016104ea565b600054610100900460ff16806118ce575060005460ff16155b6118ea5760405162461bcd60e51b81526004016104ea90611f19565b600054610100900460ff1615801561156c576000805461ffff191661010117905580156104fc576000805461ff001916905550565b600054610100900460ff1680611938575060005460ff16155b6119545760405162461bcd60e51b81526004016104ea90611f19565b600054610100900460ff16158015611976576000805461ffff19166101011790555b61156c336114b3565b6000807f7fffffffffffffffffffffffffffffff5d576e7357a4501ddfe92f46681b20a08311156119b65750600090506003611a63565b8460ff16601b141580156119ce57508460ff16601c14155b156119df5750600090506004611a63565b6040805160008082526020820180845289905260ff881692820192909252606081018690526080810185905260019060a0016020604051602081039080840390855afa158015611a33573d6000803e3d6000fd5b5050604051601f1901519150506001600160a01b038116611a5c57600060019250925050611a63565b9150600090505b94509492505050565b6000806001600160ff1b03831660ff84901c601b01611a8d8782888561197f565b935093505050935093915050565b828054611aa790612095565b90600052602060002090601f016020900481019282611ac95760008555611b0f565b82601f10611ae257805160ff1916838001178555611b0f565b82800160010185558215611b0f579182015b82811115611b0f578251825591602001919060010190611af4565b50611b1b929150611b1f565b5090565b5b80821115611b1b5760008155600101611b20565b600082601f830112611b4557600080fd5b8151602067ffffffffffffffff821115611b6157611b6161212d565b8160051b611b70828201611f9c565b838152828101908684018388018501891015611b8b57600080fd5b600093505b85841015611bb7578051611ba381612143565b835260019390930192918401918401611b90565b50979650505050505050565b600082601f830112611bd457600080fd5b8135611be7611be282611fcd565b611f9c565b818152846020838601011115611bfc57600080fd5b816020850160208301376000918101602001919091529392505050565b803560ff81168114611c2a57600080fd5b919050565b600060208284031215611c4157600080fd5b8135611c4c81612143565b9392505050565b600080600080600080600080610100898b031215611c7057600080fd5b8851611c7b81612143565b60208a0151909850611c8c81612143565b60408a0151909750611c9d81612143565b80965050606089015194506080890151935060a0890151925060c089015167ffffffffffffffff80821115611cd157600080fd5b818b0191508b601f830112611ce557600080fd5b8151611cf3611be282611fcd565b8181528d6020838601011115611d0857600080fd5b611d1982602083016020870161204e565b60e08d015190955092505080821115611d3157600080fd5b50611d3e8b828c01611b34565b9150509295985092959890939650565b60008060408385031215611d6157600080fd5b8235611d6c81612143565b946020939093013593505050565b600060208284031215611d8c57600080fd5b813567ffffffffffffffff811115611da357600080fd5b610fc084828501611bc3565b600060208284031215611dc157600080fd5b5035919050565b600060208284031215611dda57600080fd5b5051919050565b60008060408385031215611df457600080fd5b823591506020830135611e0681612143565b809150509250929050565b600080600060608486031215611e2657600080fd5b83359250611e3660208501611c19565b9150604084013567ffffffffffffffff811115611e5257600080fd5b611e5e86828701611bc3565b9150509250925092565b60008060008060808587031215611e7e57600080fd5b84359350611e8e60208601611c19565b9250604085013567ffffffffffffffff80821115611eab57600080fd5b611eb788838901611bc3565b93506060870135915080821115611ecd57600080fd5b50611eda87828801611bc3565b91505092959194509250565b6020815260008251806020840152611f0581604085016020870161204e565b601f01601f19169190910160400192915050565b6020808252602e908201527f496e697469616c697a61626c653a20636f6e747261637420697320616c72656160408201526d191e481a5b9a5d1a585b1a5e995960921b606082015260800190565b6020808252818101527f4f776e61626c653a2063616c6c6572206973206e6f7420746865206f776e6572604082015260600190565b604051601f8201601f1916810167ffffffffffffffff81118282101715611fc557611fc561212d565b604052919050565b600067ffffffffffffffff821115611fe757611fe761212d565b50601f01601f191660200190565b60008219821115612008576120086120eb565b500190565b60008261202a57634e487b7160e01b600052601260045260246000fd5b500490565b6000816000190483118215151615612049576120496120eb565b500290565b60005b83811015612069578181015183820152602001612051565b83811115612078576000848401525b50505050565b60008161208d5761208d6120eb565b506000190190565b600181811c908216806120a957607f821691505b602082108114156120ca57634e487b7160e01b600052602260045260246000fd5b50919050565b60006000198214156120e4576120e46120eb565b5060010190565b634e487b7160e01b600052601160045260246000fd5b634e487b7160e01b600052602160045260246000fd5b634e487b7160e01b600052603260045260246000fd5b634e487b7160e01b600052604160045260246000fd5b6001600160a01b03811681146104fc57600080fdfea26469706673582212203d63fae8872bb11833636913b4547774595f00a9f8f200a6f40a2f9cdc809b7664736f6c63430008060033496e697469616c697a61626c653a20636f6e747261637420697320616c7265614f776e61626c653a2063616c6c6572206973206e6f7420746865206f776e6572",
  "linkReferences": {},
  "deployedLinkReferences": {}
}