{
  "_format": "hh-sol-artifact-1",
  "contractName": "MultiArtToken",
  "sourceName": "contracts/MultiArtToken.sol",
  "abi": [
    {
      "inputs": [
        {
          "internalType": "string",
          "name": "_name",
          "type": "string"
        },
        {
          "internalType": "string",
          "name": "_symbol",
          "type": "string"
        }
      ],
      "stateMutability": "nonpayable",
      "type": "constructor"
    },
    {
      "anonymous": false,
      "inputs": [
        {
          "indexed": true,
          "internalType": "address",
          "name": "owner",
          "type": "address"
        },
        {
          "indexed": true,
          "internalType": "address",
          "name": "approved",
          "type": "address"
        },
        {
          "indexed": true,
          "internalType": "uint256",
          "name": "tokenId",
          "type": "uint256"
        }
      ],
      "name": "Approval",
      "type": "event"
    },
    {
      "anonymous": false,
      "inputs": [
        {
          "indexed": true,
          "internalType": "address",
          "name": "owner",
          "type": "address"
        },
        {
          "indexed": true,
          "internalType": "address",
          "name": "operator",
          "type": "address"
        },
        {
          "indexed": false,
          "internalType": "bool",
          "name": "approved",
          "type": "bool"
        }
      ],
      "name": "ApprovalForAll",
      "type": "event"
    },
    {
      "anonymous": false,
      "inputs": [
        {
          "indexed": true,
          "internalType": "address",
          "name": "from",
          "type": "address"
        },
        {
          "indexed": true,
          "internalType": "uint256",
          "name": "tokenId",
          "type": "uint256"
        }
      ],
      "name": "Signed",
      "type": "event"
    },
    {
      "anonymous": false,
      "inputs": [
        {
          "indexed": true,
          "internalType": "address",
          "name": "from",
          "type": "address"
        },
        {
          "indexed": true,
          "internalType": "address",
          "name": "to",
          "type": "address"
        },
        {
          "indexed": true,
          "internalType": "uint256",
          "name": "tokenId",
          "type": "uint256"
        }
      ],
      "name": "Transfer",
      "type": "event"
    },
    {
      "inputs": [],
      "name": "DOMAIN_SEPARATOR",
      "outputs": [
        {
          "internalType": "bytes32",
          "name": "",
          "type": "bytes32"
        }
      ],
      "stateMutability": "view",
      "type": "function"
    },
    {
      "inputs": [
        {
          "internalType": "address",
          "name": "to",
          "type": "address"
        },
        {
          "internalType": "uint256",
          "name": "tokenId",
          "type": "uint256"
        }
      ],
      "name": "approve",
      "outputs": [],
      "stateMutability": "nonpayable",
      "type": "function"
    },
    {
      "inputs": [],
      "name": "artist",
      "outputs": [
        {
          "internalType": "address",
          "name": "",
          "type": "address"
        }
      ],
      "stateMutability": "view",
      "type": "function"
    },
    {
      "inputs": [
        {
          "internalType": "address",
          "name": "owner",
          "type": "address"
        }
      ],
      "name": "balanceOf",
      "outputs": [
        {
          "internalType": "uint256",
          "name": "",
          "type": "uint256"
        }
      ],
      "stateMutability": "view",
      "type": "function"
    },
    {
      "inputs": [
        {
          "internalType": "uint256",
          "name": "tokenId",
          "type": "uint256"
        }
      ],
      "name": "getApproved",
      "outputs": [
        {
          "internalType": "address",
          "name": "",
          "type": "address"
        }
      ],
      "stateMutability": "view",
      "type": "function"
    },
    {
      "inputs": [
        {
          "internalType": "uint256",
          "name": "_tokenId",
          "type": "uint256"
        }
      ],
      "name": "getSignature",
      "outputs": [
        {
          "internalType": "bytes",
          "name": "",
          "type": "bytes"
        }
      ],
      "stateMutability": "view",
      "type": "function"
    },
    {
      "inputs": [
        {
          "internalType": "address",
          "name": "owner",
          "type": "address"
        },
        {
          "internalType": "address",
          "name": "operator",
          "type": "address"
        }
      ],
      "name": "isApprovedForAll",
      "outputs": [
        {
          "internalType": "bool",
          "name": "",
          "type": "bool"
        }
      ],
      "stateMutability": "view",
      "type": "function"
    },
    {
      "inputs": [
        {
          "components": [
            {
              "internalType": "address",
              "name": "verificationAddress",
              "type": "address"
            },
            {
              "internalType": "string",
              "name": "artist",
              "type": "string"
            },
            {
              "internalType": "address",
              "name": "wallet",
              "type": "address"
            },
            {
              "internalType": "string",
              "name": "contents",
              "type": "string"
            }
          ],
          "internalType": "struct EditionsExtension.Signature",
          "name": "_message",
          "type": "tuple"
        },
        {
          "internalType": "bytes",
          "name": "_signature",
          "type": "bytes"
        },
        {
          "internalType": "uint256",
          "name": "_tokenId",
          "type": "uint256"
        }
      ],
      "name": "isSigned",
      "outputs": [
        {
          "internalType": "bool",
          "name": "",
          "type": "bool"
        }
      ],
      "stateMutability": "view",
      "type": "function"
    },
    {
      "inputs": [
        {
          "internalType": "string[]",
          "name": "_tokenURI",
          "type": "string[]"
        },
        {
          "internalType": "uint256",
          "name": "_editionNumbers",
          "type": "uint256"
        }
      ],
      "name": "mintEdition",
      "outputs": [],
      "stateMutability": "nonpayable",
      "type": "function"
    },
    {
      "inputs": [],
      "name": "name",
      "outputs": [
        {
          "internalType": "string",
          "name": "",
          "type": "string"
        }
      ],
      "stateMutability": "view",
      "type": "function"
    },
    {
      "inputs": [
        {
          "internalType": "uint256",
          "name": "tokenId",
          "type": "uint256"
        }
      ],
      "name": "ownerOf",
      "outputs": [
        {
          "internalType": "address",
          "name": "",
          "type": "address"
        }
      ],
      "stateMutability": "view",
      "type": "function"
    },
    {
      "inputs": [
        {
          "internalType": "address",
          "name": "from",
          "type": "address"
        },
        {
          "internalType": "address",
          "name": "to",
          "type": "address"
        },
        {
          "internalType": "uint256",
          "name": "tokenId",
          "type": "uint256"
        }
      ],
      "name": "safeTransferFrom",
      "outputs": [],
      "stateMutability": "nonpayable",
      "type": "function"
    },
    {
      "inputs": [
        {
          "internalType": "address",
          "name": "from",
          "type": "address"
        },
        {
          "internalType": "address",
          "name": "to",
          "type": "address"
        },
        {
          "internalType": "uint256",
          "name": "tokenId",
          "type": "uint256"
        },
        {
          "internalType": "bytes",
          "name": "_data",
          "type": "bytes"
        }
      ],
      "name": "safeTransferFrom",
      "outputs": [],
      "stateMutability": "nonpayable",
      "type": "function"
    },
    {
      "inputs": [
        {
          "internalType": "address",
          "name": "operator",
          "type": "address"
        },
        {
          "internalType": "bool",
          "name": "approved",
          "type": "bool"
        }
      ],
      "name": "setApprovalForAll",
      "outputs": [],
      "stateMutability": "nonpayable",
      "type": "function"
    },
    {
      "inputs": [
        {
          "internalType": "uint256",
          "name": "tokenId",
          "type": "uint256"
        },
        {
          "components": [
            {
              "internalType": "address",
              "name": "verificationAddress",
              "type": "address"
            },
            {
              "internalType": "string",
              "name": "artist",
              "type": "string"
            },
            {
              "internalType": "address",
              "name": "wallet",
              "type": "address"
            },
            {
              "internalType": "string",
              "name": "contents",
              "type": "string"
            }
          ],
          "internalType": "struct EditionsExtension.Signature",
          "name": "message",
          "type": "tuple"
        },
        {
          "internalType": "bytes",
          "name": "signature",
          "type": "bytes"
        }
      ],
      "name": "sign",
      "outputs": [],
      "stateMutability": "nonpayable",
      "type": "function"
    },
    {
      "inputs": [
        {
          "internalType": "bytes4",
          "name": "interfaceId",
          "type": "bytes4"
        }
      ],
      "name": "supportsInterface",
      "outputs": [
        {
          "internalType": "bool",
          "name": "",
          "type": "bool"
        }
      ],
      "stateMutability": "view",
      "type": "function"
    },
    {
      "inputs": [],
      "name": "symbol",
      "outputs": [
        {
          "internalType": "string",
          "name": "",
          "type": "string"
        }
      ],
      "stateMutability": "view",
      "type": "function"
    },
    {
      "inputs": [
        {
          "internalType": "uint256",
          "name": "tokenId",
          "type": "uint256"
        }
      ],
      "name": "tokenURI",
      "outputs": [
        {
          "internalType": "string",
          "name": "",
          "type": "string"
        }
      ],
      "stateMutability": "view",
      "type": "function"
    },
    {
      "inputs": [],
      "name": "topId",
      "outputs": [
        {
          "internalType": "uint256",
          "name": "",
          "type": "uint256"
        }
      ],
      "stateMutability": "view",
      "type": "function"
    },
    {
      "inputs": [
        {
          "internalType": "address",
          "name": "from",
          "type": "address"
        },
        {
          "internalType": "address",
          "name": "to",
          "type": "address"
        },
        {
          "internalType": "uint256",
          "name": "tokenId",
          "type": "uint256"
        }
      ],
      "name": "transferFrom",
      "outputs": [],
      "stateMutability": "nonpayable",
      "type": "function"
    }
  ],
  "bytecode": "0x608060405260016009553480156200001657600080fd5b506040516200442f3803806200442f83398181016040528101906200003c919062000355565b818181600090805190602001906200005692919062000233565b5080600190805190602001906200006f92919062000233565b50505062000083336200015b60201b60201c565b7f8b73c3c69bb8fe3d512ecc4cf759cc79239f7b179b0ffacaa9a75d522b39400f6040518060400160405280600f81526020017f417274697374277320446f6d61696e0000000000000000000000000000000000815250805190602001206040518060400160405280600181526020017f3100000000000000000000000000000000000000000000000000000000000000815250805190602001206001306040516020016200013795949392919062000463565b60405160208183030381529060405280519060200120600781905550505062000683565b600073ffffffffffffffffffffffffffffffffffffffff16600a60009054906101000a900473ffffffffffffffffffffffffffffffffffffffff1673ffffffffffffffffffffffffffffffffffffffff1614620001ef576040517f08c379a0000000000000000000000000000000000000000000000000000000008152600401620001e690620004c0565b60405180910390fd5b80600a60006101000a81548173ffffffffffffffffffffffffffffffffffffffff021916908373ffffffffffffffffffffffffffffffffffffffff16021790555050565b8280546200024190620005ef565b90600052602060002090601f016020900481019282620002655760008555620002b1565b82601f106200028057805160ff1916838001178555620002b1565b82800160010185558215620002b1579182015b82811115620002b057825182559160200191906001019062000293565b5b509050620002c09190620002c4565b5090565b5b80821115620002df576000816000905550600101620002c5565b5090565b6000620002fa620002f48462000516565b620004e2565b9050828152602081018484840111156200031357600080fd5b62000320848285620005b9565b509392505050565b600082601f8301126200033a57600080fd5b81516200034c848260208601620002e3565b91505092915050565b600080604083850312156200036957600080fd5b600083015167ffffffffffffffff8111156200038457600080fd5b620003928582860162000328565b925050602083015167ffffffffffffffff811115620003b057600080fd5b620003be8582860162000328565b9150509250929050565b620003d3816200055a565b82525050565b620003e4816200056e565b82525050565b620003f581620005a5565b82525050565b60006200040a60318362000549565b91507f455243373231457874656e73696f6e733a20746865206172746973742068617360008301527f20616c7265616479206265656e207365740000000000000000000000000000006020830152604082019050919050565b600060a0820190506200047a6000830188620003d9565b620004896020830187620003d9565b620004986040830186620003d9565b620004a76060830185620003ea565b620004b66080830184620003c8565b9695505050505050565b60006020820190508181036000830152620004db81620003fb565b9050919050565b6000604051905081810181811067ffffffffffffffff821117156200050c576200050b62000654565b5b8060405250919050565b600067ffffffffffffffff82111562000534576200053362000654565b5b601f19601f8301169050602081019050919050565b600082825260208201905092915050565b6000620005678262000578565b9050919050565b6000819050919050565b600073ffffffffffffffffffffffffffffffffffffffff82169050919050565b600060ff82169050919050565b6000620005b28262000598565b9050919050565b60005b83811015620005d9578082015181840152602081019050620005bc565b83811115620005e9576000848401525b50505050565b600060028204905060018216806200060857607f821691505b602082108114156200061f576200061e62000625565b5b50919050565b7f4e487b7100000000000000000000000000000000000000000000000000000000600052602260045260246000fd5b7f4e487b7100000000000000000000000000000000000000000000000000000000600052604160045260246000fd5b613d9c80620006936000396000f3fe608060405234801561001057600080fd5b506004361061012c5760003560e01c806343bc1612116100ad578063b88d4fde11610071578063b88d4fde14610343578063c87b56dd1461035f578063ddb29c701461038f578063e985e9c5146103bf578063ee874107146103ef5761012c565b806343bc16121461028b5780636352211e146102a957806370a08231146102d957806395d89b4114610309578063a22cb465146103275761012c565b806323b872dd116100f457806323b872dd146101fb5780633242d76314610217578063331f5f8c146102335780633644e5151461025157806342842e0e1461026f5761012c565b806301ffc9a71461013157806302a569e61461016157806306fdde0314610191578063081812fc146101af578063095ea7b3146101df575b600080fd5b61014b60048036038101906101469190612775565b61040b565b6040516101589190613484565b60405180910390f35b61017b60048036038101906101769190612846565b6104ed565b6040516101889190613560565b60405180910390f35b6101996105f5565b6040516101a69190613582565b60405180910390f35b6101c960048036038101906101c49190612846565b610687565b6040516101d6919061341d565b60405180910390f35b6101f960048036038101906101f491906126e5565b61070c565b005b610215600480360381019061021091906125df565b610824565b005b610231600480360381019061022c919061286f565b610884565b005b61023b610894565b60405161024891906138e4565b60405180910390f35b61025961089a565b604051610266919061349f565b60405180910390f35b610289600480360381019061028491906125df565b6108a0565b005b6102936108c0565b6040516102a0919061341d565b60405180910390f35b6102c360048036038101906102be9190612846565b6108e6565b6040516102d0919061341d565b60405180910390f35b6102f360048036038101906102ee919061257a565b610998565b60405161030091906138e4565b60405180910390f35b610311610a50565b60405161031e9190613582565b60405180910390f35b610341600480360381019061033c91906126a9565b610ae2565b005b61035d6004803603810190610358919061262e565b610c63565b005b61037960048036038101906103749190612846565b610cc5565b6040516103869190613582565b60405180910390f35b6103a960048036038101906103a491906127c7565b610e17565b6040516103b69190613484565b60405180910390f35b6103d960048036038101906103d491906125a3565b610f3c565b6040516103e69190613484565b60405180910390f35b61040960048036038101906104049190612721565b610fd0565b005b60007f80ac58cd000000000000000000000000000000000000000000000000000000007bffffffffffffffffffffffffffffffffffffffffffffffffffffffff1916827bffffffffffffffffffffffffffffffffffffffffffffffffffffffff191614806104d657507f5b5e139f000000000000000000000000000000000000000000000000000000007bffffffffffffffffffffffffffffffffffffffffffffffffffffffff1916827bffffffffffffffffffffffffffffffffffffffffffffffffffffffff1916145b806104e657506104e58261106e565b5b9050919050565b6060600060086000848152602001908152602001600020805461050f90613b87565b90501415610552576040517f08c379a000000000000000000000000000000000000000000000000000000000815260040161054990613824565b60405180910390fd5b60086000838152602001908152602001600020805461057090613b87565b80601f016020809104026020016040519081016040528092919081815260200182805461059c90613b87565b80156105e95780601f106105be576101008083540402835291602001916105e9565b820191906000526020600020905b8154815290600101906020018083116105cc57829003601f168201915b50505050509050919050565b60606000805461060490613b87565b80601f016020809104026020016040519081016040528092919081815260200182805461063090613b87565b801561067d5780601f106106525761010080835404028352916020019161067d565b820191906000526020600020905b81548152906001019060200180831161066057829003601f168201915b5050505050905090565b6000610692826110d8565b6106d1576040517f08c379a00000000000000000000000000000000000000000000000000000000081526004016106c890613804565b60405180910390fd5b6004600083815260200190815260200160002060009054906101000a900473ffffffffffffffffffffffffffffffffffffffff169050919050565b6000610717826108e6565b90508073ffffffffffffffffffffffffffffffffffffffff168373ffffffffffffffffffffffffffffffffffffffff161415610788576040517f08c379a000000000000000000000000000000000000000000000000000000000815260040161077f90613884565b60405180910390fd5b8073ffffffffffffffffffffffffffffffffffffffff166107a7611144565b73ffffffffffffffffffffffffffffffffffffffff1614806107d657506107d5816107d0611144565b610f3c565b5b610815576040517f08c379a000000000000000000000000000000000000000000000000000000000815260040161080c90613704565b60405180910390fd5b61081f838361114c565b505050565b61083561082f611144565b82611205565b610874576040517f08c379a000000000000000000000000000000000000000000000000000000000815260040161086b906138a4565b60405180910390fd5b61087f8383836112e3565b505050565b61088f83838361153f565b505050565b60095481565b60075481565b6108bb83838360405180602001604052806000815250610c63565b505050565b600a60009054906101000a900473ffffffffffffffffffffffffffffffffffffffff1681565b6000806002600084815260200190815260200160002060009054906101000a900473ffffffffffffffffffffffffffffffffffffffff169050600073ffffffffffffffffffffffffffffffffffffffff168173ffffffffffffffffffffffffffffffffffffffff16141561098f576040517f08c379a000000000000000000000000000000000000000000000000000000000815260040161098690613744565b60405180910390fd5b80915050919050565b60008073ffffffffffffffffffffffffffffffffffffffff168273ffffffffffffffffffffffffffffffffffffffff161415610a09576040517f08c379a0000000000000000000000000000000000000000000000000000000008152600401610a0090613724565b60405180910390fd5b600360008373ffffffffffffffffffffffffffffffffffffffff1673ffffffffffffffffffffffffffffffffffffffff168152602001908152602001600020549050919050565b606060018054610a5f90613b87565b80601f0160208091040260200160405190810160405280929190818152602001828054610a8b90613b87565b8015610ad85780601f10610aad57610100808354040283529160200191610ad8565b820191906000526020600020905b815481529060010190602001808311610abb57829003601f168201915b5050505050905090565b610aea611144565b73ffffffffffffffffffffffffffffffffffffffff168273ffffffffffffffffffffffffffffffffffffffff161415610b58576040517f08c379a0000000000000000000000000000000000000000000000000000000008152600401610b4f90613684565b60405180910390fd5b8060056000610b65611144565b73ffffffffffffffffffffffffffffffffffffffff1673ffffffffffffffffffffffffffffffffffffffff16815260200190815260200160002060008473ffffffffffffffffffffffffffffffffffffffff1673ffffffffffffffffffffffffffffffffffffffff16815260200190815260200160002060006101000a81548160ff0219169083151502179055508173ffffffffffffffffffffffffffffffffffffffff16610c12611144565b73ffffffffffffffffffffffffffffffffffffffff167f17307eab39ab6107e8899845ad3d59bd9653f200f220920489ca2b5937696c3183604051610c579190613484565b60405180910390a35050565b610c74610c6e611144565b83611205565b610cb3576040517f08c379a0000000000000000000000000000000000000000000000000000000008152600401610caa906138a4565b60405180910390fd5b610cbf84848484611771565b50505050565b6060610cd0826110d8565b610d0f576040517f08c379a0000000000000000000000000000000000000000000000000000000008152600401610d06906137e4565b60405180910390fd5b6000600660008481526020019081526020016000208054610d2f90613b87565b80601f0160208091040260200160405190810160405280929190818152602001828054610d5b90613b87565b8015610da85780601f10610d7d57610100808354040283529160200191610da8565b820191906000526020600020905b815481529060010190602001808311610d8b57829003601f168201915b505050505090506000610db96117cd565b9050600081511415610dcf578192505050610e12565b600082511115610e04578082604051602001610dec9291906133c2565b60405160208183030381529060405292505050610e12565b610e0d846117e4565b925050505b919050565b600080610e238561188b565b90506000610e318286611919565b9050600a60009054906101000a900473ffffffffffffffffffffffffffffffffffffffff1673ffffffffffffffffffffffffffffffffffffffff168173ffffffffffffffffffffffffffffffffffffffff16148015610f315750610f30600860008681526020019081526020016000208054610eac90613b87565b80601f0160208091040260200160405190810160405280929190818152602001828054610ed890613b87565b8015610f255780601f10610efa57610100808354040283529160200191610f25565b820191906000526020600020905b815481529060010190602001808311610f0857829003601f168201915b505050505086611993565b5b925050509392505050565b6000600560008473ffffffffffffffffffffffffffffffffffffffff1673ffffffffffffffffffffffffffffffffffffffff16815260200190815260200160002060008373ffffffffffffffffffffffffffffffffffffffff1673ffffffffffffffffffffffffffffffffffffffff16815260200190815260200160002060009054906101000a900460ff16905092915050565b600a60009054906101000a900473ffffffffffffffffffffffffffffffffffffffff1673ffffffffffffffffffffffffffffffffffffffff163373ffffffffffffffffffffffffffffffffffffffff1614611060576040517f08c379a0000000000000000000000000000000000000000000000000000000008152600401611057906136c4565b60405180910390fd5b61106a82826119cf565b5050565b60007f01ffc9a7000000000000000000000000000000000000000000000000000000007bffffffffffffffffffffffffffffffffffffffffffffffffffffffff1916827bffffffffffffffffffffffffffffffffffffffffffffffffffffffff1916149050919050565b60008073ffffffffffffffffffffffffffffffffffffffff166002600084815260200190815260200160002060009054906101000a900473ffffffffffffffffffffffffffffffffffffffff1673ffffffffffffffffffffffffffffffffffffffff1614159050919050565b600033905090565b816004600083815260200190815260200160002060006101000a81548173ffffffffffffffffffffffffffffffffffffffff021916908373ffffffffffffffffffffffffffffffffffffffff160217905550808273ffffffffffffffffffffffffffffffffffffffff166111bf836108e6565b73ffffffffffffffffffffffffffffffffffffffff167f8c5be1e5ebec7d5bd14f71427d1e84f3dd0314c0f7b2291e5b200ac8c7c3b92560405160405180910390a45050565b6000611210826110d8565b61124f576040517f08c379a0000000000000000000000000000000000000000000000000000000008152600401611246906136e4565b60405180910390fd5b600061125a836108e6565b90508073ffffffffffffffffffffffffffffffffffffffff168473ffffffffffffffffffffffffffffffffffffffff1614806112c957508373ffffffffffffffffffffffffffffffffffffffff166112b184610687565b73ffffffffffffffffffffffffffffffffffffffff16145b806112da57506112d98185610f3c565b5b91505092915050565b8273ffffffffffffffffffffffffffffffffffffffff16611303826108e6565b73ffffffffffffffffffffffffffffffffffffffff1614611359576040517f08c379a000000000000000000000000000000000000000000000000000000000815260040161135090613844565b60405180910390fd5b600073ffffffffffffffffffffffffffffffffffffffff168273ffffffffffffffffffffffffffffffffffffffff1614156113c9576040517f08c379a00000000000000000000000000000000000000000000000000000000081526004016113c090613664565b60405180910390fd5b6113d4838383611ac4565b6113df60008261114c565b6001600360008573ffffffffffffffffffffffffffffffffffffffff1673ffffffffffffffffffffffffffffffffffffffff168152602001908152602001600020600082825461142f9190613a86565b925050819055506001600360008473ffffffffffffffffffffffffffffffffffffffff1673ffffffffffffffffffffffffffffffffffffffff168152602001908152602001600020600082825461148691906139ff565b92505081905550816002600083815260200190815260200160002060006101000a81548173ffffffffffffffffffffffffffffffffffffffff021916908373ffffffffffffffffffffffffffffffffffffffff160217905550808273ffffffffffffffffffffffffffffffffffffffff168473ffffffffffffffffffffffffffffffffffffffff167fddf252ad1be2c89b69c2b068fc378daa952ba7f163c4a11628f55a4df523b3ef60405160405180910390a4505050565b600a60009054906101000a900473ffffffffffffffffffffffffffffffffffffffff1673ffffffffffffffffffffffffffffffffffffffff163373ffffffffffffffffffffffffffffffffffffffff16146115cf576040517f08c379a00000000000000000000000000000000000000000000000000000000081526004016115c6906137c4565b60405180910390fd5b60006008600085815260200190815260200160002080546115ef90613b87565b905014611631576040517f08c379a000000000000000000000000000000000000000000000000000000000815260040161162890613624565b60405180910390fd5b600061163c8361188b565b9050600061164a8284611919565b9050600a60009054906101000a900473ffffffffffffffffffffffffffffffffffffffff1673ffffffffffffffffffffffffffffffffffffffff168173ffffffffffffffffffffffffffffffffffffffff16146116dc576040517f08c379a00000000000000000000000000000000000000000000000000000000081526004016116d3906135c4565b60405180910390fd5b826008600087815260200190815260200160002090805190602001906117039291906121ed565b5084600a60009054906101000a900473ffffffffffffffffffffffffffffffffffffffff1673ffffffffffffffffffffffffffffffffffffffff167ff4b7ab5b8fc49d6d35d323cae6a96e1441b461f862dfc5aff92e806e2839b5b060405160405180910390a35050505050565b61177c8484846112e3565b61178884848484611ac9565b6117c7576040517f08c379a00000000000000000000000000000000000000000000000000000000081526004016117be90613604565b60405180910390fd5b50505050565b606060405180602001604052806000815250905090565b60606117ef826110d8565b61182e576040517f08c379a000000000000000000000000000000000000000000000000000000000815260040161182590613864565b60405180910390fd5b60006118386117cd565b905060008151116118585760405180602001604052806000815250611883565b8061186284611c60565b6040516020016118739291906133c2565b6040516020818303038152906040525b915050919050565b60006007547f1e42c447b01f5573e84d49a0ca5625af0baaf3c2e093f2bd448e06d657f3582e308460200151856040015186606001516040516020016118d59594939291906134ba565b604051602081830303815290604052805190602001206040516020016118fc9291906133e6565b604051602081830303815290604052805190602001209050919050565b6000604182511461195f576040517f08c379a0000000000000000000000000000000000000000000000000000000008152600401611956906135e4565b60405180910390fd5b60008060006020850151925060408501519150606085015160001a905061198886828585611e0d565b935050505092915050565b600081518351146119a757600090506119c9565b6000806000855190506020860192506020850191508082208184201493505050505b92915050565b60008111611a12576040517f08c379a0000000000000000000000000000000000000000000000000000000008152600401611a09906138c4565b60405180910390fd5b60005b81811015611abf57611a2933600954611f98565b611a94600954848381518110611a68577f4e487b7100000000000000000000000000000000000000000000000000000000600052603260045260246000fd5b6020026020010151604051602001611a8091906133ab565b604051602081830303815290604052612166565b60096000815480929190611aa790613bb9565b91905055508080611ab790613bb9565b915050611a15565b505050565b505050565b6000611aea8473ffffffffffffffffffffffffffffffffffffffff166121da565b15611c53578373ffffffffffffffffffffffffffffffffffffffff1663150b7a02611b13611144565b8786866040518563ffffffff1660e01b8152600401611b359493929190613438565b602060405180830381600087803b158015611b4f57600080fd5b505af1925050508015611b8057506040513d601f19601f82011682018060405250810190611b7d919061279e565b60015b611c03573d8060008114611bb0576040519150601f19603f3d011682016040523d82523d6000602084013e611bb5565b606091505b50600081511415611bfb576040517f08c379a0000000000000000000000000000000000000000000000000000000008152600401611bf290613604565b60405180910390fd5b805181602001fd5b63150b7a0260e01b7bffffffffffffffffffffffffffffffffffffffffffffffffffffffff1916817bffffffffffffffffffffffffffffffffffffffffffffffffffffffff191614915050611c58565b600190505b949350505050565b60606000821415611ca8576040518060400160405280600181526020017f30000000000000000000000000000000000000000000000000000000000000008152509050611e08565b600082905060005b60008214611cda578080611cc390613bb9565b915050600a82611cd39190613a55565b9150611cb0565b60008167ffffffffffffffff811115611d1c577f4e487b7100000000000000000000000000000000000000000000000000000000600052604160045260246000fd5b6040519080825280601f01601f191660200182016040528015611d4e5781602001600182028036833780820191505090505b5090505b60008514611e0157600182611d679190613a86565b9150600a85611d769190613c0c565b6030611d8291906139ff565b60f81b818381518110611dbe577f4e487b7100000000000000000000000000000000000000000000000000000000600052603260045260246000fd5b60200101907effffffffffffffffffffffffffffffffffffffffffffffffffffffffffffff1916908160001a905350600a85611dfa9190613a55565b9450611d52565b8093505050505b919050565b60007f7fffffffffffffffffffffffffffffff5d576e7357a4501ddfe92f46681b20a08260001c1115611e75576040517f08c379a0000000000000000000000000000000000000000000000000000000008152600401611e6c906136a4565b60405180910390fd5b601b8460ff161480611e8a5750601c8460ff16145b611ec9576040517f08c379a0000000000000000000000000000000000000000000000000000000008152600401611ec090613784565b60405180910390fd5b600060018686868660405160008152602001604052604051611eee949392919061351b565b6020604051602081039080840390855afa158015611f10573d6000803e3d6000fd5b505050602060405103519050600073ffffffffffffffffffffffffffffffffffffffff168173ffffffffffffffffffffffffffffffffffffffff161415611f8c576040517f08c379a0000000000000000000000000000000000000000000000000000000008152600401611f83906135a4565b60405180910390fd5b80915050949350505050565b600073ffffffffffffffffffffffffffffffffffffffff168273ffffffffffffffffffffffffffffffffffffffff161415612008576040517f08c379a0000000000000000000000000000000000000000000000000000000008152600401611fff906137a4565b60405180910390fd5b612011816110d8565b15612051576040517f08c379a000000000000000000000000000000000000000000000000000000000815260040161204890613644565b60405180910390fd5b61205d60008383611ac4565b6001600360008473ffffffffffffffffffffffffffffffffffffffff1673ffffffffffffffffffffffffffffffffffffffff16815260200190815260200160002060008282546120ad91906139ff565b92505081905550816002600083815260200190815260200160002060006101000a81548173ffffffffffffffffffffffffffffffffffffffff021916908373ffffffffffffffffffffffffffffffffffffffff160217905550808273ffffffffffffffffffffffffffffffffffffffff16600073ffffffffffffffffffffffffffffffffffffffff167fddf252ad1be2c89b69c2b068fc378daa952ba7f163c4a11628f55a4df523b3ef60405160405180910390a45050565b61216f826110d8565b6121ae576040517f08c379a00000000000000000000000000000000000000000000000000000000081526004016121a590613764565b60405180910390fd5b806006600084815260200190815260200160002090805190602001906121d5929190612273565b505050565b600080823b905060008111915050919050565b8280546121f990613b87565b90600052602060002090601f01602090048101928261221b5760008555612262565b82601f1061223457805160ff1916838001178555612262565b82800160010185558215612262579182015b82811115612261578251825591602001919060010190612246565b5b50905061226f91906122f9565b5090565b82805461227f90613b87565b90600052602060002090601f0160209004810192826122a157600085556122e8565b82601f106122ba57805160ff19168380011785556122e8565b828001600101855582156122e8579182015b828111156122e75782518255916020019190600101906122cc565b5b5090506122f591906122f9565b5090565b5b808211156123125760008160009055506001016122fa565b5090565b600061232961232484613930565b6138ff565b9050808382526020820190508260005b85811015612369578135850161234f8882612497565b845260208401935060208301925050600181019050612339565b5050509392505050565b60006123866123818461395c565b6138ff565b90508281526020810184848401111561239e57600080fd5b6123a9848285613b45565b509392505050565b60006123c46123bf8461398c565b6138ff565b9050828152602081018484840111156123dc57600080fd5b6123e7848285613b45565b509392505050565b6000813590506123fe81613d0a565b92915050565b600082601f83011261241557600080fd5b8135612425848260208601612316565b91505092915050565b60008135905061243d81613d21565b92915050565b60008135905061245281613d38565b92915050565b60008151905061246781613d38565b92915050565b600082601f83011261247e57600080fd5b813561248e848260208601612373565b91505092915050565b600082601f8301126124a857600080fd5b81356124b88482602086016123b1565b91505092915050565b6000608082840312156124d357600080fd5b6124dd60806138ff565b905060006124ed848285016123ef565b600083015250602082013567ffffffffffffffff81111561250d57600080fd5b61251984828501612497565b602083015250604061252d848285016123ef565b604083015250606082013567ffffffffffffffff81111561254d57600080fd5b61255984828501612497565b60608301525092915050565b60008135905061257481613d4f565b92915050565b60006020828403121561258c57600080fd5b600061259a848285016123ef565b91505092915050565b600080604083850312156125b657600080fd5b60006125c4858286016123ef565b92505060206125d5858286016123ef565b9150509250929050565b6000806000606084860312156125f457600080fd5b6000612602868287016123ef565b9350506020612613868287016123ef565b925050604061262486828701612565565b9150509250925092565b6000806000806080858703121561264457600080fd5b6000612652878288016123ef565b9450506020612663878288016123ef565b935050604061267487828801612565565b925050606085013567ffffffffffffffff81111561269157600080fd5b61269d8782880161246d565b91505092959194509250565b600080604083850312156126bc57600080fd5b60006126ca858286016123ef565b92505060206126db8582860161242e565b9150509250929050565b600080604083850312156126f857600080fd5b6000612706858286016123ef565b925050602061271785828601612565565b9150509250929050565b6000806040838503121561273457600080fd5b600083013567ffffffffffffffff81111561274e57600080fd5b61275a85828601612404565b925050602061276b85828601612565565b9150509250929050565b60006020828403121561278757600080fd5b600061279584828501612443565b91505092915050565b6000602082840312156127b057600080fd5b60006127be84828501612458565b91505092915050565b6000806000606084860312156127dc57600080fd5b600084013567ffffffffffffffff8111156127f657600080fd5b612802868287016124c1565b935050602084013567ffffffffffffffff81111561281f57600080fd5b61282b8682870161246d565b925050604061283c86828701612565565b9150509250925092565b60006020828403121561285857600080fd5b600061286684828501612565565b91505092915050565b60008060006060848603121561288457600080fd5b600061289286828701612565565b935050602084013567ffffffffffffffff8111156128af57600080fd5b6128bb868287016124c1565b925050604084013567ffffffffffffffff8111156128d857600080fd5b6128e48682870161246d565b9150509250925092565b6128f781613aba565b82525050565b61290681613acc565b82525050565b61291581613ad8565b82525050565b61292c61292782613ad8565b613c02565b82525050565b600061293d826139bc565b61294781856139d2565b9350612957818560208601613b54565b61296081613cf9565b840191505092915050565b6000612976826139c7565b61298081856139e3565b9350612990818560208601613b54565b61299981613cf9565b840191505092915050565b60006129af826139c7565b6129b981856139f4565b93506129c9818560208601613b54565b80840191505092915050565b60006129e26018836139e3565b91507f45434453413a20696e76616c6964207369676e617475726500000000000000006000830152602082019050919050565b6000612a22602b836139e3565b91507f455243373231457874656e73696f6e733a20617274697374207369676e61747560008301527f7265206d69736d617463680000000000000000000000000000000000000000006020830152604082019050919050565b6000612a88601f836139e3565b91507f45434453413a20696e76616c6964207369676e6174757265206c656e677468006000830152602082019050919050565b6000612ac86032836139e3565b91507f4552433732313a207472616e7366657220746f206e6f6e20455243373231526560008301527f63656976657220696d706c656d656e74657200000000000000000000000000006020830152604082019050919050565b6000612b2e602e836139e3565b91507f455243373231457874656e73696f6e733a207468697320746f6b656e2069732060008301527f616c7265616479207369676e65640000000000000000000000000000000000006020830152604082019050919050565b6000612b94601c836139e3565b91507f4552433732313a20746f6b656e20616c7265616479206d696e746564000000006000830152602082019050919050565b6000612bd46002836139f4565b91507f19010000000000000000000000000000000000000000000000000000000000006000830152600282019050919050565b6000612c146024836139e3565b91507f4552433732313a207472616e7366657220746f20746865207a65726f2061646460008301527f72657373000000000000000000000000000000000000000000000000000000006020830152604082019050919050565b6000612c7a6019836139e3565b91507f4552433732313a20617070726f766520746f2063616c6c6572000000000000006000830152602082019050919050565b6000612cba6022836139e3565b91507f45434453413a20696e76616c6964207369676e6174757265202773272076616c60008301527f75650000000000000000000000000000000000000000000000000000000000006020830152604082019050919050565b6000612d206018836139e3565b91507f6f6e6c792074686520617274697374206d6179206d696e7400000000000000006000830152602082019050919050565b6000612d60602c836139e3565b91507f4552433732313a206f70657261746f7220717565727920666f72206e6f6e657860008301527f697374656e7420746f6b656e00000000000000000000000000000000000000006020830152604082019050919050565b6000612dc66038836139e3565b91507f4552433732313a20617070726f76652063616c6c6572206973206e6f74206f7760008301527f6e6572206e6f7220617070726f76656420666f7220616c6c00000000000000006020830152604082019050919050565b6000612e2c602a836139e3565b91507f4552433732313a2062616c616e636520717565727920666f7220746865207a6560008301527f726f2061646472657373000000000000000000000000000000000000000000006020830152604082019050919050565b6000612e926029836139e3565b91507f4552433732313a206f776e657220717565727920666f72206e6f6e657869737460008301527f656e7420746f6b656e00000000000000000000000000000000000000000000006020830152604082019050919050565b6000612ef8602e836139e3565b91507f45524337323155524953746f726167653a2055524920736574206f66206e6f6e60008301527f6578697374656e7420746f6b656e0000000000000000000000000000000000006020830152604082019050919050565b6000612f5e6022836139e3565b91507f45434453413a20696e76616c6964207369676e6174757265202776272076616c60008301527f75650000000000000000000000000000000000000000000000000000000000006020830152604082019050919050565b6000612fc46020836139e3565b91507f4552433732313a206d696e7420746f20746865207a65726f20616464726573736000830152602082019050919050565b60006130046035836139e3565b91507f455243373231457874656e73696f6e733a206f6e6c792074686520617274697360008301527f74206d6179207369676e20746865697220776f726b00000000000000000000006020830152604082019050919050565b600061306a6031836139e3565b91507f45524337323155524953746f726167653a2055524920717565727920666f722060008301527f6e6f6e6578697374656e7420746f6b656e0000000000000000000000000000006020830152604082019050919050565b60006130d0602c836139e3565b91507f4552433732313a20617070726f76656420717565727920666f72206e6f6e657860008301527f697374656e7420746f6b656e00000000000000000000000000000000000000006020830152604082019050919050565b60006131366031836139e3565b91507f455243373231457874656e73696f6e733a206e6f207369676e6174757265206560008301527f786973747320666f7220746869732049640000000000000000000000000000006020830152604082019050919050565b600061319c6029836139e3565b91507f4552433732313a207472616e73666572206f6620746f6b656e2074686174206960008301527f73206e6f74206f776e00000000000000000000000000000000000000000000006020830152604082019050919050565b6000613202602f836139e3565b91507f4552433732314d657461646174613a2055524920717565727920666f72206e6f60008301527f6e6578697374656e7420746f6b656e00000000000000000000000000000000006020830152604082019050919050565b60006132686021836139e3565b91507f4552433732313a20617070726f76616c20746f2063757272656e74206f776e6560008301527f72000000000000000000000000000000000000000000000000000000000000006020830152604082019050919050565b60006132ce6031836139e3565b91507f4552433732313a207472616e736665722063616c6c6572206973206e6f74206f60008301527f776e6572206e6f7220617070726f7665640000000000000000000000000000006020830152604082019050919050565b6000613334603e836139e3565b91507f455243373231457874656e73696f6e733a207468652065646974696f6e20737560008301527f70706c79206973206e6f742073657420746f206d6f7265207468616e203000006020830152604082019050919050565b61339681613b2e565b82525050565b6133a581613b38565b82525050565b60006133b782846129a4565b915081905092915050565b60006133ce82856129a4565b91506133da82846129a4565b91508190509392505050565b60006133f182612bc7565b91506133fd828561291b565b60208201915061340d828461291b565b6020820191508190509392505050565b600060208201905061343260008301846128ee565b92915050565b600060808201905061344d60008301876128ee565b61345a60208301866128ee565b613467604083018561338d565b81810360608301526134798184612932565b905095945050505050565b600060208201905061349960008301846128fd565b92915050565b60006020820190506134b4600083018461290c565b92915050565b600060a0820190506134cf600083018861290c565b6134dc60208301876128ee565b81810360408301526134ee818661296b565b90506134fd60608301856128ee565b818103608083015261350f818461296b565b90509695505050505050565b6000608082019050613530600083018761290c565b61353d602083018661339c565b61354a604083018561290c565b613557606083018461290c565b95945050505050565b6000602082019050818103600083015261357a8184612932565b905092915050565b6000602082019050818103600083015261359c818461296b565b905092915050565b600060208201905081810360008301526135bd816129d5565b9050919050565b600060208201905081810360008301526135dd81612a15565b9050919050565b600060208201905081810360008301526135fd81612a7b565b9050919050565b6000602082019050818103600083015261361d81612abb565b9050919050565b6000602082019050818103600083015261363d81612b21565b9050919050565b6000602082019050818103600083015261365d81612b87565b9050919050565b6000602082019050818103600083015261367d81612c07565b9050919050565b6000602082019050818103600083015261369d81612c6d565b9050919050565b600060208201905081810360008301526136bd81612cad565b9050919050565b600060208201905081810360008301526136dd81612d13565b9050919050565b600060208201905081810360008301526136fd81612d53565b9050919050565b6000602082019050818103600083015261371d81612db9565b9050919050565b6000602082019050818103600083015261373d81612e1f565b9050919050565b6000602082019050818103600083015261375d81612e85565b9050919050565b6000602082019050818103600083015261377d81612eeb565b9050919050565b6000602082019050818103600083015261379d81612f51565b9050919050565b600060208201905081810360008301526137bd81612fb7565b9050919050565b600060208201905081810360008301526137dd81612ff7565b9050919050565b600060208201905081810360008301526137fd8161305d565b9050919050565b6000602082019050818103600083015261381d816130c3565b9050919050565b6000602082019050818103600083015261383d81613129565b9050919050565b6000602082019050818103600083015261385d8161318f565b9050919050565b6000602082019050818103600083015261387d816131f5565b9050919050565b6000602082019050818103600083015261389d8161325b565b9050919050565b600060208201905081810360008301526138bd816132c1565b9050919050565b600060208201905081810360008301526138dd81613327565b9050919050565b60006020820190506138f9600083018461338d565b92915050565b6000604051905081810181811067ffffffffffffffff8211171561392657613925613cca565b5b8060405250919050565b600067ffffffffffffffff82111561394b5761394a613cca565b5b602082029050602081019050919050565b600067ffffffffffffffff82111561397757613976613cca565b5b601f19601f8301169050602081019050919050565b600067ffffffffffffffff8211156139a7576139a6613cca565b5b601f19601f8301169050602081019050919050565b600081519050919050565b600081519050919050565b600082825260208201905092915050565b600082825260208201905092915050565b600081905092915050565b6000613a0a82613b2e565b9150613a1583613b2e565b9250827fffffffffffffffffffffffffffffffffffffffffffffffffffffffffffffffff03821115613a4a57613a49613c3d565b5b828201905092915050565b6000613a6082613b2e565b9150613a6b83613b2e565b925082613a7b57613a7a613c6c565b5b828204905092915050565b6000613a9182613b2e565b9150613a9c83613b2e565b925082821015613aaf57613aae613c3d565b5b828203905092915050565b6000613ac582613b0e565b9050919050565b60008115159050919050565b6000819050919050565b60007fffffffff0000000000000000000000000000000000000000000000000000000082169050919050565b600073ffffffffffffffffffffffffffffffffffffffff82169050919050565b6000819050919050565b600060ff82169050919050565b82818337600083830152505050565b60005b83811015613b72578082015181840152602081019050613b57565b83811115613b81576000848401525b50505050565b60006002820490506001821680613b9f57607f821691505b60208210811415613bb357613bb2613c9b565b5b50919050565b6000613bc482613b2e565b91507fffffffffffffffffffffffffffffffffffffffffffffffffffffffffffffffff821415613bf757613bf6613c3d565b5b600182019050919050565b6000819050919050565b6000613c1782613b2e565b9150613c2283613b2e565b925082613c3257613c31613c6c565b5b828206905092915050565b7f4e487b7100000000000000000000000000000000000000000000000000000000600052601160045260246000fd5b7f4e487b7100000000000000000000000000000000000000000000000000000000600052601260045260246000fd5b7f4e487b7100000000000000000000000000000000000000000000000000000000600052602260045260246000fd5b7f4e487b7100000000000000000000000000000000000000000000000000000000600052604160045260246000fd5b6000601f19601f8301169050919050565b613d1381613aba565b8114613d1e57600080fd5b50565b613d2a81613acc565b8114613d3557600080fd5b50565b613d4181613ae2565b8114613d4c57600080fd5b50565b613d5881613b2e565b8114613d6357600080fd5b5056fea26469706673582212202cebc4f26da719b064caacc96d6c76cb85293d6b681ca305035de93cc9291ba364736f6c63430008000033",
  "linkReferences": {},
  "deployedLinkReferences": {}
}