{
  "_format": "hh-sol-artifact-1",
  "contractName": "OZLinearVoting",
  "sourceName": "contracts/votingStrategies/OZLinearVoting.sol",
  "abi": [
    {
      "inputs": [
        {
          "internalType": "address",
          "name": "_owner",
          "type": "address"
        },
        {
          "internalType": "contract ERC20Votes",
          "name": "_governanceToken",
          "type": "address"
        },
        {
          "internalType": "address",
          "name": "_UsulModule",
          "type": "address"
        },
        {
          "internalType": "uint256",
          "name": "_votingPeriod",
          "type": "uint256"
        },
        {
          "internalType": "uint256",
          "name": "quorumNumerator_",
          "type": "uint256"
        },
        {
          "internalType": "uint256",
          "name": "_timeLockPeriod",
          "type": "uint256"
        },
        {
          "internalType": "string",
          "name": "name_",
          "type": "string"
        }
      ],
      "stateMutability": "nonpayable",
      "type": "constructor"
    },
    {
      "anonymous": false,
      "inputs": [
        {
          "indexed": true,
          "internalType": "address",
          "name": "previousOwner",
          "type": "address"
        },
        {
          "indexed": true,
          "internalType": "address",
          "name": "newOwner",
          "type": "address"
        }
      ],
      "name": "OwnershipTransferred",
      "type": "event"
    },
    {
      "anonymous": false,
      "inputs": [
        {
          "indexed": false,
          "internalType": "uint256",
          "name": "proposalId",
          "type": "uint256"
        },
        {
          "indexed": false,
          "internalType": "uint256",
          "name": "timestamp",
          "type": "uint256"
        }
      ],
      "name": "ProposalReceived",
      "type": "event"
    },
    {
      "anonymous": false,
      "inputs": [
        {
          "indexed": false,
          "internalType": "uint256",
          "name": "oldQuorumNumerator",
          "type": "uint256"
        },
        {
          "indexed": false,
          "internalType": "uint256",
          "name": "newQuorumNumerator",
          "type": "uint256"
        }
      ],
      "name": "QuorumNumeratorUpdated",
      "type": "event"
    },
    {
      "anonymous": false,
      "inputs": [
        {
          "indexed": true,
          "internalType": "address",
          "name": "UsulModule",
          "type": "address"
        },
        {
          "indexed": true,
          "internalType": "address",
          "name": "owner",
          "type": "address"
        }
      ],
      "name": "StrategySetup",
      "type": "event"
    },
    {
      "anonymous": false,
      "inputs": [
        {
          "indexed": false,
          "internalType": "uint256",
          "name": "previousTimeLock",
          "type": "uint256"
        },
        {
          "indexed": false,
          "internalType": "uint256",
          "name": "newTimeLockPeriod",
          "type": "uint256"
        }
      ],
      "name": "TimeLockUpdated",
      "type": "event"
    },
    {
      "anonymous": false,
      "inputs": [
        {
          "indexed": true,
          "internalType": "address",
          "name": "previousUsul",
          "type": "address"
        },
        {
          "indexed": true,
          "internalType": "address",
          "name": "newUsul",
          "type": "address"
        }
      ],
      "name": "UsulSet",
      "type": "event"
    },
    {
      "anonymous": false,
      "inputs": [
        {
          "indexed": false,
          "internalType": "uint256",
          "name": "proposalId",
          "type": "uint256"
        },
        {
          "indexed": false,
          "internalType": "uint256",
          "name": "timestamp",
          "type": "uint256"
        }
      ],
      "name": "VoteFinalized",
      "type": "event"
    },
    {
      "anonymous": false,
      "inputs": [
        {
          "indexed": false,
          "internalType": "address",
          "name": "voter",
          "type": "address"
        },
        {
          "indexed": false,
          "internalType": "uint256",
          "name": "proposalId",
          "type": "uint256"
        },
        {
          "indexed": false,
          "internalType": "uint8",
          "name": "support",
          "type": "uint8"
        }
      ],
      "name": "Voted",
      "type": "event"
    },
    {
      "anonymous": false,
      "inputs": [
        {
          "indexed": false,
          "internalType": "uint256",
          "name": "previousVotingPeriod",
          "type": "uint256"
        },
        {
          "indexed": false,
          "internalType": "uint256",
          "name": "newVotingPeriod",
          "type": "uint256"
        }
      ],
      "name": "VotingPeriodUpdated",
      "type": "event"
    },
    {
      "inputs": [],
      "name": "UsulModule",
      "outputs": [
        {
          "internalType": "address",
          "name": "",
          "type": "address"
        }
      ],
      "stateMutability": "view",
      "type": "function"
    },
    {
      "inputs": [],
      "name": "VOTE_TYPEHASH",
      "outputs": [
        {
          "internalType": "bytes32",
          "name": "",
          "type": "bytes32"
        }
      ],
      "stateMutability": "view",
      "type": "function"
    },
    {
      "inputs": [
        {
          "internalType": "address",
          "name": "delegatee",
          "type": "address"
        },
        {
          "internalType": "uint256",
          "name": "proposalId",
          "type": "uint256"
        }
      ],
      "name": "calculateWeight",
      "outputs": [
        {
          "internalType": "uint256",
          "name": "",
          "type": "uint256"
        }
      ],
      "stateMutability": "view",
      "type": "function"
    },
    {
      "inputs": [
        {
          "internalType": "uint256",
          "name": "proposalId",
          "type": "uint256"
        }
      ],
      "name": "finalizeStrategy",
      "outputs": [],
      "stateMutability": "nonpayable",
      "type": "function"
    },
    {
      "inputs": [],
      "name": "governanceToken",
      "outputs": [
        {
          "internalType": "contract ERC20Votes",
          "name": "",
          "type": "address"
        }
      ],
      "stateMutability": "view",
      "type": "function"
    },
    {
      "inputs": [
        {
          "internalType": "uint256",
          "name": "proposalId",
          "type": "uint256"
        },
        {
          "internalType": "address",
          "name": "account",
          "type": "address"
        }
      ],
      "name": "hasVoted",
      "outputs": [
        {
          "internalType": "bool",
          "name": "",
          "type": "bool"
        }
      ],
      "stateMutability": "view",
      "type": "function"
    },
    {
      "inputs": [
        {
          "internalType": "uint256",
          "name": "proposalId",
          "type": "uint256"
        }
      ],
      "name": "isPassed",
      "outputs": [
        {
          "internalType": "bool",
          "name": "",
          "type": "bool"
        }
      ],
      "stateMutability": "view",
      "type": "function"
    },
    {
      "inputs": [],
      "name": "name",
      "outputs": [
        {
          "internalType": "string",
          "name": "",
          "type": "string"
        }
      ],
      "stateMutability": "view",
      "type": "function"
    },
    {
      "inputs": [],
      "name": "owner",
      "outputs": [
        {
          "internalType": "address",
          "name": "",
          "type": "address"
        }
      ],
      "stateMutability": "view",
      "type": "function"
    },
    {
      "inputs": [
        {
          "internalType": "uint256",
          "name": "",
          "type": "uint256"
        }
      ],
      "name": "proposals",
      "outputs": [
        {
          "internalType": "uint256",
          "name": "yesVotes",
          "type": "uint256"
        },
        {
          "internalType": "uint256",
          "name": "noVotes",
          "type": "uint256"
        },
        {
          "internalType": "uint256",
          "name": "abstainVotes",
          "type": "uint256"
        },
        {
          "internalType": "uint256",
          "name": "deadline",
          "type": "uint256"
        },
        {
          "internalType": "uint256",
          "name": "startBlock",
          "type": "uint256"
        }
      ],
      "stateMutability": "view",
      "type": "function"
    },
    {
      "inputs": [
        {
          "internalType": "uint256",
          "name": "blockNumber",
          "type": "uint256"
        }
      ],
      "name": "quorum",
      "outputs": [
        {
          "internalType": "uint256",
          "name": "",
          "type": "uint256"
        }
      ],
      "stateMutability": "view",
      "type": "function"
    },
    {
      "inputs": [],
      "name": "quorumDenominator",
      "outputs": [
        {
          "internalType": "uint256",
          "name": "",
          "type": "uint256"
        }
      ],
      "stateMutability": "pure",
      "type": "function"
    },
    {
      "inputs": [],
      "name": "quorumNumerator",
      "outputs": [
        {
          "internalType": "uint256",
          "name": "",
          "type": "uint256"
        }
      ],
      "stateMutability": "view",
      "type": "function"
    },
    {
      "inputs": [
        {
          "internalType": "bytes",
          "name": "data",
          "type": "bytes"
        }
      ],
      "name": "receiveProposal",
      "outputs": [],
      "stateMutability": "nonpayable",
      "type": "function"
    },
    {
      "inputs": [],
      "name": "renounceOwnership",
      "outputs": [],
      "stateMutability": "nonpayable",
      "type": "function"
    },
    {
      "inputs": [
        {
          "internalType": "bytes",
          "name": "initParams",
          "type": "bytes"
        }
      ],
      "name": "setUp",
      "outputs": [],
      "stateMutability": "nonpayable",
      "type": "function"
    },
    {
      "inputs": [
        {
          "internalType": "address",
          "name": "_Usul",
          "type": "address"
        }
      ],
      "name": "setUsul",
      "outputs": [],
      "stateMutability": "nonpayable",
      "type": "function"
    },
    {
      "inputs": [],
      "name": "timeLockPeriod",
      "outputs": [
        {
          "internalType": "uint256",
          "name": "",
          "type": "uint256"
        }
      ],
      "stateMutability": "view",
      "type": "function"
    },
    {
      "inputs": [
        {
          "internalType": "address",
          "name": "newOwner",
          "type": "address"
        }
      ],
      "name": "transferOwnership",
      "outputs": [],
      "stateMutability": "nonpayable",
      "type": "function"
    },
    {
      "inputs": [
        {
          "internalType": "uint256",
          "name": "newQuorumNumerator",
          "type": "uint256"
        }
      ],
      "name": "updateQuorumNumerator",
      "outputs": [],
      "stateMutability": "nonpayable",
      "type": "function"
    },
    {
      "inputs": [
        {
          "internalType": "uint256",
          "name": "newTimeLockPeriod",
          "type": "uint256"
        }
      ],
      "name": "updateTimeLockPeriod",
      "outputs": [],
      "stateMutability": "nonpayable",
      "type": "function"
    },
    {
      "inputs": [
        {
          "internalType": "uint256",
          "name": "newPeriod",
          "type": "uint256"
        }
      ],
      "name": "updateVotingPeriod",
      "outputs": [],
      "stateMutability": "nonpayable",
      "type": "function"
    },
    {
      "inputs": [],
      "name": "version",
      "outputs": [
        {
          "internalType": "string",
          "name": "",
          "type": "string"
        }
      ],
      "stateMutability": "view",
      "type": "function"
    },
    {
      "inputs": [
        {
          "internalType": "uint256",
          "name": "proposalId",
          "type": "uint256"
        },
        {
          "internalType": "uint8",
          "name": "support",
          "type": "uint8"
        }
      ],
      "name": "vote",
      "outputs": [],
      "stateMutability": "nonpayable",
      "type": "function"
    },
    {
      "inputs": [
        {
          "internalType": "uint256",
          "name": "proposalId",
          "type": "uint256"
        },
        {
          "internalType": "uint8",
          "name": "support",
          "type": "uint8"
        },
        {
          "internalType": "bytes",
          "name": "signature",
          "type": "bytes"
        }
      ],
      "name": "voteSignature",
      "outputs": [],
      "stateMutability": "nonpayable",
      "type": "function"
    },
    {
      "inputs": [],
      "name": "votingPeriod",
      "outputs": [
        {
          "internalType": "uint256",
          "name": "",
          "type": "uint256"
        }
      ],
      "stateMutability": "view",
      "type": "function"
    }
  ],
  "bytecode": "0x60806040523480156200001157600080fd5b506040516200282438038062002824833981016040819052620000349162000913565b600087878787878787604051602001620000559796959493929190620009b2565b60408051601f198184030181529190529050620000728162000080565b505050505050505062000aed565b600054610100900460ff16806200009a575060005460ff16155b620000f25760405162461bcd60e51b815260206004820152602e6024820152600080516020620027e483398151915260448201526d191e481a5b9a5d1a585b1a5e995960921b60648201526084015b60405180910390fd5b600054610100900460ff1615801562000115576000805461ffff19166101011790555b60008060008060008060008880602001905181019062000136919062000913565b965096509650965096509650965060018411620001a25760405162461bcd60e51b815260206004820152602360248201527f766f74696e67506572696f64206d7573742062652067726561746572207468616044820152626e203160e81b6064820152608401620000e9565b6001600160a01b038616620001fa5760405162461bcd60e51b815260206004820181905260248201527f696e76616c696420676f7665726e616e636520746f6b656e20616464726573736044820152606401620000e9565b609f80546001600160a01b0319166001600160a01b0388161790556200021f6200030e565b6200024981620002436040805180820190915260018152603160f81b602082015290565b620003c9565b62000254836200048f565b6200025f87620004e5565b6200026c84600162000a23565b609a55606580546001600160a01b0319166001600160a01b0387161790556200029782600162000a23565b609b558051620002af90609c906020840190620007dc565b50866001600160a01b0316856001600160a01b03167f61586574b8b0edca97136ad4cb664eec4742d53de53403d531506632e6342a3960405160405180910390a35050505050505080156200030a576000805461ff00191690555b5050565b600054610100900460ff168062000328575060005460ff16155b6200037c5760405162461bcd60e51b815260206004820152602e6024820152600080516020620027e483398151915260448201526d191e481a5b9a5d1a585b1a5e995960921b6064820152608401620000e9565b600054610100900460ff161580156200039f576000805461ffff19166101011790555b620003a9620005a2565b620003b362000647565b8015620003c6576000805461ff00191690555b50565b600054610100900460ff1680620003e3575060005460ff16155b620004375760405162461bcd60e51b815260206004820152602e6024820152600080516020620027e483398151915260448201526d191e481a5b9a5d1a585b1a5e995960921b6064820152608401620000e9565b600054610100900460ff161580156200045a576000805461ffff19166101011790555b825160208085019190912083519184019190912060669190915560675580156200048a576000805461ff00191690555b505050565b6033546001600160a01b03163314620004da5760405162461bcd60e51b81526020600482018190526024820152600080516020620028048339815191526044820152606401620000e9565b620003c681620006e3565b6033546001600160a01b03163314620005305760405162461bcd60e51b81526020600482018190526024820152600080516020620028048339815191526044820152606401620000e9565b6001600160a01b038116620005975760405162461bcd60e51b815260206004820152602660248201527f4f776e61626c653a206e6577206f776e657220697320746865207a65726f206160448201526564647265737360d01b6064820152608401620000e9565b620003c6816200078a565b600054610100900460ff1680620005bc575060005460ff16155b620006105760405162461bcd60e51b815260206004820152602e6024820152600080516020620027e483398151915260448201526d191e481a5b9a5d1a585b1a5e995960921b6064820152608401620000e9565b600054610100900460ff16158015620003b3576000805461ffff19166101011790558015620003c6576000805461ff001916905550565b600054610100900460ff168062000661575060005460ff16155b620006b55760405162461bcd60e51b815260206004820152602e6024820152600080516020620027e483398151915260448201526d191e481a5b9a5d1a585b1a5e995960921b6064820152608401620000e9565b600054610100900460ff16158015620006d8576000805461ffff19166101011790555b620003b3336200078a565b6064811115620007455760405162461bcd60e51b815260206004820152602660248201527f71756f72756d4e756d657261746f72206f7665722071756f72756d44656e6f6d60448201526534b730ba37b960d11b6064820152608401620000e9565b609e80549082905560408051828152602081018490527f0553476bf02ef2726e8ce5ced78d63e26e602e4a2257b1f559418e24b4633997910160405180910390a15050565b603380546001600160a01b038381166001600160a01b0319831681179093556040519116919082907f8be0079c531659141344cd1fd0a4f28419497f9722a3daafe3b4186f6b6457e090600090a35050565b828054620007ea9062000a84565b90600052602060002090601f0160209004810192826200080e576000855562000859565b82601f106200082957805160ff191683800117855562000859565b8280016001018555821562000859579182015b82811115620008595782518255916020019190600101906200083c565b50620008679291506200086b565b5090565b5b808211156200086757600081556001016200086c565b600082601f8301126200089457600080fd5b81516001600160401b0380821115620008b157620008b162000ac1565b604051601f8301601f19908116603f01168101908282118183101715620008dc57620008dc62000ac1565b81604052838152866020858801011115620008f657600080fd5b6200090984602083016020890162000a51565b9695505050505050565b600080600080600080600060e0888a0312156200092f57600080fd5b87516200093c8162000ad7565b60208901519097506200094f8162000ad7565b6040890151909650620009628162000ad7565b606089015160808a015160a08b015160c08c0151939850919650945092506001600160401b038111156200099557600080fd5b620009a38a828b0162000882565b91505092959891949750929550565b600060018060a01b03808a16835280891660208401528088166040840152508560608301528460808301528360a083015260e060c083015282518060e084015261010062000a07828286016020880162000a51565b80601f19601f8401168501019250505098975050505050505050565b600081600019048311821515161562000a4c57634e487b7160e01b600052601160045260246000fd5b500290565b60005b8381101562000a6e57818101518382015260200162000a54565b8381111562000a7e576000848401525b50505050565b600181811c9082168062000a9957607f821691505b6020821081141562000abb57634e487b7160e01b600052602260045260246000fd5b50919050565b634e487b7160e01b600052604160045260246000fd5b6001600160a01b0381168114620003c657600080fd5b611ce78062000afd6000396000f3fe608060405234801561001057600080fd5b506004361061018e5760003560e01c80637a3ff4d2116100de578063a7713a7011610097578063ef00ef4311610071578063ef00ef43146103d6578063f2fde38b146103e9578063f8ce560a146103fc578063f96dae0a1461040f57600080fd5b8063a7713a70146103a8578063a8a829c1146103b0578063d69be91c146103c357600080fd5b80637a3ff4d21461033057806386522973146103435780638da5cb5b1461036a578063943e82161461037b57806397c3d3341461038e578063a4f9edbf1461039557600080fd5b8063438596321161014b578063715018a611610125578063715018a6146102e1578063747691df146102e957806378446bc11461031457806379bfb0891461031d57600080fd5b8063438596321461026457806349403183146102b157806354fd4d50146102c457600080fd5b8063013cf08b1461019357806302a251a3146101fd57806306f3f9e61461021457806306fdde0314610229578063224f32631461023e57806328c3443c14610251575b600080fd5b6101d06101a13660046119a6565b609d60205260009081526040902080546001820154600283015460038401546004909401549293919290919085565b604080519586526020860194909452928401919091526060830152608082015260a0015b60405180910390f35b610206609a5481565b6040519081526020016101f4565b6102276102223660046119a6565b610422565b005b610231610461565b6040516101f49190611a8b565b61022761024c366004611969565b6104ef565b61022761025f366004611a34565b6105d6565b6102a16102723660046119d8565b6000828152609d602090815260408083206001600160a01b038516845260050190915290205460ff1692915050565b60405190151581526020016101f4565b6102a16102bf3660046119a6565b610651565b6040805180820190915260018152603160f81b6020820152610231565b6102276107ba565b6065546102fc906001600160a01b031681565b6040516001600160a01b0390911681526020016101f4565b610206609b5481565b61022761032b3660046119a6565b6107f0565b61022761033e3660046119a6565b6108a3565b6102067fb780761e36898d7ec1cc0fb66fdd6a8a42e635ee643709d6b20652c68a3b29f581565b6033546001600160a01b03166102fc565b610227610389366004611a08565b61090b565b6064610206565b6102276103a3366004611969565b61091a565b609e54610206565b6102276103be36600461184e565b610b53565b6102066103d136600461193d565b610bcf565b6102276103e43660046119a6565b610c7c565b6102276103f736600461184e565b610ce4565b61020661040a3660046119a6565b610d7c565b609f546102fc906001600160a01b031681565b6033546001600160a01b031633146104555760405162461bcd60e51b815260040161044c90611b0c565b60405180910390fd5b61045e81610e19565b50565b609c805461046e90611c1f565b80601f016020809104026020016040519081016040528092919081815260200182805461049a90611c1f565b80156104e75780601f106104bc576101008083540402835291602001916104e7565b820191906000526020600020905b8154815290600101906020018083116104ca57829003601f168201915b505050505081565b6065546001600160a01b031633146105495760405162461bcd60e51b815260206004820152601a60248201527f6f6e6c79205573756c206d6f64756c65206d617920656e746572000000000000604482015260640161044c565b60008180602001905181019061055f91906119bf565b905042609a5461056f9190611b9a565b6000828152609d602052604090819020600381019290925543600490920191909155517f3aeda78f6230a590817748b94b63d690cec4d1a15d494dfc7006e0a39e77f81a906105ca9083904290918252602082015260400190565b60405180910390a15050565b604080517fb780761e36898d7ec1cc0fb66fdd6a8a42e635ee643709d6b20652c68a3b29f5602082015290810184905260ff8316606082015260009061063e906106389060800160405160208183030381529060405280519060200120610eb7565b83610f05565b905061064b848285610f29565b50505050565b6000818152609d6020526040812060018101549054116106b35760405162461bcd60e51b815260206004820152601d60248201527f6d616a6f7269747920796573566f746573206e6f742072656163686564000000604482015260640161044c565b6000828152609d60205260409020600401546106ce90610d7c565b6000838152609d60205260409020600281015490546106ed9190611b9a565b10156107525760405162461bcd60e51b815260206004820152602e60248201527f612071756f72756d20686173206e6f74206265656e207265616368656420666f60448201526d1c881d1a19481c1c9bdc1bdcd85b60921b606482015260840161044c565b6000828152609d602052604090206003015442116107b25760405162461bcd60e51b815260206004820181905260248201527f766f74696e6720706572696f6420686173206e6f742070617373656420796574604482015260640161044c565b506001919050565b6033546001600160a01b031633146107e45760405162461bcd60e51b815260040161044c90611b0c565b6107ee6000611160565b565b6107f981610651565b1561086857606554609b546040516309fac26960e31b81526004810184905260248101919091526001600160a01b0390911690634fd6134890604401600060405180830381600087803b15801561084f57600080fd5b505af1158015610863573d6000803e3d6000fd5b505050505b604080518281524260208201527f54ffcee03e8b80c05e4d1c55e3dc60602d9082a899e50337b680c9c4c4d80a3a910160405180910390a150565b6033546001600160a01b031633146108cd5760405162461bcd60e51b815260040161044c90611b0c565b609b80549082905560408051828152602081018490527f2a72574d775756e698a258fc07c826b7185131fff8a96b868feacab45fb2343291016105ca565b610916823383610f29565b5050565b600054610100900460ff1680610933575060005460ff16155b61094f5760405162461bcd60e51b815260040161044c90611abe565b600054610100900460ff16158015610971576000805461ffff19166101011790555b600080600080600080600088806020019051810190610990919061186b565b9650965096509650965096509650600184116109fa5760405162461bcd60e51b815260206004820152602360248201527f766f74696e67506572696f64206d7573742062652067726561746572207468616044820152626e203160e81b606482015260840161044c565b6001600160a01b038616610a505760405162461bcd60e51b815260206004820181905260248201527f696e76616c696420676f7665726e616e636520746f6b656e2061646472657373604482015260640161044c565b609f80546001600160a01b0319166001600160a01b038816179055610a736111b2565b610a9a81610a956040805180820190915260018152603160f81b602082015290565b61122d565b610aa383610422565b610aac87610ce4565b610ab7846001611bd4565b609a55606580546001600160a01b0319166001600160a01b038716179055610ae0826001611bd4565b609b558051610af690609c906020840190611749565b50866001600160a01b0316856001600160a01b03167f61586574b8b0edca97136ad4cb664eec4742d53de53403d531506632e6342a3960405160405180910390a3505050505050508015610916576000805461ff00191690555050565b6033546001600160a01b03163314610b7d5760405162461bcd60e51b815260040161044c90611b0c565b606580546001600160a01b038381166001600160a01b0319831681179093556040519116919082907f20c8544544aefaefdf339d996d855f2d4040cf93548344aa7dcb03b19e160cd190600090a35050565b609f546000828152609d60205260408082206004908101549151630748d63560e31b815292936001600160a01b031692633a46b1a892610c25928892016001600160a01b03929092168252602082015260400190565b60206040518083038186803b158015610c3d57600080fd5b505afa158015610c51573d6000803e3d6000fd5b505050506040513d601f19601f82011682018060405250810190610c7591906119bf565b9392505050565b6033546001600160a01b03163314610ca65760405162461bcd60e51b815260040161044c90611b0c565b609a80549082905560408051828152602081018490527fffc708f072ca56e3d45ef0cb288b96cb9378f5f63e1646868bfbc9c38f4263a191016105ca565b6033546001600160a01b03163314610d0e5760405162461bcd60e51b815260040161044c90611b0c565b6001600160a01b038116610d735760405162461bcd60e51b815260206004820152602660248201527f4f776e61626c653a206e6577206f776e657220697320746865207a65726f206160448201526564647265737360d01b606482015260840161044c565b61045e81611160565b60006064609e54609f54604051632394e7a360e21b8152600481018690526001600160a01b0390911690638e539e8c9060240160206040518083038186803b158015610dc757600080fd5b505afa158015610ddb573d6000803e3d6000fd5b505050506040513d601f19601f82011682018060405250810190610dff91906119bf565b610e099190611bd4565b610e139190611bb2565b92915050565b6064811115610e795760405162461bcd60e51b815260206004820152602660248201527f71756f72756d4e756d657261746f72206f7665722071756f72756d44656e6f6d60448201526534b730ba37b960d11b606482015260840161044c565b609e80549082905560408051828152602081018490527f0553476bf02ef2726e8ce5ced78d63e26e602e4a2257b1f559418e24b463399791016105ca565b6000610e13610ec46112b8565b8360405161190160f01b6020820152602281018390526042810182905260009060620160405160208183030381529060405280519060200120905092915050565b6000806000610f148585611338565b91509150610f21816113a8565b509392505050565b6000838152609d6020526040902060030154421115610f8a5760405162461bcd60e51b815260206004820152601860248201527f766f74696e6720706572696f6420686173207061737365640000000000000000604482015260640161044c565b6000838152609d602090815260408083206001600160a01b038616845260050190915290205460ff16156110005760405162461bcd60e51b815260206004820152601760248201527f766f7465722068617320616c726561647920766f746564000000000000000000604482015260640161044c565b6000838152609d602090815260408083206001600160a01b03861684526005019091528120805460ff1916600117905561103a8385610bcf565b905060ff8216611070576000848152609d602052604081206001018054839290611065908490611b9a565b9091555061110f9050565b60ff82166001141561109a576000848152609d602052604081208054839290611065908490611b9a565b60ff8216600214156110c7576000848152609d602052604081206002018054839290611065908490611b9a565b60405162461bcd60e51b815260206004820152601f60248201527f696e76616c69642076616c756520666f7220656e756d20566f74655479706500604482015260640161044c565b604080516001600160a01b03851681526020810186905260ff84168183015290517fcc66c27f993ef125e1b985d84a52726edc66dcc64e94d172f80253e37d5263729181900360600190a150505050565b603380546001600160a01b038381166001600160a01b0319831681179093556040519116919082907f8be0079c531659141344cd1fd0a4f28419497f9722a3daafe3b4186f6b6457e090600090a35050565b600054610100900460ff16806111cb575060005460ff16155b6111e75760405162461bcd60e51b815260040161044c90611abe565b600054610100900460ff16158015611209576000805461ffff19166101011790555b611211611563565b6112196115cd565b801561045e576000805461ff001916905550565b600054610100900460ff1680611246575060005460ff16155b6112625760405162461bcd60e51b815260040161044c90611abe565b600054610100900460ff16158015611284576000805461ffff19166101011790555b825160208085019190912083519184019190912060669190915560675580156112b3576000805461ff00191690555b505050565b60006113337f8b73c3c69bb8fe3d512ecc4cf759cc79239f7b179b0ffacaa9a75d522b39400f6112e760665490565b6067546040805160208101859052908101839052606081018290524660808201523060a082015260009060c0016040516020818303038152906040528051906020012090509392505050565b905090565b60008082516041141561136f5760208301516040840151606085015160001a6113638782858561162d565b945094505050506113a1565b825160401415611399576020830151604084015161138e86838361171a565b9350935050506113a1565b506000905060025b9250929050565b60008160048111156113bc576113bc611c70565b14156113c55750565b60018160048111156113d9576113d9611c70565b14156114275760405162461bcd60e51b815260206004820152601860248201527f45434453413a20696e76616c6964207369676e61747572650000000000000000604482015260640161044c565b600281600481111561143b5761143b611c70565b14156114895760405162461bcd60e51b815260206004820152601f60248201527f45434453413a20696e76616c6964207369676e6174757265206c656e67746800604482015260640161044c565b600381600481111561149d5761149d611c70565b14156114f65760405162461bcd60e51b815260206004820152602260248201527f45434453413a20696e76616c6964207369676e6174757265202773272076616c604482015261756560f01b606482015260840161044c565b600481600481111561150a5761150a611c70565b141561045e5760405162461bcd60e51b815260206004820152602260248201527f45434453413a20696e76616c6964207369676e6174757265202776272076616c604482015261756560f01b606482015260840161044c565b600054610100900460ff168061157c575060005460ff16155b6115985760405162461bcd60e51b815260040161044c90611abe565b600054610100900460ff16158015611219576000805461ffff1916610101179055801561045e576000805461ff001916905550565b600054610100900460ff16806115e6575060005460ff16155b6116025760405162461bcd60e51b815260040161044c90611abe565b600054610100900460ff16158015611624576000805461ffff19166101011790555b61121933611160565b6000807f7fffffffffffffffffffffffffffffff5d576e7357a4501ddfe92f46681b20a08311156116645750600090506003611711565b8460ff16601b1415801561167c57508460ff16601c14155b1561168d5750600090506004611711565b6040805160008082526020820180845289905260ff881692820192909252606081018690526080810185905260019060a0016020604051602081039080840390855afa1580156116e1573d6000803e3d6000fd5b5050604051601f1901519150506001600160a01b03811661170a57600060019250925050611711565b9150600090505b94509492505050565b6000806001600160ff1b03831660ff84901c601b0161173b8782888561162d565b935093505050935093915050565b82805461175590611c1f565b90600052602060002090601f01602090048101928261177757600085556117bd565b82601f1061179057805160ff19168380011785556117bd565b828001600101855582156117bd579182015b828111156117bd5782518255916020019190600101906117a2565b506117c99291506117cd565b5090565b5b808211156117c957600081556001016117ce565b600082601f8301126117f357600080fd5b813561180661180182611b72565b611b41565b81815284602083860101111561181b57600080fd5b816020850160208301376000918101602001919091529392505050565b803560ff8116811461184957600080fd5b919050565b60006020828403121561186057600080fd5b8135610c7581611c9c565b600080600080600080600060e0888a03121561188657600080fd5b875161189181611c9c565b60208901519097506118a281611c9c565b60408901519096506118b381611c9c565b80955050606088015193506080880151925060a0880151915060c088015167ffffffffffffffff8111156118e657600080fd5b8801601f81018a136118f757600080fd5b805161190561180182611b72565b8181528b602083850101111561191a57600080fd5b61192b826020830160208601611bf3565b80935050505092959891949750929550565b6000806040838503121561195057600080fd5b823561195b81611c9c565b946020939093013593505050565b60006020828403121561197b57600080fd5b813567ffffffffffffffff81111561199257600080fd5b61199e848285016117e2565b949350505050565b6000602082840312156119b857600080fd5b5035919050565b6000602082840312156119d157600080fd5b5051919050565b600080604083850312156119eb57600080fd5b8235915060208301356119fd81611c9c565b809150509250929050565b60008060408385031215611a1b57600080fd5b82359150611a2b60208401611838565b90509250929050565b600080600060608486031215611a4957600080fd5b83359250611a5960208501611838565b9150604084013567ffffffffffffffff811115611a7557600080fd5b611a81868287016117e2565b9150509250925092565b6020815260008251806020840152611aaa816040850160208701611bf3565b601f01601f19169190910160400192915050565b6020808252602e908201527f496e697469616c697a61626c653a20636f6e747261637420697320616c72656160408201526d191e481a5b9a5d1a585b1a5e995960921b606082015260800190565b6020808252818101527f4f776e61626c653a2063616c6c6572206973206e6f7420746865206f776e6572604082015260600190565b604051601f8201601f1916810167ffffffffffffffff81118282101715611b6a57611b6a611c86565b604052919050565b600067ffffffffffffffff821115611b8c57611b8c611c86565b50601f01601f191660200190565b60008219821115611bad57611bad611c5a565b500190565b600082611bcf57634e487b7160e01b600052601260045260246000fd5b500490565b6000816000190483118215151615611bee57611bee611c5a565b500290565b60005b83811015611c0e578181015183820152602001611bf6565b8381111561064b5750506000910152565b600181811c90821680611c3357607f821691505b60208210811415611c5457634e487b7160e01b600052602260045260246000fd5b50919050565b634e487b7160e01b600052601160045260246000fd5b634e487b7160e01b600052602160045260246000fd5b634e487b7160e01b600052604160045260246000fd5b6001600160a01b038116811461045e57600080fdfea2646970667358221220e3fb4d7b9e2704d4e9289f427a844bc6b4ced017952ff76552a82de230626df564736f6c63430008060033496e697469616c697a61626c653a20636f6e747261637420697320616c7265614f776e61626c653a2063616c6c6572206973206e6f7420746865206f776e6572",
  "linkReferences": {},
  "deployedLinkReferences": {}
}