{
  "_format": "hh-sol-artifact-1",
  "contractName": "OZLinearVoting",
  "sourceName": "contracts/votingStrategies/OZLinearVoting.sol",
  "abi": [
    {
      "inputs": [
        {
          "internalType": "address",
          "name": "_owner",
          "type": "address"
        },
        {
          "internalType": "contract ERC20Votes",
          "name": "_governanceToken",
          "type": "address"
        },
        {
          "internalType": "address",
          "name": "_seeleModule",
          "type": "address"
        },
        {
          "internalType": "uint256",
          "name": "_votingPeriod",
          "type": "uint256"
        },
        {
          "internalType": "uint256",
          "name": "_quorumThreshold",
          "type": "uint256"
        },
        {
          "internalType": "uint256",
          "name": "_timeLockPeriod",
          "type": "uint256"
        },
        {
          "internalType": "string",
          "name": "name_",
          "type": "string"
        }
      ],
      "stateMutability": "nonpayable",
      "type": "constructor"
    },
    {
      "anonymous": false,
      "inputs": [
        {
          "indexed": true,
          "internalType": "address",
          "name": "previousOwner",
          "type": "address"
        },
        {
          "indexed": true,
          "internalType": "address",
          "name": "newOwner",
          "type": "address"
        }
      ],
      "name": "OwnershipTransferred",
      "type": "event"
    },
    {
      "anonymous": false,
      "inputs": [
        {
          "indexed": false,
          "internalType": "uint256",
          "name": "proposalId",
          "type": "uint256"
        },
        {
          "indexed": false,
          "internalType": "uint256",
          "name": "timestamp",
          "type": "uint256"
        }
      ],
      "name": "ProposalReceived",
      "type": "event"
    },
    {
      "anonymous": false,
      "inputs": [
        {
          "indexed": true,
          "internalType": "address",
          "name": "previousSeele",
          "type": "address"
        },
        {
          "indexed": true,
          "internalType": "address",
          "name": "newSeele",
          "type": "address"
        }
      ],
      "name": "SeeleSet",
      "type": "event"
    },
    {
      "anonymous": false,
      "inputs": [
        {
          "indexed": true,
          "internalType": "address",
          "name": "seeleModule",
          "type": "address"
        },
        {
          "indexed": true,
          "internalType": "address",
          "name": "owner",
          "type": "address"
        }
      ],
      "name": "StrategySetup",
      "type": "event"
    },
    {
      "anonymous": false,
      "inputs": [
        {
          "indexed": false,
          "internalType": "uint256",
          "name": "previousThreshold",
          "type": "uint256"
        },
        {
          "indexed": false,
          "internalType": "uint256",
          "name": "newThreshold",
          "type": "uint256"
        }
      ],
      "name": "ThresholdUpdated",
      "type": "event"
    },
    {
      "anonymous": false,
      "inputs": [
        {
          "indexed": false,
          "internalType": "uint256",
          "name": "previousTimeLock",
          "type": "uint256"
        },
        {
          "indexed": false,
          "internalType": "uint256",
          "name": "newTimeLockPeriod",
          "type": "uint256"
        }
      ],
      "name": "TimeLockUpdated",
      "type": "event"
    },
    {
      "anonymous": false,
      "inputs": [
        {
          "indexed": false,
          "internalType": "uint256",
          "name": "proposalId",
          "type": "uint256"
        },
        {
          "indexed": false,
          "internalType": "uint256",
          "name": "timestamp",
          "type": "uint256"
        }
      ],
      "name": "VoteFinalized",
      "type": "event"
    },
    {
      "anonymous": false,
      "inputs": [
        {
          "indexed": false,
          "internalType": "address",
          "name": "voter",
          "type": "address"
        },
        {
          "indexed": false,
          "internalType": "uint256",
          "name": "proposalId",
          "type": "uint256"
        },
        {
          "indexed": false,
          "internalType": "uint8",
          "name": "support",
          "type": "uint8"
        }
      ],
      "name": "Voted",
      "type": "event"
    },
    {
      "anonymous": false,
      "inputs": [
        {
          "indexed": false,
          "internalType": "uint256",
          "name": "previousVotingPeriod",
          "type": "uint256"
        },
        {
          "indexed": false,
          "internalType": "uint256",
          "name": "newVotingPeriod",
          "type": "uint256"
        }
      ],
      "name": "VotingPeriodUpdated",
      "type": "event"
    },
    {
      "inputs": [],
      "name": "VOTE_TYPEHASH",
      "outputs": [
        {
          "internalType": "bytes32",
          "name": "",
          "type": "bytes32"
        }
      ],
      "stateMutability": "view",
      "type": "function"
    },
    {
      "inputs": [
        {
          "internalType": "address",
          "name": "delegatee",
          "type": "address"
        },
        {
          "internalType": "uint256",
          "name": "proposalId",
          "type": "uint256"
        }
      ],
      "name": "calculateWeight",
      "outputs": [
        {
          "internalType": "uint256",
          "name": "",
          "type": "uint256"
        }
      ],
      "stateMutability": "view",
      "type": "function"
    },
    {
      "inputs": [
        {
          "internalType": "uint256",
          "name": "proposalId",
          "type": "uint256"
        }
      ],
      "name": "finalizeStrategy",
      "outputs": [],
      "stateMutability": "nonpayable",
      "type": "function"
    },
    {
      "inputs": [],
      "name": "getChainId",
      "outputs": [
        {
          "internalType": "uint256",
          "name": "",
          "type": "uint256"
        }
      ],
      "stateMutability": "view",
      "type": "function"
    },
    {
      "inputs": [],
      "name": "governanceToken",
      "outputs": [
        {
          "internalType": "contract ERC20Votes",
          "name": "",
          "type": "address"
        }
      ],
      "stateMutability": "view",
      "type": "function"
    },
    {
      "inputs": [
        {
          "internalType": "uint256",
          "name": "proposalId",
          "type": "uint256"
        },
        {
          "internalType": "address",
          "name": "account",
          "type": "address"
        }
      ],
      "name": "hasVoted",
      "outputs": [
        {
          "internalType": "bool",
          "name": "",
          "type": "bool"
        }
      ],
      "stateMutability": "view",
      "type": "function"
    },
    {
      "inputs": [
        {
          "internalType": "uint256",
          "name": "proposalId",
          "type": "uint256"
        }
      ],
      "name": "isPassed",
      "outputs": [
        {
          "internalType": "bool",
          "name": "",
          "type": "bool"
        }
      ],
      "stateMutability": "view",
      "type": "function"
    },
    {
      "inputs": [],
      "name": "name",
      "outputs": [
        {
          "internalType": "string",
          "name": "",
          "type": "string"
        }
      ],
      "stateMutability": "view",
      "type": "function"
    },
    {
      "inputs": [],
      "name": "owner",
      "outputs": [
        {
          "internalType": "address",
          "name": "",
          "type": "address"
        }
      ],
      "stateMutability": "view",
      "type": "function"
    },
    {
      "inputs": [
        {
          "internalType": "uint256",
          "name": "",
          "type": "uint256"
        }
      ],
      "name": "proposals",
      "outputs": [
        {
          "internalType": "uint256",
          "name": "yesVotes",
          "type": "uint256"
        },
        {
          "internalType": "uint256",
          "name": "noVotes",
          "type": "uint256"
        },
        {
          "internalType": "uint256",
          "name": "abstainVotes",
          "type": "uint256"
        },
        {
          "internalType": "uint256",
          "name": "deadline",
          "type": "uint256"
        },
        {
          "internalType": "uint256",
          "name": "startBlock",
          "type": "uint256"
        }
      ],
      "stateMutability": "view",
      "type": "function"
    },
    {
      "inputs": [],
      "name": "quorumThreshold",
      "outputs": [
        {
          "internalType": "uint256",
          "name": "",
          "type": "uint256"
        }
      ],
      "stateMutability": "view",
      "type": "function"
    },
    {
      "inputs": [
        {
          "internalType": "bytes",
          "name": "data",
          "type": "bytes"
        }
      ],
      "name": "receiveProposal",
      "outputs": [],
      "stateMutability": "nonpayable",
      "type": "function"
    },
    {
      "inputs": [],
      "name": "renounceOwnership",
      "outputs": [],
      "stateMutability": "nonpayable",
      "type": "function"
    },
    {
      "inputs": [],
      "name": "seeleModule",
      "outputs": [
        {
          "internalType": "address",
          "name": "",
          "type": "address"
        }
      ],
      "stateMutability": "view",
      "type": "function"
    },
    {
      "inputs": [
        {
          "internalType": "address",
          "name": "_seele",
          "type": "address"
        }
      ],
      "name": "setSeele",
      "outputs": [],
      "stateMutability": "nonpayable",
      "type": "function"
    },
    {
      "inputs": [
        {
          "internalType": "bytes",
          "name": "initParams",
          "type": "bytes"
        }
      ],
      "name": "setUp",
      "outputs": [],
      "stateMutability": "nonpayable",
      "type": "function"
    },
    {
      "inputs": [],
      "name": "timeLockPeriod",
      "outputs": [
        {
          "internalType": "uint256",
          "name": "",
          "type": "uint256"
        }
      ],
      "stateMutability": "view",
      "type": "function"
    },
    {
      "inputs": [
        {
          "internalType": "address",
          "name": "newOwner",
          "type": "address"
        }
      ],
      "name": "transferOwnership",
      "outputs": [],
      "stateMutability": "nonpayable",
      "type": "function"
    },
    {
      "inputs": [
        {
          "internalType": "uint256",
          "name": "_quorumThreshold",
          "type": "uint256"
        }
      ],
      "name": "updateThreshold",
      "outputs": [],
      "stateMutability": "nonpayable",
      "type": "function"
    },
    {
      "inputs": [
        {
          "internalType": "uint256",
          "name": "newTimeLockPeriod",
          "type": "uint256"
        }
      ],
      "name": "updateTimeLockPeriod",
      "outputs": [],
      "stateMutability": "nonpayable",
      "type": "function"
    },
    {
      "inputs": [
        {
          "internalType": "uint256",
          "name": "newPeriod",
          "type": "uint256"
        }
      ],
      "name": "updateVotingPeriod",
      "outputs": [],
      "stateMutability": "nonpayable",
      "type": "function"
    },
    {
      "inputs": [],
      "name": "version",
      "outputs": [
        {
          "internalType": "string",
          "name": "",
          "type": "string"
        }
      ],
      "stateMutability": "view",
      "type": "function"
    },
    {
      "inputs": [
        {
          "internalType": "uint256",
          "name": "proposalId",
          "type": "uint256"
        },
        {
          "internalType": "uint8",
          "name": "support",
          "type": "uint8"
        }
      ],
      "name": "vote",
      "outputs": [],
      "stateMutability": "nonpayable",
      "type": "function"
    },
    {
      "inputs": [
        {
          "internalType": "uint256",
          "name": "proposalId",
          "type": "uint256"
        },
        {
          "internalType": "uint8",
          "name": "support",
          "type": "uint8"
        },
        {
          "internalType": "bytes",
          "name": "signature",
          "type": "bytes"
        }
      ],
      "name": "voteSignature",
      "outputs": [],
      "stateMutability": "nonpayable",
      "type": "function"
    },
    {
      "inputs": [],
      "name": "votingPeriod",
      "outputs": [
        {
          "internalType": "uint256",
          "name": "",
          "type": "uint256"
        }
      ],
      "stateMutability": "view",
      "type": "function"
    }
  ],
  "bytecode": "0x60806040523480156200001157600080fd5b506040516200242d3803806200242d833981016040819052620000349162000759565b600087878787878787604051602001620000559796959493929190620007f8565b60408051601f198184030181529190529050620000728162000080565b5050505050505050620008f6565b600054610100900460ff16806200009a575060005460ff16155b620000f25760405162461bcd60e51b815260206004820152602e60248201526000805160206200240d83398151915260448201526d191e481a5b9a5d1a585b1a5e995960921b60648201526084015b60405180910390fd5b600054610100900460ff1615801562000115576000805461ffff19166101011790555b60008060008060008060008880602001905181019062000136919062000759565b965096509650965096509650965060018411620001a25760405162461bcd60e51b815260206004820152602360248201527f766f74696e67506572696f64206d7573742062652067726561746572207468616044820152626e203160e81b6064820152608401620000e9565b6001600160a01b038616620001fa5760405162461bcd60e51b815260206004820181905260248201527f696e76616c696420676f7665726e616e636520746f6b656e20616464726573736044820152606401620000e9565b609f80546001600160a01b0319166001600160a01b0388161790556200021f620002eb565b6200024981620002436040805180820190915260018152603160f81b602082015290565b620003a6565b62000254876200046c565b6200026184600162000869565b609a55606580546001600160a01b0319166001600160a01b038716179055609b8390556200029182600162000869565b609c556040516001600160a01b0380891691908716907f61586574b8b0edca97136ad4cb664eec4742d53de53403d531506632e6342a3990600090a3505050505050508015620002e7576000805461ff00191690555b5050565b600054610100900460ff168062000305575060005460ff16155b620003595760405162461bcd60e51b815260206004820152602e60248201526000805160206200240d83398151915260448201526d191e481a5b9a5d1a585b1a5e995960921b6064820152608401620000e9565b600054610100900460ff161580156200037c576000805461ffff19166101011790555b620003866200053a565b62000390620005df565b8015620003a3576000805461ff00191690555b50565b600054610100900460ff1680620003c0575060005460ff16155b620004145760405162461bcd60e51b815260206004820152602e60248201526000805160206200240d83398151915260448201526d191e481a5b9a5d1a585b1a5e995960921b6064820152608401620000e9565b600054610100900460ff1615801562000437576000805461ffff19166101011790555b8251602080850191909120835191840191909120606691909155606755801562000467576000805461ff00191690555b505050565b6033546001600160a01b03163314620004c85760405162461bcd60e51b815260206004820181905260248201527f4f776e61626c653a2063616c6c6572206973206e6f7420746865206f776e65726044820152606401620000e9565b6001600160a01b0381166200052f5760405162461bcd60e51b815260206004820152602660248201527f4f776e61626c653a206e6577206f776e657220697320746865207a65726f206160448201526564647265737360d01b6064820152608401620000e9565b620003a38162000676565b600054610100900460ff168062000554575060005460ff16155b620005a85760405162461bcd60e51b815260206004820152602e60248201526000805160206200240d83398151915260448201526d191e481a5b9a5d1a585b1a5e995960921b6064820152608401620000e9565b600054610100900460ff1615801562000390576000805461ffff19166101011790558015620003a3576000805461ff001916905550565b600054610100900460ff1680620005f9575060005460ff16155b6200064d5760405162461bcd60e51b815260206004820152602e60248201526000805160206200240d83398151915260448201526d191e481a5b9a5d1a585b1a5e995960921b6064820152608401620000e9565b600054610100900460ff1615801562000670576000805461ffff19166101011790555b62000390335b603380546001600160a01b038381166001600160a01b0319831681179093556040519116919082907f8be0079c531659141344cd1fd0a4f28419497f9722a3daafe3b4186f6b6457e090600090a35050565b600082601f830112620006da57600080fd5b81516001600160401b0380821115620006f757620006f7620008ca565b604051601f8301601f19908116603f01168101908282118183101715620007225762000722620008ca565b816040528381528660208588010111156200073c57600080fd5b6200074f84602083016020890162000897565b9695505050505050565b600080600080600080600060e0888a0312156200077557600080fd5b87516200078281620008e0565b60208901519097506200079581620008e0565b6040890151909650620007a881620008e0565b606089015160808a015160a08b015160c08c0151939850919650945092506001600160401b03811115620007db57600080fd5b620007e98a828b01620006c8565b91505092959891949750929550565b600060018060a01b03808a16835280891660208401528088166040840152508560608301528460808301528360a083015260e060c083015282518060e08401526101006200084d828286016020880162000897565b80601f19601f8401168501019250505098975050505050505050565b60008160001904831182151516156200089257634e487b7160e01b600052601160045260246000fd5b500290565b60005b83811015620008b45781810151838201526020016200089a565b83811115620008c4576000848401525b50505050565b634e487b7160e01b600052604160045260246000fd5b6001600160a01b0381168114620003a357600080fd5b611b0780620009066000396000f3fe608060405234801561001057600080fd5b50600436106101735760003560e01c806379bfb089116100de578063a4f9edbf11610097578063d7d7442f11610071578063d7d7442f146103a4578063ef00ef43146103b7578063f2fde38b146103ca578063f96dae0a146103dd57600080fd5b8063a4f9edbf1461036b578063c42612061461037e578063d69be91c1461039157600080fd5b806379bfb089146102dd5780637a3ff4d2146102f05780637b7a91dd14610303578063865229731461030c5780638da5cb5b14610333578063943e82161461035857600080fd5b80633408e470116101305780633408e47014610249578063438596321461024f578063494031831461029c57806354fd4d50146102af578063715018a6146102cc57806378446bc1146102d457600080fd5b8063013cf08b1461017857806302a251a3146101e257806306fdde03146101f9578063224f32631461020e57806325d975521461022357806328c3443c14610236575b600080fd5b6101b56101863660046117e8565b609e60205260009081526040902080546001820154600283015460038401546004909401549293919290919085565b604080519586526020860194909452928401919091526060830152608082015260a0015b60405180910390f35b6101eb609a5481565b6040519081526020016101d9565b6102016103f0565b6040516101d991906118cd565b61022161021c3660046117ab565b610482565b005b610221610231366004611690565b61056e565b610221610244366004611876565b6105ea565b466101eb565b61028c61025d36600461181a565b6000828152609e602090815260408083206001600160a01b038516845260050190915290205460ff1692915050565b60405190151581526020016101d9565b61028c6102aa3660046117e8565b610665565b6040805180820190915260018152603160f81b6020820152610201565b6102216107cd565b6101eb609c5481565b6102216102eb3660046117e8565b610803565b6102216102fe3660046117e8565b6108b6565b6101eb609b5481565b6101eb7fb780761e36898d7ec1cc0fb66fdd6a8a42e635ee643709d6b20652c68a3b29f581565b6033546001600160a01b03165b6040516001600160a01b0390911681526020016101d9565b61022161036636600461184a565b61091e565b6102216103793660046117ab565b61092d565b606554610340906001600160a01b031681565b6101eb61039f36600461177f565b610b47565b6102216103b23660046117e8565b610bf4565b6102216103c53660046117e8565b610c5c565b6102216103d8366004611690565b610cc4565b609f54610340906001600160a01b031681565b6060609d80546103ff90611a3f565b80601f016020809104026020016040519081016040528092919081815260200182805461042b90611a3f565b80156104785780601f1061044d57610100808354040283529160200191610478565b820191906000526020600020905b81548152906001019060200180831161045b57829003601f168201915b5050505050905090565b6065546001600160a01b031633146104e15760405162461bcd60e51b815260206004820152601b60248201527f6f6e6c79207365656c65206d6f64756c65206d617920656e746572000000000060448201526064015b60405180910390fd5b6000818060200190518101906104f79190611801565b905042609a5461050791906119dc565b6000828152609e602052604090819020600381019290925543600490920191909155517f3aeda78f6230a590817748b94b63d690cec4d1a15d494dfc7006e0a39e77f81a906105629083904290918252602082015260400190565b60405180910390a15050565b6033546001600160a01b031633146105985760405162461bcd60e51b81526004016104d89061194e565b606580546001600160a01b038381166001600160a01b0319831681179093556040519116919082907f88c841937ebf544fbe1153b24515eacade9472029425e753368b204edbca8e8a90600090a35050565b604080517fb780761e36898d7ec1cc0fb66fdd6a8a42e635ee643709d6b20652c68a3b29f5602082015290810184905260ff831660608201526000906106529061064c9060800160405160208183030381529060405280519060200120610d5f565b83610db3565b905061065f848285610dd7565b50505050565b6000818152609e6020526040812060018101549054116106de5760405162461bcd60e51b815260206004820152602e60248201527f74686520796573566f746573206d757374206265207374726963746c79206f7660448201526d657220746865206e6f566f74657360901b60648201526084016104d8565b609b546000838152609e602052604090206002810154905461070091906119dc565b10156107655760405162461bcd60e51b815260206004820152602e60248201527f612071756f72756d20686173206e6f74206265656e207265616368656420666f60448201526d1c881d1a19481c1c9bdc1bdcd85b60921b60648201526084016104d8565b6000828152609e602052604090206003015442116107c55760405162461bcd60e51b815260206004820181905260248201527f766f74696e6720706572696f6420686173206e6f74207061737365642079657460448201526064016104d8565b506001919050565b6033546001600160a01b031633146107f75760405162461bcd60e51b81526004016104d89061194e565b610801600061103b565b565b61080c81610665565b1561087b57606554609c546040516309fac26960e31b81526004810184905260248101919091526001600160a01b0390911690634fd6134890604401600060405180830381600087803b15801561086257600080fd5b505af1158015610876573d6000803e3d6000fd5b505050505b604080518281524260208201527f54ffcee03e8b80c05e4d1c55e3dc60602d9082a899e50337b680c9c4c4d80a3a910160405180910390a150565b6033546001600160a01b031633146108e05760405162461bcd60e51b81526004016104d89061194e565b609c80549082905560408051828152602081018490527f2a72574d775756e698a258fc07c826b7185131fff8a96b868feacab45fb234329101610562565b610929823383610dd7565b5050565b600054610100900460ff1680610946575060005460ff16155b6109625760405162461bcd60e51b81526004016104d890611900565b600054610100900460ff16158015610984576000805461ffff19166101011790555b6000806000806000806000888060200190518101906109a391906116ad565b965096509650965096509650965060018411610a0d5760405162461bcd60e51b815260206004820152602360248201527f766f74696e67506572696f64206d7573742062652067726561746572207468616044820152626e203160e81b60648201526084016104d8565b6001600160a01b038616610a635760405162461bcd60e51b815260206004820181905260248201527f696e76616c696420676f7665726e616e636520746f6b656e206164647265737360448201526064016104d8565b609f80546001600160a01b0319166001600160a01b038816179055610a8661108d565b610aad81610aa86040805180820190915260018152603160f81b602082015290565b611108565b610ab687610cc4565b610ac18460016119f4565b609a55606580546001600160a01b0319166001600160a01b038716179055609b839055610aef8260016119f4565b609c556040516001600160a01b0380891691908716907f61586574b8b0edca97136ad4cb664eec4742d53de53403d531506632e6342a3990600090a3505050505050508015610929576000805461ff00191690555050565b609f546000828152609e60205260408082206004908101549151630748d63560e31b815292936001600160a01b031692633a46b1a892610b9d928892016001600160a01b03929092168252602082015260400190565b60206040518083038186803b158015610bb557600080fd5b505afa158015610bc9573d6000803e3d6000fd5b505050506040513d601f19601f82011682018060405250810190610bed9190611801565b9392505050565b6033546001600160a01b03163314610c1e5760405162461bcd60e51b81526004016104d89061194e565b609b80549082905560408051828152602081018490527fb06a54caabe58475c86c2bf9df3f2f06dd1213e9e10659c293117fe4893b274b9101610562565b6033546001600160a01b03163314610c865760405162461bcd60e51b81526004016104d89061194e565b609a80549082905560408051828152602081018490527fffc708f072ca56e3d45ef0cb288b96cb9378f5f63e1646868bfbc9c38f4263a19101610562565b6033546001600160a01b03163314610cee5760405162461bcd60e51b81526004016104d89061194e565b6001600160a01b038116610d535760405162461bcd60e51b815260206004820152602660248201527f4f776e61626c653a206e6577206f776e657220697320746865207a65726f206160448201526564647265737360d01b60648201526084016104d8565b610d5c8161103b565b50565b6000610dad610d6c611193565b8360405161190160f01b6020820152602281018390526042810182905260009060620160405160208183030381529060405280519060200120905092915050565b92915050565b6000806000610dc28585611213565b91509150610dcf81611283565b509392505050565b6000838152609e6020526040902060030154421115610e385760405162461bcd60e51b815260206004820152601860248201527f766f74696e6720706572696f642068617320706173736564000000000000000060448201526064016104d8565b6000838152609e602090815260408083206001600160a01b038616845260050190915290205460ff1615610eae5760405162461bcd60e51b815260206004820152601760248201527f766f7465722068617320616c726561647920766f74656400000000000000000060448201526064016104d8565b6000610eba8385610b47565b6000858152609e602090815260408083206001600160a01b03881684526005019091529020805460ff19166001179055905060ff8216610f28576000848152609e6020526040902060010154610f119082906119dc565b6000858152609e6020526040902060010155610fea565b60ff821660011415610f62576000848152609e6020526040902054610f4e9082906119dc565b6000858152609e6020526040902055610fea565b60ff821660021415610fa2576000848152609e6020526040902060020154610f8b9082906119dc565b6000858152609e6020526040902060020155610fea565b60405162461bcd60e51b815260206004820152601f60248201527f696e76616c69642076616c756520666f7220656e756d20566f7465547970650060448201526064016104d8565b604080516001600160a01b03851681526020810186905260ff84168183015290517fcc66c27f993ef125e1b985d84a52726edc66dcc64e94d172f80253e37d5263729181900360600190a150505050565b603380546001600160a01b038381166001600160a01b0319831681179093556040519116919082907f8be0079c531659141344cd1fd0a4f28419497f9722a3daafe3b4186f6b6457e090600090a35050565b600054610100900460ff16806110a6575060005460ff16155b6110c25760405162461bcd60e51b81526004016104d890611900565b600054610100900460ff161580156110e4576000805461ffff19166101011790555b6110ec61143e565b6110f46114a8565b8015610d5c576000805461ff001916905550565b600054610100900460ff1680611121575060005460ff16155b61113d5760405162461bcd60e51b81526004016104d890611900565b600054610100900460ff1615801561115f576000805461ffff19166101011790555b8251602080850191909120835191840191909120606691909155606755801561118e576000805461ff00191690555b505050565b600061120e7f8b73c3c69bb8fe3d512ecc4cf759cc79239f7b179b0ffacaa9a75d522b39400f6111c260665490565b6067546040805160208101859052908101839052606081018290524660808201523060a082015260009060c0016040516020818303038152906040528051906020012090509392505050565b905090565b60008082516041141561124a5760208301516040840151606085015160001a61123e87828585611508565b9450945050505061127c565b82516040141561127457602083015160408401516112698683836115f5565b93509350505061127c565b506000905060025b9250929050565b600081600481111561129757611297611a90565b14156112a05750565b60018160048111156112b4576112b4611a90565b14156113025760405162461bcd60e51b815260206004820152601860248201527f45434453413a20696e76616c6964207369676e6174757265000000000000000060448201526064016104d8565b600281600481111561131657611316611a90565b14156113645760405162461bcd60e51b815260206004820152601f60248201527f45434453413a20696e76616c6964207369676e6174757265206c656e6774680060448201526064016104d8565b600381600481111561137857611378611a90565b14156113d15760405162461bcd60e51b815260206004820152602260248201527f45434453413a20696e76616c6964207369676e6174757265202773272076616c604482015261756560f01b60648201526084016104d8565b60048160048111156113e5576113e5611a90565b1415610d5c5760405162461bcd60e51b815260206004820152602260248201527f45434453413a20696e76616c6964207369676e6174757265202776272076616c604482015261756560f01b60648201526084016104d8565b600054610100900460ff1680611457575060005460ff16155b6114735760405162461bcd60e51b81526004016104d890611900565b600054610100900460ff161580156110f4576000805461ffff19166101011790558015610d5c576000805461ff001916905550565b600054610100900460ff16806114c1575060005460ff16155b6114dd5760405162461bcd60e51b81526004016104d890611900565b600054610100900460ff161580156114ff576000805461ffff19166101011790555b6110f43361103b565b6000807f7fffffffffffffffffffffffffffffff5d576e7357a4501ddfe92f46681b20a083111561153f57506000905060036115ec565b8460ff16601b1415801561155757508460ff16601c14155b1561156857506000905060046115ec565b6040805160008082526020820180845289905260ff881692820192909252606081018690526080810185905260019060a0016020604051602081039080840390855afa1580156115bc573d6000803e3d6000fd5b5050604051601f1901519150506001600160a01b0381166115e5576000600192509250506115ec565b9150600090505b94509492505050565b6000806001600160ff1b03831660ff84901c601b0161161687828885611508565b935093505050935093915050565b600082601f83011261163557600080fd5b8135611648611643826119b4565b611983565b81815284602083860101111561165d57600080fd5b816020850160208301376000918101602001919091529392505050565b803560ff8116811461168b57600080fd5b919050565b6000602082840312156116a257600080fd5b8135610bed81611abc565b600080600080600080600060e0888a0312156116c857600080fd5b87516116d381611abc565b60208901519097506116e481611abc565b60408901519096506116f581611abc565b80955050606088015193506080880151925060a0880151915060c088015167ffffffffffffffff81111561172857600080fd5b8801601f81018a1361173957600080fd5b8051611747611643826119b4565b8181528b602083850101111561175c57600080fd5b61176d826020830160208601611a13565b80935050505092959891949750929550565b6000806040838503121561179257600080fd5b823561179d81611abc565b946020939093013593505050565b6000602082840312156117bd57600080fd5b813567ffffffffffffffff8111156117d457600080fd5b6117e084828501611624565b949350505050565b6000602082840312156117fa57600080fd5b5035919050565b60006020828403121561181357600080fd5b5051919050565b6000806040838503121561182d57600080fd5b82359150602083013561183f81611abc565b809150509250929050565b6000806040838503121561185d57600080fd5b8235915061186d6020840161167a565b90509250929050565b60008060006060848603121561188b57600080fd5b8335925061189b6020850161167a565b9150604084013567ffffffffffffffff8111156118b757600080fd5b6118c386828701611624565b9150509250925092565b60208152600082518060208401526118ec816040850160208701611a13565b601f01601f19169190910160400192915050565b6020808252602e908201527f496e697469616c697a61626c653a20636f6e747261637420697320616c72656160408201526d191e481a5b9a5d1a585b1a5e995960921b606082015260800190565b6020808252818101527f4f776e61626c653a2063616c6c6572206973206e6f7420746865206f776e6572604082015260600190565b604051601f8201601f1916810167ffffffffffffffff811182821017156119ac576119ac611aa6565b604052919050565b600067ffffffffffffffff8211156119ce576119ce611aa6565b50601f01601f191660200190565b600082198211156119ef576119ef611a7a565b500190565b6000816000190483118215151615611a0e57611a0e611a7a565b500290565b60005b83811015611a2e578181015183820152602001611a16565b8381111561065f5750506000910152565b600181811c90821680611a5357607f821691505b60208210811415611a7457634e487b7160e01b600052602260045260246000fd5b50919050565b634e487b7160e01b600052601160045260246000fd5b634e487b7160e01b600052602160045260246000fd5b634e487b7160e01b600052604160045260246000fd5b6001600160a01b0381168114610d5c57600080fdfea2646970667358221220efda403af59022073389cd6ccecc2680d14de73219b7c831552b91eec725fc7664736f6c63430008060033496e697469616c697a61626c653a20636f6e747261637420697320616c726561",
  "linkReferences": {},
  "deployedLinkReferences": {}
}