{
  "_format": "hh-sol-artifact-1",
  "contractName": "OZSingleVoting",
  "sourceName": "contracts/votingStrategies/OZSingleVoting.sol",
  "abi": [
    {
      "inputs": [
        {
          "internalType": "address",
          "name": "_owner",
          "type": "address"
        },
        {
          "internalType": "contract ERC20Votes",
          "name": "_governanceToken",
          "type": "address"
        },
        {
          "internalType": "address",
          "name": "_UsulModule",
          "type": "address"
        },
        {
          "internalType": "uint256",
          "name": "_votingPeriod",
          "type": "uint256"
        },
        {
          "internalType": "uint256",
          "name": "quorumThreshold_",
          "type": "uint256"
        },
        {
          "internalType": "uint256",
          "name": "_timeLockPeriod",
          "type": "uint256"
        },
        {
          "internalType": "string",
          "name": "name_",
          "type": "string"
        }
      ],
      "stateMutability": "nonpayable",
      "type": "constructor"
    },
    {
      "anonymous": false,
      "inputs": [
        {
          "indexed": true,
          "internalType": "address",
          "name": "previousOwner",
          "type": "address"
        },
        {
          "indexed": true,
          "internalType": "address",
          "name": "newOwner",
          "type": "address"
        }
      ],
      "name": "OwnershipTransferred",
      "type": "event"
    },
    {
      "anonymous": false,
      "inputs": [
        {
          "indexed": false,
          "internalType": "uint256",
          "name": "proposalId",
          "type": "uint256"
        },
        {
          "indexed": false,
          "internalType": "uint256",
          "name": "timestamp",
          "type": "uint256"
        }
      ],
      "name": "ProposalReceived",
      "type": "event"
    },
    {
      "anonymous": false,
      "inputs": [
        {
          "indexed": false,
          "internalType": "uint256",
          "name": "oldQuorumThreshold",
          "type": "uint256"
        },
        {
          "indexed": false,
          "internalType": "uint256",
          "name": "newQuorumThreshold",
          "type": "uint256"
        }
      ],
      "name": "QuorumThresholdUpdated",
      "type": "event"
    },
    {
      "anonymous": false,
      "inputs": [
        {
          "indexed": true,
          "internalType": "address",
          "name": "UsulModule",
          "type": "address"
        },
        {
          "indexed": true,
          "internalType": "address",
          "name": "owner",
          "type": "address"
        }
      ],
      "name": "StrategySetup",
      "type": "event"
    },
    {
      "anonymous": false,
      "inputs": [
        {
          "indexed": false,
          "internalType": "uint256",
          "name": "previousTimeLock",
          "type": "uint256"
        },
        {
          "indexed": false,
          "internalType": "uint256",
          "name": "newTimeLockPeriod",
          "type": "uint256"
        }
      ],
      "name": "TimeLockUpdated",
      "type": "event"
    },
    {
      "anonymous": false,
      "inputs": [
        {
          "indexed": true,
          "internalType": "address",
          "name": "previousUsul",
          "type": "address"
        },
        {
          "indexed": true,
          "internalType": "address",
          "name": "newUsul",
          "type": "address"
        }
      ],
      "name": "UsulSet",
      "type": "event"
    },
    {
      "anonymous": false,
      "inputs": [
        {
          "indexed": false,
          "internalType": "uint256",
          "name": "proposalId",
          "type": "uint256"
        },
        {
          "indexed": false,
          "internalType": "uint256",
          "name": "timestamp",
          "type": "uint256"
        }
      ],
      "name": "VoteFinalized",
      "type": "event"
    },
    {
      "anonymous": false,
      "inputs": [
        {
          "indexed": false,
          "internalType": "address",
          "name": "voter",
          "type": "address"
        },
        {
          "indexed": false,
          "internalType": "uint256",
          "name": "proposalId",
          "type": "uint256"
        },
        {
          "indexed": false,
          "internalType": "uint8",
          "name": "support",
          "type": "uint8"
        },
        {
          "indexed": false,
          "internalType": "uint256",
          "name": "weight",
          "type": "uint256"
        }
      ],
      "name": "Voted",
      "type": "event"
    },
    {
      "anonymous": false,
      "inputs": [
        {
          "indexed": false,
          "internalType": "uint256",
          "name": "previousVotingPeriod",
          "type": "uint256"
        },
        {
          "indexed": false,
          "internalType": "uint256",
          "name": "newVotingPeriod",
          "type": "uint256"
        }
      ],
      "name": "VotingPeriodUpdated",
      "type": "event"
    },
    {
      "inputs": [],
      "name": "UsulModule",
      "outputs": [
        {
          "internalType": "address",
          "name": "",
          "type": "address"
        }
      ],
      "stateMutability": "view",
      "type": "function"
    },
    {
      "inputs": [],
      "name": "VOTE_TYPEHASH",
      "outputs": [
        {
          "internalType": "bytes32",
          "name": "",
          "type": "bytes32"
        }
      ],
      "stateMutability": "view",
      "type": "function"
    },
    {
      "inputs": [
        {
          "internalType": "address",
          "name": "delegatee",
          "type": "address"
        },
        {
          "internalType": "uint256",
          "name": "proposalId",
          "type": "uint256"
        }
      ],
      "name": "calculateWeight",
      "outputs": [
        {
          "internalType": "uint256",
          "name": "",
          "type": "uint256"
        }
      ],
      "stateMutability": "view",
      "type": "function"
    },
    {
      "inputs": [
        {
          "internalType": "uint256",
          "name": "proposalId",
          "type": "uint256"
        }
      ],
      "name": "finalizeStrategy",
      "outputs": [],
      "stateMutability": "nonpayable",
      "type": "function"
    },
    {
      "inputs": [],
      "name": "governanceToken",
      "outputs": [
        {
          "internalType": "contract ERC20Votes",
          "name": "",
          "type": "address"
        }
      ],
      "stateMutability": "view",
      "type": "function"
    },
    {
      "inputs": [
        {
          "internalType": "uint256",
          "name": "proposalId",
          "type": "uint256"
        },
        {
          "internalType": "address",
          "name": "account",
          "type": "address"
        }
      ],
      "name": "hasVoted",
      "outputs": [
        {
          "internalType": "bool",
          "name": "",
          "type": "bool"
        }
      ],
      "stateMutability": "view",
      "type": "function"
    },
    {
      "inputs": [
        {
          "internalType": "uint256",
          "name": "proposalId",
          "type": "uint256"
        }
      ],
      "name": "isPassed",
      "outputs": [
        {
          "internalType": "bool",
          "name": "",
          "type": "bool"
        }
      ],
      "stateMutability": "view",
      "type": "function"
    },
    {
      "inputs": [],
      "name": "name",
      "outputs": [
        {
          "internalType": "string",
          "name": "",
          "type": "string"
        }
      ],
      "stateMutability": "view",
      "type": "function"
    },
    {
      "inputs": [],
      "name": "owner",
      "outputs": [
        {
          "internalType": "address",
          "name": "",
          "type": "address"
        }
      ],
      "stateMutability": "view",
      "type": "function"
    },
    {
      "inputs": [
        {
          "internalType": "uint256",
          "name": "",
          "type": "uint256"
        }
      ],
      "name": "proposals",
      "outputs": [
        {
          "internalType": "uint256",
          "name": "yesVotes",
          "type": "uint256"
        },
        {
          "internalType": "uint256",
          "name": "noVotes",
          "type": "uint256"
        },
        {
          "internalType": "uint256",
          "name": "abstainVotes",
          "type": "uint256"
        },
        {
          "internalType": "uint256",
          "name": "deadline",
          "type": "uint256"
        },
        {
          "internalType": "uint256",
          "name": "startBlock",
          "type": "uint256"
        }
      ],
      "stateMutability": "view",
      "type": "function"
    },
    {
      "inputs": [],
      "name": "quorum",
      "outputs": [
        {
          "internalType": "uint256",
          "name": "",
          "type": "uint256"
        }
      ],
      "stateMutability": "view",
      "type": "function"
    },
    {
      "inputs": [],
      "name": "quorumThreshold",
      "outputs": [
        {
          "internalType": "uint256",
          "name": "",
          "type": "uint256"
        }
      ],
      "stateMutability": "view",
      "type": "function"
    },
    {
      "inputs": [
        {
          "internalType": "bytes",
          "name": "data",
          "type": "bytes"
        }
      ],
      "name": "receiveProposal",
      "outputs": [],
      "stateMutability": "nonpayable",
      "type": "function"
    },
    {
      "inputs": [],
      "name": "renounceOwnership",
      "outputs": [],
      "stateMutability": "nonpayable",
      "type": "function"
    },
    {
      "inputs": [
        {
          "internalType": "bytes",
          "name": "initParams",
          "type": "bytes"
        }
      ],
      "name": "setUp",
      "outputs": [],
      "stateMutability": "nonpayable",
      "type": "function"
    },
    {
      "inputs": [
        {
          "internalType": "address",
          "name": "_Usul",
          "type": "address"
        }
      ],
      "name": "setUsul",
      "outputs": [],
      "stateMutability": "nonpayable",
      "type": "function"
    },
    {
      "inputs": [],
      "name": "timeLockPeriod",
      "outputs": [
        {
          "internalType": "uint256",
          "name": "",
          "type": "uint256"
        }
      ],
      "stateMutability": "view",
      "type": "function"
    },
    {
      "inputs": [
        {
          "internalType": "address",
          "name": "newOwner",
          "type": "address"
        }
      ],
      "name": "transferOwnership",
      "outputs": [],
      "stateMutability": "nonpayable",
      "type": "function"
    },
    {
      "inputs": [
        {
          "internalType": "uint256",
          "name": "newQuorumThreshold",
          "type": "uint256"
        }
      ],
      "name": "updateQuorumThreshold",
      "outputs": [],
      "stateMutability": "nonpayable",
      "type": "function"
    },
    {
      "inputs": [
        {
          "internalType": "uint256",
          "name": "newTimeLockPeriod",
          "type": "uint256"
        }
      ],
      "name": "updateTimeLockPeriod",
      "outputs": [],
      "stateMutability": "nonpayable",
      "type": "function"
    },
    {
      "inputs": [
        {
          "internalType": "uint256",
          "name": "newPeriod",
          "type": "uint256"
        }
      ],
      "name": "updateVotingPeriod",
      "outputs": [],
      "stateMutability": "nonpayable",
      "type": "function"
    },
    {
      "inputs": [],
      "name": "version",
      "outputs": [
        {
          "internalType": "string",
          "name": "",
          "type": "string"
        }
      ],
      "stateMutability": "view",
      "type": "function"
    },
    {
      "inputs": [
        {
          "internalType": "uint256",
          "name": "proposalId",
          "type": "uint256"
        },
        {
          "internalType": "uint8",
          "name": "support",
          "type": "uint8"
        },
        {
          "internalType": "bytes",
          "name": "",
          "type": "bytes"
        }
      ],
      "name": "vote",
      "outputs": [],
      "stateMutability": "nonpayable",
      "type": "function"
    },
    {
      "inputs": [
        {
          "internalType": "uint256",
          "name": "proposalId",
          "type": "uint256"
        },
        {
          "internalType": "uint8",
          "name": "support",
          "type": "uint8"
        },
        {
          "internalType": "bytes",
          "name": "signature",
          "type": "bytes"
        },
        {
          "internalType": "bytes",
          "name": "",
          "type": "bytes"
        }
      ],
      "name": "voteSignature",
      "outputs": [],
      "stateMutability": "nonpayable",
      "type": "function"
    },
    {
      "inputs": [],
      "name": "votingPeriod",
      "outputs": [
        {
          "internalType": "uint256",
          "name": "",
          "type": "uint256"
        }
      ],
      "stateMutability": "view",
      "type": "function"
    }
  ],
  "bytecode": "0x60806040523480156200001157600080fd5b50604051620028723803806200287283398101604081905262000034916200095b565b600087878787878787604051602001620000559796959493929190620009fa565b60408051601f198184030181529190529050620000728162000080565b505050505050505062000b35565b600054610100900460ff16806200009a575060005460ff16155b620000f25760405162461bcd60e51b815260206004820152602e60248201526000805160206200283283398151915260448201526d191e481a5b9a5d1a585b1a5e995960921b60648201526084015b60405180910390fd5b600054610100900460ff1615801562000115576000805461ffff19166101011790555b6000806000806000806000888060200190518101906200013691906200095b565b965096509650965096509650965060018411620001a25760405162461bcd60e51b815260206004820152602360248201527f766f74696e67506572696f64206d7573742062652067726561746572207468616044820152626e203160e81b6064820152608401620000e9565b6001600160a01b038516620001fa5760405162461bcd60e51b815260206004820152601360248201527f696e76616c6964205573756c206d6f64756c65000000000000000000000000006044820152606401620000e9565b600083116200024c5760405162461bcd60e51b815260206004820152601a60248201527f7468726573686f6c64206d757374206e65206e6f6e2d7a65726f0000000000006044820152606401620000e9565b6001600160a01b038616620002a45760405162461bcd60e51b815260206004820181905260248201527f696e76616c696420676f7665726e616e636520746f6b656e20616464726573736044820152606401620000e9565b609f80546001600160a01b0319166001600160a01b038816179055620002c9620003b8565b620002f381620002ed6040805180820190915260018152603160f81b602082015290565b62000473565b620002fe8362000539565b62000309876200058f565b6200031684600162000a6b565b609a55606580546001600160a01b0319166001600160a01b0387161790556200034182600162000a6b565b609b5580516200035990609c90602084019062000824565b50866001600160a01b0316856001600160a01b03167f61586574b8b0edca97136ad4cb664eec4742d53de53403d531506632e6342a3960405160405180910390a3505050505050508015620003b4576000805461ff00191690555b5050565b600054610100900460ff1680620003d2575060005460ff16155b620004265760405162461bcd60e51b815260206004820152602e60248201526000805160206200283283398151915260448201526d191e481a5b9a5d1a585b1a5e995960921b6064820152608401620000e9565b600054610100900460ff1615801562000449576000805461ffff19166101011790555b620004536200064c565b6200045d620006f1565b801562000470576000805461ff00191690555b50565b600054610100900460ff16806200048d575060005460ff16155b620004e15760405162461bcd60e51b815260206004820152602e60248201526000805160206200283283398151915260448201526d191e481a5b9a5d1a585b1a5e995960921b6064820152608401620000e9565b600054610100900460ff1615801562000504576000805461ffff19166101011790555b8251602080850191909120835191840191909120606691909155606755801562000534576000805461ff00191690555b505050565b6033546001600160a01b03163314620005845760405162461bcd60e51b81526020600482018190526024820152600080516020620028528339815191526044820152606401620000e9565b62000470816200078d565b6033546001600160a01b03163314620005da5760405162461bcd60e51b81526020600482018190526024820152600080516020620028528339815191526044820152606401620000e9565b6001600160a01b038116620006415760405162461bcd60e51b815260206004820152602660248201527f4f776e61626c653a206e6577206f776e657220697320746865207a65726f206160448201526564647265737360d01b6064820152608401620000e9565b6200047081620007d2565b600054610100900460ff168062000666575060005460ff16155b620006ba5760405162461bcd60e51b815260206004820152602e60248201526000805160206200283283398151915260448201526d191e481a5b9a5d1a585b1a5e995960921b6064820152608401620000e9565b600054610100900460ff161580156200045d576000805461ffff1916610101179055801562000470576000805461ff001916905550565b600054610100900460ff16806200070b575060005460ff16155b6200075f5760405162461bcd60e51b815260206004820152602e60248201526000805160206200283283398151915260448201526d191e481a5b9a5d1a585b1a5e995960921b6064820152608401620000e9565b600054610100900460ff1615801562000782576000805461ffff19166101011790555b6200045d33620007d2565b609e80549082905560408051828152602081018490527fc33728fb6bc64ec1c5596c946e1406ccdfb7369404098c1d6a5f4a7a29c97b63910160405180910390a15050565b603380546001600160a01b038381166001600160a01b0319831681179093556040519116919082907f8be0079c531659141344cd1fd0a4f28419497f9722a3daafe3b4186f6b6457e090600090a35050565b828054620008329062000acc565b90600052602060002090601f016020900481019282620008565760008555620008a1565b82601f106200087157805160ff1916838001178555620008a1565b82800160010185558215620008a1579182015b82811115620008a157825182559160200191906001019062000884565b50620008af929150620008b3565b5090565b5b80821115620008af5760008155600101620008b4565b600082601f830112620008dc57600080fd5b81516001600160401b0380821115620008f957620008f962000b09565b604051601f8301601f19908116603f0116810190828211818310171562000924576200092462000b09565b816040528381528660208588010111156200093e57600080fd5b6200095184602083016020890162000a99565b9695505050505050565b600080600080600080600060e0888a0312156200097757600080fd5b8751620009848162000b1f565b6020890151909750620009978162000b1f565b6040890151909650620009aa8162000b1f565b606089015160808a015160a08b015160c08c0151939850919650945092506001600160401b03811115620009dd57600080fd5b620009eb8a828b01620008ca565b91505092959891949750929550565b600060018060a01b03808a16835280891660208401528088166040840152508560608301528460808301528360a083015260e060c083015282518060e084015261010062000a4f828286016020880162000a99565b80601f19601f8401168501019250505098975050505050505050565b600081600019048311821515161562000a9457634e487b7160e01b600052601160045260246000fd5b500290565b60005b8381101562000ab657818101518382015260200162000a9c565b8381111562000ac6576000848401525b50505050565b600181811c9082168062000ae157607f821691505b6020821081141562000b0357634e487b7160e01b600052602260045260246000fd5b50919050565b634e487b7160e01b600052604160045260246000fd5b6001600160a01b03811681146200047057600080fd5b611ced8062000b456000396000f3fe608060405234801561001057600080fd5b50600436106101735760003560e01c806378446bc1116100de578063a4f9edbf11610097578063d69be91c11610071578063d69be91c146103a9578063ef00ef43146103bc578063f2fde38b146103cf578063f96dae0a146103e257600080fd5b8063a4f9edbf14610370578063a8a829c114610383578063bf1b5efd1461039657600080fd5b806378446bc11461030157806379bfb0891461030a5780637a3ff4d21461031d5780637b7a91dd1461033057806386522973146103385780638da5cb5b1461035f57600080fd5b8063224f326311610130578063224f32631461023e5780634385963214610251578063494031831461029e57806354fd4d50146102b1578063715018a6146102ce578063747691df146102d657600080fd5b8063013cf08b1461017857806302a251a3146101e257806306fdde03146101f95780631703a0181461020e5780631f2c562e14610216578063210a5e871461022b575b600080fd5b6101b5610186366004611978565b609d60205260009081526040902080546001820154600283015460038401546004909401549293919290919085565b604080519586526020860194909452928401919091526060830152608082015260a0015b60405180910390f35b6101eb609a5481565b6040519081526020016101d9565b6102016103f5565b6040516101d99190611aaf565b6101eb610483565b610229610224366004611a31565b610493565b005b610229610239366004611978565b61050f565b61022961024c36600461193b565b61054e565b61028e61025f3660046119aa565b6000828152609d602090815260408083206001600160a01b038516845260050190915290205460ff1692915050565b60405190151581526020016101d9565b61028e6102ac366004611978565b610635565b6040805180820190915260018152603160f81b6020820152610201565b61022961078b565b6065546102e9906001600160a01b031681565b6040516001600160a01b0390911681526020016101d9565b6101eb609b5481565b610229610318366004611978565b6107c1565b61022961032b366004611978565b610874565b609e546101eb565b6101eb7fb780761e36898d7ec1cc0fb66fdd6a8a42e635ee643709d6b20652c68a3b29f581565b6033546001600160a01b03166102e9565b61022961037e36600461193b565b6108dc565b610229610391366004611819565b610bb2565b6102296103a43660046119da565b610c2e565b6101eb6103b736600461190f565b610c3e565b6102296103ca366004611978565b610d3d565b6102296103dd366004611819565b610da5565b609f546102e9906001600160a01b031681565b609c805461040290611c25565b80601f016020809104026020016040519081016040528092919081815260200182805461042e90611c25565b801561047b5780601f106104505761010080835404028352916020019161047b565b820191906000526020600020905b81548152906001019060200180831161045e57829003601f168201915b505050505081565b600061048e609e5490565b905090565b604080517fb780761e36898d7ec1cc0fb66fdd6a8a42e635ee643709d6b20652c68a3b29f5602082015290810185905260ff841660608201526000906104fb906104f59060800160405160208183030381529060405280519060200120610e3d565b84610e91565b9050610508858286610eb5565b5050505050565b6033546001600160a01b031633146105425760405162461bcd60e51b815260040161053990611b30565b60405180910390fd5b61054b816110f3565b50565b6065546001600160a01b031633146105a85760405162461bcd60e51b815260206004820152601a60248201527f6f6e6c79205573756c206d6f64756c65206d617920656e7465720000000000006044820152606401610539565b6000818060200190518101906105be9190611991565b905042609a546105ce9190611bbe565b6000828152609d602052604090819020600381019290925543600490920191909155517f3aeda78f6230a590817748b94b63d690cec4d1a15d494dfc7006e0a39e77f81a906106299083904290918252602082015260400190565b60405180910390a15050565b6000818152609d6020526040812060018101549054116106975760405162461bcd60e51b815260206004820152601d60248201527f6d616a6f7269747920796573566f746573206e6f7420726561636865640000006044820152606401610539565b61069f610483565b6000838152609d60205260409020600281015490546106be9190611bbe565b10156107235760405162461bcd60e51b815260206004820152602e60248201527f612071756f72756d20686173206e6f74206265656e207265616368656420666f60448201526d1c881d1a19481c1c9bdc1bdcd85b60921b6064820152608401610539565b6000828152609d602052604090206003015442116107835760405162461bcd60e51b815260206004820181905260248201527f766f74696e6720706572696f6420686173206e6f7420706173736564207965746044820152606401610539565b506001919050565b6033546001600160a01b031633146107b55760405162461bcd60e51b815260040161053990611b30565b6107bf6000611131565b565b6107ca81610635565b1561083957606554609b546040516309fac26960e31b81526004810184905260248101919091526001600160a01b0390911690634fd6134890604401600060405180830381600087803b15801561082057600080fd5b505af1158015610834573d6000803e3d6000fd5b505050505b604080518281524260208201527f54ffcee03e8b80c05e4d1c55e3dc60602d9082a899e50337b680c9c4c4d80a3a910160405180910390a150565b6033546001600160a01b0316331461089e5760405162461bcd60e51b815260040161053990611b30565b609b80549082905560408051828152602081018490527f2a72574d775756e698a258fc07c826b7185131fff8a96b868feacab45fb234329101610629565b600054610100900460ff16806108f5575060005460ff16155b6109115760405162461bcd60e51b815260040161053990611ae2565b600054610100900460ff16158015610933576000805461ffff19166101011790555b600080600080600080600088806020019051810190610952919061183d565b9650965096509650965096509650600184116109bc5760405162461bcd60e51b815260206004820152602360248201527f766f74696e67506572696f64206d7573742062652067726561746572207468616044820152626e203160e81b6064820152608401610539565b6001600160a01b038516610a085760405162461bcd60e51b8152602060048201526013602482015272696e76616c6964205573756c206d6f64756c6560681b6044820152606401610539565b60008311610a585760405162461bcd60e51b815260206004820152601a60248201527f7468726573686f6c64206d757374206e65206e6f6e2d7a65726f0000000000006044820152606401610539565b6001600160a01b038616610aae5760405162461bcd60e51b815260206004820181905260248201527f696e76616c696420676f7665726e616e636520746f6b656e20616464726573736044820152606401610539565b609f80546001600160a01b0319166001600160a01b038816179055610ad1611183565b610af881610af36040805180820190915260018152603160f81b602082015290565b6111fe565b610b018361050f565b610b0a87610da5565b610b15846001611bd6565b609a55606580546001600160a01b0319166001600160a01b038716179055610b3e826001611bd6565b609b558051610b5490609c906020840190611714565b50866001600160a01b0316856001600160a01b03167f61586574b8b0edca97136ad4cb664eec4742d53de53403d531506632e6342a3960405160405180910390a3505050505050508015610bae576000805461ff00191690555b5050565b6033546001600160a01b03163314610bdc5760405162461bcd60e51b815260040161053990611b30565b606580546001600160a01b038381166001600160a01b0319831681179093556040519116919082907f20c8544544aefaefdf339d996d855f2d4040cf93548344aa7dcb03b19e160cd190600090a35050565b610c39833384610eb5565b505050565b609f546000828152609d60205260408082206004908101549151630748d63560e31b81526001600160a01b03878116928201929092526024810192909252919283921690633a46b1a89060440160206040518083038186803b158015610ca357600080fd5b505afa158015610cb7573d6000803e3d6000fd5b505050506040513d601f19601f82011682018060405250810190610cdb9190611991565b11610d345760405162461bcd60e51b8152602060048201526024808201527f766f74657220646f6573206e6f7420686f6c6420616e7920455243323020746f6044820152636b656e7360e01b6064820152608401610539565b50600192915050565b6033546001600160a01b03163314610d675760405162461bcd60e51b815260040161053990611b30565b609a80549082905560408051828152602081018490527fffc708f072ca56e3d45ef0cb288b96cb9378f5f63e1646868bfbc9c38f4263a19101610629565b6033546001600160a01b03163314610dcf5760405162461bcd60e51b815260040161053990611b30565b6001600160a01b038116610e345760405162461bcd60e51b815260206004820152602660248201527f4f776e61626c653a206e6577206f776e657220697320746865207a65726f206160448201526564647265737360d01b6064820152608401610539565b61054b81611131565b6000610e8b610e4a611288565b8360405161190160f01b6020820152602281018390526042810182905260009060620160405160208183030381529060405280519060200120905092915050565b92915050565b6000806000610ea08585611303565b91509150610ead81611373565b509392505050565b6000838152609d6020526040902060030154421115610f165760405162461bcd60e51b815260206004820152601860248201527f766f74696e6720706572696f64206861732070617373656400000000000000006044820152606401610539565b6000838152609d602090815260408083206001600160a01b038616845260050190915290205460ff1615610f8c5760405162461bcd60e51b815260206004820152601760248201527f766f7465722068617320616c726561647920766f7465640000000000000000006044820152606401610539565b6000838152609d602090815260408083206001600160a01b03861684526005019091528120805460ff19166001179055610fc68385610c3e565b905060ff8216610ffc576000848152609d602052604081206001018054839290610ff1908490611bbe565b9091555061109b9050565b60ff821660011415611026576000848152609d602052604081208054839290610ff1908490611bbe565b60ff821660021415611053576000848152609d602052604081206002018054839290610ff1908490611bbe565b60405162461bcd60e51b815260206004820152601f60248201527f696e76616c69642076616c756520666f7220656e756d20566f746554797065006044820152606401610539565b604080516001600160a01b03851681526020810186905260ff8416818301526060810183905290517f27eb20ecadc80d52f641a540b295d208f7c3735545d321b08e505116c60131999181900360800190a150505050565b609e80549082905560408051828152602081018490527fc33728fb6bc64ec1c5596c946e1406ccdfb7369404098c1d6a5f4a7a29c97b639101610629565b603380546001600160a01b038381166001600160a01b0319831681179093556040519116919082907f8be0079c531659141344cd1fd0a4f28419497f9722a3daafe3b4186f6b6457e090600090a35050565b600054610100900460ff168061119c575060005460ff16155b6111b85760405162461bcd60e51b815260040161053990611ae2565b600054610100900460ff161580156111da576000805461ffff19166101011790555b6111e261152e565b6111ea611598565b801561054b576000805461ff001916905550565b600054610100900460ff1680611217575060005460ff16155b6112335760405162461bcd60e51b815260040161053990611ae2565b600054610100900460ff16158015611255576000805461ffff19166101011790555b82516020808501919091208351918401919091206066919091556067558015610c39576000805461ff0019169055505050565b600061048e7f8b73c3c69bb8fe3d512ecc4cf759cc79239f7b179b0ffacaa9a75d522b39400f6112b760665490565b6067546040805160208101859052908101839052606081018290524660808201523060a082015260009060c0016040516020818303038152906040528051906020012090509392505050565b60008082516041141561133a5760208301516040840151606085015160001a61132e878285856115f8565b9450945050505061136c565b82516040141561136457602083015160408401516113598683836116e5565b93509350505061136c565b506000905060025b9250929050565b600081600481111561138757611387611c76565b14156113905750565b60018160048111156113a4576113a4611c76565b14156113f25760405162461bcd60e51b815260206004820152601860248201527f45434453413a20696e76616c6964207369676e617475726500000000000000006044820152606401610539565b600281600481111561140657611406611c76565b14156114545760405162461bcd60e51b815260206004820152601f60248201527f45434453413a20696e76616c6964207369676e6174757265206c656e677468006044820152606401610539565b600381600481111561146857611468611c76565b14156114c15760405162461bcd60e51b815260206004820152602260248201527f45434453413a20696e76616c6964207369676e6174757265202773272076616c604482015261756560f01b6064820152608401610539565b60048160048111156114d5576114d5611c76565b141561054b5760405162461bcd60e51b815260206004820152602260248201527f45434453413a20696e76616c6964207369676e6174757265202776272076616c604482015261756560f01b6064820152608401610539565b600054610100900460ff1680611547575060005460ff16155b6115635760405162461bcd60e51b815260040161053990611ae2565b600054610100900460ff161580156111ea576000805461ffff1916610101179055801561054b576000805461ff001916905550565b600054610100900460ff16806115b1575060005460ff16155b6115cd5760405162461bcd60e51b815260040161053990611ae2565b600054610100900460ff161580156115ef576000805461ffff19166101011790555b6111ea33611131565b6000807f7fffffffffffffffffffffffffffffff5d576e7357a4501ddfe92f46681b20a083111561162f57506000905060036116dc565b8460ff16601b1415801561164757508460ff16601c14155b1561165857506000905060046116dc565b6040805160008082526020820180845289905260ff881692820192909252606081018690526080810185905260019060a0016020604051602081039080840390855afa1580156116ac573d6000803e3d6000fd5b5050604051601f1901519150506001600160a01b0381166116d5576000600192509250506116dc565b9150600090505b94509492505050565b6000806001600160ff1b03831660ff84901c601b01611706878288856115f8565b935093505050935093915050565b82805461172090611c25565b90600052602060002090601f0160209004810192826117425760008555611788565b82601f1061175b57805160ff1916838001178555611788565b82800160010185558215611788579182015b8281111561178857825182559160200191906001019061176d565b50611794929150611798565b5090565b5b808211156117945760008155600101611799565b600082601f8301126117be57600080fd5b81356117d16117cc82611b96565b611b65565b8181528460208386010111156117e657600080fd5b816020850160208301376000918101602001919091529392505050565b803560ff8116811461181457600080fd5b919050565b60006020828403121561182b57600080fd5b813561183681611ca2565b9392505050565b600080600080600080600060e0888a03121561185857600080fd5b875161186381611ca2565b602089015190975061187481611ca2565b604089015190965061188581611ca2565b80955050606088015193506080880151925060a0880151915060c088015167ffffffffffffffff8111156118b857600080fd5b8801601f81018a136118c957600080fd5b80516118d76117cc82611b96565b8181528b60208385010111156118ec57600080fd5b6118fd826020830160208601611bf5565b80935050505092959891949750929550565b6000806040838503121561192257600080fd5b823561192d81611ca2565b946020939093013593505050565b60006020828403121561194d57600080fd5b813567ffffffffffffffff81111561196457600080fd5b611970848285016117ad565b949350505050565b60006020828403121561198a57600080fd5b5035919050565b6000602082840312156119a357600080fd5b5051919050565b600080604083850312156119bd57600080fd5b8235915060208301356119cf81611ca2565b809150509250929050565b6000806000606084860312156119ef57600080fd5b833592506119ff60208501611803565b9150604084013567ffffffffffffffff811115611a1b57600080fd5b611a27868287016117ad565b9150509250925092565b60008060008060808587031215611a4757600080fd5b84359350611a5760208601611803565b9250604085013567ffffffffffffffff80821115611a7457600080fd5b611a80888389016117ad565b93506060870135915080821115611a9657600080fd5b50611aa3878288016117ad565b91505092959194509250565b6020815260008251806020840152611ace816040850160208701611bf5565b601f01601f19169190910160400192915050565b6020808252602e908201527f496e697469616c697a61626c653a20636f6e747261637420697320616c72656160408201526d191e481a5b9a5d1a585b1a5e995960921b606082015260800190565b6020808252818101527f4f776e61626c653a2063616c6c6572206973206e6f7420746865206f776e6572604082015260600190565b604051601f8201601f1916810167ffffffffffffffff81118282101715611b8e57611b8e611c8c565b604052919050565b600067ffffffffffffffff821115611bb057611bb0611c8c565b50601f01601f191660200190565b60008219821115611bd157611bd1611c60565b500190565b6000816000190483118215151615611bf057611bf0611c60565b500290565b60005b83811015611c10578181015183820152602001611bf8565b83811115611c1f576000848401525b50505050565b600181811c90821680611c3957607f821691505b60208210811415611c5a57634e487b7160e01b600052602260045260246000fd5b50919050565b634e487b7160e01b600052601160045260246000fd5b634e487b7160e01b600052602160045260246000fd5b634e487b7160e01b600052604160045260246000fd5b6001600160a01b038116811461054b57600080fdfea2646970667358221220450a8b6e8cd591a038d168054eda2cd63de5c26e02b1cb1cd608f1ee2d604d0864736f6c63430008060033496e697469616c697a61626c653a20636f6e747261637420697320616c7265614f776e61626c653a2063616c6c6572206973206e6f7420746865206f776e6572",
  "linkReferences": {},
  "deployedLinkReferences": {}
}