{
  "_format": "hh-sol-artifact-1",
  "contractName": "ProposalModule",
  "sourceName": "contracts/ProposalModule.sol",
  "abi": [
    {
      "inputs": [
        {
          "internalType": "uint256",
          "name": "_proposalTime",
          "type": "uint256"
        },
        {
          "internalType": "uint256",
          "name": "_threshold",
          "type": "uint256"
        }
      ],
      "stateMutability": "nonpayable",
      "type": "constructor"
    },
    {
      "anonymous": false,
      "inputs": [
        {
          "indexed": true,
          "internalType": "address",
          "name": "previousAvatar",
          "type": "address"
        },
        {
          "indexed": true,
          "internalType": "address",
          "name": "newAvatar",
          "type": "address"
        }
      ],
      "name": "AvatarSet",
      "type": "event"
    },
    {
      "anonymous": false,
      "inputs": [
        {
          "indexed": false,
          "internalType": "address",
          "name": "guard",
          "type": "address"
        }
      ],
      "name": "ChangedGuard",
      "type": "event"
    },
    {
      "anonymous": false,
      "inputs": [
        {
          "indexed": false,
          "internalType": "address",
          "name": "module",
          "type": "address"
        }
      ],
      "name": "DisabledModule",
      "type": "event"
    },
    {
      "anonymous": false,
      "inputs": [
        {
          "indexed": false,
          "internalType": "address",
          "name": "module",
          "type": "address"
        }
      ],
      "name": "EnabledModule",
      "type": "event"
    },
    {
      "anonymous": false,
      "inputs": [
        {
          "indexed": false,
          "internalType": "uint256",
          "name": "endDate",
          "type": "uint256"
        }
      ],
      "name": "GracePeriodStarted",
      "type": "event"
    },
    {
      "anonymous": false,
      "inputs": [
        {
          "indexed": true,
          "internalType": "address",
          "name": "previousOwner",
          "type": "address"
        },
        {
          "indexed": true,
          "internalType": "address",
          "name": "newOwner",
          "type": "address"
        }
      ],
      "name": "OwnershipTransferred",
      "type": "event"
    },
    {
      "anonymous": false,
      "inputs": [
        {
          "indexed": false,
          "internalType": "uint256",
          "name": "number",
          "type": "uint256"
        }
      ],
      "name": "ProposalCreated",
      "type": "event"
    },
    {
      "anonymous": false,
      "inputs": [
        {
          "indexed": false,
          "internalType": "uint256",
          "name": "id",
          "type": "uint256"
        }
      ],
      "name": "ProposalExecuted",
      "type": "event"
    },
    {
      "inputs": [],
      "name": "DOMAIN_SEPARATOR_TYPEHASH",
      "outputs": [
        {
          "internalType": "bytes32",
          "name": "",
          "type": "bytes32"
        }
      ],
      "stateMutability": "view",
      "type": "function"
    },
    {
      "inputs": [],
      "name": "TRANSACTION_TYPEHASH",
      "outputs": [
        {
          "internalType": "bytes32",
          "name": "",
          "type": "bytes32"
        }
      ],
      "stateMutability": "view",
      "type": "function"
    },
    {
      "inputs": [
        {
          "internalType": "address",
          "name": "",
          "type": "address"
        }
      ],
      "name": "activeProposal",
      "outputs": [
        {
          "internalType": "bool",
          "name": "",
          "type": "bool"
        }
      ],
      "stateMutability": "view",
      "type": "function"
    },
    {
      "inputs": [],
      "name": "avatar",
      "outputs": [
        {
          "internalType": "address",
          "name": "",
          "type": "address"
        }
      ],
      "stateMutability": "view",
      "type": "function"
    },
    {
      "inputs": [
        {
          "internalType": "uint256",
          "name": "proposalId",
          "type": "uint256"
        }
      ],
      "name": "cancelProposal",
      "outputs": [],
      "stateMutability": "nonpayable",
      "type": "function"
    },
    {
      "inputs": [
        {
          "internalType": "address",
          "name": "prevModule",
          "type": "address"
        },
        {
          "internalType": "address",
          "name": "module",
          "type": "address"
        }
      ],
      "name": "disableModule",
      "outputs": [],
      "stateMutability": "nonpayable",
      "type": "function"
    },
    {
      "inputs": [
        {
          "internalType": "address",
          "name": "module",
          "type": "address"
        }
      ],
      "name": "enableModule",
      "outputs": [],
      "stateMutability": "nonpayable",
      "type": "function"
    },
    {
      "inputs": [
        {
          "internalType": "address",
          "name": "to",
          "type": "address"
        },
        {
          "internalType": "uint256",
          "name": "value",
          "type": "uint256"
        },
        {
          "internalType": "bytes",
          "name": "data",
          "type": "bytes"
        },
        {
          "internalType": "enum Enum.Operation",
          "name": "operation",
          "type": "uint8"
        }
      ],
      "name": "execTransactionFromModule",
      "outputs": [
        {
          "internalType": "bool",
          "name": "success",
          "type": "bool"
        }
      ],
      "stateMutability": "nonpayable",
      "type": "function"
    },
    {
      "inputs": [
        {
          "internalType": "address",
          "name": "to",
          "type": "address"
        },
        {
          "internalType": "uint256",
          "name": "value",
          "type": "uint256"
        },
        {
          "internalType": "bytes",
          "name": "data",
          "type": "bytes"
        },
        {
          "internalType": "enum Enum.Operation",
          "name": "operation",
          "type": "uint8"
        }
      ],
      "name": "execTransactionFromModuleReturnData",
      "outputs": [
        {
          "internalType": "bool",
          "name": "success",
          "type": "bool"
        },
        {
          "internalType": "bytes",
          "name": "returnData",
          "type": "bytes"
        }
      ],
      "stateMutability": "nonpayable",
      "type": "function"
    },
    {
      "inputs": [
        {
          "internalType": "uint256",
          "name": "proposalId",
          "type": "uint256"
        },
        {
          "internalType": "address[]",
          "name": "targets",
          "type": "address[]"
        },
        {
          "internalType": "uint256[]",
          "name": "values",
          "type": "uint256[]"
        },
        {
          "internalType": "bytes[]",
          "name": "data",
          "type": "bytes[]"
        },
        {
          "internalType": "enum Enum.Operation[]",
          "name": "operations",
          "type": "uint8[]"
        },
        {
          "internalType": "uint256",
          "name": "startIndex",
          "type": "uint256"
        },
        {
          "internalType": "uint256",
          "name": "txCount",
          "type": "uint256"
        }
      ],
      "name": "executeProposalBatch",
      "outputs": [],
      "stateMutability": "nonpayable",
      "type": "function"
    },
    {
      "inputs": [
        {
          "internalType": "uint256",
          "name": "proposalId",
          "type": "uint256"
        },
        {
          "internalType": "address",
          "name": "target",
          "type": "address"
        },
        {
          "internalType": "uint256",
          "name": "value",
          "type": "uint256"
        },
        {
          "internalType": "bytes",
          "name": "data",
          "type": "bytes"
        },
        {
          "internalType": "enum Enum.Operation",
          "name": "operation",
          "type": "uint8"
        },
        {
          "internalType": "uint256",
          "name": "txIndex",
          "type": "uint256"
        }
      ],
      "name": "executeProposalByIndex",
      "outputs": [],
      "stateMutability": "nonpayable",
      "type": "function"
    },
    {
      "inputs": [
        {
          "internalType": "address",
          "name": "to",
          "type": "address"
        },
        {
          "internalType": "uint256",
          "name": "value",
          "type": "uint256"
        },
        {
          "internalType": "bytes",
          "name": "data",
          "type": "bytes"
        },
        {
          "internalType": "enum Enum.Operation",
          "name": "operation",
          "type": "uint8"
        },
        {
          "internalType": "uint256",
          "name": "nonce",
          "type": "uint256"
        }
      ],
      "name": "generateTransactionHashData",
      "outputs": [
        {
          "internalType": "bytes",
          "name": "",
          "type": "bytes"
        }
      ],
      "stateMutability": "view",
      "type": "function"
    },
    {
      "inputs": [],
      "name": "getChainId",
      "outputs": [
        {
          "internalType": "uint256",
          "name": "",
          "type": "uint256"
        }
      ],
      "stateMutability": "view",
      "type": "function"
    },
    {
      "inputs": [],
      "name": "getGuard",
      "outputs": [
        {
          "internalType": "address",
          "name": "_guard",
          "type": "address"
        }
      ],
      "stateMutability": "view",
      "type": "function"
    },
    {
      "inputs": [
        {
          "internalType": "address",
          "name": "start",
          "type": "address"
        },
        {
          "internalType": "uint256",
          "name": "pageSize",
          "type": "uint256"
        }
      ],
      "name": "getModulesPaginated",
      "outputs": [
        {
          "internalType": "address[]",
          "name": "array",
          "type": "address[]"
        },
        {
          "internalType": "address",
          "name": "next",
          "type": "address"
        }
      ],
      "stateMutability": "view",
      "type": "function"
    },
    {
      "inputs": [
        {
          "internalType": "uint256",
          "name": "proposalId",
          "type": "uint256"
        }
      ],
      "name": "getProposalStart",
      "outputs": [
        {
          "internalType": "uint256",
          "name": "",
          "type": "uint256"
        }
      ],
      "stateMutability": "view",
      "type": "function"
    },
    {
      "inputs": [
        {
          "internalType": "address",
          "name": "to",
          "type": "address"
        },
        {
          "internalType": "uint256",
          "name": "value",
          "type": "uint256"
        },
        {
          "internalType": "bytes",
          "name": "data",
          "type": "bytes"
        },
        {
          "internalType": "enum Enum.Operation",
          "name": "operation",
          "type": "uint8"
        },
        {
          "internalType": "uint256",
          "name": "nonce",
          "type": "uint256"
        }
      ],
      "name": "getTransactionHash",
      "outputs": [
        {
          "internalType": "bytes32",
          "name": "",
          "type": "bytes32"
        }
      ],
      "stateMutability": "view",
      "type": "function"
    },
    {
      "inputs": [
        {
          "internalType": "uint256",
          "name": "proposalId",
          "type": "uint256"
        },
        {
          "internalType": "uint256",
          "name": "index",
          "type": "uint256"
        }
      ],
      "name": "getTxHash",
      "outputs": [
        {
          "internalType": "bytes32",
          "name": "",
          "type": "bytes32"
        }
      ],
      "stateMutability": "view",
      "type": "function"
    },
    {
      "inputs": [],
      "name": "gracePeriod",
      "outputs": [
        {
          "internalType": "uint256",
          "name": "",
          "type": "uint256"
        }
      ],
      "stateMutability": "view",
      "type": "function"
    },
    {
      "inputs": [],
      "name": "guard",
      "outputs": [
        {
          "internalType": "address",
          "name": "",
          "type": "address"
        }
      ],
      "stateMutability": "view",
      "type": "function"
    },
    {
      "inputs": [],
      "name": "initialized",
      "outputs": [
        {
          "internalType": "bool",
          "name": "",
          "type": "bool"
        }
      ],
      "stateMutability": "view",
      "type": "function"
    },
    {
      "inputs": [
        {
          "internalType": "uint256",
          "name": "proposalId",
          "type": "uint256"
        },
        {
          "internalType": "uint256",
          "name": "index",
          "type": "uint256"
        }
      ],
      "name": "isExecuted",
      "outputs": [
        {
          "internalType": "bool",
          "name": "",
          "type": "bool"
        }
      ],
      "stateMutability": "view",
      "type": "function"
    },
    {
      "inputs": [
        {
          "internalType": "address",
          "name": "_module",
          "type": "address"
        }
      ],
      "name": "isModuleEnabled",
      "outputs": [
        {
          "internalType": "bool",
          "name": "",
          "type": "bool"
        }
      ],
      "stateMutability": "view",
      "type": "function"
    },
    {
      "inputs": [
        {
          "internalType": "uint256",
          "name": "proposalId",
          "type": "uint256"
        }
      ],
      "name": "isProposalFullyExecuted",
      "outputs": [
        {
          "internalType": "bool",
          "name": "",
          "type": "bool"
        }
      ],
      "stateMutability": "view",
      "type": "function"
    },
    {
      "inputs": [],
      "name": "owner",
      "outputs": [
        {
          "internalType": "address",
          "name": "",
          "type": "address"
        }
      ],
      "stateMutability": "view",
      "type": "function"
    },
    {
      "inputs": [],
      "name": "proposalTime",
      "outputs": [
        {
          "internalType": "uint256",
          "name": "",
          "type": "uint256"
        }
      ],
      "stateMutability": "view",
      "type": "function"
    },
    {
      "inputs": [
        {
          "internalType": "uint256",
          "name": "",
          "type": "uint256"
        }
      ],
      "name": "proposals",
      "outputs": [
        {
          "internalType": "uint256",
          "name": "startTime",
          "type": "uint256"
        },
        {
          "internalType": "uint256",
          "name": "yesVotes",
          "type": "uint256"
        },
        {
          "internalType": "uint256",
          "name": "noVotes",
          "type": "uint256"
        },
        {
          "internalType": "bool",
          "name": "queued",
          "type": "bool"
        },
        {
          "internalType": "uint256",
          "name": "deadline",
          "type": "uint256"
        },
        {
          "internalType": "address",
          "name": "proposer",
          "type": "address"
        },
        {
          "internalType": "bool",
          "name": "canceled",
          "type": "bool"
        },
        {
          "internalType": "uint256",
          "name": "gracePeriod",
          "type": "uint256"
        },
        {
          "internalType": "uint256",
          "name": "executionCounter",
          "type": "uint256"
        }
      ],
      "stateMutability": "view",
      "type": "function"
    },
    {
      "inputs": [
        {
          "internalType": "address",
          "name": "voter",
          "type": "address"
        },
        {
          "internalType": "uint256",
          "name": "proposalId",
          "type": "uint256"
        },
        {
          "internalType": "bool",
          "name": "vote",
          "type": "bool"
        },
        {
          "internalType": "uint256",
          "name": "weight",
          "type": "uint256"
        }
      ],
      "name": "receiveVote",
      "outputs": [],
      "stateMutability": "nonpayable",
      "type": "function"
    },
    {
      "inputs": [],
      "name": "renounceOwnership",
      "outputs": [],
      "stateMutability": "nonpayable",
      "type": "function"
    },
    {
      "inputs": [
        {
          "internalType": "address",
          "name": "_avatar",
          "type": "address"
        }
      ],
      "name": "setAvatar",
      "outputs": [],
      "stateMutability": "nonpayable",
      "type": "function"
    },
    {
      "inputs": [
        {
          "internalType": "address",
          "name": "_guard",
          "type": "address"
        }
      ],
      "name": "setGuard",
      "outputs": [],
      "stateMutability": "nonpayable",
      "type": "function"
    },
    {
      "inputs": [
        {
          "internalType": "bytes",
          "name": "initializeParams",
          "type": "bytes"
        }
      ],
      "name": "setUp",
      "outputs": [],
      "stateMutability": "nonpayable",
      "type": "function"
    },
    {
      "inputs": [
        {
          "internalType": "uint256",
          "name": "proposalId",
          "type": "uint256"
        }
      ],
      "name": "startQueue",
      "outputs": [],
      "stateMutability": "nonpayable",
      "type": "function"
    },
    {
      "inputs": [
        {
          "internalType": "bytes32[]",
          "name": "txHashes",
          "type": "bytes32[]"
        }
      ],
      "name": "submitProposal",
      "outputs": [],
      "stateMutability": "nonpayable",
      "type": "function"
    },
    {
      "inputs": [],
      "name": "threshold",
      "outputs": [
        {
          "internalType": "uint256",
          "name": "",
          "type": "uint256"
        }
      ],
      "stateMutability": "view",
      "type": "function"
    },
    {
      "inputs": [],
      "name": "totalProposalCount",
      "outputs": [
        {
          "internalType": "uint256",
          "name": "",
          "type": "uint256"
        }
      ],
      "stateMutability": "view",
      "type": "function"
    },
    {
      "inputs": [
        {
          "internalType": "address",
          "name": "newOwner",
          "type": "address"
        }
      ],
      "name": "transferOwnership",
      "outputs": [],
      "stateMutability": "nonpayable",
      "type": "function"
    },
    {
      "inputs": [
        {
          "internalType": "uint256",
          "name": "gracePeriod",
          "type": "uint256"
        }
      ],
      "name": "updateGracePeriod",
      "outputs": [],
      "stateMutability": "nonpayable",
      "type": "function"
    },
    {
      "inputs": [
        {
          "internalType": "uint256",
          "name": "newTime",
          "type": "uint256"
        }
      ],
      "name": "updateProposalTime",
      "outputs": [],
      "stateMutability": "nonpayable",
      "type": "function"
    },
    {
      "inputs": [
        {
          "internalType": "uint256",
          "name": "threshold",
          "type": "uint256"
        }
      ],
      "name": "updateThreshold",
      "outputs": [],
      "stateMutability": "nonpayable",
      "type": "function"
    }
  ],
  "bytecode": "0x6080604052603c606a553480156200001657600080fd5b5060405162002f0138038062002f018339810160408190526200003991620002e7565b620000436200009b565b6001600081905260676020527f6bee784efeb983674392298ab585b22866bedf00ebb0eea949d1e66f3f50e71d80546001600160a01b03191690911790556200008e82603c6200030c565b606955606b55506200033a565b600054610100900460ff1680620000b5575060005460ff16155b6200010d5760405162461bcd60e51b815260206004820152602e602482015260008051602062002ee183398151915260448201526d191e481a5b9a5d1a585b1a5e995960921b60648201526084015b60405180910390fd5b600054610100900460ff1615801562000130576000805461ffff19166101011790555b6200013a6200015a565b62000144620001ff565b801562000157576000805461ff00191690555b50565b600054610100900460ff168062000174575060005460ff16155b620001c85760405162461bcd60e51b815260206004820152602e602482015260008051602062002ee183398151915260448201526d191e481a5b9a5d1a585b1a5e995960921b606482015260840162000104565b600054610100900460ff1615801562000144576000805461ffff1916610101179055801562000157576000805461ff001916905550565b600054610100900460ff168062000219575060005460ff16155b6200026d5760405162461bcd60e51b815260206004820152602e602482015260008051602062002ee183398151915260448201526d191e481a5b9a5d1a585b1a5e995960921b606482015260840162000104565b600054610100900460ff1615801562000290576000805461ffff19166101011790555b6200014433603380546001600160a01b038381166001600160a01b0319831681179093556040519116919082907f8be0079c531659141344cd1fd0a4f28419497f9722a3daafe3b4186f6b6457e090600090a35050565b60008060408385031215620002fb57600080fd5b505080516020909101519092909150565b60008160001904831182151516156200033557634e487b7160e01b600052601160045260246000fd5b500290565b612b97806200034a6000396000f3fe608060405234801561001057600080fd5b50600436106102485760003560e01c8063715018a61161013b578063d4572eab116100b8578063e19a9dd91161007c578063e19a9dd9146105db578063e2d9edf9146105ee578063e30cfa4014610611578063ead0eedf14610624578063f2fde38b1461062d57600080fd5b8063d4572eab1461058f578063d7d7442f14610435578063dcb84914146105a2578063e009cfde146105b5578063e0a8f6f5146105c857600080fd5b8063a06db7dc116100ff578063a06db7dc1461052a578063a4f9edbf14610533578063ac97ec1d14610545578063c910638914610558578063cc2f84521461056e57600080fd5b8063715018a6146104bf5780637ceab3b1146104c7578063882b5c67146104df57806388633b7b146104f25780638da5cb5b1461051957600080fd5b8063425a2a3c116101c95780635aef7de61161018d5780635aef7de6146104485780635ece30ab14610473578063610b5925146104865780636362bcbc146104995780636e6ebbbc146104ac57600080fd5b8063425a2a3c146103d857806342cde4e8146103f8578063468721a7146104015780635229073f146104145780635ab98d5a1461043557600080fd5b8063184a0ae911610210578063184a0ae91461037c5780631db61b54146103855780632b500041146103ac5780632d9ad53d146103bf5780633408e470146103d257600080fd5b8063013cf08b1461024d57806306aebc4214610309578063086cfca81461033757806312e14b0b1461034c578063158ef93e1461035f575b600080fd5b6102b561025b3660046125fb565b606c6020526000908152604090208054600182015460028301546003840154600485015460058601546006870154600a9097015495969495939460ff9384169492936001600160a01b03831693600160a01b909304169189565b60408051998a5260208a019890985296880195909552921515606087015260808601919091526001600160a01b031660a0850152151560c084015260e0830152610100820152610120015b60405180910390f35b6103296103173660046125fb565b6000908152606c602052604090205490565b604051908152602001610300565b61034a610345366004612360565b610640565b005b61034a61035a36600461268e565b6106c5565b60655461036c9060ff1681565b6040519015158152602001610300565b61032960695481565b6103297f47e79534a245952e8b16893a336b85a3d9ea9fa8c573f3d803afb92a7946921881565b6103296103ba366004612494565b610b1f565b61036c6103cd366004612360565b610b41565b46610329565b6103eb6103e6366004612494565b610b7c565b6040516103009190612968565b610329606b5481565b61036c61040f366004612425565b610c78565b610427610422366004612425565b610cad565b60405161030092919061290b565b61034a6104433660046125fb565b610cef565b60665461045b906001600160a01b031681565b6040516001600160a01b039091168152602001610300565b61034a6104813660046125fb565b610d34565b61034a610494366004612360565b610d7b565b61034a6104a7366004612614565b610efb565b6103296104ba366004612758565b611275565b61034a6112ab565b60655461045b9061010090046001600160a01b031681565b61036c6104ed3660046125fb565b6112e1565b6103297f72e9670a7ee00f5fbf1049b8c38e3f22fab7e9b85029e85cf9412f17fdd5c2ad81565b6033546001600160a01b031661045b565b610329606a5481565b61034a6105413660046125b9565b5050565b61034a6105533660046125fb565b61130c565b60655461010090046001600160a01b031661045b565b61058161057c3660046123b5565b6114e7565b6040516103009291906128ae565b61034a61059d366004612504565b6115e1565b61034a6105b03660046123df565b61177e565b61034a6105c3366004612382565b611951565b61034a6105d63660046125fb565b611abb565b61034a6105e9366004612360565b611bfb565b61036c6105fc366004612360565b606d6020526000908152604090205460ff1681565b61036c61061f366004612758565b611d57565b61032960685481565b61034a61063b366004612360565b611da2565b6033546001600160a01b031633146106735760405162461bcd60e51b815260040161066a906129d8565b60405180910390fd5b606680546001600160a01b038381166001600160a01b0319831681179093556040519116919082907f52ae88b092de36f87fb43fe794eb1381023b9c1bce563a871154022c63dce34290600090a35050565b6000878152606c60205260409020600501548790600160a01b900460ff16156107005760405162461bcd60e51b815260040161066a9061297b565b6000818152606c60205260409020600a015461072e5760405162461bcd60e51b815260040161066a906129b9565b606b546000828152606c602052604090206001015410156107615760405162461bcd60e51b815260040161066a9061299a565b6000818152606c60205260409020600281015460019091015410156107985760405162461bcd60e51b815260040161066a90612a3c565b6000888152606c602052604090206006015442108015906107c957506000888152606c602052604090206006015415155b6107fd5760405162461bcd60e51b8152602060048201526005602482015264545730313560d81b604482015260640161066a565b8551875114801561080f575084518751145b6108435760405162461bcd60e51b8152602060048201526005602482015264545730323960d81b604482015260640161066a565b86516108795760405162461bcd60e51b8152602060048201526005602482015264054573033360dc1b604482015260640161066a565b8215806108ce57506000888152606c6020526040902060080161089d600185612ac8565b815481106108ad576108ad612b27565b90600052602060002090602091828204019190069054906101000a900460ff165b6109025760405162461bcd60e51b81526020600482015260056024820152641515cc0ccd60da1b604482015260640161066a565b825b61090e8385612ab0565b811015610ad657600061097089838151811061092c5761092c612b27565b602002602001015189848151811061094657610946612b27565b602002602001015189858151811061096057610960612b27565b6020026020010151600080610b1f565b60008b8152606c60205260409020600901805491925082918490811061099857610998612b27565b9060005260206000200154146109d85760405162461bcd60e51b81526020600482015260056024820152642a2b98199960d91b604482015260640161066a565b60008a8152606c60205260408120600a018054916109f583612adf565b909155505060008a8152606c6020526040902060080180546001919084908110610a2157610a21612b27565b90600052602060002090602091828204019190066101000a81548160ff021916908315150217905550610aba898381518110610a5f57610a5f612b27565b6020026020010151898481518110610a7957610a79612b27565b6020026020010151898581518110610a9357610a93612b27565b6020026020010151898681518110610aad57610aad612b27565b6020026020010151611e3a565b610ac357600080fd5b5080610ace81612af6565b915050610904565b50610ae0886112e1565b15610b15576000888152606c60209081526040808320600501546001600160a01b03168352606d9091529020805460ff191690555b5050505050505050565b6000610b2e8686868686610b7c565b8051906020012090505b95945050505050565b600060016001600160a01b03831614801590610b7657506001600160a01b038281166000908152606760205260409020541615155b92915050565b6060600046604080517f47e79534a245952e8b16893a336b85a3d9ea9fa8c573f3d803afb92a79469218602082015290810182905230606082015290915060009060800160408051601f19818403018152908290528051602091820120885189830120909350600092610c19927f72e9670a7ee00f5fbf1049b8c38e3f22fab7e9b85029e85cf9412f17fdd5c2ad928d928d928c918c9101612926565b60408051808303601f19018152908290528051602091820120601960f81b91830191909152600160f81b602183015260228201849052604282018190529150606201604051602081830303815290604052935050505095945050505050565b336000908152606760205260408120546001600160a01b0316610b385760405162461bcd60e51b815260040161066a90612a0d565b336000908152606760205260408120546060906001600160a01b0316610ce55760405162461bcd60e51b815260040161066a90612a0d565b9550959350505050565b6066546001600160a01b03163314610d315760405162461bcd60e51b8152602060048201526005602482015264545730303160d81b604482015260640161066a565b50565b6066546001600160a01b03163314610d765760405162461bcd60e51b8152602060048201526005602482015264545730303160d81b604482015260640161066a565b606955565b6033546001600160a01b03163314610da55760405162461bcd60e51b815260040161066a906129d8565b6001600160a01b03811615801590610dc757506001600160a01b038116600114155b610e045760405162461bcd60e51b815260206004820152600e60248201526d496e76616c6964206d6f64756c6560901b604482015260640161066a565b6001600160a01b038181166000908152606760205260409020541615610e655760405162461bcd60e51b8152602060048201526016602482015275135bd91d5b1948185b1c9958591e48195b98589b195960521b604482015260640161066a565b606760209081527f6bee784efeb983674392298ab585b22866bedf00ebb0eea949d1e66f3f50e71d80546001600160a01b03848116600081815260408082208054949095166001600160a01b0319948516179094556001905283549091168117909255519081527fecdf3a3effea5783a3c4c2140e677577666428d44ed9d474a0b3a4c9943f844091015b60405180910390a150565b6000868152606c60205260409020600501548690600160a01b900460ff1615610f365760405162461bcd60e51b815260040161066a9061297b565b6000818152606c60205260409020600a0154610f645760405162461bcd60e51b815260040161066a906129b9565b606b546000828152606c60205260409020600101541015610f975760405162461bcd60e51b815260040161066a9061299a565b6000818152606c6020526040902060028101546001909101541015610fce5760405162461bcd60e51b815260040161066a90612a3c565b6000878152606c60205260409020600601544210801590610fff57506000878152606c602052604090206006015415155b6110335760405162461bcd60e51b8152602060048201526005602482015264545730313560d81b604482015260640161066a565b6000878152606c6020526040902060080180548390811061105657611056612b27565b60009182526020918290209181049091015460ff601f9092166101000a900416156110ab5760405162461bcd60e51b8152602060048201526005602482015264545730303960d81b604482015260640161066a565b60006110bb878787600080610b1f565b6000898152606c6020526040902060090180549192508291859081106110e3576110e3612b27565b9060005260206000200154146111235760405162461bcd60e51b8152602060048201526005602482015264545730333160d81b604482015260640161066a565b82158061117857506000888152606c60205260409020600801611147600185612ac8565b8154811061115757611157612b27565b90600052602060002090602091828204019190069054906101000a900460ff165b6111ac5760405162461bcd60e51b8152602060048201526005602482015264545730333360d81b604482015260640161066a565b6000888152606c60205260409020600801805460019190859081106111d3576111d3612b27565b6000918252602080832081830401805460ff601f9094166101000a938402191694151592909202939093179055898152606c90915260408120600a0180549161121b83612adf565b9190505550611229886112e1565b1561125e576000888152606c60209081526040808320600501546001600160a01b03168352606d9091529020805460ff191690555b61126a87878787611e3a565b505050505050505050565b6000828152606c6020526040812060090180548390811061129857611298612b27565b9060005260206000200154905092915050565b6033546001600160a01b031633146112d55760405162461bcd60e51b815260040161066a906129d8565b6112df6000611ffd565b565b6000818152606c60205260408120600a01546112ff57506001919050565b506000919050565b919050565b6000818152606c60205260409020600501548190600160a01b900460ff16156113475760405162461bcd60e51b815260040161066a9061297b565b6000818152606c60205260409020600a01546113755760405162461bcd60e51b815260040161066a906129b9565b606b546000828152606c602052604090206001015410156113a85760405162461bcd60e51b815260040161066a9061299a565b6000818152606c60205260409020600281015460019091015410156113df5760405162461bcd60e51b815260040161066a90612a3c565b6000828152606c60205260409020600401544210156114285760405162461bcd60e51b81526020600482015260056024820152641515cc0c4d60da1b604482015260640161066a565b6000828152606c6020526040902060050154600160a01b900460ff16156114795760405162461bcd60e51b8152602060048201526005602482015264545730323360d81b604482015260640161066a565b606a546114869042612ab0565b6000838152606c60205260409081902060068101839055600301805460ff19166001179055517f8f8e13a8081be398c5032b04ccda337e916cf2d86c3708db9a734e6db8eb5490916114db9190815260200190565b60405180910390a15050565b606060008267ffffffffffffffff81111561150457611504612b3d565b60405190808252806020026020018201604052801561152d578160200160208202803683370190505b506001600160a01b0380861660009081526067602052604081205492945091165b6001600160a01b0381161580159061157057506001600160a01b038116600114155b801561157b57508482105b156115d3578084838151811061159357611593612b27565b6001600160a01b039283166020918202929092018101919091529181166000908152606790925260409091205416816115cb81612af6565b92505061154e565b908352919491935090915050565b60005b815181101561163c576068546000908152606c602090815260408220600801805460018101825590835291819020908204018054601f9092166101000a60ff021990911690558061163481612af6565b9150506115e4565b50336000908152606d602052604090205460ff16156116855760405162461bcd60e51b8152602060048201526005602482015264545730313160d81b604482015260640161066a565b8051606880546000908152606c60209081526040808320600a0194909455915481529190912082516116bf9260099092019184019061204f565b506068546000908152606c6020526040902042908190556069546116e291612ab0565b606880546000908152606c60209081526040808320600401949094558254825283822060050180546001600160a01b031916339081179091558252606d9052918220805460ff1916600117905580549161173b83612af6565b91905055507fc2c021f5d73c63c481d336fbbafec58f694fc45095f00b02d2deb8cca59afe0760016068546117709190612ac8565b604051908152602001610ef0565b336000908152606760205260409020546001600160a01b03166117b35760405162461bcd60e51b815260040161066a90612a0d565b6000838152606c602090815260408083206001600160a01b038816845260070190915290205460ff16156118115760405162461bcd60e51b8152602060048201526005602482015264545730303760d81b604482015260640161066a565b6000838152606c6020526040902060050154600160a01b900460ff16156118625760405162461bcd60e51b81526020600482015260056024820152640a8ae6060760db1b604482015260640161066a565b6000838152606c60205260409020600401544211156118ab5760405162461bcd60e51b8152602060048201526005602482015264054573031360dc1b604482015260640161066a565b6000838152606c602090815260408083206001600160a01b03881684526007019091529020805460ff19166001908117909155821515141561191b576000838152606c6020526040902060010154611904908290612ab0565b6000848152606c602052604090206001015561194b565b6000838152606c6020526040902060020154611938908290612ab0565b6000848152606c60205260409020600201555b50505050565b6033546001600160a01b0316331461197b5760405162461bcd60e51b815260040161066a906129d8565b6001600160a01b0381161580159061199d57506001600160a01b038116600114155b6119da5760405162461bcd60e51b815260206004820152600e60248201526d496e76616c6964206d6f64756c6560901b604482015260640161066a565b6001600160a01b03828116600090815260676020526040902054811690821614611a465760405162461bcd60e51b815260206004820152601760248201527f4d6f64756c6520616c72656164792064697361626c6564000000000000000000604482015260640161066a565b6001600160a01b038181166000818152606760209081526040808320805488871685528285208054919097166001600160a01b03199182161790965592849052825490941690915591519081527faab4fa2b463f581b2b32cb3b7e3b704b9ce37cc209b5fb4d77e593ace405427691016114db565b6000818152606c6020526040902060050154600160a01b900460ff1615611b0c5760405162461bcd60e51b81526020600482015260056024820152642a2b98189b60d91b604482015260640161066a565b6000818152606c60205260409020600a0154611b525760405162461bcd60e51b8152602060048201526005602482015264545730313760d81b604482015260640161066a565b6000818152606c60205260409020600501546001600160a01b0316331480611b8457506066546001600160a01b031633145b611bb85760405162461bcd60e51b8152602060048201526005602482015264545730313960d81b604482015260640161066a565b6000908152606c60209081526040808320600501805460ff60a01b198116600160a01b179091556001600160a01b03168352606d9091529020805460ff19169055565b6033546001600160a01b03163314611c255760405162461bcd60e51b815260040161066a906129d8565b6001600160a01b03811615611cfe576040516301ffc9a760e01b815263736bd41d60e11b60048201526001600160a01b038216906301ffc9a79060240160206040518083038186803b158015611c7a57600080fd5b505afa158015611c8e573d6000803e3d6000fd5b505050506040513d601f19601f82011682018060405250810190611cb2919061259c565b611cfe5760405162461bcd60e51b815260206004820181905260248201527f477561726420646f6573206e6f7420696d706c656d656e742049455243313635604482015260640161066a565b60658054610100600160a81b0319166101006001600160a01b038481168202929092179283905560405192041681527f1151116914515bc0891ff9047a6cb32cf902546f83066499bcf8ba33d2353fa290602001610ef0565b6000828152606c60205260408120600801805483908110611d7a57611d7a612b27565b90600052602060002090602091828204019190069054906101000a900460ff16905092915050565b6033546001600160a01b03163314611dcc5760405162461bcd60e51b815260040161066a906129d8565b6001600160a01b038116611e315760405162461bcd60e51b815260206004820152602660248201527f4f776e61626c653a206e6577206f776e657220697320746865207a65726f206160448201526564647265737360d01b606482015260840161066a565b610d3181611ffd565b60655460009061010090046001600160a01b031615611ee5576065546040805180820182526002815261060f60f31b60208201529051633af85da960e11b81526101009092046001600160a01b0316916375f0bb5291611eb2918991899189918991600091829182918291829190829060040161281f565b600060405180830381600087803b158015611ecc57600080fd5b505af1158015611ee0573d6000803e3d6000fd5b505050505b60665460405163468721a760e01b81526001600160a01b039091169063468721a790611f1b9088908890889088906004016127e9565b602060405180830381600087803b158015611f3557600080fd5b505af1158015611f49573d6000803e3d6000fd5b505050506040513d601f19601f82011682018060405250810190611f6d919061259c565b60655490915061010090046001600160a01b031615611ff557606554604051631264e26d60e31b815261060f60f31b600482015282151560248201526101009091046001600160a01b031690639327136890604401600060405180830381600087803b158015611fdc57600080fd5b505af1158015611ff0573d6000803e3d6000fd5b505050505b949350505050565b603380546001600160a01b038381166001600160a01b0319831681179093556040519116919082907f8be0079c531659141344cd1fd0a4f28419497f9722a3daafe3b4186f6b6457e090600090a35050565b82805482825590600052602060002090810192821561208a579160200282015b8281111561208a57825182559160200191906001019061206f565b5061209692915061209a565b5090565b5b80821115612096576000815560010161209b565b80356001600160a01b038116811461130757600080fd5b600082601f8301126120d757600080fd5b813560206120ec6120e783612a8c565b612a5b565b80838252828201915082860187848660051b890101111561210c57600080fd5b60005b8581101561213257612120826120af565b8452928401929084019060010161210f565b5090979650505050505050565b600082601f83011261215057600080fd5b813560206121606120e783612a8c565b80838252828201915082860187848660051b890101111561218057600080fd5b6000805b868110156121c357823567ffffffffffffffff8111156121a2578283fd5b6121b08b88838d01016122e1565b8652509385019391850191600101612184565b509198975050505050505050565b600082601f8301126121e257600080fd5b813560206121f26120e783612a8c565b80838252828201915082860187848660051b890101111561221257600080fd5b60005b858110156121325761222682612351565b84529284019290840190600101612215565b600082601f83011261224957600080fd5b813560206122596120e783612a8c565b80838252828201915082860187848660051b890101111561227957600080fd5b60005b858110156121325781358452928401929084019060010161227c565b60008083601f8401126122aa57600080fd5b50813567ffffffffffffffff8111156122c257600080fd5b6020830191508360208285010111156122da57600080fd5b9250929050565b600082601f8301126122f257600080fd5b813567ffffffffffffffff81111561230c5761230c612b3d565b61231f601f8201601f1916602001612a5b565b81815284602083860101111561233457600080fd5b816020850160208301376000918101602001919091529392505050565b80356002811061130757600080fd5b60006020828403121561237257600080fd5b61237b826120af565b9392505050565b6000806040838503121561239557600080fd5b61239e836120af565b91506123ac602084016120af565b90509250929050565b600080604083850312156123c857600080fd5b6123d1836120af565b946020939093013593505050565b600080600080608085870312156123f557600080fd5b6123fe856120af565b935060208501359250604085013561241581612b53565b9396929550929360600135925050565b60008060008060006080868803121561243d57600080fd5b612446866120af565b945060208601359350604086013567ffffffffffffffff81111561246957600080fd5b61247588828901612298565b9094509250612488905060608701612351565b90509295509295909350565b600080600080600060a086880312156124ac57600080fd5b6124b5866120af565b945060208601359350604086013567ffffffffffffffff8111156124d857600080fd5b6124e4888289016122e1565b9350506124f360608701612351565b949793965091946080013592915050565b6000602080838503121561251757600080fd5b823567ffffffffffffffff81111561252e57600080fd5b8301601f8101851361253f57600080fd5b803561254d6120e782612a8c565b80828252848201915084840188868560051b870101111561256d57600080fd5b600094505b83851015612590578035835260019490940193918501918501612572565b50979650505050505050565b6000602082840312156125ae57600080fd5b815161237b81612b53565b600080602083850312156125cc57600080fd5b823567ffffffffffffffff8111156125e357600080fd5b6125ef85828601612298565b90969095509350505050565b60006020828403121561260d57600080fd5b5035919050565b60008060008060008060c0878903121561262d57600080fd5b8635955061263d602088016120af565b945060408701359350606087013567ffffffffffffffff81111561266057600080fd5b61266c89828a016122e1565b93505061267b60808801612351565b915060a087013590509295509295509295565b600080600080600080600060e0888a0312156126a957600080fd5b87359650602088013567ffffffffffffffff808211156126c857600080fd5b6126d48b838c016120c6565b975060408a01359150808211156126ea57600080fd5b6126f68b838c01612238565b965060608a013591508082111561270c57600080fd5b6127188b838c0161213f565b955060808a013591508082111561272e57600080fd5b5061273b8a828b016121d1565b93505060a0880135915060c0880135905092959891949750929550565b6000806040838503121561276b57600080fd5b50508035926020909101359150565b6000815180845260005b818110156127a057602081850181015186830182015201612784565b818111156127b2576000602083870101525b50601f01601f19169290920160200192915050565b600281106127e557634e487b7160e01b600052602160045260246000fd5b9052565b60018060a01b0385168152836020820152608060408201526000612810608083018561277a565b9050610b3860608301846127c7565b6001600160a01b038c81168252602082018c90526101606040830181905260009161284c8483018e61277a565b915061285b606085018d6127c7565b8a60808501528960a08501528860c085015280881660e0850152808716610100850152838203610120850152612891828761277a565b925080851661014085015250509c9b505050505050505050505050565b604080825283519082018190526000906020906060840190828701845b828110156128f05781516001600160a01b0316845292840192908401906001016128cb565b5050506001600160a01b039490941692019190915250919050565b8215158152604060208201526000611ff5604083018461277a565b8681526001600160a01b0386166020820152604081018590526060810184905260c0810161295760808301856127c7565b8260a0830152979650505050505050565b60208152600061237b602083018461277a565b6020808252600590820152642a2b98181960d91b604082015260600190565b6020808252600590820152641515cc0c0d60da1b604082015260600190565b602080825260059082015264545730303360d81b604082015260600190565b6020808252818101527f4f776e61626c653a2063616c6c6572206973206e6f7420746865206f776e6572604082015260600190565b602080825260159082015274135bd91d5b19481b9bdd08185d5d1a1bdc9a5e9959605a1b604082015260600190565b602080825260059082015264545730303560d81b604082015260600190565b604051601f8201601f1916810167ffffffffffffffff81118282101715612a8457612a84612b3d565b604052919050565b600067ffffffffffffffff821115612aa657612aa6612b3d565b5060051b60200190565b60008219821115612ac357612ac3612b11565b500190565b600082821015612ada57612ada612b11565b500390565b600081612aee57612aee612b11565b506000190190565b6000600019821415612b0a57612b0a612b11565b5060010190565b634e487b7160e01b600052601160045260246000fd5b634e487b7160e01b600052603260045260246000fd5b634e487b7160e01b600052604160045260246000fd5b8015158114610d3157600080fdfea2646970667358221220d4642e0edaf8d663a0c61c0a4c61b32250111460a5ca71639380306b53be535e64736f6c63430008060033496e697469616c697a61626c653a20636f6e747261637420697320616c726561",
  "linkReferences": {},
  "deployedLinkReferences": {}
}