{
  "_format": "hh-sol-artifact-1",
  "contractName": "SimpleMemberVoting",
  "sourceName": "contracts/votingStrategies/SimpleMemberVoting.sol",
  "abi": [
    {
      "inputs": [
        {
          "internalType": "address",
          "name": "_owner",
          "type": "address"
        },
        {
          "internalType": "address",
          "name": "_UsulModule",
          "type": "address"
        },
        {
          "internalType": "uint256",
          "name": "_votingPeriod",
          "type": "uint256"
        },
        {
          "internalType": "uint256",
          "name": "quorumNumerator_",
          "type": "uint256"
        },
        {
          "internalType": "uint256",
          "name": "_timeLockPeriod",
          "type": "uint256"
        },
        {
          "internalType": "string",
          "name": "name_",
          "type": "string"
        },
        {
          "internalType": "address[]",
          "name": "_members",
          "type": "address[]"
        }
      ],
      "stateMutability": "nonpayable",
      "type": "constructor"
    },
    {
      "anonymous": false,
      "inputs": [
        {
          "indexed": false,
          "internalType": "address",
          "name": "member",
          "type": "address"
        }
      ],
      "name": "MemberAdded",
      "type": "event"
    },
    {
      "anonymous": false,
      "inputs": [
        {
          "indexed": false,
          "internalType": "address",
          "name": "member",
          "type": "address"
        }
      ],
      "name": "MemberRemoved",
      "type": "event"
    },
    {
      "anonymous": false,
      "inputs": [
        {
          "indexed": true,
          "internalType": "address",
          "name": "previousOwner",
          "type": "address"
        },
        {
          "indexed": true,
          "internalType": "address",
          "name": "newOwner",
          "type": "address"
        }
      ],
      "name": "OwnershipTransferred",
      "type": "event"
    },
    {
      "anonymous": false,
      "inputs": [
        {
          "indexed": false,
          "internalType": "uint256",
          "name": "proposalId",
          "type": "uint256"
        },
        {
          "indexed": false,
          "internalType": "uint256",
          "name": "timestamp",
          "type": "uint256"
        }
      ],
      "name": "ProposalReceived",
      "type": "event"
    },
    {
      "anonymous": false,
      "inputs": [
        {
          "indexed": false,
          "internalType": "uint256",
          "name": "oldQuorumNumerator",
          "type": "uint256"
        },
        {
          "indexed": false,
          "internalType": "uint256",
          "name": "newQuorumNumerator",
          "type": "uint256"
        }
      ],
      "name": "QuorumNumeratorUpdated",
      "type": "event"
    },
    {
      "anonymous": false,
      "inputs": [
        {
          "indexed": true,
          "internalType": "address",
          "name": "UsulModule",
          "type": "address"
        },
        {
          "indexed": true,
          "internalType": "address",
          "name": "owner",
          "type": "address"
        }
      ],
      "name": "StrategySetup",
      "type": "event"
    },
    {
      "anonymous": false,
      "inputs": [
        {
          "indexed": false,
          "internalType": "uint256",
          "name": "previousTimeLock",
          "type": "uint256"
        },
        {
          "indexed": false,
          "internalType": "uint256",
          "name": "newTimeLockPeriod",
          "type": "uint256"
        }
      ],
      "name": "TimeLockUpdated",
      "type": "event"
    },
    {
      "anonymous": false,
      "inputs": [
        {
          "indexed": true,
          "internalType": "address",
          "name": "previousUsul",
          "type": "address"
        },
        {
          "indexed": true,
          "internalType": "address",
          "name": "newUsul",
          "type": "address"
        }
      ],
      "name": "UsulSet",
      "type": "event"
    },
    {
      "anonymous": false,
      "inputs": [
        {
          "indexed": false,
          "internalType": "uint256",
          "name": "proposalId",
          "type": "uint256"
        },
        {
          "indexed": false,
          "internalType": "uint256",
          "name": "timestamp",
          "type": "uint256"
        }
      ],
      "name": "VoteFinalized",
      "type": "event"
    },
    {
      "anonymous": false,
      "inputs": [
        {
          "indexed": false,
          "internalType": "address",
          "name": "voter",
          "type": "address"
        },
        {
          "indexed": false,
          "internalType": "uint256",
          "name": "proposalId",
          "type": "uint256"
        },
        {
          "indexed": false,
          "internalType": "uint8",
          "name": "support",
          "type": "uint8"
        },
        {
          "indexed": false,
          "internalType": "uint256",
          "name": "weight",
          "type": "uint256"
        }
      ],
      "name": "Voted",
      "type": "event"
    },
    {
      "anonymous": false,
      "inputs": [
        {
          "indexed": false,
          "internalType": "uint256",
          "name": "previousVotingPeriod",
          "type": "uint256"
        },
        {
          "indexed": false,
          "internalType": "uint256",
          "name": "newVotingPeriod",
          "type": "uint256"
        }
      ],
      "name": "VotingPeriodUpdated",
      "type": "event"
    },
    {
      "inputs": [],
      "name": "UsulModule",
      "outputs": [
        {
          "internalType": "address",
          "name": "",
          "type": "address"
        }
      ],
      "stateMutability": "view",
      "type": "function"
    },
    {
      "inputs": [],
      "name": "VOTE_TYPEHASH",
      "outputs": [
        {
          "internalType": "bytes32",
          "name": "",
          "type": "bytes32"
        }
      ],
      "stateMutability": "view",
      "type": "function"
    },
    {
      "inputs": [
        {
          "internalType": "address",
          "name": "member",
          "type": "address"
        }
      ],
      "name": "addMember",
      "outputs": [],
      "stateMutability": "nonpayable",
      "type": "function"
    },
    {
      "inputs": [
        {
          "internalType": "address",
          "name": "voter",
          "type": "address"
        },
        {
          "internalType": "uint256",
          "name": "",
          "type": "uint256"
        }
      ],
      "name": "calculateWeight",
      "outputs": [
        {
          "internalType": "uint256",
          "name": "",
          "type": "uint256"
        }
      ],
      "stateMutability": "view",
      "type": "function"
    },
    {
      "inputs": [
        {
          "internalType": "uint256",
          "name": "proposalId",
          "type": "uint256"
        }
      ],
      "name": "finalizeStrategy",
      "outputs": [],
      "stateMutability": "nonpayable",
      "type": "function"
    },
    {
      "inputs": [
        {
          "internalType": "uint256",
          "name": "proposalId",
          "type": "uint256"
        },
        {
          "internalType": "address",
          "name": "account",
          "type": "address"
        }
      ],
      "name": "hasVoted",
      "outputs": [
        {
          "internalType": "bool",
          "name": "",
          "type": "bool"
        }
      ],
      "stateMutability": "view",
      "type": "function"
    },
    {
      "inputs": [
        {
          "internalType": "uint256",
          "name": "proposalId",
          "type": "uint256"
        }
      ],
      "name": "isPassed",
      "outputs": [
        {
          "internalType": "bool",
          "name": "",
          "type": "bool"
        }
      ],
      "stateMutability": "view",
      "type": "function"
    },
    {
      "inputs": [],
      "name": "memberCount",
      "outputs": [
        {
          "internalType": "uint256",
          "name": "",
          "type": "uint256"
        }
      ],
      "stateMutability": "view",
      "type": "function"
    },
    {
      "inputs": [
        {
          "internalType": "address",
          "name": "",
          "type": "address"
        }
      ],
      "name": "members",
      "outputs": [
        {
          "internalType": "bool",
          "name": "",
          "type": "bool"
        }
      ],
      "stateMutability": "view",
      "type": "function"
    },
    {
      "inputs": [],
      "name": "name",
      "outputs": [
        {
          "internalType": "string",
          "name": "",
          "type": "string"
        }
      ],
      "stateMutability": "view",
      "type": "function"
    },
    {
      "inputs": [],
      "name": "owner",
      "outputs": [
        {
          "internalType": "address",
          "name": "",
          "type": "address"
        }
      ],
      "stateMutability": "view",
      "type": "function"
    },
    {
      "inputs": [
        {
          "internalType": "uint256",
          "name": "",
          "type": "uint256"
        }
      ],
      "name": "proposals",
      "outputs": [
        {
          "internalType": "uint256",
          "name": "yesVotes",
          "type": "uint256"
        },
        {
          "internalType": "uint256",
          "name": "noVotes",
          "type": "uint256"
        },
        {
          "internalType": "uint256",
          "name": "abstainVotes",
          "type": "uint256"
        },
        {
          "internalType": "uint256",
          "name": "deadline",
          "type": "uint256"
        },
        {
          "internalType": "uint256",
          "name": "startBlock",
          "type": "uint256"
        }
      ],
      "stateMutability": "view",
      "type": "function"
    },
    {
      "inputs": [
        {
          "internalType": "uint256",
          "name": "",
          "type": "uint256"
        }
      ],
      "name": "quorum",
      "outputs": [
        {
          "internalType": "uint256",
          "name": "",
          "type": "uint256"
        }
      ],
      "stateMutability": "view",
      "type": "function"
    },
    {
      "inputs": [],
      "name": "quorumDenominator",
      "outputs": [
        {
          "internalType": "uint256",
          "name": "",
          "type": "uint256"
        }
      ],
      "stateMutability": "pure",
      "type": "function"
    },
    {
      "inputs": [],
      "name": "quorumNumerator",
      "outputs": [
        {
          "internalType": "uint256",
          "name": "",
          "type": "uint256"
        }
      ],
      "stateMutability": "view",
      "type": "function"
    },
    {
      "inputs": [
        {
          "internalType": "bytes",
          "name": "data",
          "type": "bytes"
        }
      ],
      "name": "receiveProposal",
      "outputs": [],
      "stateMutability": "nonpayable",
      "type": "function"
    },
    {
      "inputs": [
        {
          "internalType": "address",
          "name": "member",
          "type": "address"
        }
      ],
      "name": "removeMember",
      "outputs": [],
      "stateMutability": "nonpayable",
      "type": "function"
    },
    {
      "inputs": [],
      "name": "renounceOwnership",
      "outputs": [],
      "stateMutability": "nonpayable",
      "type": "function"
    },
    {
      "inputs": [
        {
          "internalType": "bytes",
          "name": "initParams",
          "type": "bytes"
        }
      ],
      "name": "setUp",
      "outputs": [],
      "stateMutability": "nonpayable",
      "type": "function"
    },
    {
      "inputs": [
        {
          "internalType": "address",
          "name": "_Usul",
          "type": "address"
        }
      ],
      "name": "setUsul",
      "outputs": [],
      "stateMutability": "nonpayable",
      "type": "function"
    },
    {
      "inputs": [],
      "name": "timeLockPeriod",
      "outputs": [
        {
          "internalType": "uint256",
          "name": "",
          "type": "uint256"
        }
      ],
      "stateMutability": "view",
      "type": "function"
    },
    {
      "inputs": [
        {
          "internalType": "address",
          "name": "newOwner",
          "type": "address"
        }
      ],
      "name": "transferOwnership",
      "outputs": [],
      "stateMutability": "nonpayable",
      "type": "function"
    },
    {
      "inputs": [
        {
          "internalType": "uint256",
          "name": "newQuorumNumerator",
          "type": "uint256"
        }
      ],
      "name": "updateQuorumNumerator",
      "outputs": [],
      "stateMutability": "nonpayable",
      "type": "function"
    },
    {
      "inputs": [
        {
          "internalType": "uint256",
          "name": "newTimeLockPeriod",
          "type": "uint256"
        }
      ],
      "name": "updateTimeLockPeriod",
      "outputs": [],
      "stateMutability": "nonpayable",
      "type": "function"
    },
    {
      "inputs": [
        {
          "internalType": "uint256",
          "name": "newPeriod",
          "type": "uint256"
        }
      ],
      "name": "updateVotingPeriod",
      "outputs": [],
      "stateMutability": "nonpayable",
      "type": "function"
    },
    {
      "inputs": [],
      "name": "version",
      "outputs": [
        {
          "internalType": "string",
          "name": "",
          "type": "string"
        }
      ],
      "stateMutability": "view",
      "type": "function"
    },
    {
      "inputs": [
        {
          "internalType": "uint256",
          "name": "proposalId",
          "type": "uint256"
        },
        {
          "internalType": "uint8",
          "name": "support",
          "type": "uint8"
        },
        {
          "internalType": "bytes",
          "name": "",
          "type": "bytes"
        }
      ],
      "name": "vote",
      "outputs": [],
      "stateMutability": "nonpayable",
      "type": "function"
    },
    {
      "inputs": [
        {
          "internalType": "uint256",
          "name": "proposalId",
          "type": "uint256"
        },
        {
          "internalType": "uint8",
          "name": "support",
          "type": "uint8"
        },
        {
          "internalType": "bytes",
          "name": "signature",
          "type": "bytes"
        },
        {
          "internalType": "bytes",
          "name": "",
          "type": "bytes"
        }
      ],
      "name": "voteSignature",
      "outputs": [],
      "stateMutability": "nonpayable",
      "type": "function"
    },
    {
      "inputs": [],
      "name": "votingPeriod",
      "outputs": [
        {
          "internalType": "uint256",
          "name": "",
          "type": "uint256"
        }
      ],
      "stateMutability": "view",
      "type": "function"
    }
  ],
  "bytecode": "0x60806040523480156200001157600080fd5b5060405162002d4a38038062002d4a833981016040819052620000349162000a99565b60008787878787878760405160200162000055979695949392919062000b4c565b60408051601f198184030181529190529050620000728162000080565b505050505050505062000d37565b600054610100900460ff16806200009a575060005460ff16155b620000f25760405162461bcd60e51b815260206004820152602e602482015260008051602062002d0a83398151915260448201526d191e481a5b9a5d1a585b1a5e995960921b60648201526084015b60405180910390fd5b600054610100900460ff1615801562000115576000805461ffff19166101011790555b60008060008060008060008880602001905181019062000136919062000a99565b965096509650965096509650965060018511620001a25760405162461bcd60e51b815260206004820152602360248201527f766f74696e67506572696f64206d7573742062652067726561746572207468616044820152626e203160e81b6064820152608401620000e9565b620001ac620002eb565b60005b8151811015620001fb57620001e6828281518110620001d257620001d262000cf5565b6020026020010151620003a660201b60201c565b80620001f28162000cc1565b915050620001af565b506200022682620002206040805180820190915260018152603160f81b602082015290565b620004d3565b620002318462000599565b6200023c87620005ef565b6200024985600162000c2f565b609a55606580546001600160a01b0319166001600160a01b0388161790556200027483600162000c2f565b609b5581516200028c90609c906020850190620008e6565b50866001600160a01b0316866001600160a01b03167f61586574b8b0edca97136ad4cb664eec4742d53de53403d531506632e6342a3960405160405180910390a3505050505050508015620002e7576000805461ff00191690555b5050565b600054610100900460ff168062000305575060005460ff16155b620003595760405162461bcd60e51b815260206004820152602e602482015260008051602062002d0a83398151915260448201526d191e481a5b9a5d1a585b1a5e995960921b6064820152608401620000e9565b600054610100900460ff161580156200037c576000805461ffff19166101011790555b62000386620006ac565b6200039062000751565b8015620003a3576000805461ff00191690555b50565b6033546001600160a01b03163314620003f15760405162461bcd60e51b8152602060048201819052602482015260008051602062002d2a8339815191526044820152606401620000e9565b6001600160a01b0381166000908152609f602052604090205460ff16156200045c5760405162461bcd60e51b815260206004820152601c60248201527f6d656d62657220697320616c72656164792072656769737465726564000000006044820152606401620000e9565b6001600160a01b0381166000908152609f60205260408120805460ff19166001179055609e8054916200048f8362000cc1565b90915550506040516001600160a01b03821681527fb251eb052afc73ffd02ffe85ad79990a8b3fed60d76dbc2fa2fdd7123dffd9149060200160405180910390a150565b600054610100900460ff1680620004ed575060005460ff16155b620005415760405162461bcd60e51b815260206004820152602e602482015260008051602062002d0a83398151915260448201526d191e481a5b9a5d1a585b1a5e995960921b6064820152608401620000e9565b600054610100900460ff1615801562000564576000805461ffff19166101011790555b8251602080850191909120835191840191909120606691909155606755801562000594576000805461ff00191690555b505050565b6033546001600160a01b03163314620005e45760405162461bcd60e51b8152602060048201819052602482015260008051602062002d2a8339815191526044820152606401620000e9565b620003a381620007ed565b6033546001600160a01b031633146200063a5760405162461bcd60e51b8152602060048201819052602482015260008051602062002d2a8339815191526044820152606401620000e9565b6001600160a01b038116620006a15760405162461bcd60e51b815260206004820152602660248201527f4f776e61626c653a206e6577206f776e657220697320746865207a65726f206160448201526564647265737360d01b6064820152608401620000e9565b620003a38162000894565b600054610100900460ff1680620006c6575060005460ff16155b6200071a5760405162461bcd60e51b815260206004820152602e602482015260008051602062002d0a83398151915260448201526d191e481a5b9a5d1a585b1a5e995960921b6064820152608401620000e9565b600054610100900460ff1615801562000390576000805461ffff19166101011790558015620003a3576000805461ff001916905550565b600054610100900460ff16806200076b575060005460ff16155b620007bf5760405162461bcd60e51b815260206004820152602e602482015260008051602062002d0a83398151915260448201526d191e481a5b9a5d1a585b1a5e995960921b6064820152608401620000e9565b600054610100900460ff16158015620007e2576000805461ffff19166101011790555b620003903362000894565b60648111156200084f5760405162461bcd60e51b815260206004820152602660248201527f71756f72756d4e756d657261746f72206f7665722071756f72756d44656e6f6d60448201526534b730ba37b960d11b6064820152608401620000e9565b60a080549082905560408051828152602081018490527f0553476bf02ef2726e8ce5ced78d63e26e602e4a2257b1f559418e24b4633997910160405180910390a15050565b603380546001600160a01b038381166001600160a01b0319831681179093556040519116919082907f8be0079c531659141344cd1fd0a4f28419497f9722a3daafe3b4186f6b6457e090600090a35050565b828054620008f49062000c84565b90600052602060002090601f01602090048101928262000918576000855562000963565b82601f106200093357805160ff191683800117855562000963565b8280016001018555821562000963579182015b828111156200096357825182559160200191906001019062000946565b506200097192915062000975565b5090565b5b8082111562000971576000815560010162000976565b600082601f8301126200099e57600080fd5b815160206001600160401b03821115620009bc57620009bc62000d0b565b8160051b620009cd82820162000bfc565b838152828101908684018388018501891015620009e957600080fd5b600093505b8584101562000a1957805162000a048162000d21565b835260019390930192918401918401620009ee565b50979650505050505050565b600082601f83011262000a3757600080fd5b81516001600160401b0381111562000a535762000a5362000d0b565b62000a68601f8201601f191660200162000bfc565b81815284602083860101111562000a7e57600080fd5b62000a9182602083016020870162000c51565b949350505050565b600080600080600080600060e0888a03121562000ab557600080fd5b875162000ac28162000d21565b602089015190975062000ad58162000d21565b604089015160608a015160808b015160a08c0151939950919750955093506001600160401b038082111562000b0957600080fd5b62000b178b838c0162000a25565b935060c08a015191508082111562000b2e57600080fd5b5062000b3d8a828b016200098c565b91505092959891949750929550565b600060018060a01b03808a1683526020818a168185015288604085015287606085015286608085015260e060a085015285518060e086015261010062000b9882828801858b0162000c51565b601f91909101601f19168501858103820160c0870152865191810182905282870191610120909101906000905b8082101562000be95783518616835292840192918401916001919091019062000bc5565b50909d9c50505050505050505050505050565b604051601f8201601f191681016001600160401b038111828210171562000c275762000c2762000d0b565b604052919050565b600081600019048311821515161562000c4c5762000c4c62000cdf565b500290565b60005b8381101562000c6e57818101518382015260200162000c54565b8381111562000c7e576000848401525b50505050565b600181811c9082168062000c9957607f821691505b6020821081141562000cbb57634e487b7160e01b600052602260045260246000fd5b50919050565b600060001982141562000cd85762000cd862000cdf565b5060010190565b634e487b7160e01b600052601160045260246000fd5b634e487b7160e01b600052603260045260246000fd5b634e487b7160e01b600052604160045260246000fd5b6001600160a01b0381168114620003a357600080fd5b611fc38062000d476000396000f3fe608060405234801561001057600080fd5b50600436106101cf5760003560e01c806378446bc111610104578063a7713a70116100a2578063d69be91c11610071578063d69be91c14610456578063ef00ef4314610469578063f2fde38b1461047c578063f8ce560a1461048f57600080fd5b8063a7713a7014610415578063a8a829c11461041d578063bf1b5efd14610430578063ca6d56dc1461044357600080fd5b806386522973116100de57806386522973146103c35780638da5cb5b146103ea57806397c3d334146103fb578063a4f9edbf1461040257600080fd5b806378446bc11461039457806379bfb0891461039d5780637a3ff4d2146103b057600080fd5b80631f2c562e11610171578063494031831161014b578063494031831461033157806354fd4d5014610344578063715018a614610361578063747691df1461036957600080fd5b80631f2c562e146102ce578063224f3263146102e157806343859632146102f457600080fd5b806306fdde03116101ad57806306fdde031461026a57806308ae4b0c1461027f5780630b1ca49a146102b257806311aee380146102c557600080fd5b8063013cf08b146101d457806302a251a31461023e57806306f3f9e614610255575b600080fd5b6102116101e2366004611be4565b609d60205260009081526040902080546001820154600283015460038401546004909401549293919290919085565b604080519586526020860194909452928401919091526060830152608082015260a0015b60405180910390f35b610247609a5481565b604051908152602001610235565b610268610263366004611be4565b6104a2565b005b6102726104e1565b6040516102359190611d1b565b6102a261028d366004611a70565b609f6020526000908152604090205460ff1681565b6040519015158152602001610235565b6102686102c0366004611a70565b61056f565b610247609e5481565b6102686102dc366004611c9d565b610679565b6102686102ef366004611ba7565b6106f5565b6102a2610302366004611c16565b6000828152609d602090815260408083206001600160a01b038516845260050190915290205460ff1692915050565b6102a261033f366004611be4565b6107dc565b6040805180820190915260018152603160f81b6020820152610272565b610268610933565b60655461037c906001600160a01b031681565b6040516001600160a01b039091168152602001610235565b610247609b5481565b6102686103ab366004611be4565b610969565b6102686103be366004611be4565b610a16565b6102477fb780761e36898d7ec1cc0fb66fdd6a8a42e635ee643709d6b20652c68a3b29f581565b6033546001600160a01b031661037c565b6064610247565b610268610410366004611ba7565b610a7e565b60a054610247565b61026861042b366004611a70565b610c88565b61026861043e366004611c46565b610d04565b610268610451366004611a70565b610d14565b610247610464366004611b7b565b610e16565b610268610477366004611be4565b610e82565b61026861048a366004611a70565b610eea565b61024761049d366004611be4565b610f82565b6033546001600160a01b031633146104d55760405162461bcd60e51b81526004016104cc90611d9c565b60405180910390fd5b6104de81610fa6565b50565b609c80546104ee90611eca565b80601f016020809104026020016040519081016040528092919081815260200182805461051a90611eca565b80156105675780601f1061053c57610100808354040283529160200191610567565b820191906000526020600020905b81548152906001019060200180831161054a57829003601f168201915b505050505081565b6033546001600160a01b031633146105995760405162461bcd60e51b81526004016104cc90611d9c565b6001600160a01b0381166000908152609f602052604090205460ff1615156001146106065760405162461bcd60e51b815260206004820152601860248201527f6d656d626572206973206e6f742072656769737465726564000000000000000060448201526064016104cc565b6001600160a01b0381166000908152609f60205260408120805460ff19169055609e80549161063483611eb3565b90915550506040516001600160a01b03821681527f6e76fb4c77256006d9c38ec7d82b45a8c8f3c27b1d6766fffc42dfb8de684492906020015b60405180910390a150565b604080517fb780761e36898d7ec1cc0fb66fdd6a8a42e635ee643709d6b20652c68a3b29f5602082015290810185905260ff841660608201526000906106e1906106db9060800160405160208183030381529060405280519060200120611044565b84611092565b90506106ee8582866110b6565b5050505050565b6065546001600160a01b0316331461074f5760405162461bcd60e51b815260206004820152601a60248201527f6f6e6c79205573756c206d6f64756c65206d617920656e74657200000000000060448201526064016104cc565b6000818060200190518101906107659190611bfd565b905042609a546107759190611e2a565b6000828152609d602052604090819020600381019290925543600490920191909155517f3aeda78f6230a590817748b94b63d690cec4d1a15d494dfc7006e0a39e77f81a906107d09083904290918252602082015260400190565b60405180910390a15050565b6000818152609d60205260408120600181015490541161083e5760405162461bcd60e51b815260206004820152601d60248201527f6d616a6f7269747920796573566f746573206e6f74207265616368656400000060448201526064016104cc565b61084743610f82565b6000838152609d60205260409020600281015490546108669190611e2a565b10156108cb5760405162461bcd60e51b815260206004820152602e60248201527f612071756f72756d20686173206e6f74206265656e207265616368656420666f60448201526d1c881d1a19481c1c9bdc1bdcd85b60921b60648201526084016104cc565b6000828152609d6020526040902060030154421161092b5760405162461bcd60e51b815260206004820181905260248201527f766f74696e6720706572696f6420686173206e6f74207061737365642079657460448201526064016104cc565b506001919050565b6033546001600160a01b0316331461095d5760405162461bcd60e51b81526004016104cc90611d9c565b61096760006112f4565b565b610972816107dc565b156109e157606554609b546040516309fac26960e31b81526004810184905260248101919091526001600160a01b0390911690634fd6134890604401600060405180830381600087803b1580156109c857600080fd5b505af11580156109dc573d6000803e3d6000fd5b505050505b604080518281524260208201527f54ffcee03e8b80c05e4d1c55e3dc60602d9082a899e50337b680c9c4c4d80a3a910161066e565b6033546001600160a01b03163314610a405760405162461bcd60e51b81526004016104cc90611d9c565b609b80549082905560408051828152602081018490527f2a72574d775756e698a258fc07c826b7185131fff8a96b868feacab45fb2343291016107d0565b600054610100900460ff1680610a97575060005460ff16155b610ab35760405162461bcd60e51b81526004016104cc90611d4e565b600054610100900460ff16158015610ad5576000805461ffff19166101011790555b600080600080600080600088806020019051810190610af49190611a94565b965096509650965096509650965060018511610b5e5760405162461bcd60e51b815260206004820152602360248201527f766f74696e67506572696f64206d7573742062652067726561746572207468616044820152626e203160e81b60648201526084016104cc565b610b66611346565b60005b8151811015610ba657610b94828281518110610b8757610b87611f4c565b6020026020010151610d14565b80610b9e81611f05565b915050610b69565b50610bce82610bc96040805180820190915260018152603160f81b602082015290565b6113c1565b610bd7846104a2565b610be087610eea565b610beb856001611e64565b609a55606580546001600160a01b0319166001600160a01b038816179055610c14836001611e64565b609b558151610c2a90609c9060208501906118dc565b50866001600160a01b0316866001600160a01b03167f61586574b8b0edca97136ad4cb664eec4742d53de53403d531506632e6342a3960405160405180910390a3505050505050508015610c84576000805461ff00191690555b5050565b6033546001600160a01b03163314610cb25760405162461bcd60e51b81526004016104cc90611d9c565b606580546001600160a01b038381166001600160a01b0319831681179093556040519116919082907f20c8544544aefaefdf339d996d855f2d4040cf93548344aa7dcb03b19e160cd190600090a35050565b610d0f8333846110b6565b505050565b6033546001600160a01b03163314610d3e5760405162461bcd60e51b81526004016104cc90611d9c565b6001600160a01b0381166000908152609f602052604090205460ff1615610da75760405162461bcd60e51b815260206004820152601c60248201527f6d656d62657220697320616c726561647920726567697374657265640000000060448201526064016104cc565b6001600160a01b0381166000908152609f60205260408120805460ff19166001179055609e805491610dd883611f05565b90915550506040516001600160a01b03821681527fb251eb052afc73ffd02ffe85ad79990a8b3fed60d76dbc2fa2fdd7123dffd9149060200161066e565b6001600160a01b0382166000908152609f6020526040812054839060ff16610e785760405162461bcd60e51b81526020600482015260156024820152743b37ba32b91034b9903737ba10309036b2b6b132b960591b60448201526064016104cc565b5060019392505050565b6033546001600160a01b03163314610eac5760405162461bcd60e51b81526004016104cc90611d9c565b609a80549082905560408051828152602081018490527fffc708f072ca56e3d45ef0cb288b96cb9378f5f63e1646868bfbc9c38f4263a191016107d0565b6033546001600160a01b03163314610f145760405162461bcd60e51b81526004016104cc90611d9c565b6001600160a01b038116610f795760405162461bcd60e51b815260206004820152602660248201527f4f776e61626c653a206e6577206f776e657220697320746865207a65726f206160448201526564647265737360d01b60648201526084016104cc565b6104de816112f4565b6000606460a054609e54610f969190611e64565b610fa09190611e42565b92915050565b60648111156110065760405162461bcd60e51b815260206004820152602660248201527f71756f72756d4e756d657261746f72206f7665722071756f72756d44656e6f6d60448201526534b730ba37b960d11b60648201526084016104cc565b60a080549082905560408051828152602081018490527f0553476bf02ef2726e8ce5ced78d63e26e602e4a2257b1f559418e24b463399791016107d0565b6000610fa061105161144b565b8360405161190160f01b6020820152602281018390526042810182905260009060620160405160208183030381529060405280519060200120905092915050565b60008060006110a185856114cb565b915091506110ae8161153b565b509392505050565b6000838152609d60205260409020600301544211156111175760405162461bcd60e51b815260206004820152601860248201527f766f74696e6720706572696f642068617320706173736564000000000000000060448201526064016104cc565b6000838152609d602090815260408083206001600160a01b038616845260050190915290205460ff161561118d5760405162461bcd60e51b815260206004820152601760248201527f766f7465722068617320616c726561647920766f74656400000000000000000060448201526064016104cc565b6000838152609d602090815260408083206001600160a01b03861684526005019091528120805460ff191660011790556111c78385610e16565b905060ff82166111fd576000848152609d6020526040812060010180548392906111f2908490611e2a565b9091555061129c9050565b60ff821660011415611227576000848152609d6020526040812080548392906111f2908490611e2a565b60ff821660021415611254576000848152609d6020526040812060020180548392906111f2908490611e2a565b60405162461bcd60e51b815260206004820152601f60248201527f696e76616c69642076616c756520666f7220656e756d20566f7465547970650060448201526064016104cc565b604080516001600160a01b03851681526020810186905260ff8416818301526060810183905290517f27eb20ecadc80d52f641a540b295d208f7c3735545d321b08e505116c60131999181900360800190a150505050565b603380546001600160a01b038381166001600160a01b0319831681179093556040519116919082907f8be0079c531659141344cd1fd0a4f28419497f9722a3daafe3b4186f6b6457e090600090a35050565b600054610100900460ff168061135f575060005460ff16155b61137b5760405162461bcd60e51b81526004016104cc90611d4e565b600054610100900460ff1615801561139d576000805461ffff19166101011790555b6113a56116f6565b6113ad611760565b80156104de576000805461ff001916905550565b600054610100900460ff16806113da575060005460ff16155b6113f65760405162461bcd60e51b81526004016104cc90611d4e565b600054610100900460ff16158015611418576000805461ffff19166101011790555b82516020808501919091208351918401919091206066919091556067558015610d0f576000805461ff0019169055505050565b60006114c67f8b73c3c69bb8fe3d512ecc4cf759cc79239f7b179b0ffacaa9a75d522b39400f61147a60665490565b6067546040805160208101859052908101839052606081018290524660808201523060a082015260009060c0016040516020818303038152906040528051906020012090509392505050565b905090565b6000808251604114156115025760208301516040840151606085015160001a6114f6878285856117c0565b94509450505050611534565b82516040141561152c57602083015160408401516115218683836118ad565b935093505050611534565b506000905060025b9250929050565b600081600481111561154f5761154f611f36565b14156115585750565b600181600481111561156c5761156c611f36565b14156115ba5760405162461bcd60e51b815260206004820152601860248201527f45434453413a20696e76616c6964207369676e6174757265000000000000000060448201526064016104cc565b60028160048111156115ce576115ce611f36565b141561161c5760405162461bcd60e51b815260206004820152601f60248201527f45434453413a20696e76616c6964207369676e6174757265206c656e6774680060448201526064016104cc565b600381600481111561163057611630611f36565b14156116895760405162461bcd60e51b815260206004820152602260248201527f45434453413a20696e76616c6964207369676e6174757265202773272076616c604482015261756560f01b60648201526084016104cc565b600481600481111561169d5761169d611f36565b14156104de5760405162461bcd60e51b815260206004820152602260248201527f45434453413a20696e76616c6964207369676e6174757265202776272076616c604482015261756560f01b60648201526084016104cc565b600054610100900460ff168061170f575060005460ff16155b61172b5760405162461bcd60e51b81526004016104cc90611d4e565b600054610100900460ff161580156113ad576000805461ffff191661010117905580156104de576000805461ff001916905550565b600054610100900460ff1680611779575060005460ff16155b6117955760405162461bcd60e51b81526004016104cc90611d4e565b600054610100900460ff161580156117b7576000805461ffff19166101011790555b6113ad336112f4565b6000807f7fffffffffffffffffffffffffffffff5d576e7357a4501ddfe92f46681b20a08311156117f757506000905060036118a4565b8460ff16601b1415801561180f57508460ff16601c14155b1561182057506000905060046118a4565b6040805160008082526020820180845289905260ff881692820192909252606081018690526080810185905260019060a0016020604051602081039080840390855afa158015611874573d6000803e3d6000fd5b5050604051601f1901519150506001600160a01b03811661189d576000600192509250506118a4565b9150600090505b94509492505050565b6000806001600160ff1b03831660ff84901c601b016118ce878288856117c0565b935093505050935093915050565b8280546118e890611eca565b90600052602060002090601f01602090048101928261190a5760008555611950565b82601f1061192357805160ff1916838001178555611950565b82800160010185558215611950579182015b82811115611950578251825591602001919060010190611935565b5061195c929150611960565b5090565b5b8082111561195c5760008155600101611961565b600082601f83011261198657600080fd5b8151602067ffffffffffffffff8211156119a2576119a2611f62565b8160051b6119b1828201611dd1565b8381528281019086840183880185018910156119cc57600080fd5b600093505b858410156119f85780516119e481611f78565b8352600193909301929184019184016119d1565b50979650505050505050565b600082601f830112611a1557600080fd5b8135611a28611a2382611e02565b611dd1565b818152846020838601011115611a3d57600080fd5b816020850160208301376000918101602001919091529392505050565b803560ff81168114611a6b57600080fd5b919050565b600060208284031215611a8257600080fd5b8135611a8d81611f78565b9392505050565b600080600080600080600060e0888a031215611aaf57600080fd5b8751611aba81611f78565b6020890151909750611acb81611f78565b8096505060408801519450606088015193506080880151925060a088015167ffffffffffffffff80821115611aff57600080fd5b818a0191508a601f830112611b1357600080fd5b8151611b21611a2382611e02565b8181528c6020838601011115611b3657600080fd5b611b47826020830160208701611e83565b60c08c015190955092505080821115611b5f57600080fd5b50611b6c8a828b01611975565b91505092959891949750929550565b60008060408385031215611b8e57600080fd5b8235611b9981611f78565b946020939093013593505050565b600060208284031215611bb957600080fd5b813567ffffffffffffffff811115611bd057600080fd5b611bdc84828501611a04565b949350505050565b600060208284031215611bf657600080fd5b5035919050565b600060208284031215611c0f57600080fd5b5051919050565b60008060408385031215611c2957600080fd5b823591506020830135611c3b81611f78565b809150509250929050565b600080600060608486031215611c5b57600080fd5b83359250611c6b60208501611a5a565b9150604084013567ffffffffffffffff811115611c8757600080fd5b611c9386828701611a04565b9150509250925092565b60008060008060808587031215611cb357600080fd5b84359350611cc360208601611a5a565b9250604085013567ffffffffffffffff80821115611ce057600080fd5b611cec88838901611a04565b93506060870135915080821115611d0257600080fd5b50611d0f87828801611a04565b91505092959194509250565b6020815260008251806020840152611d3a816040850160208701611e83565b601f01601f19169190910160400192915050565b6020808252602e908201527f496e697469616c697a61626c653a20636f6e747261637420697320616c72656160408201526d191e481a5b9a5d1a585b1a5e995960921b606082015260800190565b6020808252818101527f4f776e61626c653a2063616c6c6572206973206e6f7420746865206f776e6572604082015260600190565b604051601f8201601f1916810167ffffffffffffffff81118282101715611dfa57611dfa611f62565b604052919050565b600067ffffffffffffffff821115611e1c57611e1c611f62565b50601f01601f191660200190565b60008219821115611e3d57611e3d611f20565b500190565b600082611e5f57634e487b7160e01b600052601260045260246000fd5b500490565b6000816000190483118215151615611e7e57611e7e611f20565b500290565b60005b83811015611e9e578181015183820152602001611e86565b83811115611ead576000848401525b50505050565b600081611ec257611ec2611f20565b506000190190565b600181811c90821680611ede57607f821691505b60208210811415611eff57634e487b7160e01b600052602260045260246000fd5b50919050565b6000600019821415611f1957611f19611f20565b5060010190565b634e487b7160e01b600052601160045260246000fd5b634e487b7160e01b600052602160045260246000fd5b634e487b7160e01b600052603260045260246000fd5b634e487b7160e01b600052604160045260246000fd5b6001600160a01b03811681146104de57600080fdfea26469706673582212204a79101d24924fc11c128ca47dabbb137c92484fe6cd00600e6466f27524bf7d64736f6c63430008060033496e697469616c697a61626c653a20636f6e747261637420697320616c7265614f776e61626c653a2063616c6c6572206973206e6f7420746865206f776e6572",
  "linkReferences": {},
  "deployedLinkReferences": {}
}