{
  "_format": "hh-sol-artifact-1",
  "contractName": "MultiWalkToken",
  "sourceName": "contracts/MultiWalkToken.sol",
  "abi": [
    {
      "inputs": [
        {
          "internalType": "string",
          "name": "_name",
          "type": "string"
        },
        {
          "internalType": "string",
          "name": "_symbol",
          "type": "string"
        }
      ],
      "stateMutability": "nonpayable",
      "type": "constructor"
    },
    {
      "anonymous": false,
      "inputs": [
        {
          "indexed": true,
          "internalType": "address",
          "name": "owner",
          "type": "address"
        },
        {
          "indexed": true,
          "internalType": "address",
          "name": "approved",
          "type": "address"
        },
        {
          "indexed": true,
          "internalType": "uint256",
          "name": "tokenId",
          "type": "uint256"
        }
      ],
      "name": "Approval",
      "type": "event"
    },
    {
      "anonymous": false,
      "inputs": [
        {
          "indexed": true,
          "internalType": "address",
          "name": "owner",
          "type": "address"
        },
        {
          "indexed": true,
          "internalType": "address",
          "name": "operator",
          "type": "address"
        },
        {
          "indexed": false,
          "internalType": "bool",
          "name": "approved",
          "type": "bool"
        }
      ],
      "name": "ApprovalForAll",
      "type": "event"
    },
    {
      "anonymous": false,
      "inputs": [
        {
          "indexed": true,
          "internalType": "address",
          "name": "from",
          "type": "address"
        },
        {
          "indexed": true,
          "internalType": "uint256",
          "name": "tokenId",
          "type": "uint256"
        }
      ],
      "name": "Signed",
      "type": "event"
    },
    {
      "anonymous": false,
      "inputs": [
        {
          "indexed": true,
          "internalType": "address",
          "name": "from",
          "type": "address"
        },
        {
          "indexed": true,
          "internalType": "address",
          "name": "to",
          "type": "address"
        },
        {
          "indexed": true,
          "internalType": "uint256",
          "name": "tokenId",
          "type": "uint256"
        }
      ],
      "name": "Transfer",
      "type": "event"
    },
    {
      "inputs": [],
      "name": "DOMAIN_SEPARATOR",
      "outputs": [
        {
          "internalType": "bytes32",
          "name": "",
          "type": "bytes32"
        }
      ],
      "stateMutability": "view",
      "type": "function"
    },
    {
      "inputs": [
        {
          "internalType": "address",
          "name": "to",
          "type": "address"
        },
        {
          "internalType": "uint256",
          "name": "tokenId",
          "type": "uint256"
        }
      ],
      "name": "approve",
      "outputs": [],
      "stateMutability": "nonpayable",
      "type": "function"
    },
    {
      "inputs": [
        {
          "internalType": "address",
          "name": "owner",
          "type": "address"
        }
      ],
      "name": "balanceOf",
      "outputs": [
        {
          "internalType": "uint256",
          "name": "",
          "type": "uint256"
        }
      ],
      "stateMutability": "view",
      "type": "function"
    },
    {
      "inputs": [
        {
          "internalType": "uint256",
          "name": "tokenId",
          "type": "uint256"
        }
      ],
      "name": "getApproved",
      "outputs": [
        {
          "internalType": "address",
          "name": "",
          "type": "address"
        }
      ],
      "stateMutability": "view",
      "type": "function"
    },
    {
      "inputs": [
        {
          "internalType": "uint256",
          "name": "_tokenId",
          "type": "uint256"
        }
      ],
      "name": "getSignature",
      "outputs": [
        {
          "internalType": "bytes",
          "name": "",
          "type": "bytes"
        }
      ],
      "stateMutability": "view",
      "type": "function"
    },
    {
      "inputs": [
        {
          "internalType": "address",
          "name": "owner",
          "type": "address"
        },
        {
          "internalType": "address",
          "name": "operator",
          "type": "address"
        }
      ],
      "name": "isApprovedForAll",
      "outputs": [
        {
          "internalType": "bool",
          "name": "",
          "type": "bool"
        }
      ],
      "stateMutability": "view",
      "type": "function"
    },
    {
      "inputs": [
        {
          "components": [
            {
              "internalType": "address",
              "name": "verificationAddress",
              "type": "address"
            },
            {
              "internalType": "string",
              "name": "artist",
              "type": "string"
            },
            {
              "internalType": "address",
              "name": "wallet",
              "type": "address"
            },
            {
              "internalType": "string",
              "name": "contents",
              "type": "string"
            }
          ],
          "internalType": "struct TokenWalkDomain.Signature",
          "name": "_message",
          "type": "tuple"
        },
        {
          "internalType": "bytes",
          "name": "_signature",
          "type": "bytes"
        },
        {
          "internalType": "uint256",
          "name": "_tokenId",
          "type": "uint256"
        }
      ],
      "name": "isSigned",
      "outputs": [
        {
          "internalType": "bool",
          "name": "",
          "type": "bool"
        }
      ],
      "stateMutability": "view",
      "type": "function"
    },
    {
      "inputs": [
        {
          "internalType": "string[]",
          "name": "_tokenURI",
          "type": "string[]"
        },
        {
          "internalType": "uint256",
          "name": "_editionNumbers",
          "type": "uint256"
        }
      ],
      "name": "mintEdition",
      "outputs": [],
      "stateMutability": "nonpayable",
      "type": "function"
    },
    {
      "inputs": [],
      "name": "name",
      "outputs": [
        {
          "internalType": "string",
          "name": "",
          "type": "string"
        }
      ],
      "stateMutability": "view",
      "type": "function"
    },
    {
      "inputs": [
        {
          "internalType": "uint256",
          "name": "tokenId",
          "type": "uint256"
        }
      ],
      "name": "ownerOf",
      "outputs": [
        {
          "internalType": "address",
          "name": "",
          "type": "address"
        }
      ],
      "stateMutability": "view",
      "type": "function"
    },
    {
      "inputs": [
        {
          "internalType": "address",
          "name": "from",
          "type": "address"
        },
        {
          "internalType": "address",
          "name": "to",
          "type": "address"
        },
        {
          "internalType": "uint256",
          "name": "tokenId",
          "type": "uint256"
        }
      ],
      "name": "safeTransferFrom",
      "outputs": [],
      "stateMutability": "nonpayable",
      "type": "function"
    },
    {
      "inputs": [
        {
          "internalType": "address",
          "name": "from",
          "type": "address"
        },
        {
          "internalType": "address",
          "name": "to",
          "type": "address"
        },
        {
          "internalType": "uint256",
          "name": "tokenId",
          "type": "uint256"
        },
        {
          "internalType": "bytes",
          "name": "_data",
          "type": "bytes"
        }
      ],
      "name": "safeTransferFrom",
      "outputs": [],
      "stateMutability": "nonpayable",
      "type": "function"
    },
    {
      "inputs": [
        {
          "internalType": "address",
          "name": "operator",
          "type": "address"
        },
        {
          "internalType": "bool",
          "name": "approved",
          "type": "bool"
        }
      ],
      "name": "setApprovalForAll",
      "outputs": [],
      "stateMutability": "nonpayable",
      "type": "function"
    },
    {
      "inputs": [
        {
          "internalType": "uint256",
          "name": "_tokenId",
          "type": "uint256"
        },
        {
          "components": [
            {
              "internalType": "address",
              "name": "verificationAddress",
              "type": "address"
            },
            {
              "internalType": "string",
              "name": "artist",
              "type": "string"
            },
            {
              "internalType": "address",
              "name": "wallet",
              "type": "address"
            },
            {
              "internalType": "string",
              "name": "contents",
              "type": "string"
            }
          ],
          "internalType": "struct TokenWalkDomain.Signature",
          "name": "_message",
          "type": "tuple"
        },
        {
          "internalType": "bytes",
          "name": "_signature",
          "type": "bytes"
        }
      ],
      "name": "sign",
      "outputs": [],
      "stateMutability": "nonpayable",
      "type": "function"
    },
    {
      "inputs": [
        {
          "internalType": "bytes4",
          "name": "interfaceId",
          "type": "bytes4"
        }
      ],
      "name": "supportsInterface",
      "outputs": [
        {
          "internalType": "bool",
          "name": "",
          "type": "bool"
        }
      ],
      "stateMutability": "view",
      "type": "function"
    },
    {
      "inputs": [],
      "name": "symbol",
      "outputs": [
        {
          "internalType": "string",
          "name": "",
          "type": "string"
        }
      ],
      "stateMutability": "view",
      "type": "function"
    },
    {
      "inputs": [
        {
          "internalType": "uint256",
          "name": "tokenId",
          "type": "uint256"
        }
      ],
      "name": "tokenURI",
      "outputs": [
        {
          "internalType": "string",
          "name": "",
          "type": "string"
        }
      ],
      "stateMutability": "view",
      "type": "function"
    },
    {
      "inputs": [],
      "name": "topId",
      "outputs": [
        {
          "internalType": "uint256",
          "name": "",
          "type": "uint256"
        }
      ],
      "stateMutability": "view",
      "type": "function"
    },
    {
      "inputs": [
        {
          "internalType": "address",
          "name": "from",
          "type": "address"
        },
        {
          "internalType": "address",
          "name": "to",
          "type": "address"
        },
        {
          "internalType": "uint256",
          "name": "tokenId",
          "type": "uint256"
        }
      ],
      "name": "transferFrom",
      "outputs": [],
      "stateMutability": "nonpayable",
      "type": "function"
    }
  ],
  "bytecode": "0x60806040526001600a553480156200001657600080fd5b50604051620041d1380380620041d183398181016040528101906200003c91906200026c565b81818160009080519060200190620000569291906200014a565b5080600190805190602001906200006f9291906200014a565b5050507f8b73c3c69bb8fe3d512ecc4cf759cc79239f7b179b0ffacaa9a75d522b39400f6040518060400160405280600a81526020017f546f6b656e2057616c6b00000000000000000000000000000000000000000000815250805190602001206040518060400160405280600181526020017f3100000000000000000000000000000000000000000000000000000000000000815250805190602001206001306040516020016200012695949392919062000312565b604051602081830303815290604052805190602001206007819055505050620004ff565b82805462000158906200046b565b90600052602060002090601f0160209004810192826200017c5760008555620001c8565b82601f106200019757805160ff1916838001178555620001c8565b82800160010185558215620001c8579182015b82811115620001c7578251825591602001919060010190620001aa565b5b509050620001d79190620001db565b5090565b5b80821115620001f6576000816000905550600101620001dc565b5090565b6000620002116200020b84620003a3565b6200036f565b9050828152602081018484840111156200022a57600080fd5b6200023784828562000435565b509392505050565b600082601f8301126200025157600080fd5b815162000263848260208601620001fa565b91505092915050565b600080604083850312156200028057600080fd5b600083015167ffffffffffffffff8111156200029b57600080fd5b620002a9858286016200023f565b925050602083015167ffffffffffffffff811115620002c757600080fd5b620002d5858286016200023f565b9150509250929050565b620002ea81620003d6565b82525050565b620002fb81620003ea565b82525050565b6200030c8162000421565b82525050565b600060a082019050620003296000830188620002f0565b620003386020830187620002f0565b620003476040830186620002f0565b62000356606083018562000301565b620003656080830184620002df565b9695505050505050565b6000604051905081810181811067ffffffffffffffff82111715620003995762000398620004d0565b5b8060405250919050565b600067ffffffffffffffff821115620003c157620003c0620004d0565b5b601f19601f8301169050602081019050919050565b6000620003e382620003f4565b9050919050565b6000819050919050565b600073ffffffffffffffffffffffffffffffffffffffff82169050919050565b600060ff82169050919050565b60006200042e8262000414565b9050919050565b60005b838110156200045557808201518184015260208101905062000438565b8381111562000465576000848401525b50505050565b600060028204905060018216806200048457607f821691505b602082108114156200049b576200049a620004a1565b5b50919050565b7f4e487b7100000000000000000000000000000000000000000000000000000000600052602260045260246000fd5b7f4e487b7100000000000000000000000000000000000000000000000000000000600052604160045260246000fd5b613cc2806200050f6000396000f3fe608060405234801561001057600080fd5b50600436106101215760003560e01c806342842e0e116100ad578063b88d4fde11610071578063b88d4fde1461031a578063c87b56dd14610336578063ddb29c7014610366578063e985e9c514610396578063ee874107146103c657610121565b806342842e0e146102645780636352211e1461028057806370a08231146102b057806395d89b41146102e0578063a22cb465146102fe57610121565b8063095ea7b3116100f4578063095ea7b3146101d457806323b872dd146101f05780633242d7631461020c578063331f5f8c146102285780633644e5151461024657610121565b806301ffc9a71461012657806302a569e61461015657806306fdde0314610186578063081812fc146101a4575b600080fd5b610140600480360381019061013b91906126fb565b6103e2565b60405161014d91906133ca565b60405180910390f35b610170600480360381019061016b91906127cc565b6104c4565b60405161017d91906134a6565b60405180910390f35b61018e6105cc565b60405161019b91906134c8565b60405180910390f35b6101be60048036038101906101b991906127cc565b61065e565b6040516101cb9190613363565b60405180910390f35b6101ee60048036038101906101e9919061266b565b6106e3565b005b61020a60048036038101906102059190612565565b6107fb565b005b610226600480360381019061022191906127f5565b61085b565b005b61023061086b565b60405161023d919061380a565b60405180910390f35b61024e610871565b60405161025b91906133e5565b60405180910390f35b61027e60048036038101906102799190612565565b610877565b005b61029a600480360381019061029591906127cc565b610897565b6040516102a79190613363565b60405180910390f35b6102ca60048036038101906102c59190612500565b610949565b6040516102d7919061380a565b60405180910390f35b6102e8610a01565b6040516102f591906134c8565b60405180910390f35b6103186004803603810190610313919061262f565b610a93565b005b610334600480360381019061032f91906125b4565b610c14565b005b610350600480360381019061034b91906127cc565b610c76565b60405161035d91906134c8565b60405180910390f35b610380600480360381019061037b919061274d565b610dc8565b60405161038d91906133ca565b60405180910390f35b6103b060048036038101906103ab9190612529565b610efe565b6040516103bd91906133ca565b60405180910390f35b6103e060048036038101906103db91906126a7565b610f92565b005b60007f80ac58cd000000000000000000000000000000000000000000000000000000007bffffffffffffffffffffffffffffffffffffffffffffffffffffffff1916827bffffffffffffffffffffffffffffffffffffffffffffffffffffffff191614806104ad57507f5b5e139f000000000000000000000000000000000000000000000000000000007bffffffffffffffffffffffffffffffffffffffffffffffffffffffff1916827bffffffffffffffffffffffffffffffffffffffffffffffffffffffff1916145b806104bd57506104bc82610fa0565b5b9050919050565b606060006008600084815260200190815260200160002080546104e690613aad565b90501415610529576040517f08c379a00000000000000000000000000000000000000000000000000000000081526004016105209061374a565b60405180910390fd5b60086000838152602001908152602001600020805461054790613aad565b80601f016020809104026020016040519081016040528092919081815260200182805461057390613aad565b80156105c05780601f10610595576101008083540402835291602001916105c0565b820191906000526020600020905b8154815290600101906020018083116105a357829003601f168201915b50505050509050919050565b6060600080546105db90613aad565b80601f016020809104026020016040519081016040528092919081815260200182805461060790613aad565b80156106545780601f1061062957610100808354040283529160200191610654565b820191906000526020600020905b81548152906001019060200180831161063757829003601f168201915b5050505050905090565b60006106698261100a565b6106a8576040517f08c379a000000000000000000000000000000000000000000000000000000000815260040161069f9061372a565b60405180910390fd5b6004600083815260200190815260200160002060009054906101000a900473ffffffffffffffffffffffffffffffffffffffff169050919050565b60006106ee82610897565b90508073ffffffffffffffffffffffffffffffffffffffff168373ffffffffffffffffffffffffffffffffffffffff16141561075f576040517f08c379a0000000000000000000000000000000000000000000000000000000008152600401610756906137aa565b60405180910390fd5b8073ffffffffffffffffffffffffffffffffffffffff1661077e611076565b73ffffffffffffffffffffffffffffffffffffffff1614806107ad57506107ac816107a7611076565b610efe565b5b6107ec576040517f08c379a00000000000000000000000000000000000000000000000000000000081526004016107e39061362a565b60405180910390fd5b6107f6838361107e565b505050565b61080c610806611076565b82611137565b61084b576040517f08c379a0000000000000000000000000000000000000000000000000000000008152600401610842906137ca565b60405180910390fd5b610856838383611215565b505050565b610866838383611471565b505050565b600a5481565b60075481565b61089283838360405180602001604052806000815250610c14565b505050565b6000806002600084815260200190815260200160002060009054906101000a900473ffffffffffffffffffffffffffffffffffffffff169050600073ffffffffffffffffffffffffffffffffffffffff168173ffffffffffffffffffffffffffffffffffffffff161415610940576040517f08c379a00000000000000000000000000000000000000000000000000000000081526004016109379061366a565b60405180910390fd5b80915050919050565b60008073ffffffffffffffffffffffffffffffffffffffff168273ffffffffffffffffffffffffffffffffffffffff1614156109ba576040517f08c379a00000000000000000000000000000000000000000000000000000000081526004016109b19061364a565b60405180910390fd5b600360008373ffffffffffffffffffffffffffffffffffffffff1673ffffffffffffffffffffffffffffffffffffffff168152602001908152602001600020549050919050565b606060018054610a1090613aad565b80601f0160208091040260200160405190810160405280929190818152602001828054610a3c90613aad565b8015610a895780601f10610a5e57610100808354040283529160200191610a89565b820191906000526020600020905b815481529060010190602001808311610a6c57829003601f168201915b5050505050905090565b610a9b611076565b73ffffffffffffffffffffffffffffffffffffffff168273ffffffffffffffffffffffffffffffffffffffff161415610b09576040517f08c379a0000000000000000000000000000000000000000000000000000000008152600401610b00906135ca565b60405180910390fd5b8060056000610b16611076565b73ffffffffffffffffffffffffffffffffffffffff1673ffffffffffffffffffffffffffffffffffffffff16815260200190815260200160002060008473ffffffffffffffffffffffffffffffffffffffff1673ffffffffffffffffffffffffffffffffffffffff16815260200190815260200160002060006101000a81548160ff0219169083151502179055508173ffffffffffffffffffffffffffffffffffffffff16610bc3611076565b73ffffffffffffffffffffffffffffffffffffffff167f17307eab39ab6107e8899845ad3d59bd9653f200f220920489ca2b5937696c3183604051610c0891906133ca565b60405180910390a35050565b610c25610c1f611076565b83611137565b610c64576040517f08c379a0000000000000000000000000000000000000000000000000000000008152600401610c5b906137ca565b60405180910390fd5b610c70848484846116a3565b50505050565b6060610c818261100a565b610cc0576040517f08c379a0000000000000000000000000000000000000000000000000000000008152600401610cb79061370a565b60405180910390fd5b6000600660008481526020019081526020016000208054610ce090613aad565b80601f0160208091040260200160405190810160405280929190818152602001828054610d0c90613aad565b8015610d595780601f10610d2e57610100808354040283529160200191610d59565b820191906000526020600020905b815481529060010190602001808311610d3c57829003601f168201915b505050505090506000610d6a6116ff565b9050600081511415610d80578192505050610dc3565b600082511115610db5578082604051602001610d9d929190613308565b60405160208183030381529060405292505050610dc3565b610dbe84611716565b925050505b919050565b600080610dd4856117bd565b90506000610de2828661184b565b90506009600085815260200190815260200160002060009054906101000a900473ffffffffffffffffffffffffffffffffffffffff1673ffffffffffffffffffffffffffffffffffffffff168173ffffffffffffffffffffffffffffffffffffffff16148015610ef35750610ef2600860008681526020019081526020016000208054610e6e90613aad565b80601f0160208091040260200160405190810160405280929190818152602001828054610e9a90613aad565b8015610ee75780601f10610ebc57610100808354040283529160200191610ee7565b820191906000526020600020905b815481529060010190602001808311610eca57829003601f168201915b5050505050866118c5565b5b925050509392505050565b6000600560008473ffffffffffffffffffffffffffffffffffffffff1673ffffffffffffffffffffffffffffffffffffffff16815260200190815260200160002060008373ffffffffffffffffffffffffffffffffffffffff1673ffffffffffffffffffffffffffffffffffffffff16815260200190815260200160002060009054906101000a900460ff16905092915050565b610f9c8282611901565b5050565b60007f01ffc9a7000000000000000000000000000000000000000000000000000000007bffffffffffffffffffffffffffffffffffffffffffffffffffffffff1916827bffffffffffffffffffffffffffffffffffffffffffffffffffffffff1916149050919050565b60008073ffffffffffffffffffffffffffffffffffffffff166002600084815260200190815260200160002060009054906101000a900473ffffffffffffffffffffffffffffffffffffffff1673ffffffffffffffffffffffffffffffffffffffff1614159050919050565b600033905090565b816004600083815260200190815260200160002060006101000a81548173ffffffffffffffffffffffffffffffffffffffff021916908373ffffffffffffffffffffffffffffffffffffffff160217905550808273ffffffffffffffffffffffffffffffffffffffff166110f183610897565b73ffffffffffffffffffffffffffffffffffffffff167f8c5be1e5ebec7d5bd14f71427d1e84f3dd0314c0f7b2291e5b200ac8c7c3b92560405160405180910390a45050565b60006111428261100a565b611181576040517f08c379a00000000000000000000000000000000000000000000000000000000081526004016111789061360a565b60405180910390fd5b600061118c83610897565b90508073ffffffffffffffffffffffffffffffffffffffff168473ffffffffffffffffffffffffffffffffffffffff1614806111fb57508373ffffffffffffffffffffffffffffffffffffffff166111e38461065e565b73ffffffffffffffffffffffffffffffffffffffff16145b8061120c575061120b8185610efe565b5b91505092915050565b8273ffffffffffffffffffffffffffffffffffffffff1661123582610897565b73ffffffffffffffffffffffffffffffffffffffff161461128b576040517f08c379a00000000000000000000000000000000000000000000000000000000081526004016112829061376a565b60405180910390fd5b600073ffffffffffffffffffffffffffffffffffffffff168273ffffffffffffffffffffffffffffffffffffffff1614156112fb576040517f08c379a00000000000000000000000000000000000000000000000000000000081526004016112f2906135aa565b60405180910390fd5b611306838383611a4a565b61131160008261107e565b6001600360008573ffffffffffffffffffffffffffffffffffffffff1673ffffffffffffffffffffffffffffffffffffffff168152602001908152602001600020600082825461136191906139ac565b925050819055506001600360008473ffffffffffffffffffffffffffffffffffffffff1673ffffffffffffffffffffffffffffffffffffffff16815260200190815260200160002060008282546113b89190613925565b92505081905550816002600083815260200190815260200160002060006101000a81548173ffffffffffffffffffffffffffffffffffffffff021916908373ffffffffffffffffffffffffffffffffffffffff160217905550808273ffffffffffffffffffffffffffffffffffffffff168473ffffffffffffffffffffffffffffffffffffffff167fddf252ad1be2c89b69c2b068fc378daa952ba7f163c4a11628f55a4df523b3ef60405160405180910390a4505050565b6009600084815260200190815260200160002060009054906101000a900473ffffffffffffffffffffffffffffffffffffffff1673ffffffffffffffffffffffffffffffffffffffff163373ffffffffffffffffffffffffffffffffffffffff1614611512576040517f08c379a0000000000000000000000000000000000000000000000000000000008152600401611509906136ea565b60405180910390fd5b600060086000858152602001908152602001600020805461153290613aad565b905014611574576040517f08c379a000000000000000000000000000000000000000000000000000000000815260040161156b9061356a565b60405180910390fd5b600061157f836117bd565b9050600061158d828461184b565b90506009600086815260200190815260200160002060009054906101000a900473ffffffffffffffffffffffffffffffffffffffff1673ffffffffffffffffffffffffffffffffffffffff168173ffffffffffffffffffffffffffffffffffffffff1614611630576040517f08c379a00000000000000000000000000000000000000000000000000000000081526004016116279061350a565b60405180910390fd5b82600860008781526020019081526020016000209080519060200190611657929190612173565b50843373ffffffffffffffffffffffffffffffffffffffff167ff4b7ab5b8fc49d6d35d323cae6a96e1441b461f862dfc5aff92e806e2839b5b060405160405180910390a35050505050565b6116ae848484611215565b6116ba84848484611a4f565b6116f9576040517f08c379a00000000000000000000000000000000000000000000000000000000081526004016116f09061354a565b60405180910390fd5b50505050565b606060405180602001604052806000815250905090565b60606117218261100a565b611760576040517f08c379a00000000000000000000000000000000000000000000000000000000081526004016117579061378a565b60405180910390fd5b600061176a6116ff565b9050600081511161178a57604051806020016040528060008152506117b5565b8061179484611be6565b6040516020016117a5929190613308565b6040516020818303038152906040525b915050919050565b60006007547f1e42c447b01f5573e84d49a0ca5625af0baaf3c2e093f2bd448e06d657f3582e30846020015185604001518660600151604051602001611807959493929190613400565b6040516020818303038152906040528051906020012060405160200161182e92919061332c565b604051602081830303815290604052805190602001209050919050565b60006041825114611891576040517f08c379a00000000000000000000000000000000000000000000000000000000081526004016118889061352a565b60405180910390fd5b60008060006020850151925060408501519150606085015160001a90506118ba86828585611d93565b935050505092915050565b600081518351146118d957600090506118fb565b6000806000855190506020860192506020850191508082208184201493505050505b92915050565b60008111611944576040517f08c379a000000000000000000000000000000000000000000000000000000000815260040161193b906137ea565b60405180910390fd5b60005b81811015611a455761195b33600a54611f1e565b6119c6600a5484838151811061199a577f4e487b7100000000000000000000000000000000000000000000000000000000600052603260045260246000fd5b60200260200101516040516020016119b291906132f1565b6040516020818303038152906040526120ec565b3360096000600a54815260200190815260200160002060006101000a81548173ffffffffffffffffffffffffffffffffffffffff021916908373ffffffffffffffffffffffffffffffffffffffff160217905550600a6000815480929190611a2d90613adf565b91905055508080611a3d90613adf565b915050611947565b505050565b505050565b6000611a708473ffffffffffffffffffffffffffffffffffffffff16612160565b15611bd9578373ffffffffffffffffffffffffffffffffffffffff1663150b7a02611a99611076565b8786866040518563ffffffff1660e01b8152600401611abb949392919061337e565b602060405180830381600087803b158015611ad557600080fd5b505af1925050508015611b0657506040513d601f19601f82011682018060405250810190611b039190612724565b60015b611b89573d8060008114611b36576040519150601f19603f3d011682016040523d82523d6000602084013e611b3b565b606091505b50600081511415611b81576040517f08c379a0000000000000000000000000000000000000000000000000000000008152600401611b789061354a565b60405180910390fd5b805181602001fd5b63150b7a0260e01b7bffffffffffffffffffffffffffffffffffffffffffffffffffffffff1916817bffffffffffffffffffffffffffffffffffffffffffffffffffffffff191614915050611bde565b600190505b949350505050565b60606000821415611c2e576040518060400160405280600181526020017f30000000000000000000000000000000000000000000000000000000000000008152509050611d8e565b600082905060005b60008214611c60578080611c4990613adf565b915050600a82611c59919061397b565b9150611c36565b60008167ffffffffffffffff811115611ca2577f4e487b7100000000000000000000000000000000000000000000000000000000600052604160045260246000fd5b6040519080825280601f01601f191660200182016040528015611cd45781602001600182028036833780820191505090505b5090505b60008514611d8757600182611ced91906139ac565b9150600a85611cfc9190613b32565b6030611d089190613925565b60f81b818381518110611d44577f4e487b7100000000000000000000000000000000000000000000000000000000600052603260045260246000fd5b60200101907effffffffffffffffffffffffffffffffffffffffffffffffffffffffffffff1916908160001a905350600a85611d80919061397b565b9450611cd8565b8093505050505b919050565b60007f7fffffffffffffffffffffffffffffff5d576e7357a4501ddfe92f46681b20a08260001c1115611dfb576040517f08c379a0000000000000000000000000000000000000000000000000000000008152600401611df2906135ea565b60405180910390fd5b601b8460ff161480611e105750601c8460ff16145b611e4f576040517f08c379a0000000000000000000000000000000000000000000000000000000008152600401611e46906136aa565b60405180910390fd5b600060018686868660405160008152602001604052604051611e749493929190613461565b6020604051602081039080840390855afa158015611e96573d6000803e3d6000fd5b505050602060405103519050600073ffffffffffffffffffffffffffffffffffffffff168173ffffffffffffffffffffffffffffffffffffffff161415611f12576040517f08c379a0000000000000000000000000000000000000000000000000000000008152600401611f09906134ea565b60405180910390fd5b80915050949350505050565b600073ffffffffffffffffffffffffffffffffffffffff168273ffffffffffffffffffffffffffffffffffffffff161415611f8e576040517f08c379a0000000000000000000000000000000000000000000000000000000008152600401611f85906136ca565b60405180910390fd5b611f978161100a565b15611fd7576040517f08c379a0000000000000000000000000000000000000000000000000000000008152600401611fce9061358a565b60405180910390fd5b611fe360008383611a4a565b6001600360008473ffffffffffffffffffffffffffffffffffffffff1673ffffffffffffffffffffffffffffffffffffffff16815260200190815260200160002060008282546120339190613925565b92505081905550816002600083815260200190815260200160002060006101000a81548173ffffffffffffffffffffffffffffffffffffffff021916908373ffffffffffffffffffffffffffffffffffffffff160217905550808273ffffffffffffffffffffffffffffffffffffffff16600073ffffffffffffffffffffffffffffffffffffffff167fddf252ad1be2c89b69c2b068fc378daa952ba7f163c4a11628f55a4df523b3ef60405160405180910390a45050565b6120f58261100a565b612134576040517f08c379a000000000000000000000000000000000000000000000000000000000815260040161212b9061368a565b60405180910390fd5b8060066000848152602001908152602001600020908051906020019061215b9291906121f9565b505050565b600080823b905060008111915050919050565b82805461217f90613aad565b90600052602060002090601f0160209004810192826121a157600085556121e8565b82601f106121ba57805160ff19168380011785556121e8565b828001600101855582156121e8579182015b828111156121e75782518255916020019190600101906121cc565b5b5090506121f5919061227f565b5090565b82805461220590613aad565b90600052602060002090601f016020900481019282612227576000855561226e565b82601f1061224057805160ff191683800117855561226e565b8280016001018555821561226e579182015b8281111561226d578251825591602001919060010190612252565b5b50905061227b919061227f565b5090565b5b80821115612298576000816000905550600101612280565b5090565b60006122af6122aa84613856565b613825565b9050808382526020820190508260005b858110156122ef57813585016122d5888261241d565b8452602084019350602083019250506001810190506122bf565b5050509392505050565b600061230c61230784613882565b613825565b90508281526020810184848401111561232457600080fd5b61232f848285613a6b565b509392505050565b600061234a612345846138b2565b613825565b90508281526020810184848401111561236257600080fd5b61236d848285613a6b565b509392505050565b60008135905061238481613c30565b92915050565b600082601f83011261239b57600080fd5b81356123ab84826020860161229c565b91505092915050565b6000813590506123c381613c47565b92915050565b6000813590506123d881613c5e565b92915050565b6000815190506123ed81613c5e565b92915050565b600082601f83011261240457600080fd5b81356124148482602086016122f9565b91505092915050565b600082601f83011261242e57600080fd5b813561243e848260208601612337565b91505092915050565b60006080828403121561245957600080fd5b6124636080613825565b9050600061247384828501612375565b600083015250602082013567ffffffffffffffff81111561249357600080fd5b61249f8482850161241d565b60208301525060406124b384828501612375565b604083015250606082013567ffffffffffffffff8111156124d357600080fd5b6124df8482850161241d565b60608301525092915050565b6000813590506124fa81613c75565b92915050565b60006020828403121561251257600080fd5b600061252084828501612375565b91505092915050565b6000806040838503121561253c57600080fd5b600061254a85828601612375565b925050602061255b85828601612375565b9150509250929050565b60008060006060848603121561257a57600080fd5b600061258886828701612375565b935050602061259986828701612375565b92505060406125aa868287016124eb565b9150509250925092565b600080600080608085870312156125ca57600080fd5b60006125d887828801612375565b94505060206125e987828801612375565b93505060406125fa878288016124eb565b925050606085013567ffffffffffffffff81111561261757600080fd5b612623878288016123f3565b91505092959194509250565b6000806040838503121561264257600080fd5b600061265085828601612375565b9250506020612661858286016123b4565b9150509250929050565b6000806040838503121561267e57600080fd5b600061268c85828601612375565b925050602061269d858286016124eb565b9150509250929050565b600080604083850312156126ba57600080fd5b600083013567ffffffffffffffff8111156126d457600080fd5b6126e08582860161238a565b92505060206126f1858286016124eb565b9150509250929050565b60006020828403121561270d57600080fd5b600061271b848285016123c9565b91505092915050565b60006020828403121561273657600080fd5b6000612744848285016123de565b91505092915050565b60008060006060848603121561276257600080fd5b600084013567ffffffffffffffff81111561277c57600080fd5b61278886828701612447565b935050602084013567ffffffffffffffff8111156127a557600080fd5b6127b1868287016123f3565b92505060406127c2868287016124eb565b9150509250925092565b6000602082840312156127de57600080fd5b60006127ec848285016124eb565b91505092915050565b60008060006060848603121561280a57600080fd5b6000612818868287016124eb565b935050602084013567ffffffffffffffff81111561283557600080fd5b61284186828701612447565b925050604084013567ffffffffffffffff81111561285e57600080fd5b61286a868287016123f3565b9150509250925092565b61287d816139e0565b82525050565b61288c816139f2565b82525050565b61289b816139fe565b82525050565b6128b26128ad826139fe565b613b28565b82525050565b60006128c3826138e2565b6128cd81856138f8565b93506128dd818560208601613a7a565b6128e681613c1f565b840191505092915050565b60006128fc826138ed565b6129068185613909565b9350612916818560208601613a7a565b61291f81613c1f565b840191505092915050565b6000612935826138ed565b61293f818561391a565b935061294f818560208601613a7a565b80840191505092915050565b6000612968601883613909565b91507f45434453413a20696e76616c6964207369676e617475726500000000000000006000830152602082019050919050565b60006129a8602b83613909565b91507f455243373231457874656e73696f6e733a20617274697374207369676e61747560008301527f7265206d69736d617463680000000000000000000000000000000000000000006020830152604082019050919050565b6000612a0e601f83613909565b91507f45434453413a20696e76616c6964207369676e6174757265206c656e677468006000830152602082019050919050565b6000612a4e603283613909565b91507f4552433732313a207472616e7366657220746f206e6f6e20455243373231526560008301527f63656976657220696d706c656d656e74657200000000000000000000000000006020830152604082019050919050565b6000612ab4602e83613909565b91507f455243373231457874656e73696f6e733a207468697320746f6b656e2069732060008301527f616c7265616479207369676e65640000000000000000000000000000000000006020830152604082019050919050565b6000612b1a601c83613909565b91507f4552433732313a20746f6b656e20616c7265616479206d696e746564000000006000830152602082019050919050565b6000612b5a60028361391a565b91507f19010000000000000000000000000000000000000000000000000000000000006000830152600282019050919050565b6000612b9a602483613909565b91507f4552433732313a207472616e7366657220746f20746865207a65726f2061646460008301527f72657373000000000000000000000000000000000000000000000000000000006020830152604082019050919050565b6000612c00601983613909565b91507f4552433732313a20617070726f766520746f2063616c6c6572000000000000006000830152602082019050919050565b6000612c40602283613909565b91507f45434453413a20696e76616c6964207369676e6174757265202773272076616c60008301527f75650000000000000000000000000000000000000000000000000000000000006020830152604082019050919050565b6000612ca6602c83613909565b91507f4552433732313a206f70657261746f7220717565727920666f72206e6f6e657860008301527f697374656e7420746f6b656e00000000000000000000000000000000000000006020830152604082019050919050565b6000612d0c603883613909565b91507f4552433732313a20617070726f76652063616c6c6572206973206e6f74206f7760008301527f6e6572206e6f7220617070726f76656420666f7220616c6c00000000000000006020830152604082019050919050565b6000612d72602a83613909565b91507f4552433732313a2062616c616e636520717565727920666f7220746865207a6560008301527f726f2061646472657373000000000000000000000000000000000000000000006020830152604082019050919050565b6000612dd8602983613909565b91507f4552433732313a206f776e657220717565727920666f72206e6f6e657869737460008301527f656e7420746f6b656e00000000000000000000000000000000000000000000006020830152604082019050919050565b6000612e3e602e83613909565b91507f45524337323155524953746f726167653a2055524920736574206f66206e6f6e60008301527f6578697374656e7420746f6b656e0000000000000000000000000000000000006020830152604082019050919050565b6000612ea4602283613909565b91507f45434453413a20696e76616c6964207369676e6174757265202776272076616c60008301527f75650000000000000000000000000000000000000000000000000000000000006020830152604082019050919050565b6000612f0a602083613909565b91507f4552433732313a206d696e7420746f20746865207a65726f20616464726573736000830152602082019050919050565b6000612f4a603583613909565b91507f455243373231457874656e73696f6e733a206f6e6c792074686520617274697360008301527f74206d6179207369676e20746865697220776f726b00000000000000000000006020830152604082019050919050565b6000612fb0603183613909565b91507f45524337323155524953746f726167653a2055524920717565727920666f722060008301527f6e6f6e6578697374656e7420746f6b656e0000000000000000000000000000006020830152604082019050919050565b6000613016602c83613909565b91507f4552433732313a20617070726f76656420717565727920666f72206e6f6e657860008301527f697374656e7420746f6b656e00000000000000000000000000000000000000006020830152604082019050919050565b600061307c603183613909565b91507f455243373231457874656e73696f6e733a206e6f207369676e6174757265206560008301527f786973747320666f7220746869732049640000000000000000000000000000006020830152604082019050919050565b60006130e2602983613909565b91507f4552433732313a207472616e73666572206f6620746f6b656e2074686174206960008301527f73206e6f74206f776e00000000000000000000000000000000000000000000006020830152604082019050919050565b6000613148602f83613909565b91507f4552433732314d657461646174613a2055524920717565727920666f72206e6f60008301527f6e6578697374656e7420746f6b656e00000000000000000000000000000000006020830152604082019050919050565b60006131ae602183613909565b91507f4552433732313a20617070726f76616c20746f2063757272656e74206f776e6560008301527f72000000000000000000000000000000000000000000000000000000000000006020830152604082019050919050565b6000613214603183613909565b91507f4552433732313a207472616e736665722063616c6c6572206973206e6f74206f60008301527f776e6572206e6f7220617070726f7665640000000000000000000000000000006020830152604082019050919050565b600061327a603e83613909565b91507f455243373231457874656e73696f6e733a207468652065646974696f6e20737560008301527f70706c79206973206e6f742073657420746f206d6f7265207468616e203000006020830152604082019050919050565b6132dc81613a54565b82525050565b6132eb81613a5e565b82525050565b60006132fd828461292a565b915081905092915050565b6000613314828561292a565b9150613320828461292a565b91508190509392505050565b600061333782612b4d565b915061334382856128a1565b60208201915061335382846128a1565b6020820191508190509392505050565b60006020820190506133786000830184612874565b92915050565b60006080820190506133936000830187612874565b6133a06020830186612874565b6133ad60408301856132d3565b81810360608301526133bf81846128b8565b905095945050505050565b60006020820190506133df6000830184612883565b92915050565b60006020820190506133fa6000830184612892565b92915050565b600060a0820190506134156000830188612892565b6134226020830187612874565b818103604083015261343481866128f1565b90506134436060830185612874565b818103608083015261345581846128f1565b90509695505050505050565b60006080820190506134766000830187612892565b61348360208301866132e2565b6134906040830185612892565b61349d6060830184612892565b95945050505050565b600060208201905081810360008301526134c081846128b8565b905092915050565b600060208201905081810360008301526134e281846128f1565b905092915050565b600060208201905081810360008301526135038161295b565b9050919050565b600060208201905081810360008301526135238161299b565b9050919050565b6000602082019050818103600083015261354381612a01565b9050919050565b6000602082019050818103600083015261356381612a41565b9050919050565b6000602082019050818103600083015261358381612aa7565b9050919050565b600060208201905081810360008301526135a381612b0d565b9050919050565b600060208201905081810360008301526135c381612b8d565b9050919050565b600060208201905081810360008301526135e381612bf3565b9050919050565b6000602082019050818103600083015261360381612c33565b9050919050565b6000602082019050818103600083015261362381612c99565b9050919050565b6000602082019050818103600083015261364381612cff565b9050919050565b6000602082019050818103600083015261366381612d65565b9050919050565b6000602082019050818103600083015261368381612dcb565b9050919050565b600060208201905081810360008301526136a381612e31565b9050919050565b600060208201905081810360008301526136c381612e97565b9050919050565b600060208201905081810360008301526136e381612efd565b9050919050565b6000602082019050818103600083015261370381612f3d565b9050919050565b6000602082019050818103600083015261372381612fa3565b9050919050565b6000602082019050818103600083015261374381613009565b9050919050565b600060208201905081810360008301526137638161306f565b9050919050565b60006020820190508181036000830152613783816130d5565b9050919050565b600060208201905081810360008301526137a38161313b565b9050919050565b600060208201905081810360008301526137c3816131a1565b9050919050565b600060208201905081810360008301526137e381613207565b9050919050565b600060208201905081810360008301526138038161326d565b9050919050565b600060208201905061381f60008301846132d3565b92915050565b6000604051905081810181811067ffffffffffffffff8211171561384c5761384b613bf0565b5b8060405250919050565b600067ffffffffffffffff82111561387157613870613bf0565b5b602082029050602081019050919050565b600067ffffffffffffffff82111561389d5761389c613bf0565b5b601f19601f8301169050602081019050919050565b600067ffffffffffffffff8211156138cd576138cc613bf0565b5b601f19601f8301169050602081019050919050565b600081519050919050565b600081519050919050565b600082825260208201905092915050565b600082825260208201905092915050565b600081905092915050565b600061393082613a54565b915061393b83613a54565b9250827fffffffffffffffffffffffffffffffffffffffffffffffffffffffffffffffff038211156139705761396f613b63565b5b828201905092915050565b600061398682613a54565b915061399183613a54565b9250826139a1576139a0613b92565b5b828204905092915050565b60006139b782613a54565b91506139c283613a54565b9250828210156139d5576139d4613b63565b5b828203905092915050565b60006139eb82613a34565b9050919050565b60008115159050919050565b6000819050919050565b60007fffffffff0000000000000000000000000000000000000000000000000000000082169050919050565b600073ffffffffffffffffffffffffffffffffffffffff82169050919050565b6000819050919050565b600060ff82169050919050565b82818337600083830152505050565b60005b83811015613a98578082015181840152602081019050613a7d565b83811115613aa7576000848401525b50505050565b60006002820490506001821680613ac557607f821691505b60208210811415613ad957613ad8613bc1565b5b50919050565b6000613aea82613a54565b91507fffffffffffffffffffffffffffffffffffffffffffffffffffffffffffffffff821415613b1d57613b1c613b63565b5b600182019050919050565b6000819050919050565b6000613b3d82613a54565b9150613b4883613a54565b925082613b5857613b57613b92565b5b828206905092915050565b7f4e487b7100000000000000000000000000000000000000000000000000000000600052601160045260246000fd5b7f4e487b7100000000000000000000000000000000000000000000000000000000600052601260045260246000fd5b7f4e487b7100000000000000000000000000000000000000000000000000000000600052602260045260246000fd5b7f4e487b7100000000000000000000000000000000000000000000000000000000600052604160045260246000fd5b6000601f19601f8301169050919050565b613c39816139e0565b8114613c4457600080fd5b50565b613c50816139f2565b8114613c5b57600080fd5b50565b613c6781613a08565b8114613c7257600080fd5b50565b613c7e81613a54565b8114613c8957600080fd5b5056fea264697066735822122081470df6749d369f1cf9d552286f03249a1fdbd34f2a77e5251e08d0abaef76364736f6c63430008000033",
  "linkReferences": {},
  "deployedLinkReferences": {}
}