{
  "_format": "hh-sol-artifact-1",
  "contractName": "Usul",
  "sourceName": "contracts/Usul.sol",
  "abi": [
    {
      "inputs": [
        {
          "internalType": "address",
          "name": "_owner",
          "type": "address"
        },
        {
          "internalType": "address",
          "name": "_avatar",
          "type": "address"
        },
        {
          "internalType": "address",
          "name": "_target",
          "type": "address"
        },
        {
          "internalType": "address[]",
          "name": "_strategies",
          "type": "address[]"
        }
      ],
      "stateMutability": "nonpayable",
      "type": "constructor"
    },
    {
      "anonymous": false,
      "inputs": [
        {
          "indexed": true,
          "internalType": "address",
          "name": "previousAvatar",
          "type": "address"
        },
        {
          "indexed": true,
          "internalType": "address",
          "name": "newAvatar",
          "type": "address"
        }
      ],
      "name": "AvatarSet",
      "type": "event"
    },
    {
      "anonymous": false,
      "inputs": [
        {
          "indexed": false,
          "internalType": "address",
          "name": "guard",
          "type": "address"
        }
      ],
      "name": "ChangedGuard",
      "type": "event"
    },
    {
      "anonymous": false,
      "inputs": [
        {
          "indexed": false,
          "internalType": "address",
          "name": "strategy",
          "type": "address"
        }
      ],
      "name": "DisabledStrategy",
      "type": "event"
    },
    {
      "anonymous": false,
      "inputs": [
        {
          "indexed": false,
          "internalType": "address",
          "name": "strategy",
          "type": "address"
        }
      ],
      "name": "EnabledStrategy",
      "type": "event"
    },
    {
      "anonymous": false,
      "inputs": [
        {
          "indexed": true,
          "internalType": "address",
          "name": "previousOwner",
          "type": "address"
        },
        {
          "indexed": true,
          "internalType": "address",
          "name": "newOwner",
          "type": "address"
        }
      ],
      "name": "OwnershipTransferred",
      "type": "event"
    },
    {
      "anonymous": false,
      "inputs": [
        {
          "indexed": false,
          "internalType": "uint256",
          "name": "proposalId",
          "type": "uint256"
        }
      ],
      "name": "ProposalCanceled",
      "type": "event"
    },
    {
      "anonymous": false,
      "inputs": [
        {
          "indexed": false,
          "internalType": "address",
          "name": "strategy",
          "type": "address"
        },
        {
          "indexed": false,
          "internalType": "uint256",
          "name": "proposalNumber",
          "type": "uint256"
        },
        {
          "indexed": false,
          "internalType": "address",
          "name": "proposer",
          "type": "address"
        }
      ],
      "name": "ProposalCreated",
      "type": "event"
    },
    {
      "anonymous": false,
      "inputs": [
        {
          "indexed": false,
          "internalType": "uint256",
          "name": "id",
          "type": "uint256"
        }
      ],
      "name": "ProposalExecuted",
      "type": "event"
    },
    {
      "anonymous": false,
      "inputs": [
        {
          "indexed": false,
          "internalType": "uint256",
          "name": "proposalId",
          "type": "uint256"
        },
        {
          "indexed": false,
          "internalType": "uint256",
          "name": "endDate",
          "type": "uint256"
        }
      ],
      "name": "StrategyFinalized",
      "type": "event"
    },
    {
      "anonymous": false,
      "inputs": [
        {
          "indexed": true,
          "internalType": "address",
          "name": "previousTarget",
          "type": "address"
        },
        {
          "indexed": true,
          "internalType": "address",
          "name": "newTarget",
          "type": "address"
        }
      ],
      "name": "TargetSet",
      "type": "event"
    },
    {
      "anonymous": false,
      "inputs": [
        {
          "indexed": false,
          "internalType": "uint256",
          "name": "proposalId",
          "type": "uint256"
        },
        {
          "indexed": false,
          "internalType": "bytes32",
          "name": "txHash",
          "type": "bytes32"
        }
      ],
      "name": "TransactionExecuted",
      "type": "event"
    },
    {
      "anonymous": false,
      "inputs": [
        {
          "indexed": false,
          "internalType": "uint256",
          "name": "startIndex",
          "type": "uint256"
        },
        {
          "indexed": false,
          "internalType": "uint256",
          "name": "endIndex",
          "type": "uint256"
        }
      ],
      "name": "TransactionExecutedBatch",
      "type": "event"
    },
    {
      "anonymous": false,
      "inputs": [
        {
          "indexed": true,
          "internalType": "address",
          "name": "initiator",
          "type": "address"
        },
        {
          "indexed": true,
          "internalType": "address",
          "name": "owner",
          "type": "address"
        },
        {
          "indexed": true,
          "internalType": "address",
          "name": "avatar",
          "type": "address"
        },
        {
          "indexed": false,
          "internalType": "address",
          "name": "target",
          "type": "address"
        }
      ],
      "name": "UsulSetup",
      "type": "event"
    },
    {
      "inputs": [],
      "name": "DOMAIN_SEPARATOR_TYPEHASH",
      "outputs": [
        {
          "internalType": "bytes32",
          "name": "",
          "type": "bytes32"
        }
      ],
      "stateMutability": "view",
      "type": "function"
    },
    {
      "inputs": [],
      "name": "TRANSACTION_TYPEHASH",
      "outputs": [
        {
          "internalType": "bytes32",
          "name": "",
          "type": "bytes32"
        }
      ],
      "stateMutability": "view",
      "type": "function"
    },
    {
      "inputs": [],
      "name": "avatar",
      "outputs": [
        {
          "internalType": "address",
          "name": "",
          "type": "address"
        }
      ],
      "stateMutability": "view",
      "type": "function"
    },
    {
      "inputs": [
        {
          "internalType": "uint256[]",
          "name": "proposalIds",
          "type": "uint256[]"
        }
      ],
      "name": "cancelProposals",
      "outputs": [],
      "stateMutability": "nonpayable",
      "type": "function"
    },
    {
      "inputs": [
        {
          "internalType": "address",
          "name": "prevStrategy",
          "type": "address"
        },
        {
          "internalType": "address",
          "name": "strategy",
          "type": "address"
        }
      ],
      "name": "disableStrategy",
      "outputs": [],
      "stateMutability": "nonpayable",
      "type": "function"
    },
    {
      "inputs": [
        {
          "internalType": "address",
          "name": "strategy",
          "type": "address"
        }
      ],
      "name": "enableStrategy",
      "outputs": [],
      "stateMutability": "nonpayable",
      "type": "function"
    },
    {
      "inputs": [
        {
          "internalType": "uint256",
          "name": "proposalId",
          "type": "uint256"
        },
        {
          "internalType": "address[]",
          "name": "targets",
          "type": "address[]"
        },
        {
          "internalType": "uint256[]",
          "name": "values",
          "type": "uint256[]"
        },
        {
          "internalType": "bytes[]",
          "name": "data",
          "type": "bytes[]"
        },
        {
          "internalType": "enum Enum.Operation[]",
          "name": "operations",
          "type": "uint8[]"
        }
      ],
      "name": "executeProposalBatch",
      "outputs": [],
      "stateMutability": "nonpayable",
      "type": "function"
    },
    {
      "inputs": [
        {
          "internalType": "uint256",
          "name": "proposalId",
          "type": "uint256"
        },
        {
          "internalType": "address",
          "name": "target",
          "type": "address"
        },
        {
          "internalType": "uint256",
          "name": "value",
          "type": "uint256"
        },
        {
          "internalType": "bytes",
          "name": "data",
          "type": "bytes"
        },
        {
          "internalType": "enum Enum.Operation",
          "name": "operation",
          "type": "uint8"
        }
      ],
      "name": "executeProposalByIndex",
      "outputs": [],
      "stateMutability": "nonpayable",
      "type": "function"
    },
    {
      "inputs": [
        {
          "internalType": "address",
          "name": "to",
          "type": "address"
        },
        {
          "internalType": "uint256",
          "name": "value",
          "type": "uint256"
        },
        {
          "internalType": "bytes",
          "name": "data",
          "type": "bytes"
        },
        {
          "internalType": "enum Enum.Operation",
          "name": "operation",
          "type": "uint8"
        },
        {
          "internalType": "uint256",
          "name": "nonce",
          "type": "uint256"
        }
      ],
      "name": "generateTransactionHashData",
      "outputs": [
        {
          "internalType": "bytes",
          "name": "",
          "type": "bytes"
        }
      ],
      "stateMutability": "view",
      "type": "function"
    },
    {
      "inputs": [],
      "name": "getGuard",
      "outputs": [
        {
          "internalType": "address",
          "name": "_guard",
          "type": "address"
        }
      ],
      "stateMutability": "view",
      "type": "function"
    },
    {
      "inputs": [
        {
          "internalType": "address",
          "name": "start",
          "type": "address"
        },
        {
          "internalType": "uint256",
          "name": "pageSize",
          "type": "uint256"
        }
      ],
      "name": "getStrategiesPaginated",
      "outputs": [
        {
          "internalType": "address[]",
          "name": "array",
          "type": "address[]"
        },
        {
          "internalType": "address",
          "name": "next",
          "type": "address"
        }
      ],
      "stateMutability": "view",
      "type": "function"
    },
    {
      "inputs": [
        {
          "internalType": "address",
          "name": "to",
          "type": "address"
        },
        {
          "internalType": "uint256",
          "name": "value",
          "type": "uint256"
        },
        {
          "internalType": "bytes",
          "name": "data",
          "type": "bytes"
        },
        {
          "internalType": "enum Enum.Operation",
          "name": "operation",
          "type": "uint8"
        }
      ],
      "name": "getTransactionHash",
      "outputs": [
        {
          "internalType": "bytes32",
          "name": "",
          "type": "bytes32"
        }
      ],
      "stateMutability": "view",
      "type": "function"
    },
    {
      "inputs": [
        {
          "internalType": "uint256",
          "name": "proposalId",
          "type": "uint256"
        },
        {
          "internalType": "uint256",
          "name": "index",
          "type": "uint256"
        }
      ],
      "name": "getTxHash",
      "outputs": [
        {
          "internalType": "bytes32",
          "name": "",
          "type": "bytes32"
        }
      ],
      "stateMutability": "view",
      "type": "function"
    },
    {
      "inputs": [],
      "name": "guard",
      "outputs": [
        {
          "internalType": "address",
          "name": "",
          "type": "address"
        }
      ],
      "stateMutability": "view",
      "type": "function"
    },
    {
      "inputs": [
        {
          "internalType": "address",
          "name": "_strategy",
          "type": "address"
        }
      ],
      "name": "isStrategyEnabled",
      "outputs": [
        {
          "internalType": "bool",
          "name": "",
          "type": "bool"
        }
      ],
      "stateMutability": "view",
      "type": "function"
    },
    {
      "inputs": [
        {
          "internalType": "uint256",
          "name": "proposalId",
          "type": "uint256"
        },
        {
          "internalType": "uint256",
          "name": "index",
          "type": "uint256"
        }
      ],
      "name": "isTxExecuted",
      "outputs": [
        {
          "internalType": "bool",
          "name": "",
          "type": "bool"
        }
      ],
      "stateMutability": "view",
      "type": "function"
    },
    {
      "inputs": [],
      "name": "owner",
      "outputs": [
        {
          "internalType": "address",
          "name": "",
          "type": "address"
        }
      ],
      "stateMutability": "view",
      "type": "function"
    },
    {
      "inputs": [
        {
          "internalType": "uint256",
          "name": "",
          "type": "uint256"
        }
      ],
      "name": "proposals",
      "outputs": [
        {
          "internalType": "bool",
          "name": "canceled",
          "type": "bool"
        },
        {
          "internalType": "uint256",
          "name": "timeLockPeriod",
          "type": "uint256"
        },
        {
          "internalType": "uint256",
          "name": "executionCounter",
          "type": "uint256"
        },
        {
          "internalType": "address",
          "name": "strategy",
          "type": "address"
        }
      ],
      "stateMutability": "view",
      "type": "function"
    },
    {
      "inputs": [
        {
          "internalType": "uint256",
          "name": "proposalId",
          "type": "uint256"
        },
        {
          "internalType": "uint256",
          "name": "timeLockPeriod",
          "type": "uint256"
        }
      ],
      "name": "receiveStrategy",
      "outputs": [],
      "stateMutability": "nonpayable",
      "type": "function"
    },
    {
      "inputs": [],
      "name": "renounceOwnership",
      "outputs": [],
      "stateMutability": "nonpayable",
      "type": "function"
    },
    {
      "inputs": [
        {
          "internalType": "address",
          "name": "_avatar",
          "type": "address"
        }
      ],
      "name": "setAvatar",
      "outputs": [],
      "stateMutability": "nonpayable",
      "type": "function"
    },
    {
      "inputs": [
        {
          "internalType": "address",
          "name": "_guard",
          "type": "address"
        }
      ],
      "name": "setGuard",
      "outputs": [],
      "stateMutability": "nonpayable",
      "type": "function"
    },
    {
      "inputs": [
        {
          "internalType": "address",
          "name": "_target",
          "type": "address"
        }
      ],
      "name": "setTarget",
      "outputs": [],
      "stateMutability": "nonpayable",
      "type": "function"
    },
    {
      "inputs": [
        {
          "internalType": "bytes",
          "name": "initParams",
          "type": "bytes"
        }
      ],
      "name": "setUp",
      "outputs": [],
      "stateMutability": "nonpayable",
      "type": "function"
    },
    {
      "inputs": [
        {
          "internalType": "uint256",
          "name": "proposalId",
          "type": "uint256"
        }
      ],
      "name": "state",
      "outputs": [
        {
          "internalType": "enum Usul.ProposalState",
          "name": "",
          "type": "uint8"
        }
      ],
      "stateMutability": "view",
      "type": "function"
    },
    {
      "inputs": [
        {
          "internalType": "bytes32[]",
          "name": "txHashes",
          "type": "bytes32[]"
        },
        {
          "internalType": "address",
          "name": "strategy",
          "type": "address"
        },
        {
          "internalType": "bytes",
          "name": "data",
          "type": "bytes"
        }
      ],
      "name": "submitProposal",
      "outputs": [],
      "stateMutability": "nonpayable",
      "type": "function"
    },
    {
      "inputs": [],
      "name": "target",
      "outputs": [
        {
          "internalType": "address",
          "name": "",
          "type": "address"
        }
      ],
      "stateMutability": "view",
      "type": "function"
    },
    {
      "inputs": [],
      "name": "totalProposalCount",
      "outputs": [
        {
          "internalType": "uint256",
          "name": "",
          "type": "uint256"
        }
      ],
      "stateMutability": "view",
      "type": "function"
    },
    {
      "inputs": [
        {
          "internalType": "address",
          "name": "newOwner",
          "type": "address"
        }
      ],
      "name": "transferOwnership",
      "outputs": [],
      "stateMutability": "nonpayable",
      "type": "function"
    }
  ],
  "bytecode": "0x60806040523480156200001157600080fd5b50604051620033a9380380620033a983398101604081905262000034916200084f565b6000848484846040516020016200004f9493929190620008d0565b60408051601f1981840301815291905290506200006c8162000077565b5050505050620009aa565b600054610100900460ff168062000091575060005460ff16155b620000e95760405162461bcd60e51b815260206004820152602e60248201526000805160206200334983398151915260448201526d191e481a5b9a5d1a585b1a5e995960921b60648201526084015b60405180910390fd5b600054610100900460ff161580156200010c576000805461ffff19166101011790555b600080600080858060200190518101906200012891906200084f565b935093509350935062000140620001e860201b60201c565b606680546001600160a01b038086166001600160a01b03199283161790925560678054928516929091169190911790556200017b81620002a3565b62000186846200039d565b6040516001600160a01b038381168252808516919086169033907ffb449138a79e741e04958f3e25fcf032b7c7080142fe9d7b9dc8e1935c8905e79060200160405180910390a4505050508015620001e4576000805461ff00191690555b5050565b600054610100900460ff168062000202575060005460ff16155b620002565760405162461bcd60e51b815260206004820152602e60248201526000805160206200334983398151915260448201526d191e481a5b9a5d1a585b1a5e995960921b6064820152608401620000e0565b600054610100900460ff1615801562000279576000805461ffff19166101011790555b620002836200045a565b6200028d620004ff565b8015620002a0576000805461ff00191690555b50565b6001600052606a60205260008051602062003389833981519152546001600160a01b031615620003225760405162461bcd60e51b8152602060048201526024808201527f73657455704d6f64756c65732068617320616c7265616479206265656e2063616044820152631b1b195960e21b6064820152608401620000e0565b60016000818152606a6020526000805160206200338983398151915280546001600160a01b0319169092179091555b8151811015620001e4576200038882828151811062000374576200037462000968565b60200260200101516200059b60201b60201c565b8062000394816200093e565b91505062000351565b6033546001600160a01b03163314620003e85760405162461bcd60e51b81526020600482018190526024820152600080516020620033698339815191526044820152606401620000e0565b6001600160a01b0381166200044f5760405162461bcd60e51b815260206004820152602660248201527f4f776e61626c653a206e6577206f776e657220697320746865207a65726f206160448201526564647265737360d01b6064820152608401620000e0565b620002a08162000738565b600054610100900460ff168062000474575060005460ff16155b620004c85760405162461bcd60e51b815260206004820152602e60248201526000805160206200334983398151915260448201526d191e481a5b9a5d1a585b1a5e995960921b6064820152608401620000e0565b600054610100900460ff161580156200028d576000805461ffff19166101011790558015620002a0576000805461ff001916905550565b600054610100900460ff168062000519575060005460ff16155b6200056d5760405162461bcd60e51b815260206004820152602e60248201526000805160206200334983398151915260448201526d191e481a5b9a5d1a585b1a5e995960921b6064820152608401620000e0565b600054610100900460ff1615801562000590576000805461ffff19166101011790555b6200028d3362000738565b6033546001600160a01b03163314620005e65760405162461bcd60e51b81526020600482018190526024820152600080516020620033698339815191526044820152606401620000e0565b6001600160a01b038116158015906200060957506001600160a01b038116600114155b6200064a5760405162461bcd60e51b815260206004820152601060248201526f496e76616c696420737472617465677960801b6044820152606401620000e0565b6001600160a01b038181166000908152606a60205260409020541615620006b45760405162461bcd60e51b815260206004820152601860248201527f537472617465677920616c726561647920656e61626c656400000000000000006044820152606401620000e0565b606a60209081526000805160206200338983398151915280546001600160a01b03848116600081815260408082208054949095166001600160a01b0319948516179094556001905283549091168117909255519081527f532492ef4d4edd78444556c1b5038901e11c232361675fe6d5e6bea2f0864e19910160405180910390a150565b603380546001600160a01b038381166001600160a01b0319831681179093556040519116919082907f8be0079c531659141344cd1fd0a4f28419497f9722a3daafe3b4186f6b6457e090600090a35050565b8051620007978162000994565b919050565b600082601f830112620007ae57600080fd5b815160206001600160401b0380831115620007cd57620007cd6200097e565b8260051b604051601f19603f83011681018181108482111715620007f557620007f56200097e565b604052848152838101925086840182880185018910156200081557600080fd5b600092505b8583101562000843576200082e816200078a565b8452928401926001929092019184016200081a565b50979650505050505050565b600080600080608085870312156200086657600080fd5b8451620008738162000994565b6020860151909450620008868162000994565b6040860151909350620008998162000994565b60608601519092506001600160401b03811115620008b657600080fd5b620008c4878288016200079c565b91505092959194509250565b60006080820160018060a01b03808816845260208188168186015281871660408601526080606086015282865180855260a087019150828801945060005b818110156200092e5785518516835294830194918301916001016200090e565b50909a9950505050505050505050565b60006000198214156200096157634e487b7160e01b600052601160045260246000fd5b5060010190565b634e487b7160e01b600052603260045260246000fd5b634e487b7160e01b600052604160045260246000fd5b6001600160a01b0381168114620002a057600080fd5b61298f80620009ba6000396000f3fe608060405234801561001057600080fd5b50600436106101cf5760003560e01c8063776d1a0111610104578063c9106389116100a2578063ea49ba9711610071578063ea49ba9714610487578063ead0eedf1461049a578063f2fde38b146104a3578063f72d9c3a146104b657600080fd5b8063c91063891461043d578063cdb1b1931461044e578063d4b8399214610461578063e19a9dd91461047457600080fd5b80638da5cb5b116100de5780638da5cb5b146103e5578063a4f9edbf146103f6578063b486737914610409578063c01e39aa1461041c57600080fd5b8063776d1a01146103985780637ceab3b1146103ab57806388633b7b146103be57600080fd5b80634fd61348116101715780636258ba201161014b5780636258ba20146103475780636a0ae77f1461036a5780636e6ebbbc1461037d578063715018a61461039057600080fd5b80634fd61348146102f65780635aef7de614610309578063608244a61461033457600080fd5b8063300c661f116101ad578063300c661f146102905780633742fcc9146102a35780633e4f49e6146102b6578063425a2a3c146102d657600080fd5b8063013cf08b146101d4578063086cfca8146102465780631db61b541461025b575b600080fd5b6102166101e23660046123ae565b606960205260009081526040902080546001820154600383015460049093015460ff9092169290916001600160a01b031684565b6040805194151585526020850193909352918301526001600160a01b031660608201526080015b60405180910390f35b610259610254366004612013565b6104c9565b005b6102827f47e79534a245952e8b16893a336b85a3d9ea9fa8c573f3d803afb92a7946921881565b60405190815260200161023d565b61028261029e366004612178565b61054e565b6102596102b1366004612013565b610570565b6102c96102c43660046123ae565b6106f9565b60405161023d9190612751565b6102e96102e43660046121e1565b6107d1565b60405161023d919061273e565b610259610304366004612557565b6108cd565b60665461031c906001600160a01b031681565b6040516001600160a01b03909116815260200161023d565b610259610342366004612113565b610aa6565b61035a610355366004612557565b610c12565b604051901515815260200161023d565b6102596103783660046123c7565b610c88565b61028261038b366004612557565b610e62565b610259610e98565b6102596103a6366004612013565b610ece565b60655461031c906001600160a01b031681565b6102827f72e9670a7ee00f5fbf1049b8c38e3f22fab7e9b85029e85cf9412f17fdd5c2ad81565b6033546001600160a01b031661031c565b61025961040436600461237a565b610f4a565b61025961041736600461243a565b61106e565b61042f61042a36600461214c565b6112b4565b60405161023d92919061269f565b6065546001600160a01b031661031c565b61025961045c366004612324565b6113ad565b60675461031c906001600160a01b031681565b610259610482366004612013565b611526565b61035a610495366004612013565b611677565b61028260685481565b6102596104b1366004612013565b6116b2565b6102596104c4366004612252565b61174d565b6033546001600160a01b031633146104fc5760405162461bcd60e51b81526004016104f3906127b9565b60405180910390fd5b606680546001600160a01b038381166001600160a01b0319831681179093556040519116919082907f52ae88b092de36f87fb43fe794eb1381023b9c1bce563a871154022c63dce34290600090a35050565b600061055e8585858560006107d1565b8051906020012090505b949350505050565b6033546001600160a01b0316331461059a5760405162461bcd60e51b81526004016104f3906127b9565b6001600160a01b038116158015906105bc57506001600160a01b038116600114155b6105fb5760405162461bcd60e51b815260206004820152601060248201526f496e76616c696420737472617465677960801b60448201526064016104f3565b6001600160a01b038181166000908152606a602052604090205416156106635760405162461bcd60e51b815260206004820152601860248201527f537472617465677920616c726561647920656e61626c6564000000000000000060448201526064016104f3565b606a60209081527ff585789965ba69220d5ce3dc1b444eb22ff546f2650694fef8fafe9c26560af980546001600160a01b03848116600081815260408082208054949095166001600160a01b0319948516179094556001905283549091168117909255519081527f532492ef4d4edd78444556c1b5038901e11c232361675fe6d5e6bea2f0864e1991015b60405180910390a150565b600081815260696020526040812060048101546001600160a01b03166107225750600592915050565b60028101546003820154141561073b5750600392915050565b805460ff161561074e5750600192915050565b60018101546107605750600092915050565b80600101544210156107755750600292915050565b806001015442106107895750600492915050565b60405162461bcd60e51b815260206004820152601960248201527f756e6b6e6f776e2070726f706f73616c2069642073746174650000000000000060448201526064016104f3565b604080517f47e79534a245952e8b16893a336b85a3d9ea9fa8c573f3d803afb92a7946921860208201524691810182905230606080830191909152919060009060800160408051601f1981840301815290829052805160209182012088518983012090935060009261086d927f72e9670a7ee00f5fbf1049b8c38e3f22fab7e9b85029e85cf9412f17fdd5c2ad928d928d928c918c91016126fc565b60408051808303601f19018152908290528051602091820120601960f81b91830191909152600160f81b60218301526022820184905260428201819052915060620160405160208183030381529060405293505050505b95945050505050565b336000908152606a60205260409020546001600160a01b03166109325760405162461bcd60e51b815260206004820152601760248201527f5374726174656779206e6f7420617574686f72697a656400000000000000000060448201526064016104f3565b600061093d836106f9565b600581111561094e5761094e612902565b146109b35760405162461bcd60e51b815260206004820152602f60248201527f63616e6e6f7420726563656976652073747261746567792c2070726f706f736160448201526e6c206973206e6f742061637469766560881b60648201526084016104f3565b6000828152606960205260409020600401546001600160a01b03163314610a425760405162461bcd60e51b815260206004820152603860248201527f63616e6e6f7420726563656976652073747261746567792c20696e636f72726560448201527f637420737472617465677920666f722070726f706f73616c000000000000000060648201526084016104f3565b610a4c81426128a2565b60008381526069602052604090819020600101829055517fddd1068f5a3093178d520e5e3668df545971ab7813fdc20476f674ae69972b9b91610a9a91859190918252602082015260400190565b60405180910390a15050565b6033546001600160a01b03163314610ad05760405162461bcd60e51b81526004016104f3906127b9565b6001600160a01b03811615801590610af257506001600160a01b038116600114155b610b315760405162461bcd60e51b815260206004820152601060248201526f496e76616c696420737472617465677960801b60448201526064016104f3565b6001600160a01b038281166000908152606a6020526040902054811690821614610b9d5760405162461bcd60e51b815260206004820152601960248201527f537472617465677920616c72656164792064697361626c65640000000000000060448201526064016104f3565b6001600160a01b038181166000818152606a60209081526040808320805488871685528285208054919097166001600160a01b03199182161790965592849052825490941690915591519081527fc31c3a4f175b634ee48f8db1a8cc8c16f594ea7511e6552684b87a1481f63b6f9101610a9a565b600082815260696020526040812060020154610c705760405162461bcd60e51b815260206004820152601e60248201527f6e6f20657865637574696f6e7320696e20746869732070726f706f73616c000060448201526064016104f3565b50600091825260696020526040909120600301541190565b6004610c93866106f9565b6005811115610ca457610ca4612902565b14610cfc5760405162461bcd60e51b815260206004820152602260248201527f70726f706f73616c206973206e6f7420696e20657865637574696f6e20737461604482015261746560f01b60648201526084016104f3565b6000610d0a8585858561054e565b600087815260696020526040902060038101546002909101805492935083929091908110610d3a57610d3a612918565b906000526020600020015414610da75760405162461bcd60e51b815260206004820152602c60248201527f7472616e73616374696f6e206861736820646f6573206e6f74206d617463682060448201526b0d2dcc8caf0cac840d0c2e6d60a31b60648201526084016104f3565b6000868152606960205260408120600301805491610dc4836128d1565b9190505550610dd585858585611969565b610e215760405162461bcd60e51b815260206004820152601960248201527f4d6f64756c65207472616e73616374696f6e206661696c65640000000000000060448201526064016104f3565b60408051878152602081018390527f94af79ab7dddd04777ef61b705862c47297c6a52c6643535059d88ff1af54df7910160405180910390a1505050505050565b6000828152606960205260408120600201805483908110610e8557610e85612918565b9060005260206000200154905092915050565b6033546001600160a01b03163314610ec25760405162461bcd60e51b81526004016104f3906127b9565b610ecc6000611b19565b565b6033546001600160a01b03163314610ef85760405162461bcd60e51b81526004016104f3906127b9565b606780546001600160a01b038381166001600160a01b0319831681179093556040519116919082907f90cc2f570a6eb594b1580ea3e41247d2d73a55281889e86bd4ec2fc29c7e62d690600090a35050565b600054610100900460ff1680610f63575060005460ff16155b610f7f5760405162461bcd60e51b81526004016104f39061276b565b600054610100900460ff16158015610fa1576000805461ffff19166101011790555b60008060008085806020019051810190610fbb9190612037565b9350935093509350610fcb611b6b565b606680546001600160a01b038086166001600160a01b031992831617909255606780549285169290911691909117905561100481611be6565b61100d846116b2565b6040516001600160a01b038381168252808516919086169033907ffb449138a79e741e04958f3e25fcf032b7c7080142fe9d7b9dc8e1935c8905e79060200160405180910390a450505050801561106a576000805461ff00191690555b5050565b83516110d15760405162461bcd60e51b815260206004820152602c60248201527f6e6f207472616e73616374696f6e7320746f206578656375746520737570706c60448201526b0d2cac840e8de40c4c2e8c6d60a31b60648201526084016104f3565b825184511480156110e3575081518451145b80156110f0575080518451145b61113c5760405162461bcd60e51b815260206004820152601e60248201527f657865637574696f6e20706172616d6574657273206d6973736d61746368000060448201526064016104f3565b6000858152606960205260409020600281015485516003909201549091611162916128a2565b11156111c45760405162461bcd60e51b815260206004820152602b60248201527f617474656d7074696e6720746f206578656375746520746f6f206d616e79207460448201526a72616e73616374696f6e7360a81b60648201526084016104f3565b60005b845181101561125357611241868683815181106111e6576111e6612918565b602002602001015186848151811061120057611200612918565b602002602001015186858151811061121a5761121a612918565b602002602001015186868151811061123457611234612918565b6020026020010151610c88565b8061124b816128d1565b9150506111c7565b5060008581526069602052604090206003015484517ff87dcceadfc09a0716e4b6e12b449f55c80930f97d97f0e45ddec6105c236d13919061129590826128a2565b6040805192835260208301919091520160405180910390a15050505050565b60606000826001600160401b038111156112d0576112d061292e565b6040519080825280602002602001820160405280156112f9578160200160208202803683370190505b506001600160a01b038086166000908152606a602052604081205492945091165b6001600160a01b0381161580159061133c57506001600160a01b038116600114155b801561134757508482105b1561139f578084838151811061135f5761135f612918565b6001600160a01b039283166020918202929092018101919091529181166000908152606a9092526040909120541681611397816128d1565b92505061131a565b908352919491935090915050565b6033546001600160a01b031633146113d75760405162461bcd60e51b81526004016104f3906127b9565b60005b815181101561106a576000606960008484815181106113fb576113fb612918565b60200260200101518152602001908152602001600020905080600201805490508160030154106114615760405162461bcd60e51b81526020600482015260116024820152701b9bdd1a1a5b99c81d1bc818d85b98d95b607a1b60448201526064016104f3565b805460ff16156114b35760405162461bcd60e51b815260206004820152601c60248201527f70726f706f73616c20697320616c72656164792063616e63656c65640000000060448201526064016104f3565b805460ff1916600117815582517f789cf55be980739dad1d0699b93b58e806b51c9d96619bfa8fe0a28abaa7b30c908490849081106114f4576114f4612918565b602002602001015160405161150b91815260200190565b60405180910390a1508061151e816128d1565b9150506113da565b6033546001600160a01b031633146115505760405162461bcd60e51b81526004016104f3906127b9565b6001600160a01b03811615611629576040516301ffc9a760e01b815263736bd41d60e11b60048201526001600160a01b038216906301ffc9a79060240160206040518083038186803b1580156115a557600080fd5b505afa1580156115b9573d6000803e3d6000fd5b505050506040513d601f19601f820116820180604052508101906115dd9190612358565b6116295760405162461bcd60e51b815260206004820181905260248201527f477561726420646f6573206e6f7420696d706c656d656e74204945524331363560448201526064016104f3565b606580546001600160a01b0319166001600160a01b0383169081179091556040519081527f1151116914515bc0891ff9047a6cb32cf902546f83066499bcf8ba33d2353fa2906020016106ee565b600060016001600160a01b038316148015906116ac57506001600160a01b038281166000908152606a60205260409020541615155b92915050565b6033546001600160a01b031633146116dc5760405162461bcd60e51b81526004016104f3906127b9565b6001600160a01b0381166117415760405162461bcd60e51b815260206004820152602660248201527f4f776e61626c653a206e6577206f776e657220697320746865207a65726f206160448201526564647265737360d01b60648201526084016104f3565b61174a81611b19565b50565b61175682611677565b6117b65760405162461bcd60e51b815260206004820152602b60248201527f766f74696e67207374726174656779206973206e6f7420656e61626c6564206660448201526a1bdc881c1c9bdc1bdcd85b60aa1b60648201526084016104f3565b60008351116118125760405162461bcd60e51b815260206004820152602260248201527f70726f706f73616c206d75737420636f6e7461696e207472616e73616374696f6044820152616e7360f01b60648201526084016104f3565b6068546000908152606960209081526040909120845161183a92600290920191860190611dbb565b5060688054600090815260696020526040812060040180546001600160a01b0319166001600160a01b03861617905581549190611876836128d1565b9190505550816001600160a01b031663224f3263600160685461189991906128ba565b85846040516020016118ad939291906127ee565b6040516020818303038152906040526040518263ffffffff1660e01b81526004016118d8919061273e565b600060405180830381600087803b1580156118f257600080fd5b505af1158015611906573d6000803e3d6000fd5b505050507fe669ca381c47a2c25df06ebbe580c111183f1e92460fd3ab51050d2306b3402782600160685461193b91906128ba565b604080516001600160a01b0390931683526020830191909152339082015260600160405180910390a1505050565b6065546000906001600160a01b031615611a0b576065546040805180820182526002815261060f60f31b60208201529051633af85da960e11b81526001600160a01b03909216916375f0bb52916119d89189918991899189916000918291829182918291908290600401612610565b600060405180830381600087803b1580156119f257600080fd5b505af1158015611a06573d6000803e3d6000fd5b505050505b60675460405163468721a760e01b81526001600160a01b039091169063468721a790611a419088908890889088906004016125da565b602060405180830381600087803b158015611a5b57600080fd5b505af1158015611a6f573d6000803e3d6000fd5b505050506040513d601f19601f82011682018060405250810190611a939190612358565b6065549091506001600160a01b03161561056857606554604051631264e26d60e31b815261060f60f31b600482015282151560248201526001600160a01b0390911690639327136890604401600060405180830381600087803b158015611af957600080fd5b505af1158015611b0d573d6000803e3d6000fd5b50505050949350505050565b603380546001600160a01b038381166001600160a01b0319831681179093556040519116919082907f8be0079c531659141344cd1fd0a4f28419497f9722a3daafe3b4186f6b6457e090600090a35050565b600054610100900460ff1680611b84575060005460ff16155b611ba05760405162461bcd60e51b81526004016104f39061276b565b600054610100900460ff16158015611bc2576000805461ffff19166101011790555b611bca611cf1565b611bd2611d5b565b801561174a576000805461ff001916905550565b6001600052606a6020527ff585789965ba69220d5ce3dc1b444eb22ff546f2650694fef8fafe9c26560af9546001600160a01b031615611c745760405162461bcd60e51b8152602060048201526024808201527f73657455704d6f64756c65732068617320616c7265616479206265656e2063616044820152631b1b195960e21b60648201526084016104f3565b60016000818152606a6020527ff585789965ba69220d5ce3dc1b444eb22ff546f2650694fef8fafe9c26560af980546001600160a01b0319169092179091555b815181101561106a57611cdf828281518110611cd257611cd2612918565b6020026020010151610570565b80611ce9816128d1565b915050611cb4565b600054610100900460ff1680611d0a575060005460ff16155b611d265760405162461bcd60e51b81526004016104f39061276b565b600054610100900460ff16158015611bd2576000805461ffff1916610101179055801561174a576000805461ff001916905550565b600054610100900460ff1680611d74575060005460ff16155b611d905760405162461bcd60e51b81526004016104f39061276b565b600054610100900460ff16158015611db2576000805461ffff19166101011790555b611bd233611b19565b828054828255906000526020600020908101928215611df6579160200282015b82811115611df6578251825591602001919060010190611ddb565b50611e02929150611e06565b5090565b5b80821115611e025760008155600101611e07565b8035611e2681612944565b919050565b600082601f830112611e3c57600080fd5b81356020611e51611e4c8361287f565b61284f565b80838252828201915082860187848660051b8901011115611e7157600080fd5b6000805b86811015611eb35782356001600160401b03811115611e92578283fd5b611ea08b88838d0101611f95565b8652509385019391850191600101611e75565b509198975050505050505050565b600082601f830112611ed257600080fd5b81356020611ee2611e4c8361287f565b80838252828201915082860187848660051b8901011115611f0257600080fd5b60005b85811015611f2857611f1682612004565b84529284019290840190600101611f05565b5090979650505050505050565b600082601f830112611f4657600080fd5b81356020611f56611e4c8361287f565b80838252828201915082860187848660051b8901011115611f7657600080fd5b60005b85811015611f2857813584529284019290840190600101611f79565b600082601f830112611fa657600080fd5b81356001600160401b03811115611fbf57611fbf61292e565b611fd2601f8201601f191660200161284f565b818152846020838601011115611fe757600080fd5b816020850160208301376000918101602001919091529392505050565b803560028110611e2657600080fd5b60006020828403121561202557600080fd5b813561203081612944565b9392505050565b6000806000806080858703121561204d57600080fd5b845161205881612944565b8094505060208086015161206b81612944565b604087015190945061207c81612944565b60608701519093506001600160401b0381111561209857600080fd5b8601601f810188136120a957600080fd5b80516120b7611e4c8261287f565b8082825284820191508484018b868560051b87010111156120d757600080fd5b600094505b838510156121035780516120ef81612944565b8352600194909401939185019185016120dc565b50979a9699509497505050505050565b6000806040838503121561212657600080fd5b823561213181612944565b9150602083013561214181612944565b809150509250929050565b6000806040838503121561215f57600080fd5b823561216a81612944565b946020939093013593505050565b6000806000806080858703121561218e57600080fd5b843561219981612944565b93506020850135925060408501356001600160401b038111156121bb57600080fd5b6121c787828801611f95565b9250506121d660608601612004565b905092959194509250565b600080600080600060a086880312156121f957600080fd5b853561220481612944565b94506020860135935060408601356001600160401b0381111561222657600080fd5b61223288828901611f95565b93505061224160608701612004565b949793965091946080013592915050565b60008060006060848603121561226757600080fd5b83356001600160401b038082111561227e57600080fd5b818601915086601f83011261229257600080fd5b813560206122a2611e4c8361287f565b8083825282820191508286018b848660051b89010111156122c257600080fd5b600096505b848710156122e55780358352600196909601959183019183016122c7565b5097506122f59050888201611e1b565b95505050604086013591508082111561230d57600080fd5b5061231a86828701611f95565b9150509250925092565b60006020828403121561233657600080fd5b81356001600160401b0381111561234c57600080fd5b61056884828501611f35565b60006020828403121561236a57600080fd5b8151801515811461203057600080fd5b60006020828403121561238c57600080fd5b81356001600160401b038111156123a257600080fd5b61056884828501611f95565b6000602082840312156123c057600080fd5b5035919050565b600080600080600060a086880312156123df57600080fd5b8535945060208601356123f181612944565b93506040860135925060608601356001600160401b0381111561241357600080fd5b61241f88828901611f95565b92505061242e60808701612004565b90509295509295909350565b600080600080600060a0868803121561245257600080fd5b853594506020808701356001600160401b038082111561247157600080fd5b818901915089601f83011261248557600080fd5b8135612493611e4c8261287f565b8082825285820191508585018d878560051b88010111156124b357600080fd5b600095505b838610156124df5780356124cb81612944565b8352600195909501949186019186016124b8565b509850505060408901359250808311156124f857600080fd5b6125048a848b01611f35565b9550606089013592508083111561251a57600080fd5b6125268a848b01611e2b565b9450608089013592508083111561253c57600080fd5b505061254a88828901611ec1565b9150509295509295909350565b6000806040838503121561256a57600080fd5b50508035926020909101359150565b6000815180845260005b8181101561259f57602081850181015186830182015201612583565b818111156125b1576000602083870101525b50601f01601f19169290920160200192915050565b600281106125d6576125d6612902565b9052565b60018060a01b03851681528360208201526080604082015260006126016080830185612579565b90506108c460608301846125c6565b6001600160a01b038c81168252602082018c90526101606040830181905260009161263d8483018e612579565b915061264c606085018d6125c6565b8a60808501528960a08501528860c085015280881660e08501528087166101008501528382036101208501526126828287612579565b925080851661014085015250509c9b505050505050505050505050565b604080825283519082018190526000906020906060840190828701845b828110156126e15781516001600160a01b0316845292840192908401906001016126bc565b5050506001600160a01b039490941692019190915250919050565b8681526001600160a01b0386166020820152604081018590526060810184905260c0810161272d60808301856125c6565b8260a0830152979650505050505050565b6020815260006120306020830184612579565b602081016006831061276557612765612902565b91905290565b6020808252602e908201527f496e697469616c697a61626c653a20636f6e747261637420697320616c72656160408201526d191e481a5b9a5d1a585b1a5e995960921b606082015260800190565b6020808252818101527f4f776e61626c653a2063616c6c6572206973206e6f7420746865206f776e6572604082015260600190565b6000606082018583526020606081850152818651808452608086019150828801935060005b8181101561282f57845183529383019391830191600101612813565b505084810360408601526128438187612579565b98975050505050505050565b604051601f8201601f191681016001600160401b03811182821017156128775761287761292e565b604052919050565b60006001600160401b038211156128985761289861292e565b5060051b60200190565b600082198211156128b5576128b56128ec565b500190565b6000828210156128cc576128cc6128ec565b500390565b60006000198214156128e5576128e56128ec565b5060010190565b634e487b7160e01b600052601160045260246000fd5b634e487b7160e01b600052602160045260246000fd5b634e487b7160e01b600052603260045260246000fd5b634e487b7160e01b600052604160045260246000fd5b6001600160a01b038116811461174a57600080fdfea2646970667358221220dd7e29ec86437993a17a8b9b5c865f3f79bd6239c74163dd8c77b0302df279cc64736f6c63430008060033496e697469616c697a61626c653a20636f6e747261637420697320616c7265614f776e61626c653a2063616c6c6572206973206e6f7420746865206f776e6572f585789965ba69220d5ce3dc1b444eb22ff546f2650694fef8fafe9c26560af9",
  "linkReferences": {},
  "deployedLinkReferences": {}
}