{
  "_format": "hh-sol-artifact-1",
  "contractName": "Seele",
  "sourceName": "contracts/Seele.sol",
  "abi": [
    {
      "inputs": [
        {
          "internalType": "address",
          "name": "_owner",
          "type": "address"
        },
        {
          "internalType": "address",
          "name": "_avatar",
          "type": "address"
        },
        {
          "internalType": "address",
          "name": "_target",
          "type": "address"
        },
        {
          "internalType": "address[]",
          "name": "_strategies",
          "type": "address[]"
        }
      ],
      "stateMutability": "nonpayable",
      "type": "constructor"
    },
    {
      "anonymous": false,
      "inputs": [
        {
          "indexed": true,
          "internalType": "address",
          "name": "previousAvatar",
          "type": "address"
        },
        {
          "indexed": true,
          "internalType": "address",
          "name": "newAvatar",
          "type": "address"
        }
      ],
      "name": "AvatarSet",
      "type": "event"
    },
    {
      "anonymous": false,
      "inputs": [
        {
          "indexed": false,
          "internalType": "address",
          "name": "guard",
          "type": "address"
        }
      ],
      "name": "ChangedGuard",
      "type": "event"
    },
    {
      "anonymous": false,
      "inputs": [
        {
          "indexed": false,
          "internalType": "address",
          "name": "strategy",
          "type": "address"
        }
      ],
      "name": "DisabledStrategy",
      "type": "event"
    },
    {
      "anonymous": false,
      "inputs": [
        {
          "indexed": false,
          "internalType": "address",
          "name": "strategy",
          "type": "address"
        }
      ],
      "name": "EnabledStrategy",
      "type": "event"
    },
    {
      "anonymous": false,
      "inputs": [
        {
          "indexed": true,
          "internalType": "address",
          "name": "previousOwner",
          "type": "address"
        },
        {
          "indexed": true,
          "internalType": "address",
          "name": "newOwner",
          "type": "address"
        }
      ],
      "name": "OwnershipTransferred",
      "type": "event"
    },
    {
      "anonymous": false,
      "inputs": [
        {
          "indexed": false,
          "internalType": "uint256",
          "name": "proposalId",
          "type": "uint256"
        }
      ],
      "name": "ProposalCanceled",
      "type": "event"
    },
    {
      "anonymous": false,
      "inputs": [
        {
          "indexed": false,
          "internalType": "address",
          "name": "strategy",
          "type": "address"
        },
        {
          "indexed": false,
          "internalType": "uint256",
          "name": "proposalNumber",
          "type": "uint256"
        }
      ],
      "name": "ProposalCreated",
      "type": "event"
    },
    {
      "anonymous": false,
      "inputs": [
        {
          "indexed": false,
          "internalType": "uint256",
          "name": "id",
          "type": "uint256"
        }
      ],
      "name": "ProposalExecuted",
      "type": "event"
    },
    {
      "anonymous": false,
      "inputs": [
        {
          "indexed": true,
          "internalType": "address",
          "name": "initiator",
          "type": "address"
        },
        {
          "indexed": true,
          "internalType": "address",
          "name": "owner",
          "type": "address"
        },
        {
          "indexed": true,
          "internalType": "address",
          "name": "avatar",
          "type": "address"
        },
        {
          "indexed": false,
          "internalType": "address",
          "name": "target",
          "type": "address"
        }
      ],
      "name": "SeeleSetup",
      "type": "event"
    },
    {
      "anonymous": false,
      "inputs": [
        {
          "indexed": false,
          "internalType": "uint256",
          "name": "proposalId",
          "type": "uint256"
        },
        {
          "indexed": false,
          "internalType": "uint256",
          "name": "endDate",
          "type": "uint256"
        }
      ],
      "name": "StrategyFinalized",
      "type": "event"
    },
    {
      "anonymous": false,
      "inputs": [
        {
          "indexed": true,
          "internalType": "address",
          "name": "previousTarget",
          "type": "address"
        },
        {
          "indexed": true,
          "internalType": "address",
          "name": "newTarget",
          "type": "address"
        }
      ],
      "name": "TargetSet",
      "type": "event"
    },
    {
      "anonymous": false,
      "inputs": [
        {
          "indexed": false,
          "internalType": "bytes32",
          "name": "txHash",
          "type": "bytes32"
        }
      ],
      "name": "TransactionExecuted",
      "type": "event"
    },
    {
      "anonymous": false,
      "inputs": [
        {
          "indexed": false,
          "internalType": "uint256",
          "name": "startIndex",
          "type": "uint256"
        },
        {
          "indexed": false,
          "internalType": "uint256",
          "name": "endIndex",
          "type": "uint256"
        }
      ],
      "name": "TransactionExecutedBatch",
      "type": "event"
    },
    {
      "inputs": [],
      "name": "DOMAIN_SEPARATOR_TYPEHASH",
      "outputs": [
        {
          "internalType": "bytes32",
          "name": "",
          "type": "bytes32"
        }
      ],
      "stateMutability": "view",
      "type": "function"
    },
    {
      "inputs": [],
      "name": "TRANSACTION_TYPEHASH",
      "outputs": [
        {
          "internalType": "bytes32",
          "name": "",
          "type": "bytes32"
        }
      ],
      "stateMutability": "view",
      "type": "function"
    },
    {
      "inputs": [],
      "name": "avatar",
      "outputs": [
        {
          "internalType": "address",
          "name": "",
          "type": "address"
        }
      ],
      "stateMutability": "view",
      "type": "function"
    },
    {
      "inputs": [
        {
          "internalType": "uint256",
          "name": "proposalId",
          "type": "uint256"
        }
      ],
      "name": "cancelProposal",
      "outputs": [],
      "stateMutability": "nonpayable",
      "type": "function"
    },
    {
      "inputs": [
        {
          "internalType": "address",
          "name": "prevStrategy",
          "type": "address"
        },
        {
          "internalType": "address",
          "name": "strategy",
          "type": "address"
        }
      ],
      "name": "disableStrategy",
      "outputs": [],
      "stateMutability": "nonpayable",
      "type": "function"
    },
    {
      "inputs": [
        {
          "internalType": "address",
          "name": "strategy",
          "type": "address"
        }
      ],
      "name": "enableStrategy",
      "outputs": [],
      "stateMutability": "nonpayable",
      "type": "function"
    },
    {
      "inputs": [
        {
          "internalType": "uint256",
          "name": "proposalId",
          "type": "uint256"
        },
        {
          "internalType": "address[]",
          "name": "targets",
          "type": "address[]"
        },
        {
          "internalType": "uint256[]",
          "name": "values",
          "type": "uint256[]"
        },
        {
          "internalType": "bytes[]",
          "name": "data",
          "type": "bytes[]"
        },
        {
          "internalType": "enum Enum.Operation[]",
          "name": "operations",
          "type": "uint8[]"
        },
        {
          "internalType": "uint256",
          "name": "startIndex",
          "type": "uint256"
        },
        {
          "internalType": "uint256",
          "name": "txCount",
          "type": "uint256"
        }
      ],
      "name": "executeProposalBatch",
      "outputs": [],
      "stateMutability": "nonpayable",
      "type": "function"
    },
    {
      "inputs": [
        {
          "internalType": "uint256",
          "name": "proposalId",
          "type": "uint256"
        },
        {
          "internalType": "address",
          "name": "target",
          "type": "address"
        },
        {
          "internalType": "uint256",
          "name": "value",
          "type": "uint256"
        },
        {
          "internalType": "bytes",
          "name": "data",
          "type": "bytes"
        },
        {
          "internalType": "enum Enum.Operation",
          "name": "operation",
          "type": "uint8"
        },
        {
          "internalType": "uint256",
          "name": "txIndex",
          "type": "uint256"
        }
      ],
      "name": "executeProposalByIndex",
      "outputs": [],
      "stateMutability": "nonpayable",
      "type": "function"
    },
    {
      "inputs": [
        {
          "internalType": "address",
          "name": "to",
          "type": "address"
        },
        {
          "internalType": "uint256",
          "name": "value",
          "type": "uint256"
        },
        {
          "internalType": "bytes",
          "name": "data",
          "type": "bytes"
        },
        {
          "internalType": "enum Enum.Operation",
          "name": "operation",
          "type": "uint8"
        },
        {
          "internalType": "uint256",
          "name": "nonce",
          "type": "uint256"
        }
      ],
      "name": "generateTransactionHashData",
      "outputs": [
        {
          "internalType": "bytes",
          "name": "",
          "type": "bytes"
        }
      ],
      "stateMutability": "view",
      "type": "function"
    },
    {
      "inputs": [],
      "name": "getChainId",
      "outputs": [
        {
          "internalType": "uint256",
          "name": "",
          "type": "uint256"
        }
      ],
      "stateMutability": "view",
      "type": "function"
    },
    {
      "inputs": [],
      "name": "getGuard",
      "outputs": [
        {
          "internalType": "address",
          "name": "_guard",
          "type": "address"
        }
      ],
      "stateMutability": "view",
      "type": "function"
    },
    {
      "inputs": [
        {
          "internalType": "address",
          "name": "start",
          "type": "address"
        },
        {
          "internalType": "uint256",
          "name": "pageSize",
          "type": "uint256"
        }
      ],
      "name": "getStrategiesPaginated",
      "outputs": [
        {
          "internalType": "address[]",
          "name": "array",
          "type": "address[]"
        },
        {
          "internalType": "address",
          "name": "next",
          "type": "address"
        }
      ],
      "stateMutability": "view",
      "type": "function"
    },
    {
      "inputs": [
        {
          "internalType": "address",
          "name": "to",
          "type": "address"
        },
        {
          "internalType": "uint256",
          "name": "value",
          "type": "uint256"
        },
        {
          "internalType": "bytes",
          "name": "data",
          "type": "bytes"
        },
        {
          "internalType": "enum Enum.Operation",
          "name": "operation",
          "type": "uint8"
        },
        {
          "internalType": "uint256",
          "name": "nonce",
          "type": "uint256"
        }
      ],
      "name": "getTransactionHash",
      "outputs": [
        {
          "internalType": "bytes32",
          "name": "",
          "type": "bytes32"
        }
      ],
      "stateMutability": "view",
      "type": "function"
    },
    {
      "inputs": [
        {
          "internalType": "uint256",
          "name": "proposalId",
          "type": "uint256"
        },
        {
          "internalType": "uint256",
          "name": "index",
          "type": "uint256"
        }
      ],
      "name": "getTxHash",
      "outputs": [
        {
          "internalType": "bytes32",
          "name": "",
          "type": "bytes32"
        }
      ],
      "stateMutability": "view",
      "type": "function"
    },
    {
      "inputs": [],
      "name": "guard",
      "outputs": [
        {
          "internalType": "address",
          "name": "",
          "type": "address"
        }
      ],
      "stateMutability": "view",
      "type": "function"
    },
    {
      "inputs": [
        {
          "internalType": "address",
          "name": "_strategy",
          "type": "address"
        }
      ],
      "name": "isStrategyEnabled",
      "outputs": [
        {
          "internalType": "bool",
          "name": "",
          "type": "bool"
        }
      ],
      "stateMutability": "view",
      "type": "function"
    },
    {
      "inputs": [
        {
          "internalType": "uint256",
          "name": "proposalId",
          "type": "uint256"
        },
        {
          "internalType": "uint256",
          "name": "index",
          "type": "uint256"
        }
      ],
      "name": "isTxExecuted",
      "outputs": [
        {
          "internalType": "bool",
          "name": "",
          "type": "bool"
        }
      ],
      "stateMutability": "view",
      "type": "function"
    },
    {
      "inputs": [],
      "name": "owner",
      "outputs": [
        {
          "internalType": "address",
          "name": "",
          "type": "address"
        }
      ],
      "stateMutability": "view",
      "type": "function"
    },
    {
      "inputs": [
        {
          "internalType": "uint256",
          "name": "",
          "type": "uint256"
        }
      ],
      "name": "proposals",
      "outputs": [
        {
          "internalType": "address",
          "name": "proposer",
          "type": "address"
        },
        {
          "internalType": "bool",
          "name": "canceled",
          "type": "bool"
        },
        {
          "internalType": "bool",
          "name": "successful",
          "type": "bool"
        },
        {
          "internalType": "uint256",
          "name": "timeLockPeriod",
          "type": "uint256"
        },
        {
          "internalType": "uint256",
          "name": "executionCounter",
          "type": "uint256"
        },
        {
          "internalType": "address",
          "name": "votingStrategy",
          "type": "address"
        }
      ],
      "stateMutability": "view",
      "type": "function"
    },
    {
      "inputs": [
        {
          "internalType": "uint256",
          "name": "proposalId",
          "type": "uint256"
        },
        {
          "internalType": "uint256",
          "name": "timeLockPeriod",
          "type": "uint256"
        }
      ],
      "name": "receiveStrategy",
      "outputs": [],
      "stateMutability": "nonpayable",
      "type": "function"
    },
    {
      "inputs": [],
      "name": "renounceOwnership",
      "outputs": [],
      "stateMutability": "nonpayable",
      "type": "function"
    },
    {
      "inputs": [
        {
          "internalType": "address",
          "name": "_avatar",
          "type": "address"
        }
      ],
      "name": "setAvatar",
      "outputs": [],
      "stateMutability": "nonpayable",
      "type": "function"
    },
    {
      "inputs": [
        {
          "internalType": "address",
          "name": "_guard",
          "type": "address"
        }
      ],
      "name": "setGuard",
      "outputs": [],
      "stateMutability": "nonpayable",
      "type": "function"
    },
    {
      "inputs": [
        {
          "internalType": "address",
          "name": "_target",
          "type": "address"
        }
      ],
      "name": "setTarget",
      "outputs": [],
      "stateMutability": "nonpayable",
      "type": "function"
    },
    {
      "inputs": [
        {
          "internalType": "bytes",
          "name": "initParams",
          "type": "bytes"
        }
      ],
      "name": "setUp",
      "outputs": [],
      "stateMutability": "nonpayable",
      "type": "function"
    },
    {
      "inputs": [
        {
          "internalType": "uint256",
          "name": "proposalId",
          "type": "uint256"
        }
      ],
      "name": "state",
      "outputs": [
        {
          "internalType": "enum Seele.ProposalState",
          "name": "",
          "type": "uint8"
        }
      ],
      "stateMutability": "view",
      "type": "function"
    },
    {
      "inputs": [
        {
          "internalType": "bytes32[]",
          "name": "txHashes",
          "type": "bytes32[]"
        },
        {
          "internalType": "address",
          "name": "votingStrategy",
          "type": "address"
        },
        {
          "internalType": "bytes",
          "name": "data",
          "type": "bytes"
        }
      ],
      "name": "submitProposal",
      "outputs": [],
      "stateMutability": "nonpayable",
      "type": "function"
    },
    {
      "inputs": [],
      "name": "target",
      "outputs": [
        {
          "internalType": "address",
          "name": "",
          "type": "address"
        }
      ],
      "stateMutability": "view",
      "type": "function"
    },
    {
      "inputs": [],
      "name": "totalProposalCount",
      "outputs": [
        {
          "internalType": "uint256",
          "name": "",
          "type": "uint256"
        }
      ],
      "stateMutability": "view",
      "type": "function"
    },
    {
      "inputs": [
        {
          "internalType": "address",
          "name": "newOwner",
          "type": "address"
        }
      ],
      "name": "transferOwnership",
      "outputs": [],
      "stateMutability": "nonpayable",
      "type": "function"
    }
  ],
  "bytecode": "0x60806040523480156200001157600080fd5b50604051620034ef380380620034ef83398101604081905262000034916200085e565b6000848484846040516020016200004f9493929190620008df565b60408051601f1981840301815291905290506200006c8162000077565b5050505050620009b9565b600080600080848060200190518101906200009391906200085e565b9350935093509350620000ab620001f360201b60201c565b6001600160a01b038316620001075760405162461bcd60e51b815260206004820152601e60248201527f4176617461722063616e206e6f74206265207a65726f2061646472657373000060448201526064015b60405180910390fd5b6001600160a01b0382166200015f5760405162461bcd60e51b815260206004820152601e60248201527f5461726765742063616e206e6f74206265207a65726f206164647265737300006044820152606401620000fe565b606680546001600160a01b038086166001600160a01b03199283161790925560678054928516929091169190911790556200019a81620002ae565b620001a584620003ac565b6040516001600160a01b038381168252808516919086169033907fa174ee90c8bc494df81c9ff9323bac8198fc66c0cd4f0ee2f09c79be3d9b869d9060200160405180910390a45050505050565b600054610100900460ff16806200020d575060005460ff16155b620002615760405162461bcd60e51b815260206004820152602e60248201526000805160206200348f83398151915260448201526d191e481a5b9a5d1a585b1a5e995960921b6064820152608401620000fe565b600054610100900460ff1615801562000284576000805461ffff19166101011790555b6200028e62000469565b620002986200050e565b8015620002ab576000805461ff00191690555b50565b6001600052606a602052600080516020620034cf833981519152546001600160a01b0316156200032d5760405162461bcd60e51b8152602060048201526024808201527f73657455704d6f64756c65732068617320616c7265616479206265656e2063616044820152631b1b195960e21b6064820152608401620000fe565b60016000818152606a602052600080516020620034cf83398151915280546001600160a01b0319169092179091555b8151811015620003a857620003938282815181106200037f576200037f62000977565b6020026020010151620005aa60201b60201c565b806200039f816200094d565b9150506200035c565b5050565b6033546001600160a01b03163314620003f75760405162461bcd60e51b81526020600482018190526024820152600080516020620034af8339815191526044820152606401620000fe565b6001600160a01b0381166200045e5760405162461bcd60e51b815260206004820152602660248201527f4f776e61626c653a206e6577206f776e657220697320746865207a65726f206160448201526564647265737360d01b6064820152608401620000fe565b620002ab8162000747565b600054610100900460ff168062000483575060005460ff16155b620004d75760405162461bcd60e51b815260206004820152602e60248201526000805160206200348f83398151915260448201526d191e481a5b9a5d1a585b1a5e995960921b6064820152608401620000fe565b600054610100900460ff1615801562000298576000805461ffff19166101011790558015620002ab576000805461ff001916905550565b600054610100900460ff168062000528575060005460ff16155b6200057c5760405162461bcd60e51b815260206004820152602e60248201526000805160206200348f83398151915260448201526d191e481a5b9a5d1a585b1a5e995960921b6064820152608401620000fe565b600054610100900460ff161580156200059f576000805461ffff19166101011790555b620002983362000747565b6033546001600160a01b03163314620005f55760405162461bcd60e51b81526020600482018190526024820152600080516020620034af8339815191526044820152606401620000fe565b6001600160a01b038116158015906200061857506001600160a01b038116600114155b620006595760405162461bcd60e51b815260206004820152601060248201526f496e76616c696420737472617465677960801b6044820152606401620000fe565b6001600160a01b038181166000908152606a60205260409020541615620006c35760405162461bcd60e51b815260206004820152601860248201527f537472617465677920616c726561647920656e61626c656400000000000000006044820152606401620000fe565b606a6020908152600080516020620034cf83398151915280546001600160a01b03848116600081815260408082208054949095166001600160a01b0319948516179094556001905283549091168117909255519081527f532492ef4d4edd78444556c1b5038901e11c232361675fe6d5e6bea2f0864e19910160405180910390a150565b603380546001600160a01b038381166001600160a01b0319831681179093556040519116919082907f8be0079c531659141344cd1fd0a4f28419497f9722a3daafe3b4186f6b6457e090600090a35050565b8051620007a681620009a3565b919050565b600082601f830112620007bd57600080fd5b815160206001600160401b0380831115620007dc57620007dc6200098d565b8260051b604051601f19603f830116810181811084821117156200080457620008046200098d565b604052848152838101925086840182880185018910156200082457600080fd5b600092505b8583101562000852576200083d8162000799565b84529284019260019290920191840162000829565b50979650505050505050565b600080600080608085870312156200087557600080fd5b84516200088281620009a3565b60208601519094506200089581620009a3565b6040860151909350620008a881620009a3565b60608601519092506001600160401b03811115620008c557600080fd5b620008d387828801620007ab565b91505092959194509250565b60006080820160018060a01b03808816845260208188168186015281871660408601526080606086015282865180855260a087019150828801945060005b818110156200093d5785518516835294830194918301916001016200091d565b50909a9950505050505050505050565b60006000198214156200097057634e487b7160e01b600052601160045260246000fd5b5060010190565b634e487b7160e01b600052603260045260246000fd5b634e487b7160e01b600052604160045260246000fd5b6001600160a01b0381168114620002ab57600080fd5b612ac680620009c96000396000f3fe608060405234801561001057600080fd5b50600436106101da5760003560e01c8063715018a611610104578063c9106389116100a2578063ea49ba9711610071578063ea49ba97146104c1578063ead0eedf146104d4578063f2fde38b146104dd578063f72d9c3a146104f057600080fd5b8063c910638914610477578063d4b8399214610488578063e0a8f6f51461049b578063e19a9dd9146104ae57600080fd5b806388633b7b116100de57806388633b7b1461040b5780638da5cb5b14610432578063a4f9edbf14610443578063c01e39aa1461045657600080fd5b8063715018a6146103dd578063776d1a01146103e55780637ceab3b1146103f857600080fd5b80633e4f49e61161017c578063608244a61161014b578063608244a6146103815780636258ba20146103945780636362bcbc146103b75780636e6ebbbc146103ca57600080fd5b80633e4f49e614610303578063425a2a3c146103235780634fd61348146103435780635aef7de61461035657600080fd5b80631db61b54116101b85780631db61b54146102a25780632b500041146102d75780633408e470146102ea5780633742fcc9146102f057600080fd5b8063013cf08b146101df578063086cfca81461027a57806312e14b0b1461028f575b600080fd5b6102356101ed366004612516565b60696020526000908152604090208054600182015460048301546005909301546001600160a01b038084169460ff600160a01b8604811695600160a81b900416939290911686565b604080516001600160a01b0397881681529515156020870152931515938501939093526060840191909152608083015290911660a082015260c0015b60405180910390f35b61028d610288366004612214565b610503565b005b61028d61029d3660046125ab565b610588565b6102c97f47e79534a245952e8b16893a336b85a3d9ea9fa8c573f3d803afb92a7946921881565b604051908152602001610271565b6102c96102e536600461237a565b6107e6565b466102c9565b61028d6102fe366004612214565b610808565b610316610311366004612516565b610991565b604051610271919061286f565b61033661033136600461237a565b610a4e565b604051610271919061285c565b61028d610351366004612675565b610b4a565b606654610369906001600160a01b031681565b6040516001600160a01b039091168152602001610271565b61028d61038f366004612315565b610d1f565b6103a76103a2366004612675565b610e8b565b6040519015158152602001610271565b61028d6103c536600461252f565b610ed6565b6102c96103d8366004612675565b611237565b61028d61126d565b61028d6103f3366004612214565b6112a3565b606554610369906001600160a01b031681565b6102c97f72e9670a7ee00f5fbf1049b8c38e3f22fab7e9b85029e85cf9412f17fdd5c2ad81565b6033546001600160a01b0316610369565b61028d6104513660046124e1565b61131f565b61046961046436600461234e565b611485565b6040516102719291906127bd565b6065546001600160a01b0316610369565b606754610369906001600160a01b031681565b61028d6104a9366004612516565b61157f565b61028d6104bc366004612214565b611698565b6103a76104cf366004612214565b6117e9565b6102c960685481565b61028d6104eb366004612214565b611824565b61028d6104fe3660046123ec565b6118bf565b6033546001600160a01b031633146105365760405162461bcd60e51b815260040161052d906128d7565b60405180910390fd5b606680546001600160a01b038381166001600160a01b0319831681179093556040519116919082907f52ae88b092de36f87fb43fe794eb1381023b9c1bce563a871154022c63dce34290600090a35050565b8451865114801561059a575083518651145b6105e65760405162461bcd60e51b815260206004820152601e60248201527f657865637574696f6e20706172616d6574657273206d6973736d617463680000604482015260640161052d565b85516106495760405162461bcd60e51b815260206004820152602c60248201527f6e6f207472616e73616374696f6e7320746f206578656375746520737570706c60448201526b0d2cac840e8de40c4c2e8c6d60a31b606482015260840161052d565b81158061069e5750600087815260696020526040902060020161066d6001846129da565b8154811061067d5761067d612a4f565b90600052602060002090602091828204019190069054906101000a900460ff165b6107005760405162461bcd60e51b815260206004820152602d60248201527f7374617274696e672066726f6d20616e20696e646578206f7574206f6620617360448201526c31b2b73234b7339037b93232b960991b606482015260840161052d565b815b61070c82846129c2565b811015610797576107858888838151811061072957610729612a4f565b602002602001015188848151811061074357610743612a4f565b602002602001015188858151811061075d5761075d612a4f565b602002602001015188868151811061077757610777612a4f565b602002602001015186610ed6565b8061078f81612a08565b915050610702565b507ff87dcceadfc09a0716e4b6e12b449f55c80930f97d97f0e45ddec6105c236d13826107c483826129c2565b604080519283526020830191909152015b60405180910390a150505050505050565b60006107f58686868686610a4e565b8051906020012090505b95945050505050565b6033546001600160a01b031633146108325760405162461bcd60e51b815260040161052d906128d7565b6001600160a01b0381161580159061085457506001600160a01b038116600114155b6108935760405162461bcd60e51b815260206004820152601060248201526f496e76616c696420737472617465677960801b604482015260640161052d565b6001600160a01b038181166000908152606a602052604090205416156108fb5760405162461bcd60e51b815260206004820152601860248201527f537472617465677920616c726561647920656e61626c65640000000000000000604482015260640161052d565b606a60209081527ff585789965ba69220d5ce3dc1b444eb22ff546f2650694fef8fafe9c26560af980546001600160a01b03848116600081815260408082208054949095166001600160a01b0319948516179094556001905283549091168117909255519081527f532492ef4d4edd78444556c1b5038901e11c232361675fe6d5e6bea2f0864e1991015b60405180910390a150565b600081815260696020526040812060048101546109b15750600392915050565b8054600160a01b900460ff16156109cb5750600192915050565b60018101546109dd5750600092915050565b80600101544210156109f25750600292915050565b80600101544210610a065750600492915050565b60405162461bcd60e51b815260206004820152601960248201527f756e6b6e6f776e2070726f706f73616c20696420737461746500000000000000604482015260640161052d565b6060600046604080517f47e79534a245952e8b16893a336b85a3d9ea9fa8c573f3d803afb92a79469218602082015290810182905230606082015290915060009060800160408051601f19818403018152908290528051602091820120885189830120909350600092610aeb927f72e9670a7ee00f5fbf1049b8c38e3f22fab7e9b85029e85cf9412f17fdd5c2ad928d928d928c918c910161281a565b60408051808303601f19018152908290528051602091820120601960f81b91830191909152600160f81b602183015260228201849052604282018190529150606201604051602081830303815290604052935050505095945050505050565b336000908152606a60205260409020546001600160a01b0316610baf5760405162461bcd60e51b815260206004820152601760248201527f5374726174656779206e6f7420617574686f72697a6564000000000000000000604482015260640161052d565b6000610bba83610991565b6005811115610bcb57610bcb612a39565b14610c2e5760405162461bcd60e51b815260206004820152602d60248201527f63616e6e6f742073746172742074696d656c6f636b2c2070726f706f73616c2060448201526c6973206e6f742061637469766560981b606482015260840161052d565b6000828152606960205260409020600501546001600160a01b03163314610ca95760405162461bcd60e51b815260206004820152602960248201527f63616e6e6f742073746172742074696d656c6f636b2c20696e636f727265637460448201526820737472617465677960b81b606482015260840161052d565b610cb381426129c2565b6000838152606960205260409081902060018101839055805460ff60a81b1916600160a81b179055517fddd1068f5a3093178d520e5e3668df545971ab7813fdc20476f674ae69972b9b91610d1391859190918252602082015260400190565b60405180910390a15050565b6033546001600160a01b03163314610d495760405162461bcd60e51b815260040161052d906128d7565b6001600160a01b03811615801590610d6b57506001600160a01b038116600114155b610daa5760405162461bcd60e51b815260206004820152601060248201526f496e76616c696420737472617465677960801b604482015260640161052d565b6001600160a01b038281166000908152606a6020526040902054811690821614610e165760405162461bcd60e51b815260206004820152601960248201527f537472617465677920616c72656164792064697361626c656400000000000000604482015260640161052d565b6001600160a01b038181166000818152606a60209081526040808320805488871685528285208054919097166001600160a01b03199182161790965592849052825490941690915591519081527fc31c3a4f175b634ee48f8db1a8cc8c16f594ea7511e6552684b87a1481f63b6f9101610d13565b6000828152606960205260408120600201805483908110610eae57610eae612a4f565b90600052602060002090602091828204019190069054906101000a900460ff16905092915050565b6004610ee187610991565b6005811115610ef257610ef2612a39565b14610f4a5760405162461bcd60e51b815260206004820152602260248201527f70726f706f73616c206973206e6f7420696e20657865637574696f6e20737461604482015261746560f01b606482015260840161052d565b6000868152606960205260409020600201805482908110610f6d57610f6d612a4f565b60009182526020918290209181049091015460ff601f9092166101000a90041615610fda5760405162461bcd60e51b815260206004820152601f60248201527f7472616e73616374696f6e20697320616c726561647920657865637574656400604482015260640161052d565b6000610fea8686866000806107e6565b6000888152606960205260409020600301805491925082918490811061101257611012612a4f565b90600052602060002001541461107f5760405162461bcd60e51b815260206004820152602c60248201527f7472616e73616374696f6e206861736820646f6573206e6f74206d617463682060448201526b0d2dcc8caf0cac840d0c2e6d60a31b606482015260840161052d565b8115806110d4575060008781526069602052604090206002016110a36001846129da565b815481106110b3576110b3612a4f565b90600052602060002090602091828204019190069054906101000a900460ff165b61113b5760405162461bcd60e51b815260206004820152603260248201527f7472616e73616374696f6e206973206e6f7420696e20617363656e64696e672060448201527137b93232b91037b31032bc32b1baba34b7b760711b606482015260840161052d565b60008781526069602052604090206002018054600191908490811061116257611162612a4f565b6000918252602080832081830401805460ff601f9094166101000a9384021916941515929092029390931790558881526069909152604081206004018054916111aa836129f1565b91905055506111bb86868686611afa565b6112075760405162461bcd60e51b815260206004820152601960248201527f4d6f64756c65207472616e73616374696f6e206661696c656400000000000000604482015260640161052d565b6040518181527f862d83c6c5af275e697bfd4e27c8323c196b44bdd011dd9aaab6db0ec9943dce906020016107d5565b600082815260696020526040812060030180548390811061125a5761125a612a4f565b9060005260206000200154905092915050565b6033546001600160a01b031633146112975760405162461bcd60e51b815260040161052d906128d7565b6112a16000611cab565b565b6033546001600160a01b031633146112cd5760405162461bcd60e51b815260040161052d906128d7565b606780546001600160a01b038381166001600160a01b0319831681179093556040519116919082907f90cc2f570a6eb594b1580ea3e41247d2d73a55281889e86bd4ec2fc29c7e62d690600090a35050565b600080600080848060200190518101906113399190612238565b9350935093509350611349611cfd565b6001600160a01b03831661139f5760405162461bcd60e51b815260206004820152601e60248201527f4176617461722063616e206e6f74206265207a65726f20616464726573730000604482015260640161052d565b6001600160a01b0382166113f55760405162461bcd60e51b815260206004820152601e60248201527f5461726765742063616e206e6f74206265207a65726f20616464726573730000604482015260640161052d565b606680546001600160a01b038086166001600160a01b031992831617909255606780549285169290911691909117905561142e81611d78565b61143784611824565b6040516001600160a01b038381168252808516919086169033907fa174ee90c8bc494df81c9ff9323bac8198fc66c0cd4f0ee2f09c79be3d9b869d9060200160405180910390a45050505050565b606060008267ffffffffffffffff8111156114a2576114a2612a65565b6040519080825280602002602001820160405280156114cb578160200160208202803683370190505b506001600160a01b038086166000908152606a602052604081205492945091165b6001600160a01b0381161580159061150e57506001600160a01b038116600114155b801561151957508482105b15611571578084838151811061153157611531612a4f565b6001600160a01b039283166020918202929092018101919091529181166000908152606a909252604090912054168161156981612a08565b9250506114ec565b908352919491935090915050565b6033546001600160a01b031633146115a95760405162461bcd60e51b815260040161052d906128d7565b600081815260696020526040902060048101546115fc5760405162461bcd60e51b81526020600482015260116024820152701b9bdd1a1a5b99c81d1bc818d85b98d95b607a1b604482015260640161052d565b8054600160a01b900460ff16156116555760405162461bcd60e51b815260206004820152601c60248201527f70726f706f73616c20697320616c72656164792063616e63656c656400000000604482015260640161052d565b805460ff60a01b1916600160a01b1781556040517f789cf55be980739dad1d0699b93b58e806b51c9d96619bfa8fe0a28abaa7b30c90610d139084815260200190565b6033546001600160a01b031633146116c25760405162461bcd60e51b815260040161052d906128d7565b6001600160a01b0381161561179b576040516301ffc9a760e01b815263736bd41d60e11b60048201526001600160a01b038216906301ffc9a79060240160206040518083038186803b15801561171757600080fd5b505afa15801561172b573d6000803e3d6000fd5b505050506040513d601f19601f8201168201806040525081019061174f91906124bf565b61179b5760405162461bcd60e51b815260206004820181905260248201527f477561726420646f6573206e6f7420696d706c656d656e742049455243313635604482015260640161052d565b606580546001600160a01b0319166001600160a01b0383169081179091556040519081527f1151116914515bc0891ff9047a6cb32cf902546f83066499bcf8ba33d2353fa290602001610986565b600060016001600160a01b0383161480159061181e57506001600160a01b038281166000908152606a60205260409020541615155b92915050565b6033546001600160a01b0316331461184e5760405162461bcd60e51b815260040161052d906128d7565b6001600160a01b0381166118b35760405162461bcd60e51b815260206004820152602660248201527f4f776e61626c653a206e6577206f776e657220697320746865207a65726f206160448201526564647265737360d01b606482015260840161052d565b6118bc81611cab565b50565b6118c8826117e9565b6119285760405162461bcd60e51b815260206004820152602b60248201527f766f74696e67207374726174656779206973206e6f7420656e61626c6564206660448201526a1bdc881c1c9bdc1bdcd85b60aa1b606482015260840161052d565b60005b83518110156119835760685460009081526069602090815260408220600201805460018101825590835291819020908204018054601f9092166101000a60ff021990911690558061197b81612a08565b91505061192b565b50825160688054600090815260696020908152604080832060040194909455915481529190912084516119be92600390920191860190611f51565b50606880546000908152606960205260408082208054336001600160a01b0319918216179091558354835290822060050180549091166001600160a01b03861617905581549190611a0e83612a08565b9190505550816001600160a01b031663224f32636001606854611a3191906129da565b8584604051602001611a459392919061290c565b6040516020818303038152906040526040518263ffffffff1660e01b8152600401611a70919061285c565b600060405180830381600087803b158015611a8a57600080fd5b505af1158015611a9e573d6000803e3d6000fd5b505050507fe28da1d80dec4ece82645bd52ae6a4118887a7cb56436b4024affa3b5d4463c9826001606854611ad391906129da565b604080516001600160a01b03909316835260208301919091520160405180910390a1505050565b6065546000906001600160a01b031615611b9c576065546040805180820182526002815261060f60f31b60208201529051633af85da960e11b81526001600160a01b03909216916375f0bb5291611b69918991899189918991600091829182918291829190829060040161272e565b600060405180830381600087803b158015611b8357600080fd5b505af1158015611b97573d6000803e3d6000fd5b505050505b60675460405163468721a760e01b81526001600160a01b039091169063468721a790611bd29088908890889088906004016126f8565b602060405180830381600087803b158015611bec57600080fd5b505af1158015611c00573d6000803e3d6000fd5b505050506040513d601f19601f82011682018060405250810190611c2491906124bf565b6065549091506001600160a01b031615611ca357606554604051631264e26d60e31b815261060f60f31b600482015282151560248201526001600160a01b0390911690639327136890604401600060405180830381600087803b158015611c8a57600080fd5b505af1158015611c9e573d6000803e3d6000fd5b505050505b949350505050565b603380546001600160a01b038381166001600160a01b0319831681179093556040519116919082907f8be0079c531659141344cd1fd0a4f28419497f9722a3daafe3b4186f6b6457e090600090a35050565b600054610100900460ff1680611d16575060005460ff16155b611d325760405162461bcd60e51b815260040161052d90612889565b600054610100900460ff16158015611d54576000805461ffff19166101011790555b611d5c611e87565b611d64611ef1565b80156118bc576000805461ff001916905550565b6001600052606a6020527ff585789965ba69220d5ce3dc1b444eb22ff546f2650694fef8fafe9c26560af9546001600160a01b031615611e065760405162461bcd60e51b8152602060048201526024808201527f73657455704d6f64756c65732068617320616c7265616479206265656e2063616044820152631b1b195960e21b606482015260840161052d565b60016000818152606a6020527ff585789965ba69220d5ce3dc1b444eb22ff546f2650694fef8fafe9c26560af980546001600160a01b0319169092179091555b8151811015611e8357611e71828281518110611e6457611e64612a4f565b6020026020010151610808565b80611e7b81612a08565b915050611e46565b5050565b600054610100900460ff1680611ea0575060005460ff16155b611ebc5760405162461bcd60e51b815260040161052d90612889565b600054610100900460ff16158015611d64576000805461ffff191661010117905580156118bc576000805461ff001916905550565b600054610100900460ff1680611f0a575060005460ff16155b611f265760405162461bcd60e51b815260040161052d90612889565b600054610100900460ff16158015611f48576000805461ffff19166101011790555b611d6433611cab565b828054828255906000526020600020908101928215611f8c579160200282015b82811115611f8c578251825591602001919060010190611f71565b50611f98929150611f9c565b5090565b5b80821115611f985760008155600101611f9d565b8035611fbc81612a7b565b919050565b600082601f830112611fd257600080fd5b81356020611fe7611fe28361299e565b61296d565b80838252828201915082860187848660051b890101111561200757600080fd5b60005b8581101561202f57813561201d81612a7b565b8452928401929084019060010161200a565b5090979650505050505050565b600082601f83011261204d57600080fd5b8135602061205d611fe28361299e565b80838252828201915082860187848660051b890101111561207d57600080fd5b6000805b868110156120c057823567ffffffffffffffff81111561209f578283fd5b6120ad8b88838d0101612195565b8652509385019391850191600101612081565b509198975050505050505050565b600082601f8301126120df57600080fd5b813560206120ef611fe28361299e565b80838252828201915082860187848660051b890101111561210f57600080fd5b60005b8581101561202f5761212382612205565b84529284019290840190600101612112565b600082601f83011261214657600080fd5b81356020612156611fe28361299e565b80838252828201915082860187848660051b890101111561217657600080fd5b60005b8581101561202f57813584529284019290840190600101612179565b600082601f8301126121a657600080fd5b813567ffffffffffffffff8111156121c0576121c0612a65565b6121d3601f8201601f191660200161296d565b8181528460208386010111156121e857600080fd5b816020850160208301376000918101602001919091529392505050565b803560028110611fbc57600080fd5b60006020828403121561222657600080fd5b813561223181612a7b565b9392505050565b6000806000806080858703121561224e57600080fd5b845161225981612a7b565b8094505060208086015161226c81612a7b565b604087015190945061227d81612a7b565b606087015190935067ffffffffffffffff81111561229a57600080fd5b8601601f810188136122ab57600080fd5b80516122b9611fe28261299e565b8082825284820191508484018b868560051b87010111156122d957600080fd5b600094505b838510156123055780516122f181612a7b565b8352600194909401939185019185016122de565b50979a9699509497505050505050565b6000806040838503121561232857600080fd5b823561233381612a7b565b9150602083013561234381612a7b565b809150509250929050565b6000806040838503121561236157600080fd5b823561236c81612a7b565b946020939093013593505050565b600080600080600060a0868803121561239257600080fd5b853561239d81612a7b565b945060208601359350604086013567ffffffffffffffff8111156123c057600080fd5b6123cc88828901612195565b9350506123db60608701612205565b949793965091946080013592915050565b60008060006060848603121561240157600080fd5b833567ffffffffffffffff8082111561241957600080fd5b818601915086601f83011261242d57600080fd5b8135602061243d611fe28361299e565b8083825282820191508286018b848660051b890101111561245d57600080fd5b600096505b84871015612480578035835260019690960195918301918301612462565b5097506124909050888201611fb1565b9550505060408601359150808211156124a857600080fd5b506124b586828701612195565b9150509250925092565b6000602082840312156124d157600080fd5b8151801515811461223157600080fd5b6000602082840312156124f357600080fd5b813567ffffffffffffffff81111561250a57600080fd5b611ca384828501612195565b60006020828403121561252857600080fd5b5035919050565b60008060008060008060c0878903121561254857600080fd5b86359550602087013561255a81612a7b565b945060408701359350606087013567ffffffffffffffff81111561257d57600080fd5b61258989828a01612195565b93505061259860808801612205565b915060a087013590509295509295509295565b600080600080600080600060e0888a0312156125c657600080fd5b87359650602088013567ffffffffffffffff808211156125e557600080fd5b6125f18b838c01611fc1565b975060408a013591508082111561260757600080fd5b6126138b838c01612135565b965060608a013591508082111561262957600080fd5b6126358b838c0161203c565b955060808a013591508082111561264b57600080fd5b506126588a828b016120ce565b93505060a0880135915060c0880135905092959891949750929550565b6000806040838503121561268857600080fd5b50508035926020909101359150565b6000815180845260005b818110156126bd576020818501810151868301820152016126a1565b818111156126cf576000602083870101525b50601f01601f19169290920160200192915050565b600281106126f4576126f4612a39565b9052565b60018060a01b038516815283602082015260806040820152600061271f6080830185612697565b90506107ff60608301846126e4565b6001600160a01b038c81168252602082018c90526101606040830181905260009161275b8483018e612697565b915061276a606085018d6126e4565b8a60808501528960a08501528860c085015280881660e08501528087166101008501528382036101208501526127a08287612697565b925080851661014085015250509c9b505050505050505050505050565b604080825283519082018190526000906020906060840190828701845b828110156127ff5781516001600160a01b0316845292840192908401906001016127da565b5050506001600160a01b039490941692019190915250919050565b8681526001600160a01b0386166020820152604081018590526060810184905260c0810161284b60808301856126e4565b8260a0830152979650505050505050565b6020815260006122316020830184612697565b602081016006831061288357612883612a39565b91905290565b6020808252602e908201527f496e697469616c697a61626c653a20636f6e747261637420697320616c72656160408201526d191e481a5b9a5d1a585b1a5e995960921b606082015260800190565b6020808252818101527f4f776e61626c653a2063616c6c6572206973206e6f7420746865206f776e6572604082015260600190565b6000606082018583526020606081850152818651808452608086019150828801935060005b8181101561294d57845183529383019391830191600101612931565b505084810360408601526129618187612697565b98975050505050505050565b604051601f8201601f1916810167ffffffffffffffff8111828210171561299657612996612a65565b604052919050565b600067ffffffffffffffff8211156129b8576129b8612a65565b5060051b60200190565b600082198211156129d5576129d5612a23565b500190565b6000828210156129ec576129ec612a23565b500390565b600081612a0057612a00612a23565b506000190190565b6000600019821415612a1c57612a1c612a23565b5060010190565b634e487b7160e01b600052601160045260246000fd5b634e487b7160e01b600052602160045260246000fd5b634e487b7160e01b600052603260045260246000fd5b634e487b7160e01b600052604160045260246000fd5b6001600160a01b03811681146118bc57600080fdfea2646970667358221220d021eed2380259c6f942cdc038a615c6cb3d5eacdc448e34eb86e2c4d4f6c9b964736f6c63430008060033496e697469616c697a61626c653a20636f6e747261637420697320616c7265614f776e61626c653a2063616c6c6572206973206e6f7420746865206f776e6572f585789965ba69220d5ce3dc1b444eb22ff546f2650694fef8fafe9c26560af9",
  "linkReferences": {},
  "deployedLinkReferences": {}
}