{
  "_format": "hh-sol-artifact-1",
  "contractName": "HouseDAOGovernance",
  "sourceName": "contracts/HouseDAOGovernance.sol",
  "abi": [
    {
      "inputs": [
        {
          "internalType": "address[]",
          "name": "heads",
          "type": "address[]"
        },
        {
          "internalType": "address",
          "name": "_governanceToken",
          "type": "address"
        },
        {
          "internalType": "uint256",
          "name": "_entryAmount",
          "type": "uint256"
        },
        {
          "internalType": "uint256",
          "name": "_proposalTime",
          "type": "uint256"
        },
        {
          "internalType": "uint256",
          "name": "_totalGovernanceSupply",
          "type": "uint256"
        },
        {
          "internalType": "uint256",
          "name": "_threshold",
          "type": "uint256"
        }
      ],
      "stateMutability": "nonpayable",
      "type": "constructor"
    },
    {
      "inputs": [],
      "name": "WETH",
      "outputs": [
        {
          "internalType": "address",
          "name": "",
          "type": "address"
        }
      ],
      "stateMutability": "view",
      "type": "function"
    },
    {
      "inputs": [
        {
          "internalType": "uint256",
          "name": "_contribution",
          "type": "uint256"
        }
      ],
      "name": "addMoreContribution",
      "outputs": [],
      "stateMutability": "nonpayable",
      "type": "function"
    },
    {
      "inputs": [],
      "name": "balance",
      "outputs": [
        {
          "internalType": "uint256",
          "name": "",
          "type": "uint256"
        }
      ],
      "stateMutability": "view",
      "type": "function"
    },
    {
      "inputs": [
        {
          "internalType": "uint256",
          "name": "_proposalId",
          "type": "uint256"
        }
      ],
      "name": "cancelEnterDAO",
      "outputs": [],
      "stateMutability": "nonpayable",
      "type": "function"
    },
    {
      "inputs": [
        {
          "internalType": "uint256",
          "name": "_proposalId",
          "type": "uint256"
        }
      ],
      "name": "cancelProposal",
      "outputs": [],
      "stateMutability": "nonpayable",
      "type": "function"
    },
    {
      "inputs": [
        {
          "internalType": "uint256",
          "name": "_contribution",
          "type": "uint256"
        },
        {
          "components": [
            {
              "internalType": "bool",
              "name": "headOfHouse",
              "type": "bool"
            },
            {
              "internalType": "bool",
              "name": "member",
              "type": "bool"
            }
          ],
          "internalType": "struct IHouseDAO.Role",
          "name": "_role",
          "type": "tuple"
        }
      ],
      "name": "enterDAOProposal",
      "outputs": [],
      "stateMutability": "nonpayable",
      "type": "function"
    },
    {
      "inputs": [],
      "name": "entryAmount",
      "outputs": [
        {
          "internalType": "uint256",
          "name": "",
          "type": "uint256"
        }
      ],
      "stateMutability": "view",
      "type": "function"
    },
    {
      "inputs": [
        {
          "internalType": "uint256",
          "name": "_proposalId",
          "type": "uint256"
        }
      ],
      "name": "executeChangeRoleProposal",
      "outputs": [],
      "stateMutability": "nonpayable",
      "type": "function"
    },
    {
      "inputs": [
        {
          "internalType": "uint256",
          "name": "_proposalId",
          "type": "uint256"
        }
      ],
      "name": "executeEnterDAOProposal",
      "outputs": [],
      "stateMutability": "nonpayable",
      "type": "function"
    },
    {
      "inputs": [
        {
          "internalType": "uint256",
          "name": "_proposalId",
          "type": "uint256"
        }
      ],
      "name": "executeFundingProposal",
      "outputs": [],
      "stateMutability": "nonpayable",
      "type": "function"
    },
    {
      "inputs": [
        {
          "internalType": "uint256",
          "name": "_proposalId",
          "type": "uint256"
        }
      ],
      "name": "finalizeFundingProposal",
      "outputs": [],
      "stateMutability": "nonpayable",
      "type": "function"
    },
    {
      "inputs": [],
      "name": "governanceToken",
      "outputs": [
        {
          "internalType": "address",
          "name": "",
          "type": "address"
        }
      ],
      "stateMutability": "view",
      "type": "function"
    },
    {
      "inputs": [],
      "name": "gracePeriod",
      "outputs": [
        {
          "internalType": "uint256",
          "name": "",
          "type": "uint256"
        }
      ],
      "stateMutability": "view",
      "type": "function"
    },
    {
      "inputs": [
        {
          "internalType": "address",
          "name": "_member",
          "type": "address"
        },
        {
          "internalType": "uint256",
          "name": "_contribution",
          "type": "uint256"
        }
      ],
      "name": "headOfHouseEnterMember",
      "outputs": [],
      "stateMutability": "nonpayable",
      "type": "function"
    },
    {
      "inputs": [],
      "name": "init",
      "outputs": [],
      "stateMutability": "nonpayable",
      "type": "function"
    },
    {
      "inputs": [],
      "name": "proposalTime",
      "outputs": [
        {
          "internalType": "uint256",
          "name": "",
          "type": "uint256"
        }
      ],
      "stateMutability": "view",
      "type": "function"
    },
    {
      "inputs": [
        {
          "internalType": "uint256",
          "name": "",
          "type": "uint256"
        }
      ],
      "name": "proposals",
      "outputs": [
        {
          "internalType": "uint256",
          "name": "fundsRequested",
          "type": "uint256"
        },
        {
          "internalType": "uint8",
          "name": "proposalType",
          "type": "uint8"
        },
        {
          "internalType": "address",
          "name": "targetAddress",
          "type": "address"
        },
        {
          "components": [
            {
              "internalType": "bool",
              "name": "headOfHouse",
              "type": "bool"
            },
            {
              "internalType": "bool",
              "name": "member",
              "type": "bool"
            }
          ],
          "internalType": "struct IHouseDAO.Role",
          "name": "role",
          "type": "tuple"
        },
        {
          "internalType": "uint256",
          "name": "yesVotes",
          "type": "uint256"
        },
        {
          "internalType": "uint256",
          "name": "noVotes",
          "type": "uint256"
        },
        {
          "internalType": "bool",
          "name": "executed",
          "type": "bool"
        },
        {
          "internalType": "uint256",
          "name": "deadline",
          "type": "uint256"
        },
        {
          "internalType": "address",
          "name": "proposer",
          "type": "address"
        },
        {
          "internalType": "bool",
          "name": "canceled",
          "type": "bool"
        },
        {
          "internalType": "uint256",
          "name": "gracePeriod",
          "type": "uint256"
        }
      ],
      "stateMutability": "view",
      "type": "function"
    },
    {
      "inputs": [],
      "name": "remainingSupply",
      "outputs": [
        {
          "internalType": "uint256",
          "name": "",
          "type": "uint256"
        }
      ],
      "stateMutability": "view",
      "type": "function"
    },
    {
      "inputs": [
        {
          "internalType": "address",
          "name": "_nftAddress",
          "type": "address"
        },
        {
          "internalType": "uint256",
          "name": "_nftId",
          "type": "uint256"
        },
        {
          "internalType": "address",
          "name": "_recipient",
          "type": "address"
        }
      ],
      "name": "sendNFT",
      "outputs": [],
      "stateMutability": "nonpayable",
      "type": "function"
    },
    {
      "inputs": [
        {
          "components": [
            {
              "internalType": "bool",
              "name": "headOfHouse",
              "type": "bool"
            },
            {
              "internalType": "bool",
              "name": "member",
              "type": "bool"
            }
          ],
          "internalType": "struct IHouseDAO.Role",
          "name": "_role",
          "type": "tuple"
        },
        {
          "internalType": "address",
          "name": "_recipient",
          "type": "address"
        },
        {
          "internalType": "uint256",
          "name": "_funding",
          "type": "uint256"
        },
        {
          "internalType": "uint8",
          "name": "_proposalType",
          "type": "uint8"
        }
      ],
      "name": "submitProposal",
      "outputs": [],
      "stateMutability": "nonpayable",
      "type": "function"
    },
    {
      "inputs": [],
      "name": "threshold",
      "outputs": [
        {
          "internalType": "uint256",
          "name": "",
          "type": "uint256"
        }
      ],
      "stateMutability": "view",
      "type": "function"
    },
    {
      "inputs": [],
      "name": "totalContribution",
      "outputs": [
        {
          "internalType": "uint256",
          "name": "",
          "type": "uint256"
        }
      ],
      "stateMutability": "view",
      "type": "function"
    },
    {
      "inputs": [],
      "name": "totalGovernanceSupply",
      "outputs": [
        {
          "internalType": "uint256",
          "name": "",
          "type": "uint256"
        }
      ],
      "stateMutability": "view",
      "type": "function"
    },
    {
      "inputs": [],
      "name": "totalProposalCount",
      "outputs": [
        {
          "internalType": "uint256",
          "name": "",
          "type": "uint256"
        }
      ],
      "stateMutability": "view",
      "type": "function"
    },
    {
      "inputs": [
        {
          "internalType": "uint256",
          "name": "_proposalId",
          "type": "uint256"
        },
        {
          "internalType": "bool",
          "name": "_vote",
          "type": "bool"
        }
      ],
      "name": "vote",
      "outputs": [],
      "stateMutability": "nonpayable",
      "type": "function"
    },
    {
      "inputs": [
        {
          "internalType": "uint256",
          "name": "_amount",
          "type": "uint256"
        }
      ],
      "name": "withdraw",
      "outputs": [],
      "stateMutability": "nonpayable",
      "type": "function"
    }
  ],
  "bytecode": "0x608060405260008060006101000a81548160ff02191690831515021790555060006003556203f4806005556000600d60006101000a81548173ffffffffffffffffffffffffffffffffffffffff021916908373ffffffffffffffffffffffffffffffffffffffff1602179055503480156200007957600080fd5b50604051620036103803806200361083398181016040528101906200009f9190620003cb565b60005b86518110156200027a57600073ffffffffffffffffffffffffffffffffffffffff16878281518110620000fe577f4e487b7100000000000000000000000000000000000000000000000000000000600052603260045260246000fd5b602002602001015173ffffffffffffffffffffffffffffffffffffffff1614156200012857600080fd5b600180600089848151811062000167577f4e487b7100000000000000000000000000000000000000000000000000000000600052603260045260246000fd5b602002602001015173ffffffffffffffffffffffffffffffffffffffff1673ffffffffffffffffffffffffffffffffffffffff16815260200190815260200160002060010160000160006101000a81548160ff021916908315150217905550600180600089848151811062000205577f4e487b7100000000000000000000000000000000000000000000000000000000600052603260045260246000fd5b602002602001015173ffffffffffffffffffffffffffffffffffffffff1673ffffffffffffffffffffffffffffffffffffffff16815260200190815260200160002060010160000160016101000a81548160ff021916908315150217905550808062000271906200057c565b915050620000a2565b5084600c60006101000a81548173ffffffffffffffffffffffffffffffffffffffff021916908373ffffffffffffffffffffffffffffffffffffffff160217905550836009819055506201518083620002d49190620004dd565b6004819055508060088190555081600a8190555081600b819055505050505050506200065c565b6000620003126200030c84620004ae565b6200047a565b905080838252602082019050828560208602820111156200033257600080fd5b60005b858110156200036657816200034b888262000370565b84526020840193506020830192505060018101905062000335565b5050509392505050565b600081519050620003818162000628565b92915050565b600082601f8301126200039957600080fd5b8151620003ab848260208601620002fb565b91505092915050565b600081519050620003c58162000642565b92915050565b60008060008060008060c08789031215620003e557600080fd5b600087015167ffffffffffffffff8111156200040057600080fd5b6200040e89828a0162000387565b96505060206200042189828a0162000370565b95505060406200043489828a01620003b4565b94505060606200044789828a01620003b4565b93505060806200045a89828a01620003b4565b92505060a06200046d89828a01620003b4565b9150509295509295509295565b6000604051905081810181811067ffffffffffffffff82111715620004a457620004a3620005f9565b5b8060405250919050565b600067ffffffffffffffff821115620004cc57620004cb620005f9565b5b602082029050602081019050919050565b6000620004ea8262000572565b9150620004f78362000572565b9250817fffffffffffffffffffffffffffffffffffffffffffffffffffffffffffffffff0483118215151615620005335762000532620005ca565b5b828202905092915050565b60006200054b8262000552565b9050919050565b600073ffffffffffffffffffffffffffffffffffffffff82169050919050565b6000819050919050565b6000620005898262000572565b91507fffffffffffffffffffffffffffffffffffffffffffffffffffffffffffffffff821415620005bf57620005be620005ca565b5b600182019050919050565b7f4e487b7100000000000000000000000000000000000000000000000000000000600052601160045260246000fd5b7f4e487b7100000000000000000000000000000000000000000000000000000000600052604160045260246000fd5b62000633816200053e565b81146200063f57600080fd5b50565b6200064d8162000572565b81146200065957600080fd5b50565b612fa4806200066c6000396000f3fe608060405234801561001057600080fd5b506004361061018e5760003560e01c80639f23da67116100de578063cd38b77211610097578063e1c7392a11610071578063e1c7392a1461042b578063ead0eedf14610435578063f96dae0a14610453578063f9ca56d9146104715761018e565b8063cd38b772146103d3578063da0239a6146103f1578063e0a8f6f51461040f5761018e565b80639f23da6714610325578063a06db7dc14610341578063ad15140c1461035f578063ad5c46481461037b578063b69ef8a814610399578063c9d27afe146103b75761018e565b806354c37def1161014b5780637fa3fa7c116101255780637fa3fa7c146102b3578063844ccf7d146102cf5780638c9f6bc3146102eb578063991def3c146103075761018e565b806354c37def1461025f5780635d3a83631461027b5780637e44d788146102975761018e565b8063013cf08b146101935780630dcf4b8f146101cd578063184a0ae9146101eb5780632e1a7d4d1461020957806342cde4e81461022557806349774ae214610243575b600080fd5b6101ad60048036038101906101a8919061294a565b61048d565b6040516101c49b9a99989796959493929190612be4565b60405180910390f35b6101d561058e565b6040516101e29190612bc9565b60405180910390f35b6101f3610594565b6040516102009190612bc9565b60405180910390f35b610223600480360381019061021e919061294a565b61059a565b005b61022d6107eb565b60405161023a9190612bc9565b60405180910390f35b61025d6004803603810190610258919061294a565b6107f1565b005b6102796004803603810190610274919061294a565b610b31565b005b610295600480360381019061029091906128e7565b610c95565b005b6102b160048036038101906102ac919061294a565b610fa4565b005b6102cd60048036038101906102c891906129d8565b611140565b005b6102e960048036038101906102e4919061286f565b6114ce565b005b61030560048036038101906103009190612833565b6115db565b005b61030f611908565b60405161031c9190612bc9565b60405180910390f35b61033f600480360381019061033a919061294a565b61190e565b005b610349611d83565b6040516103569190612bc9565b60405180910390f35b6103796004803603810190610374919061294a565b611d89565b005b610383611f39565b6040516103909190612b0e565b60405180910390f35b6103a1611f5f565b6040516103ae9190612bc9565b60405180910390f35b6103d160048036038101906103cc919061299c565b611f65565b005b6103db61227a565b6040516103e89190612bc9565b60405180910390f35b6103f9612280565b6040516104069190612bc9565b60405180910390f35b6104296004803603810190610424919061294a565b612286565b005b6104336123b1565b005b61043d61252f565b60405161044a9190612bc9565b60405180910390f35b61045b612535565b6040516104689190612b0e565b60405180910390f35b61048b6004803603810190610486919061294a565b61255b565b005b60026020528060005260406000206000915090508060000154908060010160009054906101000a900460ff16908060010160019054906101000a900473ffffffffffffffffffffffffffffffffffffffff1690806002016040518060400160405290816000820160009054906101000a900460ff161515151581526020016000820160019054906101000a900460ff161515151581525050908060030154908060040154908060050160009054906101000a900460ff16908060060154908060070160009054906101000a900473ffffffffffffffffffffffffffffffffffffffff16908060070160149054906101000a900460ff1690806008015490508b565b60065481565b60045481565b80600160003373ffffffffffffffffffffffffffffffffffffffff1673ffffffffffffffffffffffffffffffffffffffff1681526020019081526020016000206000015410156105e957600080fd5b6000610642600654600160003373ffffffffffffffffffffffffffffffffffffffff1673ffffffffffffffffffffffffffffffffffffffff1681526020019081526020016000206000015461271190919063ffffffff16565b9050600061065b8260075461272790919063ffffffff16565b90506106b283600160003373ffffffffffffffffffffffffffffffffffffffff1673ffffffffffffffffffffffffffffffffffffffff1681526020019081526020016000206000015461273d90919063ffffffff16565b600160003373ffffffffffffffffffffffffffffffffffffffff1673ffffffffffffffffffffffffffffffffffffffff1681526020019081526020016000206000018190555061070d8360065461273d90919063ffffffff16565b6006819055506107288160075461273d90919063ffffffff16565b600781905550600d60009054906101000a900473ffffffffffffffffffffffffffffffffffffffff1673ffffffffffffffffffffffffffffffffffffffff1663a9059cbb33836040518363ffffffff1660e01b815260040161078b929190612b60565b602060405180830381600087803b1580156107a557600080fd5b505af11580156107b9573d6000803e3d6000fd5b505050506040513d601f19601f820116820180604052508101906107dd91906128be565b6107e657600080fd5b505050565b60085481565b600015156002600083815260200190815260200160002060070160149054906101000a900460ff1615151461082557600080fd5b600015156002600083815260200190815260200160002060050160009054906101000a900460ff1615151461085957600080fd5b600280600083815260200190815260200160002060010160009054906101000a900460ff1660ff161461088b57600080fd5b60018060003373ffffffffffffffffffffffffffffffffffffffff1673ffffffffffffffffffffffffffffffffffffffff16815260200190815260200160002060010160000160016101000a81548160ff0219169083151502179055506002600082815260200190815260200160002060000154600160003373ffffffffffffffffffffffffffffffffffffffff1673ffffffffffffffffffffffffffffffffffffffff16815260200190815260200160002060000181905550610970600260008381526020019081526020016000206000015460065461275390919063ffffffff16565b600681905550600c60009054906101000a900473ffffffffffffffffffffffffffffffffffffffff1673ffffffffffffffffffffffffffffffffffffffff166370a08231306040518263ffffffff1660e01b81526004016109d19190612b0e565b60206040518083038186803b1580156109e957600080fd5b505afa1580156109fd573d6000803e3d6000fd5b505050506040513d601f19601f82011682018060405250810190610a219190612973565b60026000838152602001908152602001600020600001541115610b0757600c60009054906101000a900473ffffffffffffffffffffffffffffffffffffffff1673ffffffffffffffffffffffffffffffffffffffff166323b872dd333060026000868152602001908152602001600020600001546040518463ffffffff1660e01b8152600401610ab393929190612b29565b602060405180830381600087803b158015610acd57600080fd5b505af1158015610ae1573d6000803e3d6000fd5b505050506040513d601f19601f82011682018060405250810190610b0591906128be565b505b600115156002600083815260200190815260200160002060050160009054906101000a9050505050565b600015156002600083815260200190815260200160002060070160149054906101000a900460ff16151514610b6557600080fd5b600015156002600083815260200190815260200160002060050160009054906101000a900460ff16151514610b9957600080fd5b60006002600083815260200190815260200160002060010160009054906101000a900460ff1660ff1614610bcc57600080fd5b600260006003548152602001908152602001600020600001546007541015610bf357600080fd5b60085460026000838152602001908152602001600020600301541015610c1857600080fd5b4260026000838152602001908152602001600020600601541015610c3b57600080fd5b60016002600083815260200190815260200160002060050160006101000a81548160ff02191690831515021790555060055442610c789190612cd2565b600260008381526020019081526020016000206008018190555050565b60011515600160003373ffffffffffffffffffffffffffffffffffffffff1673ffffffffffffffffffffffffffffffffffffffff16815260200190815260200160002060010160000160019054906101000a900460ff16151514610d2e576040517f08c379a0000000000000000000000000000000000000000000000000000000008152600401610d2590612b89565b60405180910390fd5b816007541015610d3d57600080fd5b81600260006003548152602001908152602001600020600001819055508360026000600354815260200190815260200160002060020160008201518160000160006101000a81548160ff02191690831515021790555060208201518160000160016101000a81548160ff0219169083151502179055509050508060026000600354815260200190815260200160002060010160006101000a81548160ff021916908360ff160217905550600c60009054906101000a900473ffffffffffffffffffffffffffffffffffffffff1673ffffffffffffffffffffffffffffffffffffffff166370a08231336040518263ffffffff1660e01b8152600401610e429190612b0e565b60206040518083038186803b158015610e5a57600080fd5b505afa158015610e6e573d6000803e3d6000fd5b505050506040513d601f19601f82011682018060405250810190610e929190612973565b6002600060035481526020019081526020016000206003018190555060045442610ebc9190612cd2565b600260006003548152602001908152602001600020600601819055503360026000600354815260200190815260200160002060070160006101000a81548173ffffffffffffffffffffffffffffffffffffffff021916908373ffffffffffffffffffffffffffffffffffffffff1602179055508260026000600354815260200190815260200160002060010160016101000a81548173ffffffffffffffffffffffffffffffffffffffff021916908373ffffffffffffffffffffffffffffffffffffffff16021790555060036000815480929190610f9990612e3c565b919050555050505050565b600015156002600083815260200190815260200160002060070160149054906101000a900460ff16151514610fd857600080fd5b600015156002600083815260200190815260200160002060050160009054906101000a900460ff1615151461100c57600080fd5b600d60009054906101000a900473ffffffffffffffffffffffffffffffffffffffff1673ffffffffffffffffffffffffffffffffffffffff166323b872dd3060026000600354815260200190815260200160002060010160019054906101000a900473ffffffffffffffffffffffffffffffffffffffff16600260006003548152602001908152602001600020600001546040518463ffffffff1660e01b81526004016110bb93929190612b29565b602060405180830381600087803b1580156110d557600080fd5b505af11580156110e9573d6000803e3d6000fd5b505050506040513d601f19601f8201168201806040525081019061110d91906128be565b61111657600080fd5b600115156002600083815260200190815260200160002060070160149054906101000a9050505050565b60095482101561114f57600080fd5b81600d60009054906101000a900473ffffffffffffffffffffffffffffffffffffffff1673ffffffffffffffffffffffffffffffffffffffff166370a08231336040518263ffffffff1660e01b81526004016111ab9190612b0e565b60206040518083038186803b1580156111c357600080fd5b505afa1580156111d7573d6000803e3d6000fd5b505050506040513d601f19601f820116820180604052508101906111fb9190612973565b101561120657600080fd5b81600260006003548152602001908152602001600020600001819055508060026000600354815260200190815260200160002060020160008201518160000160006101000a81548160ff02191690831515021790555060208201518160000160016101000a81548160ff0219169083151502179055509050506002806000600354815260200190815260200160002060010160006101000a81548160ff021916908360ff160217905550600c60009054906101000a900473ffffffffffffffffffffffffffffffffffffffff1673ffffffffffffffffffffffffffffffffffffffff166370a08231336040518263ffffffff1660e01b815260040161130b9190612b0e565b60206040518083038186803b15801561132357600080fd5b505afa158015611337573d6000803e3d6000fd5b505050506040513d601f19601f8201168201806040525081019061135b9190612973565b60026000600354815260200190815260200160002060030181905550600454426113859190612cd2565b600260006003548152602001908152602001600020600601819055503360026000600354815260200190815260200160002060070160006101000a81548173ffffffffffffffffffffffffffffffffffffffff021916908373ffffffffffffffffffffffffffffffffffffffff160217905550600d60009054906101000a900473ffffffffffffffffffffffffffffffffffffffff1673ffffffffffffffffffffffffffffffffffffffff166323b872dd3330856040518463ffffffff1660e01b815260040161145793929190612b29565b602060405180830381600087803b15801561147157600080fd5b505af1158015611485573d6000803e3d6000fd5b505050506040513d601f19601f820116820180604052508101906114a991906128be565b6114b257600080fd5b600360008154809291906114c590612e3c565b91905055505050565b60011515600160003373ffffffffffffffffffffffffffffffffffffffff1673ffffffffffffffffffffffffffffffffffffffff16815260200190815260200160002060010160000160009054906101000a900460ff16151514611567576040517f08c379a000000000000000000000000000000000000000000000000000000000815260040161155e90612ba9565b60405180910390fd5b8273ffffffffffffffffffffffffffffffffffffffff166342842e0e3083856040518463ffffffff1660e01b81526004016115a493929190612b29565b600060405180830381600087803b1580156115be57600080fd5b505af11580156115d2573d6000803e3d6000fd5b50505050505050565b6009548110156115ea57600080fd5b80600d60009054906101000a900473ffffffffffffffffffffffffffffffffffffffff1673ffffffffffffffffffffffffffffffffffffffff166370a08231846040518263ffffffff1660e01b81526004016116469190612b0e565b60206040518083038186803b15801561165e57600080fd5b505afa158015611672573d6000803e3d6000fd5b505050506040513d601f19601f820116820180604052508101906116969190612973565b10156116a157600080fd5b60018060008473ffffffffffffffffffffffffffffffffffffffff1673ffffffffffffffffffffffffffffffffffffffff16815260200190815260200160002060010160000160016101000a81548160ff02191690831515021790555080600160008473ffffffffffffffffffffffffffffffffffffffff1673ffffffffffffffffffffffffffffffffffffffff168152602001908152602001600020600001819055506000811115611904576117638160065461275390919063ffffffff16565b60068190555061177e8160075461275390919063ffffffff16565b600781905550600d60009054906101000a900473ffffffffffffffffffffffffffffffffffffffff1673ffffffffffffffffffffffffffffffffffffffff166323b872dd8330846040518463ffffffff1660e01b81526004016117e393929190612b29565b602060405180830381600087803b1580156117fd57600080fd5b505af1158015611811573d6000803e3d6000fd5b505050506040513d601f19601f8201168201806040525081019061183591906128be565b50600c60009054906101000a900473ffffffffffffffffffffffffffffffffffffffff1673ffffffffffffffffffffffffffffffffffffffff166323b872dd3084846040518463ffffffff1660e01b815260040161189593929190612b29565b602060405180830381600087803b1580156118af57600080fd5b505af11580156118c3573d6000803e3d6000fd5b505050506040513d601f19601f820116820180604052508101906118e791906128be565b506118fd81600b5461273d90919063ffffffff16565b600b819055505b5050565b60095481565b60011515600160003373ffffffffffffffffffffffffffffffffffffffff1673ffffffffffffffffffffffffffffffffffffffff16815260200190815260200160002060010160000160019054906101000a900460ff161515146119a7576040517f08c379a000000000000000000000000000000000000000000000000000000000815260040161199e90612b89565b60405180910390fd5b6009548110156119b657600080fd5b80600d60009054906101000a900473ffffffffffffffffffffffffffffffffffffffff1673ffffffffffffffffffffffffffffffffffffffff166370a08231336040518263ffffffff1660e01b8152600401611a129190612b0e565b60206040518083038186803b158015611a2a57600080fd5b505afa158015611a3e573d6000803e3d6000fd5b505050506040513d601f19601f82011682018060405250810190611a629190612973565b1015611a6d57600080fd5b611ac281600160003373ffffffffffffffffffffffffffffffffffffffff1673ffffffffffffffffffffffffffffffffffffffff1681526020019081526020016000206000015461275390919063ffffffff16565b600160003373ffffffffffffffffffffffffffffffffffffffff1673ffffffffffffffffffffffffffffffffffffffff16815260200190815260200160002060000181905550611b1d8160065461275390919063ffffffff16565b600681905550611b388160075461275390919063ffffffff16565b600781905550600d60009054906101000a900473ffffffffffffffffffffffffffffffffffffffff1673ffffffffffffffffffffffffffffffffffffffff166323b872dd3330846040518463ffffffff1660e01b8152600401611b9d93929190612b29565b602060405180830381600087803b158015611bb757600080fd5b505af1158015611bcb573d6000803e3d6000fd5b505050506040513d601f19601f82011682018060405250810190611bef91906128be565b611bf857600080fd5b80600c60009054906101000a900473ffffffffffffffffffffffffffffffffffffffff1673ffffffffffffffffffffffffffffffffffffffff166370a08231306040518263ffffffff1660e01b8152600401611c549190612b0e565b60206040518083038186803b158015611c6c57600080fd5b505afa158015611c80573d6000803e3d6000fd5b505050506040513d601f19601f82011682018060405250810190611ca49190612973565b1115611d6557600c60009054906101000a900473ffffffffffffffffffffffffffffffffffffffff1673ffffffffffffffffffffffffffffffffffffffff166323b872dd3033846040518463ffffffff1660e01b8152600401611d0993929190612b29565b602060405180830381600087803b158015611d2357600080fd5b505af1158015611d37573d6000803e3d6000fd5b505050506040513d601f19601f82011682018060405250810190611d5b91906128be565b611d6457600080fd5b5b611d7a81600b5461273d90919063ffffffff16565b600b8190555050565b60055481565b600015156002600083815260200190815260200160002060070160149054906101000a900460ff16151514611dbd57600080fd5b600015156002600083815260200190815260200160002060050160009054906101000a900460ff16151514611df157600080fd5b60016002600083815260200190815260200160002060010160009054906101000a900460ff1660ff1614611e2457600080fd5b60026000828152602001908152602001600020600201600160006002600085815260200190815260200160002060010160019054906101000a900473ffffffffffffffffffffffffffffffffffffffff1673ffffffffffffffffffffffffffffffffffffffff1673ffffffffffffffffffffffffffffffffffffffff1681526020019081526020016000206001016000820160009054906101000a900460ff168160000160006101000a81548160ff0219169083151502179055506000820160019054906101000a900460ff168160000160016101000a81548160ff021916908315150217905550905050600115156002600083815260200190815260200160002060050160009054906101000a9050505050565b600d60009054906101000a900473ffffffffffffffffffffffffffffffffffffffff1681565b60075481565b60011515600160003373ffffffffffffffffffffffffffffffffffffffff1673ffffffffffffffffffffffffffffffffffffffff16815260200190815260200160002060010160000160019054906101000a900460ff16151514611ffe576040517f08c379a0000000000000000000000000000000000000000000000000000000008152600401611ff590612b89565b60405180910390fd5b600015156002600084815260200190815260200160002060070160149054906101000a900460ff1615151461203257600080fd5b600015156002600084815260200190815260200160002060050160009054906101000a900460ff1615151461206657600080fd5b426002600084815260200190815260200160002060060154101561208957600080fd5b60001515811515141561218857612169600c60009054906101000a900473ffffffffffffffffffffffffffffffffffffffff1673ffffffffffffffffffffffffffffffffffffffff166370a08231336040518263ffffffff1660e01b81526004016120f49190612b0e565b60206040518083038186803b15801561210c57600080fd5b505afa158015612120573d6000803e3d6000fd5b505050506040513d601f19601f820116820180604052508101906121449190612973565b600260008581526020019081526020016000206004015461275390919063ffffffff16565b6002600084815260200190815260200160002060040181905550612276565b61225b600c60009054906101000a900473ffffffffffffffffffffffffffffffffffffffff1673ffffffffffffffffffffffffffffffffffffffff166370a08231336040518263ffffffff1660e01b81526004016121e69190612b0e565b60206040518083038186803b1580156121fe57600080fd5b505afa158015612212573d6000803e3d6000fd5b505050506040513d601f19601f820116820180604052508101906122369190612973565b600260008581526020019081526020016000206003015461275390919063ffffffff16565b60026000848152602001908152602001600020600301819055505b5050565b600a5481565b600b5481565b600015156002600083815260200190815260200160002060070160149054906101000a900460ff161515146122ba57600080fd5b600015156002600083815260200190815260200160002060050160009054906101000a900460ff161515146122ee57600080fd5b426002600083815260200190815260200160002060060154101561231157600080fd5b3373ffffffffffffffffffffffffffffffffffffffff166002600083815260200190815260200160002060070160009054906101000a900473ffffffffffffffffffffffffffffffffffffffff1673ffffffffffffffffffffffffffffffffffffffff161461237f57600080fd5b60016002600083815260200190815260200160002060070160146101000a81548160ff02191690831515021790555050565b60011515600160003373ffffffffffffffffffffffffffffffffffffffff1673ffffffffffffffffffffffffffffffffffffffff16815260200190815260200160002060010160000160009054906101000a900460ff1615151461244a576040517f08c379a000000000000000000000000000000000000000000000000000000000815260040161244190612ba9565b60405180910390fd5b6000151560008054906101000a900460ff1615151461246857600080fd5b6001151560008054906101000a90505050600c60009054906101000a900473ffffffffffffffffffffffffffffffffffffffff1673ffffffffffffffffffffffffffffffffffffffff166323b872dd3330600a546040518463ffffffff1660e01b81526004016124da93929190612b29565b602060405180830381600087803b1580156124f457600080fd5b505af1158015612508573d6000803e3d6000fd5b505050506040513d601f19601f8201168201806040525081019061252c91906128be565b50565b60035481565b600c60009054906101000a900473ffffffffffffffffffffffffffffffffffffffff1681565b6002600082815260200190815260200160002060000154600754101561258057600080fd5b600115156002600083815260200190815260200160002060050160009054906101000a900460ff161515146125b457600080fd5b60026000828152602001908152602001600020600801544210156125d757600080fd5b612602600260008381526020019081526020016000206000015460075461273d90919063ffffffff16565b600781905550600d60009054906101000a900473ffffffffffffffffffffffffffffffffffffffff1673ffffffffffffffffffffffffffffffffffffffff166323b872dd306002600085815260200190815260200160002060010160019054906101000a900473ffffffffffffffffffffffffffffffffffffffff1660026000868152602001908152602001600020600001546040518463ffffffff1660e01b81526004016126b393929190612b29565b602060405180830381600087803b1580156126cd57600080fd5b505af11580156126e1573d6000803e3d6000fd5b505050506040513d601f19601f8201168201806040525081019061270591906128be565b61270e57600080fd5b50565b6000818361271f9190612d28565b905092915050565b600081836127359190612d59565b905092915050565b6000818361274b9190612db3565b905092915050565b600081836127619190612cd2565b905092915050565b60008135905061277881612f12565b92915050565b60008135905061278d81612f29565b92915050565b6000815190506127a281612f29565b92915050565b6000604082840312156127ba57600080fd5b6127c46040612c90565b905060006127d48482850161277e565b60008301525060206127e88482850161277e565b60208301525092915050565b60008135905061280381612f40565b92915050565b60008151905061281881612f40565b92915050565b60008135905061282d81612f57565b92915050565b6000806040838503121561284657600080fd5b600061285485828601612769565b9250506020612865858286016127f4565b9150509250929050565b60008060006060848603121561288457600080fd5b600061289286828701612769565b93505060206128a3868287016127f4565b92505060406128b486828701612769565b9150509250925092565b6000602082840312156128d057600080fd5b60006128de84828501612793565b91505092915050565b60008060008060a085870312156128fd57600080fd5b600061290b878288016127a8565b945050604061291c87828801612769565b935050606061292d878288016127f4565b925050608061293e8782880161281e565b91505092959194509250565b60006020828403121561295c57600080fd5b600061296a848285016127f4565b91505092915050565b60006020828403121561298557600080fd5b600061299384828501612809565b91505092915050565b600080604083850312156129af57600080fd5b60006129bd858286016127f4565b92505060206129ce8582860161277e565b9150509250929050565b600080606083850312156129eb57600080fd5b60006129f9858286016127f4565b9250506020612a0a858286016127a8565b9150509250929050565b612a1d81612de7565b82525050565b612a2c81612df9565b82525050565b612a3b81612df9565b82525050565b6000612a4e600c83612cc1565b91507f6e6f742061206d656d62657200000000000000000000000000000000000000006000830152602082019050919050565b6000612a8e601383612cc1565b91507f6e6f7420612068656164206f6620686f757365000000000000000000000000006000830152602082019050919050565b604082016000820151612ad76000850182612a23565b506020820151612aea6020850182612a23565b50505050565b612af981612e25565b82525050565b612b0881612e2f565b82525050565b6000602082019050612b236000830184612a14565b92915050565b6000606082019050612b3e6000830186612a14565b612b4b6020830185612a14565b612b586040830184612af0565b949350505050565b6000604082019050612b756000830185612a14565b612b826020830184612af0565b9392505050565b60006020820190508181036000830152612ba281612a41565b9050919050565b60006020820190508181036000830152612bc281612a81565b9050919050565b6000602082019050612bde6000830184612af0565b92915050565b600061018082019050612bfa600083018e612af0565b612c07602083018d612aff565b612c14604083018c612a14565b612c21606083018b612ac1565b612c2e60a083018a612af0565b612c3b60c0830189612af0565b612c4860e0830188612a32565b612c56610100830187612af0565b612c64610120830186612a14565b612c72610140830185612a32565b612c80610160830184612af0565b9c9b505050505050505050505050565b6000604051905081810181811067ffffffffffffffff82111715612cb757612cb6612ee3565b5b8060405250919050565b600082825260208201905092915050565b6000612cdd82612e25565b9150612ce883612e25565b9250827fffffffffffffffffffffffffffffffffffffffffffffffffffffffffffffffff03821115612d1d57612d1c612e85565b5b828201905092915050565b6000612d3382612e25565b9150612d3e83612e25565b925082612d4e57612d4d612eb4565b5b828204905092915050565b6000612d6482612e25565b9150612d6f83612e25565b9250817fffffffffffffffffffffffffffffffffffffffffffffffffffffffffffffffff0483118215151615612da857612da7612e85565b5b828202905092915050565b6000612dbe82612e25565b9150612dc983612e25565b925082821015612ddc57612ddb612e85565b5b828203905092915050565b6000612df282612e05565b9050919050565b60008115159050919050565b600073ffffffffffffffffffffffffffffffffffffffff82169050919050565b6000819050919050565b600060ff82169050919050565b6000612e4782612e25565b91507fffffffffffffffffffffffffffffffffffffffffffffffffffffffffffffffff821415612e7a57612e79612e85565b5b600182019050919050565b7f4e487b7100000000000000000000000000000000000000000000000000000000600052601160045260246000fd5b7f4e487b7100000000000000000000000000000000000000000000000000000000600052601260045260246000fd5b7f4e487b7100000000000000000000000000000000000000000000000000000000600052604160045260246000fd5b612f1b81612de7565b8114612f2657600080fd5b50565b612f3281612df9565b8114612f3d57600080fd5b50565b612f4981612e25565b8114612f5457600080fd5b50565b612f6081612e2f565b8114612f6b57600080fd5b5056fea26469706673582212209d800b725392cf839935a084675682fda9ca5b68e89867634c5e0381434f73e564736f6c63430008000033",
  "linkReferences": {},
  "deployedLinkReferences": {}
}