{
  "_format": "hh-sol-artifact-1",
  "contractName": "MultiWalkToken",
  "sourceName": "contracts/MultiWalkToken.sol",
  "abi": [
    {
      "inputs": [
        {
          "internalType": "string",
          "name": "_name",
          "type": "string"
        },
        {
          "internalType": "string",
          "name": "_symbol",
          "type": "string"
        }
      ],
      "stateMutability": "nonpayable",
      "type": "constructor"
    },
    {
      "anonymous": false,
      "inputs": [
        {
          "indexed": true,
          "internalType": "address",
          "name": "owner",
          "type": "address"
        },
        {
          "indexed": true,
          "internalType": "address",
          "name": "approved",
          "type": "address"
        },
        {
          "indexed": true,
          "internalType": "uint256",
          "name": "tokenId",
          "type": "uint256"
        }
      ],
      "name": "Approval",
      "type": "event"
    },
    {
      "anonymous": false,
      "inputs": [
        {
          "indexed": true,
          "internalType": "address",
          "name": "owner",
          "type": "address"
        },
        {
          "indexed": true,
          "internalType": "address",
          "name": "operator",
          "type": "address"
        },
        {
          "indexed": false,
          "internalType": "bool",
          "name": "approved",
          "type": "bool"
        }
      ],
      "name": "ApprovalForAll",
      "type": "event"
    },
    {
      "anonymous": false,
      "inputs": [
        {
          "indexed": true,
          "internalType": "address",
          "name": "from",
          "type": "address"
        },
        {
          "indexed": true,
          "internalType": "uint256",
          "name": "tokenId",
          "type": "uint256"
        }
      ],
      "name": "Signed",
      "type": "event"
    },
    {
      "anonymous": false,
      "inputs": [
        {
          "indexed": true,
          "internalType": "address",
          "name": "from",
          "type": "address"
        },
        {
          "indexed": true,
          "internalType": "address",
          "name": "to",
          "type": "address"
        },
        {
          "indexed": true,
          "internalType": "uint256",
          "name": "tokenId",
          "type": "uint256"
        }
      ],
      "name": "Transfer",
      "type": "event"
    },
    {
      "inputs": [],
      "name": "DOMAIN_SEPARATOR",
      "outputs": [
        {
          "internalType": "bytes32",
          "name": "",
          "type": "bytes32"
        }
      ],
      "stateMutability": "view",
      "type": "function"
    },
    {
      "inputs": [
        {
          "internalType": "address",
          "name": "to",
          "type": "address"
        },
        {
          "internalType": "uint256",
          "name": "tokenId",
          "type": "uint256"
        }
      ],
      "name": "approve",
      "outputs": [],
      "stateMutability": "nonpayable",
      "type": "function"
    },
    {
      "inputs": [
        {
          "internalType": "address",
          "name": "owner",
          "type": "address"
        }
      ],
      "name": "balanceOf",
      "outputs": [
        {
          "internalType": "uint256",
          "name": "",
          "type": "uint256"
        }
      ],
      "stateMutability": "view",
      "type": "function"
    },
    {
      "inputs": [
        {
          "internalType": "uint256",
          "name": "tokenId",
          "type": "uint256"
        }
      ],
      "name": "getApproved",
      "outputs": [
        {
          "internalType": "address",
          "name": "",
          "type": "address"
        }
      ],
      "stateMutability": "view",
      "type": "function"
    },
    {
      "inputs": [
        {
          "internalType": "uint256",
          "name": "_tokenId",
          "type": "uint256"
        }
      ],
      "name": "getSignature",
      "outputs": [
        {
          "internalType": "bytes",
          "name": "",
          "type": "bytes"
        }
      ],
      "stateMutability": "view",
      "type": "function"
    },
    {
      "inputs": [
        {
          "internalType": "address",
          "name": "owner",
          "type": "address"
        },
        {
          "internalType": "address",
          "name": "operator",
          "type": "address"
        }
      ],
      "name": "isApprovedForAll",
      "outputs": [
        {
          "internalType": "bool",
          "name": "",
          "type": "bool"
        }
      ],
      "stateMutability": "view",
      "type": "function"
    },
    {
      "inputs": [
        {
          "components": [
            {
              "internalType": "address",
              "name": "verificationAddress",
              "type": "address"
            },
            {
              "internalType": "string",
              "name": "artist",
              "type": "string"
            },
            {
              "internalType": "address",
              "name": "wallet",
              "type": "address"
            },
            {
              "internalType": "string",
              "name": "contents",
              "type": "string"
            }
          ],
          "internalType": "struct TokenWalkDomain.Signature",
          "name": "_message",
          "type": "tuple"
        },
        {
          "internalType": "bytes",
          "name": "_signature",
          "type": "bytes"
        },
        {
          "internalType": "uint256",
          "name": "_tokenId",
          "type": "uint256"
        }
      ],
      "name": "isSigned",
      "outputs": [
        {
          "internalType": "bool",
          "name": "",
          "type": "bool"
        }
      ],
      "stateMutability": "view",
      "type": "function"
    },
    {
      "inputs": [
        {
          "internalType": "string",
          "name": "_tokenURI",
          "type": "string"
        },
        {
          "internalType": "uint256",
          "name": "_editionNumbers",
          "type": "uint256"
        }
      ],
      "name": "mintEdition",
      "outputs": [],
      "stateMutability": "nonpayable",
      "type": "function"
    },
    {
      "inputs": [],
      "name": "name",
      "outputs": [
        {
          "internalType": "string",
          "name": "",
          "type": "string"
        }
      ],
      "stateMutability": "view",
      "type": "function"
    },
    {
      "inputs": [
        {
          "internalType": "uint256",
          "name": "tokenId",
          "type": "uint256"
        }
      ],
      "name": "ownerOf",
      "outputs": [
        {
          "internalType": "address",
          "name": "",
          "type": "address"
        }
      ],
      "stateMutability": "view",
      "type": "function"
    },
    {
      "inputs": [
        {
          "internalType": "address",
          "name": "from",
          "type": "address"
        },
        {
          "internalType": "address",
          "name": "to",
          "type": "address"
        },
        {
          "internalType": "uint256",
          "name": "tokenId",
          "type": "uint256"
        }
      ],
      "name": "safeTransferFrom",
      "outputs": [],
      "stateMutability": "nonpayable",
      "type": "function"
    },
    {
      "inputs": [
        {
          "internalType": "address",
          "name": "from",
          "type": "address"
        },
        {
          "internalType": "address",
          "name": "to",
          "type": "address"
        },
        {
          "internalType": "uint256",
          "name": "tokenId",
          "type": "uint256"
        },
        {
          "internalType": "bytes",
          "name": "_data",
          "type": "bytes"
        }
      ],
      "name": "safeTransferFrom",
      "outputs": [],
      "stateMutability": "nonpayable",
      "type": "function"
    },
    {
      "inputs": [
        {
          "internalType": "address",
          "name": "operator",
          "type": "address"
        },
        {
          "internalType": "bool",
          "name": "approved",
          "type": "bool"
        }
      ],
      "name": "setApprovalForAll",
      "outputs": [],
      "stateMutability": "nonpayable",
      "type": "function"
    },
    {
      "inputs": [
        {
          "internalType": "uint256",
          "name": "_tokenId",
          "type": "uint256"
        },
        {
          "components": [
            {
              "internalType": "address",
              "name": "verificationAddress",
              "type": "address"
            },
            {
              "internalType": "string",
              "name": "artist",
              "type": "string"
            },
            {
              "internalType": "address",
              "name": "wallet",
              "type": "address"
            },
            {
              "internalType": "string",
              "name": "contents",
              "type": "string"
            }
          ],
          "internalType": "struct TokenWalkDomain.Signature",
          "name": "_message",
          "type": "tuple"
        },
        {
          "internalType": "bytes",
          "name": "_signature",
          "type": "bytes"
        }
      ],
      "name": "sign",
      "outputs": [],
      "stateMutability": "nonpayable",
      "type": "function"
    },
    {
      "inputs": [
        {
          "internalType": "bytes4",
          "name": "interfaceId",
          "type": "bytes4"
        }
      ],
      "name": "supportsInterface",
      "outputs": [
        {
          "internalType": "bool",
          "name": "",
          "type": "bool"
        }
      ],
      "stateMutability": "view",
      "type": "function"
    },
    {
      "inputs": [],
      "name": "symbol",
      "outputs": [
        {
          "internalType": "string",
          "name": "",
          "type": "string"
        }
      ],
      "stateMutability": "view",
      "type": "function"
    },
    {
      "inputs": [
        {
          "internalType": "uint256",
          "name": "tokenId",
          "type": "uint256"
        }
      ],
      "name": "tokenURI",
      "outputs": [
        {
          "internalType": "string",
          "name": "",
          "type": "string"
        }
      ],
      "stateMutability": "view",
      "type": "function"
    },
    {
      "inputs": [],
      "name": "topId",
      "outputs": [
        {
          "internalType": "uint256",
          "name": "",
          "type": "uint256"
        }
      ],
      "stateMutability": "view",
      "type": "function"
    },
    {
      "inputs": [
        {
          "internalType": "address",
          "name": "from",
          "type": "address"
        },
        {
          "internalType": "address",
          "name": "to",
          "type": "address"
        },
        {
          "internalType": "uint256",
          "name": "tokenId",
          "type": "uint256"
        }
      ],
      "name": "transferFrom",
      "outputs": [],
      "stateMutability": "nonpayable",
      "type": "function"
    }
  ],
  "bytecode": "0x60806040526001600a553480156200001657600080fd5b50604051620041423803806200414283398181016040528101906200003c91906200026c565b81818160009080519060200190620000569291906200014a565b5080600190805190602001906200006f9291906200014a565b5050507f8b73c3c69bb8fe3d512ecc4cf759cc79239f7b179b0ffacaa9a75d522b39400f6040518060400160405280600a81526020017f546f6b656e2057616c6b00000000000000000000000000000000000000000000815250805190602001206040518060400160405280600181526020017f3100000000000000000000000000000000000000000000000000000000000000815250805190602001206001306040516020016200012695949392919062000312565b604051602081830303815290604052805190602001206007819055505050620004ff565b82805462000158906200046b565b90600052602060002090601f0160209004810192826200017c5760008555620001c8565b82601f106200019757805160ff1916838001178555620001c8565b82800160010185558215620001c8579182015b82811115620001c7578251825591602001919060010190620001aa565b5b509050620001d79190620001db565b5090565b5b80821115620001f6576000816000905550600101620001dc565b5090565b6000620002116200020b84620003a3565b6200036f565b9050828152602081018484840111156200022a57600080fd5b6200023784828562000435565b509392505050565b600082601f8301126200025157600080fd5b815162000263848260208601620001fa565b91505092915050565b600080604083850312156200028057600080fd5b600083015167ffffffffffffffff8111156200029b57600080fd5b620002a9858286016200023f565b925050602083015167ffffffffffffffff811115620002c757600080fd5b620002d5858286016200023f565b9150509250929050565b620002ea81620003d6565b82525050565b620002fb81620003ea565b82525050565b6200030c8162000421565b82525050565b600060a082019050620003296000830188620002f0565b620003386020830187620002f0565b620003476040830186620002f0565b62000356606083018562000301565b620003656080830184620002df565b9695505050505050565b6000604051905081810181811067ffffffffffffffff82111715620003995762000398620004d0565b5b8060405250919050565b600067ffffffffffffffff821115620003c157620003c0620004d0565b5b601f19601f8301169050602081019050919050565b6000620003e382620003f4565b9050919050565b6000819050919050565b600073ffffffffffffffffffffffffffffffffffffffff82169050919050565b600060ff82169050919050565b60006200042e8262000414565b9050919050565b60005b838110156200045557808201518184015260208101905062000438565b8381111562000465576000848401525b50505050565b600060028204905060018216806200048457607f821691505b602082108114156200049b576200049a620004a1565b5b50919050565b7f4e487b7100000000000000000000000000000000000000000000000000000000600052602260045260246000fd5b7f4e487b7100000000000000000000000000000000000000000000000000000000600052604160045260246000fd5b613c33806200050f6000396000f3fe608060405234801561001057600080fd5b50600436106101215760003560e01c806342842e0e116100ad578063a22cb46511610071578063a22cb4651461031a578063b88d4fde14610336578063c87b56dd14610352578063ddb29c7014610382578063e985e9c5146103b257610121565b806342842e0e146102645780636352211e14610280578063686b209e146102b057806370a08231146102cc57806395d89b41146102fc57610121565b8063095ea7b3116100f4578063095ea7b3146101d457806323b872dd146101f05780633242d7631461020c578063331f5f8c146102285780633644e5151461024657610121565b806301ffc9a71461012657806302a569e61461015657806306fdde0314610186578063081812fc146101a4575b600080fd5b610140600480360381019061013b91906125ec565b6103e2565b60405161014d9190613367565b60405180910390f35b610170600480360381019061016b9190612711565b6104c4565b60405161017d9190613443565b60405180910390f35b61018e6105cc565b60405161019b9190613465565b60405180910390f35b6101be60048036038101906101b99190612711565b61065e565b6040516101cb9190613300565b60405180910390f35b6101ee60048036038101906101e991906125b0565b6106e3565b005b61020a600480360381019061020591906124aa565b6107fb565b005b6102266004803603810190610221919061273a565b61085b565b005b61023061086b565b60405161023d91906137a7565b60405180910390f35b61024e610871565b60405161025b9190613382565b60405180910390f35b61027e600480360381019061027991906124aa565b610877565b005b61029a60048036038101906102959190612711565b610897565b6040516102a79190613300565b60405180910390f35b6102ca60048036038101906102c5919061263e565b610949565b005b6102e660048036038101906102e19190612445565b610957565b6040516102f391906137a7565b60405180910390f35b610304610a0f565b6040516103119190613465565b60405180910390f35b610334600480360381019061032f9190612574565b610aa1565b005b610350600480360381019061034b91906124f9565b610c22565b005b61036c60048036038101906103679190612711565b610c84565b6040516103799190613465565b60405180910390f35b61039c60048036038101906103979190612692565b610dd6565b6040516103a99190613367565b60405180910390f35b6103cc60048036038101906103c7919061246e565b610f0c565b6040516103d99190613367565b60405180910390f35b60007f80ac58cd000000000000000000000000000000000000000000000000000000007bffffffffffffffffffffffffffffffffffffffffffffffffffffffff1916827bffffffffffffffffffffffffffffffffffffffffffffffffffffffff191614806104ad57507f5b5e139f000000000000000000000000000000000000000000000000000000007bffffffffffffffffffffffffffffffffffffffffffffffffffffffff1916827bffffffffffffffffffffffffffffffffffffffffffffffffffffffff1916145b806104bd57506104bc82610fa0565b5b9050919050565b606060006008600084815260200190815260200160002080546104e690613a1e565b90501415610529576040517f08c379a0000000000000000000000000000000000000000000000000000000008152600401610520906136e7565b60405180910390fd5b60086000838152602001908152602001600020805461054790613a1e565b80601f016020809104026020016040519081016040528092919081815260200182805461057390613a1e565b80156105c05780601f10610595576101008083540402835291602001916105c0565b820191906000526020600020905b8154815290600101906020018083116105a357829003601f168201915b50505050509050919050565b6060600080546105db90613a1e565b80601f016020809104026020016040519081016040528092919081815260200182805461060790613a1e565b80156106545780601f1061062957610100808354040283529160200191610654565b820191906000526020600020905b81548152906001019060200180831161063757829003601f168201915b5050505050905090565b60006106698261100a565b6106a8576040517f08c379a000000000000000000000000000000000000000000000000000000000815260040161069f906136c7565b60405180910390fd5b6004600083815260200190815260200160002060009054906101000a900473ffffffffffffffffffffffffffffffffffffffff169050919050565b60006106ee82610897565b90508073ffffffffffffffffffffffffffffffffffffffff168373ffffffffffffffffffffffffffffffffffffffff16141561075f576040517f08c379a000000000000000000000000000000000000000000000000000000000815260040161075690613747565b60405180910390fd5b8073ffffffffffffffffffffffffffffffffffffffff1661077e611076565b73ffffffffffffffffffffffffffffffffffffffff1614806107ad57506107ac816107a7611076565b610f0c565b5b6107ec576040517f08c379a00000000000000000000000000000000000000000000000000000000081526004016107e3906135c7565b60405180910390fd5b6107f6838361107e565b505050565b61080c610806611076565b82611137565b61084b576040517f08c379a000000000000000000000000000000000000000000000000000000000815260040161084290613767565b60405180910390fd5b610856838383611215565b505050565b610866838383611471565b505050565b600a5481565b60075481565b61089283838360405180602001604052806000815250610c22565b505050565b6000806002600084815260200190815260200160002060009054906101000a900473ffffffffffffffffffffffffffffffffffffffff169050600073ffffffffffffffffffffffffffffffffffffffff168173ffffffffffffffffffffffffffffffffffffffff161415610940576040517f08c379a000000000000000000000000000000000000000000000000000000000815260040161093790613607565b60405180910390fd5b80915050919050565b61095382826116a3565b5050565b60008073ffffffffffffffffffffffffffffffffffffffff168273ffffffffffffffffffffffffffffffffffffffff1614156109c8576040517f08c379a00000000000000000000000000000000000000000000000000000000081526004016109bf906135e7565b60405180910390fd5b600360008373ffffffffffffffffffffffffffffffffffffffff1673ffffffffffffffffffffffffffffffffffffffff168152602001908152602001600020549050919050565b606060018054610a1e90613a1e565b80601f0160208091040260200160405190810160405280929190818152602001828054610a4a90613a1e565b8015610a975780601f10610a6c57610100808354040283529160200191610a97565b820191906000526020600020905b815481529060010190602001808311610a7a57829003601f168201915b5050505050905090565b610aa9611076565b73ffffffffffffffffffffffffffffffffffffffff168273ffffffffffffffffffffffffffffffffffffffff161415610b17576040517f08c379a0000000000000000000000000000000000000000000000000000000008152600401610b0e90613567565b60405180910390fd5b8060056000610b24611076565b73ffffffffffffffffffffffffffffffffffffffff1673ffffffffffffffffffffffffffffffffffffffff16815260200190815260200160002060008473ffffffffffffffffffffffffffffffffffffffff1673ffffffffffffffffffffffffffffffffffffffff16815260200190815260200160002060006101000a81548160ff0219169083151502179055508173ffffffffffffffffffffffffffffffffffffffff16610bd1611076565b73ffffffffffffffffffffffffffffffffffffffff167f17307eab39ab6107e8899845ad3d59bd9653f200f220920489ca2b5937696c3183604051610c169190613367565b60405180910390a35050565b610c33610c2d611076565b83611137565b610c72576040517f08c379a0000000000000000000000000000000000000000000000000000000008152600401610c6990613767565b60405180910390fd5b610c7e848484846117b8565b50505050565b6060610c8f8261100a565b610cce576040517f08c379a0000000000000000000000000000000000000000000000000000000008152600401610cc5906136a7565b60405180910390fd5b6000600660008481526020019081526020016000208054610cee90613a1e565b80601f0160208091040260200160405190810160405280929190818152602001828054610d1a90613a1e565b8015610d675780601f10610d3c57610100808354040283529160200191610d67565b820191906000526020600020905b815481529060010190602001808311610d4a57829003601f168201915b505050505090506000610d78611814565b9050600081511415610d8e578192505050610dd1565b600082511115610dc3578082604051602001610dab929190613276565b60405160208183030381529060405292505050610dd1565b610dcc8461182b565b925050505b919050565b600080610de2856118d2565b90506000610df08286611960565b90506009600085815260200190815260200160002060009054906101000a900473ffffffffffffffffffffffffffffffffffffffff1673ffffffffffffffffffffffffffffffffffffffff168173ffffffffffffffffffffffffffffffffffffffff16148015610f015750610f00600860008681526020019081526020016000208054610e7c90613a1e565b80601f0160208091040260200160405190810160405280929190818152602001828054610ea890613a1e565b8015610ef55780601f10610eca57610100808354040283529160200191610ef5565b820191906000526020600020905b815481529060010190602001808311610ed857829003601f168201915b5050505050866119da565b5b925050509392505050565b6000600560008473ffffffffffffffffffffffffffffffffffffffff1673ffffffffffffffffffffffffffffffffffffffff16815260200190815260200160002060008373ffffffffffffffffffffffffffffffffffffffff1673ffffffffffffffffffffffffffffffffffffffff16815260200190815260200160002060009054906101000a900460ff16905092915050565b60007f01ffc9a7000000000000000000000000000000000000000000000000000000007bffffffffffffffffffffffffffffffffffffffffffffffffffffffff1916827bffffffffffffffffffffffffffffffffffffffffffffffffffffffff1916149050919050565b60008073ffffffffffffffffffffffffffffffffffffffff166002600084815260200190815260200160002060009054906101000a900473ffffffffffffffffffffffffffffffffffffffff1673ffffffffffffffffffffffffffffffffffffffff1614159050919050565b600033905090565b816004600083815260200190815260200160002060006101000a81548173ffffffffffffffffffffffffffffffffffffffff021916908373ffffffffffffffffffffffffffffffffffffffff160217905550808273ffffffffffffffffffffffffffffffffffffffff166110f183610897565b73ffffffffffffffffffffffffffffffffffffffff167f8c5be1e5ebec7d5bd14f71427d1e84f3dd0314c0f7b2291e5b200ac8c7c3b92560405160405180910390a45050565b60006111428261100a565b611181576040517f08c379a0000000000000000000000000000000000000000000000000000000008152600401611178906135a7565b60405180910390fd5b600061118c83610897565b90508073ffffffffffffffffffffffffffffffffffffffff168473ffffffffffffffffffffffffffffffffffffffff1614806111fb57508373ffffffffffffffffffffffffffffffffffffffff166111e38461065e565b73ffffffffffffffffffffffffffffffffffffffff16145b8061120c575061120b8185610f0c565b5b91505092915050565b8273ffffffffffffffffffffffffffffffffffffffff1661123582610897565b73ffffffffffffffffffffffffffffffffffffffff161461128b576040517f08c379a000000000000000000000000000000000000000000000000000000000815260040161128290613707565b60405180910390fd5b600073ffffffffffffffffffffffffffffffffffffffff168273ffffffffffffffffffffffffffffffffffffffff1614156112fb576040517f08c379a00000000000000000000000000000000000000000000000000000000081526004016112f290613547565b60405180910390fd5b611306838383611a16565b61131160008261107e565b6001600360008573ffffffffffffffffffffffffffffffffffffffff1673ffffffffffffffffffffffffffffffffffffffff1681526020019081526020016000206000828254611361919061391d565b925050819055506001600360008473ffffffffffffffffffffffffffffffffffffffff1673ffffffffffffffffffffffffffffffffffffffff16815260200190815260200160002060008282546113b89190613896565b92505081905550816002600083815260200190815260200160002060006101000a81548173ffffffffffffffffffffffffffffffffffffffff021916908373ffffffffffffffffffffffffffffffffffffffff160217905550808273ffffffffffffffffffffffffffffffffffffffff168473ffffffffffffffffffffffffffffffffffffffff167fddf252ad1be2c89b69c2b068fc378daa952ba7f163c4a11628f55a4df523b3ef60405160405180910390a4505050565b6009600084815260200190815260200160002060009054906101000a900473ffffffffffffffffffffffffffffffffffffffff1673ffffffffffffffffffffffffffffffffffffffff163373ffffffffffffffffffffffffffffffffffffffff1614611512576040517f08c379a000000000000000000000000000000000000000000000000000000000815260040161150990613687565b60405180910390fd5b600060086000858152602001908152602001600020805461153290613a1e565b905014611574576040517f08c379a000000000000000000000000000000000000000000000000000000000815260040161156b90613507565b60405180910390fd5b600061157f836118d2565b9050600061158d8284611960565b90506009600086815260200190815260200160002060009054906101000a900473ffffffffffffffffffffffffffffffffffffffff1673ffffffffffffffffffffffffffffffffffffffff168173ffffffffffffffffffffffffffffffffffffffff1614611630576040517f08c379a0000000000000000000000000000000000000000000000000000000008152600401611627906134a7565b60405180910390fd5b8260086000878152602001908152602001600020908051906020019061165792919061213f565b50843373ffffffffffffffffffffffffffffffffffffffff167ff4b7ab5b8fc49d6d35d323cae6a96e1441b461f862dfc5aff92e806e2839b5b060405160405180910390a35050505050565b600081116116e6576040517f08c379a00000000000000000000000000000000000000000000000000000000081526004016116dd90613787565b60405180910390fd5b60005b818110156117b3576116fd33600a54611a1b565b611734600a548461170f600a54611be9565b60405160200161172092919061329a565b604051602081830303815290604052611d96565b3360096000600a54815260200190815260200160002060006101000a81548173ffffffffffffffffffffffffffffffffffffffff021916908373ffffffffffffffffffffffffffffffffffffffff160217905550600a600081548092919061179b90613a50565b919050555080806117ab90613a50565b9150506116e9565b505050565b6117c3848484611215565b6117cf84848484611e0a565b61180e576040517f08c379a0000000000000000000000000000000000000000000000000000000008152600401611805906134e7565b60405180910390fd5b50505050565b606060405180602001604052806000815250905090565b60606118368261100a565b611875576040517f08c379a000000000000000000000000000000000000000000000000000000000815260040161186c90613727565b60405180910390fd5b600061187f611814565b9050600081511161189f57604051806020016040528060008152506118ca565b806118a984611be9565b6040516020016118ba929190613276565b6040516020818303038152906040525b915050919050565b60006007547f1e42c447b01f5573e84d49a0ca5625af0baaf3c2e093f2bd448e06d657f3582e3084602001518560400151866060015160405160200161191c95949392919061339d565b604051602081830303815290604052805190602001206040516020016119439291906132c9565b604051602081830303815290604052805190602001209050919050565b600060418251146119a6576040517f08c379a000000000000000000000000000000000000000000000000000000000815260040161199d906134c7565b60405180910390fd5b60008060006020850151925060408501519150606085015160001a90506119cf86828585611fa1565b935050505092915050565b600081518351146119ee5760009050611a10565b6000806000855190506020860192506020850191508082208184201493505050505b92915050565b505050565b600073ffffffffffffffffffffffffffffffffffffffff168273ffffffffffffffffffffffffffffffffffffffff161415611a8b576040517f08c379a0000000000000000000000000000000000000000000000000000000008152600401611a8290613667565b60405180910390fd5b611a948161100a565b15611ad4576040517f08c379a0000000000000000000000000000000000000000000000000000000008152600401611acb90613527565b60405180910390fd5b611ae060008383611a16565b6001600360008473ffffffffffffffffffffffffffffffffffffffff1673ffffffffffffffffffffffffffffffffffffffff1681526020019081526020016000206000828254611b309190613896565b92505081905550816002600083815260200190815260200160002060006101000a81548173ffffffffffffffffffffffffffffffffffffffff021916908373ffffffffffffffffffffffffffffffffffffffff160217905550808273ffffffffffffffffffffffffffffffffffffffff16600073ffffffffffffffffffffffffffffffffffffffff167fddf252ad1be2c89b69c2b068fc378daa952ba7f163c4a11628f55a4df523b3ef60405160405180910390a45050565b60606000821415611c31576040518060400160405280600181526020017f30000000000000000000000000000000000000000000000000000000000000008152509050611d91565b600082905060005b60008214611c63578080611c4c90613a50565b915050600a82611c5c91906138ec565b9150611c39565b60008167ffffffffffffffff811115611ca5577f4e487b7100000000000000000000000000000000000000000000000000000000600052604160045260246000fd5b6040519080825280601f01601f191660200182016040528015611cd75781602001600182028036833780820191505090505b5090505b60008514611d8a57600182611cf0919061391d565b9150600a85611cff9190613aa3565b6030611d0b9190613896565b60f81b818381518110611d47577f4e487b7100000000000000000000000000000000000000000000000000000000600052603260045260246000fd5b60200101907effffffffffffffffffffffffffffffffffffffffffffffffffffffffffffff1916908160001a905350600a85611d8391906138ec565b9450611cdb565b8093505050505b919050565b611d9f8261100a565b611dde576040517f08c379a0000000000000000000000000000000000000000000000000000000008152600401611dd590613627565b60405180910390fd5b80600660008481526020019081526020016000209080519060200190611e059291906121c5565b505050565b6000611e2b8473ffffffffffffffffffffffffffffffffffffffff1661212c565b15611f94578373ffffffffffffffffffffffffffffffffffffffff1663150b7a02611e54611076565b8786866040518563ffffffff1660e01b8152600401611e76949392919061331b565b602060405180830381600087803b158015611e9057600080fd5b505af1925050508015611ec157506040513d601f19601f82011682018060405250810190611ebe9190612615565b60015b611f44573d8060008114611ef1576040519150601f19603f3d011682016040523d82523d6000602084013e611ef6565b606091505b50600081511415611f3c576040517f08c379a0000000000000000000000000000000000000000000000000000000008152600401611f33906134e7565b60405180910390fd5b805181602001fd5b63150b7a0260e01b7bffffffffffffffffffffffffffffffffffffffffffffffffffffffff1916817bffffffffffffffffffffffffffffffffffffffffffffffffffffffff191614915050611f99565b600190505b949350505050565b60007f7fffffffffffffffffffffffffffffff5d576e7357a4501ddfe92f46681b20a08260001c1115612009576040517f08c379a000000000000000000000000000000000000000000000000000000000815260040161200090613587565b60405180910390fd5b601b8460ff16148061201e5750601c8460ff16145b61205d576040517f08c379a000000000000000000000000000000000000000000000000000000000815260040161205490613647565b60405180910390fd5b60006001868686866040516000815260200160405260405161208294939291906133fe565b6020604051602081039080840390855afa1580156120a4573d6000803e3d6000fd5b505050602060405103519050600073ffffffffffffffffffffffffffffffffffffffff168173ffffffffffffffffffffffffffffffffffffffff161415612120576040517f08c379a000000000000000000000000000000000000000000000000000000000815260040161211790613487565b60405180910390fd5b80915050949350505050565b600080823b905060008111915050919050565b82805461214b90613a1e565b90600052602060002090601f01602090048101928261216d57600085556121b4565b82601f1061218657805160ff19168380011785556121b4565b828001600101855582156121b4579182015b828111156121b3578251825591602001919060010190612198565b5b5090506121c1919061224b565b5090565b8280546121d190613a1e565b90600052602060002090601f0160209004810192826121f3576000855561223a565b82601f1061220c57805160ff191683800117855561223a565b8280016001018555821561223a579182015b8281111561223957825182559160200191906001019061221e565b5b509050612247919061224b565b5090565b5b8082111561226457600081600090555060010161224c565b5090565b600061227b612276846137f3565b6137c2565b90508281526020810184848401111561229357600080fd5b61229e8482856139dc565b509392505050565b60006122b96122b484613823565b6137c2565b9050828152602081018484840111156122d157600080fd5b6122dc8482856139dc565b509392505050565b6000813590506122f381613ba1565b92915050565b60008135905061230881613bb8565b92915050565b60008135905061231d81613bcf565b92915050565b60008151905061233281613bcf565b92915050565b600082601f83011261234957600080fd5b8135612359848260208601612268565b91505092915050565b600082601f83011261237357600080fd5b81356123838482602086016122a6565b91505092915050565b60006080828403121561239e57600080fd5b6123a860806137c2565b905060006123b8848285016122e4565b600083015250602082013567ffffffffffffffff8111156123d857600080fd5b6123e484828501612362565b60208301525060406123f8848285016122e4565b604083015250606082013567ffffffffffffffff81111561241857600080fd5b61242484828501612362565b60608301525092915050565b60008135905061243f81613be6565b92915050565b60006020828403121561245757600080fd5b6000612465848285016122e4565b91505092915050565b6000806040838503121561248157600080fd5b600061248f858286016122e4565b92505060206124a0858286016122e4565b9150509250929050565b6000806000606084860312156124bf57600080fd5b60006124cd868287016122e4565b93505060206124de868287016122e4565b92505060406124ef86828701612430565b9150509250925092565b6000806000806080858703121561250f57600080fd5b600061251d878288016122e4565b945050602061252e878288016122e4565b935050604061253f87828801612430565b925050606085013567ffffffffffffffff81111561255c57600080fd5b61256887828801612338565b91505092959194509250565b6000806040838503121561258757600080fd5b6000612595858286016122e4565b92505060206125a6858286016122f9565b9150509250929050565b600080604083850312156125c357600080fd5b60006125d1858286016122e4565b92505060206125e285828601612430565b9150509250929050565b6000602082840312156125fe57600080fd5b600061260c8482850161230e565b91505092915050565b60006020828403121561262757600080fd5b600061263584828501612323565b91505092915050565b6000806040838503121561265157600080fd5b600083013567ffffffffffffffff81111561266b57600080fd5b61267785828601612362565b925050602061268885828601612430565b9150509250929050565b6000806000606084860312156126a757600080fd5b600084013567ffffffffffffffff8111156126c157600080fd5b6126cd8682870161238c565b935050602084013567ffffffffffffffff8111156126ea57600080fd5b6126f686828701612338565b925050604061270786828701612430565b9150509250925092565b60006020828403121561272357600080fd5b600061273184828501612430565b91505092915050565b60008060006060848603121561274f57600080fd5b600061275d86828701612430565b935050602084013567ffffffffffffffff81111561277a57600080fd5b6127868682870161238c565b925050604084013567ffffffffffffffff8111156127a357600080fd5b6127af86828701612338565b9150509250925092565b6127c281613951565b82525050565b6127d181613963565b82525050565b6127e08161396f565b82525050565b6127f76127f28261396f565b613a99565b82525050565b600061280882613853565b6128128185613869565b93506128228185602086016139eb565b61282b81613b90565b840191505092915050565b60006128418261385e565b61284b818561387a565b935061285b8185602086016139eb565b61286481613b90565b840191505092915050565b600061287a8261385e565b612884818561388b565b93506128948185602086016139eb565b80840191505092915050565b60006128ad60188361387a565b91507f45434453413a20696e76616c6964207369676e617475726500000000000000006000830152602082019050919050565b60006128ed602b8361387a565b91507f455243373231457874656e73696f6e733a20617274697374207369676e61747560008301527f7265206d69736d617463680000000000000000000000000000000000000000006020830152604082019050919050565b6000612953601f8361387a565b91507f45434453413a20696e76616c6964207369676e6174757265206c656e677468006000830152602082019050919050565b600061299360328361387a565b91507f4552433732313a207472616e7366657220746f206e6f6e20455243373231526560008301527f63656976657220696d706c656d656e74657200000000000000000000000000006020830152604082019050919050565b60006129f9602e8361387a565b91507f455243373231457874656e73696f6e733a207468697320746f6b656e2069732060008301527f616c7265616479207369676e65640000000000000000000000000000000000006020830152604082019050919050565b6000612a5f601c8361387a565b91507f4552433732313a20746f6b656e20616c7265616479206d696e746564000000006000830152602082019050919050565b6000612a9f60028361388b565b91507f19010000000000000000000000000000000000000000000000000000000000006000830152600282019050919050565b6000612adf60248361387a565b91507f4552433732313a207472616e7366657220746f20746865207a65726f2061646460008301527f72657373000000000000000000000000000000000000000000000000000000006020830152604082019050919050565b6000612b4560198361387a565b91507f4552433732313a20617070726f766520746f2063616c6c6572000000000000006000830152602082019050919050565b6000612b8560228361387a565b91507f45434453413a20696e76616c6964207369676e6174757265202773272076616c60008301527f75650000000000000000000000000000000000000000000000000000000000006020830152604082019050919050565b6000612beb602c8361387a565b91507f4552433732313a206f70657261746f7220717565727920666f72206e6f6e657860008301527f697374656e7420746f6b656e00000000000000000000000000000000000000006020830152604082019050919050565b6000612c5160388361387a565b91507f4552433732313a20617070726f76652063616c6c6572206973206e6f74206f7760008301527f6e6572206e6f7220617070726f76656420666f7220616c6c00000000000000006020830152604082019050919050565b6000612cb7602a8361387a565b91507f4552433732313a2062616c616e636520717565727920666f7220746865207a6560008301527f726f2061646472657373000000000000000000000000000000000000000000006020830152604082019050919050565b6000612d1d60298361387a565b91507f4552433732313a206f776e657220717565727920666f72206e6f6e657869737460008301527f656e7420746f6b656e00000000000000000000000000000000000000000000006020830152604082019050919050565b6000612d83602e8361387a565b91507f45524337323155524953746f726167653a2055524920736574206f66206e6f6e60008301527f6578697374656e7420746f6b656e0000000000000000000000000000000000006020830152604082019050919050565b6000612de960228361387a565b91507f45434453413a20696e76616c6964207369676e6174757265202776272076616c60008301527f75650000000000000000000000000000000000000000000000000000000000006020830152604082019050919050565b6000612e4f60208361387a565b91507f4552433732313a206d696e7420746f20746865207a65726f20616464726573736000830152602082019050919050565b6000612e8f60358361387a565b91507f455243373231457874656e73696f6e733a206f6e6c792074686520617274697360008301527f74206d6179207369676e20746865697220776f726b00000000000000000000006020830152604082019050919050565b6000612ef560318361387a565b91507f45524337323155524953746f726167653a2055524920717565727920666f722060008301527f6e6f6e6578697374656e7420746f6b656e0000000000000000000000000000006020830152604082019050919050565b6000612f5b602c8361387a565b91507f4552433732313a20617070726f76656420717565727920666f72206e6f6e657860008301527f697374656e7420746f6b656e00000000000000000000000000000000000000006020830152604082019050919050565b6000612fc160058361388b565b91507f2e6a736f6e0000000000000000000000000000000000000000000000000000006000830152600582019050919050565b600061300160318361387a565b91507f455243373231457874656e73696f6e733a206e6f207369676e6174757265206560008301527f786973747320666f7220746869732049640000000000000000000000000000006020830152604082019050919050565b600061306760298361387a565b91507f4552433732313a207472616e73666572206f6620746f6b656e2074686174206960008301527f73206e6f74206f776e00000000000000000000000000000000000000000000006020830152604082019050919050565b60006130cd602f8361387a565b91507f4552433732314d657461646174613a2055524920717565727920666f72206e6f60008301527f6e6578697374656e7420746f6b656e00000000000000000000000000000000006020830152604082019050919050565b600061313360218361387a565b91507f4552433732313a20617070726f76616c20746f2063757272656e74206f776e6560008301527f72000000000000000000000000000000000000000000000000000000000000006020830152604082019050919050565b600061319960318361387a565b91507f4552433732313a207472616e736665722063616c6c6572206973206e6f74206f60008301527f776e6572206e6f7220617070726f7665640000000000000000000000000000006020830152604082019050919050565b60006131ff603e8361387a565b91507f455243373231457874656e73696f6e733a207468652065646974696f6e20737560008301527f70706c79206973206e6f742073657420746f206d6f7265207468616e203000006020830152604082019050919050565b613261816139c5565b82525050565b613270816139cf565b82525050565b6000613282828561286f565b915061328e828461286f565b91508190509392505050565b60006132a6828561286f565b91506132b2828461286f565b91506132bd82612fb4565b91508190509392505050565b60006132d482612a92565b91506132e082856127e6565b6020820191506132f082846127e6565b6020820191508190509392505050565b600060208201905061331560008301846127b9565b92915050565b600060808201905061333060008301876127b9565b61333d60208301866127b9565b61334a6040830185613258565b818103606083015261335c81846127fd565b905095945050505050565b600060208201905061337c60008301846127c8565b92915050565b600060208201905061339760008301846127d7565b92915050565b600060a0820190506133b260008301886127d7565b6133bf60208301876127b9565b81810360408301526133d18186612836565b90506133e060608301856127b9565b81810360808301526133f28184612836565b90509695505050505050565b600060808201905061341360008301876127d7565b6134206020830186613267565b61342d60408301856127d7565b61343a60608301846127d7565b95945050505050565b6000602082019050818103600083015261345d81846127fd565b905092915050565b6000602082019050818103600083015261347f8184612836565b905092915050565b600060208201905081810360008301526134a0816128a0565b9050919050565b600060208201905081810360008301526134c0816128e0565b9050919050565b600060208201905081810360008301526134e081612946565b9050919050565b6000602082019050818103600083015261350081612986565b9050919050565b60006020820190508181036000830152613520816129ec565b9050919050565b6000602082019050818103600083015261354081612a52565b9050919050565b6000602082019050818103600083015261356081612ad2565b9050919050565b6000602082019050818103600083015261358081612b38565b9050919050565b600060208201905081810360008301526135a081612b78565b9050919050565b600060208201905081810360008301526135c081612bde565b9050919050565b600060208201905081810360008301526135e081612c44565b9050919050565b6000602082019050818103600083015261360081612caa565b9050919050565b6000602082019050818103600083015261362081612d10565b9050919050565b6000602082019050818103600083015261364081612d76565b9050919050565b6000602082019050818103600083015261366081612ddc565b9050919050565b6000602082019050818103600083015261368081612e42565b9050919050565b600060208201905081810360008301526136a081612e82565b9050919050565b600060208201905081810360008301526136c081612ee8565b9050919050565b600060208201905081810360008301526136e081612f4e565b9050919050565b6000602082019050818103600083015261370081612ff4565b9050919050565b600060208201905081810360008301526137208161305a565b9050919050565b60006020820190508181036000830152613740816130c0565b9050919050565b6000602082019050818103600083015261376081613126565b9050919050565b600060208201905081810360008301526137808161318c565b9050919050565b600060208201905081810360008301526137a0816131f2565b9050919050565b60006020820190506137bc6000830184613258565b92915050565b6000604051905081810181811067ffffffffffffffff821117156137e9576137e8613b61565b5b8060405250919050565b600067ffffffffffffffff82111561380e5761380d613b61565b5b601f19601f8301169050602081019050919050565b600067ffffffffffffffff82111561383e5761383d613b61565b5b601f19601f8301169050602081019050919050565b600081519050919050565b600081519050919050565b600082825260208201905092915050565b600082825260208201905092915050565b600081905092915050565b60006138a1826139c5565b91506138ac836139c5565b9250827fffffffffffffffffffffffffffffffffffffffffffffffffffffffffffffffff038211156138e1576138e0613ad4565b5b828201905092915050565b60006138f7826139c5565b9150613902836139c5565b92508261391257613911613b03565b5b828204905092915050565b6000613928826139c5565b9150613933836139c5565b92508282101561394657613945613ad4565b5b828203905092915050565b600061395c826139a5565b9050919050565b60008115159050919050565b6000819050919050565b60007fffffffff0000000000000000000000000000000000000000000000000000000082169050919050565b600073ffffffffffffffffffffffffffffffffffffffff82169050919050565b6000819050919050565b600060ff82169050919050565b82818337600083830152505050565b60005b83811015613a095780820151818401526020810190506139ee565b83811115613a18576000848401525b50505050565b60006002820490506001821680613a3657607f821691505b60208210811415613a4a57613a49613b32565b5b50919050565b6000613a5b826139c5565b91507fffffffffffffffffffffffffffffffffffffffffffffffffffffffffffffffff821415613a8e57613a8d613ad4565b5b600182019050919050565b6000819050919050565b6000613aae826139c5565b9150613ab9836139c5565b925082613ac957613ac8613b03565b5b828206905092915050565b7f4e487b7100000000000000000000000000000000000000000000000000000000600052601160045260246000fd5b7f4e487b7100000000000000000000000000000000000000000000000000000000600052601260045260246000fd5b7f4e487b7100000000000000000000000000000000000000000000000000000000600052602260045260246000fd5b7f4e487b7100000000000000000000000000000000000000000000000000000000600052604160045260246000fd5b6000601f19601f8301169050919050565b613baa81613951565b8114613bb557600080fd5b50565b613bc181613963565b8114613bcc57600080fd5b50565b613bd881613979565b8114613be357600080fd5b50565b613bef816139c5565b8114613bfa57600080fd5b5056fea2646970667358221220ce80e8f65a439b0ab17bd012c3f09fd32e9e8b9c13cee043631bf7683c0c110c64736f6c63430008000033",
  "linkReferences": {},
  "deployedLinkReferences": {}
}